:020000040000fa
:080000000001040000000000f3
:020000040000fa
:0400080020020000d2
:020000040000fa
:04000c0000020000ee
:020000040000fa
:0400100004020000e6
:020000040000fa
:0400140008020000de
:020000040000fa
:040018000c020000d6
:020000040000fa
:04001c0020020000be
:020000040000fa
:0400200020020000ba
:020000040000fa
:0400240020020000b6
:020000040000fa
:0400280020020000b2
:020000040000fa
:04002c0020020000ae
:020000040000fa
:0400300020020000aa
:020000040000fa
:0400340020020000a6
:020000040000fa
:0400380020020000a2
:020000040000fa
:04003c00200200009e
:020000040000fa
:040040008c490000e7
:020000040000fa
:04004400a40900000b
:020000040000fa
:040048002002000092
:020000040000fa
:04004c00cc4a00009a
:020000040000fa
:04005000ec4a000076
:020000040000fa
:040054002002000086
:020000040000fa
:040058002002000082
:020000040000fa
:04005c00200200007e
:020000040000fa
:04006000200200007a
:020000040000fa
:040064002002000076
:020000040000fa
:040068002002000072
:020000040000fa
:04006c00200200006e
:020000040000fa
:04007000200200006a
:020000040000fa
:040074002002000066
:020000040000fa
:040078002002000062
:020000040000fa
:04007c00260a000050
:020000040000fa
:04008000200200005a
:020000040000fa
:040084005024000004
:020000040000fa
:040088002002000052
:020000040000fa
:04008c00200200004e
:020000040000fa
:04009000200200004a
:020000040000fa
:040094002002000046
:020000040000fa
:040098002002000042
:020000040000fa
:04009c00200200003e
:020000040000fa
:0400a000200200003a
:020000040000fa
:0400a4002002000036
:020000040000fa
:0400a8002002000032
:020000040000fa
:0400ac00200200002e
:020000040000fa
:0400b000200200002a
:020000040000fa
:0400b4002002000026
:020000040000fa
:0400b8002002000022
:020000040000fa
:0400bc00200200001e
:020000040000fa
:0400c0009e38000066
:020000040000fa
:0400c4002002000016
:020000040000fa
:0400c8002002000012
:020000040000fa
:0400cc00200200000e
:020000040000fa
:0400d000200200000a
:020000040000fa
:0400d4002002000006
:020000040000fa
:0400d8002002000002
:020000040000fa
:0401080020020000d1
:020000040000fa
:04010c0010020000dd
:020000040000fa
:0401100014020000d5
:020000040000fa
:0401140018020000cd
:020000040000fa
:040118001c020000c5
:020000040000fa
:04011c0020020000bd
:020000040000fa
:0401200020020000b9
:020000040000fa
:0401240020020000b5
:020000040000fa
:0401280020020000b1
:020000040000fa
:04012c0020020000ad
:020000040000fa
:0401300020020000a9
:020000040000fa
:0401340020020000a5
:020000040000fa
:0401380020020000a1
:020000040000fa
:04013c00200200009d
:020000040000fa
:040140002002000099
:020000040000fa
:040144002002000095
:020000040000fa
:040148002002000091
:020000040000fa
:04014c00200200008d
:020000040000fa
:040150002002000089
:020000040000fa
:040154002002000085
:020000040000fa
:040158002002000081
:020000040000fa
:04015c00200200007d
:020000040000fa
:040160002002000079
:020000040000fa
:040164002002000075
:020000040000fa
:040168002002000071
:020000040000fa
:04016c00200200006d
:020000040000fa
:040170002002000069
:020000040000fa
:040174002002000065
:020000040000fa
:040178002002000061
:020000040000fa
:04017c00200200005d
:020000040000fa
:040180002002000059
:020000040000fa
:040184002002000055
:020000040000fa
:040188002002000051
:020000040000fa
:04018c00200200004d
:020000040000fa
:040190002002000049
:020000040000fa
:040194002002000045
:020000040000fa
:040198002002000041
:020000040000fa
:04019c00200200003d
:020000040000fa
:0401a0002002000039
:020000040000fa
:0401a4002002000035
:020000040000fa
:0401a8002002000031
:020000040000fa
:0401ac00200200002d
:020000040000fa
:0401b0002002000029
:020000040000fa
:0401b4002002000025
:020000040000fa
:0401b8002002000021
:020000040000fa
:0401bc00200200001d
:020000040000fa
:0401c0002002000019
:020000040000fa
:0401c4002002000015
:020000040000fa
:0401c8002002000011
:020000040000fa
:0401cc00200200000d
:020000040000fa
:0401d0002002000009
:020000040000fa
:0401d4002002000005
:020000040000fa
:0401d8002002000001
:020000040000fa
:10020000afee20000e7f22000e01880000000000eb
:10021000000020000000e000020032000001200089
:100220002002880014000700870007000000e0009b
:1002300003003a00209a2400010020000200370049
:100240000000200001002000810f7000010032003a
:1002500014000700000020000000e000020032004f
:100260000000020000000000e24b0200000000005d
:100270000040da000000fe004440a9008020200079
:100280000000e0000300320000002000a001880010
:100290004440a800000006008a1f78008b1f7800e9
:1002a0000000060091018800800478000000eb0047
:1002b0001a003700e284440032a0b4009905ba0065
:1002c000e284440032a0b4009906ba00e2844400fb
:1002d00032a0b4000006eb00476fde00fd07b2005d
:1002e000636ce10003003a00ebff07000000eb0045
:1002f0000a003700606ce10004003a00005deb008a
:100300008b05e900fdff3e00040037006168e10055
:10031000010032000086eb000b00070019c7ba008d
:100320001905ba000e04e00003003a000a00e000dc
:10033000e0ff3a0000000600fe07b2009e018800c0
:100340008a047800f5ff3700395dba008b05e900b3
:100350000c003200295dba008b05e900080032006c
:100360000c00e00003003a00e284440032a0b40034
:10037000f5ff370019ddba008b05e900faff3a00f6
:100380008904e800e184440032a0b40000000600c3
:10039000c8250400000000009625040000000000ad
:1003a00042250400000000001e250400000000009b
:1003b0000225040000000000e62404000000000004
:1003c00066250400000000004c0904000000000045
:1003d0004408040000000000f408040000000000cd
:1003e000ec070400000000009c080400000000006e
:1003f00094070400000000006207040000000000f1
:100400008020a900ffff37008060a900ffff3700b0
:100410008040a900ffff37008080a900ffff370060
:100420008020a900ffff37008060a900ffff370090
:100430008040a900ffff37008080a900ffff370040
:100440000040da000000fe00000005003200f80065
:10045000910188000008bb00410424006210e10003
:1004600004003200000220000010e1000a003a00ff
:1004700051042400013b88000500fc0051052000c8
:10048000313b8800a10a2000313b880061e7a800c9
:1004900000000000000000003200f900000006002b
:1004a0003200f80060042400003b8800f2ff3700af
:1004b0003200f8009101880041002400013b8800cf
:1004c0000208bb00ecff37003200f8009101880001
:1004d00051002400013b8800030120003218bb00ba
:1004e0008301e900fdff3a00e3ff37003200f80026
:1004f000910188008002780062004000e08048009e
:100500003549ba003204e0000410a70010003200a0
:100510008301e9000e0032002549ba003204e000f0
:100520000410a7000a0032008301e900080032002d
:100530000408a300eeff320015c9ba003204e0003f
:100540000410a700020032008301e900e8ff3a002e
:100550003200f9000000060003f0a200889fbe00f0
:100560008a9fbe008c1f7800b5000700bc003300d6
:100570006450e1004f0032006420e100520032007c
:1005800003826c0007003b000905d0000306d00081
:10059000820f54000c065d00020039000200320098
:1005a00089017800030678008582550004003d002b
:1005b0000003fd008103fd008502ea008b854200f7
:1005c000840f720002003b0060001000e080180001
:1005d0006011b8000005eb007a28e1000a0039003c
:1005e00006007800c75ddd00f707b2008780750060
:1005f0002d003700828171000a01780061056000da
:100600008180d1000080d3008502e900f9ff3b0022
:10061000060440008784480002003b006004140088
:10062000e0841c000988a300070032008a81710061
:1006300082817100610164008904d1000884d300c3
:100640008b05e800170037000978a30013003a0073
:100650000b00e000130034008b05e900080444009f
:1006600089844c000a4474000978a3000d003a0004
:100670000b00e000070034008b05e900080444008b
:1006800089844c0001003a000b0020000978a30087
:10069000f7ff32000001eb00020037008281710099
:1006a0000a0178002b0007000cf0a70001f0a00061
:1006b000740037006420e10002003a00838f6c0070
:1006c000740033000801be000200be006d00370058
:1006d00014002000a6003700f4ff2f00a40037000c
:1006e0000001be00410007000470a70003f0a10054
:1006f00003f8a30013003a006509b10010003200ae
:10070000090035006928e1000200350001002800d9
:100710000000050000004000818048008502e900db
:10072000fcff3a0000000600f88f4200050035008b
:100730008100d1000080d3008502e800fcff3a0070
:10074000000006008000eb00000005006011b8000a
:10075000a200370081002000618055000b003d00a1
:100760000b00200061fe2f000100e1001d0034009d
:1007700082817100610164008904d1000884d30082
:100780000000e800faff3a007100200061006400f8
:1007900003007000020060000900320061044400a0
:1007a000e0844c000988a500050032008b05e800b4
:1007b0006808e10002003a008904d1000884d300ef
:1007c000f20f20000258e10005003d00c75ddd008a
:1007d000f907b20089807500080078000000060063
:1007e0000bf827008b00780000000500c70ade0028
:1007f000f107b200f50fb20008003200e1cf42006d
:10080000020032000170a00024000500810f70007a
:10081000010032000408050044000500810f70004b
:1008200002003a00140005008502e90000004000c3
:1008300081c04800fcff3b000170a00024000500bf
:100840000004be00e9ff07000003be000405be006f
:100850000200be00e5ff0700844f7500000006009f
:100860000200be006450e100050036006420e10093
:10087000020036000968a30001003a000800be002b
:100880000160a0004f0678004f05be004f04be0077
:1008900000000600f0ff2f00f1ff2700f9ff3700ee
:1008a000889fbe008a9fbe008c1f7800e4ff07006f
:1008b000ebff330003866c006450e100240032003b
:1008c0006420e100270032006150e1002200320084
:1008d0006120e100210032008b854200eb07b1006e
:1008e0000134b800003ab8000804420089844a0084
:1008f000013ab8000030b8008880400009014a0081
:1009000004003300000040008180480002014900db
:100910008b05e900c909dd00830170000100320088
:1009200013002000c814de004814dd004709de0073
:100930001200b200c808de000884700085ff0700be
:1009400001f0a1000cf0a70001f0a000cdff3700de
:100950006120e100cfff32000801be000200be00ae
:10096000f7ff37006150e100fcff3a00c9ff370094
:10097000889fbe008a9fbe00841f7800b0ff0700da
:100980004f00780011003300f0ff2f00838f6c00c0
:1009900006003b00040565000a00a70008003700b8
:1009a00009f0a6001000200008003700820f540054
:1009b000838f5c00030039001000200001003e001e
:1009c0000000200009f0a7000000ea004f05be006b
:1009d0004f04be000000e00000000600889fbe003b
:1009e0008a9fbe00008270000402710004827100c0
:1009f000260032000004be000200be006011b800f4
:100a00006b092000950220000182cf000a00390006
:100a10000541b1000082cf00070039000541b10057
:100a20000982cf00040039000541b1000882cf00df
:100a3000010039000541b1000542520012003200a8
:100a40000a003b0082817100610164008100d100d5
:100a50000080d3008984d3000884d3008b05e8008c
:100a60000442e800f7ff3a0007003700080444009a
:100a700089844c0000004800818048008b05e90013
:100a80000442e900f9ff3a0032ff07004f05be00bb
:100a90004f04be000000060080017800020037000d
:100aa000b15978000201e9000200e000fcff3a00c1
:040ab000000006003c
:020000040000fa
:100ab40000c100008140000001c00000804100002e
:100ac40001c000008041000000c10000814000001e
:100ad40001c000008041000000c10000814000000e
:100ae40000c100008140000001c0000080410000fe
:100af40001c000008041000000c1000081400000ee
:100b040000c100008140000001c0000080410000dd
:100b140000c100008140000001c0000080410000cd
:100b240001c000008041000000c1000081400000bd
:100b340001c000008041000000c1000081400000ad
:100b440000c100008140000001c00000804100009d
:100b540000c100008140000001c00000804100008d
:100b640001c000008041000000c10000814000007d
:100b740000c100008140000001c00000804100006d
:100b840001c000008041000000c10000814000005d
:100b940001c000008041000000c10000814000004d
:100ba40000c100008140000001c00000804100003d
:100bb40001c000008041000000c10000814000002d
:100bc40000c100008140000001c00000804100001d
:100bd40000c100008140000001c00000804100000d
:100be40001c000008041000000c1000081400000fd
:100bf40000c100008140000001c0000080410000ed
:100c040001c000008041000000c1000081400000dc
:100c140001c000008041000000c1000081400000cc
:100c240000c100008140000001c0000080410000bc
:100c340000c100008140000001c0000080410000ac
:100c440001c000008041000000c10000814000009c
:100c540001c000008041000000c10000814000008c
:100c640000c100008140000001c00000804100007c
:100c740001c000008041000000c10000814000006c
:100c840000c100008140000001c00000804100005c
:100c940000c100008140000001c00000804100004c
:100ca40001c000008041000000c10000814000003c
:100cb40000c00000c1010000c303000002c2000024
:100cc400c606000007c7000005c50000c4040000f4
:100cd400cc0c00000dcd00000fcf0000ce0e0000a4
:100ce4000aca0000cb0b0000c909000008c80000b4
:100cf400d818000019d900001bdb0000da1a000024
:100d04001ede0000df1f0000dd1d00001cdc0000f3
:100d140014d40000d5150000d717000016d6000023
:100d2400d212000013d3000011d10000d010000033
:100d3400f030000031f1000033f30000f232000023
:100d440036f60000f7370000f535000034f40000f3
:100d54003cfc0000fd3d0000ff3f00003efe0000a3
:100d6400fa3a00003bfb000039f90000f8380000b3
:100d740028e80000e9290000eb2b00002aea000023
:100d8400ee2e00002fef00002ded0000ec2c0000f3
:100d9400e424000025e5000027e70000e626000023
:100da40022e20000e3230000e121000020e0000033
:100db400a060000061a1000063a30000a262000023
:100dc40066a60000a7670000a565000064a40000f3
:100dd4006cac0000ad6d0000af6f00006eae0000a3
:100de400aa6a00006bab000069a90000a8680000b3
:100df40078b80000b9790000bb7b00007aba000023
:100e0400be7e00007fbf00007dbd0000bc7c0000f2
:100e1400b474000075b5000077b70000b676000022
:100e240072b20000b3730000b171000070b0000032
:100e34005090000091510000935300005292000022
:100e440096560000579700005595000094540000f2
:100e54009c5c00005d9d00005f9f00009e5e0000a2
:100e64005a9a00009b5b00009959000058980000b2
:100e740088480000498900004b8b00008a4a000022
:100e84004e8e00008f4f00008d4d00004c8c0000f2
:100e94004484000085450000874700004686000022
:100ea4008242000043830000418100008040000032
:100eb400596f00006e6700004369000000000000e5
:020000040000fa
:100ec40090407800e1cf500009003200030039005f
:100ed400e2cf500010003a000a0037004190200091
:100ee40091407800e3c04000114098000c003700a6
:100ef4005190200091407800e3c0400011409800d8
:100f0400070037006190200091407800e3c0400062
:100f1400114098000200370051c3b30011409800fb
:100f240000000600881f78000004780098009000f4
:100f340050a52a00808f50000d003a0070c7b300fe
:100f4400984f10000a003a00e2a2a900cb02a800c0
:100f5400cb62a800cbc2a900ca82a800e2a2a90061
:100f6400cb02a800cb62a800cbc2a900ca82a80009
:100f7400480190008001eb0068009000f8009000a8
:100f8400872007000004e00010003200e2a2a9005c
:100f9400cb02a800cb62a900cbc2a800ca82a900d8
:100fa400e2a2a900cb02a800cb62a900cbc2a80090
:100fb400ca82a9000000eb0010049800004c7800dd
:100fc4000060fe0050a52a00200498004f04780019
:100fd40000000600881f7800000478009800900044
:100fe40050a52a00808f50000d003a0070c7b3004e
:100ff400984f10000a003a00e2c2a900cb22a800d0
:10100400cb82a800cbe2a900caa2a800e2c2a90030
:10101400cb22a800cb82a800cbe2a900caa2a800d8
:10102400480190008001eb0068009000f8009000f7
:101034005b2007000004e00010003200e2c2a900b7
:10104400cb22a800cb82a900cbe2a800caa2a900a7
:10105400e2c2a900cb22a800cb82a900cbe2a8005f
:10106400caa2a9000000eb0010049800004c78000c
:101074000060fe0050a52a00200498004f04780068
:1010840000000600881f7800000478009800900093
:1010940050a52a00808f50000d003a0070c7b3009d
:1010a400984f10000a003a00e862a900cb42a80059
:1010b400cba2a800e282a900e902a800e862a90084
:1010c400cb42a800cba2a800e282a900e902a800b2
:1010d400480190008001eb0068009000f800900047
:1010e4002f2007000004e00010003200e862a9008d
:1010f400cb42a800cba2a900e282a800e902a90081
:10110400e862a900cb42a800cba2a900e282a80011
:10111400e902a9000000eb0010049800004c7800dc
:101124000060fe0050a52a00200498004f047800b7
:1011340000000600881f78000004780098009000e2
:10114400a0aa2a00808f50000d003a0070c7b30097
:10115400984f10000a003a00cb62a900cbc2a80045
:10116400e2a2a800cb02a900ca82a800cb62a9000f
:10117400cbc2a800e2a2a800cb02a900ca82a800a0
:10118400380190008001eb0068009000f8009000a6
:10119400032007000004e00010003200e2a2a900ce
:1011a400cb02a800cb62a900cbc2a800ca82a900c6
:1011b400e2a2a900cb02a800cb62a900cbc2a8007e
:1011c400ca82a9000000eb0010049800004c7800cb
:1011d4000060fe00a0aa2a00200498004f047800b2
:1011e40000000600881f7800000478009800900032
:1011f400a0aa2a00808f50000d003a0070c7b300e7
:10120400984f10000a003a00cb82a900cbe2a80054
:10121400e2c2a800cb22a900caa2a800cb82a900de
:10122400cbe2a800e2c2a800cb22a900caa2a8006f
:10123400380190008001eb0068009000f8009000f5
:10124400d71f07000004e00010003200e2c2a9002a
:10125400cb22a800cb82a900cbe2a800caa2a90095
:10126400e2c2a900cb22a800cb82a900cbe2a8004d
:10127400caa2a9000000eb0010049800004c7800fa
:101284000060fe00a0aa2a00200498004f04780001
:1012940000000600881f7800000478009800900081
:1012a400a0aa2a00808f50000d003a0070c7b30036
:1012b400984f10000a003a00cba2a900e282a800cd
:1012c400e862a800cb42a900e902a800cba2a900c9
:1012d400e282a800e862a800cb42a900e902a800c3
:1012e400380190008001eb0068009000f800900045
:1012f400ab1f07000004e00010003200e862a90000
:10130400cb42a800cba2a900e282a800e902a9006e
:10131400e862a900cb42a800cba2a900e282a800ff
:10132400e902a9000000eb0010049800004c7800ca
:101334000060fe00a0aa2a00200498004f04780050
:10134400000006003600f800809fbe00829fbe00a9
:10135400849fbe00869fbe0084e0a9000060fe005a
:10136400c0e420001080fb006600b9000080e800a3
:1013740081e32000614078000040e9008080fb00a8
:1013840042c1b3000440bc0023d92000e3417900ea
:1013940082c8b30082cf510025003a007409b90015
:1013a4000281e80023d92000630179000200e000f3
:1013b4001f003a00740ab9008400780001814100da
:1013c40074c7b30004497800a4aa2a001401980041
:1013d40024738000357380006401980075019800bf
:1013e400f080400042c1b3000440bc00030041004f
:1013f400e380780001000100c1e420001140e8000e
:10140400804878008100e900914f500007003100c6
:1014140062c0b3000440bc0064004100f38050008b
:1014240061007800f51e070001003700fb1e07006d
:101434004f03be004f02be004f01be004f00be006e
:101444003600f9000040060086a0a900004006000e
:1014540050a52a00b0438800000006007628ef005b
:101464000000060020d920001004e0000f003a001c
:10147400a06c80000000e0000c003a00b06c80001a
:101484000000e00009003a0060da20001004e000e7
:1014940006003a00406d80000000e00003003a00be
:1014a400506d80000000e000020032007428ef005c
:1014b4004000370090c0a9005824ef009823ef00a3
:1014c400c0e420000048eb000000e9001040780070
:1014d400e14f50001700360001e4200000c0e9008d
:1014e40062c0b3000440bc00e68340008283430032
:1014f40026d9200085c8b3000002eb002303200096
:101504001140e90042c1b3000440bc0002014300a1
:10151400054978000280e800040878003301980047
:101524001100900050019800e6804000878f500021
:10153400f3ff3a00a0e320001040e90021d9200085
:1015440042c1b3000440bc000280400073c7b30032
:1015540003487800a3aa2a0013009800230320005c
:101564003300980024738000357380006400980071
:101574007500980070014100e1007900010001004c
:10158400c1e420001140e800804878008100e900af
:10159400914f50000600310062c0b3000440bc000b
:1015a40064004100f3805000610078008a1e070047
:1015b4000060fe0000000600889fbe008a9fbe00f7
:1015c4008c9fbe008e1f78007608e2003600320041
:1015d4000060fe0010e62000904078000104e00066
:1015e4000e00320020d920001004e00006003a006a
:1015f400a06c80000000e00003003a00b26c8000a0
:101604000200e000020032007428ef0026003700d8
:101614000040e800814f5000fdff390090c0a90050
:101624005824ef009823ef00f8e4200072054400ea
:101634002bd920007ec7b3004ce620001804e0003c
:1016440014003200184090000040e90042c1b30089
:101654000440bc00028045000e487800a1aa2a007c
:1016640011009800ec064000bc1e7800ac1678000f
:1016740021032000310098000060fe007001410049
:10168400eb00790001000100bc1e7800ac16780064
:10169400004ceb00660444008a0f5400e7ff3a0054
:1016a40010e620000048eb004f0778004f06be000c
:1016b4004f05be004f04be0000000600889fbe0018
:1016c4008a9fbe008c9fbe008e1f78007608e200c1
:1016d400360032000060fe0010e6200090407800e2
:1016e4000104e0000e00320020d920001004e000c4
:1016f40006003a00a06c80000000e00003003a00fd
:10170400b26c80000200e000020032007428ef0096
:10171400260037000040e800814f5000fdff3900eb
:1017240090c0a9005824ef009823ef00f8e42000ab
:10173400720544002bd920007ec7b3004ce620007c
:101744001804e00014003200184090000040e90042
:1017540042c1b3000440bc00028045000e4878003a
:1017640051a52a0011009800ec064000bc1e780028
:10177400ac167800e1012000310098000060fe0002
:1017840072014100eb00790001000100bc1e7800e9
:10179400ac167800004ceb00660444008a0f540039
:1017a400e7ff3a0010e620000048eb004f077800fe
:1017b4004f06be004f05be004f04be0000000600e9
:1017c400889fbe007608e200300032008081fb0072
:1017d40042c1b3000440bc0024d920006441790014
:1017e4000204e0000c003a00741ab9000481e80015
:1017f40024d92000640179000200e00006003a00c8
:10180400741ab9006401420024d9200064017900eb
:101814000200e000020032007428ef001b003700d1
:1018240090c0a9005824ef009823ef000060fe0048
:1018340024d920007419b900820178000301420000
:1018440075c7b30005497800a5aa2a0015019800b8
:10185400ec04410048e62000b81c7800a814780085
:1018640066014100638940000060fe00f081410090
:1018740042c1b3000440bc0004004100e48079008c
:1018840001000100b81c7800a81478004f04be00c1
:1018940000000600889fbe007608e2003000320097
:1018a4008081fb0042c1b3000440bc0024d9200065
:1018b400644179000204e0000c003a00741ab90093
:1018c4000481e80024d92000640179000200e000ca
:1018d40006003a00741ab9006401420024d92000b9
:1018e400640179000200e000020032007428ef0075
:1018f4001b00370090c0a9005824ef009823ef0084
:101904000060fe0024d920007419b9008201780017
:101914000301420075c7b3000549780055a52a00a4
:1019240015019800ec04410048e62000b81c78003a
:10193400a8147800680141000189e8000060fe00f5
:10194400f281410042c1b3000440bc0004004100e4
:10195400e480790001000100b81c7800a814780024
:101964004f04be0000000600881f78000060fe00df
:10197400a06c8000a1aa2a00810f50000d003a003b
:1019840071c7b30022d9200092cf100009003a0099
:101994000060fe0090c0a9005824ef009823ef00d7
:1019a40002007800116d80000100010018c8b30026
:1019b400100037000044eb0051a52a00810f5000ad
:1019c4000c003a0070c7b30021d92000914f1000d9
:1019d40008003a000060fe0090c0a9005824ef00ff
:1019e4009823ef0001007800216d800001000100c0
:1019f40028c8b300406d8000a1aa2a00810f5000be
:101a04000e003a0071c7b30062da200092cf1000d2
:101a14000a003a000060fe0090c0a9005824ef00bc
:101a24009823ef0002007800b16d800001000100ee
:101a340040c8b300004474001000370051a52a00c8
:101a4400810f50000d003a0070c7b30061da200026
:101a5400914f100009003a000060fe0090c0a900f8
:101a64005824ef009823ef0001007800c16d800036
:101a74000100010080c8b3000044740020d9200094
:101a84001040780081c8b300814f50000600320036
:101a940062da200092cf100003003200740141008a
:101aa40092cf100001003a000864a00071c7b3008f
:101ab400814f5000070032000140780061da2000b5
:101ac400914f100003003200f4804000914f100049
:101ad40001003a000874a000084078004f04780020
:101ae400000006008042eb0020d920000548780061
:101af4000000eb00a06c8800b06c88002403200078
:101b0400c46c8800e1012000d16c8800e06c88007e
:101b14006011b800f26c8800036d8800c694200040
:101b2400166d880046842000266d88000060fe0043
:101b340066da2000004b7800406d8800506d880004
:101b4400646d8800716d8800806d8800926d8800d6
:101b5400a36d8800468f2000b66d8800c67e2000e5
:101b6400c66d88000060fe00a6db2000054b7800ef
:101b7400e06d8800f06d8800046e8800116e8800a6
:101b8400206e8800326e8800436e8800c089200071
:101b9400506e880040792000606e88000060fe006e
:101ba400000006000800fa00889fbe006c80570001
:101bb400030009000018eb000060fe00ec805700f1
:101bc4004142880080c0b3004ae8b7007628ef009d
:101bd400e462a900c7a2a900de82a900c742a90045
:101be400e862a900cb42a800cba2a900e282a80027
:101bf400e902a9000060fe00dec2a900c782a900b4
:101c0400c7e2a900c722a900e2c2a900cb22a8000a
:101c1400cb82a900cbe2a800caa2a9000060fe0002
:101c2400dea2a900c762a900c7c2a900c702a90011
:101c3400e2a2a900cb02a800cb62a900cbc2a800f3
:101c4400ca82a9000060fe007428ef0020de200094
:101c54000044eb000848780029762000396f88009a
:101c640097fc070080de200011c0b3000148780013
:101c7400696f880092fc0700e0de200021c0b300f9
:101c840001487800996f88008dfc07000060fe0011
:101c940094ff070020738000317380004073880034
:101ca400517388008073880091738800c073880022
:101cb400d17388000074880011748800407488000f
:101cc40051748800401f2000010020002074880007
:101cd400317488000000eb008070880090708800e8
:101ce40041e12000804878000100e80008487800bd
:101cf4000000e800084878000000e8000848780080
:101d04000000e800084878000000e800084878006f
:101d1400d2fd070060e22000084878000000e800d7
:101d2400084878000000e800084878006500500082
:101d3400084878000000e800084878000000e8003f
:101d4400084878000060fe0000c0eb0091e220002b
:101d540080487800e9805000884878008100e800d5
:101d6400884878008100e80088487800eb804000cb
:101d740088487800ec805700a171880061e3200056
:101d840080487800c0be20001080fb00003cb300f7
:101d9400cf80de0070718800817188000028ef0018
:101da4004f04be000080fa0000000600881f78007f
:101db400c0409000e4cf500002003200e6cf500053
:101dc4001d003a0030019000d2407800e3c1600069
:101dd40021de2000834878001281fb006c01610041
:101de4004211de008348e90066844000024ce900a9
:101df4000060fe0030009000304190004811dd008a
:101e0400204090000080fb00020070000000d10020
:101e1400506f88000060fe0001007800316f800080
:101e24000100010008007800616f800001000100da
:101e340000c0eb00020037000060fe000040eb0031
:101e44004f04780000000600b06c8000a1aa2a00ac
:101e5400810f500006003a000060fe00028f20004f
:101e640020002f00f1072000441b07000800370062
:101e740051a52a00810f500005003a000060fe00c1
:101e8400228f200040002f00f10720003b1b070099
:101e9400506d8000a1aa2a00810f500006003a006c
:101ea4000060fe00428f200060002f00f107200038
:101eb400321b07000800370051a52a00810f50008b
:101ec40005003a000060fe00628f200080002f00b1
:101ed400f1072000291b07000000eb00b06c88000c
:101ee400506d8800f06d88000060fe000000060060
:101ef400889fbe00a06c80000000e0000400320057
:101f040010cfb300416d80000100e000ce0032002c
:101f140090c0a800f00b2000c02288009823ef0096
:101f24003e1c07000060fe00b06c80000000e00072
:101f340003003a00506d80000000e0001d003200f4
:101f440090c0a800f00b2000c02288009823ef0066
:101f54000060fe0000322000f04188004028ef00bd
:101f6400b9ff07000040800060160700247380005a
:101f74003573800014428800254288000000eb007d
:101f8400a06c8800406d8800e06d88008040eb0004
:101f940022d92000004978007401410001497800e9
:101fa4007401410001497800b06c8800506d8800cc
:101fb400f06d8800124280002342800040e6200039
:101fc40030021100a0821900f0418000014280001b
:101fd400800f5200818f5a000c00390000408000ad
:101fe400a60807000080eb008080eb00f041880029
:101ff4000142880010428800214288000028ef0036
:1020040020e120000008eb0014fd07000060fe0042
:1020140080e82000841c07000004e0000600320071
:102024007b1507000060fe00207380003173800080
:10203400407488005174880080e720007a1c0700ef
:102044000004e000060032007c0207000060fe008d
:102054002473800035738000c4738800d5738800ae
:10206400b10007000004e000050032007408f80025
:102074000008f9007428ef0000c0eb00720037007c
:10208400a8df2000ea044400080078007e1d070051
:102094000004e0000500320019417800c1df20008f
:1020a40008007800ca100700f7ff370000e7200097
:1020b4005d1c07000004e00004003a0090e22000e8
:1020c40080c2eb0090cf120010003a000060fe00c6
:1020d4005a01070020c0200031c0b30090cf100087
:1020e40004003a00807080000000e00001003a0023
:1020f4000707070090e220000048eb0024738000eb
:102104003573800084738800957388000060fe0036
:1021140000e82000441c07000004e000170032001f
:102124003181200091407800f0ff2d00c316070094
:1021340013e8ee0090e1200080c2eb0090cf120083
:102144000a003a001248ec0012e8b700e94f5000c8
:10215400060036006000b800f3110700401f20009d
:1021640001002000207488003174880020738000ee
:102174003173800000748800117488000060fe00d0
:1021840080e62000281c07000004e000070032005d
:10219400041b0700e0448800f14488002473800095
:1021a40035738000447388005573880040e1200033
:1021b40080c2eb0090cf12001a003a0080708000b9
:1021c4000000e0001700320050e1200010407800c9
:1021d400e44f500013003e000004e0001100320000
:1021e4008c1707000004e0000c003a008004eb00a8
:1021f4008970880040e12000094878000004e80064
:1022040061c0b3001840780093050700004ceb0050
:102214009970880091fc07000200370040e120001b
:1022240000c8eb000040eb0061e1200000c1eb00be
:10223400914f110004003a00cb0c070060e120002c
:102244000048eb000040eb004f04be000000060015
:10225400889fbe008a9fbe008c9fbe000ae12000ba
:102264005b552500e4044500fc5f20008906e80076
:10227400bdfd07000004e000fdff3a00e862a9008c
:10228400cb42a800cba2a900e282a800e902a900df
:10229400e2c2a900cb22a800cb82a900cbe2a8000d
:1022a400caa2a900e2a2a900cb02a800cb62a9009d
:1022b400cbc2a800ca82a9000dff07000004e000f9
:1022c400ebff3a0013003700521707000004e00048
:1022d4000f003a0090c0a800f00b2000c022880034
:1022e4009823ef00511607000004eb00080d780056
:1022f400884c780061c0b3001d4078005605070083
:10230400804eeb009870880054fc070001003700f1
:1023140080cceb009a8f1500d5ff3a00990f160078
:10232400e9ff3200d2ff37000060fe00a0438000c6
:1023340051a22a00810f50007100320008003e00b3
:102344008180e900810f50002f00320056003e00ca
:102354008100e900810f5000b5003a000b003700fe
:1023640071a22a00810f5000930032007b003900d3
:102374008100e800810f5000a50032008100e800d0
:10238400810f5000aa003a00a50037000060fe004b
:10239400f0c3b30001902000914f100017003a00e1
:1023a400831407000000e000140032007608e20005
:1023b40003003a007428ef0000c0eb009e003700d1
:1023c40051c0b30050e12000014878000060fe00d5
:1023d40011c0b30030e220000148780041c0b300ce
:1023e4000000e8000148780001c1b3000000e800e3
:1023f4000148780000c0eb008f0037007428ef001c
:1024040000c0eb008c0037000060fe007608e2009c
:1024140003003a007428ef0000c0eb008600370088
:10242400f0c3b30001902000914f10001b003a004c
:102434005f1407000000e000180032000060fe0096
:10244400709020009080fb000040eb0011fd07001d
:10245400809020009080fb0010c0b3000dfd0700a9
:1024640041c0b30050e12000014878000060fe0044
:1024740021c0b30030e220000148780081c0b300dd
:102484000000e80001487800f8c040000000e800bf
:102494000148780000c0eb00670037007428ef00a3
:1024a40000c0eb00640037000060fe00224580009d
:1024b40033458000004480001144800085f8070003
:1024c4000000e0000b003500409020009080fb00ed
:1024d4000040eb00bafc070020c0b30031e220004a
:1024e4008048780051e120008048780000c0eb006b
:1024f400510037007428ef0000c0eb004e00370095
:102504000060fe00224580003345800000448000c6
:10251400114480006ff807000000e0000c00350053
:10252400709020009080fb000040eb00d9fc070075
:1025340011c0b30030e220000148780041c0b3006c
:1025440050e120000148780000c0eb003a00370059
:102554007428ef0000c0eb00370037000060fe0075
:10256400624580007345800020448000314480002f
:1025740058f807000000e0000c00350050902000df
:102584009080fb0010c0b3008dfc070081c0b30035
:1025940040e220000148780021c0b30050e120004f
:1025a4000148780000c0eb00230037007428ef00d6
:1025b40000c0eb00200037000060fe006245800090
:1025c40073458000204480003144800041f80700b6
:1025d4000000e0000b003500809020009080fb009c
:1025e40010c0b300abfc070040c0b30041e22000c0
:1025f4008048780051e120008048780000c0eb005a
:102604000d0037007428ef0000c0eb000a0037000b
:102614000060fe007428ef0000c0eb0006003700e5
:102624000060fe007428ef0000c0eb0002003700d9
:102634000060fe000040eb00000006000060fe00a9
:1026440010ccb300a1e22000914f1000040032002e
:10265400c08f200001c1b30090cf100015003a00d4
:102664000041eb00f1fd2f00400020009115070010
:10267400c08f200001c1b30090cf100008003a00c1
:1026840000c1eb00f1ff2e000010200089150700a7
:1026940000c1eb00f1df2f0000802000851507004a
:1026a4000060fe0001c1b3001090200001487800d2
:1026b400090037001090200001c1b30090cf100032
:1026c40001003a000048eb0000c1eb00f1fd2f00cf
:1026d400400020007715070020ccb300b1e22000b1
:1026e400914f100004003200d08f200011c1b300bc
:1026f40090cf100015003a000041eb00f1fe2f00ce
:10270400000120006b150700d08f200011c1b30019
:1027140090cf100008003a0000c1eb00f17f2f00b9
:10272400004020006315070000c1eb00f1f72f0003
:10273400000022005f1507000060fe0011c1b30015
:102744001090200001487800bb0037001090200052
:1027540011c1b30090cf100001003a000048eb0013
:1027640000c1eb00f1fe2f0000012000511507000d
:10277400109020001040780070405000e24f50004c
:10278400ad003600109020000048eb000060fe0011
:10279400650050001040780051c3b300814f5000d1
:1027a40014003a000041eb00f1df2f00008020000c
:1027b4004015070000c1eb00f1ff2e0000102000bf
:1027c4003c1507000060fe0050cbb300d1e22000ae
:1027d400914f10001d003a00401f2000010020000e
:1027e4002074880031748800d0e220000048eb0097
:1027f4001600370041c3b300814f500013003a0064
:102804000041eb00f1ff2e00001020002915070005
:1028140000c1eb00f1df2f00008020002515070028
:102824000060fe0040cbb300d1e22000914f1000c5
:1028340006003a00401f2000010020002074880098
:1028440031748800d0e220000048eb000060fe00f4
:10285400d08f20001040780071c3b300814f500026
:1028640014003a000041eb00f1f72f0000002200b1
:102874001015070000c1eb00f17f2f00004020007d
:102884000c1507000060fe0070cbb300d1e22000fd
:10289400914f10001d003a00401f2000010020004d
:1028a4002074880031748800d0e220000048eb00d6
:1028b4001600370061c3b300814f500013003a0083
:1028c4000041eb00f17f2f0000402000f9140700c5
:1028d40000c1eb00f1f72f0000002200f5140700ff
:1028e4000060fe0060cbb300d1e22000914f1000e5
:1028f40006003a00401f20000100200020748800d8
:1029040031748800d0e220000048eb00d08f200012
:102914008000e80090c8e8000060fe0010407800e5
:1029240071c3b300814f50001c003a0050c3b30080
:10293400c18f2000914f100037003a0064404000de
:102944008180e800914f100033003a000041eb0011
:10295400f1ff270000202000d614070000c1eb007f
:10296400f1ff2b0000082000d21407000060fe00d5
:1029740020cbb300d1e22000914f10002e003a008a
:10298400401f20000100200020748800317488005a
:10299400d0e220000048eb002700370061c3b300f9
:1029a400814f50001c003a0040c3b300c18f200087
:1029b400914f100018003a00644040008180e80004
:1029c400914f100014003a000041eb00f1ff2b007e
:1029d40000082000b714070000c1eb00f1ff270036
:1029e40000202000b31407000060fe0030cbb300c9
:1029f400d1e22000914f10000f003a00401f200048
:102a0400010020002074880031748800d0e2200086
:102a14000048eb000800370000c1eb00f1ff27007d
:102a240000202000a314070000c1eb00f1ff2b00dd
:102a3400000820009f14070000000600881f78008b
:102a44003c14070020438800314388007608e200e4
:102a5400bf013a000060fe0022438000334380003f
:102a64004000200021062000800f5100818f590072
:102a74001f003a00e0ea20001004e0001c003a00c5
:102a84000060fe0081e920001140e80080487800e1
:102a9400fd4f5000260036000060fe0011c0b30058
:102aa400e0ea20000148780080e920000048eb00bb
:102ab40050c3b300c18f2000914f100008003200b2
:102ac40000c0e8008100e800914f100004003200cb
:102ad40000c0e8008100e800914f100014003a00a3
:102ae40020a22a00a043880059fa070010003700ea
:102af4002243800033438000400020002106200050
:102b0400800f5100818f5900090032000060fe00df
:102b140080e92000104078000004e0000200320048
:102b240081e920008048e900e0ea20000048eb0049
:102b3400224380003343800010002000810c2000d9
:102b4400800f5100818f590023003a0020438000f8
:102b5400314380000128a3001f003a00f0ea20005e
:102b64001004e0001c003a0090e920001048e8003e
:102b74000060fe00d1c1b30090cf100028003600e1
:102b84000060fe0011c0b300f0ea200001487800a4
:102b940090e920000048eb0040c3b300c18f20003f
:102ba400914f10000800320000c0e8008100e800e6
:102bb400914f10000400320000c0e8008100e800da
:102bc400914f100016003a0030a22a00a04388005a
:102bd4001ffa0700120037002243800033438000ad
:102be40010002000810c2000800f5100818f5900bb
:102bf40004003a0020438000314380000128a300f0
:102c04000700320090e920001004e00002003200c6
:102c14000060fe001048e900f0ea20000048eb00e4
:102c24002043800031438000010078001006b20088
:102c34008000eb0012022000820f5000e08f580049
:102c44001e003a0022458000334580000044800085
:102c5400114480009ff607000000e00017003500d3
:102c640000eb20001004e00014003a000060fe00b5
:102c7400a1e920001140e80080487800fd4f500091
:102c84002a0036000060fe0011c0b30000eb2000f3
:102c940001487800a0e920000048eb0050c3b300cd
:102ca400c18f2000914f100020003a0040a22a005a
:102cb400a0438800e6f907001c0037002043800089
:102cc40031438000010078001006b2008000eb0060
:102cd40012022000820f5000e08f58000b003a00cf
:102ce40018c0b300224580003345800000448000b2
:102cf4001144800077f607000000e00001003d0069
:102d04000044eb000804e00008003a000060fe0004
:102d1400a0e920001004e000020032000060fe0080
:102d24001048e90000eb20000048eb00204380003d
:102d34003143800002002400030c200000026100e3
:102d4400018161008001eb00c010dd000000200063
:102d54006121b8000200700083807000020024002a
:102d640003082000820f5000838f580022003a008d
:102d740020438000314380000128a3001e003a0054
:102d840022458000334580000044800011448000c7
:102d940050f607000000e0001700350010eb20009b
:102da4001004e00014003a00b0e920001048e800e4
:102db4000060fe00d1c1b30090cf10003600360091
:102dc4000060fe0011c0b30010eb20000148780041
:102dd400b0e920000048eb0040c3b300c18f2000dd
:102de400914f10002c003a0050a22a00a043880002
:102df40097f9070028003700204380003143800002
:102e040002002400030c2000000261000181610023
:102e14008001eb00c010dd00000020006121b8003b
:102e24000200700083807000020024000308200068
:102e3400820f5000838f58000f003a002043800017
:102e4400314380000128a3000b003a0018c0b300ee
:102e540022458000334580000044800011448000f6
:102e64001cf607000000e00001003d000044eb00f8
:102e74000804e00008003a000060fe00b0e9200009
:102e84001004e000020032000060fe001048e90077
:102e940010eb20000048eb00204380003143800009
:102ea400020021002304200000026100018161006e
:102eb4008001eb00c010dd00000020006121b8009b
:102ec40002007000838070000200210023002000b3
:102ed400820f5000838f58001e003a006245800024
:102ee400734580002044800031448000f9f50700d8
:102ef4000000e0001700350020eb20001004e00083
:102f040014003a000060fe00c1e920001140e8000e
:102f140080487800fd4f5000320036000060fe000b
:102f240011c0b30020eb200001487800c0e9200064
:102f34000048eb0070c3b300d18f2000914f100004
:102f440028003a0060a22a00a043880040f9070044
:102f54002400370020438000314380000200210018
:102f64002304200000026100018161008001eb0064
:102f7400c010dd00000020006121b80002007000d4
:102f8400838070000200210023002000820f500083
:102f9400838f58000b003a0018c0b30062458000cc
:102fa400734580002044800031448000c9f5070047
:102fb4000000e00001003d000044eb000804e000d4
:102fc40008003a000060fe00c0e920001004e000a0
:102fd400020032000060fe001048e90020eb2000ef
:102fe4000048eb0020438000314380000240200071
:102ff4008304200000026100018161008001eb0074
:10300400c010dd00000020006121b8000200700043
:10301400838070000240200083002000820f500053
:10302400838f580021003a00204380003143800000
:103034000128a3001d003a0062458000734580000a
:103044002044800031448000a2f507000000e00025
:103054001600350030eb20001004e00013003a00a5
:10306400d0e920001048e8000060fe00d2c1b3009f
:10307400904f11003600360011c0b30030eb200031
:1030840001487800d0e920000048eb0060c3b30099
:10309400d18f2000914f10002d003a0070a22a0019
:1030a400a0438800eaf80700290037002043800085
:1030b40031438000024020008304200000026100ac
:1030c400018161008001eb00c010dd0000002000e0
:1030d4006121b8000200700083807000024020006b
:1030e40083002000820f5000838f58000f003a00a5
:1030f40020438000314380000128a3000b003a00e4
:1031040018c0b300624580007345800020448000ed
:10311400314480006ff507000000e00001003d002d
:103124000044eb000804e00009003a000060fe00df
:10313400d0e92000104078000004e00002003200d2
:10314400d1e920008048e90030eb20000048eb0082
:1031540020438000314380000178a300170032002f
:1031640060eb20001004e00014003a000060fe0050
:1031740001ea20001140e80080487800fd4f50002b
:103184001b00360011c0b30060eb2000014878003a
:1031940000ea20000048eb0041c3b300c08f2000c8
:1031a4000148780021c0b30000e220000148780003
:1031b4006900400000c8eb000d0037002043800088
:1031c400314380000178a30009003a000060fe004a
:1031d40000ea2000104078000004e0000200320001
:1031e40001ea20008048e90060eb20000048eb0081
:1031f40020438000314380000158a30016003200b0
:1032040070eb20001004e00013003a000060fe00a0
:1032140011ea20001140e80080487800fd4f50007a
:103224001a00360010c0b30071eb2000804878000b
:1032340011ea20008048eb0052c3b300c18f200084
:103244008248780001e220008048780069804000cc
:1032540000c8eb000d00370020438000314380009c
:103264000158a30009003a000060fe0010ea2000a3
:10327400104078000004e0000200320011ea20004f
:103284008048e90070eb20000048eb0020438000f8
:10329400314380000138a3001700320080eb200086
:1032a4001004e00014003a000060fe0021ea20004f
:1032b4001140e80080487800fd4f50001b003600a4
:1032c40011c0b30080eb20000148780020ea200000
:1032d4000048eb0061c3b300d08f200001487800a0
:1032e40081c0b30010e2200001487800680040006b
:1032f40000c8eb000d0037002043800031438000fc
:103304000138a30009003a000060fe0020ea200012
:10331400104078000004e0000200320021ea20009e
:103324008048e90080eb20000048eb002043800047
:10333400314380000118a3001700320090eb2000f5
:103344001004e00014003a000060fe0031ea20009e
:103354001140e80080487800fd4f50001b00360003
:1033640011c0b30090eb20000148780030ea20003f
:103374000048eb0071c3b300d08f200001487800ef
:1033840041c0b30010e2200001487800680040000a
:1033940000c8eb000d00370020438000314380005b
:1033a4000118a30009003a000060fe0030ea200082
:1033b400104078000004e0000200320031ea2000ee
:1033c4008048e90090eb20000048eb002243800095
:1033d4003343800000002000010a200003816000c4
:1033e4008001eb00c011dd0002002000800f5100bd
:1033f400818f590005003200204380003143800052
:1034040001007800000ab20017003a00c0eb200067
:103414001004e00014003a000060fe0061ea20009d
:103424001140e80080487800fd4f50002700360026
:1034340011c0b300c0eb20000148780060ea20000e
:103444000048eb0001c1b300c08f200001487800a0
:1034540031c0b30000e22000014878006900400058
:1034640000c8eb001900370022438000334380007a
:1034740000002000010a2000038160008001eb00ad
:10348400c011dd0002002000800f5100818f59001f
:103494000e00320020438000314380000100780098
:1034a400000ab200090032000060fe0060ea200059
:1034b400104078000004e0000200320061ea2000bd
:1034c4008048e900c0eb20000048eb002243800064
:1034d4003343800000002000a1002000038160002d
:1034e4008001eb00c011dd0002002000800f5100bc
:1034f400818f590004003200204380003143800052
:103504006a80600017003a00d0eb20001004e0004d
:1035140014003a000060fe0071ea20001140e80047
:1035240080487800fd4f50002600360011c0b300db
:10353400d0eb20000148780070ea20000048eb003e
:1035440011c1b300d08f200001487800c1c0b3007e
:1035540010e22000014878006800400000c8eb0039
:10356400180037002243800033438000000020000d
:10357400a1002000038160008001eb00c011dd0088
:1035840002002000800f5100818f59000d0032008d
:1035940020438000314380006a80600009003200cb
:1035a4000060fe0070ea2000104078000004e00093
:1035b4000200320071ea20008048e900d0eb2000cc
:1035c4000048eb0020438000314380000148a30001
:1035d40017003200f0eb20001004e00014003a0061
:1035e4000060fe0091ea20001140e8008048780065
:1035f400fd4f50000800360011c0b300f0eb20006e
:103604000148780090ea20000048eb0011cab3009a
:10361400f08f2000014878000040eb0001ec20000e
:1036240080487800a1ea2000804878001a0037001a
:1036340020438000314380000148a30016003a0073
:1036440000ec20001004e00013003a000060fe00cb
:10365400a1ea20001140e80080487800fd4f5000a6
:103664000800360011c0b30000ec200001487800c7
:10367400a0ea20000048eb0051cab300f08f2000fc
:10368400014878000040eb00f1eb2000804878000e
:1036940091ea200080487800204380003143800074
:1036a4000168a3001700320010ec20001004e000b1
:1036b40014003a000060fe00b1ea20001140e80066
:1036c40080487800fd4f50000800360011c0b30058
:1036d40010ec200001487800b0ea20000048eb001c
:1036e400f1c3b30000902000014878000040eb00d3
:1036f40021ec200080487800c1ea2000804878004e
:103704001a00370020438000314380000168a30081
:1037140016003a0020ec20001004e00013003a00e8
:103724000060fe00c1ea20001140e80080487800f3
:10373400fd4f50000800360011c0b30020ec2000fb
:1037440001487800c0ea20000048eb00f1ccb30047
:1037540000902000014878000040eb0011ec2000ac
:1037640080487800b1ea2000804878004f0478004f
:10377400000006000040eb00b1e42000804878001f
:103784008100e900804878008180e8008048780062
:10379400f3805000804878008100e8008048780079
:1037a4008000eb00e171880082e320000149780089
:1037b40067014100004978000201e80000497800ef
:1037c400117288000281e900004978006701410014
:1037d400004978000201e80000497800417288003d
:1037e4000281e9000049780012e6200000497800cf
:1037f4000201e900004978000281e80000497800ec
:1038040073015100004978000201e8000049780082
:10381400917288000281e900004978006701410043
:10382400004978000201e80000497800c17288006c
:103834000281e900004978006701410000497800ed
:103844000201e80000497800f17288008280e900f2
:1038540080487800000006001200fa0072815700c8
:10386400030009000019eb0072815700e2bf9f00ba
:1038740000c1eb00e2ff9f000060fe00c2be20001a
:103884001281fb00023cb300cf91de00b2bf9f0067
:10389400c3bf9f0042c1b300e2ef9f006fb997001e
:1038a400104198006fb8970021409800a1cab30056
:1038b4006fb897003140980040c0b300a0ff9f004c
:1038c4000060fe006a805700a80807000080fa0024
:1038d40000000600e6874700889fbe008a9fbe005e
:1038e4008e1f78000004be006e805700000009009f
:1038f4000018eb000058eb00c84090000108a3003a
:10390400030032000060fe0020c0b3009e003700b8
:1039140020c0b300e1cf50009b0036003800900077
:103924009045780010459000a0c0b30051c3b30087
:10393400c28f200092cf100093003a0081c0e800ab
:103944000201e80092cf10008f003a0081c0e80025
:103954000201e80092cf10008b003a00140f070018
:103964000000e00006003a000060fe0091c0b300d1
:103974000b407800b8ff070090c0b3008200370006
:10398400484290000482fb000482e90022002000e7
:10399400110009000202d8000042e80030c0b30060
:1039a400804f520078003e000404e00025003200fd
:1039b4008a82fb0080406500a1f79f0072003200fc
:1039c4006e8757008040eb000600370082a9de00b6
:1039d400e3c16100036f78000281e8000304e000a2
:1039e400680032008140e800814f5200f7ff3e003a
:1039f400e24f520006003a0030c0b300bff0970017
:103a04002ff19700814f510064003a005e003700a7
:103a1400e34f52000b003a002ff19700bff19700db
:103a240030c0b300834f510057003200cff09700ed
:103a340081cf510054003200814f510057003a00a9
:103a440051003700b0e42000044878000000e90089
:103a54000a4878000080e8000048eb00730050003a
:103a640000c8eb000000e800aff1970003487800bd
:103a74000080e8000008eb00e14f5200110036001e
:103a84005300370007487800de417800134098005f
:103a9400b8019000e3c27800c82add0081814100aa
:103aa40073fb97000683fb00e30140008509730064
:103ab4000241e800660040008180e800824f520025
:103ac400f0ff3e00e24f52000a003e00044078003e
:103ad40083e320008040eb0062c0b3000440bc00dc
:103ae40002814100114198000040e800e34f50007a
:103af400f9ff3a0050e120000b487800494090005b
:103b04000004e0000a0032000040eb008080fb006b
:103b1400b9019000a271800063f178000060fe009a
:103b24000040e800c940900080cf5000f7ff3e00fd
:103b3400807080000000e0000d003a000060fe008c
:103b44000900780009080700704380002711070066
:103b54000060fe00505525008070880040e1200080
:103b640000c8eb002d1007000040eb0006003700f2
:103b74002e10070000e120000008eb0080c0b30015
:103b84000100370030c0b3004f0778004f05be0076
:103b94004f04be006f00b10000000600b0e4200036
:103ba400044878000000e9000a4878000080e80032
:103bb4000048eb007300500000c8eb000000e80070
:103bc400aff09700014878000080e8000008eb009f
:103bd400f0e320006e8757003100200012c0b300cc
:103be40080c3eb00a7ff3700889fbe008a1f7800c0
:103bf40080047800010578000244780050c0b300c6
:103c040051cab300f28f200092cf10003d00320061
:103c1400e24f54000500320010c0b30051a52a0041
:103c2400e44f540037003a0001003700a1aa2a00eb
:103c340080708000810f500004003a0040e12000b1
:103c440080c0eb0090cf1000070032000060fe003f
:103c540071c0b30008407800fffe07000000eb00cd
:103c64008070880090708800c9419000e1cf5100b5
:103c74000e00360039019000c0c0b30091e020006e
:103c840052427800914f52001e003a0010c0b30017
:103c94000300370052427800d14f520018003a0016
:103ca4000040e800834f5000faff390050e1200043
:103cb40008487800e6f5070040e120000048eb00e2
:103cc400640050000008eb000060fe000a00780069
:103cd400a6070700e24f540003003a0036f6070037
:103ce4000040eb00070037000040eb00e44f5400b5
:103cf40004003a0071f607000040eb0001003700b1
:103d0400c0c0b3004f0578004f04be000000060099
:103d14001200fa0072805700030009000018eb003b
:103d240072805700e0bf9f0000c0eb00e0ff9f00df
:103d34000060fe00c0be20001080fb00f003b20053
:103d44000034b300cf80de00b0bf9f00c1bf9f002e
:103d5400a0c9b300e0ef9f0000e220008000e8006b
:103d64009140780090c070000080e80090c070001e
:103d74006fb897001140980030e220008000e800fe
:103d84009140780090c070000080e80090c07000fe
:103d94006fb897002140980060e220008000e8009e
:103da4009140780090c070000080e80090c07000de
:103db4006fb8970031409800109020001004e00084
:103dc40005003a000060fe0011c0b3006fb8970010
:103dd40041409800040037000060fe008040eb0082
:103de4006fb8970041409800f18f20006fb897009a
:103df400914078005140980060c0b300a0ff9f003c
:103e04006a805700590707000060fe000040eb007d
:103e140031e22000804878008100e8008048780082
:103e24008100e800804878000080fa000000060065
:103e3400881f7800800078004141900020c0b300c2
:103e4400e34f510022003a003100900010419000ed
:103e5400a04290008240e90030c0b300e6cf500099
:103e64001b003e00f1e420000000eb008041eb0069
:103e74000282fb000344780080c3eb000003eb00e4
:103e840000a1de000208a300070032008748780082
:103e94000041e800924098006381400006097800e0
:103ea4008341e80001003700884878000000e800fa
:103eb400e6804000e30f5000f1ff3a0010e62000d6
:103ec400034878000080e800054878000040eb00d3
:103ed4004f04780000000600889fbe008a9fbe0041
:103ee4008c1f78001ac0b30022458000334580003f
:103ef4000044800011448000f4f107000000e00059
:103f0400010035000045eb00c08f2000104678000a
:103f140019c0b300624580007345800020448000ce
:103f240031448000e9f107000000e00001003500a1
:103f34008044eb00d08f20009045780018c0b30077
:103f4400a2458000b3458000404480005144800075
:103f5400def107000000e000010035000044eb0042
:103f6400e08f200010437800f0e42000720140004c
:103f740075c3b30094c3b30053c3b3001004e0008b
:103f84001500320090409000e2cf5000090032004a
:103f9400e3cf50000c003200e1cf500017003a008c
:103fa4000a04e00017003a00834f56000a0032006a
:103fb400160037000904e00016003a0085cf5500ca
:103fc40005003200150037000804e00015003a002f
:103fd400844f530015003a0066004000820f5000e1
:103fe400e6ff3a0030c0b30011e620001104e000ff
:103ff4000f0032000040eb000d00370030c0b3006a
:104004000b00370090c0b30009003700a0c0b30014
:104014000700370090c0b30005003700a0c0b3000c
:104024000300370090c0b30001003700a0c0b30004
:104034004f0678004f05be004f04be000000060086
:10404400889fbe008a9fbe008c1f78001ac0b300f0
:1040540022458000334580000044800011448000e4
:104064009af107000000e000010035000045eb0074
:10407400c08f20001046780019c0b300624580004c
:104084007345800020448000314480008ff1070094
:104094000000e000010035008044eb00d08f2000d8
:1040a4009045780018c0b300a2458000b345800055
:1040b400404480005144800084f107000000e00087
:1040c400010035000044eb00e08f2000104378002d
:1040d400f0e420007201400065c3b30084c3b30060
:1040e40043c3b3001004e000150032009040900078
:1040f400e2cf500009003200e3cf50000c00320040
:10410400e1cf500017003a000a04e00017003a001b
:10411400834f56000a003200160037000904e000fd
:1041240016003a0085cf550005003200150037000f
:104134000804e00015003a00844f530015003a00cb
:1041440066004000820f5000e6ff3a0030c0b30022
:1041540011e620001104e0000f0032000040eb00e3
:104164000d00370030c0b3000b00370090c0b3001f
:1041740009003700a0c0b3000700370090c0b300a7
:1041840005003700a0c0b3000300370090c0b3009f
:1041940001003700a0c0b3004f0678004f05be00f1
:1041a4004f04be0000000600889fbe008a9fbe0028
:1041b40080047800010578008245780058c0b30077
:1041c40050cab300f18f2000914f10002700320035
:1041d400807080000000e0000400320000e1200054
:1041e4000008eb0088c0b300200037000900780005
:1041f4000fff0700004478000804e0001b003a00a9
:10420400e1cf550004003a0033ff07000044780072
:10421400abaa2a000600370018c0b300e3cf55004c
:1042240012003a0086ff0700004478005ba52a00cc
:104234000804e0000d003a000060fe0049419000cf
:104244000281fb00b900900080e0200011f2070019
:1042540040e1200000c8eb000a0078004306070094
:104264008b70880080438000600f0700084078004e
:104274004f05be004f04be0000000600881f7800f2
:10428400000478000800e0000a003a0098708000fa
:104294000800e0008500320060e3200000c8eb0065
:1042a40050552500800f540016003200e0e2200033
:1042b4002e06070040a22a00800f54003f0032005f
:1042c40008003e000080e900800f54000d00320019
:1042d40023003e0050552500800f540073003a001f
:1042e4000800370060a22a00800f540051003200f9
:1042f400410039000000e800800f54006b003a00d0
:104304005b00370040c3b300c18f2000914f100001
:1043140008003a0000c0e8008100e800914f100056
:1043240004003a0000c0e8008100e800914f10004a
:1043340008003200b1c0b30050e120001040780002
:1043440045fd070021cbb300d0e2200001487800ee
:1043540059003700d0e220000048eb005b00370032
:1043640050c3b300c18f2000914f100008003a00e1
:1043740000c0e8008100e800914f100004003a00fa
:1043840000c0e8008100e800914f100008003200ee
:10439400b1c0b30050e12000104078002efd0700aa
:1043a40031cbb300d0e2200001487800420037004e
:1043b400d0e220000048eb004400370040c3b300c3
:1043c400c18f2000914f100008003200b1c0b3002b
:1043d40050e12000104078001ffd070041cbb300de
:1043e400d0e220000148780033003700d0e22000fa
:1043f4000048eb003500370050c3b300c18f2000e4
:10440400914f100008003200b1c0b30050e1200009
:104414001040780010fd070051cbb300d0e220001b
:104424000148780024003700d0e220000048eb0067
:104434002600370060c3b300d18f2000914f1000d5
:1044440008003200b1c0b30050e1200010407800f1
:1044540001fd070061cbb300d0e2200001487800e1
:1044640015003700d0e220000048eb0017003700a9
:1044740070c3b300d18f2000914f100008003200a8
:10448400b1c0b30050e1200010407800f2fc0700f6
:1044940071cbb300d0e22000014878000600370059
:1044a400d0e220000048eb0008003700d0e22000f2
:1044b4001004e00005003200400620000100200046
:1044c400207488003174880004003700401f2000e5
:1044d40001002000207488003174880090e22000dc
:1044e40000c8eb004f047800000006001200fa0038
:1044f400889fbe008a9fbe00f08057000300090019
:104504008018eb00f0805700e1b79f0072718000c3
:1045140083718000b2b79f00c3b79f0080c0eb00d7
:10452400e1ef9f003000900010449000a044900000
:1045340020c9b30080f79f00894f540027003e0034
:104544008ac0b3008045eb000060fe00a384200015
:104554008a4978008184200008407800d50107004a
:10456400ef4f400002003200ed4f400005003a00da
:104574000060fe0021c0b3006fb0970010407800c7
:10458400b5fc07006fb09700184098004ac8ec00cb
:10459400a0ef9f000b0032000b4078008080fb00ee
:1045a4006fb197000101410043428000e3c17800ec
:1045b400234198000040e800afe8970080cf500006
:1045c400f6ff3e000060fe007a8057006705070092
:1045d4000844e80088cf5400dbff31004f05be00db
:1045e4004f04be000080fa0000000600889fbe0051
:1045f40080047800010478003900900010417800ac
:10460400f34f5100a3003e00c1be20001182fb0005
:10461400003c200004027000cfa2de00048cbe0027
:104624009180fb0001007000cf80de007071880073
:1046340081718800024078000074a000b8009000e6
:1046440080487800a1718000804878000060fe00f6
:10465400ef4f51000a003e0050c5b300f18f200017
:10466400914f100006003a000060fe0039009000ef
:1046740051c0b3001040780077fc07008500370074
:10468400e54f510011003e0049409000e14f5000b9
:104694000d00360011c0b3000060fe000180fb0075
:1046a400b801900039029000e4717800380290005b
:1046b400a3718000e47178008140e80049409000d3
:1046c400814f5000f4ff3e004044980020e3200056
:1046d400c940900001487800e44f51002c0032009a
:1046e40006003e00e24f5100150032001e003e005d
:1046f400e14f510062003a0007003700f14f5100ca
:1047040031003200f24f51005a003200e54f51009f
:104714005b003a002800370012c0b300880078001c
:1047240009007800a0fe07000004e00059003200f0
:104734008040780010c0b30047fc070055003700e4
:1047440022c0b300880078000900780026fd070025
:104754000004e0004f0032008040780020c0b30025
:104764003dfc07004b00370032c0b30088007800de
:10477400090078008cfe07000004e00045003200c8
:104784008040780030c0b30033fc0700410037009c
:1047940042c0b300880078000900780012fd0700c9
:1047a4000004e0003b0032008040780040c0b300c9
:1047b40029fc0700370037008800780009007800da
:1047c40044fc0700330037000060fe00380090000e
:1047d400b900900091409000114098003900900079
:1047e4008080e800414288001040900081842000cd
:1047f40001010700e14f400006003a000060fe009e
:104804003900900011c0b3001040780012fc07007a
:10481400200037000004e000060032000060fe00c3
:104824003900900021c0b300104078000afc070052
:104834001800370038009000414280009140780011
:10484400214098003800900041428000914090003f
:10485400314098004ac8ec00404498000060fe00d3
:1048640008007800c104070060e1200000c8eb00e4
:1048740008003700090078001cff07000500370016
:104884000060fe003900900011c0b30010407800b1
:10489400f1fb07004f04be00000006003600f800dc
:1048a400809fbe00829fbe00849fbe00869fbe0084
:1048b4004628ef0086e0a90090c0a9005824ef0024
:1048c4009823ef008170800050552500808f5000a0
:1048d4000600320090c0a800f00b2000c02288001f
:1048e4009823ef00d10c07003100370040e120008d
:1048f4001004e00006003a0090c0a800f00b20006d
:10490400c02288009823ef00c80c07002800370055
:10491400304280008041eb00034278008002eb00cb
:1049240001003700050078000304a2000381fb00a6
:10493400050037000000e800e10f400002003a00e3
:10494400304288001a003700a1168000c908de0032
:10495400e1806000828f5000f6ff3200fe005000bc
:10496400f48f5000020036003042880010003700f7
:104974000442e800e44f5200eaff3a004628ef0000
:10498400d522ab000a003200e44f520008003a007e
:104994000000eb008070880041e12000804878002e
:1049a400b0f2070050552500907088009f0c070056
:1049b4004f03be004f02be004f01be004f00be00b9
:1049c4003600f90000400600204190000204e00097
:1049d400070032001001780091009000114978001e
:1049e4000060fe0011c0b3002140980003003700ae
:1049f4008040eb00214098000060fe0000000600ab
:104a0400204190000204e000070032009100900071
:104a140010017800924878000060fe0011c0b300d5
:104a240021409800030037008040eb0021409800ab
:104a34000060fe000000060020419000e14f51009c
:104a44000b0036009100900091007800100178006e
:104a5400014978000060fe0010017800c808de00fb
:104a64001141980021c0b300214098000300370091
:104a74000060fe008040eb0021409800000006002a
:104a840020419000e14f51000b00360022c0b300da
:104a94002240980010007800104190000281fb0031
:104aa4000060fe004811dd00910090001080fb00c2
:104ab40080087100030037000060fe008040eb00b6
:104ac40021409800000006000400fa0020419000f4
:104ad400e14f51000f003600910090001101be001b
:104ae400e2bf9f00f3bf9f00658157008000eb0089
:104af400900178005242780084f178000060fe0052
:104b04008100e800e48f5000f9ff3a00214098004a
:104b1400030037000060fe008040eb002140980055
:104b24000080fa0000000600881f78000004780066
:104b340028409000e14f50000f0036001100900013
:104b440002002000832c24001000be0053ef070055
:104b5400e2ee070098007800804878000060fe00cc
:104b6400980078004800de009040980020c0b30010
:104b740020449800030037000060fe000040eb0072
:104b8400204498004f04780000000600889fbe006f
:104b94000004780028409000e14f500011003600d6
:104ba4001800780090419000c819dd001081fb00c6
:104bb400030071000060fe00910490008000eb008f
:104bc400e1ee0700a2702d0033c2230033ef07008b
:104bd400808cbe000060fe0020c0b300204498001a
:104be400030037000060fe000040eb002044980002
:104bf4004f04be0000000600889fbe008a1f780094
:104c040081047800639220008000eb000060fe00c5
:104c140001047800934f10001e003a000140780010
:104c2400a2c0b3000440bc00609220000005410013
:104c34006a41b900e6004100608178008a0078008a
:104c44000900780002000100a940900010cfb300d1
:104c54000104e000140032000060fe006a40b90064
:104c6400680440006092200060017c008a007800a3
:104c740009007800020001000060fe00a9409000d5
:104c84000040eb000104e00007003a0020cfb3002d
:104c9400050037008100e800ea814100fb8f5000e5
:104ca400daff3a0000c0eb004f0578004f04be0065
:104cb40000000600881f78000104780001c4b300d6
:104cc400814f50001d003e00639220008000eb00e5
:104cd4000060fe0001027800934f100011003a00ba
:104ce4000060fe006a22b90068024200639220005c
:104cf40001407800a2c0b3000440bc00830041001e
:104d0400e3017a000800780003000100a840900045
:104d14000040eb000104e00024003a0010cfb3008f
:104d2400220037008100e800ea814100fb8f500037
:104d3400e7ff3a0020cfb3001c00370043a3200054
:104d44008000eb000060fe0001027800934f100029
:104d540011003a000060fe006a22b90068024200b5
:104d640043a3200001407800a2c0b3000440bc006b
:104d740083004100e3017a00080078000300010089
:104d8400a84090000040eb000104e00007003a0056
:104d940030cfb300050037008100e800ea8141000c
:104da400f58f5000e7ff3a0040cfb3004f0478007e
:104db4000000060011c0b300609220000148780092
:104dc400008a20004049880022c2b300a09220003b
:104dd40002487800815c2200614988006059220001
:104de400704988000060fe0024c0b30003932000d3
:104df40084497800438a2000934988004393200023
:104e040082497800b1498800c049880034c0b300a1
:104e1400e681410084497800c38b2000e34988007f
:104e2400e393200082497800014a8800104a8800f0
:104e340044c0b300e681410084497800438c2000db
:104e4400334a88008394200082497800514a8800bc
:104e5400604a880054c0b300e68141008449780068
:104e6400838a2000834a88002395200082497800a1
:104e7400a14a8800b04a88000060fe0064c0b30004
:104e8400e681410084497800c38a2000d34a88001f
:104e9400c395200082497800f14a8800004b8800bd
:104ea40074c0b300e681410084497800c38c2000bb
:104eb400234b88006396200082497800414b880088
:104ec400504b88000060fe0084c0b300e6814100be
:104ed40084497800438d2000734b88000397200099
:104ee40082497800914b8800a04b880094c0b3009d
:104ef400e681410084497800038b2000c34b88007d
:104f0400a397200082497800e14b8800f04b880089
:104f14000060fe00a4c0b300e6814100844978002b
:104f2400438b2000134c880043982000824978006a
:104f3400314c8800404c8800b4c0b300e681410085
:104f440084497800c38d2000634c8800e3982000d6
:104f540082497800814c8800904c88000060fe00f3
:104f6400c4c0b300e681410084497800438e200028
:104f7400b34c88008399200082497800d14c880082
:104f8400e04c8800d4c0b300e68141008449780035
:104f9400838e2000034d8800239a200082497800e4
:104fa400214d8800304d88000060fe00e4c0b3004d
:104fb400e681410084497800c38e2000534d880067
:104fc400c39a200082497800714d8800804d880082
:104fd400f4c0b300e681410084497800a390200026
:104fe400a34d8800639b200082497800c14d88004e
:104ff400d04d88000060fe0003c1b300c49b2000b4
:10500400034a7800e4902000f44d8800049c2000ba
:10501400024a7800114e8800204e880015c1b30062
:1050240066024200054a780024912000444e88001c
:10503400a49c2000024a7800614e8800704e8800cb
:105044000060fe0021c1b300660042000148780000
:1050540000872000904e880002c1e9006a004200e7
:105064000248780021542200b14e8800e051220009
:10507400c04e880035c1b30070024200054a780072
:10508400e4862000e44e8800e49d2000024a780073
:10509400014f8800104f88000060fe0041c1b3003a
:1050a400660042000148780040902000304f88009c
:1050b4006a0042000348780021502200514f8800c2
:1050c400604e2200604f880054c1b300e29e20006d
:1050d4000449780072902000824f8800229f2000ab
:1050e40003497800a14f8800b04f88000060fe009b
:1050f40064c1b30066014100044978005290200065
:10510400d24f8800c29f200003497800f14f8800e5
:105114000050880074c1b30066014100044978005e
:10512400829020002250880062a020000349780069
:1051340041508800505088000060fe0084c1b300d4
:105144006601410004497800629020007250880092
:1051540002a120000349780091508800a0508800e3
:1051640094c1b30066014100044978009290200084
:10517400c2508800a2a1200003497800e1508800b1
:10518400f05088000060fe00a4c1b3006601410035
:1051940004497800229020001251880042a2200085
:1051a400034978003151880040518800b4c1b300ec
:1051b4006601410004497800c284200062518800dd
:1051c400e2a22000034978008151880090518800b0
:1051d400000006000060fe0011c4b30040a32000dc
:1051e4000148780000882000b0518800ffc05000ba
:1051f40080a32000014878000000eb00d051880013
:1052040062592200e251880024c4b300e3a32000c1
:1052140084497800438820000352880023a4200096
:105224008149780020528800325288000060fe00d4
:105234000442e800e6814100844978008388200024
:1052440053528800c3a4200081497800705288001a
:10525400825288000442e800e681410084497800d3
:10526400c3882000a352880063a5200081497800e8
:10527400c0528800d25288000442e800e68141000e
:1052840084497800c3892000f352880003a62000d3
:105294008149780010538800635622002353880004
:1052a4000060fe000442e80063a620008449780000
:1052b400038f20004353880004c2b300a3a6200038
:1052c4008449780060538800e351220073538800b6
:1052d40076c4b30005a72000864a7800258f2000f5
:1052e4009553880045a72000844a7800b05388006d
:1052f400c35388000060fe000643e800e6824200d3
:10530400864a7800458f2000e5538800e5a72000f1
:10531400844a780000548800135488000643e80047
:10532400e6824200864a7800658f20003554880062
:1053340085a82000844a780050548800635488006b
:105344000060fe000643e800e6824200864a7800d8
:10535400858f20008554880025a92000844a780080
:10536400a0548800b35488000643e800e682420053
:10537400864a7800a58f2000d5548800c5a920004e
:10538400844a7800f0548800035588000060fe00c9
:10539400c4c4b300e681420084497800c38f20006e
:1053a4002355880004c1b300ea814200844978008f
:1053b40040558800634e22005355880006c3e80018
:1053c400f0824200864a7800d58f20007555880007
:1053d40005ab2000844a780090558800a3558800c6
:1053e4000060fe000643e800e6824200864a780038
:1053f400e58f2000c5558800a5ab2000844a7800bd
:10540400e0558800f35588000643e800e682420030
:10541400864a7800f58f20001556880045ac200098
:10542400844a780030568800435688000060fe00a5
:105434000643e800e6824200864a78000590200090
:1054440065568800e5ac2000844a780080568800c0
:10545400935688000643e800e6824200864a7800b4
:1054640015902000b556880085ad2000844a780048
:10547400d0568800e35688000060fe000643e8002a
:10548400e6824200864a780025902000055788006d
:1054940025ae2000844a78002057880033578800be
:1054a40034c5b300e68142008449780003892000b2
:1054b40053578800ea814200814978007057880078
:1054c400825788000442e800e6814100844978005c
:1054d40043892000a3578800f48142008149780061
:1054e400c0578800d25788000442e800e681410092
:1054f4008449780083892000f3578800fe814200a4
:10550400814978001058880022588800000006005d
:105514000400fa0020419000e14f51000d003600d4
:1055240090017800658157000f02e9003369780023
:10553400840f5100fdff3a00910090006fb997006d
:10554400ffb997008288be0041c0b3002140980093
:10555400030037000060fe008040eb00214098000b
:105564000080fa00000006000200fa00889fbe00d6
:105574008a9fbe008c9fbe000000eb0090bf9f007e
:10558400689220000005eb0019c0b30008067800fb
:105594008046eb000060fe009845780089cf5500f6
:1055a40023003a00c84090008180fb00c408de005c
:1055b4008141780002852000034978000060fe00e4
:1055c4006a51b9008200460048019000e08420003e
:1055d400020001005048e20015003200e18420007e
:1055e4000b4078001f0d0700e18420000b40780079
:1055f400f10c07000060fe005048e2000c0032008d
:105604000d4078000060fe008080fb007242800044
:10561400e2c078008180fb001fb9970001014100be
:1056240092bf9f000040e8005048e300f5ff3e00b1
:105634008944e8000a05e8006a044400fccf5400e9
:10564400d4ff3a006e8057003c0d07004f06be00a1
:105654004f05be004f04be000080fa0000000600a3
:10566400e4874700889fbe008a9fbe008c9fbe00cf
:105674008e1f78000000eb0080bf9f00689220001e
:105684006055b80019c0b300880678000047eb00e5
:105694000060fe0018407800894f50001a003a005c
:1056a400c84090008180fb00c408de00814178007e
:1056b4000285200003497800e1842000be0c070025
:1056c4000060fe006a58b9008080460038019000ee
:1056d400e0842000020001005048e2000a00320089
:1056e4000e4078000060fe008080fb007242800063
:1056f400e2c078008180fb00010545000040e8001d
:105704005048e300f7ff3e008944e8008b05e800b9
:105714006a044400fccf5400ddff3a000060fe0040
:10572400708057000f0d07000fb897008a0f5000c4
:1057340003003a000060fe000040eb000200370066
:105744000060fe0000c0eb004f0778004f06be006b
