:020000040000fa
:080000000001040000000000f3
:020000040000fa
:040008006605000089
:020000040000fa
:04000c00e00100000f
:020000040000fa
:04001000e601000005
:020000040000fa
:04001400ec010000fb
:020000040000fa
:04001800f2010000f1
:020000040000fa
:04001c006605000075
:020000040000fa
:040020006605000071
:020000040000fa
:04002400660500006d
:020000040000fa
:040028006605000069
:020000040000fa
:04002c006605000065
:020000040000fa
:040030006605000061
:020000040000fa
:0400340010020000b6
:020000040000fa
:040038006605000059
:020000040000fa
:04003c006605000055
:020000040000fa
:040040006605000051
:020000040000fa
:04004400660500004d
:020000040000fa
:040048006605000049
:020000040000fa
:04004c00c45d00008f
:020000040000fa
:04005000ea5d000065
:020000040000fa
:04005400660500003d
:020000040000fa
:040058006605000039
:020000040000fa
:04005c006605000035
:020000040000fa
:040060006605000031
:020000040000fa
:04006400660500002d
:020000040000fa
:04006800164000003e
:020000040000fa
:04006c006605000025
:020000040000fa
:040070006605000021
:020000040000fa
:04007400660500001d
:020000040000fa
:040078006605000019
:020000040000fa
:04007c0056400000ea
:020000040000fa
:040080006605000011
:020000040000fa
:04008400660500000d
:020000040000fa
:040088006605000009
:020000040000fa
:04008c006605000005
:020000040000fa
:040090006605000001
:020000040000fa
:04009400f051000027
:020000040000fa
:0400980066050000f9
:020000040000fa
:04009c0066050000f5
:020000040000fa
:0400a00066050000f1
:020000040000fa
:0400a40066050000ed
:020000040000fa
:0400a80066050000e9
:020000040000fa
:0400ac0066050000e5
:020000040000fa
:0400b00066050000e1
:020000040000fa
:0400b40066050000dd
:020000040000fa
:0400b80066050000d9
:020000040000fa
:0400bc0066050000d5
:020000040000fa
:0400c00066050000d1
:020000040000fa
:0400c40066050000cd
:020000040000fa
:0400c80066050000c9
:020000040000fa
:0400cc0066050000c5
:020000040000fa
:0400d00066050000c1
:020000040000fa
:0400d40066050000bd
:020000040000fa
:0400d80066050000b9
:020000040000fa
:040108006605000088
:020000040000fa
:04010c00f8010000f6
:020000040000fa
:04011000fe010000ec
:020000040000fa
:0401140004020000e1
:020000040000fa
:040118000a020000d7
:020000040000fa
:04011c006605000074
:020000040000fa
:040120006605000070
:020000040000fa
:04012400660500006c
:020000040000fa
:040128006605000068
:020000040000fa
:04012c006605000064
:020000040000fa
:040130006605000060
:020000040000fa
:04013400660500005c
:020000040000fa
:040138006605000058
:020000040000fa
:04013c006605000054
:020000040000fa
:040140006605000050
:020000040000fa
:04014400660500004c
:020000040000fa
:040148006605000048
:020000040000fa
:04014c006605000044
:020000040000fa
:040150006605000040
:020000040000fa
:04015400660500003c
:020000040000fa
:040158006605000038
:020000040000fa
:04015c006605000034
:020000040000fa
:040160006605000030
:020000040000fa
:04016400660500002c
:020000040000fa
:040168006605000028
:020000040000fa
:04016c006605000024
:020000040000fa
:040170006605000020
:020000040000fa
:04017400660500001c
:020000040000fa
:040178006605000018
:020000040000fa
:04017c006605000014
:020000040000fa
:040180006605000010
:020000040000fa
:04018400660500000c
:020000040000fa
:040188006605000008
:020000040000fa
:04018c006605000004
:020000040000fa
:040190006605000000
:020000040000fa
:0401940066050000fc
:020000040000fa
:0401980066050000f8
:020000040000fa
:04019c0066050000f4
:020000040000fa
:0401a00066050000f0
:020000040000fa
:0401a40066050000ec
:020000040000fa
:0401a80066050000e8
:020000040000fa
:0401ac0066050000e4
:020000040000fa
:0401b00066050000e0
:020000040000fa
:0401b40066050000dc
:020000040000fa
:0401b80066050000d8
:020000040000fa
:0401bc0066050000d4
:020000040000fa
:0401c00066050000d0
:020000040000fa
:0401c40066050000cc
:020000040000fa
:0401c80066050000c8
:020000040000fa
:0401cc0066050000c4
:020000040000fa
:0401d00066050000c0
:020000040000fa
:0401d40066050000bc
:020000040000fa
:0401d80066050000b8
:020000040000fa
:100200008fca20000e7f22000e018800000000002f
:10021000000020000000e000020032000001200089
:1002200020028800140007002a0207000000e000f6
:1002300003003a0020df2500010020000200370003
:100240000000200001002000810f7000010032003a
:1002500014000700000020000000e000020032004f
:1002600000000200000000006e5f020000000000bd
:100270000040da000000fe004440a9008020200079
:100280000000e0000300320000002000a001880010
:100290004440a800000006008a1f78008b1f7800e9
:1002a0000000060091018800800478000000eb0047
:1002b0001a003700e284440032a0b4009905ba0065
:1002c000e284440032a0b4009906ba00e2844400fb
:1002d00032a0b4000006eb00476fde00fd07b2005d
:1002e000636ce10003003a00ebff07000000eb0045
:1002f0000a003700606ce10004003a00005deb008a
:100300008b05e900fdff3e00040037006168e10055
:10031000010032000086eb000b00070019c7ba008d
:100320001905ba000e04e00003003a000a00e000dc
:10033000e0ff3a0000000600fe07b2009e018800c0
:100340008a047800f5ff3700395dba008b05e900b3
:100350000c003200295dba008b05e900080032006c
:100360000c00e00003003a00e284440032a0b40034
:10037000f5ff370019ddba008b05e900faff3a00f6
:100380008904e800e184440032a0b40000000600c3
:100390008a31040000000000e43104000000000085
:1003a0003032040000000000703204000000000041
:1003b000ae32040000000000da3204000000000049
:1003c0000000fa008020a900ffff37000000fa00bb
:1003d0008060a900ffff37000000fa008040a900fc
:1003e000ffff37000000fa008080a900ffff370000
:1003f0000000fa008020a900ffff37000000fa008b
:100400008060a900ffff37000000fa008040a900cb
:10041000ffff37000000fa008080a900ffff3700cf
:100420003600f800809fbe00829fbe00849fbe0001
:10043000869fbe000000fa000060fe008460a900f4
:100440002a0007000080fa004f03be004f02be00e2
:100450004f01be004f00be003600f900004006000c
:100460000200fa00000f78000060fe009e00780095
:10047000c14188009e007800c14188000080fa00d8
:10048000000006000000fa000060fe00c04180008d
:100490000080fa00000006000000fa00a05a2500c3
:1004a000d0418800a05a2500d04188000080fa0081
:1004b000000006000000fa0050a52a00e041880074
:1004c00050a52a00e04188000080fa0000000600e4
:1004d0000000fa003a28ef003c28ef003a28ef002d
:1004e0003c28ef000080fa00000006000000fa003f
:1004f0000060fe00c02c0700c04180000042880060
:100500003828ef003828ef008d20a8008f60a80061
:100510000080fa00000006000600fa000040eb0030
:10052000004f78006000b80010079800210798007d
:10053000c041800041a52a00810f50001c003200fc
:1005400041a52a00810f500009003e0011a52a0094
:10055000810f50001400320021a52a00810f5000a5
:10056000150032000000e000170032007c00370068
:1005700071a52a00810f50000700320081a52a00d2
:10058000810f50000600320051a52a00810f500053
:100590000b003200720037000060fe007800370068
:1005a0000060fe00760037000060fe007400370037
:1005b0000060fe00720037000060fe00700037002f
:1005c0000060fe006e0037000060fe00e862a900d7
:1005d000cb42a800cba2a900e282a800e902a900b0
:1005e000e862a900cb42a800cba2a900e282a80041
:1005f000e902a900e2c2a900cb22a800cb82a9008f
:10060000cbe2a800caa2a900e2c2a900cb22a8009e
:10061000cb82a900cbe2a800caa2a900acff0700c8
:1006200000428000d0000700d5290700100798007d
:10063000210798001e019000ae019000500020009c
:1006400001002000800f5100818f590004003a0002
:10065000108f2000a1cab3000148780003003700c2
:10066000108f200051c5b30001487800004280007f
:100670000000e00017003200108f2000904078004a
:1006800050c5b30080cf500003003a000084200022
:10069000dc220700004f78000060fe0040c2b3007b
:1006a0009e40780080cf500002003a008000070092
:1006b000330037000060fe008b210700004f7800f8
:1006c0001e4078000004e000010032002c003700da
:1006d0004028ef004028ef00108f20009040780065
:1006e000a0cab30080cf500012003a008d20a800ad
:1006f0008f60a8008181200000812000f42707007e
:10070000004f78000060fe00808120006040900073
:10071000e14f400002003a00808120006d18070080
:100720000060fe001e4078000004e000010032007e
:10073000130037006c210700004f78001e4078003e
:100740000004e000010032000d0037000060fe00f0
:1007500036210700b92107000060fe0008003700bd
:100760000060fe003828ef00e862a900cb42a80034
:10077000cba2a900e282a800e902a90000000000c3
:100780006bff37000000fa000060fe00e462a90081
:10079000c7a2a900de82a900c742a900e862a90099
:1007a000cb42a800cba2a900e282a800e902a900de
:1007b000dec2a900c782a900c7e2a900c722a9001a
:1007c000e2c2a900cb22a800cb82a900cbe2a800fc
:1007d000caa2a90020032000d0428800e001200026
:1007e000e04288003e28ef003a28ef003c28ef0066
:1007f0000080fa00000006000000fa000060fe0021
:100800008d20a9008f60a900d0428000d22b070064
:1008100010a52a00c041880010a52a00c041880008
:10082000cba2a900e282a800e862a800cb42a900fe
:10083000e902a800cba2a900e282a800e862a80011
:10084000cb42a900e902a80010a52a0000428800b6
:10085000d1418000a05a2500808f50001100320045
:100860000060fe00e862a900cb42a800cba2a9006c
:10087000e282a800e902a900e862a900cb42a80030
:10088000cba2a900e282a800e902a9003828ef0063
:100890003828ef004028ef008d20a8008f60a800c6
:1008a00001003700cf2b07000080fa00000006008f
:1008b0000000fa000060fe008d20a9008f60a900f2
:1008c000e0428000a42b070040a52a00c041880018
:1008d00040a52a00c0418800e862a900cb42a800d8
:1008e000cba2a800e282a900e902a800e862a90060
:1008f000cb42a800cba2a800e282a900e902a8008e
:1009000040a52a0000428800e141800050a52a004d
:10091000808f5000110032000060fe00e862a900e4
:10092000cb42a800cba2a900e282a800e902a9005c
:10093000e862a900cb42a800cba2a900e282a800ed
:10094000e902a9003828ef003828ef004028ef001e
:100950008d20a8008f60a80001003700a12b0700a0
:100960000080fa00000006000600fa002007980048
:10097000ae00900010a52a00808f500008003a00b9
:1009800020002f00f1072000008fbe008d20a9005d
:100990008f60a9001e00be007e2a070045003700b8
:1009a000ae00900040a52a00808f500008003a0059
:1009b00040002f00f1072000008fbe008d20a9000d
:1009c0008f60a9001e00be00722a070039003700a0
:1009d000ae00900020a52a00808f500008003a0049
:1009e00060002f00f1072000008fbe008d20a900bd
:1009f0008f60a9001e00be00662a07002d00370088
:100a0000ae00900050a52a00808f500008003a00e8
:100a100080002f00f1072000008fbe008d20a9006c
:100a20008f60a9001e00be005a2a0700210037006f
:100a3000ae00900070a52a00808f50000d003a0093
:100a40008d20a9008f60a90020002f00f107200051
:100a5000008fbe001e00be004e2a070060002f005f
:100a6000f1072000008fbe001e00be00492a0700cb
:100a700010003700ae00900080a52a00808f500043
:100a80000f003a008d20a9008f60a90040002f00c0
:100a9000f1072000008fbe001e00be003d2a0700a7
:100aa00080002f00f1072000008fbe001e00be0056
:100ab000382a07008d20a8008f60a80001003700a9
:100ac000000000000080fa00000006000040da008c
:100ad0000000fe00000005003200f80091018800cf
:100ae0000008bb00410424006210e1000400320051
:100af000000220000010e1000a003a005104240026
:100b0000013b88000500fc0051052000313b8800b6
:100b1000a10a2000313b880061e7a8000000000026
:100b2000000000003200f900000006003200f8006a
:100b300060042400003b8800f2ff37003200f80018
:100b40009101880041002400013b88000208bb009d
:100b5000ecff37003200f8009101880051002400ba
:100b6000013b8800030120003218bb008301e9002b
:100b7000fdff3a00e3ff37003200f80091018800e2
:100b80008002780062004000e08048003549ba00e9
:100b90003204e0000410a700100032008301e900d5
:100ba0000e0032002549ba003204e0000410a7000c
:100bb0000a0032008301e900080032000408a300a3
:100bc000eeff320015c9ba003204e0000410a7009d
:100bd000020032008301e900e8ff3a003200f90028
:100be0000000060003f0a200889fbe008a9fbe009e
:100bf0008c1f7800f5000700fc0033006450e10012
:100c00004f0032006420e1005200320003826c0089
:100c100007003b000905d0000306d000820f5400f6
:100c20000c065d00020039000200320089017800e4
:100c3000030678008582550004003d000003fd0096
:100c40008103fd008502ea008b854200840f72005b
:100c500002003b0060001000e08018006011b80046
:100c60000005eb007a28e1000a0039000600780050
:100c7000c75ddd00f707b200878075002d003700e3
:100c8000828171000a017800610560008180d100d5
:100c90000080d3008502e900f9ff3b000604400014
:100ca0008784480002003b0060041400e0841c00bc
:100cb0000988a300070032008a81710082817100d7
:100cc000610164008904d1000884d3008b05e80029
:100cd000170037000978a30013003a000b00e0006a
:100ce000130034008b05e9000804440089844c009b
:100cf0000a4474000978a3000d003a000b00e000dc
:100d0000070034008b05e9000804440089844c0086
:100d100001003a000b0020000978a300f7ff320021
:100d20000001eb0002003700828171000a017800a7
:100d30006b0007000cf0a70001f0a000b400370022
:100d40006420e10002003a00838f6c00b40033009d
:100d50000801be000200be00ad003700889fbe0043
:100d60008a9fbe008c1f7800980007009f00330008
:100d700003866c006450e1002e0032006420e10024
:100d8000330032006150e1002f0032006120e100a9
:100d90003100320085855500eb07b00009002000c6
:100da00008042000050037000804440089844c0032
:100db0000a0031000603430087834b000001530003
:100dc00081815b00f8ff33000203be000800a00031
:100dd0000804440089844c00f6ff3900c639dd0060
:100de0008301730001003200130020008904d10048
:100df0000884d3000998a300050032000800a7006a
:100e00000300a0008904d1000884d3008b05e8000a
:100e10008904d1000884d3000001eb000281d200d4
:100e20002f00070001f0a1000cf0a70001f0a000c6
:100e3000770037006420e100790032000801be002d
:100e40000200be00f7ff37006120e10074003200ad
:100e50006000b800f3ff37000000200001f8270011
:100e6000f0ff3700f4ff2f00a40037000001be00a0
:100e7000410007000470a70003f0a10003f8a300dd
:100e800013003a006509b100100032000900350076
:100e90006928e1000200350001002800000005007b
:100ea00000004000818048008502e900fcff3a0014
:100eb00000000600f88f4200050035008100d100d7
:100ec0000080d3008502e800fcff3a000000060025
:100ed0008000eb00000005006011b800a2003700a0
:100ee00081002000618055000b003d000b002000b8
:100ef00061fe2f000100e1001d00340082817100bd
:100f0000610164008904d1000884d3000000e80076
:100f1000faff3a00710020006100640003007000d5
:100f2000020060000900320061044400e0844c00cb
:100f30000988a500050032008b05e8006808e1007b
:100f400002003a008904d1000884d300f20f200087
:100f50000258e10005003d00c75ddd00f907b20061
:100f60008980750008007800000006000bf8270053
:100f70008b00780000000500c70ade00f107b20010
:100f8000f50fb20008003200e1cf4200020032004b
:100f90000170a00024000500810f700001003200e4
:100fa0000408050044000500810f700002003a00ab
:100fb000140005008502e9000000400081c04800df
:100fc000fcff3b000170a000240005000004be00ef
:100fd000e9ff07000003be000405be000200be00da
:100fe000e5ff0700844f7500000006000200be0008
:100ff0006450e100050036006420e1000200360084
:101000000968a30001003a000800be000160a000ca
:101010004f0678004f05be004f04be0000000600da
:10102000f0ff2f00f1ff2700f9ff3700889fbe0077
:101030008a9fbe008c1f7800e4ff0700ebff33009f
:1010400003866c006450e100240032006420e1005b
:10105000270032006150e100220032006120e100ef
:10106000210032008b854200eb07b1000134b8004b
:10107000003ab8000804420089844a00013ab800e6
:101080000030b8008880400009014a0004003300a5
:101090000000400081804800020149008b05e90002
:1010a000c909dd0083017000010032001300200037
:1010b000c814de004814dd004709de001200b2004b
:1010c000c808de000884700085ff070001f0a10059
:1010d0000cf0a70001f0a000cdff37006120e10077
:1010e000cfff32000801be000200be00f7ff37004c
:1010f0006150e100fcff3a00c9ff3700889fbe0045
:101100008a9fbe00841f7800b0ff07004f00780060
:1011100011003300f0ff2f00838f6c0006003b00ae
:10112000040565000a00a7000800370009f0a600c2
:101130001000200008003700820f5400838f5c00ed
:10114000030039001000200001003e0000002000d4
:1011500009f0a7000000ea004f05be004f04be00e2
:101160000000e00000000600889fbe008a9fbe00cd
:1011700000827000040271000482710026003200b7
:101180000004be000200be006011b8006b09200020
:10119000950220000182cf000a0039000541b1000c
:1011a0000082cf00070039000541b1000982cf005d
:1011b000040039000541b1000882cf000100390068
:1011c0000541b10005425200120032000a003b0006
:1011d00082817100610164008100d1000080d30030
:1011e0008984d3000884d3008b05e8000442e8001a
:1011f000f7ff3a00070037000804440089844c00d8
:1012000000004800818048008b05e9000442e900a5
:10121000f9ff3a0032ff07004f05be004f04be0041
:0412200000000600c4
:020000040000fa
:1012240000c100008140000001c0000080410000b6
:1012340001c000008041000000c1000081400000a6
:1012440001c000008041000000c100008140000096
:1012540000c100008140000001c000008041000086
:1012640001c000008041000000c100008140000076
:1012740000c100008140000001c000008041000066
:1012840000c100008140000001c000008041000056
:1012940001c000008041000000c100008140000046
:1012a40001c000008041000000c100008140000036
:1012b40000c100008140000001c000008041000026
:1012c40000c100008140000001c000008041000016
:1012d40001c000008041000000c100008140000006
:1012e40000c100008140000001c0000080410000f6
:1012f40001c000008041000000c1000081400000e6
:1013040001c000008041000000c1000081400000d5
:1013140000c100008140000001c0000080410000c5
:1013240001c000008041000000c1000081400000b5
:1013340000c100008140000001c0000080410000a5
:1013440000c100008140000001c000008041000095
:1013540001c000008041000000c100008140000085
:1013640000c100008140000001c000008041000075
:1013740001c000008041000000c100008140000065
:1013840001c000008041000000c100008140000055
:1013940000c100008140000001c000008041000045
:1013a40000c100008140000001c000008041000035
:1013b40001c000008041000000c100008140000025
:1013c40001c000008041000000c100008140000015
:1013d40000c100008140000001c000008041000005
:1013e40001c000008041000000c1000081400000f5
:1013f40000c100008140000001c0000080410000e5
:1014040000c100008140000001c0000080410000d4
:1014140001c000008041000000c1000081400000c4
:1014240000c00000c1010000c303000002c20000ac
:10143400c606000007c7000005c50000c40400007c
:10144400cc0c00000dcd00000fcf0000ce0e00002c
:101454000aca0000cb0b0000c909000008c800003c
:10146400d818000019d900001bdb0000da1a0000ac
:101474001ede0000df1f0000dd1d00001cdc00007c
:1014840014d40000d5150000d717000016d60000ac
:10149400d212000013d3000011d10000d0100000bc
:1014a400f030000031f1000033f30000f2320000ac
:1014b40036f60000f7370000f535000034f400007c
:1014c4003cfc0000fd3d0000ff3f00003efe00002c
:1014d400fa3a00003bfb000039f90000f83800003c
:1014e40028e80000e9290000eb2b00002aea0000ac
:1014f400ee2e00002fef00002ded0000ec2c00007c
:10150400e424000025e5000027e70000e6260000ab
:1015140022e20000e3230000e121000020e00000bb
:10152400a060000061a1000063a30000a2620000ab
:1015340066a60000a7670000a565000064a400007b
:101544006cac0000ad6d0000af6f00006eae00002b
:10155400aa6a00006bab000069a90000a86800003b
:1015640078b80000b9790000bb7b00007aba0000ab
:10157400be7e00007fbf00007dbd0000bc7c00007b
:10158400b474000075b5000077b70000b6760000ab
:1015940072b20000b3730000b171000070b00000bb
:1015a40050900000915100009353000052920000ab
:1015b400965600005797000055950000945400007b
:1015c4009c5c00005d9d00005f9f00009e5e00002b
:1015d4005a9a00009b5b000099590000589800003b
:1015e40088480000498900004b8b00008a4a0000ab
:1015f4004e8e00008f4f00008d4d00004c8c00007b
:1016040044840000854500008747000046860000aa
:1016140082420000438300004181000080400000ba
:10162400596f00006e67000043690000000000006d
:020000040000fa
:101634000200fa0040bc200080c0eb0001487800a2
:1016440020bb2000105e8800e0bc200080c0eb00be
:101654000148780080ba2000605e880020b920002c
:1016640001c1b3000148780030b9200021c0b300a3
:101674000148780040b920008040eb000148780020
:1016840050b92000a1c0b3000148780020b6200062
:101694008040eb000148780020b020008040eb003f
:1016a4000148780020b320008040eb000148780016
:1016b40000408000b05c880070428000c05c8800fc
:1016c40010408000d05c8800418020009140780068
:1016d400c0b9200001487800518020009140780072
:1016e400d0b920000148780030408000414080009b
:1016f400005d8800115d88005240800063408000d6
:10170400225d8800335d880010cab30050e8b7003a
:1017140061bc2000c0bb2000eb060700004f78002e
:101724000200370040cab30050e8b7001e407800fa
:101734000004e000fbff3a0020cab30050e8b70001
:101744000080fa00000006000400fa00000f780090
:10175400110798001e007800300090000000e80097
:1017640010407800ee4f50003c00320020b92000b9
:10177400104078000081fb008001eb00f0032000a2
:101784000100200002027800030178008001780043
:101794000100780003026200000061008000eb0099
:1017a400c000dd00000020000001be006120b80080
:1017b4000001710081817100431add00cd12de0049
:1017c400850272004312dd00304020000100200039
:1017d40000007200818072001e0190000089be002a
:1017e4001e009000300090009e007800b100900030
:1017f400914078000174a100014878001e00900017
:10180400300090000000e80041c9b30001487800ae
:101814001e009000300090000080e80081c0b300fa
:10182400014878001e0090003000900063004000e2
:1018340021c0b300014878001e00900041c0b300ed
:10184400414098001e0078008040eb000148980059
:101854001e009000b00a0700800037001e007800c8
:10186400300090000080e80010407800e14f500004
:101874003c00320020b92000104078000081fb00b9
:101884008001eb00f0032000010020000202780038
:1018940003017800800178000100780003026200ef
:1018a400000061008000eb00c000dd0000002000ab
:1018b4000001be006120b800000171008181710047
:1018c400431add00cd12de00850272004312dd00f2
:1018d400304020000100200000007200818072006e
:1018e4001e0190000089be001e0090003000900090
:1018f4009e007800b1009000914078000174a1002e
:10190400014878001e009000300090000000e800bc
:1019140041c9b300014878001e00900030009000d7
:101924000080e80081c2b300014878001e009000e6
:10193400300090006300400080c0eb000148780054
:101944001e00900041c0b300414098001e00780082
:101954008040eb00014898001e0090006e0a0700ca
:101964003e00370020b92000104078000081fb00c1
:101974008001eb00f0032000010020000202780047
:1019840003017800800178000100780003026200fe
:10199400000061008000eb00c000dd0000002000ba
:1019a4000001be006120b800000171008181710056
:1019b400431add00cd12de00850272004312dd0001
:1019c400304020000100200000007200818072007d
:1019d4001e0190000089be001e009000300090009f
:1019e4009e007800b1009000914078000174a1003d
:1019f400014878001e009000300090000000e800cc
:101a0400e1c8b300014878001e0090003000900047
:101a14000080e8007140800081407800014878002f
:101a24001e00900030009000630040007140800070
:101a3400c808de0081407800014878001e0090004c
:101a440041c0b300414098001e0078008040eb0084
:101a5400014898001e0090002f0a07000080fa0039
:101a6400000006000400fa00000f78001107980037
:101a74001e007800300090000000e800104078005c
:101a84000080fb00f00f5000fe003200f00f500009
:101a940003003c00ee0f50000500320082013700c5
:101aa400b004b100e10f50007f013e007a0137001d
:101ab4001e00780030009000640040001040780060
:101ac4000080fb00e20f50003c003200e50f5000a4
:101ad40072003200e10f5000ae003a0020b920003d
:101ae400104078000081fb008001eb00f00320002f
:101af40001002000020278000301780080017800d0
:101b04000100780003026200000061008000eb0025
:101b1400c000dd00000020000001be006120b8000c
:101b24000001710081817100431add00cd12de00d5
:101b3400850272004312dd003040200001002000c5
:101b440000007200818072001e0190000089be00b6
:101b54001e009000300090009e007800b1009000bc
:101b6400914078000174a100014878001e009000a3
:101b7400300090000000e800e1c8b300014878009c
:101b84001e009000300090000080e80021b9200081
:101b940091407800014878001e00900031c0b300e5
:101ba400414098001e0078008040eb0001489800f6
:101bb4001e009000d80907007701370020b92000e3
:101bc400104078000081fb008001eb00f00320004e
:101bd40001002000020278000301780080017800ef
:101be4000100780003026200000061008000eb0045
:101bf400c000dd00000020000001be006120b8002c
:101c04000001710081817100431add00cd12de00f4
:101c1400850272004312dd003040200001002000e4
:101c240000007200818072001e0190000089be00d5
:101c34001e009000300090009e007800b1009000db
:101c4400914078000174a100014878001e009000c2
:101c5400300090000000e800e1c8b30001487800bb
:101c64001e009000300090000080e80031b9200090
:101c740091407800014878001e00900031c0b30004
:101c8400414098001e0078008040eb000148980015
:101c94001e009000a00907003f01370020b9200072
:101ca400104078000081fb008001eb00f00320006d
:101cb400010020000202780003017800800178000e
:101cc4000100780003026200000061008000eb0064
:101cd400c000dd00000020000001be006120b8004b
:101ce4000001710081817100431add00cd12de0014
:101cf400850272004312dd00304020000100200004
:101d040000007200818072001e0190000089be00f4
:101d14001e009000300090009e007800b1009000fa
:101d2400914078000174a100014878001e009000e1
:101d3400300090000000e800e1c8b30001487800da
:101d44001e009000300090000080e80041b920009f
:101d540091407800014878001e0090003000900007
:101d64006300400051b92000914078000148780098
:101d74001e00900041c0b300414098001e0078004e
:101d84008040eb00014898001e00900062090700a3
:101d94000101370020b92000104078000081fb00c9
:101da4008001eb00f0032000010020000202780013
:101db40003017800800178000100780003026200ca
:101dc400000061008000eb00c000dd000000200086
:101dd4000001be006120b800000171008181710022
:101de400431add00cd12de00850272004312dd00cd
:101df4003040200001002000000072008180720049
:101e04001e0190000089be001e009000300090006a
:101e14009e007800b1009000914078000174a10008
:101e2400014878001e009000300090000000e80097
:101e340041c9b300014878001e00900030009000b2
:101e44000080e80081c2b300014878001e009000c1
:101e5400300090006300400080c0eb00014878002f
:101e64001e00900041c0b300414098001e0078005d
:101e74008040eb00014898001e00900026090700ee
:101e8400c50037001e007800300090006300400059
:101e9400104078000080fb00e50f500042003e0037
:101ea400110020008008dd00600220000080600036
:101eb4000000e0003c00320020b92000104078000f
:101ec4000081fb008001eb00f003200001002000f2
:101ed4000202780003017800800178000100780094
:101ee40003026200000061008000eb00c000dd001e
:101ef400000020000001be006120b8000001710054
:101f040081817100431add00cd12de00850272006a
:101f14004312dd0030402000010020000000720068
:101f2400818072001e0190000089be001e00900096
:101f3400300090009e007800b1009000914078003d
:101f44000174a100014878001e0090003000900048
:101f54000000e80041c9b300014878001e00900069
:101f6400300090000080e800e1c0b3000148780030
:101f74001e009000300090006300400080c0eb0021
:101f8400014878001e00900041c0b3004140980011
:101f94001e0078008040eb00014898001e0090006d
:101fa400dd0807007c00370020b9200010407800cd
:101fb4000081fb008001eb00f00320000100200001
:101fc40002027800030178008001780001007800a3
:101fd40003026200000061008000eb00c000dd002d
:101fe400000020000001be006120b8000001710063
:101ff40081817100431add00cd12de00850272007a
:102004004312dd0030402000010020000000720077
:10201400818072001e0190000089be001e009000a5
:10202400300090009e007800b1009000914078004c
:102034000174a100014878001e0090003000900057
:102044000000e80041c9b300014878001e00900078
:10205400300090000080e80081c2b300014878009d
:102064001e009000300090006300400080c0eb0030
:10207400014878001e00900041c0b3004140980020
:102084001e0078008040eb00014898001e0090007c
:10209400a1080700400037009e0090001e00780051
:1020a400e00507003c00370020b92000104078000c
:1020b4000081fb008001eb00f00320000100200000
:1020c40002027800030178008001780001007800a2
:1020d40003026200000061008000eb00c000dd002c
:1020e400000020000001be006120b8000001710062
:1020f40081817100431add00cd12de008502720079
:102104004312dd0030402000010020000000720076
:10211400818072001e0190000089be001e009000a4
:10212400300090009e007800b1009000914078004b
:102134000174a100014878001e0090003000900056
:102144000000e80041c9b300014878001e00900077
:10215400300090000080e80081c0b300014878009e
:102164001e009000300090006300400080c0eb002f
:10217400014878001e00900041c0b300414098001f
:102184001e0078008040eb00014898001e0090007b
:1021940061080700000000000080fa00000006004b
:1021a4000400fa00000f78001107980020b92000fd
:1021b400104078000081fb008001eb00f003200058
:1021c40001002000020278000301780080017800f9
:1021d4000100780003026200000061008000eb004f
:1021e400c000dd00000020000001be006120b80036
:1021f4000001710081817100431add00cd12de00ff
:10220400850272004312dd003040200001002000ee
:1022140000007200818072001e0190000089be00df
:102224001e009000300090009e007800b1009000e5
:10223400914078000174a100014878001e009000cc
:10224400300090000000e80041c9b3000148780064
:102254001e009000300090000080e80081c0b300b0
:10226400014878001e009000300090006300400098
:1022740011c0b300014878001e00900041c0b300b3
:10228400414098001e0078008040eb00014898000f
:102294001e009000200807000080fa0000000600dd
:1022a4000400fa00000f78001107980020b92000fc
:1022b400104078000081fb008001eb00f003200057
:1022c40001002000020278000301780080017800f8
:1022d4000100780003026200000061008000eb004e
:1022e400c000dd00000020000001be006120b80035
:1022f4000001710081817100431add00cd12de00fe
:10230400850272004312dd003040200001002000ed
:1023140000007200818072001e0190000089be00de
:102324001e009000300090009e007800b1009000e4
:10233400914078000174a100014878001e007800e3
:10234400300090000000e800104078000080fb009e
:10235400ee0f50001b003200f00f500058003a00fe
:102364001e009000300090000000e80001c9b30096
:10237400014878001e009000300090000080e800c2
:102384009e007800b1009000e58040009140780004
:10239400014878001e009000300090006300400067
:1023a4009e007800b1009000e680400091407800e3
:1023b400014878001e00900041c0b30041409800dd
:1023c400520037001e009000300090000000e8002a
:1023d400e1c8b300014878001e0078003000900086
:1023e40064004000104078000080fb00e70f5000bc
:1023f40003003200e80f50000f0032001c003700c9
:102404001e009000300090000080e80081c0b300fe
:10241400014878001e0090003000900063004000e6
:102424008040eb00014878001e00900041c0b300da
:1024340041409800210037001e00900030009000b9
:102444000080e80081c0b300014878001e009000bd
:1024540030009000630040008040eb0001487800a9
:102464001e00900041c0b3004140980013003700a3
:102474001e009000300090000000e80041c9b30045
:10248400014878001e009000300090000080e800b1
:1024940081c0b300014878001e0090003000900015
:1024a4006300400011c0b300014878001e00900092
:1024b40041c0b30041409800000000001300370001
:1024c4001e009000300090000000e80041c9b300f5
:1024d400014878001e009000300090000080e80061
:1024e40081c0b300014878001e00900030009000c5
:1024f4006300400011c0b300014878001e00900042
:1025040041c0b30041409800000000001e00780064
:102514008040eb00014898001e0090007e070700f1
:102524000080fa00000006000400fa00000f7800a2
:102534001107980020b92000104078000081fb00aa
:102544008001eb00f003200001002000020278006b
:102554000301780080017800010078000302620022
:10256400000061008000eb00c000dd0000002000de
:102574000001be006120b80000017100818171007a
:10258400431add00cd12de00850272004312dd0025
:1025940030402000010020000000720081807200a1
:1025a4001e0190000089be001e00900030009000c3
:1025b4009e007800b1009000914078000174a10061
:1025c400014878001e007800300090000000e80008
:1025d400104078000080fb00ee0f500038003200fd
:1025e400f00f500075003a001e009000300090007b
:1025f4000000e80001c9b300014878001e0078001b
:102604003000900064004000104078000080fb001f
:10261400e10f50007c003a001e007800300090006a
:102624006500400010407800e44f500010003e0068
:102634001e00780030009000650040009040780053
:1026440020b02000014878001e0090003000900067
:102654000080e80021b02000914078000148780013
:102664001e00900031c0b3004140980012003700b2
:102674001e009000300090000000e80041c9b30043
:10268400014878001e009000300090000080e800af
:1026940091c0b300014878001e0090003000900003
:1026a4006300400080c0eb00014878001e009000e9
:1026b40041c0b300414098000000000053003700bf
:1026c4001e009000300090000000e800e1c8b30054
:1026d400014878001e00780030009000640040003b
:1026e400104078000080fb00e70f50000300320028
:1026f400e80f50000f0032001c0037001e0090004d
:10270400300090000080e80081c0b30001487800e8
:102714001e00900030009000630040008040eb00f9
:10272400014878001e00900041c0b3004140980069
:10273400210037001e009000300090000080e80067
:1027440081c0b300014878001e0090003000900062
:10275400630040008040eb00014878001e009000b8
:1027640041c0b30041409800130037001e009000a0
:10277400300090000000e80041c9b300014878002f
:102784001e009000300090000080e80081c0b3007b
:10279400014878001e009000300090006300400063
:1027a40011c0b300014878001e00900041c0b3007e
:1027b4004140980000000000140037001e00900003
:1027c400300090000000e80041c9b30001487800df
:1027d4001e009000300090000080e80081c0b3002b
:1027e400014878001e009000300090006300400013
:1027f40011c0b300014878001e00900041c0b3002e
:102804004140980001003700000000001e007800dd
:102814008040eb00014898001e009000be060700af
:102824000080fa00000006000400fa00000f78009f
:102834001107980020b92000104078000081fb00a7
:102844008001eb00f0032000010020000202780068
:10285400030178008001780001007800030262001f
:10286400000061008000eb00c000dd0000002000db
:102874000001be006120b800000171008181710077
:10288400431add00cd12de00850272004312dd0022
:10289400304020000100200000007200818072009e
:1028a4001e0190000089be001e00900030009000c0
:1028b4009e007800b1009000914078000174a1005e
:1028c400014878001e009000300090000000e800ed
:1028d40041c9b300014878001e0090003000900008
:1028e4000080e80081c0b300014878001e00900019
:1028f400300090006300400011c0b300014878002c
:102904001e00900041c0b300414098001e007800b2
:102914008040eb00014898001e0090007e060700ee
:102924000080fa00000006000600fa001007980074
:102934002107980020b92000104078000081fb0096
:102944008001eb00f0032000010020000202780067
:10295400030178008001780001007800030262001e
:10296400000061008000eb00c000dd0000002000da
:102974000001be006120b800000171008181710076
:10298400431add00cd12de00850272004312dd0021
:10299400304020000100200000007200818072009d
:1029a4002e0190000089be002e009000300090009f
:1029b4009e009000b1009000914078000174a10045
:1029c400014878001e009000300090000000e800ec
:1029d40010407800ee4f5000e9003a002e009000bd
:1029e400300090000000e800e1c8b300014878001e
:1029f4001e0090003000900064004000104f7800ea
:102a04001e0090008040eb00014898001e80fb00ef
:102a1400e40f500049003200e40f500007003c006e
:102a2400e20f50001f003200e20f500030003c0063
:102a3400e10f500008003200bc003700e60f5000e0
:102a440063003200e60f50004e003500e70f5000df
:102a540087003200b50037002e009000300090004f
:102a64000080e800b15c8000814078000148780073
:102a74002e0090003000900063004000b15c8000a4
:102a8400c808de0081407800014878002e009000dc
:102a940041c0b300414098002e0090001e0607007c
:102aa400cb0037002e009000300090000080e8003a
:102ab400c15c800081407800014878002e009000bd
:102ac4003000900063004000c15c8000c808de0054
:102ad40081407800014878002e00900041c0b30086
:102ae400414098002e0090000b060700b800370004
:102af4002e009000300090000080e800d15c80003f
:102b040081407800014878002e0090003000900049
:102b140063004000d15c8000c808de00814078007a
:102b2400014878002e00900041c0b3004140980055
:102b34002e009000f8050700a50037002e00900035
:102b4400300090000080e800c1b920009140780076
:102b5400014878002e00900030009000630040008f
:102b6400d1b9200091407800014878002e009000ef
:102b740041c0b300414098002e009000e6050700d4
:102b8400930037002e009000300090000080e80091
:102b9400f15c800081407800014878002e009000ac
:102ba4003000900063004000f15c8000c808de0043
:102bb40081407800014878002e00900041c0b300a5
:102bc400414098002e009000d30507008000370094
:102bd4002e009000300090000081e800005d80002d
:102be400115d800000407800004978002e009000bc
:102bf4003000900063014000005d8000115d8000a2
:102c0400c809dd004800de0000807100c808de004d
:102c140000407800004978002e00900030009000b9
:102c240064014000005d8000115d80004008de000a
:102c340000407800004978002e0090003000900099
:102c440065014000005d8000115d80004808de00e1
:102c540000407800004978002e00900061c0b30065
:102c6400414098002e009000ab0507005800370043
:102c74002e009000300090000080e800215d80006c
:102c840081407800014878002e00900030009000c8
:102c940063004000315d8000914078000148780075
:102ca4002e0090003000900064004000315d8000f0
:102cb4008100e80091407800014878002e009000df
:102cc4003000900065004000315d80008180e800a4
:102cd40091407800014878002e0090003000900068
:102ce40066004000315d8000e38040009140780040
:102cf400014878002e0090003000900067004000ea
:102d0400315d8000e4804000914078000148780003
:102d14002e00900081c0b300414098002e00900026
:102d24007d05070000000000290037002e009000f8
:102d3400300090000000e80041c9b3000148780069
:102d44002e009000300090000080e800e1c0b30045
:102d5400014878002e00900030009000630040008d
:102d640080c0eb00014878002e00900041c0b30001
:102d7400414098002e0090006705070014003700ba
:102d84002e009000300090000000e80041c9b3001c
:102d9400014878002e009000300090000080e80088
:102da40081c0b300014878002e00900030009000ec
:102db4006300400080c0eb00014878002e009000c2
:102dc40041c0b300414098002e0090005205070016
:102dd4000080fa00000006000400fa00000f7800ea
:102de4001107980020b92000104078000081fb00f2
:102df4008001eb00f00320000100200002027800b3
:102e04000301780080017800010078000302620069
:102e1400000061008000eb00c000dd000000200025
:102e24000001be006120b8000001710081817100c1
:102e3400431add00cd12de00850272004312dd006c
:102e440030402000010020000000720081807200e8
:102e54001e0190000089be001e009000300090000a
:102e64009e007800b1009000914078000174a100a8
:102e7400014878001e009000300090000000e80037
:102e840041c9b300014878001e0090003000900052
:102e94000080e80081c0b300014878001e00900063
:102ea400300090006300400011c0b3000148780076
:102eb4001e00900041c0b300414098001e007800fd
:102ec4008040eb00014898001e00900012050700a6
:102ed4000080fa00000006000000fa0020b620007e
:102ee40031c0b3000148780030b620008040eb00c8
:102ef4000148780040b6200031c8b300014878008a
:102f0400f00f2000305b8800f00f2000405b880049
:102f1400a0b6200021c2b30001487800f00f2000c1
:102f2400605b8800f00f2000705b8800409c2000ec
:102f3400805b880020b7200011c0b30001487800ee
:102f44000000eb00a05b8800f00f2000105c8800fc
:102f54000000eb00805c88000080fa00000006009e
:102f64000000fa0020b0200031c0b300014878000e
:102f740030b0200011c0b3000148780040b02000f8
:102f840021c8b30001487800f00f200030588800b1
:102f9400f00f200040588800a0b0200011c0b300fa
:102fa40001487800f00f200060588800f00f2000de
:102fb400705888000000eb008058880020b1200081
:102fc4008040eb0001487800f00f2000a0588800f2
:102fd400f00f2000105988000000eb008059880091
:102fe4000080fa00000006000000fa0020b3200070
:102ff40031c0b3000148780030b3200001c1b300f0
:103004000148780040b3200021c8b300014878008b
:10301400f00f2000b0598800f00f2000c05988003c
:10302400a0b3200011c0b30001487800f00f2000c5
:10303400e0598800f00f2000f05988000000eb00f0
:10304400005a880020b420008040eb00014878003a
:10305400f00f2000205a8800f00f2000905a8800ba
:103064000000eb00005b88000080fa00000006000e
:103074000600fa0010079800210798001e0090002f
:103084001000be004d09dd004300de0000007100a9
:10309400c388de0000407800f1c3b300014f600034
:1030a4001e0090001000be000040780067406000e1
:1030b4001047980020b92000104078009e4f50001f
:1030c40025003a001e4090000080fb00e50f5000f0
:1030d40015003200e50f500003003c00e40f5000df
:1030e400150032001c003700e60f50000a003200c1
:1030f400e70f500015003a0020b920001040780076
:103104009e4f500013003a0001c8b3001e00900007
:103114001300070010003700ae0090001e0090005e
:10312400c00107000c003700ae0090001e009000a4
:103134002004070008003700ae0090001e00900035
:10314400bf03070000000000030037000000000078
:1031540001003700000000000080fa0000000600b3
:103164000400fa00000f78002147980020b92000dd
:10317400104078000081fb008001eb00f003200088
:103184000100200002027800030178008001780029
:103194000100780003026200000061008000eb007f
:1031a400c000dd00000020000001be006120b80066
:1031b4000001710081817100431add00cd12de002f
:1031c400850272004312dd007040200001002000df
:1031d40000007200818072001e0178000089be0028
:1031e4001e00780030009000ae4090000148780046
:1031f4001e007800300090000000e800b15c800000
:1032040081407800014878001e007800300090006a
:103214000080e800b15c8000c808de0081407800ce
:10322400014878001e0078003000900063014000df
:10323400005d8000115d8000004078000049780046
:103244001e0078003000900064014000005d8000a2
:10325400115d8000c809dd004800de0000807100b7
:10326400c808de0000407800004978001e0078009d
:103274003000900065014000005d8000115d800019
:103284004008de0000407800004978001e00780005
:103294003000900066014000005d8000115d8000f8
:1032a4004808de0000407800004978001e007800dd
:1032b40071c0b300414098001e0078001604070056
:1032c4000080fa00000006000800fa0020079800b9
:1032d400310798000000eb00000f78002e009000ea
:1032e4008040eb00014898008040eb003e009000d5
:1032f4009bff070018040700200037002e009000f1
:10330400004890000004e0001c0032002e009000f1
:103314001000be004d09dd004300de000000710016
:10332400c388de0000407800f043b20020479800d4
:103334002e0090001000be0000407800674060003e
:10334400304798003e409000e74f50000a003a0092
:1033540020b92000904078002e40900080cf50008b
:1033640006003a002e0090008040eb0001489800cf
:1033740000c0eb000c00370000000000fc03070055
:103384000004e000ddff3a001e0fe8001e00780094
:10339400e10f5000d1ff34002e0090008040eb007c
:1033a400014898000040eb000080fa00000006008d
:1033b4000600fa0010079800210798000040eb006f
:1033c400004f78000040eb0010479800f05c80004c
:1033d40061006000004078000004e0000d0032004d
:1033e4001e0090003000900065004000904078007e
:1033f40050b920001040780080cf50000500320002
:10340400c0c0b300004f780010c0b300104798004c
:10341400290037001e009000300090000080e80072
:1034240010407800e34f500006003a001e00900060
:10343400300090006300400010407800e14f5000dd
:103444000500320090c0b300004f780000c0eb00cc
:1034540010479800180037001e00900030009000bc
:1034640064004000104078000004e00005003a00c9
:1034740090c0b300004f780020c0b30010479800fc
:103484000d0037001e0090003000900064004000e2
:10349400104078008080fb0080fe2f0000806000d8
:1034a4000000e0000400320020c0b300004f7800a8
:1034b40020c0b300104798001e4078000004e000cc
:1034c4003c00320020b92000104078000081fb004d
:1034d4008001eb00f00320000100200002027800cc
:1034e4000301780080017800010078000302620083
:1034f400000061008000eb00c000dd00000020003f
:103504000001be006120b8000001710081817100da
:10351400431add00cd12de00850272004312dd0085
:103524003040200001002000000072008180720001
:103534002e0190000089be002e0090003000900003
:103544009e009000b1009000914078000174a100a9
:10355400014878002e009000300090000000e80040
:1035640041c9b300014878002e009000300090005b
:103574000080e8001e4878002e0090003000900083
:10358400630040009e409000014878002e009000a7
:1035940041c0b300414098001e0090008040eb0001
:1035a400014898002e0090005b0307000040eb00e8
:1035b4000100370000c0eb000080fa0000000600a4
:1035c4000800fa0020079800310798000040eb003b
:1035d400004f78000040eb00104798002e00900048
:1035e400300090006400400090407800214798002b
:1035f4002e4090000004e00033003a0020b920007f
:10360400104078000081fb008001eb00f0032000f3
:103614000100200002027800030178008001780094
:103624000100780003026200000061008000eb00ea
:10363400c000dd00000020000001be006120b800d1
:103644000001710081817100431add00cd12de009a
:10365400850272004312dd0030402000010020008a
:1036640000007200818072003e0190000089be005b
:103674003e00900030009000ae009000b100900039
:10368400914078000174a100014878003e00900048
:10369400300090000000e800c1ccb300014878007d
:1036a4003e00900021c0b300414098002e009000dd
:1036b4008040eb00014898003e009000160307008c
:1036c4000040eb00550037002e4090008080fb0046
:1036d40080fe2f00008060000000e0000500320042
:1036e40020c0b300004f780020c0b30010479800fa
:1036f4000a00370040b92000904078002e40900026
:1037040000c060000004e00004003a00b0c0b30050
:10371400004f780020c0b300104798001e40780086
:103724000004e0003c00320020b920001040780082
:103734000081fb008001eb00f00320000100200069
:10374400020278000301780080017800010078000b
:1037540003026200000061008000eb00c000dd0095
:10376400000020000001be006120b80000017100cb
:1037740081817100431add00cd12de0085027200e2
:103784004312dd00304020000100200000007200e0
:10379400818072003e0190000089be003e009000ce
:1037a40030009000ae009000b1009000914078008d
:1037b4000174a100014878003e00900030009000a0
:1037c4000000e80041c9b300014878003e009000c1
:1037d400300090000080e8001e4878003e00900011
:1037e40030009000630040009e4090000148780043
:1037f4003e00900041c0b300414098002e0090006c
:103804008040eb00014898003e009000c20207008f
:103814000040eb000100370000c0eb000080fa001c
:10382400000006000600fa0010079800210798001f
:103834001e009000300090000000e80090407800e6
:10384400b0c4b30080cf50004a013a00ae009000eb
:103854001e009000d6fe07000004e000f1013200d3
:103864001e009000300090006500400090407800f9
:1038740050b92000014878001e00900030009000ec
:1038840064004000104f780040b9200010407800d8
:103894009e40700040b92000014878001e80fb0063
:1038a400620060000000e00059003200acfd070037
:1038b40020b92000104078008080fb00003c2000ec
:1038c400010070003058880020b9200010407800b2
:1038d4000081fb008001eb00f003200001002000c8
:1038e400020278000301780080017800010078006a
:1038f40003026200000061008000eb00c000dd00f4
:10390400000020000001be006120b8000001710029
:10391400818171004318dd00cd10de00810070004c
:103924004310dd008000780050402000010070004a
:103934004058880020b92000104078000081fb0026
:103944008001eb00f0032000010020000202780057
:10395400030178008001780001007800030262000e
:10396400000061008000eb00c000dd0000002000ca
:103974000001be006120b800000171008181710066
:10398400431add00cd12de00850272004312dd0011
:10399400304020000100200000007200818072008d
:1039a4002e0190000089be002e009000300090008f
:1039b4009e009000b1009000914078000174a10035
:1039c400014878002e009000300090000000e800cc
:1039d400b1ccb300014878002e0090003000900074
:1039e4000080e8008040eb00014878002e00900041
:1039f40031c0b300414098001e0090008040eb00ad
:103a0400014898002e009000430207008a01370005
:103a14001e80fb0061006000004078000004e000ac
:103a24006d0032002cfd070020b920001040780002
:103a34000081fb008001eb00f00320000100200066
:103a44000202780003017800800178000100780008
:103a540003026200000061008000eb00c000dd0092
:103a6400000020000001be006120b80000017100c8
:103a7400818171004318dd00cd10de0081007000eb
:103a84004310dd0080007800304020000100700009
:103a9400305b880020b92000104078000081fb00d2
:103aa4008001eb00f00320000100200002027800f6
:103ab40003017800800178000100780003026200ad
:103ac400000061008000eb00c000dd000000200069
:103ad4000001be006120b800000171008181710005
:103ae4004318dd00cd10de00810070004310dd00be
:103af400800078004040200001007000405b880096
:103b040020b92000104078000081fb008001eb0008
:103b1400f003200001002000020278000301780075
:103b24008001780001007800030262000000610057
:103b34008000eb00c000dd00000020000001be009a
:103b44006120b8000001710081817100431add0019
:103b5400cd12de00850272004312dd0030402000e9
:103b64000100200000007200818072002e0190008c
:103b74000089be002e009000300090009e0090004e
:103b8400b1009000914078000174a10001487800d0
:103b94002e009000300090000000e800b1ccb3008b
:103ba400014878002e009000300090000080e8006a
:103bb4008040eb00014878002e00900031c0b30033
:103bc400414098001e0090008040eb00014898009e
:103bd4002e009000d00107001e80fb0070006000e2
:103be4000000e0005b003200fffc070020b9200069
:103bf400104078008080fb00f0032000808060008b
:103c04000034200001007000b059880020b9200061
:103c1400104078000081fb008001eb00f0032000dd
:103c2400010020000202780003017800800178007e
:103c34000100780003026200000061008000eb00d4
:103c4400c000dd00000020000001be006120b800bb
:103c540000017100818171004318dd00cd10de0088
:103c6400810070004310dd00800078005040200087
:103c740001007000c059880020b92000104078006d
:103c84000081fb008001eb00f00320000100200014
:103c940002027800030178008001780001007800b6
:103ca40003026200000061008000eb00c000dd0040
:103cb400000020000001be006120b8000001710076
:103cc40081817100431add00cd12de00850272008d
:103cd4004312dd003040200001002000000072008b
:103ce400818072002e0190000089be002e00900099
:103cf400300090009e009000b10090009140780048
:103d04000174a100014878002e009000300090005a
:103d14000000e800b1ccb300014878002e00900008
:103d2400300090000080e8008040eb0001487800fb
:103d34002e00900031c0b300414098001e00900056
:103d44008040eb00014898002e00900072010700ab
:103d5400b90037001e80fb00640060000000e00032
:103d6400b2003a00f05c80000000a000f05c880023
:103d7400b10037001e009000300090000000e80001
:103d840090407800c0c4b30080cf500068003a006f
:103d9400ae0090001e00900009fe07000004e00041
:103da400a40032001e009000300090006400400027
:103db400904078001147980040b920009040780066
:103dc4001e40900000c0ea0080c0700040b920008e
:103dd400014878001e4090000080fb0062006000f3
:103de4000000e000070032000000eb0030588800bb
:103df4000000eb004058880020b020008040eb0019
:103e0400014878001e4090000080fb0070006000b4
:103e14000000e000070032000000eb00b059880009
:103e24000000eb00c059880020b320008040eb0064
:103e3400014878001e4090000080fb006100600093
:103e4400004078000004e000070032000000eb00ae
:103e5400305b88000000eb00405b880020b6200047
:103e64008040eb000148780020b920001040780021
:103e74000081fb008001eb00f00320000100200022
:103e840002027800030178008001780001007800c4
:103e940003026200000061008000eb00c000dd004e
:103ea400000020000001be006120b8000001710084
:103eb40081817100431add00cd12de00850272009b
:103ec4004312dd0030402000010020000000720099
:103ed400818072002e0190000089be002e009000a7
:103ee400300090009e009000b10090009140780056
:103ef4000174a100014878002e0090003000900069
:103f04000000e800c1ccb300014878002e00900006
:103f140021c0b300414098001e0090008040eb0097
:103f2400014898002e009000fb0007004200370073
:103f340020b92000104078000081fb008001eb00d4
:103f4400f003200001002000020278000301780041
:103f54008001780001007800030262000000610023
:103f64008000eb00c000dd00000020000001be0066
:103f74006120b8000001710081817100431add00e5
:103f8400cd12de00850272004312dd0030402000b5
:103f94000100200000007200818072002e01900058
:103fa4000089be002e009000300090009e0090001a
:103fb400b1009000914078000174a100014878009c
:103fc4002e009000300090000000e80041c9b300ca
:103fd400014878002e009000300090000080e80036
:103fe40081c0b300014878002e009000300090009a
:103ff4006300400021c0b300014878002e00900007
:1040040041c0b300414098001e0090008040eb0086
:10401400014898002e009000bf0007000000000037
:104024000500370000000000030037000000000016
:1040340001003700000000000080fa0000000600c4
:104044000600fa0010079800210798001e0090004f
:10405400300090000080e800104f78001e009000af
:1040640030009000630040009040780011479800b1
:1040740040b92000104078000080fb00610060001f
:104084000000e000420032001e80fb00e20f5000fe
:1040940018003200e20f500003003c00e10f500012
:1040a4000600320041003700e30f500015003200d3
:1040b400e50f5000210032003c0037001e40900004
:1040c4000004e00004003a00ae0090001e009000de
:1040d400d5f90700350037001e409000e14f50002d
:1040e4002d003a00ae0090001e0090000efa07006a
:1040f4002e003700ae0090001e00900036fb070033
:104104002a0037001e4090000004e00004003a003a
:10411400ae0090001e0090008bf5070023003700ce
:104124001e409000e14f50001d003a00ae00900088
:104134001e0090004bf607001c0037001e40900044
:104144000004e00004003a00ae0090001e0090005d
:1041540013f80700150037001e409000e14f50008f
:1041640004003a00ae0090001e0090004cf80700d6
:104174000e0037001e409000e24f50000a003a0043
:10418400ae0090001e009000e7f80700070037001b
:1041940000000000050037000000000003003700a5
:1041a4000000000001003700000000000080fa0059
:1041b400000006000400fa00000f780011079800c0
:1041c40020b0200010407800e34f500008003a006f
:1041d4009e0090001e0078003d0a07001e00780033
:1041e4008040eb0001489800000000000100370007
:1041f400000000000080fa00000006000000fa0041
:104204000080fa00000006000800fa001007980079
:1042140021079800624798000040eb00004f7800a7
:104224001e009000900078000060200080806000f4
:1042340000402000808f5000020032000040eb005c
:104244003300370040bc2000104078000004e00038
:10425400020032000040eb002d0037006e40900059
:10426400e84f500029003e001e0090001000780026
:104274008000eb00e05d8800f15d880000bc200058
:10428400ee409000014878000040eb00004f7800b9
:1042940009003700115e80001e80fb000080400092
:1042a4009e80fb002e019000810041009140780027
:1042b400014878001e4fe8006e4090009e40780050
:1042c40080cf5000f3ff390040bc200080c0eb00d9
:1042d4000148780050c8bf008080fb00200a2000fd
:1042e400808f500004003a0061bc2000c0bb200055
:1042f4005ffb07000000000040bc20008040eb0092
:104304000148780000c0eb00010037000040eb00da
:104314000080fa00000006000200fa00000f780096
:104324001e007800404190001e007800b00190000b
:104334001e0078001000be000000780083007800a2
:10434400881607001e0078008040eb0001489800a2
:104354000080fa00000006000000fa00803e200001
:10436400591d0700791d07000080fa0000000600af
:104374000000fa0021048000000820000080600092
:104384000000e0000300320084e0a9000040eb00dc
:104394000100370000c0eb000080fa0000000600b6
:1043a4000600fa0020479800210798000040eb001f
:1043b400004f78003f0037001e80fb006a00b90000
:1043c40080007800609020000080400090407800d9
:1043d4002e40900080cf500035003a001e80fb0034
:1043e4006a00b90000007800e600400060902000f8
:1043f40000804000100178001e80fb006a00b900b4
:1044040080007800609020000080400080007800e8
:104414002e009000020001002e0090002040900029
:104424000004e00002003a0010cfb300250037007a
:104434002e0090002040900036e8b700ae009000b7
:104444002e409000701b0700418320002e409000f6
:10445400351b07001e80fb006a00b90000007800cd
:10446400e8004000609020000080400010017800c7
:104474001e80fb006a00b900800078006090200074
:1044840000804000800078002e00900002000100af
:104494002e009000204090000004e00002003a004a
:1044a40020cfb300070037000040eb0005003700c1
:1044b4001e4fe8001e407800fd4f5000beff36003e
:1044c40000c0eb000080fa00000006000600fa00bd
:1044d4002047980021079800ae40900000c4b30024
:1044e40080cf500029003e000040eb00004f7800d0
:1044f400210037001e80fb006a00b90080007800ac
:104504006090200000804000904078002e40900091
:1045140080cf500017003a001e80fb006a00b900eb
:1045240000007800e8004000609020000080400017
:10453400100178001e80fb006a00b900800078003a
:104544006090200000804000800078002e009000e1
:10455400020001002e009000204090000004e000c2
:1045640002003a0010cfb300350037000040eb00e2
:10457400330037001e4fe8001e407800fd4f500006
:10458400dcff360020cfb3002d0037000040eb00e5
:1045940010479800260037001e4090000080fb0062
:1045a4006a00b9008000780020a320000080400049
:1045b400904078002e40900080cf500019003a00bf
:1045c4001e4090000080fb006a00b90000007800e3
:1045d400e800400020a32000008040001001780083
:1045e4001e4090000080fb006a00b9008000780043
:1045f40020a3200000804000800078002e0090005e
:10460400020001002e009000204090000004e00011
:1046140002003a0030cfb300090037000040eb003d
:10462400070037001e4090000040e8001047980043
:104634001e409000f34f5000d7ff360040cfb30028
:104644000080fa00000006000200fa000040eb00bf
:10465400004f780010c0b300104798001e80fb0084
:104664006a00b9008000780060902000008040005b
:104674009e409000014878001e4090000040e800f1
:10468400104798001e80fb006a00b9008000780083
:1046940080902000008040002189200001087800db
:1046a4001e80fb006a00b90080007800a090200002
:1046b4000080400021c2b300014878001e80fb0046
:1046c4006a00b90080007800c0902000008040009b
:1046d400a1182300010878001e80fb006a00b900bd
:1046e40080007800e090200000804000411e2300fc
:1046f400010878001e4fe8001e80fb006a00b90024
:104704008000780060902000008040009e4090006f
:10471400014878001e4090000040e80010479800cf
:104724001e80fb006a00b9008000780080902000a1
:104734000080400061892000010878001e80fb0091
:104744006a00b90080007800a0902000008040003a
:1047540021c2b300014878001e80fb006a00b90042
:1047640080007800c090200000804000a118230041
:10477400010878001e80fb006a00b9008000780000
:10478400e090200000804000411e230001087800d2
:104794001e4fe8001e80fb006a00b900800078000c
:1047a40060902000008040009e4090000148780006
:1047b4001e4090000040e800104798001e80fb0057
:1047c4006a00b900800078008090200000804000da
:1047d400e18a2000010878001e80fb006a00b9000d
:1047e40080007800a09020000080400021c2b30027
:1047f400014878001e80fb006a00b9008000780040
:10480400c090200000804000a11823000108780017
:104814001e80fb006a00b90080007800e090200050
:1048240000804000411e2300010878001e4fe8006c
:104834001e80fb006a00b9008000780060902000b0
:10484400008040009e409000014878001e40900087
:104854000040e800104798001e80fb006a00b90081
:10486400800078008090200000804000618b200050
:10487400010878001e80fb006a00b90080007800ff
:10488400a09020000080400021c2b30001487800bd
:104894001e80fb006a00b90080007800c0902000f0
:1048a40000804000a1182300010878001e80fb004e
:1048b4006a00b90080007800e09020000080400089
:1048c400411e2300010878001e4fe8001e80fb00f3
:1048d4006a00b900800078006090200000804000e9
:1048e4009e409000014878001e4090000040e8007f
:1048f400104798001e80fb006a00b9008000780011
:104904008090200000804000a189200001087800e8
:104914001e80fb006a00b90080007800a09020008f
:104924000080400021c2b300014878001e80fb00d3
:104934006a00b90080007800c09020000080400028
:10494400a1182300010878001e80fb006a00b9004a
:1049540080007800e090200000804000411e230089
:10496400010878001e4fe8001e80fb006a00b900b1
:104974008000780060902000008040009e409000fd
:10498400014878001e4090000040e800104798005d
:104994001e80fb006a00b90080007800809020002f
:1049a40000804000e1892000010878001e80fb009f
:1049b4006a00b90080007800a090200000804000c8
:1049c40021c2b300014878001e80fb006a00b900d0
:1049d40080007800c090200000804000a1182300cf
:1049e400010878001e80fb006a00b900800078008e
:1049f400e090200000804000411e23000108780060
:104a04001e4fe8001e80fb006a00b9008000780099
:104a140060902000008040009e4090000148780093
:104a24001e4090000040e800104798001e80fb00e4
:104a34006a00b90080007800809020000080400067
:104a4400e18b2000010878001e80fb006a00b90099
:104a540080007800a09020000080400021c2b300b4
:104a6400014878001e80fb006a00b90080007800cd
:104a7400c090200000804000a118230001087800a5
:104a84001e80fb006a00b90080007800e0902000de
:104a940000804000411e2300010878001e4fe800fa
:104aa4001e80fb006a00b90080007800609020003e
:104ab400008040009e409000014878001e40900015
:104ac4000040e800104798001e80fb006a00b9000f
:104ad400800078008090200000804000618c2000dd
:104ae400010878001e80fb006a00b900800078008d
:104af400a09020000080400021c2b300014878004b
:104b04001e80fb006a00b90080007800c09020007d
:104b140000804000a1182300010878001e80fb00db
:104b24006a00b90080007800e09020000080400016
:104b3400411e2300010878001e4fe8001e80fb0080
:104b44006a00b90080007800609020000080400076
:104b54009e409000014878001e4090000040e8000c
:104b6400104798001e80fb006a00b900800078009e
:104b74008090200000804000218a200001087800f5
:104b84001e80fb006a00b90080007800a09020001d
:104b94000080400021c2b300014878001e80fb0061
:104ba4006a00b90080007800c090200000804000b6
:104bb400a1182300010878001e80fb006a00b900d8
:104bc40080007800e090200000804000411e230017
:104bd400010878001e4fe8001e80fb006a00b9003f
:104be4008000780060902000008040009e4090008b
:104bf400014878001e4090000040e80010479800eb
:104c04001e80fb006a00b9008000780080902000bc
:104c140000804000618a2000010878001e80fb00ab
:104c24006a00b90080007800a09020000080400055
:104c340021c2b300014878001e80fb006a00b9005d
:104c440080007800c090200000804000a11823005c
:104c5400010878001e80fb006a00b900800078001b
:104c6400e090200000804000411e230001087800ed
:104c74001e4fe8001e80fb006a00b9008000780027
:104c840060902000008040009e4090000148780021
:104c94001e4090000040e800104798001e80fb0072
:104ca4006a00b900800078008090200000804000f5
:104cb400e18c2000010878001e80fb006a00b90026
:104cc40080007800a09020000080400021c2b30042
:104cd400014878001e80fb006a00b900800078005b
:104ce400c090200000804000a11823000108780033
:104cf4001e80fb006a00b90080007800e09020006c
:104d040000804000411e2300010878001e4fe80087
:104d14001e80fb006a00b9008000780060902000cb
:104d2400008040009e409000014878001e409000a2
:104d34000040e800104798001e80fb006a00b9009c
:104d4400800078008090200000804000618d200069
:104d5400010878001e80fb006a00b900800078001a
:104d6400a09020000080400021c2b30001487800d8
:104d74001e80fb006a00b90080007800c09020000b
:104d840000804000a1182300010878001e80fb0069
:104d94006a00b90080007800e090200000804000a4
:104da400411e2300010878001e4fe8001e80fb000e
:104db4006a00b90080007800609020000080400004
:104dc4009e409000014878001e4090000040e8009a
:104dd400104798001e80fb006a00b900800078002c
:104de4008090200000804000a18d20000108780000
:104df4001e80fb006a00b90080007800a0902000ab
:104e04000080400021c2b300014878001e80fb00ee
:104e14006a00b90080007800c09020000080400043
:104e2400a1182300010878001e80fb006a00b90065
:104e340080007800e090200000804000411e2300a4
:104e4400010878001e4fe8001e80fb006a00b900cc
:104e54008000780060902000008040009e40900018
:104e6400014878001e4090000040e8001047980078
:104e74001e80fb006a00b90080007800809020004a
:104e840000804000e18d2000010878001e80fb00b6
:104e94006a00b90080007800a090200000804000e3
:104ea40021c2b300014878001e80fb006a00b900eb
:104eb40080007800c090200000804000a1182300ea
:104ec400010878001e80fb006a00b90080007800a9
:104ed400e090200000804000411e2300010878007b
:104ee4001e4fe8001e80fb006a00b90080007800b5
:104ef40060902000008040009e40900001487800af
:104f04001e4090000040e800104798001e80fb00ff
:104f14006a00b90080007800809020000080400082
:104f240061882000010878001e80fb006a00b90037
:104f340080007800a09020000080400021c2b300cf
:104f4400014878001e80fb006a00b90080007800e8
:104f5400c090200000804000a118230001087800c0
:104f64001e80fb006a00b90080007800e0902000f9
:104f740000804000411e2300010878001e4fe80015
:104f84001e80fb006a00b900800078006090200059
:104f9400008040009e409000014878001e40900030
:104fa4000040e800104798001e80fb006a00b9002a
:104fb400800078008090200000804000a1882000bc
:104fc400010878001e80fb006a00b90080007800a8
:104fd400a09020000080400021c2b3000148780066
:104fe4001e80fb006a00b90080007800c090200099
:104ff40000804000a1182300010878001e80fb00f7
:105004006a00b90080007800e09020000080400031
:10501400411e2300010878001e4fe8001e80fb009b
:105024006a00b90080007800609020000080400091
:105034009e409000014878001e4090000040e80027
:10504400104798001e80fb006a00b90080007800b9
:105054008090200000804000e18820000108780052
:105064001e80fb006a00b90080007800a090200038
:105074000080400021c2b300014878001e80fb007c
:105084006a00b90080007800c090200000804000d1
:10509400a1182300010878001e80fb006a00b900f3
:1050a40080007800e090200000804000411e230032
:1050b400010878001e4fe8001e80fb006a00b9005a
:1050c4008000780060902000008040009e409000a6
:1050d400014878001e4090000040e8001047980006
:1050e4001e80fb006a00b9008000780080902000d8
:1050f4000080400001832000010878001e80fb002e
:105104006a00b90080007800a09020000080400070
:1051140001c2b300014878001e80fb006a00b90098
:1051240080007800c090200000804000012323000c
:10513400010878001e80fb006a00b9008000780036
:10514400e09020000080400001272300010878003f
:105154001e4fe8001e80fb006a00b9008000780042
:1051640060902000008040009e409000014878003c
:105174001e4090000040e800104798001e80fb008d
:105184006a00b90080007800809020000080400010
:10519400e1822000010878001e80fb006a00b9004b
:1051a40080007800a09020000080400001c2b3007d
:1051b400014878001e80fb006a00b9008000780076
:1051c400c0902000008040000123230001087800e3
:1051d4001e80fb006a00b90080007800e090200087
:1051e4000080400001272300010878001e4fe800da
:1051f4001e80fb006a00b9008000780060902000e7
:10520400008040009e409000014878001e409000bd
:105214000040e800104798001e80fb006a00b900b7
:10522400800078008090200000804000c18620002b
:10523400010878001e80fb006a00b9008000780035
:10524400a09020000080400001c1b3000148780014
:105254001e80fb006a00b90080007800c090200026
:1052640000804000e12a2300010878001e80fb0032
:105274006a00b90080007800e090200000804000bf
:10528400a12d2300010878001e4fe8001e80fb00ba
:105294006a00b9008000780060902000008040001f
:1052a4009e409000014878001e4090000040e800b5
:1052b400104798001e80fb006a00b9008000780047
:1052c4008090200000804000f186200001087800d2
:1052d4001e80fb006a00b90080007800a0902000c6
:1052e4000080400001c1b300014878001e80fb002b
:1052f4006a00b90080007800c0902000008040005f
:10530400e12a2300010878001e80fb006a00b9002e
:1053140080007800e090200000804000a12d230050
:10532400010878001e4fe8001e80fb006a00b900e7
:105334008000780060902000008040009e40900033
:10534400014878001e4090000040e8001047980093
:105354001e80fb006a00b900800078008090200065
:1053640000804000d1862000010878001e80fb00e8
:105374006a00b90080007800a090200000804000fe
:1053840001c1b300014878001e80fb006a00b90027
:1053940080007800c090200000804000e12a2300b3
:1053a400010878001e80fb006a00b90080007800c4
:1053b400e090200000804000a12d23000108780027
:1053c4001e4fe8001e80fb006a00b90080007800d0
:1053d40060902000008040009e40900001487800ca
:1053e4001e4090000040e800104798001e80fb001b
:1053f4006a00b9008000780080902000008040009e
:1054040001872000010878001e80fb006a00b900b3
:1054140080007800a09020000080400001c1b3000b
:10542400014878001e80fb006a00b9008000780003
:10543400c090200000804000e12a23000108780089
:105444001e80fb006a00b90080007800e090200014
:1054540000804000a12d2300010878001e4fe800c1
:105464001e80fb006a00b900800078006090200074
:10547400008040009e409000014878001e4090004b
:105484000040e800104798001e80fb006a00b90045
:10549400800078008090200000804000e186200099
:1054a400010878001e80fb006a00b90080007800c3
:1054b400a09020000080400001c1b30001487800a2
:1054c4001e80fb006a00b90080007800c0902000b4
:1054d40000804000e12a2300010878001e80fb00c0
:1054e4006a00b90080007800e0902000008040004d
:1054f400a12d2300010878001e4fe8001e80fb0048
:105504006a00b900800078006090200000804000ac
:105514009e409000014878001e4090000040e80042
:10552400104798001e80fb006a00b90080007800d4
:10553400809020000080400011872000010878003e
:105544001e80fb006a00b90080007800a090200053
:105554000080400001c1b300014878001e80fb00b8
:105564006a00b90080007800c090200000804000ec
:10557400e12a2300010878001e80fb006a00b900bc
:1055840080007800e090200000804000a12d2300de
:10559400010878001e4fe8001e80fb006a00b90075
:1055a4008000780060902000008040009e409000c1
:1055b400014878001e4090000040e8001047980021
:1055c4001e80fb006a00b9008000780080902000f3
:1055d40000804000418f2000010878001e80fb00fd
:1055e4006a00b90080007800a0902000008040008c
:1055f40001c1b300014878001e80fb006a00b900b5
:1056040080007800c090200000804000e12a230040
:10561400010878001e80fb006a00b9008000780051
:10562400e090200000804000a12d230001087800b4
:105634001e4fe8001e407800fe4f50000100360067
:10564400ffff37000080fa00000006000200fa00a5
:105654000040eb00004f780010c4b30010479800de
:105664001e80fb006a00b9008000780020a320009f
:10567400008040009e409000014878001e40900049
:105684000040e800104798001e80fb006a00b90043
:105694008000780040a32000008040002187200083
:1056a400010878001e80fb006a00b90080007800c1
:1056b40060a320000080400021c2b30001487800ac
:1056c4001e80fb006a00b9008000780080a32000df
:1056d400008040008000eb00010878001e80fb0081
:1056e4006a00b90080007800a0a320000080400078
:1056f400411e2300010878001e4fe8001e80fb00b5
:105704006a00b9008000780020a3200000804000d7
:105714009e409000014878001e4090000040e80040
:10572400104798001e80fb006a00b90080007800d2
:1057340040a3200000804000618720000108780019
:105744001e80fb006a00b9008000780060a320007e
