:020000040000fa
:080000000001040000000000f3
:020000040000fa
:04000800f4010000ff
:020000040000fa
:04000c00d40100001b
:020000040000fa
:04001000d801000013
:020000040000fa
:04001400dc0100000b
:020000040000fa
:04001800e001000003
:020000040000fa
:04001c00f4010000eb
:020000040000fa
:04002000f4010000e7
:020000040000fa
:04002400f4010000e3
:020000040000fa
:04002800f4010000df
:020000040000fa
:04002c00f4010000db
:020000040000fa
:04003000f4010000d7
:020000040000fa
:04003400f4010000d3
:020000040000fa
:04003800f4010000cf
:020000040000fa
:04003c00f4010000cb
:020000040000fa
:040040000444000074
:020000040000fa
:040044007013000035
:020000040000fa
:04004800f4010000bf
:020000040000fa
:04004c0098460000d2
:020000040000fa
:040050009e460000c8
:020000040000fa
:04005400f4010000b3
:020000040000fa
:04005800f4010000af
:020000040000fa
:04005c00f4010000ab
:020000040000fa
:04006000f4010000a7
:020000040000fa
:04006400f4010000a3
:020000040000fa
:04006800f40100009f
:020000040000fa
:04006c00f40100009b
:020000040000fa
:04007000f401000097
:020000040000fa
:04007400f401000093
:020000040000fa
:04007800f40100008f
:020000040000fa
:04007c00f40100008b
:020000040000fa
:04008000f401000087
:020000040000fa
:040084001011000057
:020000040000fa
:04008800f40100007f
:020000040000fa
:04008c00f40100007b
:020000040000fa
:04009000f401000077
:020000040000fa
:04009400f401000073
:020000040000fa
:04009800f40100006f
:020000040000fa
:04009c00f40100006b
:020000040000fa
:0400a000f401000067
:020000040000fa
:0400a400f401000063
:020000040000fa
:0400a800f40100005f
:020000040000fa
:0400ac00f40100005b
:020000040000fa
:0400b000f401000057
:020000040000fa
:0400b400f401000053
:020000040000fa
:0400b8009a11000099
:020000040000fa
:0400bc00f40100004b
:020000040000fa
:0400c00062370000a3
:020000040000fa
:0400c400f401000043
:020000040000fa
:0400c800f40100003f
:020000040000fa
:0400cc00f40100003b
:020000040000fa
:0400d000f401000037
:020000040000fa
:0400d400f401000033
:020000040000fa
:0400d800f40100002f
:020000040000fa
:04010800f4010000fe
:020000040000fa
:04010c00e40100000a
:020000040000fa
:04011000e801000002
:020000040000fa
:04011400ec010000fa
:020000040000fa
:04011800f0010000f2
:020000040000fa
:04011c00f4010000ea
:020000040000fa
:04012000f4010000e6
:020000040000fa
:04012400f4010000e2
:020000040000fa
:04012800f4010000de
:020000040000fa
:04012c00f4010000da
:020000040000fa
:04013000f4010000d6
:020000040000fa
:04013400f4010000d2
:020000040000fa
:04013800f4010000ce
:020000040000fa
:04013c00f4010000ca
:020000040000fa
:04014000f4010000c6
:020000040000fa
:04014400f4010000c2
:020000040000fa
:04014800f4010000be
:020000040000fa
:04014c00f4010000ba
:020000040000fa
:04015000f4010000b6
:020000040000fa
:04015400f4010000b2
:020000040000fa
:04015800f4010000ae
:020000040000fa
:04015c00f4010000aa
:020000040000fa
:04016000f4010000a6
:020000040000fa
:04016400f4010000a2
:020000040000fa
:04016800f40100009e
:020000040000fa
:04016c00f40100009a
:020000040000fa
:04017000f401000096
:020000040000fa
:04017400f401000092
:020000040000fa
:04017800f40100008e
:020000040000fa
:04017c00f40100008a
:020000040000fa
:04018000f401000086
:020000040000fa
:04018400f401000082
:020000040000fa
:04018800f40100007e
:020000040000fa
:04018c00f40100007a
:020000040000fa
:04019000f401000076
:020000040000fa
:04019400f401000072
:020000040000fa
:04019800f40100006e
:020000040000fa
:04019c00f40100006a
:020000040000fa
:0401a000f401000066
:020000040000fa
:0401a400f401000062
:020000040000fa
:0401a800f40100005e
:020000040000fa
:0401ac00f40100005a
:020000040000fa
:0401b000f401000056
:020000040000fa
:0401b400f401000052
:020000040000fa
:0401b800f40100004e
:020000040000fa
:0401bc00f40100004a
:020000040000fa
:0401c000f401000046
:020000040000fa
:0401c400f401000042
:020000040000fa
:0401c800f40100003e
:020000040000fa
:0401cc00f40100003a
:020000040000fa
:0401d000f401000036
:020000040000fa
:0401d400f401000032
:020000040000fa
:0401d800f40100002e
:020000040000fa
:100200002fde20000e7f22000e018800000000007b
:10021000000020000000e000020032000001200089
:10022000200288000c000700004f2400010020007d
:1002300011000700000020000000e0000200320072
:1002400000000200000000000e4702000000000055
:100250000040da000000fe004440a900a023200076
:100260000000e0000300320000002000a001880030
:100270004440a8000000060091018800800078003a
:100280000000eb0015003700e280400032a0b4000f
:100290009101ba00e280400032a0b4009102ba009d
:1002a000e280400032a0b4000002eb00472bde00e9
:1002b000f507b200602ce10004003a000059eb00a1
:1002c0008301e900fdff3e00040037006128e100e2
:1002d000010032000082eb000b00070011c3ba00de
:1002e0001101ba000604e00003003a000200e00039
:1002f000e5ff3a0000000600f607b200960188000c
:1003000082007800f5ff37003159ba008301e90017
:100310000c0032002159ba008301e90008003200c4
:100320000400e00003003a00e280400032a0b40084
:10033000f5ff370011d9ba008301e900faff3a004e
:100340008100e800e180400032a0b4000000060017
:10035000ac1c0400000000007a1c04000000000037
:10036000261c040000000000021c04000000000025
:10037000e61b040000000000ca1b0400000000008f
:100380004a1c0400000000001413040000000000d8
:100390005c12040000000000b8120400000000001d
:1003a00000120400000000008020a900ffff3700b9
:1003b0008060a900ffff37008040a900ffff3700e1
:1003c0008080a900ffff37008020a900ffff3700d1
:1003d0008060a900ffff37008040a900ffff3700c1
:1003e0008080a900ffff37000040da000000fe0017
:1003f0003200f800910188000008bb00410424008d
:100400006210e10004003200000220000010e10050
:100410000a003a0051042400013b88000500fc005a
:1004200051052000313b8800a10a2000313b8800a3
:1004300061e7a80000000000000000003200f900a1
:10044000000006003200f80060042400003b880031
:10045000f2ff37003200f8009101880041002400cb
:10046000013b88000208bb00ecff37003200f800b7
:100470009101880051002400013b88000301200005
:100480003218bb008301e900fdff3a00e3ff3700ab
:100490003200f8009101880080027800620040007c
:1004a000e08048003549ba003204e0000410a7009b
:1004b000100032008301e9000e0032002549ba0025
:1004c0003204e0000410a7000a0032008301e900b2
:1004d000080032000408a300eeff320015c9ba007c
:1004e0003204e0000410a700020032008301e9009a
:1004f000e8ff3a003200f9000000060003f0a20015
:10050000889fbe008a9fbe008c1f7800f7000700fe
:10051000fe0033006450e1004f0032006420e1002f
:100520005200320003826c0007003b000905d00036
:100530000306d000820f54000c065d000200390053
:100540000200320089017800030678008582550098
:1005500004003d000003fd008103fd008502ea0068
:100560008b854200840f720002003b006000100087
:10057000e08018006011b8000005eb007a28e10067
:100580000a00390006007800c75ddd00f707b200f9
:10059000878075002d003700828171000a01780084
:1005a000610560008180d1000080d3008502e900f0
:1005b000f9ff3b00060440008784480002003b002e
:1005c00060041400e0841c000988a30007003200c6
:1005d0008a81710082817100610164008904d10007
:1005e0000884d3008b05e800170037000978a300c2
:1005f00013003a000b00e000130034008b05e90003
:100600000804440089844c000a4474000978a3005b
:100610000d003a000b00e000070034008b05e900f4
:100620000804440089844c0001003a000b002000bb
:100630000978a300f7ff32000001eb000200370049
:10064000828171000a0178006d0007000cf0a7009c
:1006500001f0a000b60037006420e10002003a007b
:10066000838f6c00b60033000801be000200be009c
:10067000af003700889fbe008a9fbe008c1f7800a5
:100680009a000700a100330003866c006450e1006b
:100690002e0032006420e100330032006150e1009e
:1006a0002f0032006120e1003100320085855500c5
:1006b000eb07b00009002000080420000500370007
:1006c0000804440089844c000a00310006034300fa
:1006d00087834b000001530081815b00f8ff3300ea
:1006e0000203be000800a0000804440089844c00f6
:1006f000f6ff3900c639dd008301730001003200c6
:10070000130020008904d1000884d3000998a300b5
:10071000050032000800a7000300a0008904d100f2
:100720000884d3008b05e8008904d1000884d30035
:100730000001eb000281d2003100070001f0a100ae
:100740000cf0a70001f0a000790037006420e10060
:100750007b0032000801be000200be00f7ff370038
:100760006120e100760032006000b800f3ff37003e
:100770000000200001f82700f0ff370014002000df
:10078000a6003700f4ff2f00a40037000001be00d0
:10079000410007000470a70003f0a10003f8a300c4
:1007a00013003a006509b10010003200090035005d
:1007b0006928e10002003500010028000000050062
:1007c00000004000818048008502e900fcff3a00fb
:1007d00000000600f88f4200050035008100d100be
:1007e0000080d3008502e800fcff3a00000006000c
:1007f0008000eb00000005006011b800a200370087
:1008000081002000618055000b003d000b0020009e
:1008100061fe2f000100e1001d00340082817100a3
:10082000610164008904d1000884d3000000e8005d
:10083000faff3a00710020006100640003007000bc
:10084000020060000900320061044400e0844c00b2
:100850000988a500050032008b05e8006808e10062
:1008600002003a008904d1000884d300f20f20006e
:100870000258e10005003d00c75ddd00f907b20048
:100880008980750008007800000006000bf827003a
:100890008b00780000000500c70ade00f107b200f7
:1008a000f50fb20008003200e1cf42000200320032
:1008b0000170a00024000500810f700001003200cb
:1008c0000408050044000500810f700002003a0092
:1008d000140005008502e9000000400081c04800c6
:1008e000fcff3b000170a000240005000004be00d6
:1008f000e9ff07000003be000405be000200be00c1
:10090000e5ff0700844f7500000006000200be00ee
:100910006450e100050036006420e100020036006a
:100920000968a30001003a000800be000160a000b1
:100930004f0678004f05be004f04be0000000600c1
:10094000f0ff2f00f1ff2700f9ff3700889fbe005e
:100950008a9fbe008c1f7800e4ff0700ebff330086
:1009600003866c006450e100240032006420e10042
:10097000270032006150e100220032006120e100d6
:10098000210032008b854200eb07b1000134b80032
:10099000003ab8000804420089844a00013ab800cd
:1009a0000030b8008880400009014a00040033008c
:1009b0000000400081804800020149008b05e900e9
:1009c000c909dd008301700001003200130020001e
:1009d000c814de004814dd004709de001200b20032
:1009e000c808de000884700085ff070001f0a10040
:1009f0000cf0a70001f0a000cdff37006120e1005e
:100a0000cfff32000801be000200be00f7ff370032
:100a10006150e100fcff3a00c9ff3700889fbe002b
:100a20008a9fbe00841f7800b0ff07004f00780047
:100a300011003300f0ff2f00838f6c0006003b0095
:100a4000040565000a00a7000800370009f0a600a9
:100a50001000200008003700820f5400838f5c00d4
:100a6000030039001000200001003e0000002000bb
:100a700009f0a7000000ea004f05be004f04be00c9
:100a80000000e00000000600889fbe008a9fbe00b4
:100a9000008270000402710004827100260032009e
:100aa0000004be000200be006011b8006b09200007
:100ab000950220000182cf000a0039000541b100f3
:100ac0000082cf00070039000541b1000982cf0044
:100ad000040039000541b1000882cf00010039004f
:100ae0000541b10005425200120032000a003b00ed
:100af00082817100610164008100d1000080d30017
:100b00008984d3000884d3008b05e8000442e80000
:100b1000f7ff3a00070037000804440089844c00be
:100b200000004800818048008b05e9000442e9008c
:100b3000f9ff3a0032ff07004f05be004f04be0028
:100b4000000006008001780002003700b1597800eb
:100b50000201e9000200e000fcff3a00000006008c
:020000040000fa
:100b600000c100008140000001c000008041000081
:100b700001c000008041000000c100008140000071
:100b800001c000008041000000c100008140000061
:100b900000c100008140000001c000008041000051
:100ba00001c000008041000000c100008140000041
:100bb00000c100008140000001c000008041000031
:100bc00000c100008140000001c000008041000021
:100bd00001c000008041000000c100008140000011
:100be00001c000008041000000c100008140000001
:100bf00000c100008140000001c0000080410000f1
:100c000000c100008140000001c0000080410000e0
:100c100001c000008041000000c1000081400000d0
:100c200000c100008140000001c0000080410000c0
:100c300001c000008041000000c1000081400000b0
:100c400001c000008041000000c1000081400000a0
:100c500000c100008140000001c000008041000090
:100c600001c000008041000000c100008140000080
:100c700000c100008140000001c000008041000070
:100c800000c100008140000001c000008041000060
:100c900001c000008041000000c100008140000050
:100ca00000c100008140000001c000008041000040
:100cb00001c000008041000000c100008140000030
:100cc00001c000008041000000c100008140000020
:100cd00000c100008140000001c000008041000010
:100ce00000c100008140000001c000008041000000
:100cf00001c000008041000000c1000081400000f0
:100d000001c000008041000000c1000081400000df
:100d100000c100008140000001c0000080410000cf
:100d200001c000008041000000c1000081400000bf
:100d300000c100008140000001c0000080410000af
:100d400000c100008140000001c00000804100009f
:100d500001c000008041000000c10000814000008f
:100d600000c00000c1010000c303000002c2000077
:100d7000c606000007c7000005c50000c404000047
:100d8000cc0c00000dcd00000fcf0000ce0e0000f7
:100d90000aca0000cb0b0000c909000008c8000007
:100da000d818000019d900001bdb0000da1a000077
:100db0001ede0000df1f0000dd1d00001cdc000047
:100dc00014d40000d5150000d717000016d6000077
:100dd000d212000013d3000011d10000d010000087
:100de000f030000031f1000033f30000f232000077
:100df00036f60000f7370000f535000034f4000047
:100e00003cfc0000fd3d0000ff3f00003efe0000f6
:100e1000fa3a00003bfb000039f90000f838000006
:100e200028e80000e9290000eb2b00002aea000076
:100e3000ee2e00002fef00002ded0000ec2c000046
:100e4000e424000025e5000027e70000e626000076
:100e500022e20000e3230000e121000020e0000086
:100e6000a060000061a1000063a30000a262000076
:100e700066a60000a7670000a565000064a4000046
:100e80006cac0000ad6d0000af6f00006eae0000f6
:100e9000aa6a00006bab000069a90000a868000006
:100ea00078b80000b9790000bb7b00007aba000076
:100eb000be7e00007fbf00007dbd0000bc7c000046
:100ec000b474000075b5000077b70000b676000076
:100ed00072b20000b3730000b171000070b0000086
:100ee0005090000091510000935300005292000076
:100ef0009656000057970000559500009454000046
:100f00009c5c00005d9d00005f9f00009e5e0000f5
:100f10005a9a00009b5b0000995900005898000005
:100f200088480000498900004b8b00008a4a000075
:100f30004e8e00008f4f00008d4d00004c8c000045
:100f40004484000085450000874700004686000075
:100f50008242000043830000418100008040000085
:100f6000000100000004000000100000ffef00007e
:100f7000fff70000fffb0000000800000020000059
:100f800000800000fffd00007fff0000bfff0000a9
:100f9000010000000200000008000000fbff00004c
:100fa000fdff0000feff0000040000001000000034
:100fb00040000000dfff0000efff0000f7ff00002f
:100fc000596f00006e6700004369000000000000d8
:040fd0000400000019
:020000040000fa
:100fd400889fbe000004be000060fe00c840900070
:100fe40000c0eb00e4cf50003a003a00b800900093
:100ff4009141900020c1b300e2be200092cf510085
:1010040034003a00a141900030c1b30063014100b3
:1010140092cf51002f003a00b140900050c5b30068
:1010240080cf500016003a00418e2000804878009e
:10103400b900900052c9b30082487800b90090000a
:10104400e2be20001241780092409800b90090005e
:1010540012bf200012417800a2409800b90090000d
:10106400b0409800390090008040eb004140980067
:1010740050c0b300c0449800014078001500370008
:1010840000c0eb00a2cab30082cf500011003a00a6
:1010940082407800408e200001487800390090009a
:1010a400f5c0500001487800390090000000e800c5
:1010b400484190000281fb000201e900b800900061
:1010c4008100e8009efe070048449000c844980050
:1010d4000040eb004f04be00000006000040eb009f
:1010e40091cf2000804878008100e9008048780092
:1010f4008180e80080487800f380500080487800c0
:101104008100e800804878008000eb005167880087
:1011140062ce20000149780067014100004978004f
:101124000201e80000497800816788000281e90033
:101134000049780067014100004978000201e80095
:1011440000497800b16788000281e900004978000d
:10115400f2d02000004978000201e900004978003b
:101164000281e800004978007301510000497800c9
:101174000201e80000497800016888000281e90062
:101184000049780067014100004978000201e80045
:1011940000497800316888000281e900004978003c
:1011a40067014100004978000201e8000049780025
:1011b400616888008280e90080487800c0d12000fe
:1011c400c068880000000600881f78002a28ef0005
:1011d40090c0a9005824ef009823ef006011b800d4
:1011e4000520200006242400f70020000600370014
:1011f4000060fe0061014100e0814900860f51005a
:10120400878f59003e003200a816800008826200d1
:10121400f7ff3200524180008042eb000543780022
:10122400870220000004eb00010037000801780069
:101234000504a2000582fb000a0037000201e80051
:10124400e10f410007003a005241880090c0a80015
:10125400f00b2000c02288009823ef00e2c0b30006
:1012640028003700a3168000c919de00e18161005f
:10127400848f5100f1ff320043fc2f008281410032
:10128400878f510002003600524188000400370065
:101294000643e800e44f5300e4ff3a002a28ef0035
:1012a400d522ab001a003200e44f530018003a0074
:1012b40090c0a800f20b2000c22288009823ef00ff
:1012c400c04190000041eb00e1cf51000d00360019
:1012d40012c0b3000060fe008281fb003102900066
:1012e400b002900065f279000241e800c04190002c
:1012f40082cf5100f7ff3e000041eb0001003700b0
:10130400e2c0b300024078004f04780000000600f9
:1013140090c0a800f00b2000c02288009823ef00a2
:10132400e2c0b300f7ff3700e6874700889fbe009e
:101334008a9fbe008e1f78000004be006e80570096
:10134400000009000018eb000058eb000800be0084
:101354009dff070080407800e0c0b3000104e00076
:10136400b3003a00f0c0b300f1ccb300c28d20004a
:1013740092cf1000ae00320050c0b30051cab30087
:101384000201e90092cf1000a9003200c840900089
:101394000108a300030032000060fe0020c0b30077
:1013a400a300370020c0b300e1cf5000a0003600f6
:1013b400380090009045780010459000a0c0b3001c
:1013c400c246800011102000810f510098003a009d
:1013d400a18d200012c0b300914f110094003a0077
:1013e40030c0b300331807008040780090c0b300c9
:1013f4000104e0008e003a00484290000482fb00a1
:101404000482e90022002000110009000202d80031
:101414000042e80030c0b300e24f520084003e00b6
:101424000404e000250032008a82fb00804065004d
:10143400a1f79f007e0032006e8757008040eb00ca
:101444000600370082a9de00e3c16100036f780063
:101454000281e8000304e000740032008140e800e7
:10146400814f5200f7ff3e00e24f520006003a005f
:1014740030c0b300bff09700aff1970081cf5100a7
:1014840070003a006a003700e34f52000b003a0044
:101494002ff19700bff1970030c0b300834f510084
:1014a40063003200cff0970081cf5100600032001a
:1014b400814f510063003a005d00370090cf200057
:1014c400044878000000e9000a4878000080e80039
:1014d4000048eb007300500000c8eb000000e80077
:1014e400aff09700014878000080e8000008eb00a6
:1014f400e14f5200110036005f00370007487800c2
:10150400de41780013409800b8019000e3c27800ef
:10151400c82add008181410073fb97000683fb002c
:10152400e3014000850973000241e80066004000c1
:101534008180e800824f5200f0ff3e0004407800b2
:1015440063ce20008040eb0062c0b3000440bc00c6
:1015540002814100114198000040e800e34f50002f
:10156400f9ff3a00f0cc20000b4878006066800058
:101574000000e00028003a000060fe007042800095
:101584008000eb00e06a8800f16a8800206980002e
:1015940031698000c06a8800d16a88000060fe005a
:1015a4005055250060668800e0cc200000c8eb00a0
:1015b4008b0407007818070090c0a9005824ef0096
:1015c4009823ef00860407000060fe0000e2240078
:1015d40001002000551e07000060fe0000e2240008
:1015e40001002000511e070009007800de100700ea
:1015f4000040eb0051cab300028e200092cf1000cd
:101604000b003a00c01b0700661807006e1807009d
:101614000040eb000600370071180700c0cc200022
:101624000008eb0080c0b3000100370030c0b300f5
:101634004f0778004f05be004f04be006f00b10095
:101644000000060090cf2000044878000000e90064
:101654000a4878000080e8000048eb00730050005e
:1016640000c8eb000000e800aff0970001487800e4
:101674000080e8000008eb00d0ce20006e87570001
:101684003100200012c0b30080c3eb009bff370081
:101694001200fa0072815700030009000019eb00e0
:1016a40072815700e2bf9f0000c1eb00e2ff9f0080
:1016b4000060fe00e2be20001281fb00023cb30089
:1016c400cf91de00b2bf9f00c3bf9f0042c1b300f1
:1016d400e2ef9f006fb99700104198006fb8970030
:1016e40021409800a1cab3006fb897003140980018
:1016f40040c0b300a0ff9f000060fe006a80570056
:10170400991007000080fa0000000600889fbe00c0
:101714008a9fbe0080047800810578000245780025
:10172400f8c0b300f0ccb300c18d2000914f10007d
:101734004700320058c0b30050cab3008100e9002a
:10174400914f100042003200390090001040900088
:101754008040e90038c0b300e2cf50003c003e00b6
:1017640054170700004478000804e00038003a00e9
:10177400e24f55000400320051a52a00e44f550001
:101784002e003a0001003700a1aa2a0060668000fa
:10179400810f500004003a00e0cc200080c0eb0030
:1017a40090cf1000060032000060fe0071c0b3004c
:1017b4000a407800b6ff0700c0cc20000008eb0008
:1017c400c9419000e1cf51000e003600390190006c
:1017d40050cc200052427800904f520019003a0039
:1017e4008000780010c0b300030037005242780034
:1017f400d14f520015003a000040e800834f5000da
:10180400faff3900f6030700e0cc20000048eb00a3
:101814000060fe000b00780053100700e24f5500f3
:1018240002003a005804070009003700e44f55004d
:1018340007003a00a00407000500370018c0b300f1
:1018440003003700c8c0b30001003700c8c0b300ac
:10185400084078004f05be004f04be00000006009b
:101864001200fa0072805700030009000018eb0010
:1018740072815700e2bf9f0000c0eb00e0ff9f00b1
:101884000060fe00e0be20001080fb00f003b20008
:101894000034b300cf80de00b0bf9f00c1bf9f0003
:1018a400a0c9b300e0ef9f0030ce20001004e00098
:1018b40004003a000000e8001004e00006003a00ca
:1018c4002000370000ce20000048eb0064004000f8
:1018d4001004e0000200320010ce20000048eb00ab
:1018e40001ce2000668050009141780010c3710041
:1018f40067004000630150009041780012c27100fb
:10190400630151009282fb00c22add0064014100a0
:101914009281fb00c219dd000281e9009283fb0081
:10192400c23bdd0007497800854873000348720014
:101934000040eb00e3804000804878008100e8002c
:101944008048780001ce20006fb89700914078005d
:1019540011409800c0cd20008000e800914078003c
:1019640090c070006fb897002140980011ce2000fd
:101974006fb897009140780031409800d08d2000d6
:101984001004e00005003a000060fe0011c0b3003e
:101994006fb8970041409800040037000060fe00d3
:1019a4008040eb006fb8970041409800b18d200053
:1019b4006fb89700914078005140980060c0b30020
:1019c400a0ff9f006a805700e70f07000060fe0039
:1019d4000040eb00c1cd2000804878008100e80081
:1019e400804878000080fa0000000600800078003b
:1019f4004141900020c0b300e34f510024003a005d
:101a040031009000904090000141e90030c0b300e3
:101a1400e24f51001e003e008180fb000108a3003c
:101a240004003a00d0cf20000048eb000040eb0057
:101a340007003700d0cf200000c8eb0010c0b3006f
:101a4400e2cf2000004978000281e8000009eb00a1
:101a54000118a3000900320031d0200080c8eb0037
:101a640022c0b3008100e800824878008180e80049
:101a74008008eb000040e8000200370031d020006d
:101a84008048eb00f1d02000804878000040eb0053
:101a940000000600808d2000104178000000e8005e
:101aa40090407800d0cf20001004e0000d003200f8
:101ab4000000e80010407800e14f500006003200ba
:101ac400e24f50001e003a00a0c0b300e1cf500026
:101ad400040032001d003700a0c0b300e14f5100e4
:101ae4001a003a0030d020001004e0000e0032004a
:101af4000000e80010407800e14f5000030032007d
:101b0400e24f500010003a0004003700a0c0b300b8
:101b1400e14f5100040032000c003700a0c0b300b4
:101b2400e1cf500009003a0030c0b300f1d02000ea
:101b34001104e000050032000040eb000300370010
:101b440030c0b3000100370030c0b300000006000d
:101b5400808d2000104178000000e800904078005b
:101b6400d0cf20001004e0000d0032000000e80097
:101b740010407800e14f500006003200e24f500060
:101b84001e003a00a0c0b300e2cf500004003200af
:101b94001d003700a0c0b300e24f51001a003a0004
:101ba40030d020001004e0000e0032000000e800f5
:101bb40010407800e14f500003003200e24f500023
:101bc40010003a0004003700a0c0b300e24f5100f7
:101bd400040032000c003700a0c0b300e2cf500074
:101be40009003a0030c0b300f1d020001104e00035
:101bf400050032000040eb000300370030c0b300a2
:101c04000100370030c0b30000000600889fbe000a
:101c14008a9fbe008c1f780080047800010578003c
:101c240082457800f8c0b300f0ccb300c18d200029
:101c3400914f10003a00320058c0b30050cab300ac
:101c44008100e900914f1000350032006066800089
:101c54000000e00004003200c0cc20000008eb00cb
:101c640088c0b3002e003700090078005fff07002a
:101c7400004478000804e00029003a00390090008c
:101c8400104090000b160700004478000804e000a0
:101c940023003a00e1cf550004003a007dff07001d
:101ca40000447800acaa2a000600370018c0b3002c
:101cb400e3cf55001a003a00a5ff0700004478005e
:101cc4005ca52a000804e00015003a000060fe004c
:101cd400494190000281fb00b900900040cc2000f3
:101ce40097fb0700e0cc200000c8eb000a00780056
:101cf4001d0f07006c668800f0cc20000b487800ac
:101d0400704280008000eb00e06a8800f16a88007d
:101d14002069800031698000c06a8800d16a880027
:101d2400084078004f0678004f05be004f04be00ff
:101d340000000600889fbe00a06b8000a1aa2a00b4
:101d4400810f50000d0032008044eb0009447800fc
:101d54005105b100810f500010003a008944780009
:101d640009447800a0cd200011c0b30090cf10002a
:101d74000a00320081447800080037008044eb00f8
:101d840009447800a0cd200021c0b30090cf1000fa
:101d9400020032008944780018c0b300406c80000f
:101da400a1aa2a00810f500006003a00b0cd2000fd
:101db40021c0b30090cf10000a0032000844e800ac
:101dc4000800370051a52a00810f500005003a0091
:101dd400b0cd200011c0b30090cf1000010032003c
:101de4008944e800a0d1200000c8eb00680050003e
:101df400dd0e07000804e00008003200b1c0b300a3
:101e0400f0cc20001040780021fe070021cbb30065
:101e140050ce2000014878000c0037000904e0008f
:101e240008003200b1c0b300f0cc200010407800ac
:101e340017fe070031cbb30050ce200001487800d4
:101e44000200370050ce20000048eb004f04be00d3
:101e5400000006001200fa00889fbe008a9fbe00a0
:101e6400f0805700030009008018eb00f080570051
:101e7400e1b79f00e1be20001181fb00023cb300ea
:101e8400cf91de00b2b79f00c3b79f0080c0eb00c4
:101e9400e1ef9f003000900010449000a0449000b7
:101ea40020c9b30080f79f00894f540027003e00eb
:101eb4008ac0b3008045eb000060fe0080822000f1
:101ec4000a4878006182200008407800eb06070089
:101ed400ef4f400002003200ed4f400005003a0091
:101ee4000060fe0021c0b3006fb09700104078007e
:101ef400e7fd07006fb097001840980028c8ec0071
:101f0400a0ef9f000b0032000b4078008080fb00a4
:101f14006fb197000101410033418000e3c17800b3
:101f2400234198000040e800afe8970080cf5000bc
:101f3400f6ff3e000060fe007a8057008a0e07001c
:101f44000844e80088cf5400dbff31004f05be0091
:101f54004f04be000080fa0000000600889fbe0007
:101f64008a1f78000004780001057800380090008a
:101f74009044780010c0b30001c2b30081cf540074
:101f8400a3003e00c84090000104e000a00032001d
:101f9400180207008040780000c1b3000104e0008b
:101fa4009b003200e5cf540017003e00f0c0b300a0
:101fb400f1ccb300c28d200092cf10009400320007
:101fc40050c0b30051cab3000201e90092cf10001f
:101fd4008f00320048409000e14f50000a00360064
:101fe40010c0b3000060fe008080fb00b8019000c8
:101ff400c268800063f178000040e800c8409000a7
:1020040080cf5000f7ff3e00e0be20001080fb00b0
:10201400003cb300cf80de0090688800a16888008f
:10202400c0688000894078000174a00001487800ed
:1020340060d12000c840900001487800e4cf5400eb
:102044002b00320006003e00e2cf5400160032009e
:102054001c003e00e1cf54006b003a000b00370037
:10206400f1cf54002f00320003003e00e5cf5400ae
:1020740065003a0025003700f2cf540058003200c2
:10208400f5cf540060003a005b0037000040eb00dd
:102094004045980012c0b30021d120000800780008
:1020a400dafe07005a0037000040eb004045980074
:1020b40022c0b30021d120000800780093fd07005e
:1020c40053003700d0c0b300f18d20001104e000ac
:1020d4004f003a000040eb004045980032c0b30086
:1020e40021d1200008007800c8fe0700480037000e
:1020f4000040eb004045980042c0b30021d12000cd
:102104000800780081fd0700410037000040eb0023
:102114004045980021d120000800780082fc070087
:102124003b0037000040eb004045980040c1b3003d
:10213400a1cab300428e200092cf100034003a00ae
:102144000060fe00b8009000c068800091409000dc
:1021540011409800380090008080e80031418800e8
:10216400104090006182200015060700e14f4000f6
:1021740003003a000060fe0010c0b30024003700e2
:102184000004e000030032000060fe0020c0b30041
:102194001f00370031418000c06880009140780002
:1021a4002140980031418000c06880009140900037
:1021b40031409800818220009140780060d1200055
:1021c40001c8e8000060fe0064005000e60d07004e
:1021d40000cd200000c8eb000040eb000c003700ed
:1021e4000040eb00404598000800780019ff070004
:1021f4000040eb00060037008a00780008007800f1
:1022040073fb0700020037000060fe0010c0b3003b
:102214004f0578004f04be00000006003600f800a9
:10222400809fbe00829fbe00849fbe00869fbe002a
:102234000060fe002a28ef0086e0a90061668000a5
:1022440050552500808f50000600320090c0a80031
:10225400f00b2000c02288009823ef0060150700cf
:102264002d003700e0cc20001004e00006003a0006
:1022740090c0a800f00b2000c02288009823ef0033
:102284005715070024003700504180008041eb00bf
:10229400034278008002eb0001003700050078005b
:1022a4000304a2000381fb00050037000000e800de
:1022b400e10f400002003a00504188001600370048
:1022c400a1168000c908de00e1806000828f500002
:1022d400f6ff3200fe005000f48f5000020036007a
:1022e400504188000c0037000442e800e44f5200db
:1022f400eaff3a002a28ef00d522ab00060032009c
:10230400e44f520004003a0035150700e0cc2000e9
:102314000048eb003c0107004f03be004f02be0023
:102324004f01be004f00be003600f9000040060019
:102334003600f800809fbe00829fbe00849fbe00ce
:10234400869fbe000200fa008880a90061668000b2
:1023540050552500808f50000400320011c1b30095
:1023640040c3b300cafc07001d0037008c180700e7
:102374000140200002022000040037000060fe003b
:10238400330480000300610015003a00a3168000a6
:1023940003806000f9ff3a00881807007d180700e1
:1023a400680040001147800074815000820f500083
:1023b4000b003900f4804000810f500008003e00fb
:1023c40040c3b300e0ff9f0050cab300f0ff9f007a
:1023d40022c0b3008f80e900d0462000ac11070072
:1023e4000080fa004f03be004f02be004f01be0042
:1023f4004f00be003600f90000400600881f780038
:10240400000478009800900050a52a00808f5000a6
:102414000d003a0070c7b300984f10000a003a004c
:10242400e2c2a900cb22a800cb82a800cbe2a9007b
:10243400caa2a800e2c2a900cb22a800cb82a800ad
:10244400cbe2a900caa2a800480190008001eb00d9
:1024540068009000f80090008d1807000004e00068
:1024640012003200e2c2a900cb22a800cb82a9004c
:10247400cbe2a800caa2a900e2c2a900cb22a8000c
:10248400cb82a900cbe2a800caa2a9000000eb00fd
:1024940010049800004c78000060fe0050a52a004b
:1024a4002004980000c0eb00104498004f0478000a
:1024b40000000600881f780000047800980090004f
:1024c40050a52a00808f50000d003a0070c7b30059
:1024d400984f10000a003a00e862a900cb42a80015
:1024e400cba2a800e282a900e902a800e862a90040
:1024f400cb42a800cba2a800e282a900e902a8006e
:10250400480190008001eb0068009000f800900002
:102514005f1807000004e00012003200e862a9001e
:10252400cb42a800cba2a900e282a800e902a9003c
:10253400e862a900cb42a800cba2a900e282a800cd
:10254400e902a9000000eb0010049800004c780098
:102554000060fe0050a52a002004980000c0eb0093
:10256400104498004f04780000000600881f78008b
:102574000004780098009000a0aa2a00808f5000e0
:102584000d003a0070c7b300984f10000a003a00db
:10259400cb82a900cbe2a800e2c2a800cb22a9000a
:1025a400caa2a800cb82a900cbe2a800e2c2a8007c
:1025b400cb22a900caa2a800380190008001eb0038
:1025c40068009000f8009000311807000004e00053
:1025d40012003200e2c2a900cb22a800cb82a900db
:1025e400cbe2a800caa2a900e2c2a900cb22a8009b
:1025f400cb82a900cbe2a800caa2a9000000eb008c
:1026040010049800004c78000060fe00a0aa2a0084
:102614002004980000c0eb00104498004f04780098
:1026240000000600881f78000004780098009000dd
:10263400a0aa2a00808f50000d003a0070c7b30092
:10264400984f10000a003a00cba2a900e282a80029
:10265400e862a800cb42a900e902a800cba2a90025
:10266400e282a800e862a800cb42a900e902a8001f
:10267400380190008001eb0068009000f8009000a1
:10268400031807000004e00012003200e862a90009
:10269400cb42a800cba2a900e282a800e902a900cb
:1026a400e862a900cb42a800cba2a900e282a8005c
:1026b400e902a9000000eb0010049800004c780027
:1026c4000060fe00a0aa2a002004980000c0eb00cd
:1026d400104498004f047800000006003600f8000b
:1026e400809fbe00829fbe00849fbe00869fbe0066
:1026f40084e0a9000060fe00a0cf20001080fb0051
:102704006600b9000080e80061ce200061407800d6
:102714000040e9008080fb0042c1b3000440bc00db
:1027240003d72000e341790082c8b30082cf51006f
:1027340025003a007409b9000281e80003d720009b
:10274400630179000200e0001f003a00740ab90036
:10275400840078000181410074c7b3000449780003
:10276400a4aa2a0014019800246980003569800015
:102774006401980075019800f080400042c1b300e4
:102784000440bc0003004100e38078000100010024
:10279400a1cf20001140e800804878008100e900c2
:1027a400914f50000700310062c0b3000440bc00e8
:1027b40064004100f3805000610078004517070071
:1027c400010037004b1707004f03be004f02be0045
:1027d4004f01be004f00be003600f9000040060065
:1027e40050a52a0090428800000006005228ef00fd
:1027f400000006000040eb005208e20001003a002d
:1028040000c0eb0000000600faff07000004e0002f
:102814000a003a0000d720001004e00013003a0038
:10282400906b80000000e00010003a00a06b800074
:102834000000e000040032000c003700c0cc20008f
:102844000008eb004f00370040d820001004e000df
:1028540006003a00306c80000000e00003003a00fb
:10286400406c80000000e000020032005028ef00bd
:102874004400370090c0a9005824ef009823ef00cb
:10288400808e20009080fb0060d720006488400088
:10289400908e20009080fb00a0d820006488400027
:1028a400a0cf20000048eb000000e90010407800b1
:1028b400e14f500015003600e1ce200000c0e900d1
:1028c40062c0b3000440bc006683400002034300be
:1028d40005d7200084c8b3008001eb001140e90053
:1028e40042c1b3000440bc000281420004497800a4
:1028f4000280e8000308780011009000500198005d
:10290400e6804000868f5000f4ff3a0080ce20001d
:102914001040e90001d7200042c1b3000440bc00cc
:102924000280400073c7b30003487800a3aa2a00ba
:1029340013009800246980003569800064009800c1
:102944007500980070014100e10079000100010068
:10295400a1cf20001140e800804878008100e90000
:10296400914f50000600310062c0b3000440bc0027
:1029740064004100f380500061007800cc16070029
:102984000060fe0000000600889fbe008a9fbe0013
:102994008c9fbe008e1f780096ff07000004e000a5
:1029a40003003200c0cc20000008eb003d003700db
:1029b4000060fe00f0d02000904078000104e000a8
:1029c4000e00320000d720001004e00006003a0098
:1029d400906b80000000e00003003a00a26b8000ce
:1029e4000200e000020032005028ef002d00370002
:1029f4000040e800814f5000fdff390090c0a9005d
:102a04005824ef009823ef00808e20009080fb0074
:102a140060d7200064884000908e20009080fb00e6
:102a2400a0d8200064884000d8cf20006c05440062
:102a3400fa0550007ec7b3004cd220001804e00011
:102a440013003200184090000040e90042c1b30076
:102a54000440bc00028045000e487800a1aa2a0068
:102a640011009800ec064000bc1e7800ac167800fb
:102a74000060fe0070014100eb00790001000100dc
:102a8400bc1e7800ac1678000040eb00004c7800c7
:102a9400660444008a0f5400e8ff3a00f0d0200096
:102aa4000048eb004f0778004f06be004f05be00fc
:102ab4004f04be0000000600889fbe008a9fbe002f
:102ac4008c9fbe008e1f78004aff07000004e000c0
:102ad40003003200c0cc20000008eb003d003700aa
:102ae4000060fe00f0d02000904078000104e00077
:102af4000e00320000d720001004e00006003a0067
:102b0400906b80000000e00003003a00a26b80009c
:102b14000200e000020032005028ef002d003700d0
:102b24000040e800814f5000fdff390090c0a9002b
:102b34005824ef009823ef00b08e20009080fb0013
:102b440080d7200064884000c08e20009080fb0065
:102b5400c0d8200064884000d8cf20006c05440011
:102b6400fc0550007ec7b3004cd220001804e000de
:102b740013003200184090000040e90042c1b30045
:102b84000440bc00028045000e48780051a52a008c
:102b940011009800ec064000bc1e7800ac167800ca
:102ba4000060fe0072014100eb00790001000100a9
:102bb400bc1e7800ac1678000040eb00004c780096
:102bc400660444008a0f5400e8ff3a00f0d0200065
:102bd4000048eb004f0778004f06be004f05be00cb
:102be4004f04be0000000600889fbe008a9fbe00fe
:102bf4000044780081047800fefe07000004e00031
:102c040003003200c0cc20000008eb003200370083
:102c14008880fb000840780042c1b3000440bc0037
:102c240000d72000604079000004e0000c003a0066
:102c34007409b9000280e80002d72000620078001d
:102c44000000e00006003a007409b9006400410085
:102c540002d72000620078000000e0000200320089
:102c64005028ef001c00370090c0a9005824ef0042
:102c74009823ef000060fe0003d720007408b90019
:102c8400800078000180410072c7b30002487800d8
:102c9400a2aa2a0012009800ec0540004ad22000a3
:102ca400ba1d7800aa1578006600400064884400c4
:102cb4000060fe00f08040000840780042c1b3008c
:102cc4000440bc0003004100e380780001000100df
:102cd400ba1d7800aa1578004f05be004f04be0047
:102ce40000000600889fbe008a9fbe000044780052
:102cf40081047800bffe07000004e00003003200f6
:102d0400c0cc20000008eb00320037008880fb00b4
:102d14000840780042c1b3000440bc0000d7200042
:102d2400604079000004e0000c003a007409b90026
:102d34000280e80002d72000620078000000e00072
:102d440006003a007409b9006400410002d720006b
:102d5400620078000000e000020032005028ef001a
:102d64001c00370090c0a9005824ef009823ef00fe
:102d74000060fe0003d720007408b90080007800ca
:102d84000180410072c7b3000248780052a52a00ae
:102d940012009800ec0540004ad22000ba1d7800c9
:102da400aa15780068004000648844000060fe00b2
:102db400f28040000840780042c1b3000440bc00e7
:102dc40003004100e380780001000100ba1d78008f
:102dd400aa1578004f05be004f04be00000006008f
:102de400881f78000060fe00906b8000a1aa2a0072
:102df400810f50000d003a0071c7b30002d72000c4
:102e040092cf100009003a000060fe0090c0a900b3
:102e14005824ef009823ef0002007800016c800032
:102e24000100010018c8b300100037000044eb0093
:102e340051a52a00810f50000c003a0070c7b3005e
:102e440001d72000914f100008003a000060fe00f6
:102e540090c0a9005824ef009823ef0001007800e7
:102e6400116c80000100010028c8b300306c8000a0
:102e7400a1aa2a00810f50000e003a0071c7b300c6
:102e840042d8200092cf10000a003a000060fe00f1
:102e940090c0a9005824ef009823ef0002007800a6
:102ea400a16c80000100010040c8b300004474001c
:102eb4001000370051a52a00810f50000d003a0080
:102ec40070c7b30041d82000914f100009003a00a8
:102ed4000060fe0090c0a9005824ef009823ef0082
:102ee40001007800b16c80000100010080c8b300cb
:102ef4000044740000d720001040780081c8b3005b
:102f0400814f50000300320042d8200092cf1000bd
:102f140001003a000864a00071c7b300814f50005b
:102f2400040032000140780041d82000914f100085
:102f340001003a000874a000084078004f047800ab
:102f4400000006008040eb0000d720000148780014
:102f54000000e800014878000000eb00906b880056
:102f6400a06b880025032000b56b8800e4012000d5
:102f7400c46b8800d06b88006011b800e26b8800d5
:102f8400f36b880046312100066c8800c6252100b9
:102f9400166c88000060fe0046d82000004b7800c4
:102fa4000603e800014b7800306c8800406c880010
:102fb400556c8800646c8800706c8800826c880092
:102fc400936c8800802b2100a06c880000202100d5
:102fd400b06c88000060fe000060fe000000060087
:102fe4000060fe0080d620003041880080c0b3001d
:102ff40028e8b7005228ef00e462a900c7a2a9009c
:10300400de82a900c742a900e862a900cb42a80059
:10301400cba2a900e282a800e902a9000060fe0098
:10302400dec2a900c782a900c7e2a900c722a9007d
:10303400e2c2a900cb22a800cb82a900cbe2a8005f
:10304400caa2a9000060fe00dea2a900c762a9000e
:10305400c7c2a900c702a900e2a2a900cb02a80026
:10306400cb62a900cbc2a800ca82a9000060fe00fe
:103074005028ef000060fe00b2ff070020698000c6
:10308400316980004069880051698800806988003e
:1030940091698800c0698800d1698800006a880045
:1030a400116a8800406a8800516a8800401f200025
:1030b40001002000206a8800316a88008000eb004b
:1030c400616688000040eb00e2cc200001497800f2
:1030d4008200e800804878008100e8008048780099
:1030e4008100e800804878008100e800804878008a
:1030f4008100e800804878000060fe0021ce2000b6
:1031040080487800e3804000804878008100e9002e
:10311400804878008100e90080487800e38050000e
:10312400804878008100e80080487800affd0700ff
:1031340000000600881f78000004780098009000c2
:10314400a0aa2a00808f50000d003a0070c7b30077
:10315400984f10000a003a00cb62a900cbc2a80025
:10316400e2a2a800cb02a900ca82a800cb62a900ef
:10317400cbc2a800e2a2a800cb02a900ca82a80080
:10318400380190008001eb0068009000f800900086
:103194003f1507000004e00012003200e2a2a9007b
:1031a400cb02a800cb62a900cbc2a800ca82a900a6
:1031b400e2a2a900cb02a800cb62a900cbc2a8005e
:1031c400ca82a9000000eb0010049800004c7800ab
:1031d4000060fe00a0aa2a002004980000c0eb00b2
:1031e400104498004f04780000000600881f7800ff
:1031f400000478009800900050a52a00808f5000a9
:103204000d003a0070c7b300984f10000a003a004e
:10321400e2a2a900cb02a800cb62a800cbc2a900fd
:10322400ca82a800e2a2a900cb02a800cb62a8002f
:10323400cbc2a900ca82a800480190008001eb001b
:1032440068009000f8009000111507000004e000e9
:1032540012003200e2a2a900cb02a800cb62a900ae
:10326400cbc2a800ca82a900e2a2a900cb02a8008e
:10327400cb62a900cbc2a800ca82a9000000eb005f
:1032840010049800004c78000060fe0050a52a004d
:103294002004980000c0eb00104498004f0478000c
:1032a40000000600a06b8000a1aa2a00810f500034
:1032b40006003a000060fe00c28c200020002f00af
:1032c400f1072000961507000800370051a52a00d1
:1032d400810f500005003a000060fe00e28c2000df
:1032e40040002f00f10720008d150700406c80007e
:1032f400a1aa2a00810f500006003a000060fe00d7
:10330400028d200060002f00f107200084150700c3
:103314000800370051a52a00810f500005003a002b
:103324000060fe00228d200080002f00f1072000a5
:103334007b15070000000600889fbe008a1f7800e6
:10334400d022800042e8b700d02280004800de008e
:1033540043e8b70010cfb300916b80000100e00098
:10336400f4003a00316c80000100e000f1003a0002
:103374000060fe0010d7200080c0eb0090cf10004a
:10338400030032007400400090cf10001a003a008d
:1033940090c0a800f00b2000c02288009823ef0002
:1033a4000060fe0002322000c24088001a28ef00ac
:1033b400601007002469800035698000e4408800bb
:1033c400f54088000000eb00906b88008040eb0023
:1033d40002d72000004978000201e8000149780082
:1033e400306c880073014100014978000201e80053
:1033f400014978006066880080d42000c614070064
:103404000004e00006003200071007000060fe0020
:103414002069800031698000406a8800516a880010
:1034240080d32000bc1407000004e0000600320032
:103434000060fe004b0807002469800035698000a5
:10344400c4698800d5698800510507000004e000bc
:10345400030032005028ef0000c0eb00b500370035
:10346400e0cc20001004e00016003200606680000a
:103474000000e0001300320080d52000a6140700ed
:103484000004e0000f00320090c0a800f00b200000
:10349400c02288009823ef00d4fc0700f8cc200059
:1034a40061c0b3001840780079f807000060fe009e
:1034b400004ceb000000eb00606688008800e90027
:1034c400804878002ada2000c9cc200080d9200066
:1034d400c0150700004478000804e000040032002e
:1034e4001a417800a1d920000180e900230b0700cc
:1034f4001900e000030032000060fe0000c0eb0091
:103504008c0037000804e000f0ff3a0090c0a800e7
:10351400f00b2000c02288009823ef00f513070069
:10352400e2408000f340800040d2200030021100cd
:10353400a0821900c0408000d1408000800f52005a
:10354400818f5a001a003900faf9070050ce200082
:103554001004e00005003200800c2000010020006f
:10356400206a8800316a880005003700401f200067
:1035740001002000206a8800316a880049ff0700a2
:1035840020ce200000c8eb000000eb00a06b8800f8
:10359400406c88000080eb008080eb00c040880015
:1035a400d1408800e0408800f14088008ffc07008b
:1035b4000060fe0000d32000571407000004e00060
:1035c40003003a0020ce20001004e000180032006e
:1035d4000060fe00b005070040c0200035c0b30005
:1035e40090cf120004003a00606680000000e00002
:1035f40001003a009af8070020ce20000048eb00b2
:103604007afc0700206980003169800080698800a5
:1036140091698800608e20009080fb00803e20002d
:103624000088b900cf80de00a0698800b1698800f5
:1036340000d62000381407000004e0000300320024
:1036440040c020000048eb000000fe000060fe00c7
:1036540000d42000301407000004e00020003200f1
:103664005184200091407800f0ff2d006010070085
:1036740045e8ee0030cd20001004e00002003a00de
:1036840057a4ab00120032004448ec0044e8b700f1
:1036940071ccb300814f50000d0036006000b800bb
:1036a4000f0c070090c0a800f00b2000c022880077
:1036b4009823ef00401f200001002000206a8800aa
:1036c400316a880030cd20000048eb004468ef00e8
:1036d4002469800035698000046a8800156a8800be
:1036e4000060fe0080d220000b1407000004e000fc
:1036f40007003200dc120700c0438800d143880071
:10370400206980003169800040698800516988001f
:103714000040eb0001cd200000c1eb00914f1100ef
:1037240004003a008b03070000cd20000048eb00a2
:103734000040eb004f0578004f04be000000060077
:10374400a7fd07000004e000fdff3a00e862a900bd
:10375400cb42a800cba2a900e282a800e902a900fa
:10376400e2c2a900cb22a800cb82a900cbe2a80028
:10377400caa2a900e2a2a900cb02a800cb62a900b8
:10378400cbc2a800ca82a900ebfe0700ecff3700f9
:10379400204190000204e00007003200100178008c
:1037a40091009000114978000060fe0011c0b30040
:1037b40021409800030037008040eb00214098002e
:1037c4000060fe0000000600204190000204e000ba
:1037d40007003200910090001001780092487800b0
:1037e4000060fe0011c0b3002140980003003700c0
:1037f4008040eb00214098000060fe0000000600bd
:1038040020419000e14f51000b00360091009000e0
:103814009100780010017800014978000060fe00f2
:1038240010017800c808de001141980021c0b300df
:1038340021409800030037000060fe008040eb0048
:10384400214098000000060020419000e14f510003
:103854000b00360022c0b30022409800100078000c
:10386400104190000281fb000060fe004811dd0061
:10387400910090001080fb00800871000300370065
:103884000060fe008040eb0021409800000006002c
:103894000400fa0020419000e14f51000f0036006f
:1038a400910090001101be00e2bf9f00f3bf9f0092
:1038b400658157008000eb00900178005242780047
:1038c40084f178000060fe008100e800e48f50007d
:1038d400f9ff3a0021409800030037000060fe0021
:1038e4008040eb00214098000080fa0000000600b0
:1038f400881f78000004780028409000e14f5000b1
:103904000f0036001100900002002000832c2400d8
:103914001000be000cf407009bf307009800780029
:10392400804878000060fe00980078004800de00bf
:103934009040980020c0b300204498000300370052
:103944000060fe000040eb00204498004f04780023
:1039540000000600889fbe00000478002840900004
:10396400e14f50001100360018007800904190009b
:10397400c819dd001081fb00030071000060fe0027
:10398400910490008000eb009af30700a2702d00d0
:1039940033c22300ecf30700808cbe000060fe00fd
:1039a40020c0b30020449800030037000060fe00ec
:1039b4000040eb00204498004f04be0000000600c5
:1039c400889fbe008a1f780081047800a39020009d
:1039d4008000eb000060fe0001047800934f1000ab
:1039e4001e003a0001407800a2c0b3000440bc00ad
:1039f400a0902000000541006a41b900e6004100a2
:103a0400608178008a0078000900780002000100d3
:103a1400a940900010cfb3000104e000140032006c
:103a24000060fe006a40b90068044000a0902000d5
:103a340060017c008a00780009007800020001001f
:103a44000060fe00a94090000040eb000104e0008b
:103a540007003a0020cfb300050037008100e800da
:103a6400ea814100fd8f5000daff3a0000c0eb000c
:103a74004f0578004f04be0000000600881f780040
:103a84000104780001c4b300814f50001d003e00c2
:103a9400a39020008000eb000060fe00010278008b
:103aa400934f100011003a000060fe006a22b90032
:103ab40068024200a390200001407800a2c0b30035
:103ac4000440bc0083004100e3017a000800780050
:103ad40003000100a84090000040eb000104e00056
:103ae40024003a0010cfb300220037008100e80020
:103af400ea814100fd8f5000e7ff3a0020cfb30078
:103b04001c003700c3a220008000eb000060fe0010
:103b140001027800934f100011003a000060fe008b
:103b24006a22b90068024200c3a220000140780062
:103b3400a2c0b3000440bc0083004100e3017a004a
:103b44000800780003000100a84090000040eb004a
:103b54000104e00007003a0030cfb300050037004d
:103b64008100e800ea814100f68f5000e7ff3a0047
:103b740040cfb3004f0478000000060011c0b3002a
:103b8400a090200001487800c08720006048880089
:103b940022c2b300e090200002487800c1ca21008c
:103ba40081488800a0c72100904888000060fe007a
:103bb40024c0b30043912000844978000388200086
:103bc400b34888008391200082497800d148880056
:103bd400e048880034c0b300e6814100844978009d
:103be40083892000034988002392200082497800b9
:103bf400214988003049880044c0b300e68141006f
:103c040084497800038a200053498800c392200025
:103c140082497800714988008049880054c0b30003
:103c2400e68141008449780043882000a349880044
:103c34006393200082497800c1498800d0498800f4
:103c44000060fe0064c0b300e6814100844978004e
:103c540083882000f3498800039420008249780077
:103c6400114a8800204a880074c0b300e6814100ec
:103c740084497800838a2000434a8800a394200062
:103c840082497800614a8800704a88000060fe001a
:103c940084c0b300e681410084497800038b20008e
:103ca400934a88004395200082497800b14a8800ed
:103cb400c04a880094c0b300e6814100844978007a
:103cc400c3882000e34a8800e395200082497800f5
:103cd400014b8800104b88000060fe00a4c0b300b4
:103ce400e68141008449780003892000334b880031
:103cf4008396200082497800514b8800604b8800ed
:103d0400b4c0b300e681410084497800838b20006d
:103d1400834b88002397200082497800a14b8800b8
:103d2400b04b88000060fe00c4c0b300e6814100cf
:103d340084497800038c2000d34b8800c39720006b
:103d440082497800f14b8800004c8800d4c0b3004d
:103d5400e681410084497800438c2000234c88008c
:103d64006398200082497800414c8800504c8800b8
:103d74000060fe00e4c0b300e6814100844978009d
:103d8400838c2000734c88000399200082497800ba
:103d9400914c8800a04c8800f4c0b300e681410037
:103da40084497800e38e2000c34c8800a399200046
:103db40082497800e14c8800f04c88000060fe00e5
:103dc40003c1b300049a2000034a7800248f200022
:103dd400144d8800449a2000024a7800314d88002e
:103de400404d880015c1b30066024200054a7800c0
:103df400648f2000644d8800e49a2000024a780011
:103e0400814d8800904d88000060fe0021c1b30000
:103e14006600420001487800e0842000b04d88002c
:103e240002c1e9006a0042000248780065c221002c
:103e3400d54d880024c02100e44d880031c1b30071
:103e44006600400001487800c0842000004e8800cd
:103e5400209c200002487800254e8800344e8800bb
:103e64000060fe0041c1b3006600400001487800d4
:103e7400808e2000504e8800c09c200003487800ab
:103e840061be2100714e8800a0bc2100804e8800d4
:103e940057c1b300269d2000074b7800b68e200042
:103ea400a64e8800669d2000034b7800c14e880012
:103eb400d04e88000060fe0067c1b3006603430073
:103ec400074b7800968e2000f64e8800069e200050
:103ed400034b7800114f8800204f880077c1b3004e
:103ee40066034300074b7800c68e2000464f8800c7
:103ef400a69e2000034b7800614f8800704f880015
:103f04000060fe0087c1b30066034300074b7800de
:103f1400a68e2000964f8800469f2000034b780011
:103f2400b14f8800c04f880097c1b30066034300b7
:103f3400074b7800d68e2000e64f8800e69f2000cd
:103f4400034b780001508800105088000060fe0088
:103f5400a7c1b30066034300074b7800e68d200039
:103f64003650880086a02000034b7800515088000a
:103f740060508800b7c1b30066034300074b780064
:103f8400068e20008650880026a12000034b78006e
:103f9400a1508800b0508800c6c1b30083a120009e
:103fa40086497800238e2000d3508800c3a12000c6
:103fb40082497800f550880004518800d4c1b300c8
:103fc400e681410084497800638e200023518800f3
:103fd40063a2200082497800415188005051880032
:103fe400000006000060fe0011c4b300c0a220005f
:103ff40001487800c08520007051880023c2b300b6
:1040040000a32000034878000000eb0090518800d2
:10401400a4c72100a451880022c4b30061a32000d6
:104024008248780001862000c1518800a1a32000a5
:1040340083487800e0518800f45188000060fe0055
:104044000241e800e6804000824878004186200072
:104054001152880041a4200083487800305288001f
:10406400445288000241e800e6804000824878001b
:104074008186200061528800e1a4200083487800f2
:1040840080528800945288000241e800e680400093
:104094008248780081872000b152880081a52000e1
:1040a40083487800d0528800a1c42100e1528800de
:1040b4000060fe000241e800e1a52000824878008b
:1040c400c18c20000153880002c2b30021a6200045
:1040d400824878002053880021c021003153880091
:1040e40076c4b30085a62000864a7800e58c2000bb
:1040f40055538800c5a62000824a78007053880072
:10410400815388000060fe000643e800e682420016
:10411400864a7800058d2000a553880065a72000f5
:10412400824a7800c0538800d15388000643e800cf
:10413400e6824200864a7800258d2000f5538800e7
:1041440005a82000824a7800105488002154880071
:104154000060fe000643e800e6824200864a7800da
:10416400458d200045548800a5a82000824a780087
:1041740060548800715488000643e800e6824200d7
:10418400864a7800658d20009554880045a9200052
:10419400824a7800b0548800c15488000060fe0050
:1041a400c2c4b300e680420082487800818d2000ba
:1041b400e154880002c1b300ea80420082487800da
:1041c40000558800a1bc21001155880006c3e800f1
:1041d400f0824200864a7800958d2000355588008b
:1041e40085aa2000824a78005055880061558800cd
:1041f4000060fe000643e800e6824200864a78003a
:10420400a58d20008555880025ab2000824a7800c2
:10421400a0558800b15588000643e800e6824200b4
:10422400864a7800b58d2000d5558800c5ab20009e
:10423400824a7800f0558800015688000060fe002c
:104244000643e800e6824200864a7800c58d2000d5
:104254002556880065ac2000824a780040568800c4
:10426400515688000643e800e6824200864a7800f8
:10427400d58d20007556880005ad2000824a78004f
:1042840090568800a15688000060fe000643e800ae
:10429400e6824200864a7800e58d2000c5568800f3
:1042a400a5ad2000824a7800e0568800f1568800c7
:1042b4000643e800e6824200864a7800c58620006c
:1042c4001557880045ae2000834a7800305788008f
:1042d400445788000643e800e6824200864a780094
:1042e4000587200065578800e5ae2000834a7800e2
:1042f40080578800945788000643e800e68242000d
:10430400864a780045872000b557880085af20008d
:10431400834a7800d0578800e457880064c5b30006
:10432400e681420084497800538e200003588800b7
:10433400ea81420082497800205888003158880078
:10434400000006000400fa0020419000e14f5100f3
:104354000d00360090017800658157000f02e900d6
:1043640033697800840f5100fdff3a0091009000fa
:104374006fb99700ffb997008288be0041c0b300af
:1043840021409800030037000060fe008040eb00ed
:10439400214098000080fa00000006000200fa00a4
:1043a400889fbe008a9fbe00010478008000eb0055
:1043b400b1bf9f000060fe000085fb004255dd0098
:1043c40002102f00f30720004fd0de000205450045
:1043d40083054800284090000004e00016003200e5
:1043e4008044eb000060fe000980fb008000eb00cd
:1043f4000000450081804d006a815700411107008b
:104404000980fb00980078006ff1970082707800b3
:10441400a84090000108a30003003a0018004000df
:10442400fff097001140980089c4e80028409000ec
:10443400894f5000ebff3e004f05be004f04be0005
:104444000080fa00000006000400fa00889fbe0005
:104454008a9fbe00010478008000eb00a1bf9f008a
:10446400b1bf9f000060fe000085fb004255dd00e7
:1044740002102f00f30720004fd0de000205450094
:1044840083054800284090000004e000200032002a
:104494008044eb000060fe00284090000008a30068
:1044a40008003a000980fb0080004000180040002a
:1044b400104090000080fb00800178006c81570060
:1044c40003b178000980fb0000014000ec80570034
:1044d4000281400098007800e14078008180fb0070
:1044e400120078004800dd00008970000980fb009c
:1044f4008000eb000000450081804d00cc100700d7
:1045040089c4e80028409000894f5000e1ff3e0034
:104514004f05be004f04be000080fa0000000600f4
:1045240090c0a9005824ef009823ef000060fe001b
:1045340000017800c0ff2f00f1072000bc10070025
:1045440090c0a800f00b2000c02288009823ef0040
:10455400000006000200fa00889fbe008a9fbe0089
:104564008c9fbe000000eb0090bf9f00a89020002d
:104574000005eb0019c0b300080678008046eb0084
:104584000060fe009845780089cf550023003a006a
:10459400c84090008180fb00c408de00814178009f
:1045a40002842000034978000060fe006a51b900cb
:1045b4008200460048019000e083200002000100d0
:1045c4004048e20015003200e18320000b407800ef
:1045d4009dff0700e18320000b4078006fff070078
:1045e4000060fe004048e2000c0032000d407800fc
:1045f4000060fe008080fb00f2418000e2c0780091
:104604008180fb001fb997000101410092bf9f0008
:104614000040e8004048e300f5ff3e008944e8001c
:104624000a05e8006a044400fecf5400d4ff3a00af
:104634006e805700baff07004f06be004f05be004c
:104644004f04be000080fa000000060090c0a900dc
:104654005824ef009823ef000060fe00000178006a
:10466400c0ff2f00f1072000a610070090c0a8008b
:10467400f00b2000c02288009823ef000000060001
:10468400e4874700889fbe008a9fbe008c9fbe00bf
:104694008e1f78000000eb0080bf9f00a8902000d0
:1046a4006055b80019c0b300880678000047eb00d5
:1046b4000060fe0018407800894f50001a003a004c
:1046c400c84090008180fb00c408de00814178006e
:1046d4000284200003497800e18320002fff0700b3
:1046e4000060fe006a58b9008080460038019000de
:1046f400e0832000020001004048e2000a0032008a
:104704000e4078000060fe008080fb00f2418000d3
:10471400e2c078008180fb00010545000040e8000c
:104724004048e300f7ff3e008944e8008b05e800b9
:104734006a044400fecf5400ddff3a000060fe002e
:1047440070805700c1ff07000fb897008a0f500010
:1047540003003a000060fe000040eb000200370056
:104764000060fe0000c0eb004f0778004f06be005b
:104774004f05be004f04be004f00b100000006000c
:10478400881f780040852000f041880080c0b30075
:1047940040e8b7000060fe00c28c200020002f001b
:1047a400f107200074100700e28c200040002f0065
:1047b400f107200070100700028d200060002f0018
:1047c400f10720006c100700228d200080002f00cc
:1047d400f1072000681007000004eb00a8468800d9
:1047e400b84688006000b800404388005143880000
:1047f4009d0e0700c0438800d14388000060fe007e
:104804000040eb00818d2000884878008100e8009a
:10481400804878008100e800804878000060fe004d
:104824008100e800804878008100e8008048780032
:104834008100e800804878008180e80080487800a2
:104844008100e80080487800803821001047880003
:1048540021c0b300608e2000014878000000e90008
:1048640000c8eb00c5fc0700defd07000060fe0089
:1048740083ff07000004e0004100320040062000ee
:1048840001002000206a8800316a880000002000ae
:10489400010c24002046880031468800d0cc2c002e
:1048a400c102240040468800514688000060fe0092
:1048b4000000200001372400e0438800f143880011
:1048c400000020001137240020448800314488006f
:1048d40000002000213724006044880071448800cf
:1048e4000000200041332400004488001144880063
:1048f400a099210051332400404488005144880089
:104904000000200061332400804488009144880022
:104914000000200001f823007047880081478800c8
:1049240090478800a1478800b0478800c1478800a5
:1049340020c3b300818e2000804878008100e80005
:10494400804878008100e80080487800e0c1b30026
:104954008100e800804878008100e8008048780001
:104964008100e8008048780080bb20006042880015
:1049740070428800408e20000048eb00020037009f
:10498400508e20000048eb004f0478000000060021
:104994000060fe008042800061a22a00810f500066
:1049a4008a00320007003e008180e900810f500038
:1049b400560032008100e800810f5000b3003a0035
:1049c4006600370051a52a00810f500027003200ed
:1049d4005105b000810f5000040032003108b100cd
:1049e400810f5000a9003a008c0037000060fe00df
:1049f400f0c3b300c18d2000914f100018003a009d
:104a040030c0b300ab0a07000004e00014003a0011
:104a140073f707000060fe00808e20009080fb008a
:104a24000040eb0070f80700908e20009080fb009f
:104a340010c0b3006cf8070020c0b300f1cc200014
:104a4400804878000060fe00c1cd200080487800d6
:104a54008100e8008048780000c0eb008d0037003a
:104a64005028ef0000c0eb008a0037000060fe0011
:104a7400f08d200080c0eb0090cf100003003a00be
:104a84005028ef000040eb0082003700f0c3b30071
:104a9400c18d2000914f100019003a0030c0b300be
:104aa400840a07000004e00015003a004cf70700f0
:104ab4000060fe00b08e20009080fb000040eb0000
:104ac40088f80700c08e20009080fb0010c0b3005f
:104ad40084f8070041c0b300f0cc200001487800fe
:104ae4000060fe0010c0b300c1cd200080487800f3
:104af4008100e8008048780000c0eb0065003700c2
:104b04005028ef0000c0eb00620037000060fe0098
:104b140010c0b300670a07000004e0000c003a006c
:104b24002ff70700808e20009080fb000040eb00f0
:104b34002df8070020c0b300c1cd200080487800c4
:104b4400f1cc20008048780000c0eb005100370011
:104b54005028ef0000c0eb004e0037000060fe005c
:104b6400f08d200080c0eb0090cf100003003a00cd
:104b74005028ef000040eb004600370010c0b3009f
:104b84004c0a07000004e0000d003a0014f7070087
:104b9400b08e20009080fb000040eb0051f807002d
:104ba40011c0b300c0cd20000148780041c0b3005b
:104bb400f0cc20000148780000c0eb00350037003d
:104bc4005028ef0000c0eb00320037000060fe0008
:104bd40020c0b300370a07000004e0000c003a00cc
:104be400fff60700908e20009080fb0010c0b300f9
:104bf400fdf7070020c0b300d1cd20008048780025
:104c0400f1cc20008048780000c0eb002100370080
:104c14005028ef0000c0eb001e0037000060fe00cb
:104c2400f08d200080c0eb0090cf100003003a000c
:104c34005028ef000040eb001600370020c0b300fe
:104c44001c0a07000004e0000d003a00e4f6070027
:104c5400c08e20009080fb0010c0b30021f8070034
:104c640011c0b300d0cd20000148780041c0b3008a
:104c7400f0cc20000148780000c0eb0005003700ac
:104c84005028ef0000c0eb00020037000060fe0077
:104c94000040eb00000006000200fa00e2090700f1
:104ca400808d200010407800e0ff9f00908d200050
:104cb40010407800f0ff9f00a18d2000804878000c
:104cc4000060fe006ff89700e24f500005003200cc
:104cd400e34f500037003200e14f500044003a00e7
:104ce4001a0037000041eb00f1ff2e0000102000f5
:104cf400db0a070000c1eb00f1df2f000080200079
:104d0400d70a070000c1eb00f1fd2f00400020008e
:104d1400d30a070021c0b300d08d200001487800d9
:104d240020cbb30051ce2000914f100030003a0048
:104d3400401f200001002000206a8800316a88009a
:104d440050ce20000048eb002900370000c1eb00e2
:104d5400f1ff2e0000102000c10a07000041eb0003
:104d6400f1df2f0000802000bd0a070000c1eb0026
:104d7400f1fd2f0040002000b90a070011c0b30064
:104d8400d08d20000148780030cbb30051ce2000f4
:104d9400914f100016003a00401f2000010020002f
:104da400206a8800316a880050ce20000048eb0059
:104db4000f00370000c1eb00f1ff2e0000102000af
:104dc400a70a070000c1eb00f1df2f0000802000dc
:104dd400a30a07000041eb00f1fd2f004000200072
:104de4009f0a070031c0b300d08d2000014878002d
:104df400e0cd200010407800e24f50001100320056
:104e0400e34f50001c003200e14f50001e003a00f6
:104e140000c1eb00b1ff2f0010002000900a070032
:104e2400d08d200031c0b30090cf100016003200a6
:104e340000c1eb00f1fd2f0040002000880a0700ac
:104e4400110037000041eb00b1ff2f0010002000db
:104e5400830a0700d08d200031c0b30090cf10002a
:104e64000900320000c1eb00f1fd2f0040002000da
:104e74007b0a0700040037000041eb00f1fd2f001e
:104e840040002000760a07000060fe007ff89700cb
:104e9400e24f50002f003200e34f50000300320075
:104ea400e14f500044003a001000370000c1eb000d
:104eb400f17f2f0000402000690a070000c1eb00c9
:104ec400f1f72f0000002200650a07000041eb0003
:104ed400f1fe2f0000012000610a070031c0b30079
:104ee400d08d2000014878003300370000c1eb006a
:104ef400f17f2f0000402000590a07000041eb0019
:104f0400f1f72f0000002200550a070000c1eb0052
:104f1400f1fe2f0000012000510a070011c0b30068
:104f2400d08d20000148780030cbb30051ce200052
:104f3400914f100020003a00401f20000100200083
:104f4400206a8800316a880050ce20000048eb00b7
:104f5400190037000041eb00f17f2f0000402000d2
:104f64003f0a070000c1eb00f1f72f000000220008
:104f74003b0a070000c1eb00f1fe2f0000012000f6
:104f8400370a070021c0b300d08d20000148780003
:104f940020cbb30051ce2000914f100006003a0000
:104fa400401f200001002000206a8800316a880028
:104fb40050ce20000048eb00f0cd200010407800d7
:104fc400e24f50000a003200e34f50000300320069
:104fd400e14f50001f003a00120037000041eb007f
:104fe400f1fe2f00000120001d0a07001900370000
:104ff4000041eb00d1ff2f0020002000180a070019
:10500400d08d200031c0b30090cf100011003200c9
:1050140000c1eb00f1fe2f0000012000100a070080
:105024000c00370000c1eb00d1ff2f00200020004e
:105034000b0a0700d08d200031c0b30090cf1000c0
:105044000400320000c1eb00f1fe2f00000120003b
:10505400030a07000060fe00c04680001110200013
:10506400810f50000e003a00a08d200011c0b30043
:1050740090cf10001b003a000041eb00f1ff270025
:1050840000202000f609070000c1eb00f1ff2b000f
:1050940000082000f20907000060fe001900370034
:1050a40021202000810f50000e003a00a08d200026
:1050b40021c0b30090cf10000a003a000041eb0079
:1050c400f1ff2b0000082000e509070000c1eb00f8
:1050d400f1ff270000202000e10907000060fe0026
:1050e4000800370000c1eb00f1ff2700002020007a
:1050f400db09070000c1eb00f1ff2b0000082000d2
:10510400d70907000080fa000000060040dc2000f8
:1051140011c1b30090cf10000400360011cab300cf
:10512400b08d2000014878000300370051cab30055
:10513400b08d20000148780040dc20000048eb00de
:105144000000e80011c1b30090cf10000400360045
:10515400f1ccb300c08d2000014878000300370073
:10516400f1c3b300c08d20000148780050dc20005a
:105174000048eb000000e80011c1b30090cf10001c
:1051840003003600f08d200000c8eb000200370059
:10519400f08d20000048eb0060dc20000048eb00ac
:1051a4000000e80011c1b30090cf100007003600e2
:1051b4000000e80090cf10000c003e0021c0b300b6
:1051c400808d2000014878000b00370080dc20002f
:1051d40011c1b30090cf10000400360011c0b30019
:1051e400808d2000014878000300370031c0b300ef
:1051f400808d2000014878000040eb0071dc200025
:10520400804878008100e800804878000100e800c8
:1052140011c1b30090cf1000070036000000e80071
:1052240090cf10000c003e0021c0b300908d2000f0
:10523400014878000b003700a0dc200011c1b30046
:1052440090cf10000400360011c0b300908d2000f0
:10525400014878000300370031c0b300908d20006e
:10526400014878000040eb0091dc20008048780081
:105274008100e80080487800918d20000100e8005a
:1052840011487800000006005af5070080407800b5
:105294000040eb000104e00094003200b0dc200088
:1052a40011c1b30090cf10001f0036000000e800c9
:1052b40090cf10000b0036000040eb00b1dc200062
:1052c400804878008100e8008048780030c0b3004e
:1052d400818d2000804878008100e80080487800b3
:1052e400260037000040eb00b1dc20008048780045
:1052f4008100e80080487800c1468000101020003a
:10530400808f500006003a00a08d200012c0b30028
:10531400904f110002003a00a0aa2a00804288009f
:1053240050c8bf0071003700c0dc200011c1b300b9
:1053340090cf1000110036000040eb00b1dc2000db
:10534400804878008100e80080487800c1468000e9
:1053540020202000808f500006003a00a08d2000fd
:1053640022c0b300904f110002003a0050a52a0059
:105374008042880050c8bf005c003700d0dc2000a9
:1053840011c1b30090cf1000190036000000e800ee
:1053940090cf1000090036000040eb00d1dc200063
:1053a400804878008100e8008048780031c0b3006c
:1053b400808d2000014878001e0037000040eb007b
:1053c400d1dc2000804878008100e8008048780023
:1053d400808d200012c0b300904f110002003a00eb
:1053e40040a22a008042880050c8bf003f00370016
:1053f400e0dc200011c1b30090cf10000d00360096
:105404000040eb00d1dc2000804878008100e800f7
:1054140080487800808d200022c0b300904f110096
:1054240002003a0050a22a008042880050c8bf00ff
:105434002e003700f0dc200011c1b30090cf100023
:105444001a0036000000e80090cf10000a00360071
:105454000040eb00f1dc2000804878008100e80087
:105464008048780031c0b300908d20000148780056
:105474000040eb001d0037000040eb00f1dc200091
:10548400804878008100e80080487800908d2000f2
:1054940012c0b300904f110002003a0060a22a002b
:1054a4008042880050c8bf00100037000040eb0065
:1054b40001dd200012c1b300914f11000b00360032
:1054c4008100e900804878008100e8008048780085
:1054d400908d200021c0b30090cf100002003a004c
:1054e40070a22a008042880050c8bf000000060055
:1054f400808d20001040780021dc2000914f1000a6
:1055040009003200a1cd20008048780021dc200071
:105514008048780000c0eb0021ce2000804878004d
:105524008100e80080487800908d200010407800c9
:1055340031dc2000914f100009003200b1cd200071
:105544008048780031dc20008048780000c0eb00ff
:1055540021ce2000804878008100e800804878004f
:10556400000006005e080700604188007141880061
:105574003068ec0060418000714180000148a30064
:105584000200320040dc20001048e8006041800046
:10559400714180000168a3000200320050dc200049
:1055a4001048e80060418000714180000128a30098
:1055b4000200320060dc20001048e80060418000f6
:1055c400714180000178a3000200320070dc2000e9
:1055d4001048e80060418000714180000158a30038
:1055e4000200320080dc20001048e80060418000a6
:1055f400714180000138a3000200320090dc2000d9
:105604001048e80060418000714180000118a30047
:1056140002003200a0dc20001048e8006441800051
:1056240075418000050178000240a1008001eb0073
:10563400c010dd00000020006121b80002007000ed
:105644008380700060418800714188000060fe0022
:105654006041800071418000420020002306200048
:1056640000026100018161008001eb00c010dd00d7
:10567400000020006121b8000200700083807000e7
:105684004200200023022000820f5000838f580024
:1056940002003a00b0dc20001048e80060418000bd
:1056a4007141800012002000c30c20000002610040
:1056b400018161008001eb00c010dd0000002000ca
:1056c4006121b80002007000838070001200200085
:1056d40083082000820f5000838f580002003a0094
:1056e400c0dc20001048e800624180007341800063
:1056f4000000200011062000038160008001eb00ff
:10570400c011dd0002002000800f5100818f59007c
:1057140002003a00d0dc20001048e800604180001c
:105724007141800002002400430c2000000261004b
:10573400018161008001eb00c010dd000000200049
:105744006121b80002007000838070000200240010
