:020000040000fa
:080000000001040000000000f3
:020000040000fa
:0400080014020000de
:020000040000fa
:04000c00f4010000fb
:020000040000fa
:04001000f8010000f3
:020000040000fa
:04001400fc010000eb
:020000040000fa
:0400180000020000e2
:020000040000fa
:04001c0014020000ca
:020000040000fa
:0400200014020000c6
:020000040000fa
:0400240014020000c2
:020000040000fa
:0400280014020000be
:020000040000fa
:04002c0014020000ba
:020000040000fa
:0400300014020000b6
:020000040000fa
:0400340014020000b2
:020000040000fa
:0400380014020000ae
:020000040000fa
:04003c0014020000aa
:020000040000fa
:04004000c6430000b3
:020000040000fa
:040044009c13000009
:020000040000fa
:04004800140200009e
:020000040000fa
:04004c0088470000e1
:020000040000fa
:040050008e470000d7
:020000040000fa
:040054001402000092
:020000040000fa
:04005800140200008e
:020000040000fa
:04005c00140200008a
:020000040000fa
:040060001402000086
:020000040000fa
:040064001402000082
:020000040000fa
:04006800140200007e
:020000040000fa
:04006c00140200007a
:020000040000fa
:040070001402000076
:020000040000fa
:040074001402000072
:020000040000fa
:04007800140200006e
:020000040000fa
:04007c00140200006a
:020000040000fa
:040080001402000066
:020000040000fa
:04008400481100001f
:020000040000fa
:04008800140200005e
:020000040000fa
:04008c00140200005a
:020000040000fa
:040090001402000056
:020000040000fa
:040094001402000052
:020000040000fa
:04009800140200004e
:020000040000fa
:04009c00140200004a
:020000040000fa
:0400a0001402000046
:020000040000fa
:0400a4001402000042
:020000040000fa
:0400a800140200003e
:020000040000fa
:0400ac00140200003a
:020000040000fa
:0400b0001402000036
:020000040000fa
:0400b4001402000032
:020000040000fa
:0400b800d211000061
:020000040000fa
:0400bc00140200002a
:020000040000fa
:0400c00064380000a0
:020000040000fa
:0400c4001402000022
:020000040000fa
:0400c800140200001e
:020000040000fa
:0400cc00140200001a
:020000040000fa
:0400d0001402000016
:020000040000fa
:0400d4001402000012
:020000040000fa
:0400d800140200000e
:020000040000fa
:0401080014020000dd
:020000040000fa
:04010c0004020000e9
:020000040000fa
:0401100008020000e1
:020000040000fa
:040114000c020000d9
:020000040000fa
:0401180010020000d1
:020000040000fa
:04011c0014020000c9
:020000040000fa
:0401200014020000c5
:020000040000fa
:0401240014020000c1
:020000040000fa
:0401280014020000bd
:020000040000fa
:04012c0014020000b9
:020000040000fa
:0401300014020000b5
:020000040000fa
:0401340014020000b1
:020000040000fa
:0401380014020000ad
:020000040000fa
:04013c0014020000a9
:020000040000fa
:0401400014020000a5
:020000040000fa
:0401440014020000a1
:020000040000fa
:04014800140200009d
:020000040000fa
:04014c001402000099
:020000040000fa
:040150001402000095
:020000040000fa
:040154001402000091
:020000040000fa
:04015800140200008d
:020000040000fa
:04015c001402000089
:020000040000fa
:040160001402000085
:020000040000fa
:040164001402000081
:020000040000fa
:04016800140200007d
:020000040000fa
:04016c001402000079
:020000040000fa
:040170001402000075
:020000040000fa
:040174001402000071
:020000040000fa
:04017800140200006d
:020000040000fa
:04017c001402000069
:020000040000fa
:040180001402000065
:020000040000fa
:040184001402000061
:020000040000fa
:04018800140200005d
:020000040000fa
:04018c001402000059
:020000040000fa
:040190001402000055
:020000040000fa
:040194001402000051
:020000040000fa
:04019800140200004d
:020000040000fa
:04019c001402000049
:020000040000fa
:0401a0001402000045
:020000040000fa
:0401a4001402000041
:020000040000fa
:0401a800140200003d
:020000040000fa
:0401ac001402000039
:020000040000fa
:0401b0001402000035
:020000040000fa
:0401b4001402000031
:020000040000fa
:0401b800140200002d
:020000040000fa
:0401bc001402000029
:020000040000fa
:0401c0001402000025
:020000040000fa
:0401c4001402000021
:020000040000fa
:0401c800140200001d
:020000040000fa
:0401cc001402000019
:020000040000fa
:0401d0001402000015
:020000040000fa
:0401d4001402000011
:020000040000fa
:0401d800140200000d
:020000040000fa
:100200008fde20000e7f22000e018800000000001b
:10021000000020000000e000020032000001200089
:100220002002880014000700810007000000e000a1
:1002300003003a00c05e24000100200002003700e5
:100240000000200001002000810f7000010032003a
:1002500014000700000020000000e000020032004f
:1002600000000200000000009247020000000000b1
:100270000040da000000fe004440a900a023200056
:100280000000e0000300320000002000a001880010
:100290004440a800000006008a1f78008b1f7800e9
:1002a0000000060091018800800478000000eb0047
:1002b0001a003700e284440032a0b4009905ba0065
:1002c000e284440032a0b4009906ba00e2844400fb
:1002d00032a0b4000006eb00476fde00fd07b2005d
:1002e000636ce10003003a00ebff07000000eb0045
:1002f0000a003700606ce10004003a00005deb008a
:100300008b05e900fdff3e00040037006168e10055
:10031000010032000086eb000b00070019c7ba008d
:100320001905ba000e04e00003003a000a00e000dc
:10033000e0ff3a0000000600fe07b2009e018800c0
:100340008a047800f5ff3700395dba008b05e900b3
:100350000c003200295dba008b05e900080032006c
:100360000c00e00003003a00e284440032a0b40034
:10037000f5ff370019ddba008b05e900faff3a00f6
:100380008904e800e184440032a0b40000000600c3
:100390000c1d040000000000da1c04000000000036
:1003a000861c040000000000621c04000000000025
:1003b000461c0400000000002a1c0400000000008d
:1003c000aa1c04000000000040130400000000000c
:1003d0008812040000000000e41204000000000085
:1003e0002c120400000000008020a900ffff37004d
:1003f0008060a900ffff37008040a900ffff3700a1
:100400008080a900ffff37008020a900ffff370090
:100410008060a900ffff37008040a900ffff370080
:100420008080a900ffff37000040da000000fe00d6
:10043000000005003200f800910188000008bb00b0
:10044000410424006210e100040032000002200098
:100450000010e1000a003a0051042400013b88002a
:100460000500fc0051052000313b8800a10a200056
:10047000313b880061e7a800000000000000000098
:100480003200f900000006003200f8006004240089
:10049000003b8800f2ff37003200f800910188002d
:1004a00041002400013b88000208bb00ecff37003c
:1004b0003200f8009101880051002400013b8800bf
:1004c000030120003218bb008301e900fdff3a0060
:1004d000e3ff37003200f8009101880080027800c5
:1004e00062004000e08048003549ba003204e00074
:1004f0000410a700100032008301e9000e00320052
:100500002549ba003204e0000410a7000a003200b6
:100510008301e900080032000408a300eeff320066
:1005200015c9ba003204e0000410a700020032002e
:100530008301e900e8ff3a003200f90000000600fc
:1005400003f0a200889fbe008a9fbe008c1f780027
:10055000f7000700fe0033006450e1004f00320056
:100560006420e1005200320003826c0007003b006f
:100570000905d0000306d000820f54000c065d0070
:100580000200390002003200890178000306780079
:100590008582550004003d000003fd008103fd003d
:1005a0008502ea008b854200840f720002003b0046
:1005b00060001000e08018006011b8000005eb003a
:1005c0007a28e1000a00390006007800c75ddd00e6
:1005d000f707b200878075002d0037008281710017
:1005e0000a017800610560008180d1000080d3009d
:1005f0008502e900f9ff3b000604400087844800bb
:1006000002003b0060041400e0841c000988a30081
:10061000070032008a8171008281710061016400eb
:100620008904d1000884d3008b05e8001700370047
:100630000978a30013003a000b00e0001300340017
:100640008b05e9000804440089844c000a447400c6
:100650000978a3000d003a000b00e0000700340009
:100660008b05e9000804440089844c0001003a002d
:100670000b0020000978a300f7ff32000001eb0017
:1006800002003700828171000a0178006d000700c6
:100690000cf0a70001f0a000b60037006420e100d4
:1006a00002003a00838f6c00b60033000801be00e0
:1006b0000200be00af003700889fbe008a9fbe00c8
:1006c0008c1f78009a000700a100330003866c009d
:1006d0006450e1002e0032006420e100330032005b
:1006e0006150e1002f0032006120e1003100320052
:1006f00085855500eb07b0000900200008042000a4
:10070000050037000804440089844c000a003100c9
:100710000603430087834b000001530081815b0087
:10072000f8ff33000203be000800a00008044400e4
:1007300089844c00f6ff3900c639dd00830173005f
:1007400001003200130020008904d1000884d30086
:100750000998a300050032000800a7000300a000cc
:100760008904d1000884d3008b05e8008904d100f6
:100770000884d3000001eb000281d20031000700a1
:1007800001f0a1000cf0a70001f0a00079003700f3
:100790006420e1007b0032000801be000200be00c0
:1007a000f7ff37006120e100760032006000b800fa
:1007b000f3ff37000000200001f82700f0ff3700aa
:1007c00014002000a6003700f4ff2f00a40037001b
:1007d0000001be00410007000470a70003f0a10063
:1007e00003f8a30013003a006509b10010003200bd
:1007f000090035006928e1000200350001002800e9
:100800000000050000004000818048008502e900ea
:10081000fcff3a0000000600f88f4200050035009a
:100820008100d1000080d3008502e800fcff3a007f
:10083000000006008000eb00000005006011b80019
:10084000a200370081002000618055000b003d00b0
:100850000b00200061fe2f000100e1001d003400ac
:1008600082817100610164008904d1000884d30091
:100870000000e800faff3a00710020006100640007
:1008800003007000020060000900320061044400af
:10089000e0844c000988a500050032008b05e800c3
:1008a0006808e10002003a008904d1000884d300fe
:1008b000f20f20000258e10005003d00c75ddd0099
:1008c000f907b20089807500080078000000060072
:1008d0000bf827008b00780000000500c70ade0037
:1008e000f107b200f50fb20008003200e1cf42007c
:1008f000020032000170a00024000500810f70008a
:10090000010032000408050044000500810f70005a
:1009100002003a00140005008502e90000004000d2
:1009200081c04800fcff3b000170a00024000500ce
:100930000004be00e9ff07000003be000405be007e
:100940000200be00e5ff0700844f750000000600ae
:100950000200be006450e100050036006420e100a2
:10096000020036000968a30001003a000800be003a
:100970000160a0004f0678004f05be004f04be0086
:1009800000000600f0ff2f00f1ff2700f9ff3700fd
:10099000889fbe008a9fbe008c1f7800e4ff07007e
:1009a000ebff330003866c006450e100240032004a
:1009b0006420e100270032006150e1002200320093
:1009c0006120e100210032008b854200eb07b1007d
:1009d0000134b800003ab8000804420089844a0093
:1009e000013ab8000030b8008880400009014a0090
:1009f00004003300000040008180480002014900eb
:100a00008b05e900c909dd00830170000100320097
:100a100013002000c814de004814dd004709de0082
:100a20001200b200c808de000884700085ff0700cd
:100a300001f0a1000cf0a70001f0a000cdff3700ed
:100a40006120e100cfff32000801be000200be00bd
:100a5000f7ff37006150e100fcff3a00c9ff3700a3
:100a6000889fbe008a9fbe00841f7800b0ff0700e9
:100a70004f00780011003300f0ff2f00838f6c00cf
:100a800006003b00040565000a00a70008003700c7
:100a900009f0a6001000200008003700820f540063
:100aa000838f5c00030039001000200001003e002d
:100ab0000000200009f0a7000000ea004f05be007a
:100ac0004f04be000000e00000000600889fbe004a
:100ad0008a9fbe00008270000402710004827100cf
:100ae000260032000004be000200be006011b80003
:100af0006b092000950220000182cf000a00390016
:100b00000541b1000082cf00070039000541b10066
:100b10000982cf00040039000541b1000882cf00ee
:100b2000010039000541b1000542520012003200b7
:100b30000a003b0082817100610164008100d100e4
:100b40000080d3008984d3000884d3008b05e8009b
:100b50000442e800f7ff3a000700370008044400a9
:100b600089844c0000004800818048008b05e90022
:100b70000442e900f9ff3a0032ff07004f05be00ca
:100b80004f04be000000060080017800020037001c
:100b9000b15978000201e9000200e000fcff3a00d0
:040ba000000006004b
:020000040000fa
:100ba40000c100008140000001c00000804100003d
:100bb40001c000008041000000c10000814000002d
:100bc40001c000008041000000c10000814000001d
:100bd40000c100008140000001c00000804100000d
:100be40001c000008041000000c1000081400000fd
:100bf40000c100008140000001c0000080410000ed
:100c040000c100008140000001c0000080410000dc
:100c140001c000008041000000c1000081400000cc
:100c240001c000008041000000c1000081400000bc
:100c340000c100008140000001c0000080410000ac
:100c440000c100008140000001c00000804100009c
:100c540001c000008041000000c10000814000008c
:100c640000c100008140000001c00000804100007c
:100c740001c000008041000000c10000814000006c
:100c840001c000008041000000c10000814000005c
:100c940000c100008140000001c00000804100004c
:100ca40001c000008041000000c10000814000003c
:100cb40000c100008140000001c00000804100002c
:100cc40000c100008140000001c00000804100001c
:100cd40001c000008041000000c10000814000000c
:100ce40000c100008140000001c0000080410000fc
:100cf40001c000008041000000c1000081400000ec
:100d040001c000008041000000c1000081400000db
:100d140000c100008140000001c0000080410000cb
:100d240000c100008140000001c0000080410000bb
:100d340001c000008041000000c1000081400000ab
:100d440001c000008041000000c10000814000009b
:100d540000c100008140000001c00000804100008b
:100d640001c000008041000000c10000814000007b
:100d740000c100008140000001c00000804100006b
:100d840000c100008140000001c00000804100005b
:100d940001c000008041000000c10000814000004b
:100da40000c00000c1010000c303000002c2000033
:100db400c606000007c7000005c50000c404000003
:100dc400cc0c00000dcd00000fcf0000ce0e0000b3
:100dd4000aca0000cb0b0000c909000008c80000c3
:100de400d818000019d900001bdb0000da1a000033
:100df4001ede0000df1f0000dd1d00001cdc000003
:100e040014d40000d5150000d717000016d6000032
:100e1400d212000013d3000011d10000d010000042
:100e2400f030000031f1000033f30000f232000032
:100e340036f60000f7370000f535000034f4000002
:100e44003cfc0000fd3d0000ff3f00003efe0000b2
:100e5400fa3a00003bfb000039f90000f8380000c2
:100e640028e80000e9290000eb2b00002aea000032
:100e7400ee2e00002fef00002ded0000ec2c000002
:100e8400e424000025e5000027e70000e626000032
:100e940022e20000e3230000e121000020e0000042
:100ea400a060000061a1000063a30000a262000032
:100eb40066a60000a7670000a565000064a4000002
:100ec4006cac0000ad6d0000af6f00006eae0000b2
:100ed400aa6a00006bab000069a90000a8680000c2
:100ee40078b80000b9790000bb7b00007aba000032
:100ef400be7e00007fbf00007dbd0000bc7c000002
:100f0400b474000075b5000077b70000b676000031
:100f140072b20000b3730000b171000070b0000041
:100f24005090000091510000935300005292000031
:100f34009656000057970000559500009454000001
:100f44009c5c00005d9d00005f9f00009e5e0000b1
:100f54005a9a00009b5b00009959000058980000c1
:100f640088480000498900004b8b00008a4a000031
:100f74004e8e00008f4f00008d4d00004c8c000001
:100f84004484000085450000874700004686000031
:100f94008242000043830000418100008040000041
:100fa400000100000004000000100000ffef00003a
:100fb400fff70000fffb0000000800000020000015
:100fc40000800000fffd00007fff0000bfff000065
:100fd400010000000200000008000000fbff000008
:100fe400fdff0000feff00000400000010000000f0
:100ff40040000000dfff0000efff0000f7ff0000eb
:10100400596f00006e670000436900000000000093
:0410140004000000d4
:020000040000fa
:10101800889fbe000004be000060fe00c84090002b
:1010280000c0eb00e4cf50003a003a00b80090004e
:101038009141900020c1b30062be200092cf5100c0
:1010480034003a00a141900030c1b300630141006f
:1010580092cf51002f003a00b140900050c5b30024
:1010680080cf500016003a00c18d200080487800db
:10107800b900900052c9b30082487800b9009000c6
:1010880062be20001241780092409800b90090009a
:1010980092be200012417800a2409800b90090004a
:1010a800b0409800390090008040eb004140980023
:1010b80050c0b300c04498000140780015003700c4
:1010c80000c0eb00a2cab30082cf500011003a0062
:1010d80082407800c08d20000148780039009000d7
:1010e800f5c0500001487800390090000000e80081
:1010f800484190000281fb000201e900b80090001d
:101108008100e8009efe070048449000c84498000b
:101118000040eb004f04be00000006000040eb005a
:1011280011cf2000804878008100e90080487800cd
:101138008180e80080487800f3805000804878007b
:101148008100e800804878008000eb001167880083
:10115800e2cd20000149780067014100004978008c
:101168000201e80000497800416788000281e9002f
:101178000049780067014100004978000201e80051
:1011880000497800716788000281e9000049780009
:1011980072d02000004978000201e9000049780077
:1011a8000281e80000497800730151000049780085
:1011b8000201e80000497800c16788000281e9005f
:1011c8000049780067014100004978000201e80001
:1011d80000497800f16788000281e9000049780039
:1011e80067014100004978000201e80000497800e1
:1011f800216888008280e9008048780040d120007a
:101208008068880000000600881f78002228ef0008
:1012180090c0a9005824ef009823ef006011b8008f
:101228000520200006242400f700200006003700cf
:101238000060fe0061014100e0814900860f510015
:10124800878f59003e003200a8168000088262008d
:10125800f7ff3200124180008042eb00054378001e
:10126800870220000004eb00010037000801780025
:101278000504a2000582fb000a0037000201e8000d
:10128800e10f410007003a001241880090c0a80011
:10129800f00b2000c02288009823ef00e2c0b300c2
:1012a80028003700a3168000c919de00e18161001b
:1012b800848f5100f1ff320043fc2f0082814100ee
:1012c800878f510002003600124188000400370061
:1012d8000643e800e44f5300e4ff3a002228ef00f9
:1012e800d522ab001a003200e44f530018003a0030
:1012f80090c0a800f20b2000c22288009823ef00bb
:10130800c04190000041eb00e1cf51000d003600d4
:1013180012c0b3000060fe008281fb003102900021
:10132800b002900065f279000241e800c0419000e7
:1013380082cf5100f7ff3e000041eb00010037006b
:10134800e2c0b300024078004f04780000000600b5
:1013580090c0a800f00b2000c02288009823ef005e
:10136800e2c0b300f7ff3700e6874700889fbe005a
:101378008a9fbe008e1f78000004be006e80570052
:10138800000009000018eb000058eb000800be0040
:101398009dff070080407800e0c0b3000104e00032
:1013a800ab003a00f0c0b300f1ccb300428d20008e
:1013b80092cf1000a600320050c0b30051cab3004b
:1013c8000201e90092cf1000a1003200c84090004d
:1013d8000108a300030032000060fe0020c0b30033
:1013e8009b00370020c0b300e1cf500098003600c2
:1013f800380090009045780010459000a0c0b300d8
:101408008246800011102000810f510090003a00a0
:10141800218d200012c0b300914f11008c003a00ba
:1014280030c0b300a91807008040780090c0b3000e
:101438000104e00086003a00484290000482fb0064
:101448000482e90022002000110009000202d800ed
:101458000042e80030c0b300e24f52007c003e007a
:101468000404e000250032008a82fb008040650009
:10147800a1f79f00760032006e8757008040eb008e
:101488000600370082a9de00e3c16100036f78001f
:101498000281e8000304e0006c0032008140e800ab
:1014a800814f5200f7ff3e00e24f520006003a001b
:1014b80030c0b300bff09700aff1970081cf510063
:1014c80068003a0062003700e34f52000b003a0010
:1014d8002ff19700bff1970030c0b300834f510040
:1014e8005b003200cff0970081cf510058003200e6
:1014f800814f51005b003a005500370010cf2000a3
:10150800044878000000e9000a4878000080e800f4
:101518000048eb007300500000c8eb000000e80032
:10152800aff09700014878000080e8000008eb0061
:10153800e14f520011003600570037000748780085
:10154800de41780013409800b8019000e3c27800ab
:10155800c82add008181410073fb97000683fb00e8
:10156800e3014000850973000241e800660040007d
:101578008180e800824f5200f0ff3e00044078006e
:10158800e3cd20008040eb0062c0b3000440bc0003
:1015980002814100114198000040e800e34f5000eb
:1015a800f9ff3a0070cc20000b48780020668000d4
:1015b8000000e00020003a000060fe0020428000a9
:1015c8008000eb00a06a8800b16a8800e0688000ab
:1015d800f1688000806a8800916a88000060fe00d7
:1015e800505525002066880060cc200000c8eb001c
:1015f80090040700e918070090c0a9005824ef00dc
:101608009823ef008b0407000060fe0000e224002e
:1016180001002000c01e07000060fe0000e2240058
:1016280001002000bc1e07000900780049110700ce
:101638000040eb0006003700db18070040cc200014
:101648000008eb0080c0b3000100370030c0b300d1
:101658004f0778004f05be004f04be006f00b10071
:101668000000060010cf2000044878000000e900c0
:101678000a4878000080e8000048eb00730050003a
:1016880000c8eb000000e800aff0970001487800c0
:101698000080e8000008eb0050ce20006e8757005d
:1016a8003100200012c0b30080c3eb00a3ff370055
:1016b8001200fa0072815700030009000019eb00bc
:1016c80072815700e2bf9f0000c1eb00e2ff9f005c
:1016d8000060fe0062be20001281fb00023cb300e5
:1016e800cf91de00b2bf9f00c3bf9f0042c1b300cd
:1016f800e2ef9f006fb99700104198006fb897000c
:1017080021409800a1cab3006fb8970031409800f3
:1017180040c0b300a0ff9f000060fe006a80570031
:101728000c1107000080fa0000000600889fbe0028
:101738008a9fbe0080047800810578000245780001
:10174800f8c0b300f0ccb300418d2000914f1000d9
:101758004a00320058c0b30050cab3008100e90003
:10176800914f100045003200390090001040900061
:101778008040e90038c0b300e2cf50003f003e008f
:10178800d2170700004478000804e0003b003a0044
:10179800e24f55000400320051a52a00e44f5500dd
:1017a80031003a0001003700a1aa2a002066800013
:1017b800810f500004003a0060cc200080c0eb008c
:1017c80090cf1000060032000060fe0071c0b30028
:1017d8000a407800b6ff070040cc20000008eb0064
:1017e800c9419000e1cf51000e0036003901900048
:1017f800d0cb200052427800904f52001c003a0093
:101808008000780010c0b30003003700524278000f
:10181800d14f520018003a000040e800834f5000b2
:10182800faff3900030407000060fe000b0078008f
:10183800c8100700ff030700e24f550002003a00f6
:101848006604070003003700e44f550001003a0022
:10185800ae04070060cc20000048eb000080e900df
:101868000008eb000500370018c0b300030037007c
:10187800c8c0b30001003700c8c0b30008407800f2
:101888004f05be004f04be00000006001200fa001b
:1018980072805700030009000018eb00728157009e
:1018a800e2bf9f0000c0eb00e0ff9f000060fe0069
:1018b80060be20001080fb00f003b2000034b300cb
:1018c800cf80de00b0bf9f00c1bf9f00a0c9b3009a
:1018d800e0ef9f00b0cd20001004e00004003a00c3
:1018e8000000e8001004e00006003a00200037007d
:1018f80080cd20000048eb00640040001004e000a8
:101908000200320090cd20000048eb0081cd20007d
:10191800668050009141780010c371006700400054
:10192800630150009041780012c2710063015100b8
:101938009282fb00c22add00640141009281fb0013
:10194800c219dd000281e9009283fb00c23bdd0081
:101958000749780085487300034872000040eb008f
:10196800e3804000804878008100e80080487800e3
:1019780081cd20006fb89700914078001140980001
:1019880040cd20008000e8009140780090c07000b1
:101998006fb897002140980091cd20006fb897004c
:1019a8009140780031409800508d20001004e000ec
:1019b80005003a000060fe0011c0b3006fb8970040
:1019c80041409800040037000060fe008040eb00b2
:1019d8006fb897004140980010c0b30011cab30017
:1019e800328d200092cf100001003a0020c0b300d1
:1019f800f1c3b300428d200092cf100002003a00dc
:101a08000034a000010037000024a000718d2000e0
:101a18001104e000020032000054a0000100370069
:101a28000044a000efb89700d040980060c0b30011
:101a3800a0ff9f006a805700461007000060fe0064
:101a48000040eb0041cd2000804878008100e8008c
:101a5800804878000080fa000000060080007800c6
:101a68004141900020c0b300e34f510024003a00e8
:101a780031009000904090000141e90030c0b3006f
:101a8800e24f51001e003e008180fb000108a300c8
:101a980004003a0050cf20000048eb000040eb0063
:101aa8000700370050cf200000c8eb0010c0b3007b
:101ab80062cf2000004978000281e8000009eb00ad
:101ac8000118a30009003200b1cf200080c8eb0044
:101ad80022c0b3008100e800824878008180e800d5
:101ae8008008eb000040e80002003700b1cf20007a
:101af8008048eb0071d02000804878000040eb005f
:101b080000000600008d2000104178000000e80069
:101b18009040780050cf20001004e0000d00320003
:101b28000000e80010407800e14f50000600320045
:101b3800e24f50001e003a00a0c0b300e1cf5000b1
:101b4800040032001d003700a0c0b300e14f51006f
:101b58001a003a00b0cf20001004e0000e00320056
:101b68000000e80010407800e14f50000300320008
:101b7800e24f500010003a0004003700a0c0b30044
:101b8800e14f5100040032000c003700a0c0b30040
:101b9800e1cf500009003a0030c0b30071d02000f6
:101ba8001104e000050032000040eb00030037009c
:101bb80030c0b3000100370030c0b3000000060099
:101bc800008d2000104178000000e8009040780067
:101bd80050cf20001004e0000d0032000000e800a3
:101be80010407800e14f500006003200e24f5000ec
:101bf8001e003a00a0c0b300e2cf5000040032003b
:101c08001d003700a0c0b300e24f51001a003a008f
:101c1800b0cf20001004e0000e0032000000e80001
:101c280010407800e14f500003003200e24f5000ae
:101c380010003a0004003700a0c0b300e24f510082
:101c4800040032000c003700a0c0b300e2cf5000ff
:101c580009003a0030c0b30071d020001104e00040
:101c6800050032000040eb000300370030c0b3002d
:101c78000100370030c0b30000000600889fbe0096
:101c88008a9fbe008c1f78008004780001057800c8
:101c980082457800f8c0b300f0ccb300418d200035
:101ca800914f10003c00320058c0b30050cab30036
:101cb8008100e900914f1000370032002066800053
:101cc8000000e000060032000000eb0020668800fb
:101cd80061cc20008048780088c0b3002e0037000f
:101ce800090078005dff0700004478000804e00060
:101cf80029003a0039009000104090007316070040
:101d0800004478000804e00023003a00e1cf5500c1
:101d180004003a007bff070000447800acaa2a00c0
:101d28000600370018c0b300e3cf55001a003a0088
:101d3800a3ff0700004478005ca52a000804e0001f
:101d480015003a000060fe00494190000281fb0046
:101d5800b9009000c0cb200089fb070060cc2000b0
:101d680000c8eb000a0078007a0f07002c6688008c
:101d780070cc20000b487800304280008000eb00d7
:101d8800a06a8800b16a8800e0688000f168800075
:101d9800806a8800916a8800084078004f067800b9
:101da8004f05be004f04be0000000600889fbe001d
:101db800a06b8000a1aa2a00810f50000d003200fc
:101dc8008044eb00094478005105b100810f5000b0
:101dd80010003a00894478000944780020cd20009a
:101de80011c0b30090cf10000a003200814478007f
:101df800080037008044eb000944780020cd20001b
:101e080021c0b30090cf100002003200894478004e
:101e180018c0b300406c8000a1aa2a00810f5000ae
:101e280006003a0030cd200021c0b30090cf10004a
:101e38000a0032000844e8000800370051a52a00cb
:101e4800810f500005003a0030cd200011c0b300ca
:101e580090cf1000010032008944e80020d1200012
:101e680000c8eb00680050003a0f07000804e000c3
:101e78000400320021cbb300d0cd20000148780007
:101e8800080037000904e0000400320031cbb30039
:101e9800d0cd20000148780002003700d0cd2000c6
:101ea8000048eb004f04be00000006001200fa00d4
:101eb800889fbe008a9fbe008c1f7800f280570062
:101ec800030009008018eb00f2805700d1b79f008b
:101ed80061be20001181fb00023cb300cf91de00ff
:101ee800a2b79f00b3b79f0080c0eb00c1ef9f006f
:101ef80030009000104490002045900020c9b300a5
:101f0800e0ef9f000884fb000a85fb00880f55005e
:101f1800280039008bc0b3000046eb000060fe00cb
:101f2800008220000b48780088447800e181200076
:101f38000840780000070700ef4f40000200320019
:101f4800ed4f400005003a000060fe0021c0b300dc
:101f58005fb0970010407800d5fd07005fb097008c
:101f68001940980020c8ec0080ef9f000b00320059
:101f78000c4078008080fb005fb1970001014100b0
:101f8800f3408000e3c17800234198000040e80056
:101f98008fe8970080cf5000f6ff3e000060fe00fb
:101fa8007c805700eb0e07000804e800880f5500f6
:101fb800daff31004f0678004f05be004f04be001f
:101fc8000080fa0000000600889fbe008a1f780083
:101fd80000047800010578003800900090447800eb
:101fe80010c0b30001c2b30081cf5400a3003e006b
:101ff800c84090000104e000a0003200120207006f
:102008008040780000c1b3000104e0009b0032006a
:10201800e5cf540017003e00f0c0b300f1ccb30088
:10202800428d200092cf10009400320050c0b300bf
:1020380051cab3000201e90092cf10008f003200ac
:1020480048409000e14f50000a00360010c0b3002d
:102058000060fe008080fb00b8019000826880006c
:1020680063f178000040e800c840900080cf50003d
:10207800f7ff3e0060be20001080fb00003cb3006c
:10208800cf80de0050688800616888008068800022
:10209800894078000174a00001487800e0d0200051
:1020a800c840900001487800e4cf54002b0032006b
:1020b80006003e00e2cf5400160032001c003e002d
:1020c800e1cf54006b003a000b003700f1cf540009
:1020d8002f00320003003e00e5cf540065003a00af
:1020e80025003700f2cf540058003200f5cf5400d5
:1020f80060003a005b0037000040eb004045980064
:1021080012c0b300a1d0200008007800dbfe070051
:102118005a0037000040eb004045980022c0b30049
:10212800a1d020000800780080fd07005300370088
:10213800d0c0b300718d20001104e0004f003a00b8
:102148000040eb004045980032c0b300a1d0200009
:1021580008007800c9fe0700480037000040eb007f
:102168004045980042c0b300a1d020000800780084
:102178006efd0700410037000040eb004045980025
:10218800a1d020000800780077fc07003b0037004a
:102198000040eb004045980040c1b300a1cab3001d
:1021a800c28d200092cf100034003a000060fe007b
:1021b800b80090008068800091409000114098001d
:1021c800380090008080e800f140880010409000be
:1021d800e181200029060700e14f400003003a0092
:1021e8000060fe0010c0b300240037000004e000c7
:1021f800030032000060fe0020c0b3001f0037005b
:10220800f14080008068800091407800214098006b
:10221800f140800080688000914090003140980033
:102228000182200091407800e0d0200001c8e80039
:102238000060fe0064005000460e070080cc2000bd
:1022480000c8eb000040eb000c0037000040eb003a
:10225800404598000800780014ff07000040eb0094
:10226800060037008a0078000800780068fb07003d
:10227800020037000060fe0010c0b3004f05780070
:102288004f04be00000006003600f800809fbe0024
:10229800829fbe00849fbe00869fbe000060fe0035
:1022a8002228ef0086e0a90021668000505525000d
:1022b800808f50000600320090c0a800f00b20006c
:1022c800c02288009823ef00b71507002d003700bb
:1022d80060cc20001004e00006003a0090c0a8007e
:1022e800f00b2000c02288009823ef00ae150700ed
:1022f80024003700104180008041eb000342780041
:102308008002eb0001003700050078000304a200fa
:102318000381fb00050037000000e800e10f4000e2
:1023280002003a001041880016003700a11680000c
:10233800c908de00e1806000828f5000f6ff32009d
:10234800fe005000f48f5000020036001041880053
:102358000c0037000442e800e44f5200eaff3a005c
:102368002228ef00d522ab0006003200e44f5200cd
:1023780004003a008c15070060cc20000048eb00f0
:10238800360107004f03be004f02be004f01be00da
:102398004f00be003600f900004006003600f80085
:1023a800809fbe00829fbe00849fbe00869fbe00a5
:1023b8000200fa008880a9008e1907000140200059
:1023c80002022000060037000060fe00330480008f
:1023d80003006100020032008d1907001500370064
:1023e800a316800003806000f7ff3a0088190700f1
:1023f8007d19070068004000d146800074815000b4
:10240800820f50000b003900f4804000810f50000b
:1024180008003e0040c3b300e0ff9f0050cab3006d
:10242800f0ff9f0022c0b3008f80e900d046200053
:10243800181207000080fa004f03be004f02be00ca
:102448004f01be004f00be003600f90000400600f4
:10245800881f7800000478009800900050a52a0092
:10246800808f50000d003a0070c7b300984f1000dd
:102478000a003a00e2c2a900cb22a800cb82a80039
:10248800cbe2a900caa2a800e2c2a900cb22a800f8
:10249800cb82a800cbe2a900caa2a80048019000fc
:1024a8008001eb0068009000f800900058180700c1
:1024b8000004e00012003200e2c2a900cb22a8000a
:1024c800cb82a900cbe2a800caa2a900e2c2a90057
:1024d800cb22a800cb82a900cbe2a800caa2a900ff
:1024e8000000eb0010049800004c78000060fe002b
:1024f80050a52a002004980000c0eb001044980062
:102508004f04780000000600881f78000004780057
:102518009800900050a52a00808f50000d003a00c6
:1025280070c7b300984f10000a003a00e862a9008b
:10253800cb42a800cba2a800e282a900e902a80029
:10254800e862a900cb42a800cba2a800e282a900b9
:10255800e902a800480190008001eb0068009000a3
:10256800f80090002a1807000004e000120032006a
:10257800e862a900cb42a800cba2a900e282a80089
:10258800e902a900e862a900cb42a800cba2a900f1
:10259800e282a800e902a9000000eb0010049800fc
:1025a800004c78000060fe0050a52a002004980026
:1025b80000c0eb00104498004f04780000000600ab
:1025c800881f78000004780098009000a0aa2a00cc
:1025d800808f50000d003a0070c7b300984f10006c
:1025e8000a003a00cb82a900cbe2a800e2c2a80008
:1025f800cb22a900caa2a800cb82a900cbe2a800de
:10260800e2c2a800cb22a900caa2a8003801900003
:102618008001eb0068009000f8009000fc170700ac
:102628000004e00012003200e2c2a900cb22a80098
:10263800cb82a900cbe2a800caa2a900e2c2a900e5
:10264800cb22a800cb82a900cbe2a800caa2a9008d
:102658000000eb0010049800004c78000060fe00b9
:10266800a0aa2a002004980000c0eb00104498009b
:102678004f04780000000600881f780000047800e6
:1026880098009000a0aa2a00808f50000d003a0000
:1026980070c7b300984f10000a003a00cba2a900f7
:1026a800e282a800e862a800cb42a900e902a800db
:1026b800cba2a900e282a800e862a800cb42a90048
:1026c800e902a800380190008001eb006800900042
:1026d800f8009000ce1707000004e0001200320056
:1026e800e862a900cb42a800cba2a900e282a80018
:1026f800e902a900e862a900cb42a800cba2a90080
:10270800e282a800e902a9000000eb00100498008a
:10271800004c78000060fe00a0aa2a00200498005f
:1027280000c0eb00104498004f0478000000060039
:102738003600f800809fbe00829fbe00849fbe00c6
:10274800869fbe0084e0a9000060fe0020cf200024
:102758001080fb006600b9000080e800e1cd200091
:10276800614078000040e9008080fb0042c1b3006e
:102778000440bc0003d72000e341790082c8b300bd
:1027880082cf510025003a007409b9000281e8009f
:1027980003d72000630179000200e0001f003a001f
:1027a800740ab900840078000181410074c7b3003d
:1027b80004497800a4aa2a0014019800e46880005b
:1027c800f56880006401980075019800f080400069
:1027d80042c1b3000440bc0003004100e38078001c
:1027e8000100010021cf20001140e8008048780056
:1027f8008100e900914f50000700310062c0b3002a
:102808000440bc0064004100f3805000610078007f
:1028180046180700010037004c1807004f03be0098
:102828004f02be004f01be004f00be003600f90047
:102838000040060050a52a0050428800000006000b
:102848004a28ef00000006000040eb004a08e200ba
:1028580001003a0000c0eb0000000600faff070084
:102868000004e0000a003a0000d720001004e0004d
:1028780013003a00906b80000000e00010003a005e
:10288800a06b80000000e000040032000c0037005c
:1028980040cc20000008eb004f00370040d8200053
:1028a8001004e00006003a00306c80000000e000f0
:1028b80003003a00406c80000000e0000200320093
:1028c8004828ef004400370090c0a9005824ef00c2
:1028d8009823ef00008e20009080fb0060d7200036
:1028e80064884000108e20009080fb00a0d8200053
:1028f8006488400020cf20000048eb000000e90079
:1029080010407800e14f50001500360061ce2000dd
:1029180000c0e90062c0b3000440bc006683400008
:102928000203430005d7200084c8b3008001eb00f0
:102938001140e90042c1b3000440bc0002814200da
:10294800044978000280e80003087800110090002c
:1029580050019800e6804000868f5000f4ff3a004e
:1029680000ce20001040e90001d7200042c1b3008a
:102978000440bc000280400073c7b30003487800dd
:10298800a3aa2a0013009800e4688000f568800074
:10299800640098007500980070014100e10079001a
:1029a8000100010021cf20001140e8008048780094
:1029b8008100e900914f50000600310062c0b30069
:1029c8000440bc0064004100f380500061007800be
:1029d800cd1707000060fe0000000600889fbe00bb
:1029e8008a9fbe008c9fbe008e1f780096ff07004e
:1029f8000004e0000300320040cc20000008eb0097
:102a08003d0037000060fe0070d020009040780044
:102a18000104e0000e00320000d720001004e0009e
:102a280006003a00906b80000000e00003003a00c6
:102a3800a26b80000200e000020032004828ef008c
:102a48002d0037000040e800814f5000fdff39009d
:102a580090c0a9005824ef009823ef00008e2000b2
:102a68009080fb0060d7200064884000108e200012
:102a78009080fb00a0d820006488400058cf200038
:102a88006c054400fa0550007ec7b300ccd1200085
:102a98001804e00013003200184090000040e900dc
:102aa80042c1b3000440bc00028045000e487800d3
:102ab800a1aa2a0011009800ec064000bc1e78006c
:102ac800ac1678000060fe0070014100eb00790050
:102ad80001000100bc1e7800ac1678000040eb0035
:102ae800004c7800660444008a0f5400e8ff3a005e
:102af80070d020000048eb004f0778004f06be005a
:102b08004f05be004f04be0000000600889fbe00af
:102b18008a9fbe008c9fbe008e1f78004aff070068
:102b28000004e0000300320040cc20000008eb0065
:102b38003d0037000060fe0070d020009040780013
:102b48000104e0000e00320000d720001004e0006d
:102b580006003a00906b80000000e00003003a0095
:102b6800a26b80000200e000020032004828ef005b
:102b78002d0037000040e800814f5000fdff39006c
:102b880090c0a9005824ef009823ef00308e200051
:102b98009080fb0080d7200064884000408e200091
:102ba8009080fb00c0d820006488400058cf2000e7
:102bb8006c054400fc0550007ec7b300ccd1200052
:102bc8001804e00013003200184090000040e900ab
:102bd80042c1b3000440bc00028045000e487800a2
:102be80051a52a0011009800ec064000bc1e780090
:102bf800ac1678000060fe0072014100eb0079001d
:102c080001000100bc1e7800ac1678000040eb0003
:102c1800004c7800660444008a0f5400e8ff3a002c
:102c280070d020000048eb004f0778004f06be0028
:102c38004f05be004f04be0000000600889fbe007e
:102c48008a9fbe000044780081047800fefe0700d9
:102c58000004e0000300320040cc20000008eb0034
:102c6800320037008880fb000840780042c1b3007a
:102c78000440bc0000d72000604079000004e00058
:102c88000c003a007409b9000280e80002d720005d
:102c9800620078000000e00006003a007409b900fc
:102ca8006400410002d72000620078000000e000c4
:102cb800020032004828ef001c00370090c0a9002d
:102cc8005824ef009823ef000060fe0003d720008f
:102cd8007408b900800078000180410072c7b30011
:102ce80002487800a2aa2a0012009800ec054000c9
:102cf800cad12000ba1d7800aa15780066004000e5
:102d0800648844000060fe00f080400008407800bd
:102d180042c1b3000440bc0003004100e3807800d6
:102d280001000100ba1d7800aa1578004f05be0001
:102d38004f04be0000000600889fbe008a9fbe00a8
:102d48000044780081047800bffe07000004e0001a
:102d58000300320040cc20000008eb0032003700ae
:102d68008880fb000840780042c1b3000440bc00e2
:102d780000d72000604079000004e0000c003a0011
:102d88007409b9000280e80002d7200062007800c8
:102d98000000e00006003a007409b9006400410030
:102da80002d72000620078000000e0000200320034
:102db8004828ef001c00370090c0a9005824ef00f5
:102dc8009823ef000060fe0003d720007408b900c4
:102dd800800078000180410072c7b3000248780083
:102de80052a52a0012009800ec054000cad1200024
:102df800ba1d7800aa15780068004000648844006d
:102e08000060fe00f28040000840780042c1b30034
:102e18000440bc0003004100e38078000100010089
:102e2800ba1d7800aa1578004f05be004f04be00f1
:102e380000000600881f78000060fe00906b80008c
:102e4800a1aa2a00810f50000d003a0071c7b300f3
:102e580002d7200092cf100009003a000060fe005f
:102e680090c0a9005824ef009823ef0002007800d2
:102e7800016c80000100010018c8b3001000370081
:102e88000044eb0051a52a00810f50000c003a00c5
:102e980070c7b30001d72000914f100008003a0016
:102ea8000060fe0090c0a9005824ef009823ef00ae
:102eb80001007800116c80000100010028c8b300ef
:102ec800306c8000a1aa2a00810f50000e003a0041
:102ed80071c7b30042d8200092cf10000a003a0010
:102ee8000060fe0090c0a9005824ef009823ef006e
:102ef80002007800a16c80000100010040c8b30006
:102f0800004474001000370051a52a00810f5000ba
:102f18000d003a0070c7b30041d82000914f10004f
:102f280009003a000060fe0090c0a9005824ef0094
:102f38009823ef0001007800b16c800001000100c7
:102f480080c8b3000044740000d720001040780007
:102f580081c8b300814f50000300320042d82000de
:102f680092cf100001003a000864a00071c7b300b6
:102f7800814f5000040032000140780041d8200001
:102f8800914f100001003a000874a0000840780032
:102f98004f047800000006008040eb0000d72000b6
:102fa800014878000000e800014878000000eb00c4
:102fb800906b8800a06b880025032000b56b880003
:102fc800e4012000c46b8800d06b88006011b80051
:102fd800e26b8800f36b880006342100066c8800d9
:102fe80086282100166c88000060fe0046d8200064
:102ff800004b78000603e800014b7800306c88002d
:10300800406c8800556c8800646c8800706c88007f
:10301800826c8800936c8800402e2100a06c880088
:10302800c0222100b06c88000060fe000060fe0035
:10303800000006000060fe0080d62000f0408800f6
:1030480080c0b30020e8b7004a28ef00e462a90076
:10305800c7a2a900de82a900c742a900e862a900a8
:10306800cb42a800cba2a900e282a800e902a900ed
:103078000060fe00dec2a900c782a900c7e2a9005d
:10308800c722a900e2c2a900cb22a800cb82a900ce
:10309800cbe2a800caa2a9000060fe00dea2a90037
:1030a800c762a900c7c2a900c702a900e2a2a90075
:1030b800cb02a800cb62a900cbc2a800ca82a90093
:1030c8000060fe004828ef000060fe00b2ff070025
:1030d800e0688000f1688000006988001169880054
:1030e8004069880051698800806988009169880072
:1030f800c0698800d1698800006a8800116a880060
:10310800401f200001002000e0698800f169880064
:103118008000eb00216688000040eb0062cc2000b4
:10312800014978008200e800804878008100e800c2
:10313800804878008100e800804878008100e80035
:10314800804878008100e800804878000060fe0030
:10315800a1cd200080487800e380400080487800b6
:103168008100e900804878008100e9008048780003
:10317800e3805000804878008100e80080487800ab
:10318800affd070000000600881f780000047800e3
:1031980098009000a0aa2a00808f50000d003a00e5
:1031a80070c7b300984f10000a003a00cb62a9001c
:1031b800cbc2a800e2a2a800cb02a900ca82a8003c
:1031c800cb62a900cbc2a800e2a2a800cb02a9004a
:1031d800ca82a800380190008001eb0068009000c6
:1031e800f80090000a1507000004e0001200320001
:1031f800e2a2a900cb02a800cb62a900cbc2a8001a
:10320800ca82a900e2a2a900cb02a800cb62a90049
:10321800cbc2a800ca82a9000000eb0010049800e5
:10322800004c78000060fe00a0aa2a002004980044
:1032380000c0eb00104498004f047800000006001e
:10324800881f7800000478009800900050a52a0094
:10325800808f50000d003a0070c7b300984f1000df
:103268000a003a00e2a2a900cb02a800cb62a8009b
:10327800cbc2a900ca82a800e2a2a900cb02a8007a
:10328800cb62a800cbc2a900ca82a800480190005e
:103298008001eb0068009000f8009000dc14070043
:1032a8000004e00012003200e2a2a900cb02a8004c
:1032b800cb62a900cbc2a800ca82a900e2a2a900d9
:1032c800cb02a800cb62a900cbc2a800ca82a90081
:1032d8000000eb0010049800004c78000060fe002d
:1032e80050a52a002004980000c0eb001044980064
:1032f8004f04780000000600a06b8000a1aa2a00f5
:10330800810f500008003a000060fe00428c200047
:1033180020002f00f1072000fe15070040d72000ed
:103328000008eb000a00370051a52a00810f500061
:1033380007003a000060fe00628c200040002f0069
:10334800f1072000f315070040d720000008eb0024
:10335800406c8000a1aa2a00810f500008003a00a2
:103368000060fe00828c200060002f00f107200022
:10337800e815070080d820000008eb000a00370095
:1033880051a52a00810f500007003a000060fe0096
:10339800a28c200080002f00f1072000dd15070017
:1033a80080d820000008eb0000000600889fbe00bf
:1033b8008a1f7800d02280003ae8b700d022800027
:1033c8004800de003be8b70010cfb300916b8000e7
:1033d8000100e00006013a00316c80000100e000c5
:1033e80003013a000060fe0010d7200080c0eb0007
:1033f80090cf1000030032007400400090cf1000fe
:1034080017003a000060fe00d01007000000eb0033
:10341800906b88008040eb0002d7200000497800bc
:103428000201e80001497800306c8800730141000e
:10343800014978000201e800014978002066880007
:10344800800c200001002000206b8800316b880070
:10345800e0688000f1688000006b8800116b8800cc
:1034680000d420008c1407000004e000060032009d
:10347800731007000060fe00e0688000f1688000bb
:10348800006a8800116a880000d3200082140700af
:103498000004e000060032000060fe00ac080700ef
:1034a800e0688000f1688000806988009169880080
:1034b800800507000004e000030032004828ef0000
:1034c80000c0eb00ca00370060cc20001004e00008
:1034d80016003200206680000000e0001300320071
:1034e80000d520006c1407000004e0000f00320033
:1034f80090c0a800f00b2000c02288009823ef009d
:10350800cffc070078cc200061c0b30018407800d9
:1035180067f807000060fe00004ceb000000eb00bd
:10352800206688008800e900804878002ada2000b0
:1035380049cc200080d920001d16070000447800df
:103548000804e000040032001a417800a1d92000e4
:103558000180e900840b07001900e0000300320035
:103568000060fe0000c0eb00a10037000804e00086
:10357800f0ff3a00f514070000d6200046140700b3
:103588000004e0002000320008fa0700d0cd200037
:103598001004e00009003200800c20000100200027
:1035a800e0698800f1698800b1c0b30070cc2000e0
:1035b800104078003ef8070005003700401f200043
:1035c80001002000e0698800f16988004aff0700cf
:1035d800a0cd200000c8eb000000eb00a06b880025
:1035e800406c88000080eb008080eb00206b880036
:1035f800316b880092fc070090c0a800f00b2000f7
:10360800c02288009823ef000060fe000040eb0015
:10361800a16b80000100e00075003a00416c800059
:103628000100e00072003a0090c0a800f00b2000f2
:10363800c02288009823ef00e0688000f1688000cd
:10364800006b8800116b880080d2200012140700dc
:103658000004e00003003a00a0cd20001004e000c0
:10366800180032000060fe00d4050700c0bf20002b
:1036780031c0b30090cf100004003a0020668000eb
:103688000000e00001003a0080f80700a0cd20000b
:103698000048eb006afc0700e0688000f1688000e1
:1036a8004069880051698800e08d20009080fb0007
:1036b800803e20000088b900cf80de006069880065
:1036c8007169880080d52000f31307000004e0002a
:1036d800090032008b1507006000b8007a0c07005b
:1036e8000060fe009e0b0700e0688000f168800023
:1036f800c06a8800d16a88000060fe0080d320007c
:10370800e51307000004e00020003200d183200008
:1037180091407800f0ff2d00b51007003de8ee005d
:10372800b0cc20001004e00002003a0057a4ab001f
:10373800120032003c48ec003ce8b70071ccb30002
:10374800814f50000d0036006000b8005e0c070085
:1037580090c0a800f00b2000c02288009823ef003a
:10376800401f200001002000e0698800f1698800fe
:10377800b0cc20000048eb003c68ef00e068800017
:10378800f1688000c0698800d16988000060fe0087
:1037980000d22000c01307000004e0000700320038
:1037a8002e1307008043880091438800e06880005a
:1037b800f1688000006988001169880080cc2000c9
:1037c80080c0eb0090cf100003003a009003070080
:1037d80080cc20000048eb000040eb005604e200db
:1037e80003003d0057e4a9005604a9005804a800a6
:1037f8004f0578004f04be00000006008dfd07004d
:103808000004e000fdff3a00e862a900cb42a800ee
:10381800cba2a900e282a800e902a900e2c2a9009d
:10382800cb22a800cb82a900cbe2a800caa2a9009b
:10383800e2a2a900cb02a800cb62a900cbc2a800d3
:10384800ca82a900d9fe0700ecff3700204190008a
:103858000204e00007003200100178009100900097
:10386800114978000060fe0011c0b30021409800a3
:10387800030037008040eb00214098000060fe0004
:1038880000000600204190000204e000070032001a
:103898009100900010017800924878000060fe00c6
:1038a80011c0b30021409800030037008040eb00ae
:1038b800214098000060fe000000060020419000b2
:1038c800e14f51000b003600910090009100780004
:1038d80010017800014978000060fe0010017800ae
:1038e800c808de001141980021c0b30021409800ab
:1038f800030037000060fe008040eb002140980084
:103908000000060020419000e14f51000b003600f6
:1039180022c0b300224098001000780010419000a7
:103928000281fb000060fe004811dd00910090005c
:103938001080fb0080087100030037000060fe0063
:103948008040eb0021409800000006000400fa00c7
:1039580020419000e14f51000f0036009100900087
:103968001101be00e2bf9f00f3bf9f0065815700b1
:103978008000eb00900178005242780084f17800d2
:103988000060fe008100e800e48f5000f9ff3a0073
:1039980021409800030037000060fe008040eb00e3
:1039a800214098000080fa0000000600881f780077
:1039b8000004780028409000e14f50000f003600c6
:1039c8001100900002002000832c24001000be008b
:1039d800edf307007cf30700980078008048780032
:1039e8000060fe00980078004800de0090409800d3
:1039f80020c0b30020449800030037000060fe0098
:103a08000040eb00204498004f04780000000600b6
:103a1800889fbe000004780028409000e14f5000c5
:103a2800110036001800780090419000c819dd0098
:103a38001081fb00030071000060fe0091049000fb
:103a48008000eb007bf30700a2702d0033c2230037
:103a5800cdf30700808cbe000060fe0020c0b300dc
:103a680020449800030037000060fe000040eb008f
:103a7800204498004f04be0000000600889fbe0046
:103a88008a1f780081047800239020008000eb00d2
:103a98000060fe0001047800934f10001e003a00f9
:103aa80001407800a2c0b3000440bc002090200070
:103ab800000541006a41b900e600410060817800d4
:103ac8008a0078000900780002000100a9409000ef
:103ad80010cfb3000104e000140032000060fe00c3
:103ae8006a40b900680440002090200060017c0012
:103af8008a00780009007800020001000060fe00da
:103b0800a94090000040eb000104e00007003a00e3
:103b180020cfb300050037008100e800ea814100aa
:103b2800fd8f5000daff3a0000c0eb004f05780027
:103b38004f04be0000000600881f780001047800ca
:103b480001c4b300814f50001d003e0023902000a7
:103b58008000eb000060fe0001027800934f100027
:103b680011003a000060fe006a22b90068024200b3
:103b78002390200001407800a2c0b3000440bc009c
:103b880083004100e3017a00080078000300010087
:103b9800a84090000040eb000104e00024003a0037
:103ba80010cfb300220037008100e800ea8141000d
:103bb800fd8f5000e7ff3a0020cfb3001c0037000c
:103bc80043a220008000eb000060fe0001027800a4
:103bd800934f100011003a000060fe006a22b900fd
:103be8006802420043a2200001407800a2c0b3004e
:103bf8000440bc0083004100e3017a00080078001b
:103c080003000100a84090000040eb000104e00020
:103c180007003a0030cfb300050037008100e80004
:103c2800ea814100f68f5000e7ff3a0040cfb30029
:103c38004f0478000000060011c0b3002090200057
:103c480001487800408720002048880022c2b3003d
:103c58006090200002487800c1d0210041488800c7
:103c6800a0cd2100504888000060fe0024c0b300a9
:103c7800c390200084497800838720007348880017
:103c8800039120008249780091488800a048880064
:103c980034c0b300e68141008449780003892000dc
:103ca800c3488800a391200082497800e148880031
:103cb800f048880044c0b300e68141008449780098
:103cc80083892000134988004392200082497800a4
:103cd800314988004049880054c0b300e68141005a
:103ce80084497800c387200063498800e392200054
:103cf8008249780081498800904988000060fe0068
:103d080064c0b300e681410084497800038820003c
:103d1800b34988008393200082497800d1498800fc
:103d2800e049880074c0b300e68141008449780006
:103d3800038a2000034a88002394200082497800df
:103d4800214a8800304a88000060fe0084c0b30021
:103d5800e681410084497800838a2000534a88001c
:103d6800c394200082497800714a8800804a8800fc
:103d780094c0b300e681410084497800438820005c
:103d8800a34a88006395200082497800c14a8800c8
:103d9800d04a88000060fe00a4c0b300e68141005c
:103da8008449780083882000f34a8800039620001d
:103db80082497800114b8800204b8800b4c0b300ba
:103dc800e681410084497800038b2000434b88003a
:103dd800a396200082497800614b8800704b8800c8
:103de8000060fe00c4c0b300e68141008449780049
:103df800838b2000934b88004397200082497800ea
:103e0800b14b8800c04b8800d4c0b300e6814100a4
:103e180084497800c38b2000e34b8800e397200097
:103e280082497800014c8800104c88000060fe0030
:103e3800e4c0b300e681410084497800038c200087
:103e4800334c88008398200082497800514c8800c0
:103e5800604c8800f4c0b300e681410084497800d2
:103e6800638e2000834c88002399200082497800c3
:103e7800a14c8800b04c88000060fe0003c1b3006c
:103e880084992000034a7800a48e2000d44c88002e
:103e9800c4992000024a7800f14c8800004d88003f
:103ea80015c1b30066024200054a7800e48e20007e
:103eb800244d8800649a2000024a7800414d880009
:103ec800504d88000060fe0021c1b300660042002a
:103ed8000148780060842000704d880002c1e90024
:103ee8006a0042000248780065c82100954d8800a4
:103ef80024c62100a44d880031c1b30066004000eb
:103f08000148780040842000c04d8800a09b200014
:103f180002487800e54d8800f44d88000060fe00f6
:103f280041c1b3006600400001487800008e2000bf
:103f3800104e8800409c20000348780061c421008e
:103f4800314e8800a0c22100404e880057c1b300fe
:103f5800a69c2000074b7800368e2000664e88000d
:103f6800e69c2000034b7800814e8800904e880024
:103f78000060fe0067c1b30066034300074b78008a
:103f8800168e2000b64e8800869d2000034b7800d0
:103f9800d14e8800e04e880077c1b3006603430025
:103fa800074b7800468e2000064f8800269e20008a
:103fb800034b7800214f8800304f88000060fe00d6
:103fc80087c1b30066034300074b7800268e2000a4
:103fd800564f8800c69e2000034b7800714f88001a
:103fe800804f880097c1b30066034300074b7800f1
:103ff800568e2000a64f8800669f2000034b78004d
:10400800c14f8800d04f88000060fe00a7c1b300f0
:1040180066034300074b7800668d2000f64f880042
:1040280006a02000034b780011508800205088001b
:10403800b7c1b30066034300074b7800868d2000a4
:1040480046508800a6a02000034b780061508800e5
:1040580070508800c6c1b30003a1200086497800cb
:10406800a38d20009350880043a120008249780046
:10407800b5508800c4508800d4c1b300e68141001f
:1040880084497800e38d2000e3508800e3a12000f4
:10409800824978000151880010518800000006000c
:1040a8000060fe0011c4b30040a22000014878005f
:1040b800408520003051880023c2b30080a2200030
:1040c800034878000000eb0050518800a4cd21007f
:1040d8006451880022c4b300e1a22000824878001d
:1040e800818520008151880021a320008348780021
:1040f800a0518800b45188000060fe000241e80029
:10410800e680400082487800c1852000d1518800af
:10411800c1a3200083487800f05188000452880029
:104128000241e800e68040008248780001862000cd
:104138002152880061a420008348780040528800fa
:10414800545288000241e800e68040008248780026
:10415800018720007152880001a52000834878005b
:1041680090528800a1ca2100a15288000060fe0078
:104178000241e80061a5200082487800418c2000b7
:10418800c152880002c2b300a1a52000824878006d
:10419800e052880021c62100f152880076c4b3009d
:1041a80005a62000864a7800658c200015538800f3
:1041b80045a62000824a7800305388004153880081
:1041c8000060fe000643e800e6824200864a780066
:1041d800858c200065538800e5a62000824a780077
:1041e80080538800915388000643e800e682420025
:1041f800864a7800a58c2000b553880085a7200042
:10420800824a7800d0538800e15388000060fe009d
:104218000643e800e6824200864a7800c58c200002
:104228000554880025a82000824a78002054880078
:10423800315488000643e800e6824200864a780046
:10424800e58c200055548800c5a82000824a7800d3
:1042580070548800815488000060fe00c2c4b30016
:10426800e680420082487800018d2000a154880031
:1042780002c1b300ea80420082487800c054880036
:10428800a1c22100d154880006c3e800f082420090
:10429800864a7800158d2000f554880005aa20006c
:1042a800824a780010558800215588000060fe0079
:1042b8000643e800e6824200864a7800258d200001
:1042c80045558800a5aa2000824a780060558800d4
:1042d800715588000643e800e6824200864a780065
:1042e800358d20009555880045ab2000824a78001e
:1042f800b0558800c15588000060fe000643e800fc
:10430800e6824200864a7800458d2000e5558800ff
:10431800e5ab2000824a78000056880011568800d4
:104328000643e800e6824200864a7800558d200060
:104338003556880085ac2000824a7800505688009f
:10434800615688000060fe000643e800e6824200ed
:10435800864a7800658d20008556880025ad2000a6
:10436800824a7800a0568800b15688000643e800c3
:10437800e6824200864a780045862000d5568800a5
:10438800c5ad2000834a7800f0568800045788009d
:104398000643e800e6824200864a780085862000c7
:1043a8002557880065ae2000834a7800405788006a
:1043b800545788000643e800e6824200864a78009f
:1043c800c58620007557880005af2000834a78000d
:1043d80090578800a457880064c5b300e68142005e
:1043e80084497800d38d2000c3578800ea814200b1
:1043f80082497800e0578800f157880000000600dd
:104408000400fa0020419000e14f51000d003600f1
:1044180090017800658157000f02e9003369780040
:10442800840f5100fdff3a00910090006fb997008a
:10443800ffb997008288be0041c0b30021409800b0
:10444800030037000060fe008040eb002140980028
:104458000080fa00000006000200fa00889fbe00f3
:104468008a9fbe00010478008000eb00b1bf9f0066
:104478000060fe000085fb004255dd0002102f00a1
:10448800f30720004fd0de000205450083054800f1
:10449800284090000004e000160032008044eb0041
:1044a8000060fe000980fb008000eb000000450072
:1044b80081804d006a8157008f1107000980fb0039
:1044c800980078006ff1970082707800a8409000fb
:1044d8000108a30003003a0018004000fff097000d
:1044e8001140980089c4e80028409000894f500086
:1044f800ebff3e004f05be004f04be000080fa00ef
:10450800000006000400fa00889fbe008a9fbe00d3
:10451800010478008000eb00a1bf9f00b1bf9f009d
:104528000060fe000085fb004255dd0002102f00f0
:10453800f30720004fd0de00020545008305480040
:10454800284090000004e000200032008044eb0086
:104558000060fe00284090000008a30008003a0010
:104568000980fb00800040001800400010409000c7
:104578000080fb00800178006c81570003b178004f
:104588000980fb0000014000ec80570002814000d8
:1045980098007800e14078008180fb0012007800e4
:1045a8004800dd00008970000980fb008000eb00f6
:1045b8000000450081804d001a11070089c4e800f9
:1045c80028409000894f5000e1ff3e004f05be0093
:1045d8004f04be000080fa000000060090c0a90049
:1045e8005824ef009823ef000060fe0000017800d7
:1045f800c0ff2f00f10720000a11070090c0a80093
:10460800f00b2000c02288009823ef00000006006d
:104618000200fa00889fbe008a9fbe008c9fbe00e1
:104628000000eb0090bf9f00289020000005eb00e1
:1046380019c0b300080678008046eb000060fe0051
:104648009845780089cf550023003a00c84090006b
:104658008180fb00c408de0081417800828320004d
:10466800034978000060fe006a51b90082004600e4
:104678004801900060832000020001003848e200f1
:1046880015003200618320000b4078009dff070071
:10469800618320000b4078006fff07000060fe0078
:1046a8003848e2000c0032000d4078000060fe003f
:1046b8008080fb00b2418000e2c078008180fb006e
:1046c8001fb997000101410092bf9f000040e80018
:1046d8003848e300f5ff3e008944e8000a05e80091
:1046e8006a044400fecf5400d4ff3a006e8057009d
:1046f800baff07004f06be004f05be004f04be00bc
:104708000080fa000000060090c0a9005824ef00bd
:104718009823ef000060fe0000017800c0ff2f0022
:10472800f1072000f410070090c0a800f00b20004b
:10473800c02288009823ef0000000600e4874700a5
:10474800889fbe008a9fbe008c9fbe008e1f780087
:104758000000eb0080bf9f00289020006055b80043
:1047680019c0b300880678000047eb000060fe001f
:1047780018407800894f50001a003a00c84090004d
:104788008180fb00c408de0081417800828320001c
:1047980003497800618320002fff07000060fe00b6
:1047a8006a58b90080804600380190006083200074
:1047b800020001003848e2000a0032000e4078008a
:1047c8000060fe008080fb00b2418000e2c07800fb
:1047d8008180fb00010545000040e8003848e300ff
:1047e800f7ff3e008944e8008b05e8006a044400ae
:1047f800fecf5400ddff3a000060fe0070805700d5
:10480800c1ff07000fb897008a0f500003003a0055
:104818000060fe000040eb00020037000060fe0070
:1048280000c0eb004f0778004f06be004f05be00e2
:104838004f04be004f00b10000000600889fbe0074
:10484800c0842000b041880080c0b30038e8b700b9
:104858000060fe00428c200020002f00f10720009d
:10486800c2100700628c200040002f00f1072000d2
:10487800be100700828c200060002f00f107200086
:10488800ba100700a28c200080002f00f10720003a
:10489800b61007000000eb006046880070468800ec
:1048a8006000b8000043880011438800eb0e070041
:1048b800804388009143880002002000a32a240036
:1048c800bdef070008fa2000090020000000e00002
:1048d80003003a000800be000f120700fdff370072
:1048e8000060fe000040eb00018d20008048780049
:1048f8008100e800804878008100e800804878005e
:104908000060fe008100e800804878008100e8002f
:10491800804878008100e800804878008180e800bd
:10492800804878008100e8008048780080382100bd
:10493800d046880021c0b300e08d200001487800ef
:104948000000e90000c8eb0001c1b3006700500097
:1049580001487800b8fc0700d1fd07000060fe00a0
:1049680076ff07000004e0004e00320040062000f9
:1049780001002000e0698800f1698800000020003b
:10498800010c2400e0458800f1458800d0cc2c00bb
:10499800c102240000468800114688000060fe001d
:1049a8000000200001372400a0438800b14388009c
:1049b8000000200011372400e0438800f1438800fc
:1049c800000020002137240020448800314488005a
:1049d8000000200041332400c0438800d1438800f0
:1049e800a099210051332400004488001144880014
:1049f80000002000613324004044880051448800ae
:104a08000000200001f82300304788004147880053
:104a180050478800614788007047880081478800b0
:104a280020c3b300018e2000804878008100e80090
:104a3800804878008100e80080487800e0c1b30031
:104a48008100e800804878008100e800804878000c
:104a58008100e8008048780080bb20002042880060
:104a6800304288000040eb00818d200080487800ab
:104a780081382100d146880022c0b300e18d200092
:104a8800824878008100e90080c8eb008100e900d5
:104a98008048780001c1b300608d2000014878008b
:104aa80002003700d08d20000048eb004f04be0004
:104ab800000006000060fe004042800061a22a005b
:104ac800810f50008a00320007003e008180e90013
:104ad800810f5000560032008100e800810f50001d
:104ae800b3003a006600370051a52a00810f500034
:104af800270032005105b000810f50000400320039
:104b08003108b100810f5000a9003a008c0037002d
:104b18000060fe00f0c3b300418d2000914f1000eb
:104b280018003a0030c0b300e80a07000004e000ab
:104b380014003a003ff707000060fe00008e2000d6
:104b48009080fb000040eb003cf80700108e20002e
:104b58009080fb0010c0b30038f8070020c0b300f5
:104b680071cc2000804878000060fe0041cd200014
:104b7800804878008100e8008048780000c0eb0099
:104b88008d0037004828ef0000c0eb008a0037008e
:104b98000060fe00708d200080c0eb0090cf1000f8
:104ba80003003a004828ef000040eb00820037007d
:104bb800f0c3b300418d2000914f100019003a0056
:104bc80030c0b300c10a07000004e00015003a0035
:104bd80018f707000060fe00308e20009080fb0070
:104be8000040eb0054f80700408e20009080fb0046
:104bf80010c0b30050f8070041c0b30070cc2000cb
:104c0800014878000060fe0010c0b30041cd2000cc
:104c1800804878008100e8008048780000c0eb00f8
:104c2800650037004828ef0000c0eb00620037003d
:104c38000060fe0010c0b300a40a07000004e000f2
:104c48000c003a00fbf60700008e20009080fb0065
:104c58000040eb00f9f7070020c0b30041cd200069
:104c68008048780071cc20008048780000c0eb00b4
:104c7800510037004828ef0000c0eb004e00370015
:104c88000060fe00708d200080c0eb0090cf100007
:104c980003003a004828ef000040eb0046003700c8
:104ca80010c0b300890a07000004e0000d003a00b4
:104cb800e0f60700308e20009080fb000040eb00fb
:104cc8001df8070011c0b30040cd2000014878004e
:104cd80041c0b30070cc20000148780000c0eb0050
:104ce800350037004828ef0000c0eb0032003700dd
:104cf8000060fe0020c0b300740a07000004e00052
:104d08000c003a00cbf60700108e20009080fb00c4
:104d180010c0b300c9f7070020c0b30051cd200070
:104d28008048780071cc20008048780000c0eb00f3
:104d3800210037004828ef0000c0eb001e003700b4
:104d48000060fe00708d200080c0eb0090cf100046
:104d580003003a004828ef000040eb001600370037
:104d680020c0b300590a07000004e0000d003a0013
:104d7800b0f60700408e20009080fb0010c0b30002
:104d8800edf7070011c0b30050cd200001487800ae
:104d980041c0b30070cc20000148780000c0eb008f
:104da800050037004828ef0000c0eb00020037007c
:104db8000060fe000040eb00000006000200fa0060
:104dc8001f0a0700008d200010407800e0ff9f00b8
:104dd800108d200010407800f0ff9f00218d2000ea
:104de800804878000060fe006ff89700e24f50009e
:104df80005003200e34f500037003200e14f500009
:104e080044003a001a0037000041eb00f1ff2e0081
:104e180000102000100b070000c1eb00f1df2f008d
:104e2800008020000c0b070000c1eb00f1fd2f00f3
:104e380040002000080b070021c0b300508d20005f
:104e48000148780020cbb300d1cd2000914f10004d
:104e580030003a00401f200001002000e06988006f
:104e6800f1698800d0cd20000048eb002900370008
:104e780000c1eb00f1ff2e0000102000f60a070029
:104e88000041eb00f1df2f0000802000f20a07004c
:104e980000c1eb00f1fd2f0040002000ee0a0700e2
:104ea80011c0b300508d20000148780030cbb3000a
:104eb800d1cd2000914f100016003a00401f20006d
:104ec80001002000e0698800f1698800d0cd200049
:104ed8000048eb000f00370000c1eb00f1ff2e0087
:104ee80000102000dc0a070000c1eb00f1df2f00f2
:104ef80000802000d80a07000041eb00f1fd2f00d8
:104f080040002000d40a070031c0b300508d2000b3
:104f18000148780060cd200010407800e24f500032
:104f280011003200e34f50001c003200e14f5000e6
:104f38001e003a0000c1eb00b1ff2f001000200056
:104f4800c50a0700508d200031c0b30090cf100073
:104f58001600320000c1eb00f1fd2f0040002000d8
:104f6800bd0a0700110037000041eb00b1ff2f0018
:104f780010002000b80a0700508d200031c0b3008f
:104f880090cf10000900320000c1eb00f1fd2f00a6
:104f980040002000b00a0700040037000041eb0081
:104fa800f1fd2f0040002000ab0a07000060fe0062
:104fb8007ff89700e24f50002f003200e34f500077
:104fc80003003200e14f500044003a00100037005f
:104fd80000c1eb00f17f2f00004020009e0a07006f
:104fe80000c1eb00f1f72f00000022009a0a070029
:104ff8000041eb00f1fe2f0000012000960a070097
:1050080031c0b300508d20000148780033003700cc
:1050180000c1eb00f17f2f00004020008e0a07003e
:105028000041eb00f1f72f00000022008a0a070078
:1050380000c1eb00f1fe2f0000012000860a0700e6
:1050480011c0b300508d20000148780030cbb30068
:10505800d1cd2000914f100020003a00401f2000c1
:1050680001002000e0698800f1698800d0cd2000a7
:105078000048eb00190037000041eb00f17f2f00da
:1050880000402000740a070000c1eb00f1f72f0070
:1050980000002200700a070000c1eb00f1fe2f009b
:1050a800000120006c0a070021c0b300508d2000c9
:1050b8000148780020cbb300d1cd2000914f1000db
:1050c80006003a00401f200001002000e069880027
:1050d800f1698800d0cd20000048eb0070cd200099
:1050e80010407800e24f50000a003200e34f5000b1
:1050f80003003200e14f50001f003a001200370051
:105108000041eb00f1fe2f0000012000520a0700c9
:10511800190037000041eb00d1ff2f0020002000cc
:105128004d0a0700508d200031c0b30090cf100009
:105138001100320000c1eb00f1fe2f000001200039
:10514800450a07000c00370000c1eb00d1ff2f0013
:1051580020002000400a0700508d200031c0b30015
:1051680090cf10000400320000c1eb00f1fe2f00c8
:1051780000012000380a07000060fe008046800019
:1051880011102000810f50000e003a00208d2000e1
:1051980011c0b30090cf10001b003a000041eb0093
:1051a800f1ff2700002020002b0a070000c1eb00b8
:1051b800f1ff2b0000082000270a07000060fe000e
:1051c8001900370021202000810f50000e003a00fe
:1051d800208d200021c0b30090cf10000a003a00b3
:1051e8000041eb00f1ff2b00000820001a0a07001d
:1051f80000c1eb00f1ff270000202000160a07007d
:105208000060fe000800370000c1eb00f1ff270036
:1052180000202000100a070000c1eb00f1ff2b005e
:10522800000820000c0a07000080fa0000000600b1
:1052380040dc200011c1b30090cf100004003600fc
:1052480011cab300308d20000148780003003700f0
:1052580051cab300308d20000148780040dc20009e
:105268000048eb000000e80011c1b30090cf100027
:1052780004003600f1ccb300408d200001487800ce
:1052880003003700f1c3b300408d200001487800c7
:1052980050dc20000048eb000000e80011c1b3001a
:1052a80090cf100003003600708d200000c8eb007e
:1052b80002003700708d20000048eb0060dc200001
:1052c8000048eb000000e80011c1b30090cf1000c7
:1052d800070036000000e80090cf10000c003e00e8
:1052e80021c0b300008d2000014878000b00370072
:1052f80080dc200011c1b30090cf100004003600fc
:1053080011c0b300008d2000014878000300370069
:1053180031c0b300008d2000014878000040eb0048
:1053280071dc2000804878008100e800804878001f
:105338000100e80011c1b30090cf1000070036004b
:105348000000e80090cf10000c003e0021c0b30020
:10535800108d2000014878000b003700a0dc2000e9
:1053680011c1b30090cf10000400360011c0b30083
:10537800108d2000014878000300370031c0b300c9
:10538800108d2000014878000040eb0091dc2000df
:10539800804878008100e80080487800118d20005e
:1053a8000100e800114878000000060026f5070013
:1053b800804078000040eb000104e000c6003200a5
:1053c800b0dc200011c1b30090cf100026003600d9
:1053d8000000e80090cf10000b0036000040eb0002
:1053e800b1dc2000804878008100e800804878001f
:1053f80030c0b300018d2000804878008100e800ab
:1054080080487800360037000040eb00b1dc20000f
:10541800804878008100e800804878008146800054
:1054280010102000808f50000d003a00208d2000c1
:1054380011c0b30090cf100009003a00a0aa2a00ba
:1054480040428800b16e8000808f500002003a0010
:105458004828ef0002003700a0aa2a00b06e880092
:1054680048c8bf009c003700c0dc200011c1b30051
:1054780090cf1000180036000040eb00b1dc20008f
:10548800804878008100e8008048780081468000e4
:1054980020202000808f50000d003a00208d200031
:1054a80021c0b30090cf100009003a0050a52a008f
:1054b80040428800b16e8000808f500002003a00a0
:1054c8004828ef000200370050a52a00b06e880077
:1054d80048c8bf008000370060dd20000008eb00ee
:1054e800d0dc200011c1b30090cf1000200036009e
:1054f8000000e80090cf1000090036000040eb00e3
:10550800d1dc2000804878008100e80080487800dd
:1055180031c0b300008d2000014878002e0037000c
:105528000040eb00d1dc2000804878008100e800d2
:1055380080487800008d200011c0b30090cf100083
:1055480009003a0040a22a0040428800c16e80004b
:10555800808f500002003a004828ef000200370010
:1055680040a22a00c06e880048c8bf005a00370011
:10557800e0dc200011c1b30090cf10001400360009
:105588000040eb00d1dc2000804878008100e80072
:1055980080487800008d200021c0b30090cf100013
:1055a80009003a0050a22a0040428800c16e8000db
:1055b800808f500002003a004828ef0002003700b0
:1055c80050a22a00c06e880048c8bf0042003700b9
:1055d80080dd20000008eb00f0dc200011c1b300e2
:1055e80090cf1000210036000000e80090cf100096
:1055f8000a0036000040eb00f1dc2000804878000b
:105608008100e8008048780031c0b300108d200088
:10561800014878000040eb002f0037000040eb0005
:10562800f1dc2000804878008100e800804878009c
:10563800108d200011c0b30090cf100009003a006f
:1056480060a22a0040428800d16e8000808f5000fe
:1056580002003a004828ef000200370060a22a0042
:10566800d06e880048c8bf001b00370000dd20004e
:1056780011c1b30090cf1000140036000040eb00b9
:10568800f1dc2000804878008100e800804878003c
:10569800108d200021c0b30090cf100009003a00ff
:1056a80070a22a0040428800d16e8000808f50008e
:1056b80002003a004828ef000200370070a22a00d2
:1056c800d06e880048c8bf0003003700a0dd200066
:1056d8000008eb000040eb0000000600008d2000f1
:1056e8001040780021dc2000914f100009003200a2
:1056f80021cd20008048780021dc200080487800f7
:1057080000c0eb00a1cd2000804878008100e800af
:1057180080487800108d20001040780031dc20008f
:10572800914f10000900320031cd200080487800e8
:1057380031dc20008048780000c0eb00a1cd2000bb
