:020000040000fa
:080000000001040000000000f3
:020000040000fa
:040008001c020000d6
:020000040000fa
:04000c00fc010000f3
:020000040000fa
:0400100000020000ea
:020000040000fa
:0400140004020000e2
:020000040000fa
:0400180008020000da
:020000040000fa
:04001c001c020000c2
:020000040000fa
:040020001c020000be
:020000040000fa
:040024001c020000ba
:020000040000fa
:040028001c020000b6
:020000040000fa
:04002c001c020000b2
:020000040000fa
:040030001c020000ae
:020000040000fa
:040034001c020000aa
:020000040000fa
:040038001c020000a6
:020000040000fa
:04003c001c020000a2
:020000040000fa
:04004000fa42000080
:020000040000fa
:040044006e09000041
:020000040000fa
:040048001c02000096
:020000040000fa
:04004c008e450000dd
:020000040000fa
:0400500094450000d3
:020000040000fa
:040054001c0200008a
:020000040000fa
:040058001c02000086
:020000040000fa
:04005c001c02000082
:020000040000fa
:040060001c0200007e
:020000040000fa
:040064001c0200007a
:020000040000fa
:040068001c02000076
:020000040000fa
:04006c001c02000072
:020000040000fa
:040070001c0200006e
:020000040000fa
:040074001c0200006a
:020000040000fa
:040078001c02000066
:020000040000fa
:04007c001c02000062
:020000040000fa
:040080001c0200005e
:020000040000fa
:040084008a190000d5
:020000040000fa
:040088001c02000056
:020000040000fa
:04008c001c02000052
:020000040000fa
:040090001c0200004e
:020000040000fa
:040094001c0200004a
:020000040000fa
:040098001c02000046
:020000040000fa
:04009c001c02000042
:020000040000fa
:0400a0001c0200003e
:020000040000fa
:0400a4001c0200003a
:020000040000fa
:0400a8001c02000036
:020000040000fa
:0400ac001c02000032
:020000040000fa
:0400b0001c0200002e
:020000040000fa
:0400b4001c0200002a
:020000040000fa
:0400b8001c02000026
:020000040000fa
:0400bc001c02000022
:020000040000fa
:0400c0007c3600008a
:020000040000fa
:0400c4001c0200001a
:020000040000fa
:0400c8001c02000016
:020000040000fa
:0400cc001c02000012
:020000040000fa
:0400d0001c0200000e
:020000040000fa
:0400d4001c0200000a
:020000040000fa
:0400d8001c02000006
:020000040000fa
:040108001c020000d5
:020000040000fa
:04010c000c020000e1
:020000040000fa
:0401100010020000d9
:020000040000fa
:0401140014020000d1
:020000040000fa
:0401180018020000c9
:020000040000fa
:04011c001c020000c1
:020000040000fa
:040120001c020000bd
:020000040000fa
:040124001c020000b9
:020000040000fa
:040128001c020000b5
:020000040000fa
:04012c001c020000b1
:020000040000fa
:040130001c020000ad
:020000040000fa
:040134001c020000a9
:020000040000fa
:040138001c020000a5
:020000040000fa
:04013c001c020000a1
:020000040000fa
:040140001c0200009d
:020000040000fa
:040144001c02000099
:020000040000fa
:040148001c02000095
:020000040000fa
:04014c001c02000091
:020000040000fa
:040150001c0200008d
:020000040000fa
:040154001c02000089
:020000040000fa
:040158001c02000085
:020000040000fa
:04015c001c02000081
:020000040000fa
:040160001c0200007d
:020000040000fa
:040164001c02000079
:020000040000fa
:040168001c02000075
:020000040000fa
:04016c001c02000071
:020000040000fa
:040170001c0200006d
:020000040000fa
:040174001c02000069
:020000040000fa
:040178001c02000065
:020000040000fa
:04017c001c02000061
:020000040000fa
:040180001c0200005d
:020000040000fa
:040184001c02000059
:020000040000fa
:040188001c02000055
:020000040000fa
:04018c001c02000051
:020000040000fa
:040190001c0200004d
:020000040000fa
:040194001c02000049
:020000040000fa
:040198001c02000045
:020000040000fa
:04019c001c02000041
:020000040000fa
:0401a0001c0200003d
:020000040000fa
:0401a4001c02000039
:020000040000fa
:0401a8001c02000035
:020000040000fa
:0401ac001c02000031
:020000040000fa
:0401b0001c0200002d
:020000040000fa
:0401b4001c02000029
:020000040000fa
:0401b8001c02000025
:020000040000fa
:0401bc001c02000021
:020000040000fa
:0401c0001c0200001d
:020000040000fa
:0401c4001c02000019
:020000040000fa
:0401c8001c02000015
:020000040000fa
:0401cc001c02000011
:020000040000fa
:0401d0001c0200000d
:020000040000fa
:0401d4001c02000009
:020000040000fa
:0401d8001c02000005
:020000040000fa
:10020000efe020000e7f22000e01880000000000b9
:10021000000020000000e000020032000001200089
:100220002002880014000700850007000000e0009d
:1002300003003a00603e2400010020000200370065
:100240000000200001002000810f7000010032003a
:1002500014000700000020000000e000020032004f
:100260000000020000000000fe4502000000000047
:100270000040da000000fe004440a9008020200079
:100280000000e0000300320000002000a001880010
:100290004440a800000006008a1f78008b1f7800e9
:1002a0000000060091018800800478000000eb0047
:1002b0001a003700e284440032a0b4009905ba0065
:1002c000e284440032a0b4009906ba00e2844400fb
:1002d00032a0b4000006eb00476fde00fd07b2005d
:1002e000636ce10003003a00ebff07000000eb0045
:1002f0000a003700606ce10004003a00005deb008a
:100300008b05e900fdff3e00040037006168e10055
:10031000010032000086eb000b00070019c7ba008d
:100320001905ba000e04e00003003a000a00e000dc
:10033000e0ff3a0000000600fe07b2009e018800c0
:100340008a047800f5ff3700395dba008b05e900b3
:100350000c003200295dba008b05e900080032006c
:100360000c00e00003003a00e284440032a0b40034
:10037000f5ff370019ddba008b05e900faff3a00f6
:100380008904e800e184440032a0b40000000600c3
:10039000021b040000000000d01a0400000000004e
:1003a0007c1a040000000000581a0400000000003d
:1003b0003c1a040000000000201a040000000000a5
:1003c000a01a04000000000016090400000000004c
:1003d0000e08040000000000be0804000000000039
:1003e000b6070400000000006608040000000000da
:1003f0005e070400000000008020a900ffff370016
:100400008060a900ffff37008040a900ffff370090
:100410008080a900ffff37008020a900ffff370080
:100420008060a900ffff37008040a900ffff370070
:100430008080a900ffff37000040da000000fe00c6
:10044000000005003200f800910188000008bb00a0
:10045000410424006210e100040032000002200088
:100460000010e1000a003a0051042400013b88001a
:100470000500fc0051052000313b8800a10a200046
:10048000313b880061e7a800000000000000000088
:100490003200f900000006003200f8006004240079
:1004a000003b8800f2ff37003200f800910188001d
:1004b00041002400013b88000208bb00ecff37002c
:1004c0003200f8009101880051002400013b8800af
:1004d000030120003218bb008301e900fdff3a0050
:1004e000e3ff37003200f8009101880080027800b5
:1004f00062004000e08048003549ba003204e00064
:100500000410a700100032008301e9000e00320041
:100510002549ba003204e0000410a7000a003200a6
:100520008301e900080032000408a300eeff320056
:1005300015c9ba003204e0000410a700020032001e
:100540008301e900e8ff3a003200f90000000600ec
:1005500003f0a200889fbe008a9fbe008c1f780017
:10056000b5000700bc0033006450e1004f003200ca
:100570006420e1005200320003826c0007003b005f
:100580000905d0000306d000820f54000c065d0060
:100590000200390002003200890178000306780069
:1005a0008582550004003d000003fd008103fd002d
:1005b0008502ea008b854200840f720002003b0036
:1005c00060001000e08018006011b8000005eb002a
:1005d0007a28e1000a00390006007800c75ddd00d6
:1005e000f707b200878075002d0037008281710007
:1005f0000a017800610560008180d1000080d3008d
:100600008502e900f9ff3b000604400087844800aa
:1006100002003b0060041400e0841c000988a30071
:10062000070032008a8171008281710061016400db
:100630008904d1000884d3008b05e8001700370037
:100640000978a30013003a000b00e0001300340007
:100650008b05e9000804440089844c000a447400b6
:100660000978a3000d003a000b00e00007003400f9
:100670008b05e9000804440089844c0001003a001d
:100680000b0020000978a300f7ff32000001eb0007
:1006900002003700828171000a0178002b000700f8
:1006a0000cf0a70001f0a000740037006420e10006
:1006b00002003a00838f6c00740033000801be0012
:1006c0000200be006d00370014002000a6003700b5
:1006d000f4ff2f00a40037000001be004100070016
:1006e0000470a70003f0a10003f8a30013003a0070
:1006f0006509b10010003200090035006928e100e9
:100700000200350001002800000005000000400044
:10071000818048008502e900fcff3a0000000600e5
:10072000f88f4200050035008100d1000080d30021
:100730008502e800fcff3a00000006008000eb00a4
:10074000000005006011b800a20037008100200001
:10075000618055000b003d000b00200061fe2f0062
:100760000100e1001d00340082817100610164001c
:100770008904d1000884d3000000e800faff3a00a1
:10078000710020006100640003007000020060003e
:100790000900320061044400e0844c000988a5008f
:1007a000050032008b05e8006808e10002003a000d
:1007b0008904d1000884d300f20f20000258e10020
:1007c00005003d00c75ddd00f907b20089807500b6
:1007d00008007800000006000bf827008b00780066
:1007e00000000500c70ade00f107b200f50fb200f5
:1007f00008003200e1cf4200020032000170a00088
:1008000024000500810f700001003200040805007b
:1008100044000500810f700002003a00140005003a
:100820008502e9000000400081c04800fcff3b0059
:100830000170a000240005000004be00e9ff0700cd
:100840000003be000405be000200be00e5ff070075
:10085000844f7500000006000200be006450e100f5
:10086000050036006420e100020036000968a3009c
:1008700001003a000800be000160a0004f067800a9
:100880004f05be004f04be0000000600f0ff2f0021
:10089000f1ff2700f9ff3700889fbe008a9fbe0046
:1008a0008c1f7800e4ff0700ebff330003866c0029
:1008b0006450e100240032006420e100270032008f
:1008c0006150e100220032006120e100210032008d
:1008d0008b854200eb07b1000134b800003ab80044
:1008e0000804420089844a00013ab8000030b80088
:1008f0008880400009014a000400330000004000e5
:1009000081804800020149008b05e900c909dd002a
:10091000830170000100320013002000c814de00c3
:100920004814dd004709de001200b200c808de00ee
:100930000884700085ff070001f0a1000cf0a700fb
:1009400001f0a000cdff37006120e100cfff3200b1
:100950000801be000200be00f7ff37006150e10051
:10096000fcff3a00c9ff3700889fbe008a9fbe0087
:10097000841f7800b0ff07004f007800110033009b
:10098000f0ff2f00838f6c0006003b00040565001c
:100990000a00a7000800370009f0a6001000200098
:1009a00008003700820f5400838f5c000300390079
:1009b0001000200001003e000000200009f0a70008
:1009c0000000ea004f05be004f04be000000e0003a
:1009d00000000600889fbe008a9fbe000082700053
:1009e0000402710004827100260032000004be007f
:1009f0000200be006011b8006b09200095022000c3
:100a00000182cf000a0039000541b1000082cf0009
:100a1000070039000541b1000982cf000400390008
:100a20000541b1000882cf00010039000541b10045
:100a300005425200120032000a003b008281710020
:100a4000610164008100d1000080d3008984d3005b
:100a50000884d3008b05e8000442e800f7ff3a0061
:100a6000070037000804440089844c000000480057
:100a7000818048008b05e9000442e900f9ff3a0053
:100a800032ff07004f05be004f04be000000060005
:100a90008001780002003700b15978000201e900b6
:0c0aa0000200e000fcff3a00000006002d
:020000040000fa
:100aac0000c100008140000001c000008041000036
:100abc0001c000008041000000c100008140000026
:100acc0001c000008041000000c100008140000016
:100adc0000c100008140000001c000008041000006
:100aec0001c000008041000000c1000081400000f6
:100afc0000c100008140000001c0000080410000e6
:100b0c0000c100008140000001c0000080410000d5
:100b1c0001c000008041000000c1000081400000c5
:100b2c0001c000008041000000c1000081400000b5
:100b3c0000c100008140000001c0000080410000a5
:100b4c0000c100008140000001c000008041000095
:100b5c0001c000008041000000c100008140000085
:100b6c0000c100008140000001c000008041000075
:100b7c0001c000008041000000c100008140000065
:100b8c0001c000008041000000c100008140000055
:100b9c0000c100008140000001c000008041000045
:100bac0001c000008041000000c100008140000035
:100bbc0000c100008140000001c000008041000025
:100bcc0000c100008140000001c000008041000015
:100bdc0001c000008041000000c100008140000005
:100bec0000c100008140000001c0000080410000f5
:100bfc0001c000008041000000c1000081400000e5
:100c0c0001c000008041000000c1000081400000d4
:100c1c0000c100008140000001c0000080410000c4
:100c2c0000c100008140000001c0000080410000b4
:100c3c0001c000008041000000c1000081400000a4
:100c4c0001c000008041000000c100008140000094
:100c5c0000c100008140000001c000008041000084
:100c6c0001c000008041000000c100008140000074
:100c7c0000c100008140000001c000008041000064
:100c8c0000c100008140000001c000008041000054
:100c9c0001c000008041000000c100008140000044
:100cac0000c00000c1010000c303000002c200002c
:100cbc00c606000007c7000005c50000c4040000fc
:100ccc00cc0c00000dcd00000fcf0000ce0e0000ac
:100cdc000aca0000cb0b0000c909000008c80000bc
:100cec00d818000019d900001bdb0000da1a00002c
:100cfc001ede0000df1f0000dd1d00001cdc0000fc
:100d0c0014d40000d5150000d717000016d600002b
:100d1c00d212000013d3000011d10000d01000003b
:100d2c00f030000031f1000033f30000f23200002b
:100d3c0036f60000f7370000f535000034f40000fb
:100d4c003cfc0000fd3d0000ff3f00003efe0000ab
:100d5c00fa3a00003bfb000039f90000f8380000bb
:100d6c0028e80000e9290000eb2b00002aea00002b
:100d7c00ee2e00002fef00002ded0000ec2c0000fb
:100d8c00e424000025e5000027e70000e62600002b
:100d9c0022e20000e3230000e121000020e000003b
:100dac00a060000061a1000063a30000a26200002b
:100dbc0066a60000a7670000a565000064a40000fb
:100dcc006cac0000ad6d0000af6f00006eae0000ab
:100ddc00aa6a00006bab000069a90000a8680000bb
:100dec0078b80000b9790000bb7b00007aba00002b
:100dfc00be7e00007fbf00007dbd0000bc7c0000fb
:100e0c00b474000075b5000077b70000b67600002a
:100e1c0072b20000b3730000b171000070b000003a
:100e2c00509000009151000093530000529200002a
:100e3c0096560000579700005595000094540000fa
:100e4c009c5c00005d9d00005f9f00009e5e0000aa
:100e5c005a9a00009b5b00009959000058980000ba
:100e6c0088480000498900004b8b00008a4a00002a
:100e7c004e8e00008f4f00008d4d00004c8c0000fa
:100e8c00448400008545000087470000468600002a
:100e9c00824200004383000041810000804000003a
:100eac00596f00006e6700004369000000000000ed
:020000040000fa
:100ebc00881f7800000478009800900050a52a0044
:100ecc00808f50000d003a0070c7b300984f10008f
:100edc000a003a00e2a2a900cb02a800cb62a8004b
:100eec00cbc2a900ca82a800e2a2a900cb02a8002a
:100efc00cb62a800cbc2a900ca82a800480190000e
:100f0c008001eb0068009000f8009000591d07006c
:100f1c000004e00010003200e2a2a900cb02a800fd
:100f2c00cb62a900cbc2a800ca82a900e2a2a90088
:100f3c00cb02a800cb62a900cbc2a800ca82a90030
:100f4c000000eb0010049800004c78000060fe00dc
:100f5c0050a52a00200498004f04780000000600d9
:100f6c00881f7800000478009800900050a52a0093
:100f7c00808f50000d003a0070c7b300984f1000de
:100f8c000a003a00e2c2a900cb22a800cb82a8003a
:100f9c00cbe2a900caa2a800e2c2a900cb22a800f9
:100fac00cb82a800cbe2a900caa2a80048019000fd
:100fbc008001eb0068009000f80090002d1d0700e8
:100fcc000004e00010003200e2c2a900cb22a8000d
:100fdc00cb82a900cbe2a800caa2a900e2c2a90058
:100fec00cb22a800cb82a900cbe2a800caa2a90000
:100ffc000000eb0010049800004c78000060fe002c
:10100c0050a52a00200498004f0478000000060028
:10101c00881f7800000478009800900050a52a00e2
:10102c00808f50000d003a0070c7b300984f10002d
:10103c000a003a00e862a900cb42a800cba2a800a3
:10104c00e282a900e902a800e862a900cb42a8004c
:10105c00cba2a800e282a900e902a80048019000f6
:10106c008001eb0068009000f8009000011d070063
:10107c000004e00010003200e862a900cb42a80096
:10108c00cba2a900e282a800e902a900e862a900ab
:10109c00cb42a800cba2a900e282a800e902a900d9
:1010ac000000eb0010049800004c78000060fe007b
:1010bc0050a52a00200498004f0478000000060078
:1010cc00881f78000004780098009000a0aa2a00dd
:1010dc00808f50000d003a0070c7b300984f10007d
:1010ec000a003a00cb62a900cbc2a800e2a2a80079
:1010fc00cb02a900ca82a800cb62a900cbc2a8006f
:10110c00e2a2a800cb02a900ca82a8003801900074
:10111c008001eb0068009000f8009000d51c0700df
:10112c000004e00010003200e2a2a900cb02a800eb
:10113c00cb62a900cbc2a800ca82a900e2a2a90076
:10114c00cb02a800cb62a900cbc2a800ca82a9001e
:10115c000000eb0010049800004c78000060fe00ca
:10116c00a0aa2a00200498004f0478000000060072
:10117c00881f78000004780098009000a0aa2a002c
:10118c00808f50000d003a0070c7b300984f1000cc
:10119c000a003a00cb82a900cbe2a800e2c2a80068
:1011ac00cb22a900caa2a800cb82a900cbe2a8003e
:1011bc00e2c2a800cb22a900caa2a8003801900064
:1011cc008001eb0068009000f8009000a91c07005b
:1011dc000004e00010003200e2c2a900cb22a800fb
:1011ec00cb82a900cbe2a800caa2a900e2c2a90046
:1011fc00cb22a800cb82a900cbe2a800caa2a900ee
:10120c000000eb0010049800004c78000060fe0019
:10121c00a0aa2a00200498004f04780000000600c1
:10122c00881f78000004780098009000a0aa2a007b
:10123c00808f50000d003a0070c7b300984f10001b
:10124c000a003a00cba2a900e282a800e862a8003a
:10125c00cb42a900e902a800cba2a900e282a80017
:10126c00e862a800cb42a900e902a800380190006e
:10127c008001eb0068009000f80090007d1c0700d6
:10128c000004e00010003200e862a900cb42a80084
:10129c00cba2a900e282a800e902a900e862a90099
:1012ac00cb42a800cba2a900e282a800e902a900c7
:1012bc000000eb0010049800004c78000060fe0069
:1012cc00a0aa2a00200498004f0478000000060011
:1012dc003600f800809fbe00829fbe00849fbe0037
:1012ec00869fbe0084e0a9000060fe0020d4200090
:1012fc001080fb006600b9000080e800e1d22000fd
:10130c00614078000040e9008080fb0042c1b300de
:10131c000440bc00c3ca2000e341790082c8b3007a
:10132c0082cf510025003a007409b9000281e8000f
:10133c00c3ca2000630179000200e0001f003a00dc
:10134c00740ab900840078000181410074c7b300ad
:10135c0004497800a4aa2a0014019800446d800066
:10136c00556d80006401980075019800f080400074
:10137c0042c1b3000440bc0003004100e38078008c
:10138c000100010021d420001140e80080487800c1
:10139c008100e900914f50000700310062c0b3009a
:1013ac000440bc0064004100f380500061007800f0
:1013bc00c31b070001003700c91b07004f03be0009
:1013cc004f02be004f01be004f00be003600f900b8
:1013dc000040060050a52a000043880000000600cb
:1013ec006028ef0000000600c0ca20001004e000d6
:1013fc000f003a00706580000000e0000c003a001d
:10140c00806580000000e00009003a0000cc20005c
:10141c001004e00006003a00106680000000e000b6
:10142c0003003a00206680000000e0000200320059
:10143c005e28ef004800370090c0a9005824ef0048
:10144c009823ef00608e20009080fb0020cb2000c2
:10145c0063884000708e20009080fb0060cc2000e0
:10146c0063884000808e20009080fb00a0cd20007f
:10147c006388400020d420000048eb000000e90005
:10148c0010407800e14f50001500360061d3200069
:10149c0000c0e90062c0b3000440bc006683400099
:1014ac0002034300c5ca200084c8b3008001eb00ce
:1014bc001140e90042c1b3000440bc00028142006b
:1014cc00044978000280e8000308780011009000bd
:1014dc0050019800e6804000868f5000f4ff3a00df
:1014ec0000d320001040e900c1ca200042c1b30063
:1014fc000440bc000280400073c7b300034878006e
:10150c00a3aa2a0013009800446d8000556d80003a
:10151c00640098007500980070014100e1007900aa
:10152c000100010021d420001140e800804878001f
:10153c008100e900914f50000600310062c0b300f9
:10154c000440bc0064004100f3805000610078004e
:10155c00521b07000060fe0000000600889fbe00c2
:10156c008a9fbe008c9fbe008e1f78006008e20030
:10157c00420032000060fe0070d5200090407800e0
:10158c000104e0000e003200c0ca20001004e0008c
:10159c0006003a00706580000000e00003003a008d
:1015ac00826580000200e000020032005e28ef003d
:1015bc00320037000040e800814f5000fdff390039
:1015cc0090c0a9005824ef009823ef00608e2000f3
:1015dc009080fb0020cb200063884000708e2000a0
:1015ec009080fb0060cc200063884000808e20003f
:1015fc009080fb00a0cd20006388400058d42000d0
:10160c00720544002bfd2f00808545007ec7b3007a
:10161c008cda20001804e00013003200184090000f
:10162c000040e90042c1b3000440bc000280450008
:10163c000e487800a1aa2a0011009800ec06400080
:10164c00bc1e7800ac1678000060fe0070014100f2
:10165c00eb00790001000100bc1e7800ac1678008c
:10166c000040eb00004c7800660444008a0f5400e4
:10167c00e8ff3a0070d520000048eb004f077800d7
:10168c004f06be004f05be004f04be000000060012
:10169c00889fbe008a9fbe008c9fbe008e1f780064
:1016ac006008e200420032000060fe0070d52000ad
:1016bc00904078000104e0000e003200c0ca200007
:1016cc001004e00006003a00706580000000e000a5
:1016dc0003003a00826580000200e0000200320044
:1016ec005e28ef00320037000040e800814f5000c8
:1016fc00fdff390090c0a9005824ef009823ef009b
:10170c00908e20009080fb0040cb2000638840002e
:10171c00a08e20009080fb0080cc200063884000cd
:10172c00b08e20009080fb00c0cd2000638840006c
:10173c0058d42000720544000bfd2f008085450015
:10174c007ec7b3008cda20001804e00013003200ce
:10175c00184090000040e90042c1b3000440bc00b6
:10176c00028045000e48780051a52a00110098000f
:10177c00ec064000bc1e7800ac1678000060fe0041
:10178c0072014100eb00790001000100bc1e7800e1
:10179c00ac1678000040eb00004c78006604440066
:1017ac008a0f5400e8ff3a0070d520000048eb0087
:1017bc004f0778004f06be004f05be004f04be0019
:1017cc0000000600889fbe006008e2003000320076
:1017dc008081fb0042c1b3000440bc00c4ca20009d
:1017ec00644179000204e0000c003a00741ab9005c
:1017fc000481e800c4ca2000640179000200e00002
:10180c0006003a00741ab90064014200c4ca2000f0
:10181c00640179000200e000020032005e28ef0053
:10182c001b00370090c0a9005824ef009823ef004c
:10183c000060fe00c4ca20007419b900820178004f
:10184c000301420075c7b30005497800a5aa2a0018
:10185c0015019800ec04410088da2000b81c7800cf
:10186c00a814780066014100638940000060fe0006
:10187c00f081410042c1b3000440bc0004004100af
:10188c00e480790001000100b81c7800a8147800ed
:10189c004f04be0000000600889fbe006008e200f6
:1018ac00300032008081fb0042c1b3000440bc0018
:1018bc00c4ca2000644179000204e0000c003a0024
:1018cc00741ab9000481e800c4ca200064017900cc
:1018dc000200e00006003a00741ab90064014200ec
:1018ec00c4ca2000640179000200e000020032004a
:1018fc005e28ef001b00370090c0a9005824ef00b1
:10190c009823ef000060fe00c4ca20007419b900cf
:10191c00820178000301420075c7b30005497800c5
:10192c0055a52a0015019800ec04410088da200026
:10193c00b81c7800a8147800680141000189e800ff
:10194c000060fe00f281410042c1b3000440bc00c3
:10195c0004004100e480790001000100b81c78000b
:10196c00a81478004f04be0000000600881f780001
:10197c000060fe0070658000a1aa2a00810f500053
:10198c000d003a0071c7b300c2ca200092cf1000fc
:10199c0009003a000060fe0090c0a9005824ef0036
:1019ac009823ef0002007800e1658000010001003f
:1019bc0018c8b300100037000044eb0051a52a00f2
:1019cc00810f50000c003a0070c7b300c1ca200050
:1019dc00914f100008003a000060fe0090c0a90072
:1019ec005824ef009823ef0001007800f165800087
:1019fc000100010028c8b30010668000a1aa2a00cb
:101a0c00810f50000e003a0071c7b30002cc2000c9
:101a1c0092cf10000a003a000060fe0090c0a900ae
:101a2c005824ef009823ef000200780081668000b4
:101a3c000100010040c8b3000044740010003700de
:101a4c0051a52a00810f50000d003a0070c7b30059
:101a5c0001cc2000914f100009003a000060fe00fc
:101a6c0090c0a9005824ef009823ef0001007800e3
:101a7c00916680000100010080c8b300004474002e
:101a8c00c0ca20001040780081c8b300814f5000bc
:101a9c000600320002cc200092cf1000030032006e
:101aac007401410092cf100001003a000864a000bc
:101abc0071c7b300814f500007003200014078001d
:101acc0001cc2000914f100003003200f480400044
:101adc00914f100001003a000874a00008407800f3
:101aec004f047800000006008042eb00c0ca2000c2
:101afc00054878000000eb00706588008065880060
:101b0c002403200094658800e1012000a165880071
:101b1c00b06588006011b800c2658800d365880084
:101b2c0066912000e6658800e6802000f665880056
:101b3c000060fe0006cc2000004b78001066880088
:101b4c0020668800346688004166880050668800ec
:101b5c006266880073668800e68b200086668800c3
:101b6c00667b2000966688000060fe0046cd200053
:101b7c00054b7800b0668800c0668800d466880083
:101b8c00e1668800f06688000267880013678800a9
:101b9c006086200020678800e07520003067880090
:101bac000060fe00000006000060fe0040ca20003d
:101bbc00a041880080c0b30036e8b7006028ef0071
:101bcc00e462a900c7a2a900de82a900c742a9004d
:101bdc00e862a900cb42a800cba2a900e282a8002f
:101bec00e902a9000060fe00dec2a900c782a900bc
:101bfc00c7e2a900c722a900e2c2a900cb22a80013
:101c0c00cb82a900cbe2a800caa2a9000060fe000a
:101c1c00dea2a900c762a900c7c2a900c702a90019
:101c2c00e2a2a900cb02a800cb62a900cbc2a800fb
:101c3c00ca82a9000060fe005e28ef000060fe0072
:101c4c00a9ff0700406d8000516d8000606d880019
:101c5c00716d8800a06d8800b16d8800e06d880002
:101c6c00f16d8800206e8800316e8800606e8800ef
:101c7c00716e8800401f200001002000406e88001b
:101c8c00516e88008000eb0091688800a168880084
:101c9c000040eb0062d12000014978008200e8008e
:101cac00804878008100e800804878008100e800d6
:101cbc00804878008100e800804878008100e800c6
:101ccc008048780081d22000804878008100e800ac
:101cdc00804878008100e80080487800e58050005a
:101cec00804878008100e800804878008100e80096
:101cfc00804878000060fe00e48040008048780056
:101d0c00e9805000804878008100e8008048780025
:101d1c008100e80080487800e88040008048780026
:101d2c005028ef00aefd0700000006008065800023
:101d3c00a1aa2a00810f500006003a000060fe00a4
:101d4c00228d200020002f00f10720006d1a0700c3
:101d5c000800370051a52a00810f500005003a00f9
:101d6c000060fe00428d200040002f00f107200093
:101d7c00641a070020668000a1aa2a00810f500077
:101d8c0006003a000060fe00628d200060002f000b
:101d9c00f10720005b1a07000800370051a52a0044
:101dac00810f500005003a000060fe00828d20007b
:101dbc0080002f00f1072000521a07000000eb00f2
:101dcc008065880020668800c06688000060fe0080
:101ddc0000000600889fbe0010cfb3007165800024
:101dec000100e000d0003a00116680000100e00024
:101dfc00cd003a0090c0a800f00b2000c022880053
:101e0c009823ef00361907000060fe008065800003
:101e1c000000e00003003a00206680000000e000b3
:101e2c001d00320090c0a800f00b2000c0228800da
:101e3c009823ef000060fe00003220005041880023
:101e4c002c28ef00b9ff070052150700446d8000e5
:101e5c00556d800074418800854188000000eb00be
:101e6c007065880010668800b06688008040eb00c2
:101e7c00c2ca200000497800740141000149780071
:101e8c007401410001497800806588002066880053
:101e9c00c066880052fd07007241800083418000bb
:101eac0080da200030021100a0821900504180001d
:101ebc0061418000800f5200818f5a000c00390064
:101ecc00804280008c0307000080eb008080eb00d8
:101edc005041880061418800704188008141880030
:101eec005028ef0040d120000008eb003cfd07001b
:101efc000060fe00c0dc2000801907000004e00038
:101f0c0006003200a81407000060fe00406d80003f
:101f1c00516d8000606e8800716e8800c0db2000ff
:101f2c00761907000004e000060032008f0b070052
:101f3c000060fe00446d8000556d8000e46d8800eb
:101f4c00f56d8800bb0907000004e00005003200b5
:101f5c005e08f8005008f9005e28ef0000c0eb00a6
:101f6c0071003700c8cf2000ea0444000800780054
:101f7c00911a07000004e0000500320019417800b6
:101f8c00e1cf200008007800fe0f0700f7ff3700b4
:101f9c0040db2000591907000004e00003003a0060
:101fac00b0d220001004e000100032000060fe00ef
:101fbc00800a070040be200035c0b30090cf12004d
:101fcc0004003a00906880000000e00001003a0034
:101fdc00db010700b0d220000048eb00406d800010
:101fec00516d8000a06d8800b16d88000060fe000e
:101ffc0040dc2000411907000004e0001900320009
:10200c003185200091407800f0ff2d007b150700f2
:10201c0053e8ee00b0d1200080c0eb0090cf100050
:10202c000c003a005248ec0052e8b700e94f50005f
:10203c00080036006000b80028110700401f20007f
:10204c0001002000406e8800516e8800b0d1200045
:10205c000048eb00446d8000556d8000246e8800b4
:10206c00356e88000060fe00c0da200023190700de
:10207c000004e00007003200fb170700f043880063
:10208c0001448800406d8000516d8000606d8800b7
:10209c00716d880060d1200080c0eb0090cf1000e3
:1020ac0018003a00c0dd2000141907000004e000fd
:1020bc001400320090c0a800f00b2000c022880051
:1020cc009823ef0078d1200061c0b300184078004d
:1020dc00640007000060fe00004ceb000000eb0009
:1020ec00906888008800e90080487800a068880023
:1020fc00bbfc070052c0b300984f110001003a001e
:10210c003b1507000040eb0081d1200000c2eb0022
:10211c00914f120004003a001c08070080d12000e7
:10212c000048eb000040eb004f04be00000006002e
:10213c000efe07000004e000fdff3a00e862a90073
:10214c00cb42a800cba2a900e282a800e902a90018
:10215c00e2c2a900cb22a800cb82a900cbe2a80046
:10216c00caa2a900e2a2a900cb02a800cb62a900d6
:10217c00cbc2a800ca82a90016ff0700ecff3700eb
:10218c000040eb0011d42000804878008100e90069
:10219c00804878008180e80080487800f380500007
:1021ac00804878008100e800804878008000eb00cf
:1021bc0091698800e2d22000014978006701410052
:1021cc00004978000201e80000497800c1698800e4
:1021dc000281e9000049780067014100004978005c
:1021ec000201e80000497800f16988000281e900e9
:1021fc000049780072d52000004978000201e900fe
:10220c00004978000281e800004978007301510010
:10221c00004978000201e80000497800416a880012
:10222c000281e9000049780067014100004978000b
:10223c000201e80000497800716a88000281e90017
:10224c000049780067014100004978000201e8006c
:10225c0000497800a16a88008280e90080487800f3
:10226c00000006001200fa007281570003000900fa
:10227c000019eb0072815700e2bf9f0000c1eb0018
:10228c00e2ff9f000060fe00e2bc20001281fb0018
:10229c00023cb300cf91de00b2bf9f00c3bf9f00d2
:1022ac0042c1b300e2ef9f006fb997001041980054
:1022bc006fb8970021409800a1cab3006fb897007f
:1022cc003140980040c0b300a0ff9f000060fe00aa
:1022dc006a805700120d07000080fa00000006000b
:1022ec00e6874700889fbe008a9fbe008e1f78003d
:1022fc000004be006e805700000009000018eb00bf
:10230c000058eb0050c0b30051cab300128e20002d
:10231c0092cf1000a8003200c84090000108a30022
:10232c00030032000060fe0020c0b300a2003700a2
:10233c0020c0b300e1cf50009f0036003800900061
:10234c009045780010459000a0c0b300e18d2000ae
:10235c0012c0b300914f110097003a008100e800c1
:10236c00914f110094003a008100e800914f110048
:10237c0091003a008c1307000000e00006003a00c0
:10238c000060fe0091c0b3000b407800b5ff070061
:10239c0090c0b30088003700484090000080fb00dc
:1023ac000080e90022002000110009000200d80082
:1023bc000042e80030c0b300804f52007e003e0067
:1023cc000404e000250032008a82fb008040650096
:1023dc00a1f79f00780032006e8757008040eb0019
:1023ec000600370082a9de00e3c16100036f7800ac
:1023fc000281e8000304e0006e0032008140e80036
:10240c00814f5200f7ff3e00e24f520006003a00a7
:10241c0030c0b300bff09700aff1970081cf5100ef
:10242c006a003a0064003700e34f52000b003a0098
:10243c002ff19700bff1970030c0b300834f5100cc
:10244c005d003200cff0970081cf51005a0032006e
:10245c00814f51005d003a005700370010d4200026
:10246c00044878000000e9000a4878000080e80081
:10247c000048eb007300500000c8eb000000e800bf
:10248c00aff09700014878000080e8000008eb00ee
:10249c00e14f520011003600590037000748780010
:1024ac00de41780013409800b8019000e3c2780038
:1024bc00c82add008181410073fb97000683fb0075
:1024cc00e3014000850973000241e800660040000a
:1024dc008180e800824f5200f0ff3e00e24f520034
:1024ec000a003e0004407800e3d220008040eb005c
:1024fc0062c0b3000440bc0002814100114198004d
:10250c000040e800e34f5000f9ff3a0070d1200082
:10251c000b487800494090000004e0000a003200ab
:10252c000040eb008080fb00b9019000026b800042
:10253c0063f178000060fe000040e800c9409000a4
:10254c0080cf5000f7ff3e00906880000000e00054
:10255c0013003a000060fe0009007800700c0700c0
:10256c00e04280008000eb00006f8800116f880053
:10257c00406d8000516d8000e06e8800f16e880027
:10258c000060fe00505525009068880060d1200046
:10259c0000c8eb00131407000040eb0006003700e6
:1025ac001314070020d120000008eb0080c0b300fa
:1025bc000100370030c0b3004f0778004f05be0054
:1025cc004f04be006f00b1000000060010d42000c4
:1025dc00044878000000e9000a4878000080e80010
:1025ec000048eb007300500000c8eb000000e8004e
:1025fc00aff09700014878000080e8000008eb007d
:10260c0050d320006e8757003100200012c0b30059
:10261c0080c3eb00a1ff3700889fbe008a1f7800a3
:10262c0080047800010578000244780050c0b300a3
:10263c0051cab300128e200092cf10003d00320020
:10264c00e24f54000500320010c0b30051a52a001f
:10265c00e44f540037003a0001003700a1aa2a00c9
:10266c0090688000810f500004003a0060d1200077
:10267c0080c0eb0090cf1000070032000060fe001d
:10268c0071c0b30008407800f6fe07000000eb00b4
:10269c0090688800a0688800c9419000e1cf510083
:1026ac000e00360039019000c0c0b300b1d020003c
:1026bc0052427800914f52001e003a0010c0b300f5
:1026cc000300370052427800d14f520018003a00f4
:1026dc000040e800834f5000faff390070d1200011
:1026ec00084878003bfb070060d120000048eb0055
:1026fc00640050000008eb000060fe000a00780047
:10270c00070c0700e24f540003003a0093fb07004c
:10271c000040eb00070037000040eb00e44f540092
:10272c0004003a00dafb07000040eb000100370020
:10273c00c0c0b3004f0578004f04be000000060077
:10274c001200fa0072805700030009000018eb0019
:10275c0072805700e0bf9f0000c0eb00e0ff9f00bd
:10276c000060fe00e0bc20001080fb00f003b20013
:10277c000034b300cf80de00b0bf9f00c1bf9f000c
:10278c00a0c9b300e0ef9f0092d2200092407800e5
:10279c00200020008008dd00014978008200e8005c
:1027ac0091417800450020008519dd0083487800b0
:1027bc0064825000944178008019dd00034a78004f
:1027cc00e3815000134378008532dd0085497800a1
:1027dc006783500096427800802add00054b780014
:1027ec000603e800964378000038dd00004b7800c3
:1027fc0000c072000683e900164070006fbb9700a2
:10280c00104398006580500014427800104072000c
:10281c00934170006fb89700234098000180e90045
:10282c001241780010407100914070006fb8970011
:10283c0031409800308e20001004e00005003a0072
:10284c000060fe0011c0b3006fb8970041409800c3
:10285c00040037000060fe008040eb006fb897006a
:10286c0041409800118e20006fb89700914078007d
:10287c005140980060c0b300a0ff9f006a805700d1
:10288c00a70b07000060fe000040eb0051d22000b7
:10289c00804878008100e800804878008100e800da
:1028ac00804878000080fa0000000600881f78003d
:1028bc00800078004141900020c0b300e34f5100ec
:1028cc0022003a003100900010419000a04290008c
:1028dc008240e90030c0b300e6cf50001b003e0040
:1028ec0051d420000000eb008041eb000282fb0081
:1028fc000344780080c3eb000003eb0000a1de0072
:10290c000208a30007003200874878000041e80065
:10291c009240980063814000060978008341e800ea
:10292c0001003700884878000000e800e68040008d
:10293c00e30f5000f1ff3a0070d5200003487800f7
:10294c000080e800054878000040eb004f04780058
:10295c0000000600889fbe008a9fbe008c1f780076
:10296c001ac0b300324480004344800010438000fe
:10297c002143800051f707000000e0000100350002
:10298c000045eb00e08d20001046780019c0b30024
:10299c0072448000834480003043800041438000b7
:1029ac0046f707000000e000010035008044eb0012
:1029bc00f08d20009045780018c0b300b244800020
:1029cc00c344800050438000614380003bf7070004
:1029dc000000e000010035000044eb00008e2000f8
:1029ec009041780050d42000720140001004e000a7
:1029fc001500320090409000e2cf500009003200e8
:102a0c00e3cf50000c003200e1cf500017003a0029
:102a1c000a04e00017003a00e14f56000a003200a9
:102a2c00160037000904e00016003a00e1cf55000b
:102a3c0005003200150037000804e00015003a00cc
:102a4c00e1cf510015003a0066004000820f5000a3
:102a5c00e6ff3a0030c0b30071d520001104e0004d
:102a6c000f0032000040eb000d00370030c0b30007
:102a7c000b00370090c0b30009003700a0c0b300b2
:102a8c000700370090c0b30005003700a0c0b300aa
:102a9c000300370090c0b30001003700a0c0b300a2
:102aac004f0678004f05be004f04be000000060024
:102abc00889fbe008a9fbe008c1f78001ac0b3008e
:102acc003244800043448000104380002143800046
:102adc00faf607000000e000010035000045eb00ad
:102aec00e08d20001046780019c0b30072448000bd
:102afc00834480003043800041438000eff60700a0
:102b0c000000e000010035008044eb00f08d200057
:102b1c009045780018c0b300b2448000c3448000d4
:102b2c005043800061438000e4f607000000e000a1
:102b3c00010035000044eb00008e2000904178002d
:102b4c0050d42000720140001004e0001500320047
:102b5c0090409000e2cf500009003200e3cf5000cb
:102b6c000c003200e1cf500017003a000a04e000dc
:102b7c0017003a00e24f56000a00320016003700e8
:102b8c000904e00016003a00e2cf550005003200bf
:102b9c00150037000804e00015003a00e2cf5100a0
:102bac0015003a0066004000820f5000e6ff3a0024
:102bbc0030c0b30071d520001104e0000f003200ca
:102bcc000040eb000d00370030c0b3000b003700a5
:102bdc0090c0b30009003700a0c0b3000700370055
:102bec0090c0b30005003700a0c0b300030037004d
:102bfc0090c0b30001003700a0c0b3004f067800ae
:102c0c004f05be004f04be0000000600889fbe00aa
:102c1c008a9fbe0080047800010578008245780008
:102c2c0058c0b30050cab300118e2000914f100051
:102c3c002d003200906880000000e000040032009b
:102c4c0020d120000008eb0088c0b300260037001c
:102c5c000900780015ff0700004478000804e00024
:102c6c0021003a00e1cf550004003a0039ff07007b
:102c7c0000447800abaa2a000600370018c0b30045
:102c8c00e3cf550018003a0089ff07000044780094
:102c9c005ba52a000804e00013003a000060fe0067
:102cac00494190000281fb00b9009000a0d02000a7
:102cbc0074f7070060d1200000c8eb000a00780010
:102ccc00970a07009b688800e04280008000eb00b8
:102cdc00006f8800116f8800406d8000516d80007e
:102cec00e06e8800f16e8800084078004f05be0049
:102cfc004f04be0000000600881f78000004780016
:102d0c000800e0000a003a00a86880000800e00013
:102d1c008100320020d6200000c8eb005055250061
:102d2c00800f540016003200a0d520007c0a07004a
:102d3c0040a22a00800f54003b00320008003e00e5
:102d4c000080e900800f54000d00320021003e008d
:102d5c0050552500800f54006f003a0008003700d2
:102d6c0060a22a00800f54004d0032003d00390053
:102d7c000000e800800f540067003a00570037004d
:102d8c00e08d200021c0b30090cf100006003a0067
:102d9c000000e80090cf100003003a000000e800ab
:102dac0090cf100008003200b1c0b30070d12000e9
:102dbc00104078002bfd070021cbb300c0d22000bf
:102dcc000148780057003700c0d220000048eb00c3
:102ddc0059003700e08d200011c0b30090cf1000d7
:102dec0006003a000000e80090cf100003003a0003
:102dfc000000e80090cf100008003200b1c0b30012
:102e0c0070d120001040780016fd070031cbb300c4
:102e1c00c0d220000148780042003700c0d2200008
:102e2c000048eb0044003700e08d200021c0b300c7
:102e3c0090cf100008003200b1c0b30070d1200058
:102e4c001040780007fd070041cbb300c0d2200032
:102e5c000148780033003700c0d220000048eb0056
:102e6c0035003700e08d200011c0b30090cf10006a
:102e7c0008003200b1c0b30070d1200010407800bf
:102e8c00f8fc070051cbb300c0d2200001487800f9
:102e9c0024003700c0d220000048eb002600370089
:102eac00f08d200021c0b30090cf1000080032003c
:102ebc00b1c0b30070d1200010407800e9fc0700cd
:102ecc0061cbb300c0d22000014878001500370058
:102edc00c0d220000048eb0017003700f08d200016
:102eec0011c0b30090cf100008003200b1c0b30085
:102efc0070d1200010407800dafc070071cbb300d1
:102f0c00c0d220000148780006003700c0d2200053
:102f1c000048eb0008003700c0d220001004e0008d
:102f2c00050032004006200001002000406e8800a1
:102f3c00516e880004003700401f20000100200063
:102f4c00406e8800516e8800b0d2200000c8eb00a3
:102f5c004f047800000006001200fa00889fbe00a3
:102f6c008a9fbe00f0805700030009008018eb0018
:102f7c00f0805700e1b79f00e1bc20001181fb00fd
:102f8c00023cb300cf91de00b2b79f00c3b79f00e5
:102f9c0080c0eb00e1ef9f003000900010449000e7
:102fac00a044900020c9b30080f79f00894f5400c3
:102fbc0027003e008ac0b3008045eb000060fe0095
:102fcc00608320000a487800418320000840780084
:102fdc00d3010700ef4f400002003200ed4f4000dc
:102fec0005003a000060fe0021c0b3006fb09700ee
:102ffc00104078009bfc07006fb0970018409800b9
:10300c0036c8ec00a0ef9f000b0032000b4078009c
:10301c008080fb006fb1970001014100a34180004b
:10302c00e3c17800234198000040e800afe8970026
:10303c0080cf5000f6ff3e000060fe007a80570003
:10304c00b70907000844e80088cf5400dbff3100c3
:10305c004f05be004f04be000080fa0000000600c1
:10306c00889fbe008004780001047800390090002d
:10307c0010417800f34f5100a1003e00e0bc20004d
:10308c001080fb00003cb300cf80de00008cbe0043
:10309c0038009000824078000174a000014878004c
:1030ac000060fe00ef4f51000a003e0050c5b30017
:1030bc00118e2000914f100006003a000060fe00b7
:1030cc003900900051c0b3001040780065fc070037
:1030dc008b0037001800be00d06a8800e16a8800b7
:1030ec00b8009000006b800011487800e54f51004b
:1030fc0011003e0049409000e14f50000d00360099
:10310c0011c0b3000060fe000180fb00b80190000c
:10311c0039029000e471780038029000036b800053
:10312c00e47178008140e80049409000814f5000e4
:10313c00f4ff3e0040449800e0d52000c9409000c8
:10314c0001487800e44f51002c00320006003e008c
:10315c00e24f5100150032001e003e00e14f5100bd
:10316c0062003a0007003700f14f51003100320085
:10317c00f24f51005a003200e54f51005b003a000b
:10318c002800370012c0b3008800780009007800ce
:10319c009efe07000004e0005900320080407800d9
:1031ac0010c0b3002ffc07005500370022c0b3003d
:1031bc00880078000900780017fd07000004e00083
:1031cc004f0032008040780020c0b30025fc07007f
:1031dc004b00370032c0b30088007800090078003b
:1031ec008afe07000004e0004500320080407800b1
:1031fc0030c0b3001bfc07004100370042c0b300d5
:10320c00880078000900780003fd07000004e00046
:10321c003b0032008040780040c0b30011fc070036
:10322c003700370088007800090078002cfc070074
:10323c00330037000060fe0038009000b9009000a9
:10324c009140900011409800390090008080e80077
:10325c00a14188001040900041832000010107002b
:10326c00e14f400006003a000060fe00390090007b
:10327c0011c0b30010407800fafb070020003700a3
:10328c000004e000060032000060fe0039009000ef
:10329c0021c0b30010407800f2fb07001800370083
:1032ac0038009000a14180009140780021409800a6
:1032bc0038009000a141800091409000314098006e
:1032cc0036c8ec00404498000060fe00080078000e
:1032dc001309070080d1200000c8eb00080037005c
:1032ec00090078001cff0700050037000060fe0095
:1032fc003900900011c0b30010407800d9fb0700d2
:10330c004f04be00000006003600f800809fbe008f
:10331c00829fbe00849fbe00869fbe003228ef00b5
:10332c0086e0a90090c0a9005824ef009823ef0074
:10333c009168800050552500808f500006003200a7
:10334c0090c0a800f00b2000c02288009823ef004a
:10335c00a71007003100370060d120001004e000f6
:10336c0006003a0090c0a800f00b2000c022880094
:10337c009823ef009e100700280037009041800032
:10338c008041eb00034278008002eb000100370023
:10339c00050078000304a2000381fb000500370040
:1033ac000000e800e10f400002003a009041880064
:1033bc001a003700a1168000c908de00e180600009
:1033cc00828f5000f6ff3200fe005000f48f500048
:1033dc000200360090418800100037000442e800db
:1033ec00e44f5200eaff3a003228ef00d522ab003e
:1033fc000a003200e44f520008003a000000eb00d3
:10340c009068880061d1200080487800f6f70700aa
:10341c0050552500a0688800751007004f03be00aa
:10342c004f02be004f01be004f00be003600f90037
:10343c0000400600204190000204e000070032002a
:10344c001001780091009000114978000060fe0096
:10345c0011c0b30021409800030037008040eb00fe
:10346c00214098000060fe00000006002041900002
:10347c000204e00007003200910090001001780077
:10348c00924878000060fe0011c0b3002140980003
:10349c00030037008040eb00214098000060fe00e4
:1034ac000000060020419000e14f51000b00360057
:1034bc00910090009100780010017800014978008b
:1034cc000060fe0010017800c808de001141980071
:1034dc0021c0b30021409800030037000060fe00bb
:1034ec008040eb0021409800000006002041900035
:1034fc00e14f51000b00360022c0b300224098006f
:10350c0010007800104190000281fb000060fe006a
:10351c004811dd00910090001080fb0080087100c4
:10352c00030037000060fe008040eb002140980053
:10353c00000006000400fa0020419000e14f510009
:10354c000f003600910090001101be00e2bf9f00f9
:10355c00f3bf9f00658157008000eb00900178005d
:10356c005242780084f178000060fe008100e8008f
:10357c00e48f5000f9ff3a00214098000300370017
:10358c000060fe008040eb00214098000080fa00b3
:10359c0000000600881f7800000478002840900086
:1035ac00e14f50000f003600110090000200200087
:1035bc00832c24001000be00b4f4070043f4070071
:1035cc0098007800804878000060fe009800780031
:1035dc004800de009040980020c0b30020449800c2
:1035ec00030037000060fe000040eb002044980010
:1035fc004f04780000000600889fbe00000478008d
:10360c0028409000e14f500011003600180078005f
:10361c0090419000c819dd001081fb00030071007f
:10362c000060fe00910490008000eb0042f4070063
:10363c00a2702d0033c2230094f40700808cbe00ce
:10364c000060fe0020c0b300204498000300370047
:10365c000060fe000040eb00204498004f04be00c8
:10366c0000000600889fbe008a1f78008104780045
:10367c00839020008000eb000060fe0001047800c5
:10368c00934f10001e003a0001407800a2c0b30016
:10369c000440bc0080902000000541006a41b90044
:1036ac00e6004100608178008a007800090078000b
:1036bc0002000100a940900010cfb3000104e0000b
:1036cc00140032000060fe006a40b900680440003b
:1036dc008090200060017c008a007800090078004e
:1036ec00020001000060fe00a94090000040eb00c9
:1036fc000104e00007003a0020cfb30005003700ba
:10370c008100e800ea814100fb8f5000daff3a00ab
:10371c0000c0eb004f0578004f04be00000006000f
:10372c00881f78000104780001c4b300814f500059
:10373c001d003e00839020008000eb000060fe0026
:10374c0001027800934f100011003a000060fe0057
:10375c006a22b90068024200839020000140780080
:10376c00a2c0b3000440bc0083004100e3017a0016
:10377c000800780003000100a84090000040eb0016
:10378c000104e00024003a0010cfb30022003700ff
:10379c008100e800ea814100fb8f5000e7ff3a000e
:1037ac0020cfb3001c00370063a120008000eb0089
:1037bc000060fe0001027800934f100011003a00e7
:1037cc000060fe006a22b9006802420063a120007a
:1037dc0001407800a2c0b3000440bc00830041004b
:1037ec00e3017a000800780003000100a840900073
:1037fc000040eb000104e00007003a0030cfb300ba
:10380c00050037008100e800ea814100f58f500087
:10381c00e7ff3a0040cfb3004f04780000000600e9
:10382c0011c0b3008090200001487800208820004f
:10383c005048880022c2b300c09020000248780093
:10384c0021b021007148880000ad2100804888001b
:10385c000060fe0024c0b30023912000844978004e
:10386c0063882000a3488800639120008249780077
:10387c00c1488800d048880034c0b300e6814100bc
:10388c0084497800e3892000f348880003922000e3
:10389c0082497800114988002049880044c0b3004f
:1038ac00e681410084497800638a200043498800fe
:1038bc00a3922000824978006149880070498800f1
:1038cc0054c0b300e681410084497800a3882000ed
:1038dc00934988004393200082497800b1498800bd
:1038ec00c04988000060fe0064c0b300e68141005e
:1038fc0084497800e3882000e3498800e3932000a2
:10390c0082497800014a8800104a880074c0b300cc
:10391c00e681410084497800e38a2000334a88001c
:10392c008394200082497800514a8800604a8800bc
:10393c000060fe0084c0b300e68141008449780039
:10394c00638b2000834a88002395200082497800ed
:10395c00a14a8800b04a880094c0b300e6814100b7
:10396c008449780023892000d34a8800c39520001d
:10397c0082497800f14a8800004b88000060fe0004
:10398c00a4c0b300e681410084497800638920001b
:10399c00234b88006396200082497800414b8800b5
:1039ac00504b8800b4c0b300e681410084497800d4
:1039bc00e38b2000734b880003972000824978002a
:1039cc00914b8800a04b88000060fe00c4c0b3007f
:1039dc00e681410084497800638c2000c34b880049
:1039ec00a397200082497800e14b8800f04b8800b7
:1039fc00d4c0b300e681410084497800a38c200038
:103a0c00134c88004398200082497800314c880080
:103a1c00404c88000060fe00e4c0b300e681410029
:103a2c0084497800e38c2000634c8800e3982000e4
:103a3c0082497800814c8800904c8800f4c0b30017
:103a4c00e681410084497800c38e2000b34c880085
:103a5c008399200082497800d14c8800e04c880082
:103a6c000060fe0003c1b300e4992000034a780013
:103a7c00048f2000044d8800249a2000024a78000c
:103a8c00214d8800304d880015c1b30066024200fc
:103a9c00054a7800448f2000544d8800c49a2000b9
:103aac00024a7800714d8800804d88000060fe004d
:103abc0021c1b3006600420001487800c085200097
:103acc00a04d880002c1e9006a004200024878005b
:103adc00c1a72100c14d880080a52100d04d8800d0
:103aec0035c1b30070024200054a7800a48520005d
:103afc00f44d8800049c2000024a7800114e880086
:103b0c00204e88000060fe0041c1b30066004200f8
:103b1c0001487800608e2000404e88006a00420008
:103b2c0003487800c1a32100614e880000a2210047
:103b3c00704e880054c1b300029d200004497800e7
:103b4c00928e2000924e8800429d200003497800fe
:103b5c00b14e8800c04e88000060fe0064c1b30006
:103b6c006601410004497800728e2000e24e880004
:103b7c00e29d200003497800014f8800104f880017
:103b8c0074c1b3006601410004497800a28e200084
:103b9c00324f8800829e200003497800514f8800e4
:103bac00604f88000060fe0084c1b30066014100d4
:103bbc0004497800828e2000824f8800229f2000ca
:103bcc0003497800a14f8800b04f880094c1b3001e
:103bdc006601410004497800b28e2000d24f880063
:103bec00c29f200003497800f14f880000508800e4
:103bfc000060fe00a4c1b3006601410004497800d6
:103c0c00428e20002250880062a0200003497800d8
:103c1c004150880050508800b4c1b3006601410087
:103c2c0004497800828320007250880002a1200091
:103c3c000349780091508800a050880000000600cd
:103c4c000060fe0011c4b30060a1200001487800a0
:103c5c0020862000c0508800ffc05000a0a120008a
:103c6c00014878000000eb00e050880002ad210014
:103c7c00f250880024c4b30003a2200084497800c9
:103c8c00638620001351880043a2200081497800ec
:103c9c0030518800425188000060fe000442e80068
:103cac00e681410084497800a38620006351880096
:103cbc00e3a220008149780080518800925188004d
:103ccc000442e800e681410084497800e386200044
:103cdc00b351880083a3200081497800d05188001b
:103cec00e25188000442e800e681410084497800f2
:103cfc00e38720000352880023a420008149780028
:103d0c002052880003aa2100335288000060fe0074
:103d1c000442e80083a4200084497800238d20000d
:103d2c005352880004c2b300c3a420008449780015
:103d3c007052880083a521008352880076c4b3009a
:103d4c0025a52000864a7800458d2000a5528800c4
:103d5c0065a52000844a7800c0528800d3528800a0
:103d6c000060fe000643e800e6824200864a7800c6
:103d7c00658d2000f552880005a62000844a780045
:103d8c0010538800235388000643e800e682420063
:103d9c00864a7800858d200045538800a5a6200012
:103dac00844a780060538800735388000060fe00da
:103dbc000643e800e6824200864a7800a58d200082
:103dcc009553880045a72000844a7800b05388009a
:103ddc00c35388000643e800e6824200864a780016
:103dec00c58d2000e5538800e5a72000844a7800a3
:103dfc0000548800135488000060fe00c4c4b30053
:103e0c00e681420084497800e38d20003354880019
:103e1c0004c1b300ea814200844978005054880000
:103e2c0003a221006354880006c3e800f08242001c
:103e3c00864a7800f58d20008554880025a920003d
:103e4c00844a7800a0548800b35488000060fe00b7
:103e5c000643e800e6824200864a7800058e200080
:103e6c00d5548800c5a92000844a7800f0548800f5
:103e7c00035588000643e800e6824200864a780033
:103e8c00158e20002555880065aa2000844a7800ec
:103e9c0040558800535588000060fe000643e8003a
:103eac00e6824200864a7800258e200075558800ef
:103ebc0005ab2000844a780090558800a3558800f3
:103ecc000643e800e6824200864a7800358e2000e0
:103edc00c5558800a5ab2000844a7800e0558800c1
:103eec00f35588000060fe000643e800e6824200bd
:103efc00864a7800458e20001556880045ac200077
:103f0c00844a7800305688004356880034c5b30084
:103f1c00e68142008449780023872000635688009c
:103f2c00ea814200814978008056880092568800c8
:103f3c000442e800e6814100844978006387200050
:103f4c00b3568800f481420081497800d05688002d
:103f5c00e25688000442e800e6814100844978007a
:103f6c00a387200003578800fe8142008149780016
:103f7c002057880032578800000006000400fa0021
:103f8c0020419000e14f51000d0036009001780067
:103f9c00658157000f02e90033697800840f5100e6
:103fac00fdff3a00910090006fb99700ffb99700a0
:103fbc008288be0041c0b300214098000300370046
:103fcc000060fe008040eb00214098000080fa0069
:103fdc00000006000200fa00889fbe008a9fbe0007
:103fec00010478008000eb00b1bf9f000060fe0070
:103ffc000085fb004255dd0002102f00f307200066
:10400c004fd0de0002054500830548002840900093
:10401c000004e000160032008044eb000060fe005b
:10402c000980fb008000eb000000450081804d0002
:10403c006a815700ac1107000980fb0098007800da
:10404c006ff1970082707800a84090000108a300df
:10405c0003003a0018004000fff097001140980050
:10406c0089c4e80028409000894f5000ebff3e00c7
:10407c004f05be004f04be000080fa000000060091
:10408c000400fa00889fbe008a9fbe0001047800dd
:10409c008000eb00a1bf9f00b1bf9f000060fe003d
:1040ac000085fb004255dd0002102f00f3072000b5
:1040bc004fd0de00020545008305480028409000e3
:1040cc000004e000200032008044eb000060fe00a1
:1040dc00284090000008a30008003a000980fb006b
:1040ec008000400018004000104090000080fb0051
:1040fc00800178006c81570003b178000980fb00c7
:10410c0000014000ec8057000281400098007800cc
:10411c00e14078008180fb00120078004800dd004f
:10412c00008970000980fb008000eb000000450056
:10413c0081804d003711070089c4e80028409000a9
:10414c00894f5000e1ff3e004f05be004f04be00fa
:10415c000080fa000000060090c0a9005824ef006f
:10416c009823ef000060fe0000017800c0ff2f00d4
:10417c00f10720002711070090c0a800f00b2000c9
:10418c00c02288009823ef00000006000200fa000d
:10419c00889fbe008a9fbe008c9fbe000000eb0073
:1041ac0090bf9f00889020000005eb0019c0b30061
:1041bc00080678008046eb000060fe009845780009
:1041cc0089cf550023003a00c84090008180fb0045
:1041dc00c408de0081417800c283200003497800c6
:1041ec000060fe006a51b900820046004801900050
:1041fc00a0832000020001003c48e20015003200c0
:10420c00a18320000b4078009dff0700a1832000b4
:10421c000b4078006fff07000060fe003c48e20096
:10422c000c0032000d4078000060fe008080fb0026
:10423c00d2418000e2c078008180fb001fb997005a
:10424c000101410092bf9f000040e8003c48e300a0
:10425c00f5ff3e008944e8000a05e8006a044400c2
:10426c00fccf5400d4ff3a006e805700baff070011
:10427c004f06be004f05be004f04be000080fa0082
:10428c00000006000060fe0000017800c0ff2f0057
:10429c00f10720001411070000000600e487470016
:1042ac00889fbe008a9fbe008c9fbe008e1f780028
:1042bc000000eb0080bf9f00889020006055b80084
:1042cc0019c0b300880678000047eb000060fe00c0
:1042dc0018407800894f50001a003a00c8409000ee
:1042ec008180fb00c408de0081417800c28320007d
:1042fc0003497800a183200036ff07000060fe0010
:10430c006a58b9008080460038019000a0832000d4
:10431c00020001003c48e2000a0032000e40780026
:10432c000060fe008080fb00d2418000e2c078007b
:10433c008180fb00010545000040e8003c48e3009b
:10434c00f7ff3e008944e8008b05e8006a0444004e
:10435c00fccf5400ddff3a000060fe007080570077
:10436c00c8ff07000fb897008a0f500003003a00ef
:10437c000060fe000040eb00020037000060fe0011
:10438c0000c0eb004f0778004f06be004f05be0083
:10439c004f04be004f00b100000006000800fa00f8
:1043ac00881f78006a805700030009000018eb0092
:1043bc006a805700d041880080c0b3003ce8b70049
:1043cc000060fe00228d200020002f00f10720004d
:1043dc00e2100700428d200040002f00f107200062
:1043ec00de100700628d200060002f00f107200016
:1043fc00da100700828d200080002f00f1072000ca
:10440c00d61007000004eb00d8468800e846880068
:10441c006000b8007043880081438800120f0700c9
:10442c00f0438800014488000060fe000040eb006f
:10443c00e18d2000884878008100e80080487800f1
:10444c008100e800804878000060fe008100e800f0
:10445c00804878008100e800804878008100e800fe
:10446c00804878008180e80080487800ecfc0700e8
:10447c00f3fd07000060fe0088ff07000004e00069
:10448c00380032004006200001002000406e8800f9
:10449c00516e880000002000010c2400504688005a
:1044ac0061468800d0cc2c00c102240070468800e4
:1044bc00814688000060fe000000200001372400c7
:1044cc00104488002144880000002000213724007b
:1044dc0050448800614488000000200041332400cf
:1044ec0030448800414488000000200061332400df
:1044fc0070448800814488000000200001f82300eb
:10450c006047880071478800804788009147880081
:10451c00a0478800b147880020c3b300618e2000fb
:10452c00804878008100e800804878008100e8002d
:10453c0080487800e0c1b3008100e8008048780032
:10454c008100e800804878008100e800804878000d
:10455c0080bb2000d0428800e0428800a0c0b3009d
:10456c0038e8b7004f0478000080fa00000006001d
:10457c0000102000c06b88000030b000d06b8800a9
:10458c0000002100e06b8800f0ff2e00f06b88002b
:10459c00f07f2f00006c8800f0bf2f00106c88009b
:1045ac0000802000206c880000002200306c880005
:1045bc0000002800406c8800f0df2f00506c880051
:1045cc00f0f72f00606c8800f0fb2f00706c8800f7
:1045dc0040002000806c880000012000906c880056
:1045ec0000042000a06c8800f0fd2f00b06c880047
:1045fc00f0fe2f00c06c880070ff2f00d06c88007c
:10460c0010002000e06c880020002000f06c880076
:10461c0080002000006d8800b0ff2f00106d880016
:10462c00d0ff2f00206d8800e0ff2f00306d880038
:10463c00000006000060fe006008e200030032008b
:10464c005e28ef000040eb00d9003700f0428000fc
:10465c0051a22a00810f50007200320008003e0067
:10466c008180e900810f50003000320057003e007d
:10467c008100e900810f5000cb003a000b0037009d
:10468c0071a22a00810f50009a0032008300390079
:10469c008100e800810f5000b40032008100e80076
:1046ac00810f5000c0003a00b40037000060fe00db
:1046bc00f0c3b300218e2000914f100018003a0077
:1046cc00b90a07000000e000150032000060fe008f
:1046dc00608e20009080fb000040eb0039f4070056
:1046ec00708e20009080fb0010c0b30035f40700e2
:1046fc0020c0b30071d12000804878000060fe001b
:10470c0051d22000804878008100e8008048780071
:10471c008100e8008048780000c0eb00a40037005e
:10472c005e28ef0000c0eb00a10037000060fe0027
:10473c00508e200080c0eb0090cf100003003a0098
:10474c005e28ef000040eb0099003700f0c3b30087
:10475c00218e2000914f100019003a00920a070098
:10476c000000e000160032000060fe00908e200079
:10477c009080fb000040eb0047f40700a08e200067
:10478c009080fb0010c0b30043f4070041c0b3009d
:10479c0070d12000014878000060fe0010c0b3000a
:1047ac0051d22000804878008100e80080487800d1
:1047bc008100e8008048780000c0eb007c003700e6
:1047cc005e28ef0000c0eb00790037000060fe00af
:1047dc003244800043448000104380002143800019
:1047ec00b8ef07000000e0000b003500608e2000e1
:1047fc009080fb000040eb00f2f3070020c0b300f8
:10480c0051d220008048780071d120008048780077
:10481c0000c0eb00660037005e28ef0000c0eb0024
:10482c00630037000060fe00508e200080c0eb005b
:10483c0090cf100003003a005e28ef000040eb0020
:10484c005b003700324480004344800010438000fa
:10485c00214380009bef07000000e0000c003500b6
:10486c00908e20009080fb000040eb000af40700c3
:10487c0011c0b30050d220000148780041c0b300f1
:10488c0070d120000148780000c0eb0048003700d0
:10489c005e28ef0000c0eb00450037000060fe0012
:1048ac007244800083448000304380004143800088
:1048bc0084ef07000000e0000b003500708e200034
:1048cc009080fb0010c0b300bef3070020c0b30003
:1048dc0061d220008048780071d120008048780097
:1048ec0000c0eb00320037005e28ef0000c0eb0088
:1048fc002f0037000060fe00508e200080c0eb00bf
:10490c0090cf100003003a005e28ef000040eb004f
:10491c0027003700724480008344800030438000bd
:10492c004143800067ef07000000e0000c003500f9
:10493c00a08e20009080fb0010c0b300d6f30700bf
:10494c0011c0b30060d220000148780041c0b30010
:10495c0070d120000148780000c0eb001400370033
:10496c005e28ef0000c0eb00110037000060fe0075
:10497c005e28ef0000c0eb000d0037000060fe0069
:10498c00508e200080c0eb0090cf100003003a0046
:10499c005e28ef000040eb00050037005e28ef00ba
:1049ac0000c0eb00020037000060fe000040eb008e
:1049bc00000006000600fa00889fbe008a9fbe0019
:1049cc008c9fbe000f0078001f0798000f0f780017
:1049dc00e4874700000478004d0a0700b0d220009d
:1049ec001004e000c9003200e08d2000104c78006b
:1049fc000000e8001040780010449800018e200060
:104a0c00804878008806780072d2200069d920008e
:104a1c0066855400ebd72000acd820000004eb00d6
:104a2c0002007800200798000060fe003d407800ee
:104a3c00e24f500029003200e34f500003003200d7
:104a4c00e14f500036003a001200370081d72000a9
:104a5c0061007c0000c1eb009b007800010b07009b
:104a6c0042d8200062007c0000c1eb009c00780062
:104a7c00fc0a07000041eb00990078001a0078004e
:104a8c00f80a070030c0b300318e2000804878004f
:104a9c002300370082d7200062007c0000c1eb00ad
:104aac009b007800ef0a070041d8200061007c00d1
:104abc000041eb009c007800ea0a070000c1eb0003
:104acc00990078001a007800e60a070010c0b300bd
:104adc00328e2000004978001100370081d7200069
:104aec0061007c000041eb009b007800dd0a0700b0
:104afc0042d8200062007c0000c1eb009c007800d2
:104b0c00d80a070000c1eb00990078001a00780061
:104b1c00d40a070021c0b300308e20000148780071
:104b2c002e0190005240780022079800e24f50006e
:104b3c000a003200e34f500003003200e14f5000f6
:104b4c0024003a00150037000041eb009900780072
:104b5c001a007800c30a07001e003700c1d92000d4
:104b6c0001004400b0009000c2d9200062007c001b
:104b7c000041eb00bb0a070031c0b300308e2000af
:104b8c0090cf10001300320000c1eb0099007800a8
:104b9c001a007800b30a07000e003700c2d92000b3
:104bac0002004400b000900062007c0000c1eb00e9
:104bbc00ac0a070031c0b300308e200090cf10003b
:104bcc000400320000c1eb00990078001a00780054
:104bdc00a40a07008984e8000884e8000a85e80034
:104bec008b85e8000c86e800e40f54008eff3a0039
:104bfc000060fe00f08d200010407800e14f500066
:104c0c001b003a00e08d200012c0b300904f110041
:104c1c0034003a000080e800904f110031003a0057
:104c2c000041eb00f1ff2700002020008d0a070057
:104c3c0000c1eb00f1ff2b0000082000890a0700df
:104c4c000060fe0020cbb300c1d22000914f1000b9
:104c5c002c003a00401f200001002000406e88000c
:104c6c00516e8800c0d220000048eb0025003700b0
:104c7c00e24f50001b003a00e08d200021c0b30031
:104c8c0090cf100017003a000080e80090cf100081
:104c9c0014003a000041eb00f1ff2b00000820004b
:104cac00700a070000c1eb00f1ff27000020200074
:104cbc006c0a07000060fe0030cbb300c1d22000ac
:104ccc00914f10000f003a00401f200001002000ff
:104cdc00406e8800516e8800c0d220000048eb0066
:104cec000800370000c1eb00f1ff27000020200076
:104cfc005c0a070000c1eb00f1ff2b00000820004c
:104d0c00580a07009e077800010037009e077800bc
:104d1c009e0790004f06be004f05be004f04be001c
:104d2c000080fa0000000600e08d200010407800a2
:104d3c0041d62000914f10000300320080487800cb
:104d4c00b0d2200000c8eb00f08d2000104078009d
:104d5c0051d62000914f100003003200804878009b
:104d6c00b0d2200000c8eb0000000600f2090700da
:104d7c00f0418800014288004268ec00f04180005c
:104d8c00014280000148a3000300320070d62000cd
:104d9c001048e8000600370070d62000104078005c
:104dac000004e0000200320071d620008048e900c7
:104dbc00f441800005428000050178000240a1000a
:104dcc008001eb00c010dd00000020006121b80064
:104ddc000200700083807000f0418800014288005e
:104dec006008e200a9003a000060fe00f241800079
:104dfc00034280004000200021062000800f51005b
:104e0c00818f590003003a0080d620001048e8003a
:104e1c000600370080d62000104078000004e00027
:104e2c000200320081d620008048e900f241800067
:104e3c000342800010002000810c2000800f5100e4
:104e4c00818f590007003a00f04180000142800038
:104e5c000128a30003003a0090d620001048e80077
:104e6c000600370090d62000104078000004e000c7
:104e7c000200320091d620008048e900f041800009
:104e8c0001428000010078001006b2008000eb00a7
:104e9c0012022000820f5000e08f58000a003a00e6
:104eac003244800043448000104380002143800042
:104ebc0004ee07000000e00003003500a0d620003f
:104ecc001048e80006003700a0d6200010407800fb
:104edc000004e00002003200a1d620008048e90066
:104eec00f04180000142800002002400030c2000ed
:104efc0000026100018161008001eb00c010dd0047
:104f0c00000020006121b800020070008380700056
:104f1c000200240003082000820f5000838f5800e9
:104f2c000e003a00f0418000014280000128a300ed
:104f3c000a003a0032448000434480001043800051
:104f4c0021438000dfed07000000e0000300350086
:104f5c00b0d620001048e80006003700b0d620007c
:104f6c00104078000004e00002003200b1d62000ae
:104f7c008048e900f04180000142800002002100dd
:104f8c002304200000026100018161008001eb001c
:104f9c00c010dd00000020006121b800020070008c
:104fac00838070000200210023002000820f50003b
:104fbc00838f58000a003a007244800083448000ba
:104fcc003043800041438000beed07000000e0004c
:104fdc0003003500c0d620001048e800060037005a
:104fec00c0d62000104078000004e000020032001f
:104ffc00c1d620008048e900f041800001428000c9
:10500c000240200083042000000261000181610045
:10501c008001eb00c010dd00000020006121b80011
:10502c00020070008380700002402000830020008a
:10503c00820f5000838f58000e003a00f041800020
:10504c00014280000128a3000a003a00724480004b
:10505c0083448000304380004143800099ed070079
:10506c000000e00003003500d0d620001048e80016
:10507c0006003700d0d62000104078000004e00075
:10508c0002003200d1d620008048e900f0418000b7
:10509c00014280000178a3000300320000d72000f9
:1050ac001048e8000600370000d7200010407800b8
:1050bc000004e0000200320001d720008048e90023
:1050cc00f0418000014280000158a300030032002f
:1050dc0010d720001048e8000600370010d7200039
:1050ec00104078000004e0000200320011d72000cc
:1050fc008048e900f0418000014280000138a300a3
:10510c000300320020d720001048e80006003700ca
:10511c0020d72000104078000004e000020032008c
:10512c0021d720008048e900f04180000142800036
:10513c000118a3000300320030d720001048e8000b
:10514c000600370030d72000104078000004e00043
:10515c000200320031d720008048e900f041800085
:10516c00014280000168a3000300320060d72000d8
:10517c001048e8000600370060d720001040780087
:10518c000004e0000200320061d720008048e900f2
:10519c00f0418000014280000128a300030032008e
:1051ac0070d720001048e8000600370070d72000a8
:1051bc00104078000004e0000200320071d720009b
:1051cc008048e90042c8bf00f34f5000f20036009f
:1051dc004268ef0070d6200011c1b30090cf1000d0
:1051ec000600360011cab300108e2000014878006a
:1051fc0070d620000048eb000500370051cab30000
:10520c00108e20000148780070d620000048eb007a
:10521c006008e20078003a0080d6200012c1b3008a
:10522c00904f1100160036000000e800904f11005e
:10523c0029003e00e08d200011c0b30090cf10007b
:10524c0009003a000000e80090cf100006003a0078
:10525c000000e80090cf100003003a0020a22a00c2
:10526c00f04288005bf007000040eb0081d6200084
:10527c00804878008100e8008048780016003700ec
:10528c0090d6200012c1b300904f110012003600ce
:10529c00e08d200021c0b30090cf100009003a002f
:1052ac000000e80090cf100006003a000000e80073
:1052bc0090cf100003003a0030a22a00f042880080
:1052cc0044f007000040eb0081d6200080487800b5
:1052dc008100e80080487800a0d6200012c1b300fd
:1052ec00904f1100100036000000e800904f1100a4
:1052fc001d003e00e08d200011c0b30090cf1000c7
:10530c0003003a0040a22a00f042880031f0070066
:10531c000040eb00a1d62000804878008100e80016
:10532c008048780010003700b0d6200012c1b300be
:10533c00904f11000c003600e08d200021c0b3000e
:10534c0090cf100003003a0050a22a00f0428800cf
:10535c0020f007000040eb00a1d620008048780028
:10536c008100e80080487800c0d6200012c1b3004c
:10537c00904f1100100036000000e800904f110013
:10538c001d003e00f08d200011c0b30090cf100026
:10539c0003003a0060a22a00f04288000df00700da
:1053ac000040eb00c1d62000804878008100e80066
:1053bc008048780010003700d0d6200012c1b3000e
:1053cc00904f11000c003600f08d200021c0b3006e
:1053dc0090cf100003003a0070a22a00f04288001f
:1053ec00fcef07000040eb00c1d62000804878009d
:1053fc008100e8008048780000d7200012c1b3007b
:10540c00904f11000c0036000000e800904f110086
:10541c0016003e0021c0b300e08d2000014878004a
:10542c000040eb0001d72000804878008100e800a4
:10543c00804878001500370010d7200011c1b30048
:10544c0090cf10000900360011c0b300e08d200091
:10545c00014878000040eb0001d72000804878001c
:10546c008100e800804878000800370031c0b300a4
:10547c00e08d2000014878000040eb0001d72000af
:10548c00804878008100e8008048780020d7200010
:10549c0012c1b300904f11000c0036000000e80060
:1054ac00904f110016003e0021c0b300f08d20007b
:1054bc00014878000040eb0021d72000804878009c
:1054cc008100e800804878001500370030d72000b4
:1054dc0011c1b30090cf10000900360011c0b30009
:1054ec00f08d2000014878000040eb0021d720000f
:1054fc00804878008100e800804878000800370078
:10550c0031c0b300f08d2000014878000040eb0062
:10551c0021d72000804878008100e800804878007e
:10552c0060d7200012c1b300904f11000600360066
:10553c00f1c3b300208e20000148780060d7200012
:10554c000048eb0005003700f1ccb300208e2000a2
:10555c000148780060d720000048eb0070d720008d
:10556c0011c1b30090cf100005003600508e200002
:10557c0000c8eb0070d720000048eb000500370096
:10558c000040eb00518e20008048780071d720003d
:10559c0080487800e4fd070000000600881f7800b2
:1055ac000004780040c4200032c0b300904f1100ba
:1055bc00020032000060fe00050037000800780091
:1055cc00a7f607000060fe000040eb00004c9800be
:1055dc004f047800000006000060fe0031c0b300ec
:1055ec0040c12000014878000000e8000048eb00b2
:1055fc0031c8b3000000e80001487800f00f20002b
:10560c00c0608800d060880022c2b300c1c12000f5
:10561c0082487800f06088000060fe00006188001d
:10562c00419c20001161880012c0b30041c22000cf
:10563c00824878008000eb0031618800a06188000e
:10564c00116288000060fe00000006000060fe0091
:10565c0031c0b30040c420000148780011c0b30031
:10566c000000e8000148780022c8b3000000e80000
:10567c0002487800f00f20004062880050628800d9
:10568c00c2c42000014978007062880080628800e2
:10569c008000eb00916288006801410001497800ac
:1056ac00b062880020638800916388000060fe006f
:1056bc00000006000060fe0031c0b30040be2000b8
:1056cc000148780001c1b3000000e80001487800ef
:1056dc0021c8b3000000e80001487800f00f20005a
:1056ec00405f8800505f880012c0b300c1be20002c
:1056fc0082487800705f8800805f88008000eb0033
:10570c00915f880042bf200001497800b05f88009b
:10571c0020608800916088000060fe000000060098
:10572c00881f7800000478000060fe00484190005b
:10573c00b8009000180078005b0407000040eb00f4
