:020000040000fa
:080000000001040000000000f3
:020000040000fa
:040008001c020000d6
:020000040000fa
:04000c00fc010000f3
:020000040000fa
:0400100000020000ea
:020000040000fa
:0400140004020000e2
:020000040000fa
:0400180008020000da
:020000040000fa
:04001c001c020000c2
:020000040000fa
:040020001c020000be
:020000040000fa
:040024001c020000ba
:020000040000fa
:040028001c020000b6
:020000040000fa
:04002c001c020000b2
:020000040000fa
:040030001c020000ae
:020000040000fa
:040034001c020000aa
:020000040000fa
:040038001c020000a6
:020000040000fa
:04003c001c020000a2
:020000040000fa
:04004000ca430000af
:020000040000fa
:04004400b8090000f7
:020000040000fa
:040048001c02000096
:020000040000fa
:04004c005e4600000c
:020000040000fa
:040050006446000002
:020000040000fa
:040054001c0200008a
:020000040000fa
:040058001c02000086
:020000040000fa
:04005c001c02000082
:020000040000fa
:040060001c0200007e
:020000040000fa
:040064001c0200007a
:020000040000fa
:040068001c02000076
:020000040000fa
:04006c001c02000072
:020000040000fa
:040070001c0200006e
:020000040000fa
:040074001c0200006a
:020000040000fa
:040078001c02000066
:020000040000fa
:04007c001c02000062
:020000040000fa
:040080001c0200005e
:020000040000fa
:04008400561a000008
:020000040000fa
:040088001c02000056
:020000040000fa
:04008c001c02000052
:020000040000fa
:040090001c0200004e
:020000040000fa
:040094001c0200004a
:020000040000fa
:040098001c02000046
:020000040000fa
:04009c001c02000042
:020000040000fa
:0400a0001c0200003e
:020000040000fa
:0400a4001c0200003a
:020000040000fa
:0400a8001c02000036
:020000040000fa
:0400ac001c02000032
:020000040000fa
:0400b0001c0200002e
:020000040000fa
:0400b4001c0200002a
:020000040000fa
:0400b8001c02000026
:020000040000fa
:0400bc001c02000022
:020000040000fa
:0400c000be3000004e
:020000040000fa
:0400c4001c0200001a
:020000040000fa
:0400c8001c02000016
:020000040000fa
:0400cc001c02000012
:020000040000fa
:0400d0001c0200000e
:020000040000fa
:0400d4001c0200000a
:020000040000fa
:0400d8001c02000006
:020000040000fa
:040108001c020000d5
:020000040000fa
:04010c000c020000e1
:020000040000fa
:0401100010020000d9
:020000040000fa
:0401140014020000d1
:020000040000fa
:0401180018020000c9
:020000040000fa
:04011c001c020000c1
:020000040000fa
:040120001c020000bd
:020000040000fa
:040124001c020000b9
:020000040000fa
:040128001c020000b5
:020000040000fa
:04012c001c020000b1
:020000040000fa
:040130001c020000ad
:020000040000fa
:040134001c020000a9
:020000040000fa
:040138001c020000a5
:020000040000fa
:04013c001c020000a1
:020000040000fa
:040140001c0200009d
:020000040000fa
:040144001c02000099
:020000040000fa
:040148001c02000095
:020000040000fa
:04014c001c02000091
:020000040000fa
:040150001c0200008d
:020000040000fa
:040154001c02000089
:020000040000fa
:040158001c02000085
:020000040000fa
:04015c001c02000081
:020000040000fa
:040160001c0200007d
:020000040000fa
:040164001c02000079
:020000040000fa
:040168001c02000075
:020000040000fa
:04016c001c02000071
:020000040000fa
:040170001c0200006d
:020000040000fa
:040174001c02000069
:020000040000fa
:040178001c02000065
:020000040000fa
:04017c001c02000061
:020000040000fa
:040180001c0200005d
:020000040000fa
:040184001c02000059
:020000040000fa
:040188001c02000055
:020000040000fa
:04018c001c02000051
:020000040000fa
:040190001c0200004d
:020000040000fa
:040194001c02000049
:020000040000fa
:040198001c02000045
:020000040000fa
:04019c001c02000041
:020000040000fa
:0401a0001c0200003d
:020000040000fa
:0401a4001c02000039
:020000040000fa
:0401a8001c02000035
:020000040000fa
:0401ac001c02000031
:020000040000fa
:0401b0001c0200002d
:020000040000fa
:0401b4001c02000029
:020000040000fa
:0401b8001c02000025
:020000040000fa
:0401bc001c02000021
:020000040000fa
:0401c0001c0200001d
:020000040000fa
:0401c4001c02000019
:020000040000fa
:0401c8001c02000015
:020000040000fa
:0401cc001c02000011
:020000040000fa
:0401d0001c0200000d
:020000040000fa
:0401d4001c02000009
:020000040000fa
:0401d8001c02000005
:020000040000fa
:100200008fdd20000e7f22000e018800000000001c
:10021000000020000000e000020032000001200089
:100220002002880014000700850007000000e0009d
:1002300003003a00604b2400010020000200370058
:100240000000200001002000810f7000010032003a
:1002500014000700000020000000e000020032004f
:100260000000020000000000ce4602000000000076
:100270000040da000000fe004440a900a023200056
:100280000000e0000300320000002000a001880010
:100290004440a800000006008a1f78008b1f7800e9
:1002a0000000060091018800800478000000eb0047
:1002b0001a003700e284440032a0b4009905ba0065
:1002c000e284440032a0b4009906ba00e2844400fb
:1002d00032a0b4000006eb00476fde00fd07b2005d
:1002e000636ce10003003a00ebff07000000eb0045
:1002f0000a003700606ce10004003a00005deb008a
:100300008b05e900fdff3e00040037006168e10055
:10031000010032000086eb000b00070019c7ba008d
:100320001905ba000e04e00003003a000a00e000dc
:10033000e0ff3a0000000600fe07b2009e018800c0
:100340008a047800f5ff3700395dba008b05e900b3
:100350000c003200295dba008b05e900080032006c
:100360000c00e00003003a00e284440032a0b40034
:10037000f5ff370019ddba008b05e900faff3a00f6
:100380008904e800e184440032a0b40000000600c3
:10039000c01b0400000000008e1b040000000000d1
:1003a0003a1b040000000000161b040000000000bf
:1003b000fa1a040000000000de1a04000000000029
:1003c0005e1b0400000000005c0904000000000047
:1003d00048080400000000000009040000000000bc
:1003e000ec07040000000000a40804000000000066
:1003f00090070400000000008020a900ffff3700e4
:100400008060a900ffff37008040a900ffff370090
:100410008080a900ffff37008020a900ffff370080
:100420008060a900ffff37008040a900ffff370070
:100430008080a900ffff37000040da000000fe00c6
:10044000000005003200f800910188000008bb00a0
:10045000410424006210e100040032000002200088
:100460000010e1000a003a0051042400013b88001a
:100470000500fc0051052000313b8800a10a200046
:10048000313b880061e7a800000000000000000088
:100490003200f900000006003200f8006004240079
:1004a000003b8800f2ff37003200f800910188001d
:1004b00041002400013b88000208bb00ecff37002c
:1004c0003200f8009101880051002400013b8800af
:1004d000030120003218bb008301e900fdff3a0050
:1004e000e3ff37003200f8009101880080027800b5
:1004f00062004000e08048003549ba003204e00064
:100500000410a700100032008301e9000e00320041
:100510002549ba003204e0000410a7000a003200a6
:100520008301e900080032000408a300eeff320056
:1005300015c9ba003204e0000410a700020032001e
:100540008301e900e8ff3a003200f90000000600ec
:1005500003f0a200889fbe008a9fbe008c1f780017
:10056000b5000700bc0033006450e1004f003200ca
:100570006420e1005200320003826c0007003b005f
:100580000905d0000306d000820f54000c065d0060
:100590000200390002003200890178000306780069
:1005a0008582550004003d000003fd008103fd002d
:1005b0008502ea008b854200840f720002003b0036
:1005c00060001000e08018006011b8000005eb002a
:1005d0007a28e1000a00390006007800c75ddd00d6
:1005e000f707b200878075002d0037008281710007
:1005f0000a017800610560008180d1000080d3008d
:100600008502e900f9ff3b000604400087844800aa
:1006100002003b0060041400e0841c000988a30071
:10062000070032008a8171008281710061016400db
:100630008904d1000884d3008b05e8001700370037
:100640000978a30013003a000b00e0001300340007
:100650008b05e9000804440089844c000a447400b6
:100660000978a3000d003a000b00e00007003400f9
:100670008b05e9000804440089844c0001003a001d
:100680000b0020000978a300f7ff32000001eb0007
:1006900002003700828171000a0178002b000700f8
:1006a0000cf0a70001f0a000740037006420e10006
:1006b00002003a00838f6c00740033000801be0012
:1006c0000200be006d00370014002000a6003700b5
:1006d000f4ff2f00a40037000001be004100070016
:1006e0000470a70003f0a10003f8a30013003a0070
:1006f0006509b10010003200090035006928e100e9
:100700000200350001002800000005000000400044
:10071000818048008502e900fcff3a0000000600e5
:10072000f88f4200050035008100d1000080d30021
:100730008502e800fcff3a00000006008000eb00a4
:10074000000005006011b800a20037008100200001
:10075000618055000b003d000b00200061fe2f0062
:100760000100e1001d00340082817100610164001c
:100770008904d1000884d3000000e800faff3a00a1
:10078000710020006100640003007000020060003e
:100790000900320061044400e0844c000988a5008f
:1007a000050032008b05e8006808e10002003a000d
:1007b0008904d1000884d300f20f20000258e10020
:1007c00005003d00c75ddd00f907b20089807500b6
:1007d00008007800000006000bf827008b00780066
:1007e00000000500c70ade00f107b200f50fb200f5
:1007f00008003200e1cf4200020032000170a00088
:1008000024000500810f700001003200040805007b
:1008100044000500810f700002003a00140005003a
:100820008502e9000000400081c04800fcff3b0059
:100830000170a000240005000004be00e9ff0700cd
:100840000003be000405be000200be00e5ff070075
:10085000844f7500000006000200be006450e100f5
:10086000050036006420e100020036000968a3009c
:1008700001003a000800be000160a0004f067800a9
:100880004f05be004f04be0000000600f0ff2f0021
:10089000f1ff2700f9ff3700889fbe008a9fbe0046
:1008a0008c1f7800e4ff0700ebff330003866c0029
:1008b0006450e100240032006420e100270032008f
:1008c0006150e100220032006120e100210032008d
:1008d0008b854200eb07b1000134b800003ab80044
:1008e0000804420089844a00013ab8000030b80088
:1008f0008880400009014a000400330000004000e5
:1009000081804800020149008b05e900c909dd002a
:10091000830170000100320013002000c814de00c3
:100920004814dd004709de001200b200c808de00ee
:100930000884700085ff070001f0a1000cf0a700fb
:1009400001f0a000cdff37006120e100cfff3200b1
:100950000801be000200be00f7ff37006150e10051
:10096000fcff3a00c9ff3700889fbe008a9fbe0087
:10097000841f7800b0ff07004f007800110033009b
:10098000f0ff2f00838f6c0006003b00040565001c
:100990000a00a7000800370009f0a6001000200098
:1009a00008003700820f5400838f5c000300390079
:1009b0001000200001003e000000200009f0a70008
:1009c0000000ea004f05be004f04be000000e0003a
:1009d00000000600889fbe008a9fbe000082700053
:1009e0000402710004827100260032000004be007f
:1009f0000200be006011b8006b09200095022000c3
:100a00000182cf000a0039000541b1000082cf0009
:100a1000070039000541b1000982cf000400390008
:100a20000541b1000882cf00010039000541b10045
:100a300005425200120032000a003b008281710020
:100a4000610164008100d1000080d3008984d3005b
:100a50000884d3008b05e8000442e800f7ff3a0061
:100a6000070037000804440089844c000000480057
:100a7000818048008b05e9000442e900f9ff3a0053
:100a800032ff07004f05be004f04be000000060005
:100a90008001780002003700b15978000201e900b6
:0c0aa0000200e000fcff3a00000006002d
:020000040000fa
:100aac0000c100008140000001c000008041000036
:100abc0001c000008041000000c100008140000026
:100acc0001c000008041000000c100008140000016
:100adc0000c100008140000001c000008041000006
:100aec0001c000008041000000c1000081400000f6
:100afc0000c100008140000001c0000080410000e6
:100b0c0000c100008140000001c0000080410000d5
:100b1c0001c000008041000000c1000081400000c5
:100b2c0001c000008041000000c1000081400000b5
:100b3c0000c100008140000001c0000080410000a5
:100b4c0000c100008140000001c000008041000095
:100b5c0001c000008041000000c100008140000085
:100b6c0000c100008140000001c000008041000075
:100b7c0001c000008041000000c100008140000065
:100b8c0001c000008041000000c100008140000055
:100b9c0000c100008140000001c000008041000045
:100bac0001c000008041000000c100008140000035
:100bbc0000c100008140000001c000008041000025
:100bcc0000c100008140000001c000008041000015
:100bdc0001c000008041000000c100008140000005
:100bec0000c100008140000001c0000080410000f5
:100bfc0001c000008041000000c1000081400000e5
:100c0c0001c000008041000000c1000081400000d4
:100c1c0000c100008140000001c0000080410000c4
:100c2c0000c100008140000001c0000080410000b4
:100c3c0001c000008041000000c1000081400000a4
:100c4c0001c000008041000000c100008140000094
:100c5c0000c100008140000001c000008041000084
:100c6c0001c000008041000000c100008140000074
:100c7c0000c100008140000001c000008041000064
:100c8c0000c100008140000001c000008041000054
:100c9c0001c000008041000000c100008140000044
:100cac0000c00000c1010000c303000002c200002c
:100cbc00c606000007c7000005c50000c4040000fc
:100ccc00cc0c00000dcd00000fcf0000ce0e0000ac
:100cdc000aca0000cb0b0000c909000008c80000bc
:100cec00d818000019d900001bdb0000da1a00002c
:100cfc001ede0000df1f0000dd1d00001cdc0000fc
:100d0c0014d40000d5150000d717000016d600002b
:100d1c00d212000013d3000011d10000d01000003b
:100d2c00f030000031f1000033f30000f23200002b
:100d3c0036f60000f7370000f535000034f40000fb
:100d4c003cfc0000fd3d0000ff3f00003efe0000ab
:100d5c00fa3a00003bfb000039f90000f8380000bb
:100d6c0028e80000e9290000eb2b00002aea00002b
:100d7c00ee2e00002fef00002ded0000ec2c0000fb
:100d8c00e424000025e5000027e70000e62600002b
:100d9c0022e20000e3230000e121000020e000003b
:100dac00a060000061a1000063a30000a26200002b
:100dbc0066a60000a7670000a565000064a40000fb
:100dcc006cac0000ad6d0000af6f00006eae0000ab
:100ddc00aa6a00006bab000069a90000a8680000bb
:100dec0078b80000b9790000bb7b00007aba00002b
:100dfc00be7e00007fbf00007dbd0000bc7c0000fb
:100e0c00b474000075b5000077b70000b67600002a
:100e1c0072b20000b3730000b171000070b000003a
:100e2c00509000009151000093530000529200002a
:100e3c0096560000579700005595000094540000fa
:100e4c009c5c00005d9d00005f9f00009e5e0000aa
:100e5c005a9a00009b5b00009959000058980000ba
:100e6c0088480000498900004b8b00008a4a00002a
:100e7c004e8e00008f4f00008d4d00004c8c0000fa
:100e8c00448400008545000087470000468600002a
:100e9c00824200004383000041810000804000003a
:100eac00200000001000000040000000ffef0000d8
:100ebc00fff70000fffb000004000000080000002a
:100ecc0002000000fffd00007fff0000bfff0000dc
:100edc00004000000080000000200000fbff00002c
:100eec00fdff0000feff00000008000000100000e5
:100efc0000040000dfff0000efff0000f7ff000020
:100f0c00596f00006e67000043690000000000008c
:040f1c0003000000ce
:020000040000fa
:100f2000881f7800000478009800900050a52a00df
:100f3000808f50000d003a0070c7b300984f10002a
:100f40000a003a00e2a2a900cb02a800cb62a800e6
:100f5000cbc2a900ca82a800e2a2a900cb02a800c5
:100f6000cb62a800cbc2a900ca82a80048019000a9
:100f70008001eb0068009000f8009000a81d0700b9
:100f80000004e00012003200e2a2a900cb02a80097
:100f9000cb62a900cbc2a800ca82a900e2a2a90024
:100fa000cb02a800cb62a900cbc2a800ca82a900cc
:100fb0000000eb0010049800004c78000060fe0078
:100fc00050a52a002004980000c0eb0010449800af
:100fd0004f04780000000600881f780000047800a5
:100fe0009800900050a52a00808f50000d003a0014
:100ff00070c7b300984f10000a003a00e2c2a9007f
:10100000cb22a800cb82a800cbe2a900caa2a800ec
:10101000e2c2a900cb22a800cb82a800cbe2a900a3
:10102000caa2a800480190008001eb00680090006f
:10103000f80090007a1d07000004e0001200320062
:10104000e2c2a900cb22a800cb82a900cbe2a80073
:10105000caa2a900e2c2a900cb22a800cb82a900a3
:10106000cbe2a800caa2a9000000eb00100498007f
:10107000004c78000060fe0050a52a002004980073
:1010800000c0eb00104498004f04780000000600f8
:10109000881f7800000478009800900050a52a006e
:1010a000808f50000d003a0070c7b300984f1000b9
:1010b0000a003a00e862a900cb42a800cba2a8002f
:1010c000e282a900e902a800e862a900cb42a800d8
:1010d000cba2a800e282a900e902a8004801900082
:1010e0008001eb0068009000f80090004c1d0700a4
:1010f0000004e00012003200e862a900cb42a80020
:10110000cba2a900e282a800e902a900e862a90036
:10111000cb42a800cba2a900e282a800e902a90064
:101120000000eb0010049800004c78000060fe0006
:1011300050a52a002004980000c0eb00104498003d
:101140004f04780000000600881f78000004780033
:1011500098009000a0aa2a00808f50000d003a004d
:1011600070c7b300984f10000a003a00cb62a90084
:10117000cbc2a800e2a2a800cb02a900ca82a800a4
:10118000cb62a900cbc2a800e2a2a800cb02a900b2
:10119000ca82a800380190008001eb00680090002e
:1011a000f80090001e1d07000004e000120032004d
:1011b000e2a2a900cb02a800cb62a900cbc2a80082
:1011c000ca82a900e2a2a900cb02a800cb62a900b2
:1011d000cbc2a800ca82a9000000eb00100498004e
:1011e000004c78000060fe00a0aa2a0020049800ad
:1011f00000c0eb00104498004f0478000000060087
:10120000881f78000004780098009000a0aa2a00a7
:10121000808f50000d003a0070c7b300984f100047
:101220000a003a00cb82a900cbe2a800e2c2a800e3
:10123000cb22a900caa2a800cb82a900cbe2a800b9
:10124000e2c2a800cb22a900caa2a80038019000df
:101250008001eb0068009000f8009000f01c07008f
:101260000004e00012003200e2c2a900cb22a80074
:10127000cb82a900cbe2a800caa2a900e2c2a900c1
:10128000cb22a800cb82a900cbe2a800caa2a90069
:101290000000eb0010049800004c78000060fe0095
:1012a000a0aa2a002004980000c0eb001044980077
:1012b0004f04780000000600881f780000047800c2
:1012c00098009000a0aa2a00808f50000d003a00dc
:1012d00070c7b300984f10000a003a00cba2a900d3
:1012e000e282a800e862a800cb42a900e902a800b7
:1012f000cba2a900e282a800e862a800cb42a90024
:10130000e902a800380190008001eb00680090001d
:10131000f8009000c21c07000004e0001200320038
:10132000e862a900cb42a800cba2a900e282a800f3
:10133000e902a900e862a900cb42a800cba2a9005b
:10134000e282a800e902a9000000eb001004980066
:10135000004c78000060fe00a0aa2a00200498003b
:1013600000c0eb00104498004f0478000000060015
:101370003600f800809fbe00829fbe00849fbe00a2
:10138000869fbe0084e0a9000060fe00a0cd200082
:101390001080fb006600b9000080e80061cc2000ee
:1013a000614078000040e9008080fb0042c1b3004a
:1013b0000440bc00c3d02000e341790082c8b300e0
:1013c00082cf510025003a007409b9000281e8007b
:1013d000c3d02000630179000200e0001f003a0042
:1013e000740ab900840078000181410074c7b30019
:1013f00004497800a4aa2a0014019800b46a800065
:10140000c56a80006401980075019800f080400072
:1014100042c1b3000440bc0003004100e3807800f7
:1014200001000100a1cd20001140e80080487800b3
:101430008100e900914f50000700310062c0b30005
:101440000440bc0064004100f3805000610078005b
:10145000001c070001003700061c07004f03be00f8
:101460004f02be004f01be004f00be003600f90023
:101470000040060050a52a00a04288000000060097
:101480005428ef00000006005408e2000a00320071
:10149000c0d020001004e0001c003a0070688000fa
:1014a0000000e00019003a00806880000000e000c1
:1014b000040032001500370080ca20000008eb004d
:1014c0005c00370000d220001004e0000f003a005a
:1014d000106980000000e0000c003a0020698000e4
:1014e0000000e00009003a0040d320001004e000b2
:1014f00006003a00b06980000000e00003003a00f6
:10150000c06980000000e000020032005228ef00b5
:101510004800370090c0a9005824ef009823ef003e
:10152000208e20009080fb0020d1200063884000a6
:10153000308e20009080fb0060d220006388400045
:10154000408e20009080fb00a0d3200063884000e4
:10155000a0cd20000048eb000000e900104078001a
:10156000e14f500015003600e1cc200000c0e9003a
:1015700062c0b3000440bc00668340000203430025
:10158000c5d0200084c8b3008001eb001140e90001
:1015900042c1b3000440bc0002814200044978000b
:1015a0000280e800030878001100900050019800c4
:1015b000e6804000868f5000f4ff3a0080cc200087
:1015c0001040e900c1d0200042c1b3000440bc007b
:1015d0000280400073c7b30003487800a3aa2a0022
:1015e00013009800b46a8000c56a80006400980007
:1015f0007500980070014100e100790001000100d0
:10160000a1cd20001140e800804878008100e90069
:10161000914f50000600310062c0b3000440bc008e
:1016200064004100f380500061007800801b0700d7
:101630000060fe0000000600889fbe008a9fbe007a
:101640008c9fbe008e1f78005408e20003003a0011
:1016500080ca20000008eb00420037000060fe0056
:10166000f0ce2000904078000104e0000e0032002f
:10167000c0d020001004e00006003a00706880002e
:101680000000e00003003a00826880000200e000f1
:10169000020032005228ef00320037000040e8001c
:1016a000814f5000fdff390090c0a9005824ef0081
:1016b0009823ef00208e20009080fb0020d1200096
:1016c00063884000308e20009080fb0060d22000b4
:1016d00063884000408e20009080fb00a0d3200053
:1016e00063884000d8cd2000720544002bfd2f00f8
:1016f000808545007ec7b3006cd520001804e0004b
:1017000013003200184090000040e90042c1b300cd
:101710000440bc00028045000e487800a1aa2a00bf
:1017200011009800ec064000bc1e7800ac16780052
:101730000060fe0070014100eb0079000100010033
:10174000bc1e7800ac1678000040eb00004c78001e
:10175000660444008a0f5400e8ff3a00f0ce2000ef
:101760000048eb004f0778004f06be004f05be0053
:101770004f04be0000000600889fbe008a9fbe0086
:101780008c9fbe008e1f78005408e20003003a00d0
:1017900080ca20000008eb00420037000060fe0015
:1017a000f0ce2000904078000104e0000e003200ee
:1017b000c0d020001004e00006003a0070688000ed
:1017c0000000e00003003a00826880000200e000b0
:1017d000020032005228ef00320037000040e800db
:1017e000814f5000fdff390090c0a9005824ef0040
:1017f0009823ef00508e20009080fb0040d1200005
:1018000063884000608e20009080fb0080d2200022
:1018100063884000708e20009080fb00c0d32000c1
:1018200063884000d8cd2000720544000bfd2f00d6
:10183000808545007ec7b3006cd520001804e00009
:1018400013003200184090000040e90042c1b3008c
:101850000440bc00028045000e48780051a52a00d3
:1018600011009800ec064000bc1e7800ac16780011
:101870000060fe0072014100eb00790001000100f0
:10188000bc1e7800ac1678000040eb00004c7800dd
:10189000660444008a0f5400e8ff3a00f0ce2000ae
:1018a0000048eb004f0778004f06be004f05be0012
:1018b0004f04be0000000600889fbe005408e200ee
:1018c00003003a0080ca20000008eb003000370017
:1018d0008081fb0042c1b3000440bc00c4d02000a2
:1018e000644179000204e0000c003a00741ab90067
:1018f0000481e800c4d02000640179000200e00007
:1019000006003a00741ab90064014200c4d02000f5
:10191000640179000200e000020032005228ef006a
:101920001b00370090c0a9005824ef009823ef0057
:101930000060fe00c4d020007419b9008201780054
:101940000301420075c7b30005497800a5aa2a0023
:1019500015019800ec04410068d52000b81c7800ff
:10196000a814780066014100638940000060fe0011
:10197000f081410042c1b3000440bc0004004100ba
:10198000e480790001000100b81c7800a8147800f8
:101990004f04be0000000600889fbe005408e2000d
:1019a00003003a0080ca20000008eb003000370036
:1019b0008081fb0042c1b3000440bc00c4d02000c1
:1019c000644179000204e0000c003a00741ab90086
:1019d0000481e800c4d02000640179000200e00026
:1019e00006003a00741ab90064014200c4d0200015
:1019f000640179000200e000020032005228ef008a
:101a00001b00370090c0a9005824ef009823ef0076
:101a10000060fe00c4d020007419b9008201780073
:101a20000301420075c7b3000549780055a52a0097
:101a300015019800ec04410068d52000b81c78001e
:101a4000a814780068014100638940000060fe002e
:101a5000f281410042c1b3000440bc0004004100d7
:101a6000e480790001000100b81c7800a814780017
:101a70004f04be0000000600881f78000060fe00d2
:101a800070688000a1aa2a00810f50000d003a0062
:101a900071c7b300c2d0200092cf100009003a00f5
:101aa0000060fe0090c0a9005824ef009823ef00ca
:101ab00002007800e16880000100010018c8b3004e
:101ac000100037000044eb0051a52a00810f5000a0
:101ad0000c003a0070c7b300c1d02000914f100035
:101ae00008003a000060fe0090c0a9005824ef00f2
:101af0009823ef0001007800f168800001000100e8
:101b000028c8b30010698000a1aa2a00810f5000e4
:101b10000e003a0071c7b30002d2200092cf10002d
:101b20000a003a000060fe0090c0a9005824ef00af
:101b30009823ef0002007800816980000100010015
:101b400040c8b300004474001000370051a52a00bb
:101b5000810f50000d003a0070c7b30001d2200081
:101b6000914f100009003a000060fe0090c0a900eb
:101b70005824ef009823ef0001007800916980005d
:101b80000100010080c8b30000447400b069800007
:101b9000a1aa2a00810f50000d003a0071c7b300be
:101ba00042d3200092cf100009003a000060fe00ee
:101bb00090c0a9005824ef009823ef00020078009d
:101bc000216a8000010001000844a0000f003700d6
:101bd00051a52a00810f50000c003a0070c7b300d5
:101be00041d32000914f100008003a000060fe0031
:101bf00001007800316a80000100010090c0a90056
:101c00005824ef009823ef000854a000c0d0200013
:101c10001040780081c8b300814f500006003200a8
:101c200002d2200092cf1000030032007401410064
:101c300092cf100001003a000864a00071c7b30001
:101c4000814f5000070032000140780001d220008f
:101c5000914f100003003200f4804000914f1000bb
:101c600001003a000874a000084078004f04780092
:101c7000000006008040eb00c0d020000148780042
:101c80000000e800014878000000eb007068880060
:101c9000806888002503200095688800e401200002
:101ca000a4688800b06888006011b800c268880025
:101cb000d3688800c6952000e668880086842000e6
:101cc000f66888000060fe0006d22000004b780015
:101cd0000603e800014b780010698800206988003d
:101ce0003569880044698800506988006269880005
:101cf000736988000690200086698800c67e2000ef
:101d0000966988000060fe0046d32000014b7800f1
:101d10000603e800014b7800b0698800c0698800bc
:101d2000d5698800e4698800f0698800026a880043
:101d3000136a8800408a2000206a88000079200009
:101d4000306a88000060fe00000006000060fe00af
:101d500040d020003041880080c0b30028e8b700a0
:101d60005428ef00e462a900c7a2a900de82a900fe
:101d7000c742a900e862a900cb42a800cba2a900f3
:101d8000e282a800e902a9000060fe00dec2a9000c
:101d9000c782a900c7e2a900c722a900e2c2a90020
:101da000cb22a800cb82a900cbe2a800caa2a9003e
:101db0000060fe00dea2a900c762a900c7c2a90098
:101dc000c702a900e2a2a900cb02a800cb62a90029
:101dd000cbc2a800ca82a9000060fe005228ef0012
:101de0000060fe00a3ff0700b06a8000c16a8000a7
:101df000d06a8800e16a8800106b8800216b880037
:101e0000506b8800616b8800906b8800a16b880024
:101e1000d06b8800e16b8800401f2000010020008b
:101e2000b06b8800c16b88008000eb0041658800c2
:101e30000040eb00a2ca2000014978008200e800bf
:101e4000804878008100e800804878008100e80040
:101e5000804878008100e800804878008100e80030
:101e6000804878000060fe0021cc20008048780087
:101e7000e3804000804878008100e90080487800d5
:101e80008100e90080487800e480500080487800b4
:101e90008100e8008048780079fd07000000060016
:101ea00080688000a1aa2a00810f500006003a0035
:101eb0000060fe00e28c200020002f00f1072000cf
:101ec0007b1a07000800370051a52a00810f500037
:101ed00005003a000060fe00028d200040002f0047
:101ee000f1072000721a070020698000a1aa2a00c9
:101ef000810f500006003a000060fe00228d200095
:101f000060002f00f1072000691a07000800370061
:101f100051a52a00810f500005003a000060fe0024
:101f2000428d200080002f00f1072000601a07007a
:101f3000c0698000a1aa2a00810f500006003a0063
:101f40000060fe00628d2000a0002f00f10720003d
:101f5000571a07000800370051a52a00810f5000ca
:101f600005003a000060fe00828d2000c0002f00b6
:101f7000f10720004e1a070000000600889fbe00ef
:101f80008a1f7800d022800044e8b700d022800069
:101f90004800de0045e8b70010cfb300716880004c
:101fa0000100e000f7003a00116980000100e00044
:101fb000f4003a00b16980000100e000f1003a004d
:101fc0000060fe00d0d0200080c0eb0090cf100059
:101fd000060032007400400090cf10000300320071
:101fe0007400400090cf10001f003a0090c0a8007d
:101ff000f00b2000c02288009823ef000060fe0054
:1020000002322000c24088001a28ef003e15070067
:10201000b46a8000c56a8000e4408800f54088000a
:102020000000eb00706888008040eb00c2d0200008
:10203000004978000201e800014978001069880031
:1020400073014100014978000201e800014978006c
:10205000b069880074014100014978000201e9007b
:102060000149780040658800a0d720008e1907003c
:102070000004e00006003200cb1407000060fe0000
:10208000b06a8000c16a8000d06b8800e16b880074
:10209000a0d62000841907000004e00006003200ea
:1020a0000060fe00e00c0700b46a8000c56a800092
:1020b000546b8800656b88009c0907000004e000f1
:1020c000030032005228ef0000c0eb00ad003700e3
:1020d000a0ca20001004e000160032004065800015
:1020e0000000e00013003200a0d820006e190700a5
:1020f0000004e0000f00320090c0a800f00b2000a8
:10210000c02288009823ef00ddfc0700b8ca200039
:1021100061c0b30018407800120207000060fe00a2
:10212000004ceb000000eb00406588008800e900ef
:10213000804878002ad5200089ca200080d4200059
:10214000881a0700004478000804e0000400320008
:102150001a417800a1d420000180e900a2120700f2
:102160001900e00086003a000804e000f3ff3a009e
:1021700090c0a800f00b2000c02288009823ef0038
:10218000bc180700e2408000f340800060d52000ca
:1021900030021100a0821900c0408000d1408000b0
:1021a000800f5200818f5a001b00390090030700f6
:1021b00050cc20001004e00005003200800c20000c
:1021c00001002000b06b8800c16b8800050037005b
:1021d000401f200001002000b06b8800c16b880008
:1021e0002fff070020cc200000c8eb000000eb0010
:1021f0008068880020698800c06988000080eb0042
:102200008080eb00c0408800d1408800e04088001a
:10221000f14088009afc07000060fe0020d62000f4
:10222000211907000004e00003003a0020cc200040
:102230001004e000100032000060fe00320a0700c7
:1022400000be200035c0b30090cf120004003a0059
:10225000406580000000e00001003a003502070000
:1022600020cc20000048eb00b06a8000c16a8000ea
:10227000106b8800216b880020d920000a19070004
:102280000004e0000300320000be20000048eb0024
:102290000000fe000060fe0020d7200002190700a9
:1022a0000004e0002000320071842000914078009a
:1022b000f0ff2d003615070047e8ee00f0ca2000b9
:1022c0001004e00002003a0057a4ab0012003200f4
:1022d0004648ec0046e8b70071ccb300814f50008f
:1022e0000d0036006000b800a60d070090c0a800e1
:1022f000f00b2000c02288009823ef00401f200030
:1023000001002000b06b8800c16b8800f0ca20007b
:102310000048eb004668ef00b46a8000c56a8000a0
:10232000946b8800a56b88000060fe00a0d520009b
:10233000dd1807000004e00007003200af170700b7
:10234000d0438800e1438800b06a8000c16a800001
:10235000d06a8800e16a88000040eb00c1ca200012
:1023600000c1eb00914f110006003a00e907070099
:10237000c0ca20000048eb000040eb00010037001d
:1023800000c0eb004f0578004f04be0000000600bf
:10239000b9fd07000004e000fdff3a00e862a90073
:1023a000cb42a800cba2a900e282a800e902a900c2
:1023b000e2c2a900cb22a800cb82a900cbe2a800f0
:1023c000caa2a900e2a2a900cb02a800cb62a90080
:1023d000cbc2a800ca82a900e8fe0700ecff3700c4
:1023e0000040eb0091cd2000804878008100e9009a
:1023f000804878008180e80080487800f3805000b1
:10240000804878008100e800804878008000eb0078
:102410005166880062cc20000149780067014100c4
:10242000004978000201e8000049780081668800d0
:102430000281e90000497800670141000049780005
:102440000201e80000497800b16688000281e900d5
:1024500000497800f2ce2000004978000201e9002e
:10246000004978000281e8000049780073015100ba
:10247000004978000201e8000049780001678800ff
:102480000281e900004978006701410000497800b5
:102490000201e80000497800316788000281e90004
:1024a0000049780067014100004978000201e80016
:1024b00000497800616788008280e90080487800e0
:1024c000c0cf2000c067880000000600881f780089
:1024d0002a28ef0090c0a9005824ef009823ef00ad
:1024e0006011b8000520200006242400f700200019
:1024f000060037000060fe0061014100e0814900f4
:10250000860f5100878f59003f003200a8168000c7
:1025100008826200f7ff3200524180008042eb00e7
:1025200005437800870220000004eb00010037001b
:10253000080178000504a2000582fb000a003700ac
:102540000201e800e10f410007003a005241880013
:1025500090c0a800f00b2000c02288009823ef0054
:10256000e0c0b30029003700a3168000c919de00bf
:10257000e1816100848f5100f1ff320043fc2f00a4
:1025800082814100878f510002003600524188004d
:10259000040037000643e800e44f5300e4ff3a002c
:1025a0002a28ef00d522ab001a003200e44f530076
:1025b00018003a0090c0a800f20b2000c222880048
:1025c0009823ef0040419000e14f51000a0036008f
:1025d00012c0b3000060fe008281fb003102900057
:1025e000b002900065f279000241e800c04190001d
:1025f00082cf5100f7ff3e0001007800a50f0700d1
:102600000040eb0001003700e0c0b3004f04780049
:102610000000060090c0a800f00b2000c022880037
:102620009823ef00e0c0b300f8ff3700e6874700cb
:10263000889fbe008a9fbe008e1f78000004be00e7
:102640006e805700000009000018eb000058eb00f6
:102650000800be009dff070080407800e0c0b30086
:102660000104e000a7003a00f0c0b300f1ccb300d1
:10267000e28d200092cf1000a200320050c0b300c3
:1026800051cab3000201e90092cf10009d00320050
:10269000c84090000108a300030032000060fe0063
:1026a00020c0b3009700370020c0b300e1cf500036
:1026b0009400360038009000904578001045900056
:1026c000a0c0b300a18d200012c0b300914f110033
:1026d0008c003a008100e800914f110089003a0017
:1026e0008100e800914f110086003a0070c0b300ed
:1026f0005f1307008040780090c0b3000104e00041
:1027000080003a00484090000080fb000080e90013
:1027100022002000110009000200d8000042e80059
:1027200030c0b300804f520076003e000404e00049
:10273000250032008a82fb0080406500a1f79f00df
:10274000700032006e8757008040eb0006003700b3
:1027500082a9de00e3c16100036f78000281e80016
:102760000304e000660032008140e800814f52001f
:10277000f7ff3e00e24f520006003a0030c0b300bf
:10278000bff09700aff1970081cf510062003a008f
:102790005c003700e34f52000b003a002ff1970026
:1027a000bff1970030c0b300834f51005500320095
:1027b000cff0970081cf510052003200814f51007d
:1027c00055003a004f00370090cd200004487800b3
:1027d0000000e9000a4878000080e8000048eb00ab
:1027e0007300500000c8eb000000e800aff0970055
:1027f000014878000080e8000008eb00e14f52003b
:10280000110036005100370007487800de4178009b
:1028100013409800b8019000e3c27800c82add0098
:102820008181410073fb97000683fb00e3014000b8
:10283000850973000241e800660040008180e800dd
:10284000824f5200f0ff3e00e24f52000a003e006d
:102850000440780063cc20008040eb0062c0b300ed
:102860000440bc0002814100114198000040e80092
:10287000e34f5000f9ff3a00b0ca20000b4878003f
:10288000406580000000e00018003a000060fe0093
:1028900009007800ff0e0700804280008000eb00f6
:1028a000706c8800816c8800b06a8000c16a80000a
:1028b000506c8800616c88000060fe005055250057
:1028c00040658800a0ca200000c8eb00e9fa0700b4
:1028d000a913070090c0a9005824ef009823ef0027
:1028e000e4fa07000040eb0006003700a5130700dc
:1028f00080ca20000008eb0080c0b3000100370050
:1029000030c0b3004f0778004f05be004f04be0033
:102910006f00b1000000060090cd20000448780050
:102920000000e9000a4878000080e8000048eb0059
:102930007300500000c8eb000000e800aff0970003
:10294000014878000080e8000008eb00d0cc2000af
:102950006e8757003100200012c0b30080c3eb0027
:10296000a9ff37001200fa00728157000300090026
:102970000019eb0072815700e2bf9f0000c1eb001d
:10298000e2ff9f000060fe00a2bc20001281fb005d
:10299000023cb300cf91de00b2bf9f00c3bf9f00d7
:1029a00042c1b300e2ef9f006fb997001041980059
:1029b0006fb8970021409800a1cab3006fb8970084
:1029c0003140980040c0b300a0ff9f000060fe00af
:1029d0006a805700af0e07000080fa000000060072
:1029e000889fbe008a9fbe00800478008105780021
:1029f00002457800f8c0b300f0ccb300e18d2000b0
:102a0000914f10004700320058c0b30050cab300c5
:102a10008100e900914f100042003200390090001f
:102a2000104090008040e90038c0b300e6cf50006d
:102a30003c003e008e120700004478000804e000cd
:102a400038003a00e24f55000400320051a52a0038
:102a5000e44f55002e003a0001003700a1aa2a00d9
:102a600040658000810f500004003a00a0ca200099
:102a700080c0eb0090cf1000060032000060fe0026
:102a800071c0b3000a407800b6ff070080ca20007a
:102a90000008eb00c9419000e1cf51000e00360064
:102aa0003901900010ca200052427800904f520025
:102ab00019003a008000780010c0b300030037000e
:102ac00052427800d14f520015003a000040e80011
:102ad000834f5000faff390066fa0700a0ca2000b1
:102ae0000048eb000060fe000b007800690e070054
:102af000e24f550002003a00cffa07000900370004
:102b0000e44f550007003a001bfb070005003700a3
:102b100018c0b30003003700c8c0b300010037007d
:102b2000c8c0b300084078004f05be004f04be0087
:102b3000000006001200fa0072805700030009002e
:102b40000018eb0072805700e0bf9f0000c0eb0050
:102b5000e0ff9f000060fe00a0bc20001080fb0092
:102b6000f003b2000034b300cf80de00b0bf9f009e
:102b7000c1bf9f00a0c9b300e0ef9f0030cc200090
:102b80001004e00004003a000000e8001004e00037
:102b900006003a0025003700f0cb20000048eb008b
:102ba000650040001004e0000200320000cc20006c
:102bb0000048eb00f0cb2000104278000000e80055
:102bc000904178006b035000e5025000670150000f
:102bd0000000eb0080004000d683fb00813bdd005d
:102be00007427200d583fb00813bdd0087c1710085
:102bf0009283fb008138dd00015978000000e80075
:102c0000e30f5000f3ff3a00f0cb200004487800b7
:102c10000000e800034878000040eb0031cc2000c1
:102c2000804878008100e80080487800f1cb2000df
:102c30006fb89700914078001140980090cb200029
:102c40008000e8009140780090c070000080e800ab
:102c500090c070006fb897002140980001cc200010
:102c60006fb897009140780031409800f08d2000b7
:102c70001004e00005003a000060fe0011c0b3003f
:102c80006fb8970041409800040037000060fe00d4
:102c90008040eb006fb8970041409800d18d200034
:102ca0006fb89700914078005140980060c0b30021
:102cb000a0ff9f006a805700f60d07000060fe002d
:102cc0000040eb0091cb2000804878008100e800b4
:102cd000804878008100e800804878000080fa0091
:102ce00000000600800078004141900020c0b30041
:102cf000e34f51001f003a00310090001041900056
:102d00008240e90030c0b300e6cf500019003e0019
:102d1000d1cd20000000eb008041eb000282fb00df
:102d20008343780000c3eb008002eb0000a1de00cb
:102d30000208a30007003200864878000041e8003e
:102d40009240980063814000050978008341e800c3
:102d500001003700874878000000e800e680400066
:102d6000e30f5000f1ff3a00f0ce20000348780056
:102d70000040eb0000000600a08d2000904278008b
:102d80000000e800104278000000e8009041780060
:102d9000d0cd2000720140001004e0000f0032008e
:102da00090409000e2cf500007003200e3cf500087
:102db00008003200e1cf500011003a00e1cf52008c
:102dc0000600320010003700e14f520003003200cd
:102dd0000f003700e1cf51000f003a0066004000bd
:102de000820f5000ecff3a0030c0b300f1ce20005b
:102df0001104e000090032000040eb00070037003a
:102e000030c0b30005003700a0c0b3000300370096
:102e1000a0c0b30001003700a0c0b300000006004e
:102e2000a08d2000904278000000e8001042780059
:102e30000000e80090417800d0cd200072014000f1
:102e40001004e0000f00320090409000e2cf5000ec
:102e500007003200e3cf500008003200e1cf5000fd
:102e600011003a00e2cf5200060032001000370095
:102e7000e24f5200030032000f003700e2cf510052
:102e80000f003a0066004000820f5000ecff3a004d
:102e900030c0b300f1ce20001104e0000900320080
:102ea0000040eb000700370030c0b30005003700da
:102eb000a0c0b30003003700a0c0b300010037007a
:102ec000a0c0b30000000600889fbe008a9fbe001d
:102ed0008c1f780080047800010578008245780016
:102ee000f8c0b300f0ccb300e18d2000914f10008a
:102ef0003a00320058c0b30050cab3008100e90064
:102f0000914f100035003200406580000000e00065
:102f10000400320080ca20000008eb0088c0b30023
:102f20002e003700090078006eff0700004478008b
:102f30000804e00029003a00390090001040900099
:102f40004b110700004478000804e00023003a0019
:102f5000e1cf550004003a0087ff070000447800e5
:102f6000acaa2a000600370018c0b300e3cf550012
:102f70001a003a00aaff0700004478005ca52a0066
:102f80000804e00015003a000060fe00494190008e
:102f90000281fb00b900900000ca2000bcf60700c7
:102fa000a0ca200000c8eb000a007800390d070015
:102fb0004c658800b0ca20000b4878008042800031
:102fc0008000eb00706c8800816c8800b06a800023
:102fd000c16a8000506c8800616c880008407800ed
:102fe0004f0678004f05be004f04be0000000600eb
:102ff000889fbe0000d1200061cb2000c4032000c8
:10300000000242008044eb0009447800a3aa2a0091
:1030100055a52a0010017800830f510005003a00e1
:1030200022c0b300914f1100080032000844e800ac
:1030300006003700850f510004003a0012c0b300ab
:10304000914f1100010032008944e80074004000f3
:103050008100e800840f5000eeff3a00a0cf20006e
:1030600000c8eb00680050000a0d07000804e000eb
:1030700008003200b1c0b300b0ca20001040780090
:1030800038fe070021cbb30050cc20000148780067
:103090000c0037000904e00008003200b1c0b300a2
:1030a000b0ca2000104078002efe070031cbb300dc
:1030b00050cc2000014878000200370050cc20009e
:1030c0000048eb004f04be00000006001200fa00aa
:1030d000889fbe008a9fbe00f08057000300090051
:1030e0008018eb00f0805700e1b79f00a1bc2000e2
:1030f0001181fb00023cb300cf91de00b2b79f000c
:10310000c3b79f0080c0eb00e1ef9f00300090004c
:1031100010449000a044900020c9b30080f79f00a5
:10312000894f540027003e008ac0b3008045eb0061
:103130000060fe00808220000a4878006182200042
:1031400008407800d8010700ef4f4000020032002d
:10315000ed4f400005003a000060fe0021c0b300c2
:103160006fb0970010407800fefd07006fb0970029
:103170001840980028c8ec00a0ef9f000b00320018
:103180000b4078008080fb006fb197000101410087
:1031900033418000e3c17800234198000040e800fb
:1031a000afe8970080cf5000f6ff3e000060fe00c1
:1031b0007a805700b70c07000844e80088cf540015
:1031c000dbff31004f05be004f04be000080fa0057
:1031d00000000600881f7800000478003800900086
:1031e00010407800f34f5000ae003e004841900080
:1031f0000204e000ab00320051a52a00a342800087
:10320000818f510003003a0001c1b300d5fd0700d2
:10321000a4003700e54f50001b003e00f1ccb30086
:10322000e38d200093cf100003003a00f1c0b300fb
:10323000ccfd07009b00370051cab300d38d20009e
:1032400093cf10000400320011c0b300814f510031
:1032500004003e000c00370051c0b300c1fd070060
:10326000900037000060fe000181fb0038029000f2
:10327000c3678000e47179008140e8004841900014
:10328000814f5100f7ff3e00a1bc20001181fb00df
:10329000023cb300cf91de0092678800a3678800ec
:1032a000c1678000004178000274a0008248780065
:1032b00061cf2000c841900083487800e44f50005f
:1032c0003000320006003e00e24f50001500320090
:1032d0001e003e00e14f50006d003a00070037002d
:1032e000f14f50003a003200f24f500065003200ba
:1032f000e54f500066003a002c00370012c0b300c2
:1033000021cf200008007800effe07000004e00055
:10331000640032008040780010c0b30091fd0700c7
:103320006000370022c0b30021cf200008007800e1
:10333000abfd07000004e0005a0032008040780036
:1033400020c0b30087fd070056003700d0c0b3008f
:10335000128e20001204e00006003a0032c0b300d2
:1033600021cf200008007800d7fe07000004e0000d
:103370004c0032008040780030c0b30079fd070077
:103380004800370042c0b30021cf20000800780079
:1033900093fd07000004e000420032008040780006
:1033a00040c0b3006ffd07003e00370021cf200072
:1033b000080078009dfc07000004e000390032009e
:1033c0008040780050c0b30066fd0700350037002c
:1033d0000060fe00b8009000c0678000914090003f
:1033e00011409800380090008080e800314188004a
:1033f0001040900061822000fc000700e14f400077
:1034000006003a000060fe003800900011c0b300d2
:103410001040780053fd0700220037000004e00050
:10342000060032000060fe003800900021c0b300aa
:10343000104078004bfd07001a0037003141800032
:10344000c0678000914078002140980031418000a1
:10345000c067800091409000314098008182200038
:103460009140780060cf200001c8e8000060fe00b5
:1034700064005000070c0700c0ca200000c8eb0021
:10348000080037000800780010ff0700050037002b
:103490000060fe003800900011c0b30010407800ba
:1034a00030fd07004f047800000006003600f800e9
:1034b000809fbe00829fbe00849fbe00869fbe008c
:1034c0002a28ef0086e0a9004165800050552500bc
:1034d000808f50000600320090c0a800f00b200042
:1034e000c02288009823ef00a61007002d003700a7
:1034f000a0ca20001004e00006003a0090c0a80016
:10350000f00b2000c02288009823ef009d100700d8
:1035100024003700504180008041eb0003427800d6
:103520008002eb0001003700050078000304a200d0
:103530000381fb00050037000000e800e10f4000b8
:1035400002003a005041880016003700a1168000a2
:10355000c908de00e1806000828f5000f6ff320073
:10356000fe005000f48f50000200360050418800e9
:103570000c0037000442e800e44f5200eaff3a0032
:103580002a28ef00d522ab0006003200e44f52009b
:1035900004003a007b100700a0ca20000048eb009e
:1035a000b9f707004f03be004f02be004f01be0037
:1035b0004f00be003600f900004006002041900098
:1035c0000204e00007003200100178009100900032
:1035d000114978000060fe0011c0b300214098003e
:1035e000030037008040eb00214098000060fe009f
:1035f00000000600204190000204e00007003200b5
:103600009100900010017800924878000060fe0060
:1036100011c0b30021409800030037008040eb0048
:10362000214098000060fe0000000600204190004c
:10363000e14f51000b00360091009000910078009e
:1036400010017800014978000060fe001001780048
:10365000c808de001141980021c0b3002140980045
:10366000030037000060fe008040eb00214098001e
:103670000000060020419000e14f51000b00360091
:1036800022c0b30022409800100078001041900042
:103690000281fb000060fe004811dd0091009000f7
:1036a0001080fb0080087100030037000060fe00fe
:1036b0008040eb0021409800000006000400fa0062
:1036c00020419000e14f51000f0036009100900022
:1036d0001101be00e2bf9f00f3bf9f00658157004c
:1036e0008000eb00900178005242780084f178006d
:1036f0000060fe008100e800e48f5000f9ff3a000e
:1037000021409800030037000060fe008040eb007d
:10371000214098000080fa0000000600881f780011
:103720000004780028409000e14f50000f00360060
:103730001100900002002000832c24001000be0025
:1037400055f40700e4f307009800780080487800fb
:103750000060fe00980078004800de00904098006d
:1037600020c0b30020449800030037000060fe0032
:103770000040eb00204498004f0478000000060051
:10378000889fbe000004780028409000e14f500060
:10379000110036001800780090419000c819dd0033
:1037a0001081fb00030071000060fe009104900096
:1037b0008000eb00e3f30700a2702d0033c223006a
:1037c00035f40700808cbe000060fe0020c0b3000e
:1037d00020449800030037000060fe000040eb002a
:1037e000204498004f04be0000000600889fbe00e1
:1037f0008a1f780081047800439020008000eb004d
:103800000060fe0001047800934f10001e003a0093
:1038100001407800a2c0b3000440bc0040902000ea
:10382000000541006a41b900e6004100608178006e
:103830008a0078000900780002000100a940900089
:1038400010cfb3000104e000140032000060fe005d
:103850006a40b900680440004090200060017c008c
:103860008a00780009007800020001000060fe0074
:10387000a94090000040eb000104e00007003a007e
:1038800020cfb300050037008100e800ea81410045
:10389000fb8f5000daff3a0000c0eb004f057800c4
:1038a0004f04be0000000600881f78000104780065
:1038b00001c4b300814f50001d003e004390200022
:1038c0008000eb000060fe0001027800934f1000c2
:1038d00011003a000060fe006a22b900680242004e
:1038e0004390200001407800a2c0b3000440bc0017
:1038f00083004100e3017a00080078000300010022
:10390000a84090000040eb000104e00024003a00d1
:1039100010cfb300220037008100e800ea814100a7
:10392000fb8f5000e7ff3a0020cfb3001c003700a8
:1039300023a120008000eb000060fe00010278005f
:10394000934f100011003a000060fe006a22b90097
:103950006802420023a1200001407800a2c0b30009
:103960000440bc0083004100e3017a0008007800b5
:1039700003000100a84090000040eb000104e000bb
:1039800007003a0030cfb300050037008100e8009f
:10399000ea814100f58f5000e7ff3a0040cfb300c5
:1039a0004f0478000000060011c0b30040902000d2
:1039b00001487800e08720003048880022c2b30028
:1039c000809020000248780001bc21005148880006
:1039d000e0b82100604888000060fe0024c0b30009
:1039e000e3902000844978002388200083488800e1
:1039f0002391200082497800a1488800b0488800bf
:103a000034c0b300e681410084497800a3892000d6
:103a1000d3488800c391200082497800f14888008b
:103a20000049880044c0b300e68141008449780021
:103a3000238a20002349880063922000824978006d
:103a4000414988005049880054c0b300e6814100d4
:103a5000844978006388200073498800039320001c
:103a60008249780091498800a04988000060fe00e2
:103a700064c0b300e681410084497800a388200037
:103a8000c3498800a393200082497800e149880057
:103a9000f049880074c0b300e68141008449780091
:103aa000a38a2000134a88004394200082497800aa
:103ab000314a8800404a88000060fe0084c0b3009c
:103ac000e681410084497800238b2000634a880006
:103ad000e394200082497800814a8800904a880057
:103ae00094c0b300e681410084497800e388200057
:103af000b34a88008395200082497800d14a880023
:103b0000e04a88000060fe00a4c0b300e6814100e6
:103b10008449780023892000034b880023962000e5
:103b200082497800214b8800304b8800b4c0b30034
:103b3000e681410084497800a38b2000534b880024
:103b4000c396200082497800714b8800804b880022
:103b50000060fe00c4c0b300e681410084497800e3
:103b6000238c2000a34b88006397200082497800b3
:103b7000c14b8800d04b8800d4c0b300e68141001f
:103b800084497800638c2000f34b88000398200060
:103b900082497800114c8800204c88000060fe00ab
:103ba000e4c0b300e681410084497800a38c200082
:103bb000434c8800a398200082497800614c88001b
:103bc000704c8800f4c0b300e6814100844978005d
:103bd000838e2000934c880043992000824978000e
:103be000b14c8800c04c88000060fe0003c1b300e7
:103bf000a4992000034a7800c48e2000e44c880079
:103c0000e4992000024a7800014d8800104d880098
:103c100015c1b30066024200054a7800048f2000f7
:103c2000344d8800849a2000024a7800514d880063
:103c3000604d88000060fe0021c1b30066004200b4
:103c40000148780000852000804d880002c1e9000d
:103c50006a00420002487800a1b32100a14d88000b
:103c600060b12100b04d880035c1b3007002420040
:103c7000054a7800e4842000d44d8800c49b2000cd
:103c8000024a7800f14d8800004e88000060fe0076
:103c900041c1b3006600420001487800208e200038
:103ca000204e88006a00420003487800a1af21003e
:103cb000414e8800e0ad2100504e880054c1b30051
:103cc000c29c200004497800528e2000724e880069
:103cd000029d200003497800914e8800a04e880084
:103ce0000060fe0064c1b300660141000449780031
:103cf000328e2000c24e8800a29d20000349780029
:103d0000e14e8800f04e880074c1b30066014100a6
:103d100004497800628e2000124f8800429e2000e5
:103d200003497800314f8800404f88000060fe0052
:103d300084c1b3006601410004497800428e20002e
:103d4000624f8800e29e200003497800814f88007e
:103d5000904f880094c1b300660141000449780087
:103d6000728e2000b24f8800829f200003497800a5
:103d7000d14f8800e04f88000060fe00a4c1b3006e
:103d80006601410004497800028e2000025088003c
:103d900022a020000349780021508800305088007c
:103da000b4c1b3006601410004497800c28220001a
:103db00052508800c2a0200003497800715088004a
:103dc00080508800000006000060fe0011c4b300af
:103dd00020a1200001487800e0852000a050880044
:103de000ffc0500060a12000014878000000eb00f7
:103df000c0508800e2b82100d250880024c4b3002b
:103e0000c3a120008449780023862000f350880055
:103e100003a22000814978001051880022518800b7
:103e20000060fe000442e800e68141008449780019
:103e30006386200043518800a3a2200081497800b6
:103e400060518800725188000442e800e681410018
:103e500084497800a38620009351880043a3200062
:103e600081497800b0518800c25188000442e800be
:103e7000e681410084497800a3872000e35188004f
:103e8000e3a320008149780000528800e3b52100b7
:103e9000135288000060fe000442e80043a42000a2
:103ea00084497800e38c20003352880004c2b300b8
:103eb00083a42000844978005052880063b1210017
:103ec0006352880076c4b300e5a42000864a7800d7
:103ed000058d20008552880025a52000844a7800a1
:103ee000a0528800b35288000060fe000643e8003c
:103ef000e6824200864a7800258d2000d55288004f
:103f0000c5a52000844a7800f05288000353880039
:103f10000643e800e6824200864a7800458d20008c
:103f20002553880065a62000844a78004053880005
:103f3000535388000060fe000643e800e68242001a
:103f4000864a7800658d20007553880005a72000fb
:103f5000844a780090538800a35388000643e80001
:103f6000e6824200864a7800858d2000c55388008d
:103f7000a5a72000844a7800e0538800f353880006
:103f80000060fe00c4c4b300e681420084497800aa
:103f9000a38d20001354880004c1b300ea814200bd
:103fa0008449780030548800e3ad210043548800f0
:103fb00006c3e800f0824200864a7800b58d2000f2
:103fc00065548800e5a82000844a78008054880061
:103fd000935488000060fe000643e800e682420039
:103fe000864a7800c58d2000b554880085a9200038
:103ff000844a7800d0548800e35488000643e800df
:10400000e6824200864a7800d58d2000055588005a
:1040100025aa2000844a780020558800335588005e
:104020000060fe000643e800e6824200864a78000f
:10403000e58d200055558800c5aa2000844a7800e7
:1040400070558800835588000643e800e6824200e8
:10405000864a7800f58d2000a555880065ab2000c4
:10406000844a7800c0558800d35588000060fe005f
:104070000643e800e6824200864a7800058e20006a
:10408000f555880005ac2000844a78001056880059
:104090002356880034c5b300e68142008449780085
:1040a000e386200043568800ea8142008149780077
:1040b00060568800725688000442e800e68141009c
:1040c000844978002387200093568800f4814200b9
:1040d00081497800b0568800c25688000442e80042
:1040e000e68141008449780063872000e356880018
:1040f000fe814200814978000057880012578800ed
:10410000000006000400fa0020419000e14f510039
:104110000d00360090017800658157000f02e9001c
:1041200033697800840f5100fdff3a009100900040
:104130006fb99700ffb997008288be0041c0b300f5
:1041400021409800030037000060fe008040eb0033
:10415000214098000080fa00000006000200fa00ea
:10416000889fbe008a9fbe00010478008000eb009b
:10417000b1bf9f000060fe000085fb004255dd00de
:1041800002102f00f30720004fd0de00020545008b
:1041900083054800284090000004e000160032002b
:1041a0008044eb000060fe000980fb008000eb0013
:1041b0000000450081804d006a815700b51107005d
:1041c0000980fb00980078006ff1970082707800fa
:1041d000a84090000108a30003003a001800400026
:1041e000fff097001140980089c4e8002840900033
:1041f000894f5000ebff3e004f05be004f04be004c
:104200000080fa00000006000400fa00889fbe004b
:104210008a9fbe00010478008000eb00a1bf9f00d0
:10422000b1bf9f000060fe000085fb004255dd002d
:1042300002102f00f30720004fd0de0002054500da
:1042400083054800284090000004e0002000320070
:104250008044eb000060fe00284090000008a300ae
:1042600008003a000980fb00800040001800400070
:10427000104090000080fb00800178006c815700a6
:1042800003b178000980fb0000014000ec8057007a
:104290000281400098007800e14078008180fb00b6
:1042a000120078004800dd00008970000980fb00e2
:1042b0008000eb000000450081804d0040110700a8
:1042c00089c4e80028409000894f5000e1ff3e007b
:1042d0004f05be004f04be000080fa00000006003b
:1042e00090c0a9005824ef009823ef000060fe0062
:1042f00000017800c0ff2f00f107200030110700f7
:1043000090c0a800f00b2000c02288009823ef0086
:10431000000006000200fa00889fbe008a9fbe00cf
:104320008c9fbe000000eb0090bf9f0048902000d3
:104330000005eb0019c0b300080678008046eb00ca
:104340000060fe009845780089cf550023003a00b0
:10435000c84090008180fb00c408de0081417800e5
:1043600002832000034978000060fe006a51b90012
:104370008200460048019000e08220000200010017
:104380003048e20015003200e18220000b40780046
:104390009dff0700e18220000b4078006fff0700bf
:1043a0000060fe003048e2000c0032000d40780052
:1043b0000060fe008080fb0072418000e2c0780057
:1043c0008180fb001fb997000101410092bf9f004f
:1043d0000040e8003048e300f5ff3e008944e80073
:1043e0000a05e8006a044400fccf5400d4ff3a00f8
:1043f0006e805700baff07004f06be004f05be0093
:104400004f04be000080fa000000060090c0a90022
:104410005824ef009823ef000060fe0000017800b0
:10442000c0ff2f00f10720001a11070090c0a8005c
:10443000f00b2000c02288009823ef000000060047
:10444000e4874700889fbe008a9fbe008c9fbe0005
:104450008e1f78000000eb0080bf9f004890200076
:104460006055b80019c0b300880678000047eb001b
:104470000060fe0018407800894f50001a003a0092
:10448000c84090008180fb00c408de0081417800b4
:104490000283200003497800e18220002fff0700fb
:1044a0000060fe006a58b900808046003801900024
:1044b000e0822000020001003048e2000a003200e1
:1044c0000e4078000060fe008080fb00724180009a
:1044d000e2c078008180fb00010545000040e80053
:1044e0003048e300f7ff3e008944e8008b05e80010
:1044f0006a044400fccf5400ddff3a000060fe0077
:1045000070805700c1ff07000fb897008a0f500056
:1045100003003a000060fe000040eb00020037009c
:104520000060fe0000c0eb004f0778004f06be00a1
:104530004f05be004f04be004f00b1000000060052
:10454000608520007041880080c0b30030e8b7006b
:104550000060fe00e28c200020002f00f107200008
:10456000e9100700028d200040002f00f107200015
:10457000e5100700228d200060002f00f1072000c9
:10458000e1100700428d200080002f00f10720007d
:10459000dd100700628d2000a0002f00f107200031
:1045a000d9100700828d2000c0002f00f1072000e5
:1045b000d51007006000b8005043880061438800b0
:1045c0000e0f0700d0438800e14388000060fe0022
:1045d0000040eb00a18d2000804878008100e800b9
:1045e000804878008100e800804878000060fe0084
:1045f0008100e800804878008100e8008048780069
:104600008100e800804878008180e80080487800d8
:10461000e5fc0700ecfd07000060fe0088ff0700d6
:104620000004e000400032004006200001002000ad
:10463000b06b8800c16b880000002000010c2400d2
:104640003046880041468800d0cc2c00c1022400ae
:1046500050468800614688000060fe00000020008f
:1046600001372400f0438800014488000000200046
:1046700011372400304488004144880000002000a5
:104680002137240070448800814488000000200005
:10469000413324001044880021448800a09921005f
:1046a00051332400504488006144880000002000f9
:1046b0006133240090448800a14488000000200059
:1046c00001f8230040478800514788006047880070
:1046d00071478800804788009147880020c3b30055
:1046e000218e2000804878008100e8008048780012
:1046f0008100e80080487800e0c1b3008100e80054
:10470000804878008100e800804878008100e80057
:104710008048780080bb200070428800804288007a
:10472000a0c0b3002ce8b700000006000060fe0047
:104730009042800071a22a00810f5000a600320032
:1047400008003e008180e900810f500074003200b3
:104750008e003e008100e900810f5000e7003a0022
:104760005c00370091a22a00810f5000c80032007f
:10477000b4003900c102b000810f5000280032009f
:104780005105b000810f5000dc003a000060fe00cf
:10479000f0c3b300e18d2000914f10001d003a00de
:1047a00070c0b300320b07000004e00019003a00ab
:1047b0000060fe00208e20009080fb000040eb0097
:1047c0003df40700308e20009080fb0010c0b30045
:1047d00039f40700408e20009080fb0020c0b30019
:1047e00035f4070020c0b300b1ca2000804878002b
:1047f0000060fe0091cb2000804878008100e80036
:10480000804878008100e8008048780000c0eb0014
:10481000bc0037005228ef0000c0eb00b9003700a1
:104820000060fe00108e200080c0eb0090cf1000d2
:1048300003003a005228ef000040eb00b1003700bf
:10484000f0c3b300e18d2000914f10001e003a002c
:1048500070c0b300060b07000004e0001a003a0025
:104860000060fe00508e20009080fb000040eb00b6
:1048700049f40700608e20009080fb0010c0b30058
:1048800045f40700708e20009080fb0020c0b3002c
:1048900041f4070041c0b300b0ca200001487800cd
:1048a0000060fe0010c0b30091cb2000804878006b
:1048b0008100e800804878008100e80080487800a6
:1048c00000c0eb008f0037005228ef0000c0eb0063
:1048d0008c0037000060fe0010c0b300e40a07003f
:1048e0000004e0000b003a00208e20009080fb00c6
:1048f0000040eb00f0f3070020c0b30091cb200094
:1049000080487800b1ca20008048780000c0eb00e1
:104910007c0037005228ef0000c0eb007900370020
:104920000060fe00108e200080c0eb0090cf1000d1
:1049300003003a005228ef000040eb0071003700fe
:1049400010c0b300ca0a07000004e0000c003a00df
:10495000508e20009080fb000040eb000ef407001a
:1049600011c0b30090cb20000148780041c0b300d3
:10497000b0ca20000148780000c0eb006100370099
:104980005228ef0000c0eb005e0037000060fe0020
:1049900020c0b300b60a07000004e0000b003a0094
:1049a000308e20009080fb0010c0b300c2f30700df
:1049b00020c0b300a1cb200080487800b1ca2000fd
:1049c0008048780000c0eb004e0037005228ef000e
:1049d00000c0eb004b0037000060fe00108e20008e
:1049e00080c0eb0090cf100003003a005228ef0087
:1049f0000040eb004300370020c0b3009c0a0700d2
:104a00000004e0000c003a00608e20009080fb0063
:104a100010c0b300e0f3070011c0b300a0cb20002a
:104a20000148780041c0b300b0ca200001487800b6
:104a300000c0eb00330037005228ef0000c0eb004d
:104a4000300037000060fe0040c0b300880a070055
:104a50000004e0000b003a00408e20009080fb0034
:104a600020c0b30094f3070020c0b300b1cb2000f6
:104a700080487800b1ca20008048780000c0eb0070
:104a8000200037005228ef0000c0eb001d00370067
:104a90000060fe00108e200080c0eb0090cf100060
:104aa00003003a005228ef000040eb0015003700e9
:104ab00040c0b3006e0a07000004e0000c003a009a
:104ac000708e20009080fb0020c0b300b2f307007e
:104ad00011c0b300b0cb20000148780041c0b30042
:104ae000b0ca20000148780000c0eb000500370084
:104af0005228ef0000c0eb00020037000060fe000b
:104b00000040eb0000000600e6874700889fbe00db
:104b10008a9fbe008c9fbe008e1f7800220a07006d
:104b2000a08d200010407800e0ef9f00b08d2000a5
:104b300010407800f0ef9f00c08d200010407800fa
:104b400080f79f000a782800e60555004e77280078
:104b5000cc7528008d7628006044b8000060fe0007
:104b6000f280570061c07c00e24f500033003200f9
:104b7000e34f500003003200e14f50004a003a007a
:104b8000120037006275280062007c0000c1eb0053
:104b90009c007800180b07002176280061007c003b
:104ba00000c1eb009d007800130b07000041eb00f3
:104bb0009a0078001b0078000f0b070030c0b3008c
:104bc000f28d200000497800370037006175280019
:104bd00061007c0000c1eb009c007800060b070020
:104be0002276280062007c000041eb009d007800e6
:104bf000010b070000c1eb009a0078001b00780051
:104c0000fd0a070010c0b300f18d20008048780035
:104c100030cbb30052cc2000924f100022003a005b
:104c2000401f20000100200062d720000089be0044
:104c300050cc20000048eb001b00370061752800b5
:104c400061007c000041eb009c007800ea0a07004c
:104c50002276280062007c0000c1eb009d007800f5
:104c6000e50a070000c1eb009a0078001b007800fd
:104c7000e10a070020c0b300f18d200080487800d1
:104c800020cbb30052cc2000924f100006003a0017
:104c9000401f20000100200062d720000089be00d4
:104ca00050cc20000048eb0060cb20000080440086
:104cb00060409000e24f50000a003200e34f500085
:104cc00003003200e14f500021003a00130037008a
:104cd0000041eb009a0078001b007800c60a07002c
:104ce0001b003700e076280060007c000041eb00ec
:104cf0009e007800c00a070032c0b300f18d20008a
:104d0000914f11001200320000c1eb009a007800b0
:104d10001b007800b80a07000d003700e076280075
:104d200060007c0000c1eb009e007800b20a070022
:104d300031c0b300f08d200090cf1000040032008d
:104d400000c1eb009a0078001b007800aa0a070057
:104d50008904e8000a85e8000884e8008b85e800fb
:104d60000e87e8000c86e8008d86e800e38f54008b
:104d70007aff3a000060fe00b08d200010407800fd
:104d8000e14f500011003a00a08d200012c0b30086
:104d9000904f110020003a000080e800904f110071
:104da0001d003a000041eb00f1ff27000008200041
:104db000910a070000c1eb00f1ff2b00002020004a
:104dc0008d0a07000060fe001b003700e24f500014
:104dd00011003a00a08d200021c0b30090cf100038
:104de0000d003a000080e80090cf10000a003a0061
:104df0000041eb00f1ff2b00002020007e0a07009d
:104e000000c1eb00f1ff2700000820007a0a07002c
:104e10000060fe000800370000c1eb00f1ff270032
:104e200000082000740a070000c1eb00f1ff2b000e
:104e300000202000700a07004f0778004f06be00d0
:104e40004f05be004f04be006f00b1000000060019
:104e500090db200011c1b30090cf10000400360099
:104e600011cab300d08d200001487800030037003c
:104e700051cab300d08d20000148780090db20009b
:104e80000048eb000000e80011c1b30090cf100013
:104e900004003600f1ccb300e08d2000014878001a
:104ea00003003700f1c3b300e08d20000148780013
:104eb000a0db20000048eb000000e80011c1b300b7
:104ec00090cf100003003600108e200000c8eb00c9
:104ed00002003700108e20000048eb00b0db2000fd
:104ee0000048eb000000e80011c1b30090cf1000b3
:104ef000070036000000e80090cf10000c003e00d4
:104f000021c0b300a08d2000014878000b003700bd
:104f1000d0db200011c1b30090cf10000400360098
:104f200011c0b300a08d20000148780003003700b5
:104f300031c0b300a08d2000014878000040eb0094
:104f4000c1db2000804878008100e80080487800bc
:104f50000100e80011c1b30090cf10000700360037
:104f60000000e80090cf10000c003e0021c0b3000c
:104f7000b08d2000014878000b003700f0db2000e6
:104f800011c1b30090cf10000400360011c0b3006f
:104f9000b08d2000014878000300370031c0b30015
:104fa000b08d2000014878000040eb00e1db2000dc
:104fb000804878008100e800804878000100e8001f
:104fc00011c1b30090cf1000070036000000e800c8
:104fd00090cf10000c003e0021c0b300c08d200017
:104fe000014878000b00370010dc200011c1b3002d
:104ff00090cf10000400360011c0b300c08d200017
:10500000014878000300370031c0b300c08d200094
:10501000014878000040eb0001dc20008048780067
:105020008100e80080487800000006000040eb00a6
:105030005408e200d0003a0020dc200011c1b30087
:1050400090cf1000240036000000e80090cf100040
:105050000d0036000040eb0021dc20008048780085
:105060008100e8008048780030c0b300a18d2000a6
:10507000804878008100e800804878008100e800de
:10508000804878002c0037000040eb0021dc200035
:10509000804878008100e80080487800a08d2000da
:1050a00012c0b300904f110009003a000000e80060
:1050b000904f110006003a000000e800904f1100e8
:1050c00003003a00a0aa2a0090428800e9f00700f5
:1050d00052c8bf00a800370030dc200011c1b30067
:1050e00090cf1000140036000040eb0021dc2000bf
:1050f000804878008100e80080487800a08d20007a
:1051000022c0b300904f110009003a000000e800ef
:10511000904f110006003a000000e800904f110087
:1051200003003a0050a52a0090428800d1f0070001
:1051300052c8bf009000370040dc200011c1b3000e
:1051400090cf10001a0036000000e80090cf100049
:10515000090036000040eb0041dc20008048780068
:105160008100e8008048780031c0b300a08d2000a5
:1051700001487800200037000040eb0041dc2000af
:10518000804878008100e80080487800a08d2000e9
:1051900012c0b300904f110003003a0040a22a0051
:1051a00090428800b3f0070052c8bf007200370079
:1051b00050dc200011c1b30090cf10000e0036006b
:1051c0000040eb0041dc2000804878008100e800ce
:1051d00080487800a08d200022c0b300904f1100bd
:1051e00003003a0050a22a0090428800a1f0070074
:1051f00052c8bf006000370060dc200011c1b3005e
:1052000090cf10001a0036000000e80090cf100088
:10521000090036000040eb0061dc20008048780087
:105220008100e8008048780031c0b300b08d2000d4
:1052300001487800200037000040eb0061dc2000ce
:10524000804878008100e80080487800b08d200018
:1052500012c0b300904f110003003a0060a22a0070
:105260009042880083f0070052c8bf004200370018
:1052700070dc200011c1b30090cf10000e0036008a
:105280000040eb0061dc2000804878008100e800ed
:1052900080487800b08d200022c0b300904f1100ec
:1052a00003003a0070a22a009042880071f00700c3
:1052b00052c8bf003000370080dc200011c1b300ad
:1052c00090cf10001b0036000000e80090cf1000c7
:1052d0000a0036000040eb0081dc200080487800a6
:1052e0008100e8008048780031c0b300c08d200004
:1052f000014878000040eb001f0037000040eb0041
:1053000081dc2000804878008100e8008048780037
:10531000c08d200012c0b300904f110003003a006e
:1053200080a22a009042880052f0070052c8bf00b5
:10533000110037000040eb0091dc200012c1b300e7
:10534000914f11000c0036008100e9008048780080
:105350008100e80080487800c08d200021c0b300a3
:1053600090cf100003003a0090a22a0090428800db
:1053700040f0070052c8bf0000000600a08d2000ca
:105380001040780061db2000914f100009003200ce
:1053900061cb20008048780061db200080487800e5
:1053a00000c0eb0021cc2000804878008100e8009c
:1053b00080487800b08d20001040780071db20001c
:1053c000914f10000900320071cb20008048780016
:1053d00071db20008048780000c0eb0021cc200069
:1053e000804878008100e80080487800c08d200067
:1053f0001040780081db2000914f1000090032003e
:1054000081cb20008048780081db20008048780034
:1054100000c0eb0021cc2000804878008100e8002b
:105420008048780000000600a80807009041880026
:10543000a14188003668ec0090418000a1418000c5
:105440000028a3000200320090db20001048e80092
:1054500090418000a14180000008a30002003200ba
:10546000a0db20001048e80090418000a1418000ae
:105470000048a30002003200b0db20001048e80022
:1054800090418000a14180000018a300020032007a
:10549000c0db20001048e80090418000a14180005e
:1054a0000038a30002003200d0db20001048e800e2
:1054b00090418000a14180000058a300020032000a
:1054c000e0db20001048e80090418000a14180000e
:1054d0000078a30002003200f0db20001048e80052
:1054e00090418000a14180000098a300020032009a
:1054f00000dc20001048e80090418000a1418000bd
:1055000000b8a3000200320010dc20001048e800c0
:1055100090418000a1418000000278000420a10099
:105520006109b800c010dd00000020006121b80052
:10553000020070008380700090418800a1418800c3
:105540005408e20070003a000060fe0090418000c4
:10555000a1418000928820004300200000026100e9
:10556000018161008001eb00c010dd00000020001f
:105570006121b800020070008380700082882000e2
:1055800043002000820f5000838f580002003a0031
:1055900020dc20001048e80090418000a1418000fc
:1055a000322320000301200000026100018161001c
:1055b0008001eb00c010dd00000020006121b80078
:1055c000020070008380700022222000030120006e
:1055d000820f5000838f580002003a0030dc200018
:1055e0001048e80092418000a34180009004200010
:1055f00001002000020160008001eb00800f5100db
:10560000818f590002003a0040dc20001048e80079
:1056100090418000a14180003011b2008000eb0079
:1056200032102000820f5000e08f580002003a0034
:1056300050dc20001048e80092418000a341800027
:105640001048200001002000020160008001eb00f2
:10565000800f5100818f590002003a0060dc200069
:105660001048e80090418000a14180001203210011
:10567000000061008000eb0012022100820f500048
:10568000e08f580002003a0070dc20001048e8006b
:1056900092418000a341800010802400010020007e
:1056a000020160008001eb00800f5100818f5900e2
:1056b00002003a0080dc20001048e80090418000a1
:1056c000a14180001221200013002000000261008f
:1056d000018161008001eb00c010dd0000002000ae
:1056e0006121b80002007000838070001220200049
:1056f00013002000820f5000838f580002003a00f0
:1057000090dc20001048e80036c8bf00fd4f500074
:10571000060036003668ef00cdfd070043fe0700a7
:105720000004e00001003a0014ff0700000006003a
:105730005164a800f0f32f005224b60000fc2f00a3
:105740005204b6000020a000902288000060fe00f5
