:020000040000fa
:080000000001040000000000f3
:020000040000fa
:0400080020020000d2
:020000040000fa
:04000c0000020000ee
:020000040000fa
:0400100004020000e6
:020000040000fa
:0400140008020000de
:020000040000fa
:040018000c020000d6
:020000040000fa
:04001c0020020000be
:020000040000fa
:0400200020020000ba
:020000040000fa
:0400240020020000b6
:020000040000fa
:0400280020020000b2
:020000040000fa
:04002c0020020000ae
:020000040000fa
:0400300020020000aa
:020000040000fa
:0400340020020000a6
:020000040000fa
:0400380020020000a2
:020000040000fa
:04003c00200200009e
:020000040000fa
:0400400076470000ff
:020000040000fa
:04004400a40900000b
:020000040000fa
:040048002002000092
:020000040000fa
:04004c00b6480000b2
:020000040000fa
:04005000d64800008e
:020000040000fa
:040054002002000086
:020000040000fa
:040058002002000082
:020000040000fa
:04005c00200200007e
:020000040000fa
:04006000200200007a
:020000040000fa
:040064002002000076
:020000040000fa
:040068002002000072
:020000040000fa
:04006c00200200006e
:020000040000fa
:04007000200200006a
:020000040000fa
:040074002002000066
:020000040000fa
:040078002002000062
:020000040000fa
:04007c00260a000050
:020000040000fa
:04008000200200005a
:020000040000fa
:040084007a1a0000e4
:020000040000fa
:040088002002000052
:020000040000fa
:04008c00200200004e
:020000040000fa
:04009000200200004a
:020000040000fa
:040094002002000046
:020000040000fa
:040098002002000042
:020000040000fa
:04009c00200200003e
:020000040000fa
:0400a000200200003a
:020000040000fa
:0400a4002002000036
:020000040000fa
:0400a8002002000032
:020000040000fa
:0400ac00200200002e
:020000040000fa
:0400b000200200002a
:020000040000fa
:0400b4002002000026
:020000040000fa
:0400b8002002000022
:020000040000fa
:0400bc00200200001e
:020000040000fa
:0400c000683600009e
:020000040000fa
:0400c4002002000016
:020000040000fa
:0400c8002002000012
:020000040000fa
:0400cc00200200000e
:020000040000fa
:0400d000200200000a
:020000040000fa
:0400d4002002000006
:020000040000fa
:0400d8002002000002
:020000040000fa
:0401080020020000d1
:020000040000fa
:04010c0010020000dd
:020000040000fa
:0401100014020000d5
:020000040000fa
:0401140018020000cd
:020000040000fa
:040118001c020000c5
:020000040000fa
:04011c0020020000bd
:020000040000fa
:0401200020020000b9
:020000040000fa
:0401240020020000b5
:020000040000fa
:0401280020020000b1
:020000040000fa
:04012c0020020000ad
:020000040000fa
:0401300020020000a9
:020000040000fa
:0401340020020000a5
:020000040000fa
:0401380020020000a1
:020000040000fa
:04013c00200200009d
:020000040000fa
:040140002002000099
:020000040000fa
:040144002002000095
:020000040000fa
:040148002002000091
:020000040000fa
:04014c00200200008d
:020000040000fa
:040150002002000089
:020000040000fa
:040154002002000085
:020000040000fa
:040158002002000081
:020000040000fa
:04015c00200200007d
:020000040000fa
:040160002002000079
:020000040000fa
:040164002002000075
:020000040000fa
:040168002002000071
:020000040000fa
:04016c00200200006d
:020000040000fa
:040170002002000069
:020000040000fa
:040174002002000065
:020000040000fa
:040178002002000061
:020000040000fa
:04017c00200200005d
:020000040000fa
:040180002002000059
:020000040000fa
:040184002002000055
:020000040000fa
:040188002002000051
:020000040000fa
:04018c00200200004d
:020000040000fa
:040190002002000049
:020000040000fa
:040194002002000045
:020000040000fa
:040198002002000041
:020000040000fa
:04019c00200200003d
:020000040000fa
:0401a0002002000039
:020000040000fa
:0401a4002002000035
:020000040000fa
:0401a8002002000031
:020000040000fa
:0401ac00200200002d
:020000040000fa
:0401b0002002000029
:020000040000fa
:0401b4002002000025
:020000040000fa
:0401b8002002000021
:020000040000fa
:0401bc00200200001d
:020000040000fa
:0401c0002002000019
:020000040000fa
:0401c4002002000015
:020000040000fa
:0401c8002002000011
:020000040000fa
:0401cc00200200000d
:020000040000fa
:0401d0002002000009
:020000040000fa
:0401d4002002000005
:020000040000fa
:0401d8002002000001
:020000040000fa
:100200000fed20000e7f22000e018800000000008c
:10021000000020000000e000020032000001200089
:100220002002880014000700870007000000e0009b
:1002300003003a00c07824000100200002003700cb
:100240000000200001002000810f7000010032003a
:1002500014000700000020000000e000020032004f
:100260000000020000000000cc4902000000000075
:100270000040da000000fe004440a9008020200079
:100280000000e0000300320000002000a001880010
:100290004440a800000006008a1f78008b1f7800e9
:1002a0000000060091018800800478000000eb0047
:1002b0001a003700e284440032a0b4009905ba0065
:1002c000e284440032a0b4009906ba00e2844400fb
:1002d00032a0b4000006eb00476fde00fd07b2005d
:1002e000636ce10003003a00ebff07000000eb0045
:1002f0000a003700606ce10004003a00005deb008a
:100300008b05e900fdff3e00040037006168e10055
:10031000010032000086eb000b00070019c7ba008d
:100320001905ba000e04e00003003a000a00e000dc
:10033000e0ff3a0000000600fe07b2009e018800c0
:100340008a047800f5ff3700395dba008b05e900b3
:100350000c003200295dba008b05e900080032006c
:100360000c00e00003003a00e284440032a0b40034
:10037000f5ff370019ddba008b05e900faff3a00f6
:100380008904e800e184440032a0b40000000600c3
:10039000f21b040000000000c01b0400000000006d
:1003a0006c1b040000000000481b0400000000005b
:1003b0002c1b040000000000101b040000000000c3
:1003c000901b0400000000004c0904000000000025
:1003d0004408040000000000f408040000000000cd
:1003e000ec070400000000009c080400000000006e
:1003f00094070400000000006207040000000000f1
:100400008020a900ffff37008060a900ffff3700b0
:100410008040a900ffff37008080a900ffff370060
:100420008020a900ffff37008060a900ffff370090
:100430008040a900ffff37008080a900ffff370040
:100440000040da000000fe00000005003200f80065
:10045000910188000008bb00410424006210e10003
:1004600004003200000220000010e1000a003a00ff
:1004700051042400013b88000500fc0051052000c8
:10048000313b8800a10a2000313b880061e7a800c9
:1004900000000000000000003200f900000006002b
:1004a0003200f80060042400003b8800f2ff3700af
:1004b0003200f8009101880041002400013b8800cf
:1004c0000208bb00ecff37003200f8009101880001
:1004d00051002400013b8800030120003218bb00ba
:1004e0008301e900fdff3a00e3ff37003200f80026
:1004f000910188008002780062004000e08048009e
:100500003549ba003204e0000410a70010003200a0
:100510008301e9000e0032002549ba003204e000f0
:100520000410a7000a0032008301e900080032002d
:100530000408a300eeff320015c9ba003204e0003f
:100540000410a700020032008301e900e8ff3a002e
:100550003200f9000000060003f0a200889fbe00f0
:100560008a9fbe008c1f7800b5000700bc003300d6
:100570006450e1004f0032006420e100520032007c
:1005800003826c0007003b000905d0000306d00081
:10059000820f54000c065d00020039000200320098
:1005a00089017800030678008582550004003d002b
:1005b0000003fd008103fd008502ea008b854200f7
:1005c000840f720002003b0060001000e080180001
:1005d0006011b8000005eb007a28e1000a0039003c
:1005e00006007800c75ddd00f707b2008780750060
:1005f0002d003700828171000a01780061056000da
:100600008180d1000080d3008502e900f9ff3b0022
:10061000060440008784480002003b006004140088
:10062000e0841c000988a300070032008a81710061
:1006300082817100610164008904d1000884d300c3
:100640008b05e800170037000978a30013003a0073
:100650000b00e000130034008b05e900080444009f
:1006600089844c000a4474000978a3000d003a0004
:100670000b00e000070034008b05e900080444008b
:1006800089844c0001003a000b0020000978a30087
:10069000f7ff32000001eb00020037008281710099
:1006a0000a0178002b0007000cf0a70001f0a00061
:1006b000740037006420e10002003a00838f6c0070
:1006c000740033000801be000200be006d00370058
:1006d00014002000a6003700f4ff2f00a40037000c
:1006e0000001be00410007000470a70003f0a10054
:1006f00003f8a30013003a006509b10010003200ae
:10070000090035006928e1000200350001002800d9
:100710000000050000004000818048008502e900db
:10072000fcff3a0000000600f88f4200050035008b
:100730008100d1000080d3008502e800fcff3a0070
:10074000000006008000eb00000005006011b8000a
:10075000a200370081002000618055000b003d00a1
:100760000b00200061fe2f000100e1001d0034009d
:1007700082817100610164008904d1000884d30082
:100780000000e800faff3a007100200061006400f8
:1007900003007000020060000900320061044400a0
:1007a000e0844c000988a500050032008b05e800b4
:1007b0006808e10002003a008904d1000884d300ef
:1007c000f20f20000258e10005003d00c75ddd008a
:1007d000f907b20089807500080078000000060063
:1007e0000bf827008b00780000000500c70ade0028
:1007f000f107b200f50fb20008003200e1cf42006d
:10080000020032000170a00024000500810f70007a
:10081000010032000408050044000500810f70004b
:1008200002003a00140005008502e90000004000c3
:1008300081c04800fcff3b000170a00024000500bf
:100840000004be00e9ff07000003be000405be006f
:100850000200be00e5ff0700844f7500000006009f
:100860000200be006450e100050036006420e10093
:10087000020036000968a30001003a000800be002b
:100880000160a0004f0678004f05be004f04be0077
:1008900000000600f0ff2f00f1ff2700f9ff3700ee
:1008a000889fbe008a9fbe008c1f7800e4ff07006f
:1008b000ebff330003866c006450e100240032003b
:1008c0006420e100270032006150e1002200320084
:1008d0006120e100210032008b854200eb07b1006e
:1008e0000134b800003ab8000804420089844a0084
:1008f000013ab8000030b8008880400009014a0081
:1009000004003300000040008180480002014900db
:100910008b05e900c909dd00830170000100320088
:1009200013002000c814de004814dd004709de0073
:100930001200b200c808de000884700085ff0700be
:1009400001f0a1000cf0a70001f0a000cdff3700de
:100950006120e100cfff32000801be000200be00ae
:10096000f7ff37006150e100fcff3a00c9ff370094
:10097000889fbe008a9fbe00841f7800b0ff0700da
:100980004f00780011003300f0ff2f00838f6c00c0
:1009900006003b00040565000a00a70008003700b8
:1009a00009f0a6001000200008003700820f540054
:1009b000838f5c00030039001000200001003e001e
:1009c0000000200009f0a7000000ea004f05be006b
:1009d0004f04be000000e00000000600889fbe003b
:1009e0008a9fbe00008270000402710004827100c0
:1009f000260032000004be000200be006011b800f4
:100a00006b092000950220000182cf000a00390006
:100a10000541b1000082cf00070039000541b10057
:100a20000982cf00040039000541b1000882cf00df
:100a3000010039000541b1000542520012003200a8
:100a40000a003b0082817100610164008100d100d5
:100a50000080d3008984d3000884d3008b05e8008c
:100a60000442e800f7ff3a0007003700080444009a
:100a700089844c0000004800818048008b05e90013
:100a80000442e900f9ff3a0032ff07004f05be00bb
:100a90004f04be000000060080017800020037000d
:100aa000b15978000201e9000200e000fcff3a00c1
:040ab000000006003c
:020000040000fa
:100ab40000c100008140000001c00000804100002e
:100ac40001c000008041000000c10000814000001e
:100ad40001c000008041000000c10000814000000e
:100ae40000c100008140000001c0000080410000fe
:100af40001c000008041000000c1000081400000ee
:100b040000c100008140000001c0000080410000dd
:100b140000c100008140000001c0000080410000cd
:100b240001c000008041000000c1000081400000bd
:100b340001c000008041000000c1000081400000ad
:100b440000c100008140000001c00000804100009d
:100b540000c100008140000001c00000804100008d
:100b640001c000008041000000c10000814000007d
:100b740000c100008140000001c00000804100006d
:100b840001c000008041000000c10000814000005d
:100b940001c000008041000000c10000814000004d
:100ba40000c100008140000001c00000804100003d
:100bb40001c000008041000000c10000814000002d
:100bc40000c100008140000001c00000804100001d
:100bd40000c100008140000001c00000804100000d
:100be40001c000008041000000c1000081400000fd
:100bf40000c100008140000001c0000080410000ed
:100c040001c000008041000000c1000081400000dc
:100c140001c000008041000000c1000081400000cc
:100c240000c100008140000001c0000080410000bc
:100c340000c100008140000001c0000080410000ac
:100c440001c000008041000000c10000814000009c
:100c540001c000008041000000c10000814000008c
:100c640000c100008140000001c00000804100007c
:100c740001c000008041000000c10000814000006c
:100c840000c100008140000001c00000804100005c
:100c940000c100008140000001c00000804100004c
:100ca40001c000008041000000c10000814000003c
:100cb40000c00000c1010000c303000002c2000024
:100cc400c606000007c7000005c50000c4040000f4
:100cd400cc0c00000dcd00000fcf0000ce0e0000a4
:100ce4000aca0000cb0b0000c909000008c80000b4
:100cf400d818000019d900001bdb0000da1a000024
:100d04001ede0000df1f0000dd1d00001cdc0000f3
:100d140014d40000d5150000d717000016d6000023
:100d2400d212000013d3000011d10000d010000033
:100d3400f030000031f1000033f30000f232000023
:100d440036f60000f7370000f535000034f40000f3
:100d54003cfc0000fd3d0000ff3f00003efe0000a3
:100d6400fa3a00003bfb000039f90000f8380000b3
:100d740028e80000e9290000eb2b00002aea000023
:100d8400ee2e00002fef00002ded0000ec2c0000f3
:100d9400e424000025e5000027e70000e626000023
:100da40022e20000e3230000e121000020e0000033
:100db400a060000061a1000063a30000a262000023
:100dc40066a60000a7670000a565000064a40000f3
:100dd4006cac0000ad6d0000af6f00006eae0000a3
:100de400aa6a00006bab000069a90000a8680000b3
:100df40078b80000b9790000bb7b00007aba000023
:100e0400be7e00007fbf00007dbd0000bc7c0000f2
:100e1400b474000075b5000077b70000b676000022
:100e240072b20000b3730000b171000070b0000032
:100e34005090000091510000935300005292000022
:100e440096560000579700005595000094540000f2
:100e54009c5c00005d9d00005f9f00009e5e0000a2
:100e64005a9a00009b5b00009959000058980000b2
:100e740088480000498900004b8b00008a4a000022
:100e84004e8e00008f4f00008d4d00004c8c0000f2
:100e94004484000085450000874700004686000022
:100ea4008242000043830000418100008040000032
:100eb400596f00006e6700004369000000000000e5
:020000040000fa
:100ec40090407800e1cf500009003200030039005f
:100ed400e2cf500010003a000a0037006190200071
:100ee40091407800e3c04000114098000c003700a6
:100ef4007190200091407800e3c0400011409800b8
:100f0400070037008190200091407800e3c0400042
:100f1400114098000200370051c3b30011409800fb
:100f240000000600881f78000004780098009000f4
:100f340050a52a00808f50000d003a0070c7b300fe
:100f4400984f10000a003a00e2a2a900cb02a800c0
:100f5400cb62a800cbc2a900ca82a800e2a2a90061
:100f6400cb02a800cb62a800cbc2a900ca82a80009
:100f7400480190008001eb0068009000f8009000a8
:100f84007c1f07000004e00010003200e2a2a90068
:100f9400cb02a800cb62a900cbc2a800ca82a900d8
:100fa400e2a2a900cb02a800cb62a900cbc2a80090
:100fb400ca82a9000000eb0010049800004c7800dd
:100fc4000060fe0050a52a00200498004f04780019
:100fd40000000600881f7800000478009800900044
:100fe40050a52a00808f50000d003a0070c7b3004e
:100ff400984f10000a003a00e2c2a900cb22a800d0
:10100400cb82a800cbe2a900caa2a800e2c2a90030
:10101400cb22a800cb82a800cbe2a900caa2a800d8
:10102400480190008001eb0068009000f8009000f7
:10103400501f07000004e00010003200e2c2a900c3
:10104400cb22a800cb82a900cbe2a800caa2a900a7
:10105400e2c2a900cb22a800cb82a900cbe2a8005f
:10106400caa2a9000000eb0010049800004c78000c
:101074000060fe0050a52a00200498004f04780068
:1010840000000600881f7800000478009800900093
:1010940050a52a00808f50000d003a0070c7b3009d
:1010a400984f10000a003a00e862a900cb42a80059
:1010b400cba2a800e282a900e902a800e862a90084
:1010c400cb42a800cba2a800e282a900e902a800b2
:1010d400480190008001eb0068009000f800900047
:1010e400241f07000004e00010003200e862a90099
:1010f400cb42a800cba2a900e282a800e902a90081
:10110400e862a900cb42a800cba2a900e282a80011
:10111400e902a9000000eb0010049800004c7800dc
:101124000060fe0050a52a00200498004f047800b7
:1011340000000600881f78000004780098009000e2
:10114400a0aa2a00808f50000d003a0070c7b30097
:10115400984f10000a003a00cb62a900cbc2a80045
:10116400e2a2a800cb02a900ca82a800cb62a9000f
:10117400cbc2a800e2a2a800cb02a900ca82a800a0
:10118400380190008001eb0068009000f8009000a6
:10119400f81e07000004e00010003200e2a2a900db
:1011a400cb02a800cb62a900cbc2a800ca82a900c6
:1011b400e2a2a900cb02a800cb62a900cbc2a8007e
:1011c400ca82a9000000eb0010049800004c7800cb
:1011d4000060fe00a0aa2a00200498004f047800b2
:1011e40000000600881f7800000478009800900032
:1011f400a0aa2a00808f50000d003a0070c7b300e7
:10120400984f10000a003a00cb82a900cbe2a80054
:10121400e2c2a800cb22a900caa2a800cb82a900de
:10122400cbe2a800e2c2a800cb22a900caa2a8006f
:10123400380190008001eb0068009000f8009000f5
:10124400cc1e07000004e00010003200e2c2a90036
:10125400cb22a800cb82a900cbe2a800caa2a90095
:10126400e2c2a900cb22a800cb82a900cbe2a8004d
:10127400caa2a9000000eb0010049800004c7800fa
:101284000060fe00a0aa2a00200498004f04780001
:1012940000000600881f7800000478009800900081
:1012a400a0aa2a00808f50000d003a0070c7b30036
:1012b400984f10000a003a00cba2a900e282a800cd
:1012c400e862a800cb42a900e902a800cba2a900c9
:1012d400e282a800e862a800cb42a900e902a800c3
:1012e400380190008001eb0068009000f800900045
:1012f400a01e07000004e00010003200e862a9000c
:10130400cb42a800cba2a900e282a800e902a9006e
:10131400e862a900cb42a800cba2a900e282a800ff
:10132400e902a9000000eb0010049800004c7800ca
:101334000060fe00a0aa2a00200498004f04780050
:10134400000006003600f800809fbe00829fbe00a9
:10135400849fbe00869fbe0084e0a9000060fe005a
:10136400e0e420001080fb006600b9000080e80083
:10137400a1e32000614078000040e9008080fb0088
:1013840042c1b3000440bc0043d92000e3417900ca
:1013940082c8b30082cf510025003a007409b90015
:1013a4000281e80043d92000630179000200e000d3
:1013b4001f003a00740ab9008400780001814100da
:1013c40074c7b30004497800a4aa2a001401980041
:1013d400347380004573800064019800750198009f
:1013e400f080400042c1b3000440bc00030041004f
:1013f400e380780001000100e1e420001140e800ee
:10140400804878008100e900914f500007003100c6
:1014140062c0b3000440bc0064004100f38050008b
:1014240061007800ea1d070001003700f01d070085
:101434004f03be004f02be004f01be004f00be006e
:101444003600f9000040060086a0a900004006000e
:1014540050a52a00c0438800000006007828ef0049
:101464000000060040d920001004e0000f003a00fc
:10147400b06c80000000e0000c003a00c06c8000fa
:101484000000e00009003a0080da20001004e000c7
:1014940006003a00506d80000000e00003003a00ae
:1014a400606d80000000e000020032007628ef004a
:1014b4004800370090c0a9005824ef009823ef009b
:1014c400609020009080fb00a0d920006388400039
:1014d400709020009080fb00e0da200063884000d8
:1014e400809020009080fb0020dc20006388400076
:1014f400e0e420000048eb000000e9001040780020
:10150400e14f50001500360021e4200000c0e9003e
:1015140062c0b3000440bc00668340000203430081
:1015240045d9200084c8b3008001eb001140e900d4
:1015340042c1b3000440bc00028142000449780067
:101544000280e80003087800110090005001980020
:10155400e6804000868f5000f4ff3a00c0e320008c
:101564001040e90041d9200042c1b3000440bc004e
:101574000280400073c7b30003487800a3aa2a007e
:101584001300980034738000457380006400980051
:101594007500980070014100e1007900010001002c
:1015a400e1e420001140e800804878008100e9006f
:1015b400914f50000600310062c0b3000440bc00eb
:1015c40064004100f380500061007800771d07003b
:1015d4000060fe0000000600889fbe008a9fbe00d7
:1015e4008c9fbe008e1f78007808e2004200320013
:1015f4000060fe0030e62000904078000104e00026
:101604000e00320040d920001004e00006003a0029
:10161400b06c80000000e00003003a00c26c80005f
:101624000200e000020032007628ef0032003700aa
:101634000040e800814f5000fdff390090c0a90030
:101644005824ef009823ef00609020009080fb0066
:10165400a0d9200063884000709020009080fb0097
:10166400e0da200063884000809020009080fb0036
:1016740020dc20006388400018e520007205440047
:101684002bfd2f00808545007ec7b3006ce620004b
:101694001804e00013003200184090000040e900f4
:1016a40042c1b3000440bc00028045000e487800eb
:1016b400a1aa2a0011009800ec064000bc1e780084
:1016c400ac1678000060fe0070014100eb00790068
:1016d40001000100bc1e7800ac1678000040eb004d
:1016e400004c7800660444008a0f5400e8ff3a0076
:1016f40030e620000048eb004f0778004f06be009c
:101704004f05be004f04be0000000600889fbe00c7
:101714008a9fbe008c9fbe008e1f78007808e2006e
:10172400420032000060fe0030e620009040780065
:101734000104e0000e00320040d920001004e00053
:1017440006003a00b06c80000000e00003003a009c
:10175400c26c80000200e000020032007628ef0034
:10176400320037000040e800814f5000fdff39008f
:1017740090c0a9005824ef009823ef009090200017
:101784009080fb00c0d9200063884000a090200016
:101794009080fb0000db200063884000b0902000b4
:1017a4009080fb0040dc20006388400018e52000a6
:1017b400720544000bfd2f00808545007ec7b300f1
:1017c4006ce620001804e00013003200184090007a
:1017d4000040e90042c1b3000440bc00028045005f
:1017e4000e48780051a52a0011009800ec0640002c
:1017f400bc1e7800ac1678000060fe007201410047
:10180400eb00790001000100bc1e7800ac167800e2
:101814000040eb00004c7800660444008a0f54003a
:10182400e8ff3a0030e620000048eb004f0778005c
:101834004f06be004f05be004f04be000000060068
:10184400889fbe007808e200300032008081fb00ef
:1018540042c1b3000440bc0044d920006441790073
:101864000204e0000c003a00741ab9000481e80094
:1018740044d92000640179000200e00006003a0027
:10188400741ab9006401420044d92000640179004b
:101894000200e000020032007628ef001b0037004f
:1018a40090c0a9005824ef009823ef000060fe00c8
:1018b40044d920007419b900820178000301420060
:1018c40075c7b30005497800a5aa2a001501980038
:1018d400ec04410068e62000b81c7800a8147800e5
:1018e40066014100638940000060fe00f081410010
:1018f40042c1b3000440bc0004004100e48079000c
:1019040001000100b81c7800a81478004f04be0040
:1019140000000600889fbe007808e2003000320014
:101924008081fb0042c1b3000440bc0044d92000c4
:10193400644179000204e0000c003a00741ab90012
:101944000481e80044d92000640179000200e00029
:1019540006003a00741ab9006401420044d9200018
:10196400640179000200e000020032007628ef00f2
:101974001b00370090c0a9005824ef009823ef0003
:101984000060fe0044d920007419b9008201780077
:101994000301420075c7b3000549780055a52a0024
:1019a40015019800ec04410068e62000b81c78009a
:1019b400a8147800680141000189e8000060fe0075
:1019c400f281410042c1b3000440bc000400410064
:1019d400e480790001000100b81c7800a8147800a4
:1019e4004f04be0000000600881f78000060fe005f
:1019f400b06c8000a1aa2a00810f50000d003a00ab
:101a040071c7b30042d9200092cf100009003a00f8
:101a14000060fe0090c0a9005824ef009823ef0056
:101a240002007800216d80000100010018c8b30095
:101a3400100037000044eb0051a52a00810f50002c
:101a44000c003a0070c7b30041d92000914f100038
:101a540008003a000060fe0090c0a9005824ef007e
:101a64009823ef0001007800316d8000010001002f
:101a740028c8b300506d8000a1aa2a00810f50002d
:101a84000e003a0071c7b30082da200092cf100032
:101a94000a003a000060fe0090c0a9005824ef003c
:101aa4009823ef0002007800c16d8000010001005e
:101ab40040c8b300004474001000370051a52a0048
:101ac400810f50000d003a0070c7b30081da200086
:101ad400914f100009003a000060fe0090c0a90078
:101ae4005824ef009823ef0001007800d16d8000a6
:101af4000100010080c8b3000044740040d92000f4
:101b04001040780081c8b300814f500006003200b5
:101b140082da200092cf10000300320074014100e9
:101b240092cf100001003a000864a00071c7b3000e
:101b3400814f5000070032000140780081da200014
:101b4400914f100003003200f4804000914f1000c8
:101b540001003a000874a000084078004f0478009f
:101b6400000006008042eb0040d9200005487800c0
:101b74000000eb00b06c8800c06c880024032000d7
:101b8400d46c8800e1012000e16c8800f06c8800ce
:101b94006011b800026d8800136d8800c69420009f
:101ba400266d880046842000366d88000060fe00a3
:101bb40086da2000004b7800506d8800606d880044
:101bc400746d8800816d8800906d8800a26d880016
:101bd400b36d8800468f2000c66d8800c67e200045
:101be400d66d88000060fe00c6db2000054b78003f
:101bf400f06d8800006e8800146e8800216e8800e5
:101c0400306e8800426e8800536e8800c0892000c0
:101c1400606e880040792000706e88000060fe00cd
:101c2400000006000800fa00889fbe006c80570080
:101c3400030009000018eb000060fe00ec80570070
:101c44004142880080c0b3004ae8b7007828ef001a
:101c5400e462a900c7a2a900de82a900c742a900c4
:101c6400e862a900cb42a800cba2a900e282a800a6
:101c7400e902a9000060fe00dec2a900c782a90033
:101c8400c7e2a900c722a900e2c2a900cb22a8008a
:101c9400cb82a900cbe2a800caa2a9000060fe0082
:101ca400dea2a900c762a900c7c2a900c702a90091
:101cb400e2a2a900cb02a800cb62a900cbc2a80073
:101cc400ca82a9000060fe007628ef0040de2000f2
:101cd4000044eb000848780029762000496f88000a
:101ce40077fc0700a0de200011c0b3000148780093
:101cf400796f880072fc070000df200021c0b30068
:101d040001487800a96f88006dfc07000060fe00a0
:101d140094ff070030738000417380005073880083
:101d24006173880090738800a1738800d073880061
:101d3400e17388001074880021748800507488004e
:101d440061748800401f2000010020003074880066
:101d5400417488000000eb0090708800a070880037
:101d640061e12000804878000100e800084878001c
:101d74000000e800084878000000e80008487800ff
:101d84000000e800084878000000e80008487800ef
:101d9400b2fd070080e22000084878000000e80057
:101da400084878000000e800084878006500500002
:101db400084878000000e800084878000000e800bf
:101dc400084878000060fe0000c0eb00b1e220008b
:101dd40080487800e9805000884878008100e80055
:101de400884878008100e80088487800eb8040004b
:101df40088487800ec805700b171880081e32000a6
:101e040080487800e0be20001080fb00003cb30056
:101e1400cf80de0080718800917188000028ef0077
:101e24007828ef004f04be000080fa00000006008e
:101e3400881f7800c0409000e4cf500002003200b8
:101e4400e6cf50001d003a0030019000d2407800e7
:101e5400e3c1600041de2000834878001281fb006a
:101e64006c0161004211de008348e9006684400091
:101e7400024ce9000060fe00300090003041900008
:101e84004811dd00204090000080fb00020070003b
:101e94000000d100606f88000060fe00010078003f
:101ea400416f80000100010008007800716f80001c
:101eb4000100010000c0eb00020037000060fe00da
:101ec4000040eb004f04780000000600c06c800066
:101ed400a1aa2a00810f500006003a000060fe000b
:101ee400228f200020002f00f1072000181a07007d
:101ef4000800370051a52a00810f500005003a0060
:101f04000060fe00428f200040002f00f1072000f7
:101f14000f1a0700606d8000a1aa2a00810f5000eb
:101f240006003a000060fe00628f200060002f006f
:101f3400f1072000061a07000800370051a52a00ff
:101f4400810f500005003a000060fe00828f2000df
:101f540080002f00f1072000fd1907000000eb00ae
:101f6400c06c8800606d8800006e88000060fe0010
:101f740000000600889fbe00b06c80000000e000f6
:101f84000400320010cfb300516d80000100e00066
:101f9400d000320090c0a800f00b2000c0228800be
:101fa4009823ef00121b07000060fe00c06c800045
:101fb4000000e00003003a00606d80000000e000d3
:101fc4001e00320090c0a800f00b2000c022880040
:101fd4009823ef000060fe0000322000f0418800ea
:101fe4004028ef00b9ff0700004080000b150700f0
:101ff40034738000457380001442880025428800b1
:102004000000eb00b06c8800506d8800f06d880013
:102014008040eb0042d9200000497800740141005f
:10202400014978007401410001497800c06c8800be
:10203400606d8800006e880008fd07001242800071
:102044002342800060e6200030021100a0821900c3
:10205400f041800001428000800f5200818f5a00bd
:102064000c00390000408000990307000080eb0059
:102074008080eb00f0418800014288001042880013
:10208400214288000028ef0040e120000008eb0016
:10209400f2fc07000060fe00a0e82000571b0700c8
:1020a4000004e00006003200261407000060fe0071
:1020b400307380004173800050748800617488001c
:1020c400a0e720004d1b07000004e00006003200da
:1020d400270b07000060fe00347380004573800006
:1020e400d4738800e5738800540907000004e000f5
:1020f400050032007608f8000008f9007628ef00a1
:1021040000c0eb0073003700c8df2000ea0444007d
:1021140008007800511c07000004e00005003200ac
:1021240019417800e1df2000080078008d0f0700d6
:10213400f7ff370020e72000301b07000004e00011
:1021440004003a00b0e2200080c2eb0090cf1200fd
:1021540010003a000060fe00060a070040c020009c
:1021640031c0b30090cf100004003a00907080009a
:102174000000e00001003a00fa010700b0e220008c
:102184000048eb003473800045738000947388002a
:10219400a57388000060fe0020e82000171b0700dc
:1021a4000004e000170032003181200091407800e3
:1021b400f0ff2d008b15070013e8ee00b0e12000be
:1021c40080c2eb0090cf12000a003a001248ec00e3
:1021d40012e8b700e94f5000060036006000b8006e
:1021e400b6100700401f2000010020003074880052
:1021f400417488003073800041738000107488003b
:10220400217488000060fe00a0e62000fb1a07008d
:102214000004e00007003200d7190700f0448800ea
:10222400014588003473800045738000547388002e
:102234006573880060e1200080c2eb0090cf12003b
:102244001b003a00907080000000e000180032008b
:1022540070e1200010407800e44f500014003e006c
:102264000004e000120032005c1607000004e000e5
:102274000d003a008004eb009970880060e12000b2
:10228400094878000004e80061c0b30018407800f1
:10229400810007000060fe00004ceb00a97088007c
:1022a4006efc07000200370060e1200000c8eb006c
:1022b4000040eb0081e1200000c1eb00914f1100d0
:1022c40004003a00bd07070080e120000048eb004d
:1022d4000040eb004f04be0000000600889fbe00d3
:1022e4008a9fbe008c9fbe002ae120005b5525001a
:1022f400e4044500fc5f20008906e800bafd0700fd
:102304000004e000fdff3a00e862a900cb42a80007
:10231400cba2a900e282a800e902a900e2c2a900b6
:10232400cb22a800cb82a900cbe2a800caa2a900b4
:10233400e2a2a900cb02a800cb62a900cbc2a800ec
:10234400ca82a9000bff07000004e000ebff3a007b
:1023540013003700211607000004e0000f003a00c4
:1023640090c0a800f00b2000c02288009823ef0042
:10237400181507000004eb00080d7800884c78005d
:1023840061c0b3001d40780043000700804eeb009d
:10239400a870880031fc07000100370080cceb00f6
:1023a4009a8f1500d5ff3a00990f1600e9ff320005
:1023b400d2ff37000040eb00d1e4200080487800d1
:1023c4008100e900804878008180e8008048780036
:1023d400f3805000804878008100e800804878004d
:1023e4008000eb00f1718800a2e32000014978002d
:1023f40067014100004978000201e80000497800c3
:10240400217288000281e9000049780067014100d7
:10241400004978000201e800004978005172880000
:102424000281e9000049780032e620000049780082
:102434000201e900004978000281e80000497800bf
:1024440073015100004978000201e8000049780056
:10245400a17288000281e900004978006701410007
:10246400004978000201e80000497800d172880030
:102474000281e900004978006701410000497800c1
:102484000201e80000497800017388008280e900b5
:1024940080487800000006001200fa00728157009c
:1024a400030009000019eb0072815700e2bf9f008e
:1024b40000c1eb00e2ff9f000060fe00e2be2000ce
:1024c4001281fb00023cb300cf91de00b2bf9f003b
:1024d400c3bf9f0042c1b300e2ef9f006fb99700f2
:1024e400104198006fb8970021409800a1cab3002a
:1024f4006fb897003140980040c0b300a0ff9f0020
:102504000060fe006a8057007d0c07000080fa001e
:1025140000000600e6874700889fbe008a9fbe0031
:102524008e1f78000004be006e8057000000090072
:102534000018eb000058eb0050c0b30051cab300c0
:102544001290200092cf1000a4003200c8409000e6
:102554000108a300030032000060fe0020c0b300a5
:102564009e00370020c0b300e1cf50009b0036002e
:10257400380090009045780010459000a0c0b3004a
:1025840051c3b300e28f200092cf100093003a00b1
:1025940081c0e8000201e80092cf10008f003a00e9
:1025a40081c0e8000201e80092cf10008b003a00dd
:1025b400e41207000000e00006003a000060fe009c
:1025c40091c0b3000b407800b3ff070090c0b30084
:1025d40082003700484090000080fb000080e90042
:1025e40022002000110009000200d8000042e80087
:1025f40030c0b300804f520078003e000404e00075
:10260400250032008a82fb0080406500a1f79f000c
:10261400720032006e8757008040eb0006003700de
:1026240082a9de00e3c16100036f78000281e80043
:102634000304e000680032008140e800814f52004a
:10264400f7ff3e00e24f520006003a0030c0b300ec
:10265400bff097002ff19700814f510064003a00ba
:102664005e003700e34f52000b003a002ff1970051
:10267400bff1970030c0b300834f510057003200c0
:10268400cff0970081cf510054003200814f5100a8
:1026940057003a0051003700d0e420000448780085
:1026a4000000e9000a4878000080e8000048eb00d8
:1026b4007300500000c8eb000000e800aff1970081
:1026c400034878000080e8000008eb00e14f520066
:1026d400110036005300370007487800de417800c7
:1026e40013409800b8019000e3c27800c82add00c6
:1026f4008181410073fb97000683fb00e3014000e6
:10270400850973000241e800660040008180e8000a
:10271400824f5200f0ff3e00e24f52000a003e009a
:1027240004407800a3e320008040eb0062c0b300c3
:102734000440bc0002814100114198000040e800bf
:10274400e34f5000f9ff3a0070e120000b48780095
:10275400494090000004e0000a0032000040eb0011
:102764008080fb00b9019000b271800063f17800b1
:102774000060fe000040e800c940900080cf500097
:10278400f7ff3e00907080000000e0000d003a006a
:102794000060fe0009007800d90b07008043800028
:1027a400041507000060fe00505525009070880055
:1027b40060e1200000c8eb00021407000040eb00b9
:1027c400060037000314070020e120000008eb0096
:1027d40080c0b3000100370030c0b3004f07780059
:1027e4004f05be004f04be006f00b100000006009c
:1027f400d0e42000044878000000e9000a4878008a
:102804000080e8000048eb007300500000c8eb00b3
:102814000000e800aff09700014878000080e8006d
:102824000008eb0010e420006e8757003100200000
:1028340012c0b30080c3eb00a7ff3700889fbe001f
:102844008a1f78008004780001057800024478002b
:1028540050c0b30051cab3001290200092cf1000b0
:102864003d003200e24f54000500320010c0b300b6
:1028740051a52a00e44f540037003a000100370004
:10288400a1aa2a0090708000810f500004003a0031
:1028940060e1200080c0eb0090cf10000700320000
:1028a4000060fe0071c0b30008407800fafe070023
:1028b4000000eb0090708800a0708800c94190006f
:1028c400e1cf51000e00360039019000c0c0b300c2
:1028d400b1e0200052427800914f52001e003a00ad
:1028e40010c0b3000300370052427800d14f5200a9
:1028f40018003a000040e800834f5000faff390006
:1029040070e1200008487800d1fa070060e1200057
:102914000048eb00640050000008eb000060fe007b
:102924000a007800760b0700e24f540003003a00d7
:1029340029fb07000040eb00070037000040eb00d4
:10294400e44f540004003a0070fb07000040eb0021
:1029540001003700c0c0b3004f0578004f04be002b
:10296400000006001200fa007280570003000900fc
:102974000018eb0072805700e0bf9f0000c0eb001e
:10298400e0ff9f000060fe00e0be20001080fb001e
:10299400f003b2000034b300cf80de00b0bf9f006c
:1029a400c1bf9f00a0c9b300e0ef9f0020e2200058
:1029b4008000e8009140780090c070000080e8003a
:1029c40090c070006fb897001140980050e220004a
:1029d4008000e8009140780090c070000080e8001a
:1029e40090c070006fb897002140980080e22000ea
:1029f4008000e8009140780090c070000080e800fa
:102a040090c070006fb8970031409800309020005b
:102a14001004e00005003a000060fe0011c0b3009d
:102a24006fb8970041409800040037000060fe0032
:102a34008040eb006fb8970041409800119020004f
:102a44006fb89700914078005140980060c0b3007f
:102a5400a0ff9f006a805700290b07000060fe005a
:102a64000040eb0051e22000804878008100e8003b
:102a7400804878008100e800804878000080fa00ef
:102a840000000600881f7800800078004141900013
:102a940020c0b300e34f510022003a0031009000ff
:102aa40010419000a04290008240e90030c0b30081
:102ab400e6cf50001b003e0011e520000000eb00b3
:102ac4008041eb000282fb000344780080c3eb00ea
:102ad4000003eb0000a1de000208a300070032009f
:102ae400874878000041e8009240980063814000e4
:102af400060978008341e80001003700884878001f
:102b04000000e800e6804000e30f5000f1ff3a00c7
:102b140030e62000034878000080e800054878008b
:102b24000040eb004f04780000000600889fbe00c0
:102b34008a9fbe008c1f78001ac0b3003245800003
:102b4400434580001044800021448000dff60700e4
:102b54000000e000010035000045eb00e08f20009c
:102b64001046780019c0b300724580008345800088
:102b74003044800041448000d4f607000000e000a7
:102b8400010035008044eb00f08f20009045780070
:102b940018c0b300b2458000c34580005044800093
:102ba40061448000c9f607000000e0000100350020
:102bb4000044eb00009020001043780010e5200052
:102bc4007201400075c3b30094c3b30053c3b30090
:102bd4001004e0001500320090409000e2cf500055
:102be40009003200e3cf50000c003200e1cf500066
:102bf40017003a000a04e00017003a00834f560019
:102c04000a003200160037000904e00016003a00fa
:102c140085cf550005003200150037000804e00098
:102c240015003a00844f530015003a006600400036
:102c3400820f5000e6ff3a0030c0b30031e62000b6
:102c44001104e0000f0032000040eb000d003700db
:102c540030c0b3000b00370090c0b3000900370048
:102c6400a0c0b3000700370090c0b30005003700d0
:102c7400a0c0b3000300370090c0b30001003700c8
:102c8400a0c0b3004f0678004f05be004f04be003d
:102c940000000600889fbe008a9fbe008c1f78003b
:102ca4001ac0b300324580004345800010448000c0
:102cb4002144800085f607000000e0000100350093
:102cc4000045eb00e08f20001046780019c0b300e7
:102cd4007245800083458000304480004144800078
:102ce4007af607000000e000010035008044eb00a4
:102cf400f08f20009045780018c0b300b2458000e2
:102d0400c345800050448000614480006ff6070092
:102d14000000e000010035000044eb0000902000ba
:102d24001043780010e520007201400065c3b30031
:102d340084c3b30043c3b3001004e00015003200a1
:102d440090409000e2cf500009003200e3cf5000e1
:102d54000c003200e1cf500017003a000a04e000f2
:102d640017003a00834f56000a003200160037005d
:102d74000904e00016003a0085cf55000500320032
:102d8400150037000804e00015003a00844f530092
:102d940015003a0066004000820f5000e6ff3a003a
:102da40030c0b30031e620001104e0000f0032000f
:102db4000040eb000d00370030c0b3000b003700bb
:102dc40090c0b30009003700a0c0b300070037006b
:102dd40090c0b30005003700a0c0b3000300370063
:102de40090c0b30001003700a0c0b3004f067800c4
:102df4004f05be004f04be0000000600889fbe00c1
:102e04008a9fbe008004780001057800824578001e
:102e140058c0b30050cab30011902000914f100065
:102e240027003200907080000000e00004003200af
:102e340020e120000008eb0088c0b3002000370028
:102e4400090078000fff0700004478000804e00040
:102e54001b003a00e1cf550004003a0033ff07009d
:102e640000447800abaa2a000600370018c0b3005b
:102e7400e3cf550012003a0086ff070000447800b3
:102e84005ba52a000804e0000d003a000060fe0083
:102e9400494190000281fb00b9009000a0e02000ad
:102ea400fcf6070060e1200000c8eb000a0078008f
:102eb400130a07009b708800904380003d130700ad
:102ec400084078004f05be004f04be000000060015
:102ed400881f7800000478000800e0000a003a0027
:102ee400a87080000800e0008500320080e3200024
:102ef40000c8eb0050552500800f54001600320026
:102f040000e32000fe09070040a22a00800f5400bd
:102f14003f00320008003e000080e900800f5400aa
:102f24000d00320023003e0050552500800f540050
:102f340073003a000800370060a22a00800f540092
:102f440051003200410039000000e800800f5400b5
:102f54006b003a005b00370040c3b300e18f2000f0
:102f6400914f100008003a0000c0e8008100e8001a
:102f7400914f100004003a0000c0e8008100e8000e
:102f8400914f100008003200b1c0b30070e120007e
:102f94001040780040fd070021cbb300f0e2200090
:102fa4000148780059003700f0e220000048eb00a7
:102fb4005b00370050c3b300e18f2000914f100035
:102fc40008003a0000c0e8008100e800914f1000ba
:102fd40004003a0000c0e8008100e800914f1000ae
:102fe40008003200b1c0b30070e120001040780046
:102ff40029fd070031cbb300f0e22000014878003e
:1030040042003700f0e220000048eb0044003700a3
:1030140040c3b300e18f2000914f1000080032003c
:10302400b1c0b30070e12000104078001afd070021
:1030340041cbb300f0e220000148780033003700b0
:10304400f0e220000048eb003500370050c3b30025
:10305400e18f2000914f100008003200b1c0b3008e
:1030640070e12000104078000bfd070051cbb30045
:10307400f0e220000148780024003700f0e220004c
:103084000048eb002600370060c3b300f18f200036
:10309400914f100008003200b1c0b30070e120006d
:1030a40010407800fcfc070061cbb300f0e2200084
:1030b4000148780015003700f0e220000048eb00da
:1030c4001700370070c3b300f18f2000914f100038
:1030d40008003200b1c0b30070e120001040780055
:1030e400edfc070071cbb300f0e22000014878004a
:1030f40006003700f0e220000048eb00080037002b
:10310400f0e220001004e000050032004006200038
:1031140001002000307488004174880004003700e6
:10312400401f200001002000307488004174880092
:10313400b0e2200000c8eb004f0478000000060055
:103144001200fa00889fbe008a9fbe00f0805700dc
:10315400030009008018eb00f0805700e1b79f00de
:103164008271800093718000b2b79f00c3b79f0043
:1031740080c0eb00e1ef9f0030009000104490000d
:10318400a044900020c9b30080f79f00894f5400e9
:1031940027003e008ac0b3008045eb000060fe00bb
:1031a400a38420008a4978008184200008407800a4
:1031b400d5010700ef4f400002003200ed4f400000
:1031c40005003a000060fe0021c0b3006fb0970014
:1031d40010407800b0fc07006fb0970018409800ca
:1031e4004ac8ec00a0ef9f000b0032000b407800af
:1031f4008080fb006fb197000101410043428000d1
:10320400e3c17800234198000040e800afe897004c
:1032140080cf5000f6ff3e000060fe007a80570029
:10322400370907000844e80088cf5400dbff310069
:103234004f05be004f04be000080fa0000000600e7
:10324400889fbe0080047800010478003900900053
:1032540010417800f34f5100a3003e00e1be20006e
:103264001182fb00003c200004027000cfa2de00ab
:10327400048cbe009180fb0001007000cf80de0052
:103284008071880091718800024078000074a00069
:10329400b800900080487800b171800080487800c0
:1032a4000060fe00ef4f51000a003e0050c5b3001d
:1032b40011902000914f100006003a000060fe00bb
:1032c4003900900051c0b3001040780072fc070030
:1032d40085003700e54f510011003e004940900041
:1032e400e14f50000d00360011c0b3000060fe0035
:1032f4000180fb00b801900039029000e47178006d
:1033040038029000b3718000e47178008140e800d5
:1033140049409000814f5000f4ff3e004044980023
:1033240040e32000c940900001487800e44f510078
:103334002c00320006003e00e24f5100150032001e
:103344001e003e00e14f510062003a0007003700c2
:10335400f14f510031003200f24f51005a00320057
:10336400e54f51005b003a002800370012c0b3005b
:103374008800780009007800a0fe07000004e0003f
:10338400590032008040780010c0b30042fc0700ae
:103394005500370022c0b300880078000900780087
:1033a40026fd07000004e0004f0032008040780052
:1033b40020c0b30038fc07004b00370032c0b30014
:1033c40088007800090078008cfe07000004e00003
:1033d400450032008040780030c0b3002efc070066
:1033e4004100370042c0b30088007800090078002b
:1033f40012fd07000004e0003b003200804078002a
:1034040040c0b30024fc0700370037008800780070
:10341400090078003ffc0700330037000060fe001d
:1034240038009000b900900091409000114098003d
:10343400390090008080e8004142880010409000ec
:103444008184200001010700e14f400006003a009a
:103454000060fe003900900011c0b30010407800f5
:103464000dfc0700200037000004e00006003200d5
:103474000060fe003900900021c0b30010407800c5
:1034840005fc070018003700380090004142800016
:10349400914078002140980038009000414280001b
:1034a40091409000314098004ac8ec004044980094
:1034b4000060fe00080078009108070080e1200009
:1034c40000c8eb0008003700090078001cff070063
:1034d400050037000060fe003900900011c0b30001
:1034e40010407800ecfb07004f04be00000006000b
:1034f4003600f800809fbe00829fbe00849fbe00fd
:10350400869fbe004628ef0086e0a90090c0a9006f
:103514005824ef009823ef00917080005055250047
:10352400808f50000600320090c0a800f00b2000ed
:10353400c02288009823ef00a6100700310037004e
:1035440060e120001004e00006003a0090c0a800ea
:10355400f00b2000c02288009823ef009d10070084
:1035640028003700304280008041eb00034278009d
:103574008002eb0001003700050078000304a2007c
:103584000381fb00050037000000e800e10f400064
:1035940002003a00304288001a003700a116800069
:1035a400c908de00e1806000828f5000f6ff32001f
:1035b400fe005000f48f50000200360030428800b4
:1035c400100037000442e800e44f5200eaff3a00da
:1035d4004628ef00d522ab000a003200e44f520027
:1035e40008003a000000eb009070880061e12000c0
:1035f400804878009bf7070050552500a07088008c
:10360400741007004f03be004f02be004f01be00fe
:103614004f00be003600f900004006002041900033
:103624000204e000070032001001780091009000cd
:10363400114978000060fe0011c0b30021409800d9
:10364400030037008040eb00214098000060fe003a
:1036540000000600204190000204e0000700320050
:103664009100900010017800924878000060fe00fc
:1036740011c0b30021409800030037008040eb00e4
:10368400214098000060fe000000060020419000e8
:10369400e14f51000b00360091009000910078003a
:1036a40010017800014978000060fe0010017800e4
:1036b400c808de001141980021c0b30021409800e1
:1036c400030037000060fe008040eb0021409800ba
:1036d4000000060020419000e14f51000b0036002d
:1036e40022c0b300224098001000780010419000de
:1036f4000281fb000060fe004811dd009100900093
:103704001080fb0080087100030037000060fe0099
:103714008040eb0021409800000006000400fa00fd
:1037240020419000e14f51000f00360091009000bd
:103734001101be00e2bf9f00f3bf9f0065815700e7
:103744008000eb00900178005242780084f1780008
:103754000060fe008100e800e48f5000f9ff3a00a9
:1037640021409800030037000060fe008040eb0019
:10377400214098000080fa0000000600881f7800ad
:103784000004780028409000e14f50000f003600fc
:103794001100900002002000832c24001000be00c1
:1037a4003ef40700cdf307009800780080487800c5
:1037b4000060fe00980078004800de009040980009
:1037c40020c0b30020449800030037000060fe00ce
:1037d4000040eb00204498004f04780000000600ed
:1037e400889fbe000004780028409000e14f5000fc
:1037f400110036001800780090419000c819dd00cf
:103804001081fb00030071000060fe009104900031
:103814008000eb00ccf30700a2702d0033c223001c
:103824001ef40700808cbe000060fe0020c0b300c0
:1038340020449800030037000060fe000040eb00c5
:10384400204498004f04be0000000600889fbe007c
:103854008a1f780081047800839220008000eb00a6
:103864000060fe0001047800934f10001e003a002f
:1038740001407800a2c0b3000440bc008092200044
:10388400000541006a41b900e6004100608178000a
:103894008a0078000900780002000100a940900025
:1038a40010cfb3000104e000140032000060fe00f9
:1038b4006a40b900680440008092200060017c00e6
:1038c4008a00780009007800020001000060fe0010
:1038d400a94090000040eb000104e00007003a001a
:1038e40020cfb300050037008100e800ea814100e1
:1038f400fb8f5000daff3a0000c0eb004f05780060
:103904004f04be0000000600881f78000104780000
:1039140001c4b300814f50001d003e00839220007b
:103924008000eb000060fe0001027800934f10005d
:1039340011003a000060fe006a22b90068024200e9
:103944008392200001407800a2c0b3000440bc0070
:1039540083004100e3017a000800780003000100bd
:10396400a84090000040eb000104e00024003a006d
:1039740010cfb300220037008100e800ea81410043
:10398400fb8f5000e7ff3a0020cfb3001c00370044
:1039940063a320008000eb000060fe0001027800b9
:1039a400934f100011003a000060fe006a22b90033
:1039b4006802420063a3200001407800a2c0b30063
:1039c4000440bc0083004100e3017a000800780051
:1039d40003000100a84090000040eb000104e00057
:1039e40007003a0030cfb300050037008100e8003b
:1039f400ea814100f58f5000e7ff3a0040cfb30061
:103a04004f0478000000060011c0b300809220002b
:103a140001487800208a20005049880022c2b3005f
:103a2400c09220000248780021bf2100714988001b
:103a340000bc2100804988000060fe0024c0b3005f
:103a44002393200084497800638a2000a3498800d6
:103a54006393200082497800c1498800d0498800d6
:103a640034c0b300e681410084497800e38b200030
:103a7400f34988000394200082497800114a8800a1
:103a8400204a880044c0b300e6814100844978009c
:103a9400638c2000434a8800a39420008249780064
:103aa400614a8800704a880054c0b300e68141002e
:103ab40084497800a38a2000934a88004395200013
:103ac40082497800b14a8800c04a88000060fe003c
:103ad40064c0b300e681410084497800e38a200091
:103ae400e34a8800e395200082497800014b88006e
:103af400104b880074c0b300e6814100844978000b
:103b0400e38c2000334b88008396200082497800a0
:103b1400514b8800604b88000060fe0084c0b300f5
:103b2400e681410084497800638d2000834b88003e
:103b34002397200082497800a14b8800b04b88006d
:103b440094c0b300e681410084497800238b2000af
:103b5400d34b8800c397200082497800f14b88003a
:103b6400004c88000060fe00a4c0b300e681410060
:103b740084497800638b2000234c880063982000dc
:103b840082497800414c8800504c8800b4c0b3008e
:103b9400e681410084497800e38d2000734c88005d
:103ba4000399200082497800914c8800a04c880039
:103bb4000060fe00c4c0b300e6814100844978007f
:103bc400638e2000c34c8800a399200082497800aa
:103bd400e14c8800f04c8800d4c0b300e681410079
:103be40084497800a38e2000134d8800439a200056
:103bf40082497800314d8800404d88000060fe0005
:103c0400e4c0b300e681410084497800e38e2000db
:103c1400634d8800e39a200082497800814d880032
:103c2400904d8800f4c0b300e681410084497800d7
:103c3400c3902000b34d8800839b20008249780004
:103c4400d14d8800e04d88000060fe0003c1b30040
:103c5400e49b2000034a780004912000044e88006d
:103c6400249c2000024a7800214e8800304e8800af
:103c740015c1b30066024200054a78004491200051
:103c8400544e8800c49c2000024a7800714e88007b
:103c9400804e88000060fe0021c1b300660042002f
:103ca4000148780020872000a04e880002c1e90066
:103cb4006a00420002487800c1b62100c14e880063
:103cc40080b42100d04e880035c1b3007002420098
:103cd400054a780004872000f44e8800049e2000e2
:103ce400024a7800114f8800204f88000060fe00cf
:103cf40041c1b30066004200014878006090200092
:103d0400404f88006a00420003487800c1b2210095
:103d1400614f880000b12100704f880054c1b30086
:103d2400029f20000449780092902000924f88005e
:103d3400429f200003497800b14f8800c04f88009b
:103d44000060fe0064c1b3006601410004497800cc
:103d540072902000e24f8800e29f2000034978001f
:103d6400015088001050880074c1b30066014100fe
:103d740004497800a29020003250880082a02000dc
:103d84000349780051508800605088000060fe00ac
:103d940084c1b30066014100044978008290200088
:103da4008250880022a1200003497800a150880095
:103db400b050880094c1b300660141000449780002
:103dc400b2902000d2508800c2a12000034978009c
:103dd400f1508800005188000060fe00a4c1b300c7
:103de4006601410004497800429020002251880075
:103df40062a2200003497800415188005051880094
:103e0400b4c1b3006601410004497800c2842000b3
:103e14007251880002a32000034978009151880060
:103e2400a0518800000006000060fe0011c4b30029
:103e340060a320000148780020882000c051880039
:103e4400ffc05000a0a32000014878000000eb0050
:103e5400e051880002bc2100f251880024c4b30060
:103e640003a420008449780063882000135288004a
:103e740043a42000814978003052880042528800cf
:103e84000060fe000442e800e681410084497800b5
:103e9400a388200063528800e3a4200081497800ad
:103ea40080528800925288000442e800e681410072
:103eb40084497800e3882000b352880083a5200059
:103ec40081497800d0528800e25288000442e80018
:103ed400e681410084497800e38920000353880087
:103ee40023a62000814978002053880003b92100cb
:103ef400335388000060fe000442e80083a62000db
:103f040084497800238f20005353880004c2b300ef
:103f1400c3a62000844978007053880083b421002c
:103f24008353880076c4b30025a72000864a78000e
:103f3400458f2000a553880065a72000844a780097
:103f4400c0538800d35388000060fe000643e80095
:103f5400e6824200864a7800658f2000f553880087
:103f640005a82000844a780010548800235488004f
:103f74000643e800e6824200864a7800858f2000e6
:103f840045548800a5a82000844a7800605488001d
:103f9400735488000060fe000643e800e682420095
:103fa400864a7800a58f20009554880045a92000f2
:103fb400844a7800b0548800c35488000643e8005b
:103fc400e6824200864a7800c58f2000e5548800c6
:103fd400e5a92000844a780000558800135588001c
:103fe4000060fe00c4c4b300e68142008449780046
:103ff400e38f20003355880004c1b300ea814200f6
:10400400844978005055880003b121006355880025
:1040140006c3e800f0824200864a7800f58f20004b
:104024008555880025ab2000844a7800a055880077
:10403400b35588000060fe000643e800e6824200b3
:10404400864a780005902000d5558800c5ab20002d
:10405400844a7800f0558800035688000643e80037
:10406400e6824200864a7800159020002556880092
:1040740065ac2000844a7800405688005356880076
:104084000060fe000643e800e6824200864a7800ab
:10409400259020007556880005ad2000844a7800dc
:1040a40090568800a35688000643e800e682420042
:1040b400864a780035902000c5568800a5ad2000ba
:1040c400844a7800e0568800f35688000060fe00b9
:1040d4000643e800e6824200864a780045902000c4
:1040e4001557880045ae2000844a78003057880070
:1040f4004357880034c5b300e68142008449780000
:104104002389200063578800ea81420081497800ae
:1041140080578800925788000442e800e6814100f5
:104124008449780063892000b3578800f4814200f1
:1041340081497800d0578800e25788000442e8009b
:10414400e681410084497800a3892000035888004f
:10415400fe81420081497800205888003258880046
:10416400000006000400fa0020419000e14f5100d5
:104174000d00360090017800658157000f02e900b8
:1041840033697800840f5100fdff3a0091009000dc
:104194006fb99700ffb997008288be0041c0b30091
:1041a40021409800030037000060fe008040eb00cf
:1041b400214098000080fa00000006000200fa0086
:1041c400889fbe008a9fbe008c9fbe000000eb004b
:1041d40090bf9f00889220000005eb0019c0b30037
:1041e400080678008046eb000060fe0098457800e1
:1041f40089cf550023003a00c84090008180fb001d
:10420400c408de008141780002852000034978005b
:104214000060fe006a51b900820046004801900027
:10422400e0842000020001005048e2001500320042
:10423400e18420000b407800fc100700e18420009a
:104244000b407800ce1007000060fe005048e200ea
:104254000c0032000d4078000060fe008080fb00fe
:1042640072428000e2c078008180fb001fb9970091
:104274000101410092bf9f000040e8005048e30064
:10428400f5ff3e008944e8000a05e8006a0444009a
:10429400fccf5400d4ff3a006e8057001911070078
:1042a4004f06be004f05be004f04be000080fa005a
:1042b40000000600e4874700889fbe008a9fbe0076
:1042c4008c9fbe008e1f78000000eb0080bf9f0013
:1042d400889220006055b80019c0b30088067800a1
:1042e4000047eb000060fe0018407800894f500042
:1042f4001a003a00c84090008180fb00c408de0028
:10430400814178000285200003497800e18420007f
:104314009b1007000060fe006a58b90080804600c8
:1043240038019000e0842000020001005048e200bf
:104334000a0032000e4078000060fe008080fb001e
:1043440072428000e2c078008180fb0001054500d4
:104354000040e8005048e300f7ff3e008944e800cd
:104364008b05e8006a044400fccf5400ddff3a00ea
:104374000060fe0070805700ef1007000fb8970030
:104384008a0f500003003a000060fe000040eb007a
:10439400020037000060fe0000c0eb004f07780009
:1043a4004f06be004f05be004f04be004f00b100d3
:1043b40000000600a08720007042880080c0b3007f
:1043c40050e8b700228f200020002f00f1072000c2
:1043d40064100700428f200040002f00f1072000e6
:1043e400601007000060fe00628f200060002f0054
:1043f400f10720005b100700828f200080002f004f
:10440400f1072000571007000060fe000000eb00d9
:10441400d0478800e047880090478000e10f4000c3
:1044240005003a00228f20000009eb0020002f0035
:10443400f107200016100700b0478000e10f40008c
:1044440005003a00628f20000009eb0060002f0095
:10445400f10720000e100700a0478000e10f400084
:1044640005003a00428f20000009eb0040002f00b5
:10447400f107200006100700c0478000e10f40004c
:1044840005003a00828f20000009eb0080002f0015
:10449400f1072000fe0f070000002000214924003e
:1044a400704488008144880033110700f044880078
:1044b400014588000060fe0051c3b300e08f200076
:1044c4000148780081c0e8000000e8000148780055
:1044d40081c0e8000000e800014878000060fe00a8
:1044e4007e0c0700a0002000010020006e120700cf
:1044f4000060fe00790c0700020020000301200088
:10450400820f5000838f580005003a000060fe00bf
:1045140011cab3001090200001487800030037004e
:1045240051cab3001090200001487800f1c3b300d1
:1045340020902000014878000000e8000048eb00cb
:1045440031fd070038fe07000060fe0059ff070038
:104554000004e00038003200400620000100200082
:10456400307488004174880000002000010c24008d
:104574005047880061478800d0cc2c00c102240039
:1045840070478800814788000060fe00000020001a
:1045940001372400104588002145880000002000d0
:1045a4002137240050458800614588000000200020
:1045b4004133240030458800414588000000200034
:1045c4006133240070458800814588000000200084
:1045d40001f82300604888007148880080488800fa
:1045e40091488800a0488800b148880020c3b300df
:1045f40061902000804878008100e80080487800bd
:104604008100e80080487800e0c1b3008100e80040
:10461400804878008100e800804878008100e80044
:104624008048780080bb2000804388009043880045
:10463400d0c0b3004ce8b700000006000060fe00e4
:10464400b043800051a22a00810f50007a0032004a
:1046540008003e008180e900810f500038003200dc
:104664005f003e008100e900810f5000be003a0067
:104674000b00370071a22a00810f50009c00320009
:10468400840039008100e800810f5000ae00320040
:104694008100e800810f5000b3003a00ae003700fb
:1046a4000060fe00f0c3b30021902000914f100081
:1046b40020003a00a30a07000000e0001d003200b9
:1046c4007808e20003003a007628ef0000c0eb000f
:1046d400a70037000060fe00609020009080fb007f
:1046e4000040eb0056f40700709020009080fb001f
:1046f40010c0b30052f4070051c0b30070e12000b1
:10470400014878000060fe0011c0b30050e22000b0
:104714000148780041c0b3000000e8000148780077
:1047240001c1b3000000e8000148780000c0eb00bc
:104734008f0037007628ef0000c0eb008c003700b4
:104744000060fe007808e20003003a007628ef00db
:1047540000c0eb0086003700f0c3b30021902000b6
:10476400914f10001b003a00760a07000000e00099
:10477400180032000060fe00909020009080fb0042
:104784000040eb0063f40700a09020009080fb0041
:1047940010c0b3005ff4070041c0b30070e1200013
:1047a400014878000060fe0021c0b30050e2200000
:1047b4000148780081c0b3000000e8000148780097
:1047c400f8c040000000e8000148780000c0eb0099
:1047d400670037007628ef0000c0eb006400370064
:1047e4000060fe0032458000434580001044800094
:1047f40021448000b7ef07000000e0000b00350003
:10480400609020009080fb000040eb000cf4070057
:1048140020c0b30051e220008048780071e12000fc
:104824008048780000c0eb00510037007628ef0084
:1048340000c0eb004e0037000060fe0032458000ef
:10484400434580001044800021448000a1ef07000c
:104854000000e0000c003500909020009080fb00e8
:104864000040eb002bf4070011c0b30050e220001d
:104874000148780041c0b30070e12000014878008d
:1048840000c0eb003a0037007628ef0000c0eb00d0
:10489400370037000060fe007245800083458000c9
:1048a40030448000414480008aef07000000e000ab
:1048b4000c003500709020009080fb0010c0b30005
:1048c400dff3070081c0b30060e2200001487800f4
:1048d40021c0b30070e120000148780000c0eb0063
:1048e400230037007628ef0000c0eb0020003700db
:1048f4000060fe00724580008345800030448000e3
:104904004144800073ef07000000e0000b00350015
:10491400a09020009080fb0010c0b300fdf30700be
:1049240040c0b30061e220008048780071e12000bb
:104934008048780000c0eb000d0037007628ef00b7
:1049440000c0eb000a0037000060fe007628ef008c
:1049540000c0eb00060037000060fe007628ef0080
:1049640000c0eb00020037000060fe000040eb00d6
:1049740000000600889fbe008a1f7800e08f200098
:10498400104478000000e800904478000000e8003b
:10499400104578000060fe0010ccb300c1e2200096
:1049a400914f100002003200f04f540015003a00fd
:1049b4000041eb00f1fd2f0040002000a30b070095
:1049c400e08f200001c1b30090cf100008003a002e
:1049d40000c1eb00f1ff2e00001020009b0b07002c
:1049e40000c1eb00f1df2f0000802000970b0700cf
:1049f4000060fe0001c1b30030902000014878003f
:104a04000400370000c1eb00f1fd2f00400020003e
:104a14008e0b070020ccb300d1e22000914f100090
:104a240002003200f1cf540012003a000041eb00c2
:104a3400f1fe2f0000012000840b0700f08f2000fe
:104a440011c1b30090cf100008003a0000c1eb0080
:104a5400f17f2f00004020007c0b070000c1eb0019
:104a6400f1f72f0000002200780b07000060fe0021
:104a74000400370000c1eb00f1fe2f00000120000c
:104a8400720b0700f04f540004003200f1cf5400c1
:104a940002003200f24f550004003a0008c47400ca
:104aa400309020000a487400ae0037003090200097
:104ab4000048eb000060fe006500500010407800e4
:104ac40051c3b300814f500014003a000041eb0081
:104ad400f1df2f00008020005c0b070000c1eb0019
:104ae400f1ff2e0000102000580b07000060fe00ac
:104af40050cbb300f1e22000914f10001d003a00aa
:104b0400401f200001002000307488004174880098
:104b1400f0e220000048eb001600370041c3b30068
:104b2400814f500013003a000041eb00f1ff2e00ca
:104b340000102000450b070000c1eb00f1df2f003f
:104b440000802000410b07000060fe0040cbb30052
:104b5400f1e22000914f100006003a00401f2000af
:104b6400010020003074880041748800f0e22000c5
:104b74000048eb000060fe00f08f20001040780039
:104b840071c3b300814f500014003a000041eb00a0
:104b9400f1f72f00000022002c0b070000c1eb00ee
:104ba400f17f2f0000402000280b07000060fe006a
:104bb40070cbb300f1e22000914f10001d003a00c9
:104bc400401f2000010020003074880041748800d8
:104bd400f0e220000048eb001600370061c3b30088
:104be400814f500013003a000041eb00f17f2f0089
:104bf40000402000150b070000c1eb00f1f72f0067
:104c040000002200110b07000060fe0060cbb3001f
:104c1400f1e22000914f100006003a00401f2000ee
:104c2400010020003074880041748800f0e2200004
:104c34000048eb00f08f20008000e80090c8e800f6
:104c44000060fe001040780071c3b300814f500033
:104c54001c003a0050c3b300e18f2000914f1000b4
:104c640037003a00644040008180e800914f100012
:104c740033003a000041eb00f1ff27000020200040
:104c8400f20a070000c1eb00f1ff2b00000820002e
:104c9400ee0a07000060fe0020cbb300f1e2200022
:104ca400914f10002e003a00401f20000100200008
:104cb4003074880041748800f0e220000048eb0062
:104cc4002700370061c3b300814f50001c003a0035
:104cd40040c3b300e18f2000914f100018003a0048
:104ce400644040008180e800914f100014003a00b5
:104cf4000041eb00f1ff2b0000082000d30a07005d
:104d040000c1eb00f1ff270000202000cf0a0700bc
:104d14000060fe0030cbb300f1e22000914f1000a0
:104d24000f003a00401f200001002000307488006a
:104d340041748800f0e220000048eb0008003700ce
:104d440000c1eb00f1ff270000202000bf0a07008c
:104d540000c1eb00f1ff2b0000082000bb0a070094
:104d6400100907004f0578004f04be00000006003c
:104d74005a0a0700c0428800d14288005c68ec00ef
:104d8400c0428000d14280000148a30003003200e9
:104d940060eb20001048e8000600370060eb2000bc
:104da400104078000004e0000200320061eb2000b3
:104db4008048e900c4428000d542800005017800a3
:104dc4000240a1008001eb00c010dd0000002000c3
:104dd4006121b8000200700083807000c042880026
:104de400d14288007808e200a9003a000060fe0081
:104df400c2428000d34280004000200021062000ef
:104e0400800f5100818f590003003a0070eb20009d
:104e14001048e8000600370070eb200010407800ce
:104e24000004e0000200320071eb20008048e90039
:104e3400c2428000d342800010002000810c200078
:104e4400800f5100818f590007003a00c042800052
:104e5400d14280000128a30003003a0080eb200027
:104e64001048e8000600370080eb2000104078006e
:104e74000004e0000200320081eb20008048e900d9
:104e8400c0428000d1428000010078001006b200c8
:104e94008000eb0012022000820f5000e08f5800c7
:104ea4000a003a00324580004345800010448000e7
:104eb4002144800007ee07000000e00003003500f5
:104ec40090eb20001048e8000600370090eb20002b
:104ed400104078000004e0000200320091eb200052
:104ee4008048e900c0428000d142800002002400d2
:104ef400030c200000026100018161008001eb00cd
:104f0400c010dd00000020006121b8000200700024
:104f1400838070000200240003082000820f5000e8
:104f2400838f58000e003a00c0428000d1428000b6
:104f34000128a3000a003a0032458000434580005e
:104f44001044800021448000e2ed07000000e000ee
:104f540003003500a0eb20001048e80006003700ed
:104f6400a0eb2000104078000004e00002003200b2
:104f7400a1eb20008048e900c0428000d1428000bb
:104f8400020021002304200000026100018161006d
:104f94008001eb00c010dd00000020006121b8009a
:104fa40002007000838070000200210023002000b2
:104fb400820f5000838f58000a003a007245800027
:104fc400834580003044800041448000c1ed0700e7
:104fd4000000e00003003500b0eb20001048e800ba
:104fe40006003700b0eb2000104078000004e00019
:104ff40002003200b1eb20008048e900c04280008a
:10500400d14280000240200083042000000261009d
:10501400018161008001eb00c010dd000000200070
:105024006121b800020070008380700002402000fb
:1050340083002000820f5000838f58000e003a0036
:10504400c0428000d14280000128a3000a003a0037
:1050540072458000834580003044800041448000d4
:105064009ced07000000e00003003500c0eb2000c9
:105074001048e80006003700c0eb2000104078001c
:105084000004e00002003200c1eb20008048e90087
:10509400c0428000d14280000178a30003003200a6
:1050a400f0eb20001048e80006003700f0eb200089
:1050b400104078000004e00002003200f1eb200010
:1050c4008048e900c0428000d14280000158a3001a
:1050d4000300320000ec20001048e800060037000e
:1050e40000ec2000104078000004e00002003200d0
:1050f40001ec20008048e900c0428000d1428000d9
:105104000138a3000300320010ec20001048e8002e
:105114000600370010ec2000104078000004e00086
:105124000200320011ec20008048e900c0428000f7
:10513400d14280000118a3000300320020ec2000bb
:105144001048e8000600370020ec200010407800ea
:105154000004e0000200320021ec20008048e90055
:10516400c0428000d14280000168a30003003200e5
:1051740050ec20001048e8000600370050ec2000f6
:10518400104078000004e0000200320051ec2000de
:105194008048e9005cc8bf00f34f5000f6003600b9
:1051a4005c68ef0060eb200011c1b30090cf1000e9
:1051b4000600360011cab3001090200001487800a0
:1051c40060eb20000048eb000500370051cab30033
:1051d400109020000148780060eb20000048eb00ac
:1051e4007808e20073003a0070eb200012c1b300ab
:1051f400904f11001500360050c3b300e18f20001a
:10520400914f10000800320000c0e8008100e8005f
:10521400914f10000400320000c0e8008100e80053
:10522400914f100003003a0020a22a00b0438800e6
:1052340087f007000040eb0071eb20008048780005
:105244008100e800804878001800370080eb2000d7
:1052540011c1b30090cf10001400360040c3b30056
:10526400e18f2000914f10000800320000c0e800d8
:105274008100e800914f10000400320000c0e800f3
:105284008100e800914f100003003a0030a22a0088
:10529400b04388006ef007000040eb0071eb200083
:1052a400804878008100e8008048780090eb200076
:1052b40012c1b300904f11000d00360050c3b3006b
:1052c400e18f2000914f100003003a0040a22a0011
:1052d400b04388005ef007000040eb0091eb200033
:1052e400804878008100e80080487800100037008a
:1052f400a0eb200011c1b30090cf10000c003600c9
:1053040040c3b300e18f2000914f100003003a0026
:1053140050a22a00b04388004df007000040eb0083
:1053240091eb2000804878008100e80080487800f4
:10533400b0eb200012c1b300904f11000d003600f5
:1053440070c3b300f18f2000914f100003003a00a6
:1053540060a22a00b04388003df007000040eb0043
:10536400b1eb2000804878008100e8008048780094
:1053740010003700c0eb200011c1b30090cf100023
:105384000c00360060c3b300f18f2000914f100071
:1053940003003a0070a22a00b04388002cf00700f2
:1053a4000040eb00b1eb2000804878008100e80069
:1053b40080487800f0eb200012c1b300904f110038
:1053c4000f0036000000e800904f11001c003e0062
:1053d40041c3b300e08f20000148780021c0b3002e
:1053e40020e22000014878000040eb00f1eb2000af
:1053f400804878008100e800804878001b0037006e
:1054040000ec200011c1b30090cf10000c00360056
:1054140051c3b300e08f20000148780011c0b300ed
:1054240020e22000014878000040eb00f1eb20006e
:10543400804878008100e800804878000b0037003d
:1054440001c1b300e08f20000148780031c0b300ef
:1054540020e22000014878000040eb00f1eb20003e
:10546400804878008100e8008048780010ec200033
:1054740012c1b300904f1100110036000000e80083
:10548400904f110020003e0061c3b300f08f200054
:105494000148780081c0b30030e220000148780060
:1054a4006800400000c8eb000040eb0011ec200055
:1054b400804878008100e800804878001f003700a9
:1054c40020ec200011c1b30090cf10000e00360074
:1054d40071c3b300f08f20000148780041c0b300cd
:1054e40030e22000014878006800400000c8eb006a
:1054f4000040eb0011ec2000804878008100e800b7
:10550400804878000d00370011c1b300f08f2000ef
:1055140001487800c1c0b30030e22000014878009f
:105524006800400000c8eb000040eb0011ec2000d4
:10553400804878008100e8008048780050ec200022
:1055440012c1b300904f110006003600f1c3b3003e
:10555400209020000148780050ec20000048eb0027
:1055640005003700f1ccb3002090200001487800fa
:1055740050ec20000048eb0000000600881f780073
:105584000004780040c6200032c0b300904f1100e0
:10559400020032000060fe000500370008007800b9
:1055a40027f707000060fe000040eb00004c980065
:1055b4004f047800000006000060fe0031c0b30014
:1055c40040c32000014878000000e8000048eb00d8
:1055d40031c8b3000000e80001487800f00f200053
:1055e400c0618800d061880022c2b300c1c320001a
:1055f40082487800f06188000060fe000062880044
:10560400419c20001162880012c0b30041c42000f4
:10561400824878008000eb0031628800a062880034
:10562400116388000060fe00000006000060fe00b8
:1056340031c0b30040c620000148780011c0b30057
:105644000000e8000148780022c8b3000000e80028
:1056540002487800f00f20004063880050638800ff
:10566400c2c6200001497800706388008063880006
:105674008000eb00916388006801410001497800d3
:10568400b063880020648800916488000060fe0094
:10569400000006000060fe0031c0b30040c02000de
:1056a4000148780001c1b3000000e8000148780017
:1056b40021c8b3000000e80001487800f00f200082
:1056c400406088005060880012c0b300c1c0200050
:1056d4008248780070608800806088008000eb0059
:1056e4009160880042c1200001497800b0608800c0
:1056f40020618800916188000060fe0000000600bf
:10570400881f7800000478000060fe004841900083
:10571400b8009000180078005b0407000040eb001c
:10572400004c98004f04780000000600889fbe00db
:1057340030019000424190000060fe000204e0004d
:1057440020003a000060fe00f20320000300200065
