:020000040000fa
:080000000001040000000000f3
:020000040000fa
:04000800160e0000d0
:020000040000fa
:04000c0000020000ee
:020000040000fa
:0400100006020000e4
:020000040000fa
:040014000c020000da
:020000040000fa
:0400180012020000d0
:020000040000fa
:04001c00160e0000bc
:020000040000fa
:04002000160e0000b8
:020000040000fa
:04002400160e0000b4
:020000040000fa
:04002800160e0000b0
:020000040000fa
:04002c00160e0000ac
:020000040000fa
:04003000160e0000a8
:020000040000fa
:04003400160e0000a4
:020000040000fa
:04003800160e0000a0
:020000040000fa
:04003c00160e00009c
:020000040000fa
:04004000e079000063
:020000040000fa
:040044003002000086
:020000040000fa
:04004800160e000090
:020000040000fa
:04004c003079000007
:020000040000fa
:0400500056790000dd
:020000040000fa
:04005400160e000084
:020000040000fa
:04005800160e000080
:020000040000fa
:04005c00160e00007c
:020000040000fa
:04006000160e000078
:020000040000fa
:04006400160e000074
:020000040000fa
:04006800160e000070
:020000040000fa
:04006c00160e00006c
:020000040000fa
:04007000160e000068
:020000040000fa
:04007400160e000064
:020000040000fa
:04007800160e000060
:020000040000fa
:04007c00160e00005c
:020000040000fa
:04008000160e000058
:020000040000fa
:04008400a857000079
:020000040000fa
:04008800160e000050
:020000040000fa
:04008c00160e00004c
:020000040000fa
:04009000160e000048
:020000040000fa
:04009400160e000044
:020000040000fa
:04009800160e000040
:020000040000fa
:04009c00160e00003c
:020000040000fa
:0400a000160e000038
:020000040000fa
:0400a400160e000034
:020000040000fa
:0400a800160e000030
:020000040000fa
:0400ac00160e00002c
:020000040000fa
:0400b000160e000028
:020000040000fa
:0400b400160e000024
:020000040000fa
:0400b800160e000020
:020000040000fa
:0400bc00160e00001c
:020000040000fa
:0400c00012650000c5
:020000040000fa
:0400c400160e000014
:020000040000fa
:0400c800160e000010
:020000040000fa
:0400cc00160e00000c
:020000040000fa
:0400d000160e000008
:020000040000fa
:0400d400160e000004
:020000040000fa
:0400d800160e000000
:020000040000fa
:04010800160e0000cf
:020000040000fa
:04010c0018020000d5
:020000040000fa
:040110001e020000cb
:020000040000fa
:0401140024020000c1
:020000040000fa
:040118002a020000b7
:020000040000fa
:04011c00160e0000bb
:020000040000fa
:04012000160e0000b7
:020000040000fa
:04012400160e0000b3
:020000040000fa
:04012800160e0000af
:020000040000fa
:04012c00160e0000ab
:020000040000fa
:04013000160e0000a7
:020000040000fa
:04013400160e0000a3
:020000040000fa
:04013800160e00009f
:020000040000fa
:04013c00160e00009b
:020000040000fa
:04014000160e000097
:020000040000fa
:04014400160e000093
:020000040000fa
:04014800160e00008f
:020000040000fa
:04014c00160e00008b
:020000040000fa
:04015000160e000087
:020000040000fa
:04015400160e000083
:020000040000fa
:04015800160e00007f
:020000040000fa
:04015c00160e00007b
:020000040000fa
:04016000160e000077
:020000040000fa
:04016400160e000073
:020000040000fa
:04016800160e00006f
:020000040000fa
:04016c00160e00006b
:020000040000fa
:04017000160e000067
:020000040000fa
:04017400160e000063
:020000040000fa
:04017800160e00005f
:020000040000fa
:04017c00160e00005b
:020000040000fa
:04018000160e000057
:020000040000fa
:04018400160e000053
:020000040000fa
:04018800160e00004f
:020000040000fa
:04018c00160e00004b
:020000040000fa
:04019000160e000047
:020000040000fa
:04019400160e000043
:020000040000fa
:04019800160e00003f
:020000040000fa
:04019c00160e00003b
:020000040000fa
:0401a000160e000037
:020000040000fa
:0401a400160e000033
:020000040000fa
:0401a800160e00002f
:020000040000fa
:0401ac00160e00002b
:020000040000fa
:0401b000160e000027
:020000040000fa
:0401b400160e000023
:020000040000fa
:0401b800160e00001f
:020000040000fa
:0401bc00160e00001b
:020000040000fa
:0401c000160e000017
:020000040000fa
:0401c400160e000013
:020000040000fa
:0401c800160e00000f
:020000040000fa
:0401cc00160e00000b
:020000040000fa
:0401d000160e000007
:020000040000fa
:0401d400160e000003
:020000040000fa
:0401d800160e0000ff
:020000040000fa
:100200000fd620000e7f22000e01880000000000a3
:10021000000020000000e000020032000001200089
:100220002002880014000700820607000000e0009a
:1002300003003a00809f27000100200002003700e1
:100240000000200001002000810f7000010032003a
:1002500014000700000020000000e000020032004f
:1002600000000200000000006c7b020000000000a3
:100270000040da000000fe004440a9008020200079
:100280000000e0000300320000002000a001880010
:100290004440a800000006008a1f78008b1f7800e9
:1002a0000000060091018800800478000000eb0047
:1002b0001a003700e284440032a0b4009905ba0065
:1002c000e284440032a0b4009906ba00e2844400fb
:1002d00032a0b4000006eb00476fde00fd07b2005d
:1002e000636ce10003003a00ebff07000000eb0045
:1002f0000a003700606ce10004003a00005deb008a
:100300008b05e900fdff3e00040037006168e10055
:10031000010032000086eb000b00070019c7ba008d
:100320001905ba000e04e00003003a000a00e000dc
:10033000e0ff3a0000000600fe07b2009e018800c0
:100340008a047800f5ff3700395dba008b05e900b3
:100350000c003200295dba008b05e900080032006c
:100360000c00e00003003a00e284440032a0b40034
:10037000f5ff370019ddba008b05e900faff3a00f6
:100380008904e800e184440032a0b40000000600c3
:10039000be3d0400000000001e3e040000000000fe
:1003a000be3e040000000000023f04000000000008
:1003b000443f040000000000743f040000000000ff
:1003c0006e3e040000000000f80c04000000000075
:1003d000640a040000000000ae0b040000000000ee
:1003e000d20a0400000000001c0c04000000000001
:1003f000400b0400000000008a0c04000000000014
:100400000000fa008020a900ffff37000000fa007a
:100410008060a900ffff37000000fa008040a900bb
:10042000ffff37000000fa008080a900ffff3700bf
:100430000000fa008020a900ffff37000000fa004a
:100440008060a900ffff37000000fa008040a9008b
:10045000ffff37000000fa008080a900ffff37008f
:100460003600f800809fbe00829fbe00849fbe00c1
:10047000869fbe000000fa0084e0a90020cf200083
:10048000104078000080fb007400b9008000780004
:10049000c0c92000008040009040780080c8b300b0
:1004a00080cf50003a003a0020cf20001040780062
:1004b0000080fb007400b900000078008080e80034
:1004c000c0c9200000804000100078000000e0005b
:1004d0002f003a0020cf2000104078000080fb0061
:1004e0007400b90080007800c0c92000008040007e
:1004f00071c7b3000148780020cf20001040780079
:100500000080fb007400b90080007800e0c9200082
:1005100000804000a1aa2a000108780020cf200016
:10052000104078000081fb00504280006142800052
:100530007411b9008201780082ca20000281410052
:100540000089be0020cf2000104078000080fb0012
:100550007400b90000007800f0004000c0c920001d
:10056000008040001001780020cf2000104078006b
:100570000080fb007400b90080007800c0c9200032
:100580000080400002000100c53a07004400370027
:1005900080cf2000104078000080fb007400b9007c
:1005a00080007800c0c920000080400090407800a2
:1005b00080c8b30080cf500039003a0020cf20001f
:1005c000104078000080fb007400b9000000780043
:1005d0008080e800c0c92000008040001000780042
:1005e0000000e0002e003a0080cf2000104078008c
:1005f0000080fb007400b90080007800c0c92000b2
:100600000080400071c7b3000148780080cf20000f
:10061000104078000080fb007400b9008000780072
:10062000e0c9200000804000a1aa2a00010878004b
:1006300080cf2000104078000081fb0050428000f5
:10064000614280007411b9008201780082ca2000e2
:10065000028141000089be0080cf20001040780058
:100660000080fb007400b90000007800f00040003a
:10067000c0c92000008040001001780080cf200019
:10068000104078000080fb007400b9008000780002
:10069000c0c920000080400002000100803a07002d
:1006a0000080fa004f03be004f02be004f01be00a3
:1006b0004f00be003600f900004006000000fa00be
:1006c00020cf2000104078000080fb007400b900ab
:1006d00080007800c0c920000080400081c8b300bd
:1006e0000148780020cf2000104078000080fb00f7
:1006f0007400b90080007800e0c92000008040004c
:100700008000eb000108780020cf20001040780026
:100710000080fb0031cf2000914078000181fb0078
:100720007400b9008000780020ca200000804000da
:100730000208780020cf2000104078000080fb00e5
:10074000a26780007400b9008000780060ca2000b1
:1007500000804000020878000060fe00c0ce20004b
:10076000104078000080fb007400b9008000780021
:10077000c0c920000080400071c7b3000148780064
:10078000c0ce2000104078000080fb007400b9004b
:1007900080007800e0c9200000804000a1aa2a0063
:1007a00001087800c0ce2000104078000080fb00d7
:1007b000d1ce2000914078000181fb007400b90087
:1007c0008000780020ca20000080400002087800e5
:1007d000c0ce2000104078000081fb005042800015
:1007e000614280007411b9008201780082ca200041
:1007f000028141000089be00c0ce20001040780078
:100800000080fb007400b90000007800f000400098
:10081000c0c920000080400010017800c0ce200038
:10082000104078000080fb007400b9008000780060
:10083000c0c92000008040000200010020cf20003d
:10084000104078000080fb007400b90000007800c0
:10085000ea004000c0c9200000804000100078007d
:10086000053a07000060fe000080fa000000060064
:100870000400fa00004f7800110798000060fe00a5
:100880001e80fb007400b90080007800c0c9200001
:100890000080400071c7b300014878001e80fb0053
:1008a0007400b90080007800e0c92000008040009a
:1008b000a1aa2a00010878001e81fb005042800096
:1008c000614280007411b9008201780082ca200060
:1008d000028141000089be001e80fb009e00900046
:1008e000638140007400b9008000780020ca2000b5
:1008f00000804000020878000060fe001e80fb00bf
:100900007400b90000007800f0004000c0c9200069
:1009100000804000100178001e80fb007400b900c8
:1009200080007800c0c92000008040000200010063
:100930001e81fb0050428000614280007411b900aa
:100940008201780082ca2000028141000089be0035
:100950000080fa00000006000400fa00004f780052
:10096000110798000060fe001e80fb007400b900b3
:1009700080007800c0c920000080400071c7b3002b
:10098000014878001e80fb007400b90080007800e8
:10099000e0c920000080400051a52a00010878002d
:1009a0001e81fb0050428000614280007411b9003a
:1009b0008201780082ca2000028141000089be00c5
:1009c0001e80fb009e0090000181e8007400b900c9
:1009d0008000780040ca20000080400002087800b3
:1009e0000060fe001e80fb007400b900000078006b
:1009f000f2004000c0c920000080400010017800d3
:100a00001e80fb007400b90080007800c0c920007f
:100a100000804000020001001e81fb005042800067
:100a2000614280007411b9008201780082ca2000fe
:100a3000028141000089be000080fa00000006002b
:100a40000c00fa000040eb00004f78000040eb0083
:100a5000104798000040eb00204798005242800069
:100a60006342800022079800330798000080eb0063
:100a70008080eb0040079800510798000500370080
:100a800000000000030037000000000001003700f4
:100a9000000000000060fe00f1648000a0aa2a00af
:100aa000808f50000a003a00c0c9200090407800b2
:100ab00070c7b30080cf500005003a000060fe0010
:100ac00061658000c0c920000100010013003700eb
:100ad000f164800050a52a00808f50000a003a007f
:100ae000c0c920009040780070c7b30080cf50008c
:100af00005003a000060fe0071658000c0c920005a
:100b00000100010005003700e862a900cb42a800ff
:100b1000cba2a900e282a800e902a90091658000a9
:100b2000a0aa2a00808f50000a003a0000cb2000c3
:100b30009040780070c7b30080cf500005003a00a5
:100b40000060fe000166800000cb20000100010073
:100b5000130037009165800050a52a00808f500057
:100b60000a003a0000cb20009040780070c7b30024
:100b700080cf500005003a000060fe001166800042
:100b800000cb20000100010005003700e2c2a900ef
:100b9000cb22a800cb82a900cbe2a800caa2a90060
:100ba000f06480000000e000b5ff3a00906580002e
:100bb0000000e000b4ff3a000060fe000065800025
:100bc0000000e00003003a00a06580000000e000a3
:100bd0000b0032000019200001002000400798009f
:100be00051079800e10307005242800063428000f1
:100bf00022079800330798002e40900073310700b9
:100c000052428000634280002e009000be0090009f
:100c100000015100818159004e009000de009000db
:100c2000800f5100818f5900090039002e4090003b
:100c3000932a07000080eb008080eb0040079800bb
:100c4000510798000040eb00204798005e28ef0015
:100c50000060fe00e862a900cb42a800cba2a90078
:100c6000e282a800e902a900e2c2a900cb22a80002
:100c7000cb82a900cbe2a800caa2a900e2a2a900e7
:100c8000cb02a800cb62a900cbc2a800ca82a900ef
:100c90000060fe00e862a900cb42a800cba2a90038
:100ca000e282a800e902a900e2c2a900cb22a800c2
:100cb000cb82a900cbe2a800caa2a900e2a2a900a7
:100cc000cb02a800cb62a900cbc2a800ca82a900af
:100cd0000000eb00f06488000000eb0090658800e5
:100ce0000000eb0030668800c0c920008040eb00a7
:100cf0000148780000cb20008040eb0001487800dc
:100d000040cc20008040eb00014878000060fe00ed
:100d10002d3007005242800063428000006a80004c
:100d2000116a8000000151008181590010002000eb
:100d300001002000800f5100818f5900060036000d
:100d4000d01e07000060fe0050428000614280001b
:100d5000006a8800116a8800201d07000004e00076
:100d600006003200638620009341780023479800f4
:100d70006668ef000000000046ff37005242800026
:100d800063428000e0698000f16980000001510049
:100d900081815900f07c200001002000800f51006b
:100da000818f590004003e0010d5200010407800cb
:100db000e14f40000e003a000060fe000a280700e4
:100dc00010d52000104078000004e000010032003f
:100dd000db1d070010d520008040eb0001487800a3
:100de0005042800061428000e0698800f16988001b
:100df0000060fe005242800063428000206a800052
:100e0000316a8000000151008181590090428000c8
:100e1000a1428000800f5100818f59001c003900d1
:100e20009e407800f0ff2d00c23307001ecfea007d
:100e300092428000a3428000c05d2000010020009b
:100e4000800f5100818f59000d003a001e40900024
:100e50000040e800104798001e409000e24f50000c
:100e6000070036008000eb000000eb00802b07003d
:100e7000401f20000100200090428800a14288000d
:100e80005042800061428000206a8800316a8800f8
:100e90005242800063428000c0698000d1698000b6
:100ea0000001510081815900f070220001002000f2
:100eb000800f5100818f5900f5fe360050428000ae
:100ec00061428000c0698800d16988000060fe002e
:100ed000b53707005044880061448800edfe3700b4
:100ee0000200fa000040eb00004f78000060fe00b6
:100ef000e462a900c7a2a900de82a900c742a90036
:100f0000e862a900cb42a800cba2a900e282a80017
:100f1000e902a9000060fe00dec2a900c782a900a4
:100f2000c7e2a900c722a900e2c2a900cb22a800fb
:100f3000cb82a900cbe2a800caa2a9000060fe00f3
:100f4000dea2a900c762a900c7c2a900c702a90002
:100f5000e2a2a900cb02a800cb62a900cbc2a800e4
:100f6000ca82a9000060fe006668ef00e0d420009d
:100f70008040eb0001487800f0d420008040eb0076
:100f80000148780000d520008040eb00014878003f
:100f9000b0d420008040eb0001487800c0d420008d
:100fa0008040eb0001487800d0d420008040eb0066
:100fb0000148780010d5200080c0eb00014878007f
:100fc00080d420008040eb000148780090d42000bd
:100fd0008040eb0001487800a0d420008040eb0066
:100fe000014878000060fe000040eb00004f7800f0
:100ff0001e80fb006600b90080007800c0ce200093
:10100000008040008040eb00014878001e80fb001b
:101010006600b9008000780000cf2000008040000a
:1010200081cf2000010878001e80fb006600b90017
:1010300000007800e4004000c0ce200000804000a6
:10104000100178001e80fb006600b9008000780067
:10105000c0ce200000804000020001001e4fe800ca
:101060001e80fb006600b90080007800c0ce200022
:101070000080400011c0b300014878001e80fb00d2
:101080006600b9008000780000cf2000008040009a
:1010900081cf2000010878001e80fb006600b900a7
:1010a00000007800e4004000c0ce20000080400036
:1010b000100178001e80fb006600b90080007800f7
:1010c000c0ce200000804000020001001e4fe8005a
:1010d0001e80fb006600b90080007800c0ce2000b2
:1010e0000080400021c0b300014878001e80fb0052
:1010f0006600b9008000780000cf2000008040002a
:1011000081cf2000010878001e80fb006600b90036
:1011100000007800e4004000c0ce200000804000c5
:10112000100178001e80fb006600b9008000780086
:10113000c0ce200000804000020001001e4fe800e9
:101140005c28ef005e28ef000060fe00160007003c
:101150005042800061428000206a8800316a880025
:101160005042800061428000c0698800d1698800d7
:101170005042800061428000006a8800116a880045
:101180005042800061428000e0698800f169880077
:10119000401f20000100200090428800a1428800ea
:1011a0000080fa00000006000200fa000040eb0098
:1011b000004f78001e80fb007400b90080007800aa
:1011c000c0c92000008040008040eb00014878004a
:1011d0001e80fb007400b90080007800e0c9200088
:1011e000008040008000eb00010878001e80fb00ba
:1011f0007400b9008000780000ca20000080400020
:101200008000eb00010878001e80fb007400b9002c
:101210008000780020ca20000080400021032000c8
:10122000010878001e80fb007400b900800078007f
:1012300040ca200000804000e10120000108780041
:101240001e80fb007400b9008000780060ca200096
:10125000008040008000eb00010878001e80fb0049
:101260007400b9008000780080ca2000008140002e
:101270006000b8000089be001e80fb007400b90049
:1012800080007800c0ca20000080400041a62000f5
:10129000010878001e80fb007400b900800078000f
:1012a000e0ca200000804000e1ba20000108780078
:1012b0001e4fe8000060fe001e80fb007400b900b5
:1012c00080007800c0c92000008040008040eb0012
:1012d000014878001e80fb007400b900800078008f
:1012e000e0c92000008040008000eb000108780089
:1012f0001e80fb007400b9008000780000ca200046
:10130000008040008000eb00010878001e80fb0098
:101310007400b9008000780020ca200000804000de
:1013200021032000010878001e80fb007400b90032
:101330008000780040ca200000804000e1012000c9
:10134000010878001e80fb007400b900800078005e
:1013500060ca2000008040008000eb000108780097
:101360001e80fb007400b9008000780080ca200055
:10137000008140006000b8000089be001e80fb00b4
:101380007400b90080007800c0ca200000804000ce
:1013900021ad2000010878001e80fb007400b90018
:1013a00080007800e0ca200000804000c1c1200019
:1013b000010878001e4fe8000060fe001e80fb0060
:1013c0007400b90080007800c0c92000008040008f
:1013d0008040eb00014878001e80fb007400b900db
:1013e00080007800e0c92000008040008000eb0011
:1013f000010878001e80fb007400b90080007800ae
:1014000000ca2000008040008000eb000108780046
:101410001e80fb007400b9008000780020ca200004
:101420000080400021032000010878001e80fb009e
:101430007400b9008000780040ca2000008040009d
:10144000e1012000010878001e80fb007400b90053
:101450008000780060ca2000008040008000eb001f
:10146000010878001e80fb007400b900800078003d
:1014700080ca2000008140006000b8000089be00e2
:101480001e80fb007400b90080007800c0ca2000f4
:101490000080400001b42000010878001e80fb009d
:1014a0007400b90080007800e0ca2000008040008d
:1014b000a1c82000010878001e4fe8000060fe006f
:1014c0000080fa00000006000200fa00000f780019
:1014d0001e00780090009000a0aa2a00808f500083
:1014e0000f003a001e0078009040780070c7b300eb
:1014f00080cf50000a003a00cba2a900e282a800e7
:10150000e862a800cb42a900e902a800cba2a9008a
:10151000e282a800e862a800cb42a900e902a80084
:101520001e007800300090008000eb001e01780063
:1015300062029000f20290000001be000400be00b2
:101540005e3707000004e00014003200e862a900e2
:10155000cb42a800cba2a900e282a800e902a90020
:10156000e862a900cb42a800cba2a900e282a800b1
:10157000e902a9001e0078008000eb00110098002d
:101580001e0078008040eb00014878000060fe00fb
:101590001e007800a1aa2a00210098000080fa000d
:1015a000000006000200fa00000f78001e0078001c
:1015b00090009000a0aa2a00808f50000f003a00ef
:1015c0001e0078009040780070c7b30080cf5000b4
:1015d0000a003a00cb82a900cbe2a800e2c2a80030
:1015e000cb22a900caa2a800cb82a900cbe2a80006
:1015f000e2c2a800cb22a900caa2a8001e0078005f
:10160000300090008000eb001e0178006202900024
:10161000f20290000001be000400be002737070060
:101620000004e00014003200e2c2a900cb22a800ae
:10163000cb82a900cbe2a800caa2a900e2c2a900fd
:10164000cb22a800cb82a900cbe2a800caa2a900a5
:101650001e0078008000eb00110098001e0078004a
:101660008040eb00014878000060fe001e0078001a
:10167000a1aa2a00210098000080fa0000000600bc
:101680000200fa00000f78001e0078009000900021
:10169000a0aa2a00808f50000f003a001e00780098
:1016a0009040780070c7b30080cf50000a003a0025
:1016b000cb62a900cbc2a800e2a2a800cb02a9007d
:1016c000ca82a800cb62a900cbc2a800e2a2a800ef
:1016d000cb02a900ca82a8001e007800300090004a
:1016e0008000eb001e01780062029000f202900080
:1016f0000001be000400be00f03607000004e00058
:1017000014003200e2a2a900cb02a800cb62a9001b
:10171000cbc2a800ca82a900e2a2a900cb02a800fd
:10172000cb62a900cbc2a800ca82a9001e00780023
:101730008000eb00110098001e0078008040eb0054
:10174000014878000060fe001e007800a1aa2a006f
:10175000210098000080fa00000006000200fa0054
:10176000000f78001e0078009000900050a52a001d
:10177000808f50000f003a001e00780090407800e3
:1017800070c7b30080cf50000a003a00e862a90099
:10179000cb42a800cba2a800e282a900e902a800df
:1017a000e862a900cb42a800cba2a800e282a9006f
:1017b000e902a8001e007800400090008000eb00c5
:1017c0001e01780062029000f20290000001be004b
:1017d0000400be00b93607000004e0001400320027
:1017e000e862a900cb42a800cba2a900e282a8002f
:1017f000e902a900e862a900cb42a800cba2a90097
:10180000e282a800e902a9001e0078008000eb0037
:10181000110098001e0078008040eb00014878001d
:101820000060fe001e00780051a52a0021009800eb
:101830000080fa00000006000200fa00000f7800a5
:101840001e0078009000900050a52a00808f500064
:101850000f003a001e0078009040780070c7b30077
:1018600080cf50000a003a00e2c2a900cb22a800b3
:10187000cb82a800cbe2a900caa2a800e2c2a900bc
:10188000cb22a800cb82a800cbe2a900caa2a80064
:101890001e007800400090008000eb001e017800e0
:1018a00062029000f20290000001be000400be003f
:1018b000823607000004e00014003200e2c2a900f2
:1018c000cb22a800cb82a900cbe2a800caa2a90023
:1018d000e2c2a900cb22a800cb82a900cbe2a800db
:1018e000caa2a9001e0078008000eb001100980039
:1018f0001e0078008040eb00014878000060fe0088
:101900001e00780051a52a00210098000080fa00ee
:10191000000006000200fa00000f78001e007800a8
:101920009000900050a52a00808f50000f003a00d0
:101930001e0078009040780070c7b30080cf500040
:101940000a003a00e2a2a900cb02a800cb62a800dc
:10195000cbc2a900ca82a800e2a2a900cb02a800bb
:10196000cb62a800cbc2a900ca82a8001e007800e2
:10197000400090008000eb001e01780062029000a1
:10198000f20290000001be000400be004b360700ca
:101990000004e00014003200e2a2a900cb02a8007b
:1019a000cb62a900cbc2a800ca82a900e2a2a9000a
:1019b000cb02a800cb62a900cbc2a800ca82a900b2
:1019c0001e0078008000eb00110098001e007800d7
:1019d0008040eb00014878000060fe001e007800a7
:1019e00051a52a00210098000080fa00000006009e
:1019f0000200fa00000f78001e0078001040780006
:101a00000080fb00e10f50000a003200e20f50009e
:101a10000e0032000000e00012003a008086200034
:101a200010407800e34040001e007800114098000c
:101a3000100037009086200010407800e3404000fe
:101a40001e007800114098000a003700a086200090
:101a500010407800e34040001e00780011409800dc
:101a6000040037001e00780051c3b30011409800f5
:101a7000000000000080fa00000006000a00fa00e2
:101a800030079800410798000000eb00000f780035
:101a90000000eb00100798004e009000c04090003e
:101aa000414798004e4090000080fb00e50f500039
:101ab00002003200e80f500028003a004e0090006b
:101ac000300090000000e80090407800c0ce200078
:101ad000014878004e009000300090000080e8003f
:101ae0009040780020cf2000014878000060fe0080
:101af0003e009000300090000080e8001040780028
:101b00000080fb00100798003e009000300090001d
:101b100063004000104078000080fb00000f780058
:101b20001e007800c800dd001e009000010070005b
:101b3000a0678800a06780000000d100a06788002f
:101b400081678000c0ce200001000100b1678000e5
:101b500020cf200001000100020037000060fe00dd
:101b6000000000000080fa00000006000000fa00fb
:101b700001658000a0aa2a00808f500006003a006c
:101b80000060fe00a28e200020002f00f107200040
:101b9000d4320700090037000165800050a52a00f3
:101ba000808f500005003a000060fe00c28e2000c9
:101bb00040002f00f1072000ca320700a165800015
:101bc000a0aa2a00808f500006003a000060fe00a4
:101bd000e28e200060002f00f1072000c1320700d4
:101be00009003700a165800050a52a00808f5000b1
:101bf00005003a000060fe00028f200080002f00e8
:101c0000f1072000b73207000000eb0000658800f4
:101c10000000eb00a06588000000eb004066880033
:101c20000060fe000080fa00000006000040da00bc
:101c30000000fe00000005003200f800910188005d
:101c40000008bb00410424006210e10004003200df
:101c5000000220000010e1000a003a0051042400b4
:101c6000013b88000500fc0051052000313b880045
:101c7000a10a2000313b880061e7a80000000000b5
:101c8000000000003200f900000006003200f800f9
:101c900060042400003b8800f2ff37003200f800a7
:101ca0009101880041002400013b88000208bb002c
:101cb000ecff37003200f800910188005100240049
:101cc000013b8800030120003218bb008301e900ba
:101cd000fdff3a00e3ff37003200f8009101880071
:101ce0008002780062004000e08048003549ba0078
:101cf0003204e0000410a700100032008301e90064
:101d00000e0032002549ba003204e0000410a7009a
:101d10000a0032008301e900080032000408a30031
:101d2000eeff320015c9ba003204e0000410a7002b
:101d3000020032008301e900e8ff3a003200f900b6
:101d40000000060003f0a200889fbe008a9fbe002c
:101d50008c1f7800180107001f0133006450e10058
:101d60004f0032006420e1005200320003826c0018
:101d700007003b000905d0000306d000820f540085
:101d80000c065d0002003900020032008901780073
:101d9000030678008582550004003d000003fd0025
:101da0008103fd008502ea008b854200840f7200ea
:101db00002003b0060001000e08018006011b800d5
:101dc0000005eb007a28e1000a00390006007800df
:101dd000c75ddd00f707b200878075002d00370072
:101de000828171000a017800610560008180d10064
:101df0000080d3008502e900f9ff3b0006044000a3
:101e00008784480002003b0060041400e0841c004a
:101e10000988a300070032008a8171008281710065
:101e2000610164008904d1000884d3008b05e800b7
:101e3000170037000978a30013003a000b00e000f8
:101e4000130034008b05e9000804440089844c0029
:101e50000a4474000978a3000d003a000b00e0006a
:101e6000070034008b05e9000804440089844c0015
:101e700001003a000b0020000978a300f7ff3200b0
:101e80000001eb0002003700828171000a01780036
:101e90008e0007000cf0a70001f0a000d70037006b
:101ea0006420e10002003a00838f6c00d700330009
:101eb0000801be000200be00d0003700889fbe00af
:101ec0008a9fbe008c1f7800bb000700c200330051
:101ed00003866c006450e1002e0032006420e100b3
:101ee000330032006150e1002f0032006120e10038
:101ef0003100320085855500eb07b0000900200055
:101f000008042000050037000804440089844c00c0
:101f10000a0031000603430087834b000001530091
:101f200081815b00f8ff33000203be000800a000bf
:101f30000804440089844c00f6ff3900c639dd00ee
:101f40008301730001003200130020008904d100d6
:101f50000884d3000998a300050032000800a700f8
:101f60000300a0008904d1000884d3008b05e80099
:101f70008904d1000884d3000001eb000281d20063
:101f80005200070001f0a1000cf0a70001f0a00032
:101f90009a0037006420e1009c0032000801be0076
:101fa0000200be00f7ff37006120e1009700320019
:101fb0006000b800f3ff37000000200001f82700a0
:101fc000f0ff370014002000c7003700f4ff2f0097
:101fd000c50037000001be00620007000470a700c2
:101fe00003f0a1006509b100160032000d003500b4
:101ff0006828e10006003500f0ff2f00f1ff270000
:102000000300e00013003b00010028000000050071
:1020100000004000818048008502e900fcff3a0092
:1020200008003700f88f420002003c008000eb00ff
:10203000000005008100d1000080d3008502e80087
:10204000fcff3a000300e00002003b0060001000cb
:10205000e0801800000006000001be0041000700fb
:102060000470a70003f0a10003f8a30013003a00d6
:102070006509b10010003200090035006928e1004f
:1020800002003500010028000000050000004000ab
:10209000818048008502e900fcff3a00000006004c
:1020a000f88f4200050035008100d1000080d30088
:1020b0008502e800fcff3a00000006008000eb000b
:1020c000000005006011b800a20037008100200068
:1020d000618055000b003d000b00200061fe2f00c9
:1020e0000100e1001d003400828171006101640083
:1020f0008904d1000884d3000000e800faff3a0008
:1021000071002000610064000300700002006000a4
:102110000900320061044400e0844c000988a500f5
:10212000050032008b05e8006808e10002003a0073
:102130008904d1000884d300f20f20000258e10086
:1021400005003d00c75ddd00f907b200898075001c
:1021500008007800000006000bf827008b007800cc
:1021600000000500c70ade00f107b200f50fb2005b
:1021700008003200e1cf4200020032000170a000ee
:1021800024000500810f70000100320004080500e2
:1021900044000500810f700002003a0014000500a1
:1021a0008502e9000000400081c04800fcff3b00c0
:1021b0000170a000240005000004be00e9ff070034
:1021c0000003be000405be000200be00e5ff0700dc
:1021d000844f7500000006000200be006450e1005c
:1021e000050036006420e100020036000968a30003
:1021f00001003a000800be000160a0004f06780010
:102200004f05be004f04be0000000600f0ff2f0087
:10221000f1ff2700f9ff3700889fbe008a9fbe00ac
:102220008c1f7800e4ff0700ebff330003866c008f
:102230006450e100240032006420e10027003200f5
:102240006150e100220032006120e10021003200f3
:102250008b854200eb07b1000134b800003ab800aa
:102260000804420089844a00013ab8000030b800ee
:102270008880400009014a0004003300000040004b
:1022800081804800020149008b05e900c909dd0091
:10229000830170000100320013002000c814de002a
:1022a0004814dd004709de001200b200c808de0055
:1022b0000884700085ff070001f0a1000cf0a70062
:1022c00001f0a000cdff37006120e100cfff320018
:1022d0000801be000200be00f7ff37006150e100b8
:1022e000fcff3a00c9ff3700889fbe008a9fbe00ee
:1022f000841f7800b0ff07004f0078001100330002
:10230000f0ff2f00838f6c0006003b000405650082
:102310000a00a7000800370009f0a60010002000fe
:1023200008003700820f5400838f5c0003003900df
:102330001000200001003e000000200009f0a7006e
:102340000000ea004f05be004f04be000000e000a0
:1023500000000600889fbe008a9fbe0000827000b9
:102360000402710004827100260032000004be00e5
:102370000200be006011b8006b0920009502200029
:102380000182cf000a0039000541b1000082cf0070
:10239000070039000541b1000982cf00040039006f
:1023a0000541b1000882cf00010039000541b100ac
:1023b00005425200120032000a003b008281710087
:1023c000610164008100d1000080d3008984d300c2
:1023d0000884d3008b05e8000442e800f7ff3a00c8
:1023e000070037000804440089844c0000004800be
:1023f000818048008b05e9000442e900f9ff3a00ba
:1024000032ff07004f05be004f04be00000006006b
:020000040000fa
:1024100000c100008140000001c0000080410000b8
:1024200001c000008041000000c1000081400000a8
:1024300001c000008041000000c100008140000098
:1024400000c100008140000001c000008041000088
:1024500001c000008041000000c100008140000078
:1024600000c100008140000001c000008041000068
:1024700000c100008140000001c000008041000058
:1024800001c000008041000000c100008140000048
:1024900001c000008041000000c100008140000038
:1024a00000c100008140000001c000008041000028
:1024b00000c100008140000001c000008041000018
:1024c00001c000008041000000c100008140000008
:1024d00000c100008140000001c0000080410000f8
:1024e00001c000008041000000c1000081400000e8
:1024f00001c000008041000000c1000081400000d8
:1025000000c100008140000001c0000080410000c7
:1025100001c000008041000000c1000081400000b7
:1025200000c100008140000001c0000080410000a7
:1025300000c100008140000001c000008041000097
:1025400001c000008041000000c100008140000087
:1025500000c100008140000001c000008041000077
:1025600001c000008041000000c100008140000067
:1025700001c000008041000000c100008140000057
:1025800000c100008140000001c000008041000047
:1025900000c100008140000001c000008041000037
:1025a00001c000008041000000c100008140000027
:1025b00001c000008041000000c100008140000017
:1025c00000c100008140000001c000008041000007
:1025d00001c000008041000000c1000081400000f7
:1025e00000c100008140000001c0000080410000e7
:1025f00000c100008140000001c0000080410000d7
:1026000001c000008041000000c1000081400000c6
:1026100000c00000c1010000c303000002c20000ae
:10262000c606000007c7000005c50000c40400007e
:10263000cc0c00000dcd00000fcf0000ce0e00002e
:102640000aca0000cb0b0000c909000008c800003e
:10265000d818000019d900001bdb0000da1a0000ae
:102660001ede0000df1f0000dd1d00001cdc00007e
:1026700014d40000d5150000d717000016d60000ae
:10268000d212000013d3000011d10000d0100000be
:10269000f030000031f1000033f30000f2320000ae
:1026a00036f60000f7370000f535000034f400007e
:1026b0003cfc0000fd3d0000ff3f00003efe00002e
:1026c000fa3a00003bfb000039f90000f83800003e
:1026d00028e80000e9290000eb2b00002aea0000ae
:1026e000ee2e00002fef00002ded0000ec2c00007e
:1026f000e424000025e5000027e70000e6260000ae
:1027000022e20000e3230000e121000020e00000bd
:10271000a060000061a1000063a30000a2620000ad
:1027200066a60000a7670000a565000064a400007d
:102730006cac0000ad6d0000af6f00006eae00002d
:10274000aa6a00006bab000069a90000a86800003d
:1027500078b80000b9790000bb7b00007aba0000ad
:10276000be7e00007fbf00007dbd0000bc7c00007d
:10277000b474000075b5000077b70000b6760000ad
:1027800072b20000b3730000b171000070b00000bd
:1027900050900000915100009353000052920000ad
:1027a000965600005797000055950000945400007d
:1027b0009c5c00005d9d00005f9f00009e5e00002d
:1027c0005a9a00009b5b000099590000589800003d
:1027d00088480000498900004b8b00008a4a0000ad
:1027e0004e8e00008f4f00008d4d00004c8c00007d
:1027f00044840000854500008747000046860000ad
:1028000082420000438300004181000080400000bc
:10281000596f00006e67000043690000000000006f
:020000040000fa
:102820000200fa0080bb200080c0eb000148780065
:1028300060ba2000b05d880020bc200080c0eb00a2
:1028400001487800c0b92000005e88000060fe00ea
:1028500060b8200001c1b3000148780070b82000c2
:1028600021c0b3000148780080b820008040eb0010
:102870000148780090b82000a1c0b300014878005a
:102880000060fe0060b520008040eb000148780049
:1028900060af20008040eb000148780060b220006b
:1028a0008040eb00014878000060fe00004080009e
:1028b000505c880010428000605c880010408000fe
:1028c000705c8800418020009140780000b92000b1
:1028d00001487800518020009140780010b9200014
:1028e000014878003040800041408000a05c8800b2
:1028f000b15c88005240800063408000c25c880068
:10290000d35c880010cab30044e8b700a1bb200024
:1029100000bb200027070700004f78000060fe0082
:102920000200370040cab30044e8b7001e407800f8
:102930000004e000fbff3a000060fe0020cab30084
:1029400044e8b7000080fa00000006000400fa0026
:10295000000f7800110798000060fe001e0078004c
:10296000300090000000e80010407800ee4f50006a
:102970003e0032000060fe0060b820001040780089
:102980000081fb008001eb00f0032000010020002b
:1029900002027800030178008001780001007800cd
:1029a00003026200000061008000eb00c000dd0057
:1029b000000020000001be006120b800000171008d
:1029c00081817100431add00cd12de0085027200a4
:1029d0004312dd00304020000100200000007200a2
:1029e000818072001e0190000089be001e009000d0
:1029f000300090009e007800b10090009140780077
:102a00000174a100014878001e0090003000900081
:102a10000000e80041c9b300014878001e009000a2
:102a2000300090000080e80081c0b30001487800c9
:102a30001e009000300090006300400021c0b300f1
:102a4000014878001e00900041c0b300414098004a
:102a50000060fe001e0078008040eb0001489800f6
:102a60001e009000200b0700840037001e00780035
:102a7000300090000080e80010407800e14f5000e6
:102a80003e0032000060fe0060b820001040780078
:102a90000081fb008001eb00f0032000010020001a
:102aa00002027800030178008001780001007800bc
:102ab00003026200000061008000eb00c000dd0046
:102ac000000020000001be006120b800000171007c
:102ad00081817100431add00cd12de008502720093
:102ae0004312dd0030402000010020000000720091
:102af000818072001e0190000089be001e009000bf
:102b0000300090009e007800b10090009140780065
:102b10000174a100014878001e0090003000900070
:102b20000000e80041c9b300014878001e00900091
:102b3000300090000080e80081c2b30001487800b6
:102b40001e009000300090006300400080c0eb0049
:102b5000014878001e00900041c0b3004140980039
:102b60000060fe001e0078008040eb0001489800e5
:102b70001e009000dc0a07004000370060b820000b
:102b8000104078000081fb008001eb00f003200082
:102b90000100200002027800030178008001780023
:102ba0000100780003026200000061008000eb0079
:102bb000c000dd00000020000001be006120b80060
:102bc0000001710081817100431add00cd12de0029
:102bd000850272004312dd00304020000100200019
:102be00000007200818072001e0190000089be000a
:102bf0001e009000300090009e007800b100900010
:102c0000914078000174a100014878001e009000f6
:102c1000300090000000e800e1c8b30001487800ef
:102c20001e009000300090000080e800714080009d
:102c300081407800014878001e009000300090002c
:102c40006300400071408000c808de0081407800c9
:102c5000014878001e00900041c0b3004140980038
:102c60000060fe001e0078008040eb0001489800e4
:102c70000060fe001e0090009b0a07000080fa0022
:102c8000000006000400fa00000f78001107980009
:102c90001e007800300090000000e800104078002e
:102ca0000080fb00f00f500003013200f00f5000d5
:102cb00003003c00ee0f5000050032008a0137008f
:102cc000b004b100e10f500087013e0081013700e0
:102cd0000060fe001e00780030009000640040009c
:102ce000104078000080fb00e20f50003d003200f1
:102cf000e50f500074003200e10f5000b1003a00bf
:102d000060b82000104078000081fb008001eb00db
:102d1000f003200001002000020278000301780087
:102d20008001780001007800030262000000610069
:102d30008000eb00c000dd00000020000001be00ac
:102d40006120b8000001710081817100431add002b
:102d5000cd12de00850272004312dd0030402000fb
:102d60000100200000007200818072001e019000ae
:102d70000089be001e009000300090009e00780088
:102d8000b1009000914078000174a10001487800e2
:102d90001e009000300090000000e800e1c8b30081
:102da000014878001e009000300090000080e8008c
:102db00061b8200091407800014878001e00900022
:102dc00031c0b300414098000060fe001e00780052
:102dd0008040eb00014898001e009000420a070066
:102de0007e01370060b82000104078000081fb00b1
:102df0008001eb00f00320000100200002027800b7
:102e0000030178008001780001007800030262006d
:102e1000000061008000eb00c000dd000000200029
:102e20000001be006120b8000001710081817100c5
:102e3000431add00cd12de00850272004312dd0070
:102e400030402000010020000000720081807200ec
:102e50001e0190000089be001e009000300090000e
:102e60009e007800b1009000914078000174a100ac
:102e7000014878001e009000300090000000e8003b
:102e8000e1c8b300014878001e00900030009000b7
:102e90000080e80071b82000914078000148780077
:102ea0001e00900031c0b300414098000060fe0059
:102eb0001e0078008040eb00014898001e00900042
:102ec000090a07004501370060b82000104078006b
:102ed0000081fb008001eb00f003200001002000d6
:102ee0000202780003017800800178000100780078
:102ef00003026200000061008000eb00c000dd0002
:102f0000000020000001be006120b8000001710037
:102f100081817100431add00cd12de00850272004e
:102f20004312dd003040200001002000000072004c
:102f3000818072001e0190000089be001e0090007a
:102f4000300090009e007800b10090009140780021
:102f50000174a100014878001e009000300090002c
:102f60000000e800e1c8b300014878001e009000ae
:102f7000300090000080e80081b820009140780087
:102f8000014878001e00900030009000630040006f
:102f900091b8200091407800014878001e00900010
:102fa00041c0b300414098000060fe001e00780060
:102fb0008040eb00014898001e009000ca090700fd
:102fc0000601370060b82000104078000081fb0047
:102fd0008001eb00f00320000100200002027800d5
:102fe000030178008001780001007800030262008c
:102ff000000061008000eb00c000dd000000200048
:103000000001be006120b8000001710081817100e3
:10301000431add00cd12de00850272004312dd008e
:10302000304020000100200000007200818072000a
:103030001e0190000089be001e009000300090002c
:103040009e007800b1009000914078000174a100ca
:10305000014878001e009000300090000000e80059
:1030600041c9b300014878001e0090003000900074
:103070000080e80081c2b300014878001e00900083
:10308000300090006300400080c0eb0001487800f1
:103090001e00900041c0b300414098000060fe0057
:1030a0001e0078008040eb00014898001e00900050
:1030b0008d090700c90037001e007800300090001d
:1030c00063004000104078000080fb00e50f5000d6
:1030d00043003e00110020008008dd006002200057
:1030e000008060000000e0003d00320060b8200079
:1030f000104078000081fb008001eb00f00320000d
:1031000001002000020278000301780080017800ad
:103110000100780003026200000061008000eb0003
:10312000c000dd00000020000001be006120b800ea
:103130000001710081817100431add00cd12de00b3
:10314000850272004312dd003040200001002000a3
:1031500000007200818072001e0190000089be0094
:103160001e009000300090009e007800b10090009a
:10317000914078000174a100014878001e00900081
:10318000300090000000e80041c9b3000148780019
:103190001e009000300090000080e800e1c0b30005
:1031a000014878001e00900030009000630040004d
:1031b00080c0eb00014878001e00900041c0b300c1
:1031c000414098000060fe001e0078008040eb0047
:1031d000014898001e009000430907007f00370057
:1031e00060b82000104078000081fb008001eb00f7
:1031f000f0032000010020000202780003017800a3
:103200008001780001007800030262000000610084
:103210008000eb00c000dd00000020000001be00c7
:103220006120b8000001710081817100431add0046
:10323000cd12de00850272004312dd003040200016
:103240000100200000007200818072001e019000c9
:103250000089be001e009000300090009e007800a3
:10326000b1009000914078000174a10001487800fd
:103270001e009000300090000000e80041c9b3003b
:10328000014878001e009000300090000080e800a7
:1032900081c2b300014878001e0090003000900009
:1032a0006300400080c0eb00014878001e009000e1
:1032b00041c0b300414098000060fe001e0078004d
:1032c0008040eb00014898001e00900006090700ae
:1032d000420037000060fe009e0090001e00780053
:1032e0001f0607003d00370060b82000104078003e
:1032f0000081fb008001eb00f003200001002000b2
:103300000202780003017800800178000100780053
:1033100003026200000061008000eb00c000dd00dd
:10332000000020000001be006120b8000001710013
:1033300081817100431add00cd12de00850272002a
:103340004312dd0030402000010020000000720028
:10335000818072001e0190000089be001e00900056
:10336000300090009e007800b100900091407800fd
:103370000174a100014878001e0090003000900008
:103380000000e80041c9b300014878001e00900029
:10339000300090000080e80081c0b3000148780050
:1033a0001e009000300090006300400080c0eb00e1
:1033b000014878001e00900041c0b30041409800d1
:1033c0000060fe001e0078008040eb00014898007d
:1033d0001e009000c4080700000000000080fa00f2
:1033e000000006000400fa00000f780011079800a2
:1033f00060b82000104078000081fb008001eb00e5
:10340000f003200001002000020278000301780090
:103410008001780001007800030262000000610072
:103420008000eb00c000dd00000020000001be00b5
:103430006120b8000001710081817100431add0034
:10344000cd12de00850272004312dd003040200004
:103450000100200000007200818072001e019000b7
:103460000089be000060fe001e0090003000900049
:103470009e007800b1009000914078000174a10096
:10348000014878001e009000300090000000e80025
:1034900041c9b300014878001e0090003000900040
:1034a0000080e80081c0b300014878001e00900051
:1034b000300090006300400011c0b3000148780064
:1034c0001e00900041c0b300414098000060fe0023
:1034d0001e0078008040eb00014898001e0090001c
:1034e000810807000080fa00000006000400fa00ce
:1034f000000f78001107980060b820001040780095
:103500000081fb008001eb00f0032000010020009f
:103510000202780003017800800178000100780041
:1035200003026200000061008000eb00c000dd00cb
:10353000000020000001be006120b8000001710001
:1035400081817100431add00cd12de008502720018
:103550004312dd0030402000010020000000720016
:10356000818072001e0190000089be001e00900044
:10357000300090009e007800b100900091407800eb
:103580000174a100014878000060fe001e00780070
:10359000300090000000e800104078000080fb0040
:1035a000ee0f50001c003200f00f50004f003a00a8
:1035b0000060fe001e009000300090000000e80057
:1035c00001c9b300014878001e009000300090004f
:1035d0000080e8009e007800b1009000e580400087
:1035e00091407800014878001e0090003000900063
:1035f000630040009e007800b1009000e68040002b
:1036000091407800014878001e00900041c0b3004e
:1036100041409800490037001e00900030009000a3
:103620000000e800e1c8b300014878000060fe0037
:103630001e007800300090006400400010407800c8
:103640000080fb00e70f500003003200e80f50003d
:1036500010003200100037000060fe001e009000d5
:10366000300090000080e80081c0b300014878007d
:103670001e00900030009000630040008040eb008e
:10368000014878001e00900041c0b30041409800fe
:1036900015003700140037000060fe001e00900087
:1036a000300090000000e80041c9b30001487800f4
:1036b0001e009000300090000080e80081c0b30040
:1036c000014878001e009000300090006300400028
:1036d00011c0b300014878001e00900041c0b30043
:1036e0004140980000000000140037000060fe0018
:1036f0001e009000300090000000e80041c9b300b7
:10370000014878001e009000300090000080e80022
:1037100081c0b300014878001e0090003000900086
:103720006300400011c0b300014878001e00900003
:1037300041c0b30041409800000000001e00780026
:103740008040eb00014898000060fe001e009000e1
:10375000e50707000080fa00000006000400fa00f8
:10376000000f78001107980060b820001040780022
:103770000081fb008001eb00f0032000010020002d
:1037800002027800030178008001780001007800cf
:1037900003026200000061008000eb00c000dd0059
:1037a000000020000001be006120b800000171008f
:1037b00081817100431add00cd12de0085027200a6
:1037c0004312dd00304020000100200000007200a4
:1037d000818072001e0190000089be001e009000d2
:1037e000300090009e007800b10090009140780079
:1037f0000174a100014878000060fe001e007800fe
:10380000300090000000e800104078000080fb00cd
:10381000ee0f50003b003200f00f50007c003a00e9
:103820000060fe001e009000300090000000e800e4
:1038300001c9b300014878001e00780030009000f4
:1038400064004000104078000080fb00e10f500051
:1038500083003a001e0078003000900065004000b0
:1038600010407800e44f500011003e000060fe0060
:103870001e00780030009000650040009040780005
:1038800060af2000014878001e00900030009000da
:103890000080e80061af2000914078000148780086
:1038a0001e00900031c0b300414098001300370063
:1038b0000060fe001e009000300090000000e80054
:1038c00041c9b300014878001e009000300090000c
:1038d0000080e80091c0b300014878001e0090000d
:1038e000300090006300400080c0eb000148780089
:1038f0001e00900041c0b30041409800000000004d
:10390000580037000060fe001e009000300090005c
:103910000000e800e1c8b300014878001e0078000c
:103920003000900064004000104078000080fb00f0
:10393000e70f500003003200e80f50001000320083
:103940001e0037000060fe001e0090003000900056
:103950000080e80081c0b300014878001e0090009c
:1039600030009000630040008040eb000148780088
:103970001e00900041c0b300414098002300370072
:103980000060fe001e009000300090000080e80003
:1039900081c0b300014878001e0090003000900004
:1039a000630040008040eb00014878001e0090005a
:1039b00041c0b30041409800140037000060fe0091
:1039c0001e009000300090000000e80041c9b300e4
:1039d000014878001e009000300090000080e80050
:1039e00081c0b300014878001e00900030009000b4
:1039f0006300400011c0b300014878001e00900031
:103a000041c0b3004140980000000000150037009d
:103a10000060fe001e009000300090000000e800f2
:103a200041c9b300014878001e00900030009000aa
:103a30000080e80081c0b300014878001e009000bb
:103a4000300090006300400011c0b30001487800ce
:103a50001e00900041c0b3004140980001003700b3
:103a6000000000000060fe001e0078008040eb00b7
:103a7000014898001e0090001b0707000080fa0014
:103a8000000006000400fa00000f780011079800fb
:103a900060b82000104078000081fb008001eb003e
:103aa000f0032000010020000202780003017800ea
:103ab00080017800010078000302620000006100cc
:103ac0008000eb00c000dd00000020000001be000f
:103ad0006120b8000001710081817100431add008e
:103ae000cd12de00850272004312dd00304020005e
:103af0000100200000007200818072001e01900011
:103b00000089be000060fe001e00900030009000a2
:103b10009e007800b1009000914078000174a100ef
:103b2000014878001e009000300090000000e8007e
:103b300041c9b300014878001e0090003000900099
:103b40000080e80081c0b300014878001e009000aa
:103b5000300090006300400011c0b30001487800bd
:103b60001e00900041c0b300414098000060fe007c
:103b70001e0078008040eb00014898001e00900075
:103b8000d90607000080fa00000006000600fa00cf
:103b9000100798002107980060b8200010407800b6
:103ba0000081fb008001eb00f003200001002000f9
:103bb000020278000301780080017800010078009b
:103bc00003026200000061008000eb00c000dd0025
:103bd000000020000001be006120b800000171005b
:103be00081817100431add00cd12de008502720072
:103bf0004312dd0030402000010020000000720070
:103c0000818072002e0190000089be002e0090007d
:103c1000300090009e009000b1009000914078002c
:103c20000174a100014878000060fe001e009000b1
:103c3000300090000000e80010407800ee4f500087
:103c4000f6003a002e009000300090000000e800de
:103c5000e1c8b300014878001e00900030009000d9
:103c600064004000104f78001e0090008040eb0080
:103c7000014898000060fe001e80fb00e40f500029
:103c80004c003200e40f500007003c00e20f5000ef
:103c900020003200e20f500032003c00e10f5000e3
:103ca00008003200c6003700e60f500069003200fd
:103cb000e60f500052003500e70f50008f00320031
:103cc000bf0037000060fe002e0090003000900022
:103cd0000080e800515c8000814078000148780055
:103ce0002e0090003000900063004000515c800086
:103cf000c808de0081407800014878002e0090005e
:103d000041c0b300414098002e00900076060700a5
:103d1000d80037000060fe002e00900030009000b8
:103d20000080e800615c80008140780001487800f4
:103d30002e0090003000900063004000615c800025
:103d4000c808de0081407800014878002e0090000d
:103d500041c0b300414098002e0090006206070069
:103d6000c40037000060fe002e009000300090007c
:103d70000080e800715c8000814078000148780094
:103d80002e0090003000900063004000715c8000c5
:103d9000c808de0081407800014878002e009000bd
:103da00041c0b300414098002e0090004e0607002d
:103db000b00037000060fe002e0090003000900040
:103dc0000080e80001b920009140780001487800a7
:103dd0002e009000300090006300400011b92000d8
:103de00091407800014878002e00900041c0b30057
:103df000414098002e0090003b0607009d003700d0
:103e00000060fe002e009000300090000080e8006e
:103e1000915c800081407800014878002e0090007d
:103e20003000900063004000915c8000c808de0014
:103e300081407800014878002e00900041c0b30016
:103e4000414098000060fe002e009000260607000a
:103e5000880037000060fe002e00900030009000c7
:103e60000081e800a05c8000b15c80000040780028
:103e7000004978002e00900030009000630140005f
:103e8000a05c8000b15c8000c809dd004800de0055
:103e900000807100c808de0000407800004978000a
:103ea0002e0090003000900064014000a05c800073
:103eb000b15c80004008de000040780000497800d6
:103ec0002e0090003000900065014000a05c800052
:103ed000b15c80004808de000040780000497800ae
:103ee0002e00900061c0b300414098000060fe00c9
:103ef0002e009000fc0507005e0037000060fe0009
:103f00002e009000300090000080e800c15c80002e
:103f100081407800014878002e0090003000900029
:103f200063004000d15c8000914078000148780037
:103f30002e0090003000900064004000d15c8000b2
:103f40008100e80091407800014878002e00900040
:103f50003000900065004000d15c80008180e80066
:103f600091407800014878002e00900030009000c9
:103f700066004000d15c8000e38040009140780002
:103f8000014878002e00900030009000670040004b
:103f9000d15c8000e48040009140780001487800c6
:103fa0002e00900081c0b300414098000060fe00e8
:103fb0002e009000cc050700000000002d00370007
:103fc0000060fe002e009000300090000000e8002d
:103fd00041c9b300014878002e00900030009000e5
:103fe0000080e800e1c0b300014878002e00900096
:103ff000300090006300400080c0eb000148780072
:104000002e00900041c0b300414098000060fe00c7
:104010002e009000b4050700160037000060fe0077
:104020002e009000300090000000e80041c9b3006d
:10403000014878002e009000300090000080e800d9
:1040400081c0b300014878002e009000300090003d
:104050006300400080c0eb00014878002e00900013
:1040600041c0b300414098000060fe002e00900067
:104070009d0507000080fa00000006000400fa0019
:10408000000f7800110798000060fe0060b8200063
:10409000104078000081fb008001eb00f00320005d
:1040a00001002000020278000301780080017800fe
:1040b0000100780003026200000061008000eb0054
:1040c000c000dd00000020000001be006120b8003b
:1040d0000001710081817100431add00cd12de0004
:1040e000850272004312dd003040200001002000f4
:1040f00000007200818072001e0190000089be00e5
:104100001e009000300090009e007800b1009000ea
:10411000914078000174a100014878001e009000d1
:10412000300090000000e80041c9b3000148780069
:104130001e009000300090000080e80081c0b300b5
:10414000014878001e00900030009000630040009d
:1041500011c0b300014878001e00900041c0b300b8
:10416000414098000060fe001e0078008040eb0097
:10417000014898001e0090005b0507000080fa00cf
:10418000000006000000fa000060fe0060b520009c
:1041900031c0b3000148780070b520008040eb00ca
:1041a0000148780080b5200031c8b300014878008c
:1041b000f00f2000d05a8800f00f2000e05a88004d
:1041c000e0b5200021c2b30001487800f00f2000c4
:1041d000005b88000060fe00f00f2000105b88008c
:1041e000409c2000205b880060b6200011c0b30016
:1041f000014878000000eb00405b8800f00f2000d1
:10420000b05b88000000eb00205c88000060fe00ce
:104210000080fa00000006000000fa000060fe00c6
:1042200060af200031c0b3000148780070af2000bb
:1042300011c0b3000148780080af200021c8b3004e
:1042400001487800f00f2000d0578800f00f2000c0
:10425000e0578800e0af200011c0b30001487800ab
:10426000f00f200000588800f00f20001058880040
:104270000000eb002058880060b020008040eb0078
:1042800001487800f00f200040588800f00f20000f
:10429000b05888000000eb00205988000060fe0044
:1042a0000080fa00000006000000fa000060fe0036
:1042b00060b2200031c0b3000148780070b2200025
:1042c00001c1b3000148780080b2200021c8b300ca
:1042d00001487800f00f200050598800f00f2000ae
:1042e00060598800e0b2200011c0b3000148780096
:1042f000f00f200080598800f00f200090598800ae
:104300000000eb00a059880060b320008040eb0063
:1043100001487800f00f2000c0598800f00f2000fd
:10432000305a88000000eb00a05a88000060fe00b0
:104330000080fa00000006000600fa00100798004e
:10434000210798001e0090001000be004d09dd00fe
:104350004300de0000007100c388de0000407800ea
:10436000f1c3b300014f60001e0090001000be00ba
:104370000040780067406000104798000060fe0031
:1043800060b82000104078009e4f50002b003a008b
:104390000060fe001e4090000080fb00e50f500012
:1043a00018003200e50f500003003c00e40f5000fd
:1043b000190032001d003700e60f50000c003200db
:1043c000e70f500019003a000060fe0060b82000be
:1043d000104078009e4f500017003a000060fe0029
:1043e00001c8b3001e00900016000700130037003c
:1043f0000060fe00ae0090001e009000d801070093
:104400000e0037000060fe00ae0090001e0090001d
:1044100053040700090037000060fe00ae00900062
:104420001e009000e6030700040037000060fe0055
:104430000000000001003700000000000080fa00ca
:10444000000006000400fa00000f780021479800e1
:104450000060fe0060b82000104078000081fb0082
:104460008001eb00f0032000010020000202780030
:1044700003017800800178000100780003026200e7
:10448000000061008000eb00c000dd0000002000a3
:104490000001be006120b80000017100818171003f
:1044a000431add00cd12de00850272004312dd00ea
:1044b0007040200001002000000072008180720026
:1044c0001e0178000089be001e00780030009000b8
:1044d000ae409000014878001e0078003000900047
:1044e0000000e800515c80008140780001487800bd
:1044f0001e007800300090000080e800515c8000d1
:10450000c808de0081407800014878001e0078006d
:104510003000900063014000a05c8000b15c80002e
:1045200000407800004978001e00780030009000bc
:1045300064014000a05c8000b15c8000c809dd001f
:104540004800de0000807100c808de0000407800ee
:10455000004978001e00780030009000650140009e
:10456000a05c8000b15c80004008de000040780064
:10457000004978001e00780030009000660140007d
:10458000a05c8000b15c80004808de00004078003c
:10459000004978001e00780071c0b30041409800c7
:1045a0000060fe001e0078004f0407000080fa0043
:1045b000000006000800fa00200798003107980064
:1045c0000000eb00000f78000060fe002e0090005d
:1045d0008040eb00014898008040eb003e009000d6
:1045e00098ff070051040700240037000060fe0018
:1045f0002e009000004890000004e0001f003200f0
:104600000060fe002e0090001000be004d09dd008d
:104610004300de0000007100c388de000040780027
:10462000f043b200204798002e0090001000be001a
:104630000040780067406000304798000060fe004e
:104640003e409000e74f50000b003a0060b8200059
:10465000904078002e40900080cf500007003a0034
:104660000060fe002e0090008040eb0001489800a2
:1046700000c0eb000d003700000000003704070009
:104680000004e000d9ff3a001e0fe8001e00780089
:10469000e10f5000ccff34000060fe002e009000bf
:1046a0008040eb00014898000040eb000080fa00d9
:1046b000000006000600fa00100798002107980085
:1046c0000040eb00004f78000040eb0010479800de
:1046d0000060fe00905c8000610060000040780097
:1046e0000004e0000e0032001e0090003000900038
:1046f000650040009040780090b82000104078009d
:1047000080cf5000060032000060fe00c0c0b30041
:10471000004f780010c0b300104798002c003700fd
:104720001e009000300090000080e80010407800eb
:10473000e34f500006003a001e0090003000900049
:104740006300400010407800e14f50000600320046
:104750000060fe0090c0b300004f780000c0eb0086
:10476000104798001a0037001e009000300090009b
:1047700064004000104078000004e00006003a00a9
:104780000060fe0090c0b300004f780020c0b3006e
:10479000104798000e0037001e0090003000900077
:1047a00064004000104078008080fb0080fe2f00f5
:1047b000008060000000e000050032000060fe00a4
:1047c00020c0b300004f780020c0b300104798000d
:1047d0001e4078000004e0003e0032000060fe0051
:1047e00060b82000104078000081fb008001eb00e1
:1047f000f00320000100200002027800030178008d
:10480000800178000100780003026200000061006e
:104810008000eb00c000dd00000020000001be00b1
:104820006120b8000001710081817100431add0030
:10483000cd12de00850272004312dd003040200000
:104840000100200000007200818072002e019000a3
:104850000089be002e009000300090009e00900065
:10486000b1009000914078000174a10001487800e7
:104870002e009000300090000000e80041c9b30015
:10488000014878002e009000300090000080e80081
:104890001e4878002e009000300090006300400019
:1048a0009e409000014878002e00900041c0b30067
:1048b000414098000060fe001e0090008040eb0028
:1048c000014898002e009000870307000040eb008d
:1048d0000100370000c0eb000080fa000000060075
:1048e0000800fa0020079800310798000040eb000c
:1048f000004f78000040eb00104798002e00900019
:1049000030009000640040009040780021479800fb
:104910000060fe002e4090000004e00035003a00e8
:104920000060fe0060b82000104078000081fb00ad
:104930008001eb00f003200001002000020278005b
:104940000301780080017800010078000302620012
:10495000000061008000eb00c000dd0000002000ce
:104960000001be006120b80000017100818171006a
:10497000431add00cd12de00850272004312dd0015
:104980003040200001002000000072008180720091
:104990003e0190000089be003e0090003000900073
:1049a000ae009000b1009000914078000174a10029
:1049b000014878003e009000300090000000e800c0
:1049c000c1ccb300014878003e00900021c0b30084
:1049d000414098000060fe002e0090008040eb00f7
:1049e000014898003e0090003f0307000040eb00a4
:1049f000590037002e4090008080fb0080fe2f0081
:104a0000008060000000e000060032000060fe0050
:104a100020c0b300004f780020c0b30010479800ba
:104a20000b00370080b82000904078002e409000a6
:104a300000c060000004e00005003a000060fe00d5
:104a4000b0c0b300004f780020c0b30010479800fa
:104a50001e4078000004e0003e0032000060fe00ce
:104a600060b82000104078000081fb008001eb005e
:104a7000f00320000100200002027800030178000a
:104a800080017800010078000302620000006100ec
:104a90008000eb00c000dd00000020000001be002f
:104aa0006120b8000001710081817100431add00ae
:104ab000cd12de00850272004312dd00304020007e
:104ac0000100200000007200818072003e01900011
:104ad0000089be003e00900030009000ae009000c3
:104ae000b1009000914078000174a1000148780065
:104af0003e009000300090000000e80041c9b30083
:104b0000014878003e009000300090000080e800ee
:104b10001e4878003e009000300090006300400086
:104b20009e409000014878003e00900041c0b300d4
:104b3000414098002e0090008040eb000148980012
:104b40000060fe003e009000e70207000040eb001e
:104b50000100370000c0eb000080fa0000000600f2
:104b60000600fa0010079800210798001e00900028
:104b7000300090000000e80090407800b0c4b3001e
:104b800080cf500059013a000060fe00ae00900056
:104b90001e009000c7fe07000004e00002003a007b
:104ba0000060fe00040237001e00900030009000fc
:104bb000650040009040780090b8200001487800df
:104bc0001e0090003000900064004000104f7800fc
:104bd00080b82000104078009e40700080b820000f
:104be000014878000060fe001e80fb00620060004b
:104bf0000000e0005b0032000060fe0086fd070060
:104c000060b82000104078008080fb00003c20004d
:104c100001007000d057880060b820001040780074
:104c20000081fb008001eb00f00320000100200068
:104c3000020278000301780080017800010078000a
:104c400003026200000061008000eb00c000dd0094
:104c5000000020000001be006120b80000017100ca
:104c6000818171004318dd00cd10de0081007000ed
:104c70004310dd00800078005040200001007000eb
:104c8000e057880060b82000104078000081fb00e9
:104c90008001eb00f00320000100200002027800f8
:104ca00003017800800178000100780003026200af
:104cb000000061008000eb00c000dd00000020006b
:104cc0000001be006120b800000171008181710007
:104cd000431add00cd12de00850272004312dd00b2
:104ce000304020000100200000007200818072002e
:104cf0002e0190000089be002e0090003000900030
:104d00009e009000b1009000914078000174a100d5
:104d1000014878002e009000300090000000e8006c
:104d2000b1ccb300014878002e0090003000900014
:104d30000080e8008040eb00014878002e009000e1
:104d400031c0b300414098001e0090008040eb004d
:104d5000014898000060fe002e00900062020700eb
:104d6000950137001e80fb00610060000040780064
:104d70000004e000700032000060fe0001fd07004a
:104d800060b82000104078000081fb008001eb003b
:104d9000f0032000010020000202780003017800e7
:104da00080017800010078000302620000006100c9
:104db0008000eb00c000dd00000020000001be000c
:104dc0006120b80000017100818171004318dd008d
:104dd000cd10de00810070004310dd0080007800ff
:104de0003040200001007000d05a880060b82000d8
:104df000104078000081fb008001eb00f0032000f0
:104e00000100200002027800030178008001780090
:104e10000100780003026200000061008000eb00e6
:104e2000c000dd00000020000001be006120b800cd
:104e300000017100818171004318dd00cd10de009a
:104e4000810070004310dd008000780040402000a9
:104e500001007000e05a88000060fe0060b8200089
:104e6000104078000081fb008001eb00f00320007f
:104e70000100200002027800030178008001780020
:104e80000100780003026200000061008000eb0076
:104e9000c000dd00000020000001be006120b8005d
:104ea0000001710081817100431add00cd12de0026
:104eb000850272004312dd00304020000100200016
:104ec00000007200818072002e0190000089be00f7
:104ed0002e009000300090009e009000b1009000e5
:104ee000914078000174a100014878002e009000e4
:104ef000300090000000e800b1ccb3000148780019
:104f00002e009000300090000080e8008040eb0010
:104f1000014878002e00900031c0b3004140980055
:104f20001e0090008040eb00014898000060fe00e9
:104f30002e009000ec0107001e80fb007000600056
:104f40000000e0005e0032000060fe00d6fc0700ba
:104f500060b82000104078008080fb00f003200043
:104f600080806000003420000100700050598800eb
:104f700060b82000104078000081fb008001eb0049
:104f8000f0032000010020000202780003017800f5
:104f900080017800010078000302620000006100d7
:104fa0008000eb00c000dd00000020000001be001a
:104fb0006120b80000017100818171004318dd009b
:104fc000cd10de00810070004310dd00800078000d
:104fd0005040200001007000605988000060fe0011
:104fe00060b82000104078000081fb008001eb00d9
:104ff000f003200001002000020278000301780085
:105000008001780001007800030262000000610066
:105010008000eb00c000dd00000020000001be00a9
:105020006120b8000001710081817100431add0028
:10503000cd12de00850272004312dd0030402000f8
:105040000100200000007200818072002e0190009b
:105050000089be002e009000300090009e0090005d
:10506000b1009000914078000174a10001487800df
:105070002e009000300090000000e800b1ccb3009a
:10508000014878002e009000300090000080e80079
:105090008040eb00014878002e00900031c0b30042
:1050a000414098001e0090008040eb0001489800ad
:1050b0000060fe002e0090008b010700be0037004c
:1050c0001e80fb00640060000000e000030032006e
:1050d0000060fe000060fe00b7003700905c8000ba
:1050e0000000a000905c8800b30037001e00900014
:1050f000300090000000e80090407800c0c4b30089
:1051000080cf50006e003a00ae0090001e0090006c
:10511000f3fd07000004e00002003a000060fe001a
:10512000a50037001e009000300090006400400091
:10513000904078001147980080b820009040780097
:105140001e40900000c0ea0080c0700080b82000bf
:10515000014878001e4090000080fb006200600063
:105160000000e000080032000060fe000000eb00dc
:10517000d05788000000eb00e057880060af2000a7
:105180008040eb00014878001e4090000080fb004a
:10519000700060000000e000080032000060fe00c7
:1051a0000000eb00505988000000eb0060598800b7
:1051b00060b220008040eb00014878001e40900063
:1051c0000080fb0061006000004078000004e00007
:1051d000080032000060fe000000eb00d05a88009a
:1051e0000000eb00e05a880060b520008040eb0032
:1051f0000148780060b82000104078000081fb0072
:105200008001eb00f0032000010020000202780082
:105210000301780080017800010078000302620039
:10522000000061008000eb00c000dd0000002000f5
:105230000001be006120b800000171008181710091
:10524000431add00cd12de00850272004312dd003c
:1052500030402000010020000000720081807200b8
:105260002e0190000089be002e00900030009000ba
:105270009e009000b1009000914078000174a10060
:10528000014878002e009000300090000000e800f7
:10529000c1ccb300014878002e00900021c0b300bb
:1052a000414098001e0090008040eb0001489800ab
:1052b0000060fe002e0090000b0107003e0037004a
:1052c0000060fe0060b82000104078000081fb0004
:1052d0008001eb00f00320000100200002027800b2
:1052e0000301780080017800010078000302620069
:1052f000000061008000eb00c000dd000000200025
:105300000001be006120b8000001710081817100c0
:10531000431add00cd12de00850272004312dd006b
:1053200030402000010020000000720081807200e7
:105330002e0190000089be002e00900030009000e9
:105340009e009000b1009000914078000174a1008f
:10535000014878002e009000300090000000e80026
:1053600041c9b300014878002e0090003000900041
:105370000080e80081c0b300014878002e00900052
:10538000300090006300400021c0b3000148780065
:105390002e00900041c0b300414098001e009000d4
:1053a0008040eb00014898000060fe002e00900055
:1053b000cd000700000000000080fa000000060099
:1053c0000600fa0010079800210798001e009000c0
:1053d000300090000080e800104f78001e00900020
:1053e0003000900063004000904078001147980022
:1053f0000060fe0080b82000104078000080fb00b4
:10540000610060000000e0004c0032001e80fb00e4
:10541000e20f50001b003200e20f500003003c007e
:10542000e10f5000060032004b003700e30f500040
:1054300019003200e50f5000280032004600370006
:105440000060fe001e4090000004e00005003a00ed
:105450000060fe00ae0090001e00900089f9070079
:105460003d0037001e409000e14f500035003a00eb
:105470000060fe00ae0090001e009000c3f907001f
:10548000350037000060fe00ae0090001e00900066
:10549000fafa0700300037000060fe001e4090005e
:1054a0000004e00005003a00ae0090001e009000ed
:1054b00026f507000060fe00270037001e40900020
:1054c000e14f500021003a000060fe00ae00900065
:1054d0001e009000ebf507001f0037001e409000f3
:1054e0000004e00005003a000060fe00ae009000fd
:1054f0001e009000bbf70700170037001e40900009
:10550000e14f500005003a000060fe00ae00900040
:105510001e009000f5f707000f0037001e409000b6
:10552000e24f50000b003a000060fe00ae00900019
:105530001e00900089f807000700370000000000f7
:1055400005003700000000000300370000000000e5
:1055500001003700000000000080fa000000060093
:105560000400fa00000f78001107980060af2000d7
:1055700010407800e34f5000020032000060fe004f
:10558000080037009e0090001e00780007130700f7
:105590000060fe001e0078008040eb00014898008b
:1055a000000000000080fa00000006000000fa0081
:1055b0000060fe000080fa00000006000800fa000b
:1055c0001007980021079800624798000040eb0000
:1055d000004f78001e0090009000780000602000ce
:1055e0008080600000402000808f50000300320067
:1055f0000060fe000040eb003900370080bb200057
:10560000104078000004e000030032000060fe005b
:105610000040eb00320037006e409000e84f500031
:105620002e003e000060fe001e009000100078007a
:105630008000eb00805d8800915d880040bb200009
:10564000ee409000014878000040eb00004f7800e9
:105650000a0037000060fe00b15d80001e80fb0084
:10566000008040009e80fb002e01900081004100e0
:1056700091407800014878001e4fe8006e4090008d
:105680009e40780080cf5000f2ff39000060fe009d
:1056900080bb200080c0eb000148780044c8bf00f8
:1056a0008080fb00200a2000808f500005003a0017
:1056b0000060fe00a1bb200000bb20001efb070015
:1056c000000000000060fe0080bb20008040eb0076
:1056d0000148780000c0eb00010037000040eb00fb
:1056e0000080fa00000006000200fa00000f7800b7
:1056f0000060fe001e007800404190001e0078000f
:10570000b00190001e0078001000be00000078007c
:1057100083007800f41a07001e0078008040eb0038
:10572000014898000080fa00000006000000fa001e
:105730005042800061428000806988009169880041
:10574000803e200001002000a0698800b169880027
