:020000040000fa
:080000000001040000000000f3
:020000040000fa
:040008006a0e00007c
:020000040000fa
:04000c0000020000ee
:020000040000fa
:0400100006020000e4
:020000040000fa
:040014000c020000da
:020000040000fa
:0400180012020000d0
:020000040000fa
:04001c006a0e000068
:020000040000fa
:040020006a0e000064
:020000040000fa
:040024006a0e000060
:020000040000fa
:040028006a0e00005c
:020000040000fa
:04002c006a0e000058
:020000040000fa
:040030006a0e000054
:020000040000fa
:040034006a0e000050
:020000040000fa
:040038006a0e00004c
:020000040000fa
:04003c006a0e000048
:020000040000fa
:04004000207b000021
:020000040000fa
:040044003002000086
:020000040000fa
:040048006a0e00003c
:020000040000fa
:04004c00707a0000c6
:020000040000fa
:04005000967a00009c
:020000040000fa
:040054006a0e000030
:020000040000fa
:040058006a0e00002c
:020000040000fa
:04005c006a0e000028
:020000040000fa
:040060006a0e000024
:020000040000fa
:040064006a0e000020
:020000040000fa
:040068006a0e00001c
:020000040000fa
:04006c006a0e000018
:020000040000fa
:040070006a0e000014
:020000040000fa
:040074006a0e000010
:020000040000fa
:040078006a0e00000c
:020000040000fa
:04007c006a0e000008
:020000040000fa
:040080006a0e000004
:020000040000fa
:0400840036590000e9
:020000040000fa
:040088006a0e0000fc
:020000040000fa
:04008c006a0e0000f8
:020000040000fa
:040090006a0e0000f4
:020000040000fa
:040094006a0e0000f0
:020000040000fa
:040098006a0e0000ec
:020000040000fa
:04009c006a0e0000e8
:020000040000fa
:0400a0006a0e0000e4
:020000040000fa
:0400a4006a0e0000e0
:020000040000fa
:0400a8006a0e0000dc
:020000040000fa
:0400ac006a0e0000d8
:020000040000fa
:0400b0006a0e0000d4
:020000040000fa
:0400b4006a0e0000d0
:020000040000fa
:0400b8006a0e0000cc
:020000040000fa
:0400bc006a0e0000c8
:020000040000fa
:0400c0008a6600004c
:020000040000fa
:0400c4006a0e0000c0
:020000040000fa
:0400c8006a0e0000bc
:020000040000fa
:0400cc006a0e0000b8
:020000040000fa
:0400d0006a0e0000b4
:020000040000fa
:0400d4006a0e0000b0
:020000040000fa
:0400d8006a0e0000ac
:020000040000fa
:040108006a0e00007b
:020000040000fa
:04010c0018020000d5
:020000040000fa
:040110001e020000cb
:020000040000fa
:0401140024020000c1
:020000040000fa
:040118002a020000b7
:020000040000fa
:04011c006a0e000067
:020000040000fa
:040120006a0e000063
:020000040000fa
:040124006a0e00005f
:020000040000fa
:040128006a0e00005b
:020000040000fa
:04012c006a0e000057
:020000040000fa
:040130006a0e000053
:020000040000fa
:040134006a0e00004f
:020000040000fa
:040138006a0e00004b
:020000040000fa
:04013c006a0e000047
:020000040000fa
:040140006a0e000043
:020000040000fa
:040144006a0e00003f
:020000040000fa
:040148006a0e00003b
:020000040000fa
:04014c006a0e000037
:020000040000fa
:040150006a0e000033
:020000040000fa
:040154006a0e00002f
:020000040000fa
:040158006a0e00002b
:020000040000fa
:04015c006a0e000027
:020000040000fa
:040160006a0e000023
:020000040000fa
:040164006a0e00001f
:020000040000fa
:040168006a0e00001b
:020000040000fa
:04016c006a0e000017
:020000040000fa
:040170006a0e000013
:020000040000fa
:040174006a0e00000f
:020000040000fa
:040178006a0e00000b
:020000040000fa
:04017c006a0e000007
:020000040000fa
:040180006a0e000003
:020000040000fa
:040184006a0e0000ff
:020000040000fa
:040188006a0e0000fb
:020000040000fa
:04018c006a0e0000f7
:020000040000fa
:040190006a0e0000f3
:020000040000fa
:040194006a0e0000ef
:020000040000fa
:040198006a0e0000eb
:020000040000fa
:04019c006a0e0000e7
:020000040000fa
:0401a0006a0e0000e3
:020000040000fa
:0401a4006a0e0000df
:020000040000fa
:0401a8006a0e0000db
:020000040000fa
:0401ac006a0e0000d7
:020000040000fa
:0401b0006a0e0000d3
:020000040000fa
:0401b4006a0e0000cf
:020000040000fa
:0401b8006a0e0000cb
:020000040000fa
:0401bc006a0e0000c7
:020000040000fa
:0401c0006a0e0000c3
:020000040000fa
:0401c4006a0e0000bf
:020000040000fa
:0401c8006a0e0000bb
:020000040000fa
:0401cc006a0e0000b7
:020000040000fa
:0401d0006a0e0000b3
:020000040000fa
:0401d4006a0e0000af
:020000040000fa
:0401d8006a0e0000ab
:020000040000fa
:100200004fd620000e7f22000e0188000000000063
:10021000000020000000e000020032000001200089
:100220002002880014000700ac0607000000e00070
:1002300003003a0080b327000100200002003700cd
:100240000000200001002000810f7000010032003a
:1002500014000700000020000000e000020032004f
:100260000000020000000000527c020000000000bc
:100270000040da000000fe004440a9008020200079
:100280000000e0000300320000002000a001880010
:100290004440a800000006008a1f78008b1f7800e9
:1002a0000000060091018800800478000000eb0047
:1002b0001a003700e284440032a0b4009905ba0065
:1002c000e284440032a0b4009906ba00e2844400fb
:1002d00032a0b4000006eb00476fde00fd07b2005d
:1002e000636ce10003003a00ebff07000000eb0045
:1002f0000a003700606ce10004003a00005deb008a
:100300008b05e900fdff3e00040037006168e10055
:10031000010032000086eb000b00070019c7ba008d
:100320001905ba000e04e00003003a000a00e000dc
:10033000e0ff3a0000000600fe07b2009e018800c0
:100340008a047800f5ff3700395dba008b05e900b3
:100350000c003200295dba008b05e900080032006c
:100360000c00e00003003a00e284440032a0b40034
:10037000f5ff370019ddba008b05e900faff3a00f6
:100380008904e800e184440032a0b40000000600c3
:10039000d03d040000000000303e040000000000da
:1003a000243f040000000000683f0400000000003b
:1003b000aa3f040000000000da3f04000000000033
:1003c000d23e0400000000004a0d040000000000be
:1003d000b60a040000000000000c04000000000049
:1003e000240b0400000000006e0c0400000000005c
:1003f000920b040000000000dc0c04000000000070
:100400000000fa008020a900ffff37000000fa007a
:100410008060a900ffff37000000fa008040a900bb
:10042000ffff37000000fa008080a900ffff3700bf
:100430000000fa008020a900ffff37000000fa004a
:100440008060a900ffff37000000fa008040a9008b
:10045000ffff37000000fa008080a900ffff37008f
:100460003600f800809fbe00829fbe00849fbe00c1
:10047000869fbe000000fa0084e0a90000cf2000a3
:10048000104078000080fb007400b9008000780004
:10049000a0c92000008040009040780080c8b300d0
:1004a00080cf50003a003a0000cf20001040780082
:1004b0000080fb007400b900000078008080e80034
:1004c000a0c9200000804000100078000000e0007b
:1004d0002f003a0000cf2000104078000080fb0081
:1004e0007400b90080007800a0c92000008040009e
:1004f00071c7b3000148780000cf20001040780099
:100500000080fb007400b90080007800c0c92000a2
:1005100000804000a1aa2a000108780000cf200036
:10052000104078000081fb00704280008142800012
:100530007411b9008201780062ca20000281410072
:100540000089be0000cf2000104078000080fb0032
:100550007400b90000007800f0004000a0c920003d
:10056000008040001001780000cf2000104078008b
:100570000080fb007400b90080007800a0c9200052
:100580000080400002000100653b07004400370086
:1005900060cf2000104078000080fb007400b9009c
:1005a00080007800a0c920000080400090407800c2
:1005b00080c8b30080cf500039003a0000cf20003f
:1005c000104078000080fb007400b9000000780043
:1005d0008080e800a0c92000008040001000780062
:1005e0000000e0002e003a0060cf200010407800ac
:1005f0000080fb007400b90080007800a0c92000d2
:100600000080400071c7b3000148780060cf20002f
:10061000104078000080fb007400b9008000780072
:10062000c0c9200000804000a1aa2a00010878006b
:1006300060cf2000104078000081fb0070428000f5
:10064000814280007411b9008201780062ca2000e2
:10065000028141000089be0060cf20001040780078
:100660000080fb007400b90000007800f00040003a
:10067000a0c92000008040001001780060cf200059
:10068000104078000080fb007400b9008000780002
:10069000a0c920000080400002000100203b0700ac
:1006a0000080fa004f03be004f02be004f01be00a3
:1006b0004f00be003600f900004006000000fa00be
:1006c00000cf2000104078000080fb007400b900cb
:1006d00080007800a0c920000080400081c8b300dd
:1006e0000148780000cf2000104078000080fb0017
:1006f0007400b90080007800c0c92000008040006c
:100700008000eb000108780000cf20001040780046
:100710000080fb0011cf2000914078000181fb0098
:100720007400b9008000780000ca200000804000fa
:100730000208780000cf2000104078000080fb0005
:10074000926780007400b9008000780040ca2000e1
:1007500000804000020878000060fe00a0ce20006b
:10076000104078000080fb007400b9008000780021
:10077000a0c920000080400071c7b3000148780084
:10078000a0ce2000104078000080fb007400b9006b
:1007900080007800c0c9200000804000a1aa2a0083
:1007a00001087800a0ce2000104078000080fb00f7
:1007b000b1ce2000914078000181fb007400b900a7
:1007c0008000780000ca2000008040000208780005
:1007d000a0ce2000104078000081fb007042800015
:1007e000814280007411b9008201780062ca200041
:1007f000028141000089be00a0ce20001040780098
:100800000080fb007400b90000007800f000400098
:10081000a0c920000080400010017800a0ce200078
:10082000104078000080fb007400b9008000780060
:10083000a0c92000008040000200010000cf20007d
:10084000104078000080fb007400b90000007800c0
:10085000ea004000a0c9200000804000100078009d
:10086000a53a07000060fe000080fa0000000600c4
:100870000400fa00004f7800110798000060fe00a5
:100880001e80fb007400b90080007800a0c9200021
:100890000080400071c7b300014878001e80fb0053
:1008a0007400b90080007800c0c9200000804000ba
:1008b000a1aa2a00010878001e81fb007042800076
:1008c000814280007411b9008201780062ca200060
:1008d000028141000089be001e80fb009e00900046
:1008e000638140007400b9008000780000ca2000d5
:1008f00000804000020878000060fe001e80fb00bf
:100900007400b90000007800f0004000a0c9200089
:1009100000804000100178001e80fb007400b900c8
:1009200080007800a0c92000008040000200010083
:100930001e81fb0070428000814280007411b9006a
:100940008201780062ca2000028141000089be0055
:100950000080fa00000006000400fa00004f780052
:10096000110798000060fe001e80fb007400b900b3
:1009700080007800a0c920000080400071c7b3004b
:10098000014878001e80fb007400b90080007800e8
:10099000c0c920000080400051a52a00010878004d
:1009a0001e81fb0070428000814280007411b900fa
:1009b0008201780062ca2000028141000089be00e5
:1009c0001e80fb009e0090000181e8007400b900c9
:1009d0008000780020ca20000080400002087800d3
:1009e0000060fe001e80fb007400b900000078006b
:1009f000f2004000a0c920000080400010017800f3
:100a00001e80fb007400b90080007800a0c920009f
:100a100000804000020001001e81fb007042800047
:100a2000814280007411b9008201780062ca2000fe
:100a3000028141000089be000080fa00000006002b
:100a40000c00fa000040eb00004f78000040eb0083
:100a5000104798000040eb00204798007242800049
:100a60008342800022079800330798000080eb0043
:100a70008080eb0040079800510798000500370080
:100a800000000000030037000000000001003700f4
:100a9000000000000060fe00e1648000a0aa2a00bf
:100aa000808f50000a003a00a0c9200090407800d2
:100ab00070c7b30080cf500005003a000060fe0010
:100ac00051658000a0c9200001000100130037001b
:100ad000e164800050a52a00808f50000a003a008f
:100ae000a0c920009040780070c7b30080cf5000ac
:100af00005003a000060fe0061658000a0c920008a
:100b00000100010005003700e862a900cb42a800ff
:100b1000cba2a900e282a800e902a90081658000b9
:100b2000a0aa2a00808f50000a003a00e0ca2000e4
:100b30009040780070c7b30080cf500005003a00a5
:100b40000060fe00f1658000e0ca200001000100a5
:100b5000130037008165800050a52a00808f500067
:100b60000a003a00e0ca20009040780070c7b30045
:100b700080cf500005003a000060fe000166800052
:100b8000e0ca20000100010005003700e2c2a90010
:100b9000cb22a800cb82a900cbe2a800caa2a90060
:100ba000e06480000000e000d1003a008065800031
:100bb0000000e000ce003a000060fe00f06480001b
:100bc0000000e00003003a00906580000000e000b3
:100bd0000b00320000322000010020004007980086
:100be000510798000b0407002e4090003332070095
:100bf00072428000834280002207980033079800e9
:100c000072428000834280002e009000be0090005f
:100c100000015100818159004e009000de009000db
:100c2000800f5100818f59000e0039002e40900036
:100c30006a2b07000080eb008080eb0040079800e3
:100c4000510798000080eb008080eb00200798009f
:100c5000310798000040eb00204798000000eb00af
:100c6000406a88000060fe00e862a900cb42a8004c
:100c7000cba2a900e282a800e902a900e2c2a90071
:100c8000cb22a800cb82a900cbe2a800caa2a9006f
:100c9000e2a2a900cb02a800cb62a900cbc2a800a7
:100ca000ca82a9000060fe00e862a900cb42a80049
:100cb000cba2a900e282a800e902a900e2c2a90031
:100cc000cb22a800cb82a900cbe2a800caa2a9002f
:100cd000e2a2a900cb02a800cb62a900cbc2a80067
:100ce000ca82a9000000eb00e06488000000eb006d
:100cf000806588000000eb0020668800a0c9200005
:100d00008040eb0001487800e0ca20008040eb0002
:100d10000148780020cc20008040eb00014878009a
:100d20000060fe00e43007007242800083428000d1
:100d3000f0698000016a8000000151008181590042
:100d40001000200001002000800f5100818f590009
:100d500006003600161f07000060fe00704280008b
:100d600081428000f0698800016a88004e1d0700fa
:100d70000004e00006003200438620009341780022
:100d8000234798006468ef000000000041ff37002f
:100d90007242800083428000d0698000e169800057
:100da0000001510081815900f07c200001002000e9
:100db000800f5100818f590004003e0050d5200063
:100dc00010407800e14f40000e003a000060fe0045
:100dd000cc28070050d52000104078000004e00027
:100de00001003200091e070050d520008040eb00b2
:100df000014878007042800081428000d0698800fc
:100e0000e16988000060fe00724280008342800039
:100e1000106a8000216a8000000151008181590020
:100e2000b0428000c1428000800f5100818f590084
:100e30001c0039009e407800f0ff2d006d34070043
:100e40001ecfea00b2428000c3428000c05d200095
:100e500001002000800f5100818f59000d003a00e1
:100e60001e4090000040e800104798001e4090008f
:100e7000e94f5000070036008000eb000000eb0057
:100e8000342c0700401f200001002000b0428800e1
:100e9000c14288007042800081428000106a880050
:100ea000216a88007242800083428000b06980001d
:100eb000c16980000001510081815900f070220059
:100ec00001002000800f5100818f5900080036007a
:100ed0007042800081428000b0698800c16988004a
:100ee0000060fe00503807004044880051448800ec
:100ef000a0d4200010407800e14f4000e0fe3a000e
:100f0000306a80000000e000dffe32002d33070071
:100f10000004e000defe3a00316a800050552500f2
:100f2000808f500008003a00b0d4200010407800b4
:100f3000e54f500004003a0090c0a8002734070095
:100f40000000eb00306a88000000eb00306a880087
:100f5000a0d420008040eb0001487800b0d42000ed
:100f60001040780061c0b30012280700c9fe3700a6
:100f70000200fa000040eb00004f78000060fe0025
:100f8000e462a900c7a2a900de82a900c742a900a5
:100f9000e862a900cb42a800cba2a900e282a80087
:100fa000e902a9000060fe00dec2a900c782a90014
:100fb000c7e2a900c722a900e2c2a900cb22a8006b
:100fc000cb82a900cbe2a800caa2a9000060fe0063
:100fd000dea2a900c762a900c7c2a900c702a90072
:100fe000e2a2a900cb02a800cb62a900cbc2a80054
:100ff000ca82a9000060fe006468ef0020d52000ce
:101000008040eb000148780030d520008040eb00a4
:101010000148780040d520008040eb00014878006e
:10102000f0d420008040eb000148780000d520007b
:101030008040eb000148780010d520008040eb0094
:101040000148780050d5200080c0eb0001487800ae
:10105000c0d420008040eb0001487800d0d42000ac
:101060008040eb0001487800e0d420008040eb0095
:10107000014878000060fe000040eb00004f78005f
:101080001e80fb006600b90080007800a0ce200022
:10109000008040008040eb00014878001e80fb008b
:1010a0006600b90080007800e0ce2000008040009b
:1010b000a1d42000010878001e80fb006600b90062
:1010c00000007800e4004000a0ce20000080400036
:1010d000100178001e80fb006600b90080007800d7
:1010e000a0ce200000804000020001001e4fe8005a
:1010f0001e80fb006600b90080007800a0ce2000b2
:101100000080400011c0b300014878001e80fb0041
:101110006600b90080007800e0ce2000008040002a
:10112000a1d42000010878001e80fb006600b900f1
:1011300000007800e4004000a0ce200000804000c5
:10114000100178001e80fb006600b9008000780066
:10115000a0ce200000804000020001001e4fe800e9
:101160001e80fb006600b90080007800a0ce200041
:101170000080400021c0b300014878001e80fb00c1
:101180006600b90080007800e0ce200000804000ba
:10119000a1d42000010878001e80fb006600b90081
:1011a00000007800e4004000a0ce20000080400055
:1011b000100178001e80fb006600b90080007800f6
:1011c000a0ce200000804000020001001e4fe80079
:1011d0000060fe001d000700704280008142800018
:1011e000106a8800216a8800704280008142800075
:1011f000b0698800c1698800704280008142800027
:10120000f0698800016a8800704280008142800095
:10121000d0698800e1698800401f2000010020009b
:10122000b0428800c14288000000eb00306a8800ac
:101230000000eb00406a8800a0d420008040eb0052
:10124000014878000080fa00000006000200fa0061
:101250000040eb00004f78001e80fb007400b900d6
:1012600080007800a0c92000008040008040eb0092
:10127000014878001e80fb007400b90080007800ef
:10128000c0c92000008040008000eb000108780009
:101290001e80fb007400b90080007800e0c92000c7
:1012a000008040008000eb00010878001e80fb00f9
:1012b0007400b9008000780000ca2000008040005f
:1012c00021032000010878001e80fb007400b90093
:1012d0008000780020ca200000804000e10120004a
:1012e000010878001e80fb007400b90080007800bf
:1012f00040ca2000008040008000eb000108780018
:101300001e80fb007400b9008000780060ca2000d5
:10131000008140006000b8000089be001e80fb0014
:101320007400b90080007800a0ca2000008040004e
:1013300061ab2000010878001e80fb007400b9003a
:1013400080007800c0ca20000080400001c020005a
:10135000010878001e4fe8000060fe001e80fb00c0
:101360007400b90080007800a0c92000008040000f
:101370008040eb00014878001e80fb007400b9003b
:1013800080007800c0c92000008040008000eb0091
:10139000010878001e80fb007400b900800078000e
:1013a000e0c92000008040008000eb0001087800c8
:1013b0001e80fb007400b9008000780000ca200085
:1013c0000080400021032000010878001e80fb00ff
:1013d0007400b9008000780020ca2000008040001e
:1013e000e1012000010878001e80fb007400b900b4
:1013f0008000780040ca2000008040008000eb00a0
:10140000010878001e80fb007400b900800078009d
:1014100060ca2000008140006000b8000089be0062
:101420001e80fb007400b90080007800a0ca200074
:101430000080400041b22000010878001e80fb00bf
:101440007400b90080007800c0ca2000008040000d
:10145000e1c62000010878001e4fe8000060fe0091
:101460001e80fb007400b90080007800a0c9200035
:10147000008040008040eb00014878001e80fb00a7
:101480007400b90080007800c0c9200000804000ce
:101490008000eb00010878001e80fb007400b9009a
:1014a00080007800e0c92000008040008000eb0050
:1014b000010878001e80fb007400b90080007800ed
:1014c00000ca2000008040002103200001087800ad
:1014d0001e80fb007400b9008000780020ca200044
:1014e00000804000e1012000010878001e80fb0020
:1014f0007400b9008000780040ca200000804000dd
:101500008000eb00010878001e80fb007400b90029
:101510008000780060ca2000008140006000b800b0
:101520000089be001e80fb007400b90080007800b6
:10153000a0ca20000080400021b9200001087800e6
:101540001e80fb007400b90080007800c0ca200033
:1015500000804000c1cd2000010878001e4fe80047
:101560000060fe000080fa00000006000200fa00a1
:10157000000f78001e00780090009000a0aa2a00ba
:10158000808f50000f003a001e00780090407800d5
:1015900070c7b30080cf50000a003a00cba2a90068
:1015a000e282a800e862a800cb42a900e902a800f4
:1015b000cba2a900e282a800e862a800cb42a90061
:1015c000e902a8001e007800300090008000eb00c7
:1015d0001e01780062029000f20290000001be003d
:1015e0000400be00d53707000004e00014003200fc
:1015f000e862a900cb42a800cba2a900e282a80021
:10160000e902a900e862a900cb42a800cba2a90088
:10161000e282a800e902a9001e0078008000eb0029
:10162000110098001e0078008040eb00014878000f
:101630000060fe001e007800a1aa2a002100980088
:101640000080fa00000006000200fa00000f780097
:101650001e00780090009000a0aa2a00808f500001
:101660000f003a001e0078009040780070c7b30069
:1016700080cf50000a003a00cb82a900cbe2a8003c
:10168000e2c2a800cb22a900caa2a800cb82a9006e
:10169000cbe2a800e2c2a800cb22a900caa2a800ff
:1016a0001e007800300090008000eb001e017800e2
:1016b00062029000f20290000001be000400be0031
:1016c0009e3707000004e00014003200e2c2a900c7
:1016d000cb22a800cb82a900cbe2a800caa2a90015
:1016e000e2c2a900cb22a800cb82a900cbe2a800cd
:1016f000caa2a9001e0078008000eb00110098002b
:101700001e0078008040eb00014878000060fe0079
:101710001e007800a1aa2a00210098000080fa008b
:10172000000006000200fa00000f78001e0078009a
:1017300090009000a0aa2a00808f50000f003a006d
:101740001e0078009040780070c7b30080cf500032
:101750000a003a00cb62a900cbc2a800e2a2a8000e
:10176000cb02a900ca82a800cb62a900cbc2a80004
:10177000e2a2a800cb02a900ca82a8001e0078003d
:10178000300090008000eb001e01780062029000a3
:10179000f20290000001be000400be00673707009f
:1017a0000004e00014003200e2a2a900cb02a8006d
:1017b000cb62a900cbc2a800ca82a900e2a2a900fc
:1017c000cb02a800cb62a900cbc2a800ca82a900a4
:1017d0001e0078008000eb00110098001e007800c9
:1017e0008040eb00014878000060fe001e00780099
:1017f000a1aa2a00210098000080fa00000006003b
:101800000200fa00000f78001e007800900090009f
:1018100050a52a00808f50000f003a001e0078006b
:101820009040780070c7b30080cf50000a003a00a3
:10183000e862a900cb42a800cba2a800e282a900de
:10184000e902a800e862a900cb42a800cba2a80048
:10185000e282a900e902a8001e0078004000900082
:101860008000eb001e01780062029000f2029000fe
:101870000001be000400be00303707000004e00095
:1018800014003200e862a900cb42a800cba2a90054
:10189000e282a800e902a900e862a900cb42a80000
:1018a000cba2a900e282a800e902a9001e007800ec
:1018b0008000eb00110098001e0078008040eb00d3
:1018c000014878000060fe001e00780051a52a0043
:1018d000210098000080fa00000006000200fa00d3
:1018e000000f78001e0078009000900050a52a009c
:1018f000808f50000f003a001e0078009040780062
:1019000070c7b30080cf50000a003a00e2c2a900bd
:10191000cb22a800cb82a800cbe2a900caa2a800d3
:10192000e2c2a900cb22a800cb82a800cbe2a9008a
:10193000caa2a8001e007800400090008000eb00c2
:101940001e01780062029000f20290000001be00c9
:101950000400be00f93607000004e0001400320065
:10196000e2c2a900cb22a800cb82a900cbe2a8004a
:10197000caa2a900e2c2a900cb22a800cb82a9007a
:10198000cbe2a800caa2a9001e0078008000eb00ec
:10199000110098001e0078008040eb00014878009c
:1019a0000060fe001e00780051a52a00210098006a
:1019b0000080fa00000006000200fa00000f780024
:1019c0001e0078009000900050a52a00808f5000e3
:1019d0000f003a001e0078009040780070c7b300f6
:1019e00080cf50000a003a00e2a2a900cb02a80072
:1019f000cb62a800cbc2a900ca82a800e2a2a900bb
:101a0000cb02a800cb62a800cbc2a900ca82a80062
:101a10001e007800400090008000eb001e0178005e
:101a200062029000f20290000001be000400be00bd
:101a3000c23607000004e00014003200e2a2a90050
:101a4000cb02a800cb62a900cbc2a800ca82a90021
:101a5000e2a2a900cb02a800cb62a900cbc2a800d9
:101a6000ca82a9001e0078008000eb0011009800d7
:101a70001e0078008040eb00014878000060fe0006
:101a80001e00780051a52a00210098000080fa006d
:101a9000000006000200fa00000f78001e00780027
:101aa000104078000080fb00e10f50000a00320077
:101ab000e20f50000e0032000000e00012003a0079
:101ac0006086200010407800e34040001e0078004f
:101ad00011409800100037007086200010407800f8
:101ae000e34040001e007800114098000a003700d3
:101af0008086200010407800e34040001e007800ff
:101b000011409800040037001e00780051c3b30054
:101b100011409800000000000080fa00000006005c
:101b20000a00fa0030079800410798000000eb0017
:101b3000000f78000000eb00100798004e009000a6
:101b4000c0409000414798004e4090000080fb004c
:101b5000e50f500002003200e80f500029003a0063
:101b60004e009000300090000000e80090407800a7
:101b7000a0ce2000014878004e0090003000900078
:101b80000080e8009040780000cf200001487800f5
:101b90000060fe003e009000300090000080e800f1
:101ba000104078000080fb00100798003e00900075
:101bb0003000900063004000104078000080fb007f
:101bc000000f78001e007800c800dd001e009000a5
:101bd0000100700090678800906780000000d100cd
:101be000906788000060fe0071678000a0ce200032
:101bf00001000100a167800000cf2000010001006a
:101c0000020037000060fe00000000000080fa00c3
:101c1000000006000000fa00f1648000a0aa2a007b
:101c2000808f500006003a000060fe00828e200087
:101c300020002f00f107200049330700090037007a
:101c4000f164800050a52a00808f500005003a0002
:101c50000060fe00a28e200040002f00f10720004f
:101c60003f33070091658000a0aa2a00808f5000b2
:101c700006003a000060fe00c28e200060002f00c7
:101c8000f107200036330700090037009165800016
:101c900050a52a00808f500005003a000060fe0029
:101ca000e28e200080002f00f10720002c33070077
:101cb0000000eb00f06488000000eb0090658800f5
:101cc0000000eb00306688000060fe000080fa0033
:101cd000000006000040da000000fe0000000500e1
:101ce0003200f800910188000008bb004104240084
:101cf0006210e10004003200000220000010e10048
:101d00000a003a0051042400013b88000500fc0051
:101d100051052000313b8800a10a2000313b88009a
:101d200061e7a80000000000000000003200f90098
:101d3000000006003200f80060042400003b880028
:101d4000f2ff37003200f8009101880041002400c2
:101d5000013b88000208bb00ecff37003200f800ae
:101d60009101880051002400013b880003012000fc
:101d70003218bb008301e900fdff3a00e3ff3700a2
:101d80003200f80091018800800278006200400073
:101d9000e08048003549ba003204e0000410a70092
:101da000100032008301e9000e0032002549ba001c
:101db0003204e0000410a7000a0032008301e900a9
:101dc000080032000408a300eeff320015c9ba0073
:101dd0003204e0000410a700020032008301e90091
:101de000e8ff3a003200f9000000060003f0a2000c
:101df000889fbe008a9fbe008c1f7800f7000700f6
:101e0000fe0033006450e1004f0032006420e10026
:101e10005200320003826c0007003b000905d0002d
:101e20000306d000820f54000c065d00020039004a
:101e3000020032008901780003067800858255008f
:101e400004003d000003fd008103fd008502ea005f
:101e50008b854200840f720002003b00600010007e
:101e6000e08018006011b8000005eb007a28e1005e
:101e70000a00390006007800c75ddd00f707b200f0
:101e8000878075002d003700828171000a0178007b
:101e9000610560008180d1000080d3008502e900e7
:101ea000f9ff3b00060440008784480002003b0025
:101eb00060041400e0841c000988a30007003200bd
:101ec0008a81710082817100610164008904d100fe
:101ed0000884d3008b05e800170037000978a300b9
:101ee00013003a000b00e000130034008b05e900fa
:101ef0000804440089844c000a4474000978a30053
:101f00000d003a000b00e000070034008b05e900eb
:101f10000804440089844c0001003a000b002000b2
:101f20000978a300f7ff32000001eb000200370040
:101f3000828171000a0178006d0007000cf0a70093
:101f400001f0a000b60037006420e10002003a0072
:101f5000838f6c00b60033000801be000200be0093
:101f6000af003700889fbe008a9fbe008c1f78009c
:101f70009a000700a100330003866c006450e10062
:101f80002e0032006420e100330032006150e10095
:101f90002f0032006120e1003100320085855500bc
:101fa000eb07b000090020000804200005003700fe
:101fb0000804440089844c000a00310006034300f1
:101fc00087834b000001530081815b00f8ff3300e1
:101fd0000203be000800a0000804440089844c00ed
:101fe000f6ff3900c639dd008301730001003200bd
:101ff000130020008904d1000884d3000998a300ad
:10200000050032000800a7000300a0008904d100e9
:102010000884d3008b05e8008904d1000884d3002c
:102020000001eb000281d2003100070001f0a100a5
:102030000cf0a70001f0a000790037006420e10057
:102040007b0032000801be000200be00f7ff37002f
:102050006120e100760032006000b800f3ff370035
:102060000000200001f82700f0ff370014002000d6
:10207000a6003700f4ff2f00a40037000001be00c7
:10208000410007000470a70003f0a10003f8a300bb
:1020900013003a006509b100100032000900350054
:1020a0006928e10002003500010028000000050059
:1020b00000004000818048008502e900fcff3a00f2
:1020c00000000600f88f4200050035008100d100b5
:1020d0000080d3008502e800fcff3a000000060003
:1020e0008000eb00000005006011b800a20037007e
:1020f00081002000618055000b003d000b00200096
:1021000061fe2f000100e1001d003400828171009a
:10211000610164008904d1000884d3000000e80054
:10212000faff3a00710020006100640003007000b3
:10213000020060000900320061044400e0844c00a9
:102140000988a500050032008b05e8006808e10059
:1021500002003a008904d1000884d300f20f200065
:102160000258e10005003d00c75ddd00f907b2003f
:102170008980750008007800000006000bf8270031
:102180008b00780000000500c70ade00f107b200ee
:10219000f50fb20008003200e1cf42000200320029
:1021a0000170a00024000500810f700001003200c2
:1021b0000408050044000500810f700002003a0089
:1021c000140005008502e9000000400081c04800bd
:1021d000fcff3b000170a000240005000004be00cd
:1021e000e9ff07000003be000405be000200be00b8
:1021f000e5ff0700844f7500000006000200be00e6
:102200006450e100050036006420e1000200360061
:102210000968a30001003a000800be000160a000a8
:102220004f0678004f05be004f04be0000000600b8
:10223000f0ff2f00f1ff2700f9ff3700889fbe0055
:102240008a9fbe008c1f7800e4ff0700ebff33007d
:1022500003866c006450e100240032006420e10039
:10226000270032006150e100220032006120e100cd
:10227000210032008b854200eb07b1000134b80029
:10228000003ab8000804420089844a00013ab800c4
:102290000030b8008880400009014a000400330083
:1022a0000000400081804800020149008b05e900e0
:1022b000c909dd0083017000010032001300200015
:1022c000c814de004814dd004709de001200b20029
:1022d000c808de000884700085ff070001f0a10037
:1022e0000cf0a70001f0a000cdff37006120e10055
:1022f000cfff32000801be000200be00f7ff37002a
:102300006150e100fcff3a00c9ff3700889fbe0022
:102310008a9fbe00841f7800b0ff07004f0078003e
:1023200011003300f0ff2f00838f6c0006003b008c
:10233000040565000a00a7000800370009f0a600a0
:102340001000200008003700820f5400838f5c00cb
:10235000030039001000200001003e0000002000b2
:1023600009f0a7000000ea004f05be004f04be00c0
:102370000000e00000000600889fbe008a9fbe00ab
:102380000082700004027100048271002600320095
:102390000004be000200be006011b8006b092000fe
:1023a000950220000182cf000a0039000541b100ea
:1023b0000082cf00070039000541b1000982cf003b
:1023c000040039000541b1000882cf000100390046
:1023d0000541b10005425200120032000a003b00e4
:1023e00082817100610164008100d1000080d3000e
:1023f0008984d3000884d3008b05e8000442e800f8
:10240000f7ff3a00070037000804440089844c00b5
:1024100000004800818048008b05e9000442e90083
:10242000f9ff3a0032ff07004f05be004f04be001f
:0424300000000600a2
:020000040000fa
:1024340000c100008140000001c000008041000094
:1024440001c000008041000000c100008140000084
:1024540001c000008041000000c100008140000074
:1024640000c100008140000001c000008041000064
:1024740001c000008041000000c100008140000054
:1024840000c100008140000001c000008041000044
:1024940000c100008140000001c000008041000034
:1024a40001c000008041000000c100008140000024
:1024b40001c000008041000000c100008140000014
:1024c40000c100008140000001c000008041000004
:1024d40000c100008140000001c0000080410000f4
:1024e40001c000008041000000c1000081400000e4
:1024f40000c100008140000001c0000080410000d4
:1025040001c000008041000000c1000081400000c3
:1025140001c000008041000000c1000081400000b3
:1025240000c100008140000001c0000080410000a3
:1025340001c000008041000000c100008140000093
:1025440000c100008140000001c000008041000083
:1025540000c100008140000001c000008041000073
:1025640001c000008041000000c100008140000063
:1025740000c100008140000001c000008041000053
:1025840001c000008041000000c100008140000043
:1025940001c000008041000000c100008140000033
:1025a40000c100008140000001c000008041000023
:1025b40000c100008140000001c000008041000013
:1025c40001c000008041000000c100008140000003
:1025d40001c000008041000000c1000081400000f3
:1025e40000c100008140000001c0000080410000e3
:1025f40001c000008041000000c1000081400000d3
:1026040000c100008140000001c0000080410000c2
:1026140000c100008140000001c0000080410000b2
:1026240001c000008041000000c1000081400000a2
:1026340000c00000c1010000c303000002c200008a
:10264400c606000007c7000005c50000c40400005a
:10265400cc0c00000dcd00000fcf0000ce0e00000a
:102664000aca0000cb0b0000c909000008c800001a
:10267400d818000019d900001bdb0000da1a00008a
:102684001ede0000df1f0000dd1d00001cdc00005a
:1026940014d40000d5150000d717000016d600008a
:1026a400d212000013d3000011d10000d01000009a
:1026b400f030000031f1000033f30000f23200008a
:1026c40036f60000f7370000f535000034f400005a
:1026d4003cfc0000fd3d0000ff3f00003efe00000a
:1026e400fa3a00003bfb000039f90000f83800001a
:1026f40028e80000e9290000eb2b00002aea00008a
:10270400ee2e00002fef00002ded0000ec2c000059
:10271400e424000025e5000027e70000e626000089
:1027240022e20000e3230000e121000020e0000099
:10273400a060000061a1000063a30000a262000089
:1027440066a60000a7670000a565000064a4000059
:102754006cac0000ad6d0000af6f00006eae000009
:10276400aa6a00006bab000069a90000a868000019
:1027740078b80000b9790000bb7b00007aba000089
:10278400be7e00007fbf00007dbd0000bc7c000059
:10279400b474000075b5000077b70000b676000089
:1027a40072b20000b3730000b171000070b0000099
:1027b4005090000091510000935300005292000089
:1027c4009656000057970000559500009454000059
:1027d4009c5c00005d9d00005f9f00009e5e000009
:1027e4005a9a00009b5b0000995900005898000019
:1027f40088480000498900004b8b00008a4a000089
:102804004e8e00008f4f00008d4d00004c8c000058
:102814004484000085450000874700004686000088
:102824008242000043830000418100008040000098
:10283400596f00006e67000043690000000000004b
:020000040000fa
:102844000200fa0060bb200080c0eb000148780061
:1028540040ba2000a05d880000bc200080c0eb00ce
:1028640001487800a0b92000f05d88000060fe00f7
:1028740040b8200041c1b3000148780050b820009e
:1028840021c0b3000148780060b820008040eb000c
:102894000148780070b82000a1c0b3000148780056
:1028a4000060fe0040b520008040eb000148780045
:1028b40040af20008040eb000148780040b2200087
:1028c4008040eb00014878000060fe00004080007a
:1028d400405c880010428000505c880010408000fa
:1028e400605c88004180200091407800e0b82000be
:1028f400014878005180200091407800f0b8200011
:10290400014878003040800041408000905c88009d
:10291400a15c88005240800063408000b25c880063
:10292400c35c880010cab30044e8b70081bb200030
:10293400e0ba200027070700004f78000060fe007f
:102944000200370040cab30044e8b7001e407800d4
:102954000004e000fbff3a000060fe0020cab30060
:1029640044e8b7000080fa00000006000400fa0002
:10297400000f7800110798000060fe001e00780028
:10298400300090000000e80010407800ee4f500046
:102994003e0032000060fe0040b820001040780085
:1029a4000081fb008001eb00f00320000100200007
:1029b40002027800030178008001780001007800a9
:1029c40003026200000061008000eb00c000dd0033
:1029d400000020000001be006120b8000001710069
:1029e40081817100431add00cd12de008502720080
:1029f4004312dd003040200001002000000072007e
:102a0400818072001e0190000089be001e009000ab
:102a1400300090009e007800b10090009140780052
:102a24000174a100014878001e009000300090005d
:102a34000000e80041c9b300014878001e0090007e
:102a4400300090000080e80081c0b30001487800a5
:102a54001e009000300090006300400021c0b300cd
:102a6400014878001e00900041c0b3004140980026
:102a74000060fe001e0078008040eb0001489800d2
:102a84001e009000200b0700840037001e00780011
:102a9400300090000080e80010407800e14f5000c2
:102aa4003e0032000060fe0040b820001040780074
:102ab4000081fb008001eb00f003200001002000f6
:102ac4000202780003017800800178000100780098
:102ad40003026200000061008000eb00c000dd0022
:102ae400000020000001be006120b8000001710058
:102af40081817100431add00cd12de00850272006f
:102b04004312dd003040200001002000000072006c
:102b1400818072001e0190000089be001e0090009a
:102b2400300090009e007800b10090009140780041
:102b34000174a100014878001e009000300090004c
:102b44000000e80041c9b300014878001e0090006d
:102b5400300090000080e80081c2b3000148780092
:102b64001e009000300090006300400080c0eb0025
:102b7400014878001e00900041c0b3004140980015
:102b84000060fe001e0078008040eb0001489800c1
:102b94001e009000dc0a07004000370040b8200007
:102ba400104078000081fb008001eb00f00320005e
:102bb40001002000020278000301780080017800ff
:102bc4000100780003026200000061008000eb0055
:102bd400c000dd00000020000001be006120b8003c
:102be4000001710081817100431add00cd12de0005
:102bf400850272004312dd003040200001002000f5
:102c040000007200818072001e0190000089be00e5
:102c14001e009000300090009e007800b1009000eb
:102c2400914078000174a100014878001e009000d2
:102c3400300090000000e800e1c8b30001487800cb
:102c44001e009000300090000080e8007140800079
:102c540081407800014878001e0090003000900008
:102c64006300400071408000c808de0081407800a5
:102c7400014878001e00900041c0b3004140980014
:102c84000060fe001e0078008040eb0001489800c0
:102c94000060fe001e0090009b0a07000080fa00fe
:102ca400000006000400fa00000f780011079800e5
:102cb4001e007800300090000000e800104078000a
:102cc4000080fb00f00f500003013200f00f5000b1
:102cd40003003c00ee0f5000050032008a0137006b
:102ce400b004b100e10f500087013e0081013700bc
:102cf4000060fe001e007800300090006400400078
:102d0400104078000080fb00e20f50003d003200cc
:102d1400e50f500074003200e10f5000b1003a009a
:102d240040b82000104078000081fb008001eb00d7
:102d3400f003200001002000020278000301780063
:102d44008001780001007800030262000000610045
:102d54008000eb00c000dd00000020000001be0088
:102d64006120b8000001710081817100431add0007
:102d7400cd12de00850272004312dd0030402000d7
:102d84000100200000007200818072001e0190008a
:102d94000089be001e009000300090009e00780064
:102da400b1009000914078000174a10001487800be
:102db4001e009000300090000000e800e1c8b3005d
:102dc400014878001e009000300090000080e80068
:102dd40041b8200091407800014878001e0090001e
:102de40031c0b300414098000060fe001e0078002e
:102df4008040eb00014898001e009000420a070042
:102e04007e01370040b82000104078000081fb00ac
:102e14008001eb00f0032000010020000202780092
:102e24000301780080017800010078000302620049
:102e3400000061008000eb00c000dd000000200005
:102e44000001be006120b8000001710081817100a1
:102e5400431add00cd12de00850272004312dd004c
:102e640030402000010020000000720081807200c8
:102e74001e0190000089be001e00900030009000ea
:102e84009e007800b1009000914078000174a10088
:102e9400014878001e009000300090000000e80017
:102ea400e1c8b300014878001e0090003000900093
:102eb4000080e80051b82000914078000148780073
:102ec4001e00900031c0b300414098000060fe0035
:102ed4001e0078008040eb00014898001e0090001e
:102ee400090a07004501370040b820001040780067
:102ef4000081fb008001eb00f003200001002000b2
:102f04000202780003017800800178000100780053
:102f140003026200000061008000eb00c000dd00dd
:102f2400000020000001be006120b8000001710013
:102f340081817100431add00cd12de00850272002a
:102f44004312dd0030402000010020000000720028
:102f5400818072001e0190000089be001e00900056
:102f6400300090009e007800b100900091407800fd
:102f74000174a100014878001e0090003000900008
:102f84000000e800e1c8b300014878001e0090008a
:102f9400300090000080e80061b820009140780083
:102fa400014878001e00900030009000630040004b
:102fb40071b8200091407800014878001e0090000c
:102fc40041c0b300414098000060fe001e0078003c
:102fd4008040eb00014898001e009000ca090700d9
:102fe4000601370040b82000104078000081fb0043
:102ff4008001eb00f00320000100200002027800b1
:103004000301780080017800010078000302620067
:10301400000061008000eb00c000dd000000200023
:103024000001be006120b8000001710081817100bf
:10303400431add00cd12de00850272004312dd006a
:1030440030402000010020000000720081807200e6
:103054001e0190000089be001e0090003000900008
:103064009e007800b1009000914078000174a100a6
:10307400014878001e009000300090000000e80035
:1030840041c9b300014878001e0090003000900050
:103094000080e80081c2b300014878001e0090005f
:1030a400300090006300400080c0eb0001487800cd
:1030b4001e00900041c0b300414098000060fe0033
:1030c4001e0078008040eb00014898001e0090002c
:1030d4008d090700c90037001e00780030009000f9
:1030e40063004000104078000080fb00e50f5000b2
:1030f40043003e00110020008008dd006002200033
:10310400008060000000e0003d00320040b8200074
:10311400104078000081fb008001eb00f0032000e8
:103124000100200002027800030178008001780089
:103134000100780003026200000061008000eb00df
:10314400c000dd00000020000001be006120b800c6
:103154000001710081817100431add00cd12de008f
:10316400850272004312dd0030402000010020007f
:1031740000007200818072001e0190000089be0070
:103184001e009000300090009e007800b100900076
:10319400914078000174a100014878001e0090005d
:1031a400300090000000e80041c9b30001487800f5
:1031b4001e009000300090000080e800e1c0b300e1
:1031c400014878001e009000300090006300400029
:1031d40080c0eb00014878001e00900041c0b3009d
:1031e400414098000060fe001e0078008040eb0023
:1031f400014898001e009000430907007f00370033
:1032040040b82000104078000081fb008001eb00f2
:10321400f00320000100200002027800030178007e
:103224008001780001007800030262000000610060
:103234008000eb00c000dd00000020000001be00a3
:103244006120b8000001710081817100431add0022
:10325400cd12de00850272004312dd0030402000f2
:103264000100200000007200818072001e019000a5
:103274000089be001e009000300090009e0078007f
:10328400b1009000914078000174a10001487800d9
:103294001e009000300090000000e80041c9b30017
:1032a400014878001e009000300090000080e80083
:1032b40081c2b300014878001e00900030009000e5
:1032c4006300400080c0eb00014878001e009000bd
:1032d40041c0b300414098000060fe001e00780029
:1032e4008040eb00014898001e009000060907008a
:1032f400420037000060fe009e0090001e0078002f
:103304001f0607003d00370040b820001040780039
:103314000081fb008001eb00f0032000010020008d
:10332400020278000301780080017800010078002f
:1033340003026200000061008000eb00c000dd00b9
:10334400000020000001be006120b80000017100ef
:1033540081817100431add00cd12de008502720006
:103364004312dd0030402000010020000000720004
:10337400818072001e0190000089be001e00900032
:10338400300090009e007800b100900091407800d9
:103394000174a100014878001e00900030009000e4
:1033a4000000e80041c9b300014878001e00900005
:1033b400300090000080e80081c0b300014878002c
:1033c4001e009000300090006300400080c0eb00bd
:1033d400014878001e00900041c0b30041409800ad
:1033e4000060fe001e0078008040eb000148980059
:1033f4001e009000c4080700000000000080fa00ce
:10340400000006000400fa00000f7800110798007d
:1034140040b82000104078000081fb008001eb00e0
:10342400f00320000100200002027800030178006c
:10343400800178000100780003026200000061004e
:103444008000eb00c000dd00000020000001be0091
:103454006120b8000001710081817100431add0010
:10346400cd12de00850272004312dd0030402000e0
:103474000100200000007200818072001e01900093
:103484000089be000060fe001e0090003000900025
:103494009e007800b1009000914078000174a10072
:1034a400014878001e009000300090000000e80001
:1034b40041c9b300014878001e009000300090001c
:1034c4000080e80081c0b300014878001e0090002d
:1034d400300090006300400011c0b3000148780040
:1034e4001e00900041c0b300414098000060fe00ff
:1034f4001e0078008040eb00014898001e009000f8
:10350400810807000080fa00000006000400fa00a9
:10351400000f78001107980040b820001040780090
:103524000081fb008001eb00f0032000010020007b
:10353400020278000301780080017800010078001d
:1035440003026200000061008000eb00c000dd00a7
:10355400000020000001be006120b80000017100dd
:1035640081817100431add00cd12de0085027200f4
:103574004312dd00304020000100200000007200f2
:10358400818072001e0190000089be001e00900020
:10359400300090009e007800b100900091407800c7
:1035a4000174a100014878000060fe001e0078004c
:1035b400300090000000e800104078000080fb001c
:1035c400ee0f50001c003200f00f50004f003a0084
:1035d4000060fe001e009000300090000000e80033
:1035e40001c9b300014878001e009000300090002b
:1035f4000080e8009e007800b1009000e580400063
:1036040091407800014878001e009000300090003e
:10361400630040009e007800b1009000e680400006
:1036240091407800014878001e00900041c0b3002a
:1036340041409800490037001e009000300090007f
:103644000000e800e1c8b300014878000060fe0013
:103654001e007800300090006400400010407800a4
:103664000080fb00e70f500003003200e80f500019
:1036740010003200100037000060fe001e009000b1
:10368400300090000080e80081c0b3000148780059
:103694001e00900030009000630040008040eb006a
:1036a400014878001e00900041c0b30041409800da
:1036b40015003700140037000060fe001e00900063
:1036c400300090000000e80041c9b30001487800d0
:1036d4001e009000300090000080e80081c0b3001c
:1036e400014878001e009000300090006300400004
:1036f40011c0b300014878001e00900041c0b3001f
:103704004140980000000000140037000060fe00f3
:103714001e009000300090000000e80041c9b30092
:10372400014878001e009000300090000080e800fe
:1037340081c0b300014878001e0090003000900062
:103744006300400011c0b300014878001e009000df
:1037540041c0b30041409800000000001e00780002
:103764008040eb00014898000060fe001e009000bd
:10377400e50707000080fa00000006000400fa00d4
:10378400000f78001107980040b82000104078001e
:103794000081fb008001eb00f00320000100200009
:1037a40002027800030178008001780001007800ab
:1037b40003026200000061008000eb00c000dd0035
:1037c400000020000001be006120b800000171006b
:1037d40081817100431add00cd12de008502720082
:1037e4004312dd0030402000010020000000720080
:1037f400818072001e0190000089be001e009000ae
:10380400300090009e007800b10090009140780054
:103814000174a100014878000060fe001e007800d9
:10382400300090000000e800104078000080fb00a9
:10383400ee0f50003b003200f00f50007c003a00c5
:103844000060fe001e009000300090000000e800c0
:1038540001c9b300014878001e00780030009000d0
:1038640064004000104078000080fb00e10f50002d
:1038740083003a001e00780030009000650040008c
:1038840010407800e44f500011003e000060fe003c
:103894001e007800300090006500400090407800e1
:1038a40040af2000014878001e00900030009000d6
:1038b4000080e80041af2000914078000148780082
:1038c4001e00900031c0b30041409800130037003f
:1038d4000060fe001e009000300090000000e80030
:1038e40041c9b300014878001e00900030009000e8
:1038f4000080e80091c0b300014878001e009000e9
:10390400300090006300400080c0eb000148780064
:103914001e00900041c0b300414098000000000028
:10392400580037000060fe001e0090003000900038
:103934000000e800e1c8b300014878001e007800e8
:103944003000900064004000104078000080fb00cc
:10395400e70f500003003200e80f5000100032005f
:103964001e0037000060fe001e0090003000900032
:103974000080e80081c0b300014878001e00900078
:1039840030009000630040008040eb000148780064
:103994001e00900041c0b30041409800230037004e
:1039a4000060fe001e009000300090000080e800df
:1039b40081c0b300014878001e00900030009000e0
:1039c400630040008040eb00014878001e00900036
:1039d40041c0b30041409800140037000060fe006d
:1039e4001e009000300090000000e80041c9b300c0
:1039f400014878001e009000300090000080e8002c
:103a040081c0b300014878001e009000300090008f
:103a14006300400011c0b300014878001e0090000c
:103a240041c0b30041409800000000001500370079
:103a34000060fe001e009000300090000000e800ce
:103a440041c9b300014878001e0090003000900086
:103a54000080e80081c0b300014878001e00900097
:103a6400300090006300400011c0b30001487800aa
:103a74001e00900041c0b30041409800010037008f
:103a8400000000000060fe001e0078008040eb0093
:103a9400014898001e0090001b0707000080fa00f0
:103aa400000006000400fa00000f780011079800d7
:103ab40040b82000104078000081fb008001eb003a
:103ac400f0032000010020000202780003017800c6
:103ad40080017800010078000302620000006100a8
:103ae4008000eb00c000dd00000020000001be00eb
:103af4006120b8000001710081817100431add006a
:103b0400cd12de00850272004312dd003040200039
:103b14000100200000007200818072001e019000ec
:103b24000089be000060fe001e009000300090007e
:103b34009e007800b1009000914078000174a100cb
:103b4400014878001e009000300090000000e8005a
:103b540041c9b300014878001e0090003000900075
:103b64000080e80081c0b300014878001e00900086
:103b7400300090006300400011c0b3000148780099
:103b84001e00900041c0b300414098000060fe0058
:103b94001e0078008040eb00014898001e00900051
:103ba400d90607000080fa00000006000600fa00ab
:103bb400100798002107980040b8200010407800b2
:103bc4000081fb008001eb00f003200001002000d5
:103bd4000202780003017800800178000100780077
:103be40003026200000061008000eb00c000dd0001
:103bf400000020000001be006120b8000001710037
:103c040081817100431add00cd12de00850272004d
:103c14004312dd003040200001002000000072004b
:103c2400818072002e0190000089be002e00900059
:103c3400300090009e009000b10090009140780008
:103c44000174a100014878000060fe001e0090008d
:103c5400300090000000e80010407800ee4f500063
:103c6400f6003a002e009000300090000000e800ba
:103c7400e1c8b300014878001e00900030009000b5
:103c840064004000104f78001e0090008040eb005c
:103c9400014898000060fe001e80fb00e40f500005
:103ca4004c003200e40f500007003c00e20f5000cb
:103cb40020003200e20f500032003c00e10f5000bf
:103cc40008003200c6003700e60f500069003200d9
:103cd400e60f500052003500e70f50008f0032000d
:103ce400bf0037000060fe002e00900030009000fe
:103cf4000080e800415c8000814078000148780041
:103d04002e0090003000900063004000415c800071
:103d1400c808de0081407800014878002e00900039
:103d240041c0b300414098002e0090007606070081
:103d3400d80037000060fe002e0090003000900094
:103d44000080e800515c80008140780001487800e0
:103d54002e0090003000900063004000515c800011
:103d6400c808de0081407800014878002e009000e9
:103d740041c0b300414098002e0090006206070045
:103d8400c40037000060fe002e0090003000900058
:103d94000080e800615c8000814078000148780080
:103da4002e0090003000900063004000615c8000b1
:103db400c808de0081407800014878002e00900099
:103dc40041c0b300414098002e0090004e06070009
:103dd400b00037000060fe002e009000300090001c
:103de4000080e800e1b820009140780001487800a4
:103df4002e0090003000900063004000f1b82000d5
:103e040091407800014878002e00900041c0b30032
:103e1400414098002e0090003b0607009d003700ab
:103e24000060fe002e009000300090000080e8004a
:103e3400815c800081407800014878002e00900069
:103e44003000900063004000815c8000c808de0000
:103e540081407800014878002e00900041c0b300f2
:103e6400414098000060fe002e00900026060700e6
:103e7400880037000060fe002e00900030009000a3
:103e84000081e800905c8000a15c80000040780024
:103e9400004978002e00900030009000630140003b
:103ea400905c8000a15c8000c809dd004800de0051
:103eb40000807100c808de000040780000497800e6
:103ec4002e0090003000900064014000905c80005f
:103ed400a15c80004008de000040780000497800c2
:103ee4002e0090003000900065014000905c80003e
:103ef400a15c80004808de0000407800004978009a
:103f04002e00900061c0b300414098000060fe00a4
:103f14002e009000fc0507005e0037000060fe00e4
:103f24002e009000300090000080e800b15c80001a
:103f340081407800014878002e0090003000900005
:103f440063004000c15c8000914078000148780023
:103f54002e0090003000900064004000c15c80009e
:103f64008100e80091407800014878002e0090001c
:103f74003000900065004000c15c80008180e80052
:103f840091407800014878002e00900030009000a5
:103f940066004000c15c8000e380400091407800ee
:103fa400014878002e009000300090006700400027
:103fb400c15c8000e48040009140780001487800b2
:103fc4002e00900081c0b300414098000060fe00c4
:103fd4002e009000cc050700000000002d003700e3
:103fe4000060fe002e009000300090000000e80009
:103ff40041c9b300014878002e00900030009000c1
:104004000080e800e1c0b300014878002e00900071
:10401400300090006300400080c0eb00014878004d
:104024002e00900041c0b300414098000060fe00a3
:104034002e009000b4050700160037000060fe0053
:104044002e009000300090000000e80041c9b30049
:10405400014878002e009000300090000080e800b5
:1040640081c0b300014878002e0090003000900019
:104074006300400080c0eb00014878002e009000ef
:1040840041c0b300414098000060fe002e00900043
:104094009d0507000080fa00000006000400fa00f5
:1040a400000f7800110798000060fe0040b820005f
:1040b400104078000081fb008001eb00f003200039
:1040c40001002000020278000301780080017800da
:1040d4000100780003026200000061008000eb0030
:1040e400c000dd00000020000001be006120b80017
:1040f4000001710081817100431add00cd12de00e0
:10410400850272004312dd003040200001002000cf
:1041140000007200818072001e0190000089be00c0
:104124001e009000300090009e007800b1009000c6
:10413400914078000174a100014878001e009000ad
:10414400300090000000e80041c9b3000148780045
:104154001e009000300090000080e80081c0b30091
:10416400014878001e009000300090006300400079
:1041740011c0b300014878001e00900041c0b30094
:10418400414098000060fe001e0078008040eb0073
:10419400014898001e0090005b0507000080fa00ab
:1041a400000006000000fa000060fe0040b5200098
:1041b40031c0b3000148780050b520008040eb00c6
:1041c4000148780060b5200031c8b3000148780088
:1041d400f00f2000c05a8800f00f2000d05a880049
:1041e400c0b5200021c2b30001487800f00f2000c0
:1041f400f05a88000060fe00f00f2000005b880089
:10420400409c2000105b880040b6200011c0b30021
:10421400014878000000eb00305b8800f00f2000bc
:10422400a05b88000000eb00105c88000060fe00ca
:104234000080fa00000006000000fa000060fe00a2
:1042440040af200031c0b3000148780050af2000d7
:1042540011c0b3000148780060af200021c8b3004a
:1042640001487800f00f2000c0578800f00f2000ac
:10427400d0578800c0af200011c0b30001487800b7
:10428400f00f2000f0578800f00f2000005888003d
:104294000000eb001058880040b020008040eb0084
:1042a40001487800f00f200030588800f00f2000fb
:1042b400a05888000000eb00105988000060fe0040
:1042c4000080fa00000006000000fa000060fe0012
:1042d40040b2200031c0b3000148780050b2200041
:1042e40001c1b3000148780060b2200021c8b300c6
:1042f40001487800f00f200040598800f00f20009a
:1043040050598800c0b2200011c0b30001487800a1
:10431400f00f200070598800f00f200080598800a9
:104324000000eb009059880040b320008040eb006f
:1043340001487800f00f2000b0598800f00f2000e9
:10434400205a88000000eb00905a88000060fe00ac
:104354000080fa00000006000600fa00100798002a
:10436400210798001e0090001000be004d09dd00da
:104374004300de0000007100c388de0000407800c6
:10438400f1c3b300014f60001e0090001000be0096
:104394000040780067406000104798000060fe000d
:1043a40040b82000104078009e4f50002b003a0087
:1043b4000060fe001e4090000080fb00e50f5000ee
:1043c40018003200e50f500003003c00e40f5000d9
:1043d400190032001d003700e60f50000c003200b7
:1043e400e70f500019003a000060fe0040b82000ba
:1043f400104078009e4f500017003a000060fe0005
:1044040001c8b3001e009000160007001300370017
:104414000060fe00ae0090001e009000d80107006e
:104424000e0037000060fe00ae0090001e009000f9
:1044340053040700090037000060fe00ae0090003e
:104444001e009000e6030700040037000060fe0031
:104454000000000001003700000000000080fa00a6
:10446400000006000400fa00000f780021479800bd
:104474000060fe0040b82000104078000081fb007e
:104484008001eb00f003200001002000020278000c
:1044940003017800800178000100780003026200c3
:1044a400000061008000eb00c000dd00000020007f
:1044b4000001be006120b80000017100818171001b
:1044c400431add00cd12de00850272004312dd00c6
:1044d4007040200001002000000072008180720002
:1044e4001e0178000089be001e0078003000900094
:1044f400ae409000014878001e0078003000900023
:104504000000e800415c80008140780001487800a8
:104514001e007800300090000080e800415c8000bc
:10452400c808de0081407800014878001e00780049
:104534003000900063014000905c8000a15c80002a
:1045440000407800004978001e0078003000900098
:1045540064014000905c8000a15c8000c809dd001b
:104564004800de0000807100c808de0000407800ca
:10457400004978001e00780030009000650140007a
:10458400905c8000a15c80004008de000040780060
:10459400004978001e007800300090006601400059
:1045a400905c8000a15c80004808de000040780038
:1045b400004978001e00780071c0b30041409800a3
:1045c4000060fe001e0078004f0407000080fa001f
:1045d400000006000800fa00200798003107980040
:1045e4000000eb00000f78000060fe002e00900039
:1045f4008040eb00014898008040eb003e009000b2
:1046040098ff070051040700240037000060fe00f3
:104614002e009000004890000004e0001f003200cb
:104624000060fe002e0090001000be004d09dd0069
:104634004300de0000007100c388de000040780003
:10464400f043b200204798002e0090001000be00f6
:104654000040780067406000304798000060fe002a
:104664003e409000e74f50000b003a0040b8200055
:10467400904078002e40900080cf500007003a0010
:104684000060fe002e0090008040eb00014898007e
:1046940000c0eb000d0037000000000037040700e5
:1046a4000004e000d9ff3a001e0fe8001e00780065
:1046b400e10f5000ccff34000060fe002e0090009b
:1046c4008040eb00014898000040eb000080fa00b5
:1046d400000006000600fa00100798002107980061
:1046e4000040eb00004f78000040eb0010479800ba
:1046f4000060fe00805c8000610060000040780083
:104704000004e0000e0032001e0090003000900013
:10471400650040009040780070b820001040780098
:1047240080cf5000060032000060fe00c0c0b3001d
:10473400004f780010c0b300104798002c003700d9
:104744001e009000300090000080e80010407800c7
:10475400e34f500006003a001e0090003000900025
:104764006300400010407800e14f50000600320022
:104774000060fe0090c0b300004f780000c0eb0062
:10478400104798001a0037001e0090003000900077
:1047940064004000104078000004e00006003a0085
:1047a4000060fe0090c0b300004f780020c0b3004a
:1047b400104798000e0037001e0090003000900053
:1047c40064004000104078008080fb0080fe2f00d1
:1047d400008060000000e000050032000060fe0080
:1047e40020c0b300004f780020c0b30010479800e9
:1047f4001e4078000004e0003e0032000060fe002d
:1048040040b82000104078000081fb008001eb00dc
:10481400f003200001002000020278000301780068
:10482400800178000100780003026200000061004a
:104834008000eb00c000dd00000020000001be008d
:104844006120b8000001710081817100431add000c
:10485400cd12de00850272004312dd0030402000dc
:104864000100200000007200818072002e0190007f
:104874000089be002e009000300090009e00900041
:10488400b1009000914078000174a10001487800c3
:104894002e009000300090000000e80041c9b300f1
:1048a400014878002e009000300090000080e8005d
:1048b4001e4878002e0090003000900063004000f5
:1048c4009e409000014878002e00900041c0b30043
:1048d400414098000060fe001e0090008040eb0004
:1048e400014898002e009000870307000040eb0069
:1048f4000100370000c0eb000080fa000000060051
:104904000800fa0020079800310798000040eb00e7
:10491400004f78000040eb00104798002e009000f4
:1049240030009000640040009040780021479800d7
:104934000060fe002e4090000004e00035003a00c4
:104944000060fe0040b82000104078000081fb00a9
:104954008001eb00f0032000010020000202780037
:1049640003017800800178000100780003026200ee
:10497400000061008000eb00c000dd0000002000aa
:104984000001be006120b800000171008181710046
:10499400431add00cd12de00850272004312dd00f1
:1049a400304020000100200000007200818072006d
:1049b4003e0190000089be003e009000300090004f
:1049c400ae009000b1009000914078000174a10005
:1049d400014878003e009000300090000000e8009c
:1049e400c1ccb300014878003e00900021c0b30060
:1049f400414098000060fe002e0090008040eb00d3
:104a0400014898003e0090003f0307000040eb007f
:104a1400590037002e4090008080fb0080fe2f005c
:104a2400008060000000e000060032000060fe002c
:104a340020c0b300004f780020c0b3001047980096
:104a44000b00370060b82000904078002e409000a2
:104a540000c060000004e00005003a000060fe00b1
:104a6400b0c0b300004f780020c0b30010479800d6
:104a74001e4078000004e0003e0032000060fe00aa
:104a840040b82000104078000081fb008001eb005a
:104a9400f0032000010020000202780003017800e6
:104aa40080017800010078000302620000006100c8
:104ab4008000eb00c000dd00000020000001be000b
:104ac4006120b8000001710081817100431add008a
:104ad400cd12de00850272004312dd00304020005a
:104ae4000100200000007200818072003e019000ed
:104af4000089be003e00900030009000ae0090009f
:104b0400b1009000914078000174a1000148780040
:104b14003e009000300090000000e80041c9b3005e
:104b2400014878003e009000300090000080e800ca
:104b34001e4878003e009000300090006300400062
:104b44009e409000014878003e00900041c0b300b0
:104b5400414098002e0090008040eb0001489800ee
:104b64000060fe003e009000e70207000040eb00fa
:104b74000100370000c0eb000080fa0000000600ce
:104b84000600fa0010079800210798001e00900004
:104b9400300090000000e80090407800b0c4b300fa
:104ba40080cf500059013a000060fe00ae00900032
:104bb4001e009000c7fe07000004e00002003a0057
:104bc4000060fe00040237001e00900030009000d8
:104bd400650040009040780070b8200001487800db
:104be4001e0090003000900064004000104f7800d8
:104bf40060b82000104078009e40700060b820002b
:104c0400014878000060fe001e80fb006200600026
:104c14000000e0005b0032000060fe0086fd07003b
:104c240040b82000104078008080fb00003c200049
:104c340001007000c057880040b820001040780080
:104c44000081fb008001eb00f00320000100200044
:104c540002027800030178008001780001007800e6
:104c640003026200000061008000eb00c000dd0070
:104c7400000020000001be006120b80000017100a6
:104c8400818171004318dd00cd10de0081007000c9
:104c94004310dd00800078005040200001007000c7
:104ca400d057880040b82000104078000081fb00f5
:104cb4008001eb00f00320000100200002027800d4
:104cc400030178008001780001007800030262008b
:104cd400000061008000eb00c000dd000000200047
:104ce4000001be006120b8000001710081817100e3
:104cf400431add00cd12de00850272004312dd008e
:104d04003040200001002000000072008180720009
:104d14002e0190000089be002e009000300090000b
:104d24009e009000b1009000914078000174a100b1
:104d3400014878002e009000300090000000e80048
:104d4400b1ccb300014878002e00900030009000f0
:104d54000080e8008040eb00014878002e009000bd
:104d640031c0b300414098001e0090008040eb0029
:104d7400014898000060fe002e00900062020700c7
:104d8400950137001e80fb00610060000040780040
:104d94000004e000700032000060fe0001fd070026
:104da40040b82000104078000081fb008001eb0037
:104db400f0032000010020000202780003017800c3
:104dc40080017800010078000302620000006100a5
:104dd4008000eb00c000dd00000020000001be00e8
:104de4006120b80000017100818171004318dd0069
:104df400cd10de00810070004310dd0080007800db
:104e04003040200001007000c05a880040b82000e3
:104e1400104078000081fb008001eb00f0032000cb
:104e2400010020000202780003017800800178006c
:104e34000100780003026200000061008000eb00c2
:104e4400c000dd00000020000001be006120b800a9
:104e540000017100818171004318dd00cd10de0076
:104e6400810070004310dd00800078004040200085
:104e740001007000d05a88000060fe0040b8200095
:104e8400104078000081fb008001eb00f00320005b
:104e940001002000020278000301780080017800fc
:104ea4000100780003026200000061008000eb0052
:104eb400c000dd00000020000001be006120b80039
:104ec4000001710081817100431add00cd12de0002
:104ed400850272004312dd003040200001002000f2
:104ee40000007200818072002e0190000089be00d3
:104ef4002e009000300090009e009000b1009000c1
:104f0400914078000174a100014878002e009000bf
:104f1400300090000000e800b1ccb30001487800f4
:104f24002e009000300090000080e8008040eb00ec
:104f3400014878002e00900031c0b3004140980031
:104f44001e0090008040eb00014898000060fe00c5
:104f54002e009000ec0107001e80fb007000600032
:104f64000000e0005e0032000060fe00d6fc070096
:104f740040b82000104078008080fb00f00320003f
:104f840080806000003420000100700040598800d7
:104f940040b82000104078000081fb008001eb0045
:104fa400f0032000010020000202780003017800d1
:104fb40080017800010078000302620000006100b3
:104fc4008000eb00c000dd00000020000001be00f6
:104fd4006120b80000017100818171004318dd0077
:104fe400cd10de00810070004310dd0080007800e9
:104ff4005040200001007000505988000060fe00fd
:1050040040b82000104078000081fb008001eb00d4
:10501400f003200001002000020278000301780060
:105024008001780001007800030262000000610042
:105034008000eb00c000dd00000020000001be0085
:105044006120b8000001710081817100431add0004
:10505400cd12de00850272004312dd0030402000d4
:105064000100200000007200818072002e01900077
:105074000089be002e009000300090009e00900039
:10508400b1009000914078000174a10001487800bb
:105094002e009000300090000000e800b1ccb30076
:1050a400014878002e009000300090000080e80055
:1050b4008040eb00014878002e00900031c0b3001e
:1050c400414098001e0090008040eb000148980089
:1050d4000060fe002e0090008b010700be00370028
:1050e4001e80fb00640060000000e000030032004a
:1050f4000060fe000060fe00b7003700805c8000a6
:105104000000a000805c8800b30037001e009000ff
:10511400300090000000e80090407800c0c4b30064
:1051240080cf50006e003a00ae0090001e00900048
:10513400f3fd07000004e00002003a000060fe00f6
:10514400a50037001e00900030009000640040006d
:10515400904078001147980060b820009040780093
:105164001e40900000c0ea0080c0700060b82000bb
:10517400014878001e4090000080fb00620060003f
:105184000000e000080032000060fe000000eb00b8
:10519400c05788000000eb00d057880040af2000c3
:1051a4008040eb00014878001e4090000080fb0026
:1051b400700060000000e000080032000060fe00a3
:1051c4000000eb00405988000000eb0050598800b3
:1051d40040b220008040eb00014878001e4090005f
:1051e4000080fb0061006000004078000004e000e3
:1051f400080032000060fe000000eb00c05a880086
:105204000000eb00d05a880040b520008040eb003d
:105214000148780040b82000104078000081fb006d
:105224008001eb00f003200001002000020278005e
:105234000301780080017800010078000302620015
:10524400000061008000eb00c000dd0000002000d1
:105254000001be006120b80000017100818171006d
:10526400431add00cd12de00850272004312dd0018
:105274003040200001002000000072008180720094
:105284002e0190000089be002e0090003000900096
:105294009e009000b1009000914078000174a1003c
:1052a400014878002e009000300090000000e800d3
:1052b400c1ccb300014878002e00900021c0b30097
:1052c400414098001e0090008040eb000148980087
:1052d4000060fe002e0090000b0107003e00370026
:1052e4000060fe0040b82000104078000081fb0000
:1052f4008001eb00f003200001002000020278008e
:105304000301780080017800010078000302620044
:10531400000061008000eb00c000dd000000200000
:105324000001be006120b80000017100818171009c
:10533400431add00cd12de00850272004312dd0047
:1053440030402000010020000000720081807200c3
:105354002e0190000089be002e00900030009000c5
:105364009e009000b1009000914078000174a1006b
:10537400014878002e009000300090000000e80002
:1053840041c9b300014878002e009000300090001d
:105394000080e80081c0b300014878002e0090002e
:1053a400300090006300400021c0b3000148780041
:1053b4002e00900041c0b300414098001e009000b0
:1053c4008040eb00014898000060fe002e00900031
:1053d400cd000700000000000080fa000000060075
:1053e4000600fa0010079800210798001e0090009c
:1053f400300090000080e800104f78001e009000fc
:1054040030009000630040009040780011479800fd
:105414000060fe0060b82000104078000080fb00af
:10542400610060000000e0004c0032001e80fb00c0
:10543400e20f50001b003200e20f500003003c005a
:10544400e10f5000060032004b003700e30f50001c
:1054540019003200e50f50002800320046003700e2
:105464000060fe001e4090000004e00005003a00c9
:105474000060fe00ae0090001e00900089f9070055
:105484003d0037001e409000e14f500035003a00c7
:105494000060fe00ae0090001e009000c3f90700fb
:1054a400350037000060fe00ae0090001e00900042
:1054b400fafa0700300037000060fe001e4090003a
:1054c4000004e00005003a00ae0090001e009000c9
:1054d40026f507000060fe00270037001e409000fc
:1054e400e14f500021003a000060fe00ae00900041
:1054f4001e009000ebf507001f0037001e409000cf
:105504000004e00005003a000060fe00ae009000d8
:105514001e009000bbf70700170037001e409000e4
:10552400e14f500005003a000060fe00ae0090001c
:105534001e009000f5f707000f0037001e40900092
:10554400e24f50000b003a000060fe00ae009000f5
:105554001e00900089f807000700370000000000d3
:1055640005003700000000000300370000000000c1
:1055740001003700000000000080fa00000006006f
:105584000400fa00000f78001107980040af2000d3
:1055940010407800e34f5000020032000060fe002b
:1055a400080037009e0090001e0078007d1307005d
:1055b4000060fe001e0078008040eb000148980067
:1055c400000000000080fa00000006000000fa005d
:1055d4000060fe000080fa00000006000800fa00e7
:1055e4001007980021079800624798000040eb00dc
:1055f400004f78001e0090009000780000602000aa
:105604008080600000402000808f50000300320042
:105614000060fe000040eb003900370060bb200052
:10562400104078000004e000030032000060fe0037
:105634000040eb00320037006e409000e84f50000d
:105644002e003e000060fe001e0090001000780056
:105654008000eb00705d8800815d880020bb200025
:10566400ee409000014878000040eb00004f7800c5
:105674000a0037000060fe00a15d80001e80fb0070
:10568400008040009e80fb002e01900081004100bc
:1056940091407800014878001e4fe8006e40900069
:1056a4009e40780080cf5000f2ff39000060fe0079
:1056b40060bb200080c0eb000148780044c8bf00f4
:1056c4008080fb00200a2000808f500005003a00f3
:1056d4000060fe0081bb2000e0ba20001efb070032
:1056e400000000000060fe0060bb20008040eb0072
:1056f4000148780000c0eb00010037000040eb00d7
:105704000080fa00000006000200fa00000f780092
:105714000060fe001e007800404190001e007800ea
:10572400b00190001e0078001000be000000780058
:1057340083007800a41b07001e0078008040eb0063
:10574400014898000080fa00000006000000fa00fa
