:020000040000fa
:080000000001040000000000f3
:020000040000fa
:04000800c81100001b
:020000040000fa
:04000c0000020000ee
:020000040000fa
:0400100006020000e4
:020000040000fa
:040014000c020000da
:020000040000fa
:0400180012020000d0
:020000040000fa
:04001c00c811000007
:020000040000fa
:04002000c811000003
:020000040000fa
:04002400c8110000ff
:020000040000fa
:04002800c8110000fb
:020000040000fa
:04002c00c8110000f7
:020000040000fa
:04003000c8110000f3
:020000040000fa
:04003400c8110000ef
:020000040000fa
:04003800c8110000eb
:020000040000fa
:04003c00c8110000e7
:020000040000fa
:040040001681000025
:020000040000fa
:040044003002000086
:020000040000fa
:04004800c8110000db
:020000040000fa
:04004c0044800000ec
:020000040000fa
:040050006a800000c2
:020000040000fa
:04005400c8110000cf
:020000040000fa
:04005800c8110000cb
:020000040000fa
:04005c00c8110000c7
:020000040000fa
:04006000c8110000c3
:020000040000fa
:04006400c8110000bf
:020000040000fa
:04006800c8110000bb
:020000040000fa
:04006c00c8110000b7
:020000040000fa
:04007000c8110000b3
:020000040000fa
:04007400c8110000af
:020000040000fa
:04007800c8110000ab
:020000040000fa
:04007c00c8110000a7
:020000040000fa
:04008000c8110000a3
:020000040000fa
:04008400ac4c000080
:020000040000fa
:04008800c81100009b
:020000040000fa
:04008c00c811000097
:020000040000fa
:04009000c811000093
:020000040000fa
:04009400c81100008f
:020000040000fa
:04009800c81100008b
:020000040000fa
:04009c00c811000087
:020000040000fa
:0400a000c811000083
:020000040000fa
:0400a400c81100007f
:020000040000fa
:0400a800c81100007b
:020000040000fa
:0400ac00c811000077
:020000040000fa
:0400b000c811000073
:020000040000fa
:0400b400c81100006f
:020000040000fa
:0400b800c81100006b
:020000040000fa
:0400bc00c811000067
:020000040000fa
:0400c0001e680000b6
:020000040000fa
:0400c400c81100005f
:020000040000fa
:0400c800c81100005b
:020000040000fa
:0400cc00c811000057
:020000040000fa
:0400d000c811000053
:020000040000fa
:0400d400c81100004f
:020000040000fa
:0400d800c81100004b
:020000040000fa
:04010800c81100001a
:020000040000fa
:04010c0018020000d5
:020000040000fa
:040110001e020000cb
:020000040000fa
:0401140024020000c1
:020000040000fa
:040118002a020000b7
:020000040000fa
:04011c00c811000006
:020000040000fa
:04012000c811000002
:020000040000fa
:04012400c8110000fe
:020000040000fa
:04012800c8110000fa
:020000040000fa
:04012c00c8110000f6
:020000040000fa
:04013000c8110000f2
:020000040000fa
:04013400c8110000ee
:020000040000fa
:04013800c8110000ea
:020000040000fa
:04013c00c8110000e6
:020000040000fa
:04014000c8110000e2
:020000040000fa
:04014400c8110000de
:020000040000fa
:04014800c8110000da
:020000040000fa
:04014c00c8110000d6
:020000040000fa
:04015000c8110000d2
:020000040000fa
:04015400c8110000ce
:020000040000fa
:04015800c8110000ca
:020000040000fa
:04015c00c8110000c6
:020000040000fa
:04016000c8110000c2
:020000040000fa
:04016400c8110000be
:020000040000fa
:04016800c8110000ba
:020000040000fa
:04016c00c8110000b6
:020000040000fa
:04017000c8110000b2
:020000040000fa
:04017400c8110000ae
:020000040000fa
:04017800c8110000aa
:020000040000fa
:04017c00c8110000a6
:020000040000fa
:04018000c8110000a2
:020000040000fa
:04018400c81100009e
:020000040000fa
:04018800c81100009a
:020000040000fa
:04018c00c811000096
:020000040000fa
:04019000c811000092
:020000040000fa
:04019400c81100008e
:020000040000fa
:04019800c81100008a
:020000040000fa
:04019c00c811000086
:020000040000fa
:0401a000c811000082
:020000040000fa
:0401a400c81100007e
:020000040000fa
:0401a800c81100007a
:020000040000fa
:0401ac00c811000076
:020000040000fa
:0401b000c811000072
:020000040000fa
:0401b400c81100006e
:020000040000fa
:0401b800c81100006a
:020000040000fa
:0401bc00c811000066
:020000040000fa
:0401c000c811000062
:020000040000fa
:0401c400c81100005e
:020000040000fa
:0401c800c81100005a
:020000040000fa
:0401cc00c811000056
:020000040000fa
:0401d000c811000052
:020000040000fa
:0401d400c81100004e
:020000040000fa
:0401d800c81100004a
:020000040000fa
:10020000afd820000e7f22000e0188000000000001
:10021000000020000000e000020032000001200089
:1002200020028800140007005b0807000000e000bf
:1002300003003a00a013280001002000020037004c
:100240000000200001002000810f7000010032003a
:1002500014000700000020000000e000020032004f
:1002600000000200000000006082020000000000a8
:100270000040da000000fe004440a9008020200079
:100280000000e0000300320000002000a001880010
:100290004440a800000006008a1f78008b1f7800e9
:1002a0000000060091018800800478000000eb0047
:1002b0001a003700e284440032a0b4009905ba0065
:1002c000e284440032a0b4009906ba00e2844400fb
:1002d00032a0b4000006eb00476fde00fd07b2005d
:1002e000636ce10003003a00ebff07000000eb0045
:1002f0000a003700606ce10004003a00005deb008a
:100300008b05e900fdff3e00040037006168e10055
:10031000010032000086eb000b00070019c7ba008d
:100320001905ba000e04e00003003a000a00e000dc
:10033000e0ff3a0000000600fe07b2009e018800c0
:100340008a047800f5ff3700395dba008b05e900b3
:100350000c003200295dba008b05e900080032006c
:100360000c00e00003003a00e284440032a0b40034
:10037000f5ff370019ddba008b05e900faff3a00f6
:100380008904e800e184440032a0b40000000600c3
:100390002c3f0400000000008c3f0400000000001f
:1003a0008040040000000000c44004000000000081
:1003b0000641040000000000364104000000000077
:1003c0002e40040000000000121004000000000095
:1003d0007e0d040000000000c80e040000000000b4
:1003e000ec0d040000000000360f040000000000c7
:1003f0005a0e040000000000a40f040000000000da
:100400000000fa008020a900ffff37000000fa007a
:100410008060a900ffff37000000fa008040a900bb
:10042000ffff37000000fa008080a900ffff3700bf
:100430000000fa008020a900ffff37000000fa004a
:100440008060a900ffff37000000fa008040a9008b
:10045000ffff37000000fa008080a900ffff37008f
:100460003600f800809fbe00829fbe00849fbe00c1
:10047000869fbe000000fa0084e0a9000060fe0034
:10048000a0cf2000104078000080fb007400b9006d
:100490008000780040ca2000008040009040780032
:1004a00080c8b30080cf500044003a00a0cf2000a5
:1004b000104078000080fb007400b9000000780054
:1004c0008080e80040ca20000080400010007800d2
:1004d0000000e00039003a00a0cf20001040780072
:1004e0000080fb007400b9008000780040ca200042
:1004f0000080400071c7b30001487800a0cf200001
:10050000104078000080fb007400b9008000780083
:1005100060ca200000804000a1aa2a0001087800db
:10052000a0cf2000104078000081fb00a042800096
:10053000b14280007411b9008201780002cb200022
:10054000028141000089be00a0cf20001040780049
:100550000080fb007400b90000007800f00040004b
:1005600040ca20000080400010017800a0cf200089
:10057000104078000080fb007400b9008000780013
:1005800040ca200000804000020001000060fe0020
:1005900000d02000104078000080fb007400b900fb
:1005a00000007800ea00400040ca200000804000bf
:1005b00010007800323e07004500370000d02000d0
:1005c000104078000080fb007400b90080007800c3
:1005d00040ca2000008040009040780080c8b300ee
:1005e00080cf50003a003a0000d020001040780040
:1005f0000080fb007400b900000078008080e800f3
:1006000040ca200000804000100078000000e00098
:100610002f003a0000d02000104078000080fb003e
:100620007400b9008000780040ca200000804000bb
:1006300071c7b3000148780000d020001040780056
:100640000080fb007400b9008000780060ca2000c0
:1006500000804000a1aa2a000108780000d02000f4
:10066000104078000081fb00a0428000b142800071
:100670007411b9008201780002cb20000281410090
:100680000089be0000d02000104078000080fb00f0
:100690007400b90000007800f000400040ca20005b
:1006a000008040001001780000d020001040780049
:1006b0000080fb007400b9008000780040ca200070
:1006c0000080400002000100f33d07000060fe00d2
:1006d0000080fa004f03be004f02be004f01be0073
:1006e0004f00be003600f900004006000000fa008e
:1006f00050a52a006043880050a52a006043880066
:100700000080fa00000006000000fa006c28ef00ec
:100710006c28ef000080fa00000006000200fa00da
:100720000040eb00004f78000040eb0010479800bd
:1007300030c0b300104798000040eb00004f780035
:100740001f0037001e80fb007400b9008000780095
:1007500040ca200000804000104078000004e00003
:1007600012003a001e80fb007400b90000007800ff
:100770008080e80040ca200000804000100078001f
:100780000000e00009003a001e80fb007400b90080
:1007900000007800e400400040ca200000804000d3
:1007a000100078000000e000040032006e28ef0026
:1007b000a0c0b300004f78009d0037001e4fe80036
:1007c0001e4090009e40780080cf5000ddff390031
:1007d0001e407800ea4f50009400320090c0a900fb
:1007e0005824ef009823ef00a0cf2000104078009d
:1007f0000080fb007400b9008000780040ca20002f
:100800000080400081c8b30001487800a0cf2000dc
:10081000104078000080fb007400b9008000780070
:1008200060ca2000008040008000eb0001087800d2
:10083000a0cf2000104078000080fb00b1cf200046
:10084000914078000181fb007400b90080007800bd
:10085000a0ca20000080400002087800a0cf20003d
:10086000104078000080fb00e26780007400b9004f
:1008700080007800e0ca2000008040000208780074
:100880000060fe0000d02000104078000080fb00d7
:100890007400b9008000780040ca20000080400049
:1008a00081c8b3000148780000d0200010407800d3
:1008b0000080fb007400b9008000780060ca20004e
:1008c000008040008000eb000108780000d020008c
:1008d000104078000080fb0011d02000914078008b
:1008e0000181fb007400b90080007800a0ca2000dc
:1008f000008040000208780000d0200010407800fe
:100900000080fb00126880007400b900800078004d
:10091000e0ca2000008040000208780040cf20009c
:10092000104078000080fb007400b900800078005f
:1009300040ca20000080400071c7b3000148780021
:1009400040cf2000104078000080fb007400b90008
:100950008000780060ca200000804000a1aa2a0020
:100960000108780040cf2000104078000080fb0094
:1009700051cf2000914078000181fb007400b90044
:1009800080007800a0ca20000080400002087800a3
:1009900040cf2000104078000081fb00a042800082
:1009a000b14280007411b9008201780002cb2000ae
:1009b000028141000089be0040cf20001040780035
:1009c0000080fb007400b90000007800f0004000d7
:1009d00040ca2000008040001001780040cf200075
:1009e000104078000080fb007400b900800078009f
:1009f00040ca20000080400002000100a0cf20007b
:100a0000104078000080fb007400b90000007800fe
:100a1000ea00400040ca200000804000100078003a
:100a20000d3d07000060fe000100370000000000df
:100a30000080fa00000006000400fa00004f780071
:100a400011079800604380000000e000550032006c
:100a50001e80fb007400b9008000780040ca2000ae
:100a600000804000104078000004e00012003a00ce
:100a70001e80fb007400b900000078008080e80050
:100a800040ca200000804000100078000000e00014
:100a900009003a001e80fb007400b90000007800d5
:100aa000e400400040ca20000080400010007800b0
:100ab0000000e000020032006e28ef003a0037002c
:100ac00090c0a9005824ef009823ef000060fe00ba
:100ad0001e80fb007400b9008000780040ca20002e
:100ae0000080400071c7b300014878001e80fb0001
:100af0007400b9008000780060ca200000804000c7
:100b0000a1aa2a00010878001e81fb00a0428000f3
:100b1000b14280007411b9008201780002cb20003c
:100b2000028141000089be001e80fb009e009000f3
:100b3000638140007400b90080007800a0ca2000e2
:100b400000804000020878000060fe001e80fb006c
:100b50007400b90000007800f000400040ca200096
:100b600000804000100178001e80fb007400b90076
:100b70008000780040ca2000008040000200010090
:100b80001e81fb00a0428000b14280007411b900b8
:100b90008201780002cb2000028141000089be0062
:100ba00001003700000000000080fa00000006008d
:100bb0000400fa00004f780011079800604380009d
:100bc0000000e000550032001e80fb007400b900f8
:100bd0008000780040ca200000804000104078006b
:100be0000004e00012003a001e80fb007400b9000f
:100bf000000078008080e80040ca200000804000ab
:100c0000100078000000e00009003a001e80fb00a0
:100c10007400b90000007800e400400040ca2000e1
:100c200000804000100078000000e0000200320068
:100c30006e28ef003a00370090c0a9005824ef005a
:100c40009823ef000060fe001e80fb007400b900d6
:100c50008000780040ca20000080400071c7b300c7
:100c6000014878001e80fb007400b9008000780005
:100c700060ca20000080400051a52a0001087800c9
:100c80001e81fb00a0428000b14280007411b900b7
:100c90008201780002cb2000028141000089be0061
:100ca0001e80fb009e0090000181e8007400b900e6
:100cb00080007800c0ca2000008040000208780050
:100cc0000060fe001e80fb007400b9000000780088
:100cd000f200400040ca200000804000100178006f
:100ce0001e80fb007400b9008000780040ca20001c
:100cf00000804000020001001e81fb00a042800035
:100d0000b14280007411b9008201780002cb20004a
:100d1000028141000089be00010037000000000090
:100d20000080fa00000006000a00fa000040eb0014
:100d3000004f78000040eb0010479800a24280006e
:100d4000b342800012079800230798000080eb0050
:100d50008080eb00300798004107980003003700bf
:100d60000000000001003700000000000060fe00ed
:100d700031658000a0aa2a00808f50000d003a0043
:100d800040ca20009040780070c7b30080cf500068
:100d900008003a000060fe0090c0a9005824ef004f
:100da0009823ef00a165800040ca200001000100e7
:100db000180037003165800050a52a00808f500050
:100dc0000d003a0040ca20009040780070c7b30080
:100dd00080cf500008003a000060fe0090c0a900db
:100de0005824ef009823ef00b165800040ca20002e
:100df00001000100070037000000eb0030658800ab
:100e0000e862a900cb42a800cba2a900e282a80018
:100e1000e902a900d1658000a0aa2a00808f5000b5
:100e20000d003a0080cb20009040780070c7b300de
:100e300080cf500008003a000060fe0090c0a9007a
:100e40005824ef009823ef004166800080cb2000fb
:100e50000100010018003700d165800050a52a006c
:100e6000808f50000d003a0080cb20009040780029
:100e700070c7b30080cf500008003a000060fe0049
:100e800090c0a9005824ef009823ef00516680001d
:100e900080cb200001000100070037000000eb00bc
:100ea000d0658800e2c2a900cb22a800cb82a900ad
:100eb000cbe2a800caa2a90071668000a0aa2a00fd
:100ec000808f50000d003a00c0cc20009040780088
:100ed00070c7b30080cf500008003a000060fe00e9
:100ee00090c0a9005824ef009823ef00e16680002d
:100ef000c0cc20000100010018003700716680009e
:100f000050a52a00808f50000d003a00c0cc200070
:100f10009040780070c7b30080cf500008003a00be
:100f20000060fe00f1668000c0cc200001000100de
:100f300090c0a9005824ef009823ef000700370065
:100f40000000eb0070668800e2a2a900cb02a800b6
:100f5000cb62a900cbc2a800ca82a900306580007c
:100f60000000e00029013a00d06580000000e000a8
:100f700028013a00706680000000e00027013a0076
:100f800090c0a800f00b2000c02288009823ef003a
:100f9000c13b07000060fe00406580000000e000eb
:100fa00006003a00e06580000000e00003003a001f
:100fb000806680000000e0002500320090c0a8009c
:100fc000f00b2000c02288009823ef000060fe0094
:100fd00000322000010020003007980041079800ef
:100fe000a804070080408000e7330700026b800000
:100ff000136b800012079800230798000000eb0095
:10100000306588000000eb00d06588000000eb0030
:101010007066880040ca20008040eb0001487800dc
:1010200080cb20008040eb0001487800c0cc20003d
:101030008040eb00014878000000eb00406588002c
:101040000000eb00e06588000000eb00806688008f
:10105000026b8000136b80001e009000ae009000b9
:1010600000015100818159003e009000ce009000a7
:10107000800f5100818f59000e00390080408000a0
:10108000002507000080eb008080eb00300798000f
:10109000410798000080eb008080eb00100798006b
:1010a000210798001028ef000000eb00d0698800ad
:1010b00095fd07000060fe000060fe00026b8000ee
:1010c000136b8000e06b8000f16b80000001510029
:1010d00081815900b012200001002000800f5100d2
:1010e000818f590006003600283207000060fe009c
:1010f000006b8000116b8000e06b8800f16b880052
:10110000026b8000136b8000a06b8000b16b8000cd
:1011100000015100818159001000200001002000d1
:10112000800f5100818f590006003600330a0700f6
:101130000060fe00006b8000116b8000a06b8800d7
:10114000b16b88006e0707000004e0000500320064
:1011500070438000804088006e28ef00000000008f
:1011600002ff3700026b8000136b8000806b8000f1
:10117000916b80000001510081815900f07c2000ba
:1011800001002000800f5100818f590004003e00b3
:1011900010d5200010407800e14f400014003a00c4
:1011a0000060fe008c080700e0b2200010407800cc
:1011b000e34f500004003a00c06980000000e000e6
:1011c00001003a008a21070010d520008040eb0082
:1011d00001487800007d200001002000ee3b070060
:1011e000006b8000116b8000806b8800916b880021
:1011f0000060fe00026b8000136b8000c06b8000fb
:10120000d16b80000001510081815900e0428000d3
:10121000f1428000800f5100818f59001900390080
:101220009e407800f0ff2d00483607001ecfea00f0
:1012300010d4200010407800e14f40000d003a002b
:101240001e4090000040e800104798001e409000ab
:10125000e94f5000070036008000eb000000eb0073
:10126000062c0700401f200001002000e0428800fb
:10127000f1428800006b8000116b8000c06b880019
:10128000d16b8800026b8000136b8000606b800064
:10129000716b80000001510081815900f0702200c3
:1012a00001002000800f5100818f59000800360096
:1012b000006b8000116b8000606b8800716b880090
:1012c0000060fe00303a070090448800a144880086
:1012d000c0d3200010407800e14f400021003a00c8
:1012e000c06980000000e0001e003200d0d3200062
:1012f00010407800e44f50001a003e00d0d3200088
:10130000104078000004e0001600320000350700ad
:101310000004e00010003a000000eb00c069880003
:10132000c0d320008040eb0001487800d0d32000db
:101330001040780061c0b300d9200700d0d320004e
:101340008040eb00014878000000eb00d069880085
:10135000edfc070003003700c0d3200080c0eb0085
:1013600001487800e0d3200010407800e14f4000b1
:1013700004003a00d51b0700e0d320008040eb00ba
:1013800001487800f0d3200010407800e14f400081
:1013900024003a002125070023003700dc34070031
:1013a0000004e00015003a0090c0a800f00b2000f7
:1013b000c02288009823ef00de3507000000eb0014
:1013c000c0698800c0d320008040eb00014878004d
:1013d000d0d320001040780061c0b300b0200700d7
:1013e000d0d320008040eb00014878000000eb00e3
:1013f000d0698800c4fc07000b003700c0d3200070
:1014000080c0eb00014878000700370000000000b2
:101410000500370000000000030037000000000056
:101420000100370000000000c16980005055250010
:10143000808f50004afe3a00d0d320001040780040
:10144000e54f500048fe3a00c0d32000104078001d
:10145000e14f4000d1ff320044fe37000a00fa009d
:101460000040eb00004f7800e10047000700090052
:101470008058eb000060fe000e00e800c0418800cc
:1014800080c0b3003ae8b7006c28ef00e462a9001e
:10149000c7a2a900de82a900c742a900e862a9008c
:1014a000cb42a800cba2a900e282a800e902a900d1
:1014b0000060fe00dec2a900c782a900c7e2a90041
:1014c000c722a900e2c2a900cb22a800cb82a900b2
:1014d000cbe2a800caa2a9000060fe00dea2a9001b
:1014e000c762a900c7c2a900c702a900e2a2a90059
:1014f000cb02a800cb62a900cbc2a800ca82a90077
:101500000060fe006e28ef000040eb00004f780006
:101510001e80fb006600b9008000780040cf2000ec
:10152000008040008040eb00014878001e80fb00f6
:101530006600b9008000780080cf20000080400065
:1015400021012100010878001e80fb006600b9001f
:1015500000007800e400400040cf20000080400000
:10156000100178001e80fb006600b9008000780042
:1015700040cf200000804000020001001e4fe80024
:101580001e80fb006600b9008000780040cf20007c
:101590000080400011c0b300014878001e80fb00ad
:1015a0006600b9008000780080cf200000804000f5
:1015b00021012100010878001e80fb006600b900af
:1015c00000007800e400400040cf20000080400090
:1015d000100178001e80fb006600b90080007800d2
:1015e00040cf200000804000020001001e4fe800b4
:1015f0001e80fb006600b9008000780040cf20000c
:101600000080400021c0b300014878001e80fb002c
:101610006600b9008000780080cf20000080400084
:1016200021012100010878001e80fb006600b9003e
:1016300000007800e400400040cf2000008040001f
:10164000100178001e80fb006600b9008000780061
:1016500040cf200000804000020001001e4fe80043
:101660000060fe005d000700a0428000b1428000e3
:10167000c06b8800d16b8800a0428000b14280001e
:10168000606b8800716b8800a0428000b1428000ce
:10169000a06b8800b16b8800a0428000b14280003e
:1016a000806b8800916b8800401f200001002000a3
:1016b000e0428800f14288000000eb00c069880029
:1016c0000000eb00d0698800c0d320008040eb0010
:1016d00001487800d0d320008040eb00014878001a
:1016e000e0d320008040eb0001487800f0d32000d8
:1016f0008040eb000148780000d420008040eb00df
:101700000148780010d420008040eb0001487800a8
:10171000fdfb0700e0d420008040eb00014878008a
:10172000f0d420008040eb000148780000d5200074
:101730008040eb0001487800b0d420008040eb00ee
:1017400001487800c0d420008040eb0001487800b8
:10175000d0d420008040eb00014878000060fe00fb
:1017600010d5200080c0eb000148780080d4200014
:101770008040eb000148780090d420008040eb00ce
:1017800001487800a0d420008040eb000148780098
:1017900050d520008040eb00014878000e00e800a2
:1017a000e06a8800e0d5200080c0eb0001487800a6
:1017b000e0b82000104078008080fb00003c200052
:1017c00001007000cf80de00b06a8800c16a880026
:1017d0001028ef000080fa00000006000200fa0066
:1017e0000040eb00004f78001e80fb007400b90041
:1017f0008000780040ca2000008040008040eb005c
:10180000014878001e80fb007400b9008000780059
:1018100060ca2000008040008000eb0001087800d2
:101820001e80fb007400b9008000780080ca200090
:10183000008040008000eb00010878001e80fb0063
:101840007400b90080007800a0ca20000080400029
:1018500021032000010878001e80fb007400b900fd
:1018600080007800c0ca200000804000e101200014
:10187000010878001e80fb007400b9008000780029
:10188000e0ca2000008040008000eb0001087800e2
:101890001e80fb007400b9008000780000cb20009f
:1018a000008140006000b8000089be001e80fb007f
:1018b0007400b9008000780040cb20000080400018
:1018c000e1d72000010878001e80fb007400b900f9
:1018d0008000780060cb20000080400081ec200078
:1018e000010878001e4fe8000060fe001e80fb002b
:1018f0007400b9008000780040ca200000804000d9
:101900008040eb00014878001e80fb007400b900a5
:101910008000780060ca2000008040008000eb005a
:10192000010878001e80fb007400b9008000780078
:1019300080ca2000008040008000eb000108780091
:101940001e80fb007400b90080007800a0ca20004f
:101950000080400021032000010878001e80fb0069
:101960007400b90080007800c0ca200000804000e8
:10197000e1012000010878001e80fb007400b9001e
:1019800080007800e0ca2000008040008000eb006a
:10199000010878001e80fb007400b9008000780008
:1019a00000cb2000008140006000b8000089be002c
:1019b0001e80fb007400b9008000780040cb20003e
:1019c00000804000c1de2000010878001e80fb007e
:1019d0007400b9008000780060cb200000804000d7
:1019e00061f32000010878001e4fe8000060fe004f
:1019f0001e80fb007400b9008000780040ca2000ff
:101a0000008040008040eb00014878001e80fb0011
:101a10007400b9008000780060ca20000080400097
:101a20008000eb00010878001e80fb007400b90004
:101a30008000780080ca2000008040008000eb0019
:101a4000010878001e80fb007400b9008000780057
:101a5000a0ca200000804000210320000108780077
:101a60001e80fb007400b90080007800c0ca20000e
:101a700000804000e1012000010878001e80fb008a
:101a80007400b90080007800e0ca200000804000a7
:101a90008000eb00010878001e80fb007400b90094
:101aa0008000780000cb2000008140006000b8007a
:101ab0000089be001e80fb007400b9008000780021
:101ac00040cb200000804000a1e520000108780004
:101ad0001e80fb007400b9008000780060cb2000fd
:101ae0000080400041fa2000010878001e4fe80005
:101af0000060fe000080fa00000006000200fa000c
:101b0000000f78001e00780090009000a0aa2a0024
:101b1000808f50000f003a001e007800904078003f
:101b200070c7b30080cf50000a003a00cba2a900d2
:101b3000e282a800e862a800cb42a900e902a8005e
:101b4000cba2a900e282a800e862a800cb42a900cb
:101b5000e902a8001e007800300090008000eb0031
:101b60001e01780062029000f20290000001be00a7
:101b70000400be005b3907000004e00014003200de
:101b8000e862a900cb42a800cba2a900e282a8008b
:101b9000e902a900e862a900cb42a800cba2a900f3
:101ba000e282a800e902a9001e0078008000eb0094
:101bb000110098001e0078008040eb00014878007a
:101bc0000060fe001e007800a1aa2a0021009800f3
:101bd0000080fa00000006000200fa00000f780002
:101be0001e00780090009000a0aa2a00808f50006c
:101bf0000f003a001e0078009040780070c7b300d4
:101c000080cf50000a003a00cb82a900cbe2a800a6
:101c1000e2c2a800cb22a900caa2a800cb82a900d8
:101c2000cbe2a800e2c2a800cb22a900caa2a80069
:101c30001e007800300090008000eb001e0178004c
:101c400062029000f20290000001be000400be009b
:101c5000243907000004e00014003200e2c2a900a9
:101c6000cb22a800cb82a900cbe2a800caa2a9007f
:101c7000e2c2a900cb22a800cb82a900cbe2a80037
:101c8000caa2a9001e0078008000eb001100980095
:101c90001e0078008040eb00014878000060fe00e4
:101ca0001e007800a1aa2a00210098000080fa00f6
:101cb000000006000200fa00000f78001e00780005
:101cc00090009000a0aa2a00808f50000f003a00d8
:101cd0001e0078009040780070c7b30080cf50009d
:101ce0000a003a00cb62a900cbc2a800e2a2a80079
:101cf000cb02a900ca82a800cb62a900cbc2a8006f
:101d0000e2a2a800cb02a900ca82a8001e007800a7
:101d1000300090008000eb001e017800620290000d
:101d2000f20290000001be000400be00ed38070082
:101d30000004e00014003200e2a2a900cb02a800d7
:101d4000cb62a900cbc2a800ca82a900e2a2a90066
:101d5000cb02a800cb62a900cbc2a800ca82a9000e
:101d60001e0078008000eb00110098001e00780033
:101d70008040eb00014878000060fe001e00780003
:101d8000a1aa2a00210098000080fa0000000600a5
:101d90000200fa00000f78001e007800900090000a
:101da00050a52a00808f50000f003a001e007800d6
:101db0009040780070c7b30080cf50000a003a000e
:101dc000e862a900cb42a800cba2a800e282a90049
:101dd000e902a800e862a900cb42a800cba2a800b3
:101de000e282a900e902a8001e00780040009000ed
:101df0008000eb001e01780062029000f202900069
:101e00000001be000400be00b63807000004e00078
:101e100014003200e862a900cb42a800cba2a900be
:101e2000e282a800e902a900e862a900cb42a8006a
:101e3000cba2a900e282a800e902a9001e00780056
:101e40008000eb00110098001e0078008040eb003d
:101e5000014878000060fe001e00780051a52a00ad
:101e6000210098000080fa00000006000200fa003d
:101e7000000f78001e0078009000900050a52a0006
:101e8000808f50000f003a001e00780090407800cc
:101e900070c7b30080cf50000a003a00e2c2a90028
:101ea000cb22a800cb82a800cbe2a900caa2a8003e
:101eb000e2c2a900cb22a800cb82a800cbe2a900f5
:101ec000caa2a8001e007800400090008000eb002d
:101ed0001e01780062029000f20290000001be0034
:101ee0000400be007f3807000004e0001400320048
:101ef000e2c2a900cb22a800cb82a900cbe2a800b5
:101f0000caa2a900e2c2a900cb22a800cb82a900e4
:101f1000cbe2a800caa2a9001e0078008000eb0056
:101f2000110098001e0078008040eb000148780006
:101f30000060fe001e00780051a52a0021009800d4
:101f40000080fa00000006000200fa00000f78008e
:101f50001e0078009000900050a52a00808f50004d
:101f60000f003a001e0078009040780070c7b30060
:101f700080cf50000a003a00e2a2a900cb02a800dc
:101f8000cb62a800cbc2a900ca82a800e2a2a90025
:101f9000cb02a800cb62a800cbc2a900ca82a800cd
:101fa0001e007800400090008000eb001e017800c9
:101fb00062029000f20290000001be000400be0028
:101fc000483807000004e00014003200e2a2a90033
:101fd000cb02a800cb62a900cbc2a800ca82a9008c
:101fe000e2a2a900cb02a800cb62a900cbc2a80044
:101ff000ca82a9001e0078008000eb001100980042
:102000001e0078008040eb00014878000060fe0070
:102010001e00780051a52a00210098000080fa00d7
:10202000000006000200fa00000f78001e00780091
:10203000104078000080fb00e10f50000a003200e1
:10204000e20f50000e0032000000e00012003a00e3
:102050000087200010407800e34040001e00780018
:1020600011409800100037001087200010407800c1
:10207000e34040001e007800114098000a0037003d
:102080002087200010407800e34040001e007800c8
:1020900011409800040037001e00780051c3b300bf
:1020a00011409800000000000080fa0000000600c7
:1020b0000800fa00300798000000eb00000f7800dd
:1020c0000000eb00100798003e009000c040900018
:1020d000414798004e4090000080fb00e40f500004
:1020e00002003200e60f500062003a003e0090000d
:1020f000300090000000e80010407800e3406000ed
:1021000040cf2000014878003e0090003000900051
:102110000000e800104078000080fb006c006000c8
:102120004280de0080407800a0cf20000148780087
:1021300040cf2000104078008040e90040cf2000d0
:1021400001487800a0cf2000104078008040e900ce
:10215000a0cf2000014878000060fe003e00900003
:10216000300090000080e800104078000080fb0004
:10217000100798003e00900030009000630040007f
:10218000104078000080fb00000f78001e007800ef
:10219000c800dd001e00900001007000e0678800ac
:1021a000e06780000000d100e06788000060fe006a
:1021b000c167800040cf200001000100f16780006e
:1021c000a0cf2000010001003e00900030009000f0
:1021d0000000e800104078008080fb000003200031
:1021e000008060004480de008040780000d0200045
:1021f0000148780000d02000104078008040e900bd
:1022000000d02000014878000060fe003e009000f1
:102210003000900064004000104078000080fb0017
:10222000100798003e0090003000900065004000cc
:10223000104078000080fb00000f78001e0078003e
:10224000c800dd001e0090000100700010688800ca
:10225000106880000000d100106888000060fe0057
:102260002168800000d020000100010000c0eb00c8
:10227000020037000060fe000040eb000080fa0022
:10228000000006000000fa0041658000a0aa2a00b4
:10229000808f500006003a000060fe00228f200070
:1022a00020002f00f10720008134070009003700cb
:1022b0004165800050a52a00808f500005003a003b
:1022c0000060fe00428f200040002f00f107200038
:1022d00077340700e1658000a0aa2a00808f5000b3
:1022e00006003a000060fe00628f200060002f00b0
:1022f000f10720006e34070009003700e165800017
:1023000050a52a00808f500005003a000060fe00b2
:10231000828f200080002f00f10720006434070026
:1023200081668000a0aa2a00808f500006003a0033
:102330000060fe00a28f2000a0002f00f107200007
:102340005b340700090037008166800050a52a0031
:10235000808f500005003a000060fe00c28f200010
:10236000c0002f00f1072000513407000000eb00ef
:10237000406588000000eb00e06588000000eb008d
:10238000806688000060fe000080fa000000060001
:102390000040da000000fe00000005003200f800f6
:1023a000910188000008bb00410424006210e10094
:1023b00004003200000220000010e1000a003a0090
:1023c00051042400013b88000500fc005105200059
:1023d000313b8800a10a2000313b880061e7a8005a
:1023e00000000000000000003200f90000000600bc
:1023f0003200f80060042400003b8800f2ff370040
:102400003200f8009101880041002400013b88005f
:102410000208bb00ecff37003200f8009101880091
:1024200051002400013b8800030120003218bb004a
:102430008301e900fdff3a00e3ff37003200f800b6
:10244000910188008002780062004000e08048002e
:102450003549ba003204e0000410a7001000320031
:102460008301e9000e0032002549ba003204e00081
:102470000410a7000a0032008301e90008003200be
:102480000408a300eeff320015c9ba003204e000d0
:102490000410a700020032008301e900e8ff3a00bf
:1024a0003200f9000000060003f0a200889fbe0081
:1024b0008a9fbe008c1f7800f7000700fe003300e3
:1024c0006450e1004f0032006420e100520032000d
:1024d00003826c0007003b000905d0000306d00012
:1024e000820f54000c065d00020039000200320029
:1024f00089017800030678008582550004003d00bc
:102500000003fd008103fd008502ea008b85420087
:10251000840f720002003b0060001000e080180091
:102520006011b8000005eb007a28e1000a003900cc
:1025300006007800c75ddd00f707b20087807500f0
:102540002d003700828171000a017800610560006a
:102550008180d1000080d3008502e900f9ff3b00b3
:10256000060440008784480002003b006004140019
:10257000e0841c000988a300070032008a817100f2
:1025800082817100610164008904d1000884d30054
:102590008b05e800170037000978a30013003a0004
:1025a0000b00e000130034008b05e9000804440030
:1025b00089844c000a4474000978a3000d003a0095
:1025c0000b00e000070034008b05e900080444001c
:1025d00089844c0001003a000b0020000978a30018
:1025e000f7ff32000001eb0002003700828171002a
:1025f0000a0178006d0007000cf0a70001f0a000b0
:10260000b60037006420e10002003a00838f6c00be
:10261000b60033000801be000200be00af00370064
:10262000889fbe008a9fbe008c1f78009a0007001a
:10263000a100330003866c006450e1002e003200dc
:102640006420e100330032006150e1002f003200cd
:102650006120e1003100320085855500eb07b000b4
:102660000900200008042000050037000804440089
:1026700089844c000a0031000603430087834b0025
:102680000001530081815b00f8ff33000203be00ac
:102690000800a0000804440089844c00f6ff3900bb
:1026a000c639dd00830173000100320013002000f1
:1026b0008904d1000884d3000998a30005003200e2
:1026c0000800a7000300a0008904d1000884d300fb
:1026d0008b05e8008904d1000884d3000001eb00d9
:1026e0000281d2003100070001f0a1000cf0a70028
:1026f00001f0a000790037006420e1007b00320087
:102700000801be000200be00f7ff37006120e100b3
:10271000760032006000b800f3ff370000002000b0
:1027200001f82700f0ff370014002000a600370052
:10273000f4ff2f00a40037000001be004100070095
:102740000470a70003f0a10003f8a30013003a00ef
:102750006509b10010003200090035006928e10068
:1027600002003500010028000000050000004000c4
:10277000818048008502e900fcff3a000000060065
:10278000f88f4200050035008100d1000080d300a1
:102790008502e800fcff3a00000006008000eb0024
:1027a000000005006011b800a20037008100200081
:1027b000618055000b003d000b00200061fe2f00e2
:1027c0000100e1001d00340082817100610164009c
:1027d0008904d1000884d3000000e800faff3a0021
:1027e00071002000610064000300700002006000be
:1027f0000900320061044400e0844c000988a5000f
:10280000050032008b05e8006808e10002003a008c
:102810008904d1000884d300f20f20000258e1009f
:1028200005003d00c75ddd00f907b2008980750035
:1028300008007800000006000bf827008b007800e5
:1028400000000500c70ade00f107b200f50fb20074
:1028500008003200e1cf4200020032000170a00007
:1028600024000500810f70000100320004080500fb
:1028700044000500810f700002003a0014000500ba
:102880008502e9000000400081c04800fcff3b00d9
:102890000170a000240005000004be00e9ff07004d
:1028a0000003be000405be000200be00e5ff0700f5
:1028b000844f7500000006000200be006450e10075
:1028c000050036006420e100020036000968a3001c
:1028d00001003a000800be000160a0004f06780029
:1028e0004f05be004f04be0000000600f0ff2f00a1
:1028f000f1ff2700f9ff3700889fbe008a9fbe00c6
:102900008c1f7800e4ff0700ebff330003866c00a8
:102910006450e100240032006420e100270032000e
:102920006150e100220032006120e100210032000c
:102930008b854200eb07b1000134b800003ab800c3
:102940000804420089844a00013ab8000030b80007
:102950008880400009014a00040033000000400064
:1029600081804800020149008b05e900c909dd00aa
:10297000830170000100320013002000c814de0043
:102980004814dd004709de001200b200c808de006e
:102990000884700085ff070001f0a1000cf0a7007b
:1029a00001f0a000cdff37006120e100cfff320031
:1029b0000801be000200be00f7ff37006150e100d1
:1029c000fcff3a00c9ff3700889fbe008a9fbe0007
:1029d000841f7800b0ff07004f007800110033001b
:1029e000f0ff2f00838f6c0006003b00040565009c
:1029f0000a00a7000800370009f0a6001000200018
:102a000008003700820f5400838f5c0003003900f8
:102a10001000200001003e000000200009f0a70087
:102a20000000ea004f05be004f04be000000e000b9
:102a300000000600889fbe008a9fbe0000827000d2
:102a40000402710004827100260032000004be00fe
:102a50000200be006011b8006b0920009502200042
:102a60000182cf000a0039000541b1000082cf0089
:102a7000070039000541b1000982cf000400390088
:102a80000541b1000882cf00010039000541b100c5
:102a900005425200120032000a003b0082817100a0
:102aa000610164008100d1000080d3008984d300db
:102ab0000884d3008b05e8000442e800f7ff3a00e1
:102ac000070037000804440089844c0000004800d7
:102ad000818048008b05e9000442e900f9ff3a00d3
:102ae00032ff07004f05be004f04be000000060085
:020000040000fa
:102af00000c100008140000001c0000080410000d2
:102b000001c000008041000000c1000081400000c1
:102b100001c000008041000000c1000081400000b1
:102b200000c100008140000001c0000080410000a1
:102b300001c000008041000000c100008140000091
:102b400000c100008140000001c000008041000081
:102b500000c100008140000001c000008041000071
:102b600001c000008041000000c100008140000061
:102b700001c000008041000000c100008140000051
:102b800000c100008140000001c000008041000041
:102b900000c100008140000001c000008041000031
:102ba00001c000008041000000c100008140000021
:102bb00000c100008140000001c000008041000011
:102bc00001c000008041000000c100008140000001
:102bd00001c000008041000000c1000081400000f1
:102be00000c100008140000001c0000080410000e1
:102bf00001c000008041000000c1000081400000d1
:102c000000c100008140000001c0000080410000c0
:102c100000c100008140000001c0000080410000b0
:102c200001c000008041000000c1000081400000a0
:102c300000c100008140000001c000008041000090
:102c400001c000008041000000c100008140000080
:102c500001c000008041000000c100008140000070
:102c600000c100008140000001c000008041000060
:102c700000c100008140000001c000008041000050
:102c800001c000008041000000c100008140000040
:102c900001c000008041000000c100008140000030
:102ca00000c100008140000001c000008041000020
:102cb00001c000008041000000c100008140000010
:102cc00000c100008140000001c000008041000000
:102cd00000c100008140000001c0000080410000f0
:102ce00001c000008041000000c1000081400000e0
:102cf00000c00000c1010000c303000002c20000c8
:102d0000c606000007c7000005c50000c404000097
:102d1000cc0c00000dcd00000fcf0000ce0e000047
:102d20000aca0000cb0b0000c909000008c8000057
:102d3000d818000019d900001bdb0000da1a0000c7
:102d40001ede0000df1f0000dd1d00001cdc000097
:102d500014d40000d5150000d717000016d60000c7
:102d6000d212000013d3000011d10000d0100000d7
:102d7000f030000031f1000033f30000f2320000c7
:102d800036f60000f7370000f535000034f4000097
:102d90003cfc0000fd3d0000ff3f00003efe000047
:102da000fa3a00003bfb000039f90000f838000057
:102db00028e80000e9290000eb2b00002aea0000c7
:102dc000ee2e00002fef00002ded0000ec2c000097
:102dd000e424000025e5000027e70000e6260000c7
:102de00022e20000e3230000e121000020e00000d7
:102df000a060000061a1000063a30000a2620000c7
:102e000066a60000a7670000a565000064a4000096
:102e10006cac0000ad6d0000af6f00006eae000046
:102e2000aa6a00006bab000069a90000a868000056
:102e300078b80000b9790000bb7b00007aba0000c6
:102e4000be7e00007fbf00007dbd0000bc7c000096
:102e5000b474000075b5000077b70000b6760000c6
:102e600072b20000b3730000b171000070b00000d6
:102e700050900000915100009353000052920000c6
:102e80009656000057970000559500009454000096
:102e90009c5c00005d9d00005f9f00009e5e000046
:102ea0005a9a00009b5b0000995900005898000056
:102eb00088480000498900004b8b00008a4a0000c6
:102ec0004e8e00008f4f00008d4d00004c8c000096
:102ed00044840000854500008747000046860000c6
:102ee00082420000438300004181000080400000d6
:102ef000596f00006e670000436900000000000089
:020000040000fa
:102f00000000fa00881f78000060fe007043800017
:102f100051a22a00810f50008f00320051a22a00d6
:102f2000810f50000a003e0031a22a00810f50009c
:102f30003600320031a22a00810f500067003e00a7
:102f400021a22a00810f50000e0032001d0137001f
:102f500071a22a00810f5000bd00320071a22a0028
:102f6000810f50009b00390081a22a00810f500080
:102f7000d600320091a22a00810f5000f2003200e8
:102f8000100137000060fe00209020009040780083
:102f9000f0c3b30080cf500019003a00482a070060
:102fa0000000e00016003200604380000000e000f6
:102fb00003003a006e28ef0000c0eb000301370069
:102fc000d6f50700d0d3200051c0b30001487800e7
:102fd0000060fe00b0d4200011c0b30001487800aa
:102fe000c0d4200041c0b30001487800d0d42000f4
:102ff00001c1b3000148780000c0eb00f3003700c6
:103000006e28ef0000c0eb00f00037000060fe000b
:10301000604380000000e00003003a006e28ef00eb
:1030200000c0eb00e90037002090200090407800bd
:10303000f0c3b30080cf500025003a00202a0700db
:103040000000e000220032000060fe003087200017
:10305000104078000080fb00800078000040eb000a
:10306000d3f6070040872000104078000080fb0066
:103070008000780010c0b300cdf607005087200014
:10308000104078000080fb008000780020c0b30072
:10309000c7f60700d0d3200041c0b3000148780034
:1030a0000060fe00b0d4200021c0b30001487800c9
:1030b000c0d4200081c0b30001487800d0d42000e3
:1030c00001c2b3000148780000c0eb00bf00370028
:1030d0006e28ef0000c0eb00bc0037000060fe006f
:1030e000b4438000c54380003045800041458000e6
:1030f00018c0b3000001be000400be008cfd070034
:103100000000e00001003d000044eb000804e00086
:103110000e00320000872000104078000080fb0085
:10312000800078000040eb0043f60700b0d4200098
:1031300021c0b30001487800d0d3200021c0b300e3
:103140000148780000c0eb00a00037006e28ef00b7
:1031500000c0eb009d0037000060fe00b44380001b
:10316000c5438000304580004145800018c0b30051
:103170000001be000400be006dfd07000000e0007d
:1031800001003d000044eb000804e0000e003200a6
:1031900030872000104078000080fb00800078001d
:1031a0000040eb0082f60700b0d4200011c0b3004d
:1031b00001487800d0d3200041c0b3000148780016
:1031c00000c0eb00810037006e28ef0000c0eb006c
:1031d0007e0037000060fe00d4438000e54380009d
:1031e000704580008145800018c0b3000001be001a
:1031f0000400be004efd07000000e00001003d009d
:103200000044eb000804e0000e00320010872000ac
:10321000104078000080fb008000780010c0b300f0
:1032200005f60700c0d4200081c0b3000148780033
:10323000d0d3200021c0b3000148780000c0eb00cb
:10324000620037006e28ef0000c0eb005f0037001f
:103250000060fe00d4438000e5438000704580009c
:103260008145800018c0b3000001be000400be000c
:103270002ffd07000000e00001003d000044eb00ce
:103280000804e0000e003200408720001040780063
:103290000080fb008000780010c0b30044f60700f7
:1032a000c0d4200041c0b30001487800d0d3200032
:1032b00041c0b3000148780000c0eb004300370074
:1032c0006e28ef0000c0eb00400037000060fe00f9
:1032d000f443800005448000b0458000c145800073
:1032e00018c0b3000001be000400be0010fd0700be
:1032f0000000e00001003d000044eb000804e00095
:103300000e00320020872000104078000080fb0073
:103310008000780020c0b300c7f50700d0d420009b
:1033200001c2b30001487800d0d3200021c0b3000f
:103330000148780000c0eb00240037006e28ef0041
:1033400000c0eb00210037000060fe00f443800065
:1033500005448000b0458000c145800018c0b3001e
:103360000001be000400be00f1fc07000000e00008
:1033700001003d000044eb000804e0000e003200b4
:1033800050872000104078000080fb00800078000b
:1033900020c0b30006f60700d0d4200001c1b3005e
:1033a00001487800d0d3200041c0b3000148780024
:1033b00000c0eb00050037006e28ef0000c0eb00f6
:1033c000020037000060fe000040eb004f04780070
:1033d0000080fa00000006000000fa000060fe0015
:1033e00020d520009040780010ccb30080cf500052
:1033f00004003200e08f200010407800f04f5000b1
:1034000015003a000041eb00f1fd2f000080200084
:10341000fe2d0700e08f200010407800f04f500094
:1034200008003a0000c1eb00f1ff2e00000220006e
:10343000f62d070000c1eb00f1df2f004000200057
:10344000f22d07000060fe003090200001c1b300a3
:10345000014878000b0037003090200010407800c1
:10346000f04f500003003a00309020008040eb0005
:103470000148780000c1eb00f1fd2f000080200022
:10348000e22d070030d520009040780020ccb3001a
:1034900080cf500004003200f08f200010407800f0
:1034a000f14f500015003a000041eb00f1fe2f00f3
:1034b00000002100d52d0700f08f2000104078007b
:1034c000f14f500008003a0000c1eb00f17f2f00df
:1034d00000012000cd2d070000c1eb00f1f72f0007
:1034e00080002000c92d07000060fe003090200001
:1034f00011c1b300014878000b0037003090200064
:1035000010407800f14f500003003a003090200046
:103510008040eb000148780000c1eb00f1fe2f0075
:1035200000002100b92d070040d520009040780010
:1035300030ccb30080cf5000040032000090200057
:1035400010407800f24f500015003a000041eb00a7
:1035500071ff2f0000402000ac2d070000902000dc
:1035600010407800f24f500008003a0000c1eb0014
:10357000f1bf2f0000042000a42d070000c1eb00c4
:10358000f1fb2f0020002000a02d07000060fe00ae
:103590003090200021c1b300014878000b003700b3
:1035a0003090200010407800f24f500003003a00a5
:1035b000309020008040eb000148780000c1eb0013
:1035c00071ff2f0000402000902d07003090200058
:1035d00010407800f04f5000010132003090200080
:1035e00010407800f14f5000ff0032003090200072
:1035f00010407800f24f5000fd0032003090200063
:103600008040eb00014878000060fe00e08f200061
:103610009040780050c3b30080cf500016003a00ad
:103620000041eb00f1df2f0040002000772d070064
:1036300000c1eb00f1ff2e0000022000732d0700f7
:103640000060fe0050d520009040780050cbb300c1
:1036500080cf500022003a00401f200001002000cf
:10366000e0428800f142880050d520008040eb0005
:10367000014878001a003700e08f20009040780061
:1036800040c3b30080cf500015003a000041eb006a
:10369000f1ff2e00000220005c2d070000c1eb00ae
:1036a000f1df2f0040002000582d07000060fe00d1
:1036b00050d520009040780040cbb30080cf500020
:1036c00007003a00401f200001002000e04288006f
:1036d000f142880050d520008040eb00014878007e
:1036e0000060fe00f08f20009040780070c3b300af
:1036f00080cf500016003a000041eb00f1f72f0098
:1037000080002000412d070000c1eb00f17f2f0059
:10371000000120003d2d07000060fe0050d5200074
:103720009040780070cbb30080cf500022003a0068
:10373000401f200001002000e0428800f142880084
:1037400050d520008040eb00014878001a00370077
:10375000f08f20009040780060c3b30080cf50000d
:1037600015003a000041eb00f17f2f00000120001e
:10377000262d070000c1eb00f1f72f00800020008c
:10378000222d07000060fe0050d5200090407800f8
:1037900060cbb30080cf500007003a00401f2000ec
:1037a00001002000e0428800f142880050d520004e
:1037b0008040eb00014878000060fe00009020008f
:1037c0009040780090c3b30080cf500016003a00bc
:1037d0000041eb00f1fb2f00200020000b2d070023
:1037e00000c1eb00f1bf2f0000042000072d0700ef
:1037f0000060fe0050d520009040780090cbb300d0
:1038000080cf500022003a00401f2000010020001d
:10381000e0428800f142880050d520008040eb0053
:10382000014878001a00370000902000904078008e
:1038300080c3b30080cf500015003a000041eb0078
:10384000f1bf2f0000042000f02c070000c1eb00a6
:10385000f1fb2f0020002000ec2c07000060fe0090
:1038600050d520009040780080cbb30080cf50002e
:1038700007003a00401f200001002000e0428800bd
:10388000f142880050d520008040eb0001487800cc
:103890000060fe00f08f20009040780070c3b300fd
:1038a00080cf500020003a00e08f20009040780048
:1038b00050c3b30080cf50001b003a00009020009e
:1038c0009040780090c3b30080cf500016003a00bb
:1038d0000041eb00f1ff270000082000cb2c07007f
:1038e00000c1eb00f1ff2b0000202000c72c0700d7
:1038f0000060fe0050d520009040780020cbb3003f
:1039000080cf50003b003a00401f20000100200003
:10391000e0428800f142880050d520008040eb0052
:103920000148780033003700f08f20009040780085
:1039300060c3b30080cf500020003a00e08f200029
:103940009040780040c3b30080cf50001b003a0085
:10395000009020009040780080c3b30080cf5000da
:1039600016003a000041eb00f1ff2b000020200080
:10397000a62c070000c1eb00f1ff27000008200083
:10398000a22c07000060fe0050d520009040780077
:1039900030cbb30080cf500016003a00401f20000b
:1039a00001002000e0428800f142880050d520004c
:1039b0008040eb00014878000e00370000c1eb00aa
:1039c000f1ff270000082000902c070000c1eb0049
:1039d000f1ff2b00002020008c2c07000500370091
:1039e0000000000003003700000000000100370065
:1039f000000000000080fa00000006000000fa004d
:103a0000881f7800f82b0700c0428800d142880048
:103a1000604380000000e000eb033a000060fe001d
:103a2000c2428000d34280009088200041002000e4
:103a3000800f5100818f590028003a0020d22000c9
:103a4000104078000004e00024003a000060fe000e
:103a5000c0d02000104078008040e800c0d0200096
:103a600001487800c0d0200010407800fd4f500081
:103a7000300036000060fe0020d2200011c0b300ec
:103a800001487800c0d020008040eb000148780059
:103a9000e08f20009040780050c3b30080cf5000ea
:103aa0000a003200f08f20009040780070c3b3000d
:103ab00080cf500005003200009020009040780038
:103ac00090c3b30080cf500019003a0020a22a0012
:103ad0007043880005f3070016003700c2428000db
:103ae000d34280009088200041002000800f5100c8
:103af000818f59000f0032000060fe00c0d020000e
:103b0000104078000004e00005003200c0d0200022
:103b1000104078008040e900c0d0200001487800c3
:103b200020d220008040eb000148780001003700df
:103b300000000000c2428000d342800030222000fa
:103b400001012000800f5100818f59003c003a0094
:103b5000c2428000d342800000012000010020000a
:103b600002027800030178008001780001007800eb
:103b700003026200000061008000eb00c000dd0075
:103b8000000020000001be006120b80000017100ab
:103b900081817100e00f5100e08f590028003a0048
:103ba00030d22000104078000004e00024003a00e9
:103bb000d0d02000104078008040e800d0d0200015
:103bc000014878000060fe00d0d02000104078004e
:103bd000fd4f5000440036000060fe0030d220004f
:103be00011c0b30001487800d0d020008040eb0025
:103bf00001487800e08f20009040780040c3b30077
:103c000080cf50000a003200f08f200090407800f2
:103c100060c3b30080cf5000050032000090200048
:103c20009040780080c3b30080cf50002d003a0050
:103c300030a22a0070438800acf207002a00370047
:103c4000c2428000d34280003022200001012000c7
:103c5000800f5100818f590014003a00c242800049
:103c6000d342800000012000010020000202780001
:103c700003017800800178000100780003026200ef
:103c8000000061008000eb00c000dd0000002000ab
:103c90000001be006120b800000171008181710047
:103ca000e00f5100e08f59000f003200d0d020000b
:103cb000104078000004e000060032000060fe00c2
:103cc000d0d02000104078008040e900d0d0200003
:103cd0000148780030d220008040eb000148780095
:103ce0000100370000000000c2428000d342800083
:103cf00090042000010020000202780003017800f7
:103d00008001780001007800030262000000610079
:103d10008000eb00c000dd00000020000001be00bc
:103d20006120b800000171008181710080042000d1
:103d300001002000800f5100818f59002b003a00b4
:103d4000b4438000c5438000304580004145800079
:103d500018c0b3000001be000400be0074fa0700e2
:103d60000000e00001003d000044eb000804e0001a
:103d70001e00320040d22000104078000004e00015
:103d80001a003a000060fe00e0d0200010407800e9
:103d90008040e800e0d0200001487800e0d020001a
:103da00010407800fd4f5000450036000060fe00d6
:103db00040d2200011c0b30001487800e0d02000bc
:103dc0008040eb0001487800e08f200090407800b0
:103dd00050c3b30080cf500038003a0040a22a0000
:103de0007043880041f2070035003700c24280006e
:103df000d3428000900420000100200002027800dd
:103e0000030178008001780001007800030262005d
:103e1000000061008000eb00c000dd000000200019
:103e20000001be006120b8000001710081817100b5
:103e30008004200001002000800f5100818f590074
:103e40000f003a00b4438000c54380003045800035
:103e50004145800018c0b3000001be000400be0050
:103e600033fa07000000e00001003d000044eb00d1
:103e7000084078000004a2000004e00010003200b6
:103e80000060fe00e0d02000104078000004e00058
:103e9000060032000060fe00e0d0200010407800f4
:103ea0008040e900e0d020000148780040d22000a6
:103eb0008040eb000148780001003700000000005e
:103ec000c2428000d3428000301020000100200058
:103ed0000202780003017800800178000100780078
:103ee00003026200000061008000eb00c000dd0002
:103ef000000020000001be006120b8000001710038
:103f0000818171002010200001002000800f5100ed
:103f1000818f59003f003a00c2428000d3428000a6
:103f20000001200001002000020278000301780057
:103f30008001780001007800030262000000610047
:103f40008000eb00c000dd00000020000001be008a
:103f50006120b8000001710081817100e00f510003
:103f6000e08f59002b003a00b4438000c543800025
:103f7000304580004145800018c0b3000001be00fc
:103f80000400be00eaf907000000e00001003d0067
:103f90000044eb000804e0001e00320050d2200074
:103fa000104078000004e0001a003a00f0d0200031
:103fb000104078008040e800f0d0200001487800f0
:103fc0000060fe00f0d0200010407800fd4f50004f
:103fd000590036000060fe0050d2200011c0b3002e
:103fe00001487800f0d020008040eb0001487800c4
:103ff000e08f20009040780040c3b30080cf500095
:104000004c003a0050a22a0070438800b7f1070024
:1040100049003700c2428000d342800030102000a7
:10402000010020000202780003017800800178007e
:104030000100780003026200000061008000eb00d4
:10404000c000dd00000020000001be006120b800bb
:10405000000171008181710020102000010020000a
:10406000800f5100818f590023003a00c242800026
:10407000d3428000000120000100200002027800ed
:1040800003017800800178000100780003026200db
:10409000000061008000eb00c000dd000000200097
:1040a0000001be006120b800000171008181710033
:1040b000e00f5100e08f59000f003a00b443800038
:1040c000c5438000304580004145800018c0b300e2
:1040d0000001be000400be0095f907000000e000ea
:1040e00001003d000044eb00084078000004a200fd
:1040f0000004e000100032000060fe00f0d020005c
:10410000104078000004e000060032000060fe006d
:10411000f0d02000104078008040e900f0d020006e
:104120000148780050d220008040eb000148780020
:104130000100370000000000c2428000d34280002e
:1041400010482000010020000202780003017800de
:104150008001780001007800030262000000610025
:104160008000eb00c000dd00000020000001be0068
:104170006120b800000171008181710000482000b9
:1041800001002000800f5100818f59002b003a0060
:10419000d4438000e5438000704580008145800065
:1041a00018c0b3000001be000400be0060f90700a3
:1041b0000000e00001003d000044eb000804e000c6
:1041c0001e00320060d22000104078000004e000a1
:1041d0001a003a000060fe0000d120001040780074
:1041e0008040e80000d120000148780000d1200084
:1041f00010407800fd4f5000450036000060fe0082
:1042000060d2200011c0b3000148780000d1200026
:104210008040eb0001487800f08f2000904078004b
:1042200070c3b30080cf500038003a0060a22a006b
:10423000704388002df1070035003700c24280002e
:10424000d3428000104820000100200002027800c4
:104250000301780080017800010078000302620009
:10426000000061008000eb00c000dd0000002000c5
:104270000001be006120b800000171008181710061
:104280000048200001002000800f5100818f59005c
:104290000f003a00d4438000e54380007045800061
:1042a0008145800018c0b3000001be000400be00bc
:1042b0001ff907000000e00001003d000044eb0092
:1042c000084078000004a2000004e0001000320062
:1042d0000060fe0000d12000104078000004e000e3
:1042e000060032000060fe0000d12000104078007f
:1042f0008040e90000d120000148780060d2200011
:104300008040eb0001487800010037000000000009
:10431000c2428000d3428000100221000100200030
:104320000202780003017800800178000100780023
:1043300003026200000061008000eb00c000dd00ad
:10434000000020000001be006120b80000017100e3
:10435000818171000002210001002000800f5100c6
:10436000818f59003e003a00c2428000d342800053
:104370000001200001002000020278000301780003
:1043800080017800010078000302620000006100f3
:104390008000eb00c000dd00000020000001be0036
:1043a0006120b8000001710081817100e00f5100af
:1043b000e08f59002a003a00d4438000e543800092
:1043c000704580008145800018c0b3000001be0028
:1043d0000400be00d6f807000000e00001003d0028
:1043e0000044eb000804e0001d00320070d2200001
:1043f000104078000004e00019003a0010d12000bd
:10440000104078008040e80010d12000014878007a
:104410000060fe0010d1200010407800fd4f5000d9
:104420005700360070d2200011c0b3000148780058
:1044300010d120008040eb0001487800f08f200070
:104440009040780060c3b30080cf50004b003a002a
:1044500070a22a0070438800a4f0070048003700cb
:10446000c2428000d34280001002210001002000df
:1044700002027800030178008001780001007800d2
:1044800003026200000061008000eb00c000dd005c
:10449000000020000001be006120b8000001710092
:1044a000818171000002210001002000800f510075
:1044b000818f590023003a00c2428000d34280001d
:1044c00000012000010020000202780003017800b2
:1044d00080017800010078000302620000006100a2
:1044e0008000eb00c000dd00000020000001be00e5
:1044f0006120b8000001710081817100e00f51005e
:10450000e08f59000f003a00d4438000e54380005b
:10451000704580008145800018c0b3000001be00d6
:104520000400be0082f807000000e00001003d002a
:104530000044eb00084078000004a2000004e00002
:104540000f0032000060fe0010d120001040780003
:104550000004e0000500320010d120001040780077
:104560008040e90010d120000148780070d220007e
:104570008040eb0001487800010037000000000097
:10458000c2428000d342800010802400010020003d
:1045900002027800030178008001780001007800b1
:1045a00003026200000061008000eb00c000dd003b
:1045b000000020000001be006120b8000001710071
:1045c000818171000080240001002000800f5100d3
:1045d000818f59002b003a00f4438000054480008d
:1045e000b0458000c145800018c0b3000001be0086
:1045f0000400be004ef807000000e00001003d008e
:104600000044eb000804e0001e00320080d22000cd
:10461000104078000004e0001a003a000060fe003c
:1046200020d12000104078008040e80020d12000f8
:104630000148780020d1200010407800fd4f500044
:10464000450036000060fe0080d2200011c0b3009b
:104650000148780020d120008040eb00014878001c
:10466000009020009040780090c3b30080cf5000ad
:1046700038003a0080a22a00704388001bf007002f
:1046800035003700c2428000d342800010802400f1
:104690000100200002027800030178008001780008
:1046a0000100780003026200000061008000eb005e
:1046b000c000dd00000020000001be006120b80045
:1046c0000001710081817100008024000100200040
:1046d000800f5100818f59000f003a00f443800091
:1046e00005448000b0458000c145800018c0b3007b
:1046f0000001be000400be000df807000000e0004d
:1047000001003d000044eb00084078000004a200d6
:104710000004e000100032000060fe0020d1200004
:10472000104078000004e000060032000060fe0047
:1047300020d12000104078008040e90020d12000e6
:104740000148780080d220008040eb0001487800ca
:104750000100370000000000c2428000d342800008
:1047600010202000110020000202780003017800d0
:1047700080017800010078000302620000006100ff
:104780008000eb00c000dd00000020000001be0042
:104790006120b800000171008181710000202000bb
:1047a00011002000800f5100818f59003e003a0017
:1047b000c2428000d342800000012000010020009e
:1047c000020278000301780080017800010078007f
:1047d00003026200000061008000eb00c000dd0009
:1047e000000020000001be006120b800000171003f
:1047f00081817100e00f5100e08f59002a003a00da
:10480000f443800005448000b0458000c14580002d
:1048100018c0b3000001be000400be00c4f70700ca
:104820000000e00001003d000044eb000804e0004f
:104830001d00320090d22000104078000004e000fb
:1048400019003a0030d12000104078008040e80084
:1048500030d12000014878000060fe0030d12000f7
:1048600010407800fd4f50005700360090d22000d5
:1048700011c0b3000148780030d120008040eb0027
:1048800001487800009020009040780080c3b30079
:1048900080cf50004b003a0090a22a00704388005d
:1048a00092ef070048003700c2428000d3428000e8
:1048b000102020001100200002027800030178007f
:1048c00080017800010078000302620000006100ae
:1048d0008000eb00c000dd00000020000001be00f1
:1048e0006120b8000001710081817100002020006a
:1048f00011002000800f5100818f590023003a00e1
:10490000c2428000d342800000012000010020004c
:10491000020278000301780080017800010078002d
:1049200003026200000061008000eb00c000dd00b7
:10493000000020000001be006120b80000017100ed
:1049400081817100e00f5100e08f59000f003a00a3
:10495000f443800005448000b0458000c1458000dc
:1049600018c0b3000001be000400be0070f70700cd
:104970000000e00001003d000044eb00084078002a
:104980000004a2000004e0000f0032000060fe00fe
:1049900030d12000104078000004e0000500320013
:1049a00030d12000104078008040e90030d1200054
:1049b0000148780090d220008040eb000148780048
:1049c0000100370000000000c2428000d342800096
:1049d000200020000100200002027800030178007e
:1049e000800178000100780003026200000061008d
:1049f0008000eb00c000dd00000020000001be00d0
:104a00006120b8000001710081817100e00f510048
:104a1000e08f59001e003200a0d220001040780024
:104a20000004e0001a003a000060fe0040d12000bf
:104a3000104078008040e80040d120000148780014
:104a400040d1200010407800fd4f5000310036006a
:104a5000a0d2200011c0b3000148780040d120004e
:104a60008040eb0001487800e08f200041c3b30094
:104a70000148780080d4200021c0b30001487800ac
:104a800010d5200080c0eb000148780021003700dd
:104a9000c2428000d342800020002000010020009c
:104aa000020278000301780080017800010078009c
:104ab00003026200000061008000eb00c000dd0026
:104ac000000020000001be006120b800000171005c
:104ad00081817100e00f5100e08f59000d003a0014
:104ae0000060fe0040d12000104078000004e0008b
:104af0000500320040d12000104078008040e900dd
:104b000040d1200001487800a0d220008040eb0076
:104b100001487800c2428000d3428000800020001b
:104b20000100200002027800030178008001780073
:104b30000100780003026200000061008000eb00c9
:104b4000c000dd00000020000001be006120b800b0
:104b50000001710081817100e00f5100e08f590068
:104b60001e003200b0d22000104078000004e000a7
:104b70001a003a000060fe0050d12000104078007a
:104b80008040e80050d120000148780050d120003a
:104b900010407800fd4f500031003600b0d22000a8
:104ba00011c0b3000148780050d120008040eb00d4
:104bb00001487800e08f200051c3b300014878001d
:104bc00080d4200011c0b3000148780010d5200027
:104bd00080c0eb000148780021003700c24280000d
:104be000d3428000800020000100200002027800f3
:104bf0000301780080017800010078000302620060
:104c0000000061008000eb00c000dd00000020001b
:104c10000001be006120b8000001710081817100b7
:104c2000e00f5100e08f59000d003a000060fe00d7
:104c300050d12000104078000004e0000500320050
:104c400050d12000104078008040e90050d1200071
:104c500001487800b0d220008040eb000148780085
:104c6000c2428000d34280000002200001002000e8
:104c700002027800030178008001780001007800ca
:104c800003026200000061008000eb00c000dd0054
:104c9000000020000001be006120b800000171008a
:104ca00081817100e00f5100e08f59001e00320039
:104cb000c0d22000104078000004e0001a003a0042
:104cc0000060fe0060d12000104078008040e800c5
:104cd00060d120000148780060d1200010407800a9
:104ce000fd4f500031003600c0d2200011c0b3008b
:104cf0000148780060d120008040eb000148780036
:104d0000f08f200061c3b3000148780090d42000e8
:104d100081c0b3000148780010d5200080c0eb00ae
:104d20000148780021003700c2428000d342800051
:104d30000002200001002000020278000301780038
:104d40008001780001007800030262000000610029
:104d50008000eb00c000dd00000020000001be006c
:104d60006120b8000001710081817100e00f5100e5
:104d7000e08f59000d003a000060fe0060d1200075
:104d8000104078000004e0000500320060d12000ef
:104d9000104078008040e90060d120000148780090
:104da000c0d220008040eb0001487800c242800061
:104db000d342800000082000010020000202780099
:104dc000030178008001780001007800030262008e
:104dd000000061008000eb00c000dd00000020004a
:104de0000001be006120b8000001710081817100e6
:104df000e00f5100e08f59001e003200d0d2200099
:104e0000104078000004e0001a003a000060fe0044
:104e100070d12000104078008040e80070d1200060
:104e20000148780070d1200010407800fd4f5000fc
:104e300031003600d0d2200011c0b3000148780004
:104e400070d120008040eb0001487800f08f2000f6
:104e500071c3b3000148780090d4200041c0b30072
:104e60000148780010d5200080c0eb000148780090
:104e700021003700c2428000d34280000008200099
:104e80000100200002027800030178008001780010
:104e90000100780003026200000061008000eb0066
:104ea000c000dd00000020000001be006120b8004d
:104eb0000001710081817100e00f5100e08f590005
:104ec0000d003a000060fe0070d120001040780014
:104ed0000004e0000500320070d12000104078008e
:104ee0008040e90070d1200001487800d0d2200035
:104ef0008040eb0001487800c2428000d34280002d
:104f00000020200001002000020278000301780048
:104f10008001780001007800030262000000610057
:104f20008000eb00c000dd00000020000001be009a
:104f30006120b8000001710081817100e00f510013
:104f4000e08f59001e003200e0d2200010407800af
:104f50000004e0001a003a000060fe0080d120004a
:104f6000104078008040e80080d12000014878009f
:104f700080d1200010407800fd4f500031003600f5
:104f8000e0d2200011c0b3000148780080d1200099
:104f90008040eb00014878000090200081c3b300fe
:104fa00001487800a0d4200001c2b3000148780075
:104fb00010d5200080c0eb000148780021003700a8
:104fc000c2428000d3428000002020000100200067
:104fd0000202780003017800800178000100780067
:104fe00003026200000061008000eb00c000dd00f1
:104ff000000020000001be006120b8000001710027
:1050000081817100e00f5100e08f59000d003a00de
:105010000060fe0080d12000104078000004e00015
:105020000500320080d12000104078008040e90067
:1050300080d1200001487800e0d220008040eb00c1
:1050400001487800c2428000d342800000802000e6
:10505000010020000202780003017800800178003e
:105060000100780003026200000061008000eb0094
:10507000c000dd00000020000001be006120b8007b
:105080000001710081817100e00f5100e08f590033
:105090001e003200f0d22000104078000004e00032
:1050a0001a003a000060fe0090d120001040780005
:1050b0008040e80090d120000148780090d1200085
:1050c00010407800fd4f500031003600f0d2200033
:1050d00011c0b3000148780090d120008040eb005f
:1050e000014878000090200091c3b3000148780087
:1050f000a0d4200001c1b3000148780010d52000e1
:1051000080c0eb000148780021003700c2428000d7
:10511000d3428000008020000100200002027800bd
:10512000030178008001780001007800030262002a
:10513000000061008000eb00c000dd0000002000e6
:105140000001be006120b800000171008181710082
:10515000e00f5100e08f59000d003a000060fe00a2
:1051600090d12000104078000004e00005003200db
:1051700090d12000104078008040e90090d12000bc
:1051800001487800f0d220008040eb000148780010
:10519000c2428000d3428000a00020000100200015
:1051a0000202780003017800800178000100780095
:1051b00003026200000061008000eb00c000dd001f
:1051c000000020000001be006120b8000001710055
:1051d00081817100a000200001002000800f51009b
:1051e000818f590014003200c2428000d3428000f7
:1051f000a0002000010020000202780003017800d6
:105200008001780001007800030262000000610064
:105210008000eb00c000dd00000020000001be00a7
:105220006120b8000001710081817100e00f510020
:10523000e08f59001e003a0000d320001040780093
:105240000004e0001a003a000060fe00a0d1200037
:10525000104078008040e800a0d12000014878008c
:10526000a0d1200010407800fd4f500047003600cc
:1052700000d3200011c0b30001487800a0d1200065
:105280008040eb0001487800e08f200001c1b300ae
:105290000148780080d4200031c0b3000148780074
:1052a00010d5200080c0eb0001487800370037009f
:1052b000c2428000d3428000a000200001002000f4
:1052c0000202780003017800800178000100780074
:1052d00003026200000061008000eb00c000dd00fe
:1052e000000020000001be006120b8000001710034
:1052f00081817100a000200001002000800f51007a
:10530000818f590021003200c2428000d3428000c8
:10531000a0002000010020000202780003017800b4
:105320008001780001007800030262000000610043
:105330008000eb00c000dd00000020000001be0086
:105340006120b8000001710081817100e00f5100ff
:10535000e08f59000d0032000060fe00a0d1200057
:10536000104078000004e00005003200a0d12000c9
:10537000104078008040e900a0d12000014878006a
:1053800000d320008040eb0001487800c24280003a
:10539000d3428000000a20000100200002027800b1
:1053a00003017800800178000100780003026200a8
:1053b000000061008000eb00c000dd000000200064
:1053c0000001be006120b800000171008181710000
:1053d000000a200001002000800f5100818f590039
:1053e00014003200c2428000d3428000000a200034
:1053f000010020000202780003017800800178009b
:105400000100780003026200000061008000eb00f0
:10541000c000dd00000020000001be006120b800d7
:105420000001710081817100e00f5100e08f59008f
:105430001e003a0010d32000104078000004e00065
:105440001a003a000060fe00b0d120001040780041
:105450008040e800b0d1200001487800b0d12000a1
:1054600010407800fd4f50004700360010d3200058
:1054700011c0b30001487800b0d120008040eb009b
:1054800001487800f08f200011c1b3000148780076
:1054900090d42000c1c0b3000148780010d520008e
:1054a00080c0eb000148780037003700c24280001e
:1054b000d3428000000a2000010020000202780090
:1054c0000301780080017800010078000302620087
:1054d000000061008000eb00c000dd000000200043
:1054e0000001be006120b8000001710081817100df
:1054f000000a200001002000800f5100818f590018
:1055000021003200c2428000d3428000000a200005
:105510000100200002027800030178008001780079
:105520000100780003026200000061008000eb00cf
:10553000c000dd00000020000001be006120b800b6
:105540000001710081817100e00f5100e08f59006e
:105550000d0032000060fe00b0d120001040780045
:105560000004e00005003200b0d1200010407800b7
:105570008040e900b0d120000148780010d320001d
:105580008040eb0001487800c2428000d342800096
:1055900000a0200001002000020278000301780032
:1055a00080017800010078000302620000006100c1
:1055b0008000eb00c000dd00000020000001be0004
:1055c0006120b800000171008181710000a02000fd
:1055d00001002000800f5100818f5900140032001b
:1055e000c2428000d342800000a0200001002000c1
:1055f0000202780003017800800178000100780041
:1056000003026200000061008000eb00c000dd00ca
:10561000000020000001be006120b8000001710000
:1056200081817100e00f5100e08f59001e003a00a7
:1056300020d32000104078000004e0001a003a0057
:105640000060fe00c0d12000104078008040e800db
:10565000c0d1200001487800c0d12000104078005f
:10566000fd4f50004700360020d3200011c0b3008a
:1056700001487800c0d120008040eb00014878004c
:105680000090200021c1b30001487800a0d4200080
:1056900001c3b3000148780010d5200080c0eb00a2
:1056a0000148780037003700c2428000d3428000b2
:1056b00000a0200001002000020278000301780011
:1056c00080017800010078000302620000006100a0
:1056d0008000eb00c000dd00000020000001be00e3
:1056e0006120b800000171008181710000a02000dc
:1056f00001002000800f5100818f590021003200ed
:10570000c2428000d342800000a02000010020009f
:10571000020278000301780080017800010078001f
:1057200003026200000061008000eb00c000dd00a9
:10573000000020000001be006120b80000017100df
:1057400081817100e00f5100e08f59000d0032009f
