:020000040000fa
:080000000001040000000000f3
:020000040000fa
:04000800e40f000001
:020000040000fa
:04000c0000020000ee
:020000040000fa
:0400100006020000e4
:020000040000fa
:040014000c020000da
:020000040000fa
:0400180012020000d0
:020000040000fa
:04001c00e40f0000ed
:020000040000fa
:04002000e40f0000e9
:020000040000fa
:04002400e40f0000e5
:020000040000fa
:04002800e40f0000e1
:020000040000fa
:04002c00e40f0000dd
:020000040000fa
:04003000e40f0000d9
:020000040000fa
:04003400e40f0000d5
:020000040000fa
:04003800e40f0000d1
:020000040000fa
:04003c00e40f0000cd
:020000040000fa
:04004000f47e00004a
:020000040000fa
:040044003002000086
:020000040000fa
:04004800e40f0000c1
:020000040000fa
:04004c00227e000010
:020000040000fa
:04005000487e0000e6
:020000040000fa
:04005400e40f0000b5
:020000040000fa
:04005800e40f0000b1
:020000040000fa
:04005c00e40f0000ad
:020000040000fa
:04006000e40f0000a9
:020000040000fa
:04006400e40f0000a5
:020000040000fa
:04006800e40f0000a1
:020000040000fa
:04006c00e40f00009d
:020000040000fa
:04007000e40f000099
:020000040000fa
:04007400e40f000095
:020000040000fa
:04007800e40f000091
:020000040000fa
:04007c00e40f00008d
:020000040000fa
:04008000e40f000089
:020000040000fa
:040084004a5c0000d2
:020000040000fa
:04008800e40f000081
:020000040000fa
:04008c00e40f00007d
:020000040000fa
:04009000e40f000079
:020000040000fa
:04009400e40f000075
:020000040000fa
:04009800e40f000071
:020000040000fa
:04009c00e40f00006d
:020000040000fa
:0400a000e40f000069
:020000040000fa
:0400a400e40f000065
:020000040000fa
:0400a800e40f000061
:020000040000fa
:0400ac00e40f00005d
:020000040000fa
:0400b000e40f000059
:020000040000fa
:0400b400e40f000055
:020000040000fa
:0400b800e40f000051
:020000040000fa
:0400bc00e40f00004d
:020000040000fa
:0400c0001e6a0000b4
:020000040000fa
:0400c400e40f000045
:020000040000fa
:0400c800e40f000041
:020000040000fa
:0400cc00e40f00003d
:020000040000fa
:0400d000e40f000039
:020000040000fa
:0400d400e40f000035
:020000040000fa
:0400d800e40f000031
:020000040000fa
:04010800e40f000000
:020000040000fa
:04010c0018020000d5
:020000040000fa
:040110001e020000cb
:020000040000fa
:0401140024020000c1
:020000040000fa
:040118002a020000b7
:020000040000fa
:04011c00e40f0000ec
:020000040000fa
:04012000e40f0000e8
:020000040000fa
:04012400e40f0000e4
:020000040000fa
:04012800e40f0000e0
:020000040000fa
:04012c00e40f0000dc
:020000040000fa
:04013000e40f0000d8
:020000040000fa
:04013400e40f0000d4
:020000040000fa
:04013800e40f0000d0
:020000040000fa
:04013c00e40f0000cc
:020000040000fa
:04014000e40f0000c8
:020000040000fa
:04014400e40f0000c4
:020000040000fa
:04014800e40f0000c0
:020000040000fa
:04014c00e40f0000bc
:020000040000fa
:04015000e40f0000b8
:020000040000fa
:04015400e40f0000b4
:020000040000fa
:04015800e40f0000b0
:020000040000fa
:04015c00e40f0000ac
:020000040000fa
:04016000e40f0000a8
:020000040000fa
:04016400e40f0000a4
:020000040000fa
:04016800e40f0000a0
:020000040000fa
:04016c00e40f00009c
:020000040000fa
:04017000e40f000098
:020000040000fa
:04017400e40f000094
:020000040000fa
:04017800e40f000090
:020000040000fa
:04017c00e40f00008c
:020000040000fa
:04018000e40f000088
:020000040000fa
:04018400e40f000084
:020000040000fa
:04018800e40f000080
:020000040000fa
:04018c00e40f00007c
:020000040000fa
:04019000e40f000078
:020000040000fa
:04019400e40f000074
:020000040000fa
:04019800e40f000070
:020000040000fa
:04019c00e40f00006c
:020000040000fa
:0401a000e40f000068
:020000040000fa
:0401a400e40f000064
:020000040000fa
:0401a800e40f000060
:020000040000fa
:0401ac00e40f00005c
:020000040000fa
:0401b000e40f000058
:020000040000fa
:0401b400e40f000054
:020000040000fa
:0401b800e40f000050
:020000040000fa
:0401bc00e40f00004c
:020000040000fa
:0401c000e40f000048
:020000040000fa
:0401c400e40f000044
:020000040000fa
:0401c800e40f000040
:020000040000fa
:0401cc00e40f00003c
:020000040000fa
:0401d000e40f000038
:020000040000fa
:0401d400e40f000034
:020000040000fa
:0401d800e40f000030
:020000040000fa
:100200004fd720000e7f22000e0188000000000062
:10021000000020000000e000020032000001200089
:100220002002880014000700690707000000e000b2
:1002300003003a0080f1270001002000020037008f
:100240000000200001002000810f7000010032003a
:1002500014000700000020000000e000020032004f
:1002600000000200000000003880020000000000d2
:100270000040da000000fe004440a9008020200079
:100280000000e0000300320000002000a001880010
:100290004440a800000006008a1f78008b1f7800e9
:1002a0000000060091018800800478000000eb0047
:1002b0001a003700e284440032a0b4009905ba0065
:1002c000e284440032a0b4009906ba00e2844400fb
:1002d00032a0b4000006eb00476fde00fd07b2005d
:1002e000636ce10003003a00ebff07000000eb0045
:1002f0000a003700606ce10004003a00005deb008a
:100300008b05e900fdff3e00040037006168e10055
:10031000010032000086eb000b00070019c7ba008d
:100320001905ba000e04e00003003a000a00e000dc
:10033000e0ff3a0000000600fe07b2009e018800c0
:100340008a047800f5ff3700395dba008b05e900b3
:100350000c003200295dba008b05e900080032006c
:100360000c00e00003003a00e284440032a0b40034
:10037000f5ff370019ddba008b05e900faff3a00f6
:100380008904e800e184440032a0b40000000600c3
:100390002c3f0400000000008c3f0400000000001f
:1003a0008040040000000000c44004000000000081
:1003b0000641040000000000364104000000000077
:1003c0002e40040000000000c40e040000000000e5
:1003d000300c0400000000007a0d04000000000052
:1003e0009e0c040000000000e80d04000000000066
:1003f0000c0d040000000000560e04000000000078
:100400000000fa008020a900ffff37000000fa007a
:100410008060a900ffff37000000fa008040a900bb
:10042000ffff37000000fa008080a900ffff3700bf
:100430000000fa008020a900ffff37000000fa004a
:100440008060a900ffff37000000fa008040a9008b
:10045000ffff37000000fa008080a900ffff37008f
:100460003600f800809fbe00829fbe00849fbe00c1
:10047000869fbe000000fa0084e0a90080cf200023
:10048000104078000080fb007400b9008000780004
:1004900020ca2000008040009040780080c8b3004f
:1004a00080cf50003a003a0080cf20001040780002
:1004b0000080fb007400b900000078008080e80034
:1004c00020ca200000804000100078000000e000fa
:1004d0002f003a0080cf2000104078000080fb0001
:1004e0007400b9008000780020ca2000008040001d
:1004f00071c7b3000148780080cf20001040780019
:100500000080fb007400b9008000780040ca200021
:1005100000804000a1aa2a000108780080cf2000b6
:10052000104078000081fb0090428000a1428000d2
:100530007411b90082017800e2ca200002814100f2
:100540000089be0080cf2000104078000080fb00b2
:100550007400b90000007800f000400020ca2000bc
:10056000008040001001780080cf2000104078000b
:100570000080fb007400b9008000780020ca2000d1
:1005800000804000020001003e3d070044003700ab
:10059000e0cf2000104078000080fb007400b9001c
:1005a0008000780020ca2000008040009040780041
:1005b00080c8b30080cf500039003a0080cf2000bf
:1005c000104078000080fb007400b9000000780043
:1005d0008080e80020ca20000080400010007800e1
:1005e0000000e0002e003a00e0cf2000104078002c
:1005f0000080fb007400b9008000780020ca200051
:100600000080400071c7b30001487800e0cf2000af
:10061000104078000080fb007400b9008000780072
:1006200040ca200000804000a1aa2a0001087800ea
:10063000e0cf2000104078000081fb009042800055
:10064000a14280007411b90082017800e2ca200042
:10065000028141000089be00e0cf200010407800f8
:100660000080fb007400b90000007800f00040003a
:1006700020ca20000080400010017800e0cf200058
:10068000104078000080fb007400b9008000780002
:1006900020ca20000080400002000100f93c070051
:1006a0000080fa004f03be004f02be004f01be00a3
:1006b0004f00be003600f900004006000000fa00be
:1006c00050a52a005043880050a52a0050438800b6
:1006d0000080fa00000006000000fa006a28ef001f
:1006e0006a28ef000080fa00000006000000fa000f
:1006f00020ca2000104078000004e00006003a0004
:10070000206580000000e00003003a0030658000b2
:100710000000e000020032006c68ef007800370053
:1007200060cb2000104078000004e00006003a0092
:10073000c06580000000e00003003a00d065800042
:100740000000e000020032006c68ef006c0037002f
:100750008d20a90090c0a90080cf20001040780013
:100760000080fb007400b9008000780020ca2000df
:100770000080400081c8b3000148780080cf20008d
:10078000104078000080fb007400b9008000780001
:1007900040ca2000008040008000eb000108780083
:1007a00080cf2000104078000080fb0091cf200017
:1007b000914078000181fb007400b900800078004e
:1007c00080ca2000008040000208780080cf20000e
:1007d000104078000080fb00d26780007400b900f0
:1007e00080007800c0ca2000008040000208780025
:1007f0000060fe0020cf2000104078000080fb0049
:100800007400b9008000780020ca200000804000f9
:1008100071c7b3000148780020cf20001040780055
:100820000080fb007400b9008000780040ca2000fe
:1008300000804000a1aa2a000108780020cf2000f3
:10084000104078000080fb0031cf200091407800fc
:100850000181fb007400b9008000780080ca20008c
:10086000008040000208780020cf2000104078006f
:100870000081fb0090428000a14280007411b90009
:1008800082017800e2ca2000028141000089be0096
:1008900020cf2000104078000080fb007400b900d9
:1008a00000007800f000400020ca200000804000d6
:1008b0001001780020cf2000104078000080fb005d
:1008c0007400b9008000780020ca20000080400039
:1008d0000200010080cf2000104078000080fb0063
:1008e0007400b90000007800ea00400020ca20002f
:1008f0000080400010007800583c07000060fe00b7
:100900000080fa00000006000400fa00004f7800a2
:1009100011079800504380000000e00054003200ae
:100920001e80fb007400b9008000780020ca2000ff
:1009300000804000104078000004e00012003a00ff
:100940001e80fb007400b900000078008080e80081
:1009500020ca200000804000100078000000e00065
:1009600009003a001e80fb007400b9000000780006
:10097000e400400020ca2000008040001000780001
:100980000000e000020032006c68ef003900370020
:100990008d20a90090c0a9000060fe001e80fb0011
:1009a0007400b9008000780020ca20000080400058
:1009b00071c7b300014878001e80fb007400b900c5
:1009c0008000780040ca200000804000a1aa2a00d0
:1009d000010878001e81fb0090428000a142800047
:1009e0007411b90082017800e2ca2000028141003e
:1009f0000089be001e80fb009e00900063814000c5
:100a00007400b9008000780080ca20000080400097
:100a1000020878000060fe001e80fb007400b90030
:100a200000007800f000400020ca20000080400054
:100a3000100178001e80fb007400b900800078006f
:100a400020ca200000804000020001001e81fb003f
:100a500090428000a14280007411b90082017800a8
:100a6000e2ca2000028141000089be000100370077
:100a7000000000000080fa00000006000400fa00f8
:100a8000004f780011079800504380000000e000fc
:100a9000540032001e80fb007400b9008000780012
:100aa00020ca200000804000104078000004e000d0
:100ab00012003a001e80fb007400b90000007800ac
:100ac0008080e80020ca20000080400010007800ec
:100ad0000000e00009003a001e80fb007400b9002d
:100ae00000007800e400400020ca200000804000a0
:100af000100078000000e000020032006c68ef0097
:100b0000390037008d20a90090c0a9000060fe00c8
:100b10001e80fb007400b9008000780020ca20000d
:100b20000080400071c7b300014878001e80fb00c0
:100b30007400b9008000780040ca200000804000a6
:100b400051a52a00010878001e81fb009042800018
:100b5000a14280007411b90082017800e2ca20002d
:100b6000028141000089be001e80fb009e009000b3
:100b70000181e8007400b90080007800a0ca20005c
:100b800000804000020878000060fe001e80fb002c
:100b90007400b90000007800f200400020ca200074
:100ba00000804000100178001e80fb007400b90036
:100bb0008000780020ca2000008040000200010070
:100bc0001e81fb0090428000a14280007411b90098
:100bd00082017800e2ca2000028141000089be0043
:100be00001003700000000000080fa00000006004d
:100bf0000c00fa000040eb00004f78000040eb00d2
:100c0000104798000040eb00204798009242800077
:100c1000a342800022079800330798000080eb0071
:100c20008080eb00400798005107980005003700ce
:100c30000000000003003700000000000100370042
:100c4000000000000060fe0021658000a0aa2a00cc
:100c5000808f50000c003a0020ca2000904078009d
:100c600070c7b30080cf500007003a000060fe005c
:100c70008d20a90090c0a9009165800020ca2000a5
:100c800001000100150037002165800050a52a00f1
:100c9000808f50000c003a0020ca2000904078005d
:100ca00070c7b30080cf500007003a000060fe001c
:100cb0008d20a90090c0a900a165800020ca200055
:100cc0000100010005003700e862a900cb42a8003e
:100cd000cba2a900e282a800e902a900c1658000b8
:100ce000a0aa2a00808f50000c003a0060cb2000a0
:100cf0009040780070c7b30080cf500007003a00e2
:100d00000060fe008d20a90090c0a900316680001f
:100d100060cb20000100010015003700c165800094
:100d200050a52a00808f50000c003a0060cb2000b4
:100d30009040780070c7b30080cf500007003a00a1
:100d40000060fe008d20a90090c0a90041668000cf
:100d500060cb20000100010005003700e2c2a900bd
:100d6000cb22a800cb82a900cbe2a800caa2a9008e
:100d7000206580000000e000adff3a00c065800003
:100d80000000e000acff3a000060fe00306580002b
:100d90000000e00003003a00d06580000000e000a1
:100da0001200320090c0a800003220000100200094
:100db0004007980051079800530407002e40900008
:100dc0009d330700b2698000c36980002207980044
:100dd000330798000000eb00306588000000eb004e
:100de000d06588000000eb0070668800b269800062
:100df000c36980002e009000be00900000015100e9
:100e0000818159004e009000de009000800f51005b
:100e1000818f5900100039002e409000982c070057
:100e20000080eb008080eb0040079800510798009d
:100e30000080eb008080eb002007980031079800cd
:100e40000040eb0020479800608320008000eb000a
:100e50001100980020fe07000060fe00e862a90073
:100e6000cb42a800cba2a900e282a800e902a90017
:100e7000e2c2a900cb22a800cb82a900cbe2a80045
:100e8000caa2a900e2a2a900cb02a800cb62a900d5
:100e9000cbc2a800ca82a9000060fe00e862a900d7
:100ea000cb42a800cba2a900e282a800e902a900d7
:100eb000e2c2a900cb22a800cb82a900cbe2a80005
:100ec000caa2a900e2a2a900cb02a800cb62a90095
:100ed000cbc2a800ca82a9000000eb0020658800f0
:100ee0000000eb00c06588000000eb006066880031
:100ef00020ca20008040eb000148780060cb200031
:100f00008040eb0001487800a0cc20008040eb003e
:100f1000014878000060fe0046320700b269800098
:100f2000c3698000506a8000616a8000000151003e
:100f3000818159001000200001002000800f510025
:100f4000818f590006003600c51f07000060fe00b3
:100f5000b0698000c1698000506a8800616a8800b9
:100f6000951d07000004e00006003200c386200043
:100f700093417800234798006c68ef000000000060
:100f800030ff3700b2698000c3698000306a80009a
:100f9000416a80000001510081815900f07c2000ed
:100fa00001002000800f5100818f590004003e0095
:100fb000b0d5200010407800e14f400016003a0004
:100fc0000060fe00d9290700761e070080c0eb00f4
:100fd000f0fb2f00e835070080c0eb00f0bf2f00ca
:100fe000e535070080c0eb00e0ff2f00e235070089
:100ff000b0d520008040eb0001487800007d200043
:1010000001002000533b0700b0698000c1698000e7
:10101000306a8800416a88000060fe00b269800082
:10102000c3698000706a8000816a800000015100fd
:1010300081815900d0428000e1428000800f510040
:10104000818f59001c0039009e407800f0ff2d0070
:10105000c93507001ecfea00d2428000e34280007b
:10106000c05d200001002000800f5100818f5900d9
:101070000d003a001e4090000040e8001047980024
:101080001e409000e94f5000070036008000eb0042
:101090000000eb00792d0700401f20000100200018
:1010a000d0428800e1428800b0698000c1698000b8
:1010b000706a8800816a8800b2698000c369800014
:1010c000106a8000216a800000015100818159006e
:1010d000f070220001002000800f5100818f590024
:1010e00008003600b0698000c1698000106a88007d
:1010f000216a88000060fe00a4390700804488004f
:10110000914488006083200040409000e14f4000ff
:101110002e003a0060832000100078000000e000fc
:101120002a0032006083200050409000e54f5000bc
:1011300026003e0060832000504090000004e00044
:1011400022003200803407000004e0001f003a0053
:10115000608320009000780050552500808f50005b
:1011600009003a006083200050409000e54f500095
:1011700005003a0090c0a800793507006083200080
:101180008000eb0001087800608320008000eb0005
:1011900001087800608320008040eb004140980007
:1011a000608320005040900061c0b3000b2907000d
:1011b000608320008040eb00514098006083200055
:1011c0008000eb001100980043fd070060832000c1
:1011d00060409000e14f400099fe3a003b1c070040
:1011e000608320008040eb006140980095fe37004e
:1011f0000a00fa000040eb00004f7800e1004700d1
:10120000070009008058eb000060fe006a28ef002c
:10121000e462a900c7a2a900de82a900c742a90012
:10122000e862a900cb42a800cba2a900e282a800f4
:10123000e902a9000060fe00dec2a900c782a90081
:10124000c7e2a900c722a900e2c2a900cb22a800d8
:10125000cb82a900cbe2a800caa2a9000060fe00d0
:10126000dea2a900c762a900c7c2a900c702a900df
:10127000e2a2a900cb02a800cb62a900cbc2a800c1
:10128000ca82a9000060fe006c68ef000040eb001d
:10129000004f78001e80fb006600b90080007800d7
:1012a00020cf2000008040008040eb000148780003
:1012b0001e80fb006600b9008000780060cf20002f
:1012c0000080400041ec2000010878001e80fb00f7
:1012d0006600b90000007800e400400020cf200044
:1012e00000804000100178001e80fb006600b900fd
:1012f0008000780020cf2000008040000200010024
:101300001e4fe8001e80fb006600b90080007800d8
:1013100020cf20000080400011c0b30001487800b9
:101320001e80fb006600b9008000780060cf2000be
:101330000080400041ec2000010878001e80fb0086
:101340006600b90000007800e400400020cf2000d3
:1013500000804000100178001e80fb006600b9008c
:101360008000780020cf20000080400002000100b3
:101370001e4fe8001e80fb006600b9008000780068
:1013800020cf20000080400021c0b3000148780039
:101390001e80fb006600b9008000780060cf20004e
:1013a0000080400041ec2000010878001e80fb0016
:1013b0006600b90000007800e400400020cf200063
:1013c00000804000100178001e80fb006600b9001c
:1013d0008000780020cf2000008040000200010043
:1013e0001e4fe8000060fe0055000700904280009c
:1013f000a1428000706a8800816a88009042800063
:10140000a1428000106a8800216a88009042800012
:10141000a1428000506a8800616a88009042800082
:10142000a1428000306a8800416a8800401f200085
:1014300001002000d0428800e14288006083200043
:101440008000eb0001087800608320008000eb0042
:1014500011009800608320008040eb00414098001c
:10146000608320008040eb005140980060832000a2
:101470008040eb006140980097fc070080d5200079
:101480008040eb000148780090d520008040eb00c0
:1014900001487800a0d520008040eb00014878008a
:1014a00050d520008040eb000148780060d5200036
:1014b0008040eb000148780070d520008040eb00b0
:1014c000014878000060fe00b0d5200080c0eb002d
:1014d0000148780020d520008040eb0001487800ca
:1014e00030d520008040eb000148780040d5200036
:1014f0008040eb0001487800f0d520008040eb00f0
:10150000014878000e00e800306b880080d620008b
:1015100080c0eb0001487800c0b82000104078007f
:101520008080fb00003c200001007000cf80de00c6
:10153000006b8800116b88000080fa000000060034
:101540000200fa000040eb00004f78001e80fb0014
:101550007400b9008000780020ca2000008040009c
:101560008040eb00014878001e80fb007400b90049
:101570008000780040ca2000008040008000eb001e
:10158000010878001e80fb007400b900800078001c
:1015900060ca2000008040008000eb000108780055
:1015a0001e80fb007400b9008000780080ca200013
:1015b0000080400021032000010878001e80fb000d
:1015c0007400b90080007800a0ca200000804000ac
:1015d000e1012000010878001e80fb007400b900c2
:1015e00080007800c0ca2000008040008000eb002e
:1015f000010878001e80fb007400b90080007800ac
:10160000e0ca2000008140006000b8000089be00f0
:101610001e80fb007400b9008000780020cb200001
:101620000080400001c32000010878001e80fb00fc
:101630007400b9008000780040cb2000008040009a
:10164000a1d72000010878001e4fe8000060fe00ce
:101650001e80fb007400b9008000780020ca2000c2
:10166000008040008040eb00014878001e80fb00b5
:101670007400b9008000780040ca2000008040005b
:101680008000eb00010878001e80fb007400b900a8
:101690008000780060ca2000008040008000eb00dd
:1016a000010878001e80fb007400b90080007800fb
:1016b00080ca20000080400021032000010878003b
:1016c0001e80fb007400b90080007800a0ca2000d2
:1016d00000804000e1012000010878001e80fb002e
:1016e0007400b90080007800c0ca2000008040006b
:1016f0008000eb00010878001e80fb007400b90038
:1017000080007800e0ca2000008140006000b8003e
:101710000089be001e80fb007400b90080007800c4
:1017200020cb200000804000e1c9200001087800a3
:101730001e80fb007400b9008000780040cb2000c0
:101740000080400081de2000010878001e4fe80084
:101750000060fe001e80fb007400b900800078006d
:1017600020ca2000008040008040eb000148780043
:101770001e80fb007400b9008000780040ca200081
:10178000008040008000eb00010878001e80fb0014
:101790007400b9008000780060ca2000008040001a
:1017a0008000eb00010878001e80fb007400b90087
:1017b0008000780080ca20000080400021032000c3
:1017c000010878001e80fb007400b90080007800da
:1017d000a0ca200000804000e1012000010878003c
:1017e0001e80fb007400b90080007800c0ca200091
:1017f000008040008000eb00010878001e80fb00a4
:101800007400b90080007800e0ca20000081400028
:101810006000b8000089be001e80fb007400b900a3
:101820008000780020cb200000804000c1d0200044
:10183000010878001e80fb007400b9008000780069
:1018400040cb20000080400061e5200001087800c6
:101850001e4fe8000060fe000080fa000000060055
:101860000200fa00000f78001e007800900090003f
:10187000a0aa2a00808f50000f003a001e007800b6
:101880009040780070c7b30080cf50000a003a0043
:10189000cba2a900e282a800e862a800cb42a9007e
:1018a000e902a800cba2a900e282a800e862a80091
:1018b000cb42a900e902a8001e0078003000900089
:1018c0008000eb001e01780062029000f20290009e
:1018d0000001be000400be00f13807000004e00073
:1018e00014003200e862a900cb42a800cba2a900f4
:1018f000e282a800e902a900e862a900cb42a800a0
:10190000cba2a900e282a800e902a9001e0078008b
:101910008000eb00110098001e0078008040eb0072
:10192000014878000060fe001e007800a1aa2a008d
:10193000210098000080fa00000006000200fa0072
:10194000000f78001e00780090009000a0aa2a00e6
:10195000808f50000f003a001e0078009040780001
:1019600070c7b30080cf50000a003a00cb82a900b4
:10197000cbe2a800e2c2a800cb22a900caa2a8001c
:10198000cb82a900cbe2a800e2c2a800cb22a9002a
:10199000caa2a8001e007800300090008000eb0072
:1019a0001e01780062029000f20290000001be0069
:1019b0000400be00ba3807000004e0001400320042
:1019c000e2c2a900cb22a800cb82a900cbe2a800ea
:1019d000caa2a900e2c2a900cb22a800cb82a9001a
:1019e000cbe2a800caa2a9001e0078008000eb008c
:1019f000110098001e0078008040eb00014878003c
:101a00000060fe001e007800a1aa2a0021009800b4
:101a10000080fa00000006000200fa00000f7800c3
:101a20001e00780090009000a0aa2a00808f50002d
:101a30000f003a001e0078009040780070c7b30095
:101a400080cf50000a003a00cb62a900cbc2a800a8
:101a5000e2a2a800cb02a900ca82a800cb62a9001a
:101a6000cbc2a800e2a2a800cb02a900ca82a800ab
:101a70001e007800300090008000eb001e0178000e
:101a800062029000f20290000001be000400be005d
:101a9000833807000004e00014003200e2a2a9002d
:101aa000cb02a800cb62a900cbc2a800ca82a900c1
:101ab000e2a2a900cb02a800cb62a900cbc2a80079
:101ac000ca82a9001e0078008000eb001100980077
:101ad0001e0078008040eb00014878000060fe00a6
:101ae0001e007800a1aa2a00210098000080fa00b8
:101af000000006000200fa00000f78001e007800c7
:101b00009000900050a52a00808f50000f003a00ee
:101b10001e0078009040780070c7b30080cf50005e
:101b20000a003a00e862a900cb42a800cba2a800b4
:101b3000e282a900e902a800e862a900cb42a8005d
:101b4000cba2a800e282a900e902a8001e0078004a
:101b5000400090008000eb001e01780062029000bf
:101b6000f20290000001be000400be004c380700e5
:101b70000004e00014003200e862a900cb42a80093
:101b8000cba2a900e282a800e902a900e862a900ac
:101b9000cb42a800cba2a900e282a800e902a900da
:101ba0001e0078008000eb00110098001e007800f5
:101bb0008040eb00014878000060fe001e007800c5
:101bc00051a52a00210098000080fa0000000600bc
:101bd0000200fa00000f78001e00780090009000cc
:101be00050a52a00808f50000f003a001e00780098
:101bf0009040780070c7b30080cf50000a003a00d0
:101c0000e2c2a900cb22a800cb82a800cbe2a900a7
:101c1000caa2a800e2c2a900cb22a800cb82a800d9
:101c2000cbe2a900caa2a8001e00780040009000e4
:101c30008000eb001e01780062029000f20290002a
:101c40000001be000400be00153807000004e000db
:101c500014003200e2c2a900cb22a800cb82a90066
:101c6000cbe2a800caa2a900e2c2a900cb22a80028
:101c7000cb82a900cbe2a800caa2a9001e0078006e
:101c80008000eb00110098001e0078008040eb00ff
:101c9000014878000060fe001e00780051a52a006f
:101ca000210098000080fa00000006000200fa00ff
:101cb000000f78001e0078009000900050a52a00c8
:101cc000808f50000f003a001e007800904078008e
:101cd00070c7b30080cf50000a003a00e2a2a9000a
:101ce000cb02a800cb62a800cbc2a900ca82a80080
:101cf000e2a2a900cb02a800cb62a800cbc2a90037
:101d0000ca82a8001e007800400090008000eb000e
:101d10001e01780062029000f20290000001be00f5
:101d20000400be00de3707000004e00014003200ab
:101d3000e2a2a900cb02a800cb62a900cbc2a800f6
:101d4000ca82a900e2a2a900cb02a800cb62a90026
:101d5000cbc2a800ca82a9001e0078008000eb0058
:101d6000110098001e0078008040eb0001487800c8
:101d70000060fe001e00780051a52a002100980096
:101d80000080fa00000006000200fa00000f780050
:101d90001e007800104078000080fb00e10f50002a
:101da0000a003200e20f50000e0032000000e00096
:101db00012003a00e086200010407800e340400026
:101dc0001e0078001140980010003700f0862000b7
:101dd00010407800e34040001e0078001140980059
:101de0000a0037000087200010407800e3404000e0
:101df0001e00780011409800040037001e00780093
:101e000051c3b30011409800000000000080fa00a8
:101e1000000006000a00fa00300798004107980009
:101e20000000eb00000f78000000eb0010079800a6
:101e30004e009000c0409000414798004e409000f6
:101e40000080fb00e50f500002003200e80f500058
:101e500029003a004e009000300090000000e80099
:101e60009040780020cf2000014878004e0090007c
:101e7000300090000080e8009040780080cf200083
:101e8000014878000060fe003e00900030009000a5
:101e90000080e800104078000080fb0010079800e8
:101ea0003e00900030009000630040001040780039
:101eb0000080fb00000f78001e007800c800dd00e5
:101ec0001e00900001007000d0678800d06780007d
:101ed0000000d100d06788000060fe00b16780007c
:101ee00020cf200001000100e167800080cf2000aa
:101ef00001000100020037000060fe000000000049
:101f00000080fa00000006000000fa003165800041
:101f1000a0aa2a00808f500006003a000060fe0050
:101f2000028f200020002f00f107200065340700f9
:101f3000090037003165800050a52a00808f5000cd
:101f400005003a000060fe00228f200040002f00b4
:101f5000f10720005b340700d1658000a0aa2a00a9
:101f6000808f500006003a000060fe00428f200083
:101f700060002f00f10720005234070009003700ed
:101f8000d165800050a52a00808f500005003a00de
:101f90000060fe00628f200080002f00f10720000b
:101fa000483407000000eb00306588000000eb00bb
:101fb000d06588000000eb00706688000060fe00bd
:101fc0000080fa00000006000040da000000fe0079
:101fd000000005003200f800910188000008bb00f5
:101fe000410424006210e1000400320000022000dd
:101ff0000010e1000a003a0051042400013b88006f
:102000000500fc0051052000313b8800a10a20009a
:10201000313b880061e7a8000000000000000000dc
:102020003200f900000006003200f80060042400cd
:10203000003b8800f2ff37003200f8009101880071
:1020400041002400013b88000208bb00ecff370080
:102050003200f8009101880051002400013b880003
:10206000030120003218bb008301e900fdff3a00a4
:10207000e3ff37003200f800910188008002780009
:1020800062004000e08048003549ba003204e000b8
:102090000410a700100032008301e9000e00320096
:1020a0002549ba003204e0000410a7000a003200fb
:1020b0008301e900080032000408a300eeff3200ab
:1020c00015c9ba003204e0000410a7000200320073
:1020d0008301e900e8ff3a003200f9000000060041
:1020e00003f0a200889fbe008a9fbe008c1f78006c
:1020f000f7000700fe0033006450e1004f0032009b
:102100006420e1005200320003826c0007003b00b3
:102110000905d0000306d000820f54000c065d00b4
:1021200002003900020032008901780003067800bd
:102130008582550004003d000003fd008103fd0081
:102140008502ea008b854200840f720002003b008a
:1021500060001000e08018006011b8000005eb007e
:102160007a28e1000a00390006007800c75ddd002a
:10217000f707b200878075002d003700828171005b
:102180000a017800610560008180d1000080d300e1
:102190008502e900f9ff3b000604400087844800ff
:1021a00002003b0060041400e0841c000988a300c6
:1021b000070032008a817100828171006101640030
:1021c0008904d1000884d3008b05e800170037008c
:1021d0000978a30013003a000b00e000130034005c
:1021e0008b05e9000804440089844c000a4474000b
:1021f0000978a3000d003a000b00e000070034004e
:102200008b05e9000804440089844c0001003a0071
:102210000b0020000978a300f7ff32000001eb005b
:1022200002003700828171000a0178006d0007000a
:102230000cf0a70001f0a000b60037006420e10018
:1022400002003a00838f6c00b60033000801be0024
:102250000200be00af003700889fbe008a9fbe000c
:102260008c1f78009a000700a100330003866c00e1
:102270006450e1002e0032006420e100330032009f
:102280006150e1002f0032006120e1003100320096
:1022900085855500eb07b0000900200008042000e8
:1022a000050037000804440089844c000a0031000e
:1022b0000603430087834b000001530081815b00cc
:1022c000f8ff33000203be000800a0000804440029
:1022d00089844c00f6ff3900c639dd0083017300a4
:1022e00001003200130020008904d1000884d300cb
:1022f0000998a300050032000800a7000300a00011
:102300008904d1000884d3008b05e8008904d1003a
:102310000884d3000001eb000281d20031000700e5
:1023200001f0a1000cf0a70001f0a0007900370037
:102330006420e1007b0032000801be000200be0004
:10234000f7ff37006120e100760032006000b8003e
:10235000f3ff37000000200001f82700f0ff3700ee
:1023600014002000a6003700f4ff2f00a40037005f
:102370000001be00410007000470a70003f0a100a7
:1023800003f8a30013003a006509b1001000320001
:10239000090035006928e10002003500010028002d
:1023a0000000050000004000818048008502e9002f
:1023b000fcff3a0000000600f88f420005003500df
:1023c0008100d1000080d3008502e800fcff3a00c4
:1023d000000006008000eb00000005006011b8005e
:1023e000a200370081002000618055000b003d00f5
:1023f0000b00200061fe2f000100e1001d003400f1
:1024000082817100610164008904d1000884d300d5
:102410000000e800faff3a0071002000610064004b
:1024200003007000020060000900320061044400f3
:10243000e0844c000988a500050032008b05e80007
:102440006808e10002003a008904d1000884d30042
:10245000f20f20000258e10005003d00c75ddd00dd
:10246000f907b200898075000800780000000600b6
:102470000bf827008b00780000000500c70ade007b
:10248000f107b200f50fb20008003200e1cf4200c0
:10249000020032000170a00024000500810f7000ce
:1024a000010032000408050044000500810f70009f
:1024b00002003a00140005008502e9000000400017
:1024c00081c04800fcff3b000170a0002400050013
:1024d0000004be00e9ff07000003be000405be00c3
:1024e0000200be00e5ff0700844f750000000600f3
:1024f0000200be006450e100050036006420e100e7
:10250000020036000968a30001003a000800be007e
:102510000160a0004f0678004f05be004f04be00ca
:1025200000000600f0ff2f00f1ff2700f9ff370041
:10253000889fbe008a9fbe008c1f7800e4ff0700c2
:10254000ebff330003866c006450e100240032008e
:102550006420e100270032006150e10022003200d7
:102560006120e100210032008b854200eb07b100c1
:102570000134b800003ab8000804420089844a00d7
:10258000013ab8000030b8008880400009014a00d4
:10259000040033000000400081804800020149002f
:1025a0008b05e900c909dd008301700001003200dc
:1025b00013002000c814de004814dd004709de00c7
:1025c0001200b200c808de000884700085ff070012
:1025d00001f0a1000cf0a70001f0a000cdff370032
:1025e0006120e100cfff32000801be000200be0002
:1025f000f7ff37006150e100fcff3a00c9ff3700e8
:10260000889fbe008a9fbe00841f7800b0ff07002d
:102610004f00780011003300f0ff2f00838f6c0013
:1026200006003b00040565000a00a700080037000b
:1026300009f0a6001000200008003700820f5400a7
:10264000838f5c00030039001000200001003e0071
:102650000000200009f0a7000000ea004f05be00be
:102660004f04be000000e00000000600889fbe008e
:102670008a9fbe0000827000040271000482710013
:10268000260032000004be000200be006011b80047
:102690006b092000950220000182cf000a0039005a
:1026a0000541b1000082cf00070039000541b100ab
:1026b0000982cf00040039000541b1000882cf0033
:1026c000010039000541b1000542520012003200fc
:1026d0000a003b0082817100610164008100d10029
:1026e0000080d3008984d3000884d3008b05e800e0
:1026f0000442e800f7ff3a000700370008044400ee
:1027000089844c0000004800818048008b05e90066
:102710000442e900f9ff3a0032ff07004f05be000e
:082720004f04be00000006009a
:020000040000fa
:1027280000c100008140000001c00000804100009d
:1027380001c000008041000000c10000814000008d
:1027480001c000008041000000c10000814000007d
:1027580000c100008140000001c00000804100006d
:1027680001c000008041000000c10000814000005d
:1027780000c100008140000001c00000804100004d
:1027880000c100008140000001c00000804100003d
:1027980001c000008041000000c10000814000002d
:1027a80001c000008041000000c10000814000001d
:1027b80000c100008140000001c00000804100000d
:1027c80000c100008140000001c0000080410000fd
:1027d80001c000008041000000c1000081400000ed
:1027e80000c100008140000001c0000080410000dd
:1027f80001c000008041000000c1000081400000cd
:1028080001c000008041000000c1000081400000bc
:1028180000c100008140000001c0000080410000ac
:1028280001c000008041000000c10000814000009c
:1028380000c100008140000001c00000804100008c
:1028480000c100008140000001c00000804100007c
:1028580001c000008041000000c10000814000006c
:1028680000c100008140000001c00000804100005c
:1028780001c000008041000000c10000814000004c
:1028880001c000008041000000c10000814000003c
:1028980000c100008140000001c00000804100002c
:1028a80000c100008140000001c00000804100001c
:1028b80001c000008041000000c10000814000000c
:1028c80001c000008041000000c1000081400000fc
:1028d80000c100008140000001c0000080410000ec
:1028e80001c000008041000000c1000081400000dc
:1028f80000c100008140000001c0000080410000cc
:1029080000c100008140000001c0000080410000bb
:1029180001c000008041000000c1000081400000ab
:1029280000c00000c1010000c303000002c2000093
:10293800c606000007c7000005c50000c404000063
:10294800cc0c00000dcd00000fcf0000ce0e000013
:102958000aca0000cb0b0000c909000008c8000023
:10296800d818000019d900001bdb0000da1a000093
:102978001ede0000df1f0000dd1d00001cdc000063
:1029880014d40000d5150000d717000016d6000093
:10299800d212000013d3000011d10000d0100000a3
:1029a800f030000031f1000033f30000f232000093
:1029b80036f60000f7370000f535000034f4000063
:1029c8003cfc0000fd3d0000ff3f00003efe000013
:1029d800fa3a00003bfb000039f90000f838000023
:1029e80028e80000e9290000eb2b00002aea000093
:1029f800ee2e00002fef00002ded0000ec2c000063
:102a0800e424000025e5000027e70000e626000092
:102a180022e20000e3230000e121000020e00000a2
:102a2800a060000061a1000063a30000a262000092
:102a380066a60000a7670000a565000064a4000062
:102a48006cac0000ad6d0000af6f00006eae000012
:102a5800aa6a00006bab000069a90000a868000022
:102a680078b80000b9790000bb7b00007aba000092
:102a7800be7e00007fbf00007dbd0000bc7c000062
:102a8800b474000075b5000077b70000b676000092
:102a980072b20000b3730000b171000070b00000a2
:102aa8005090000091510000935300005292000092
:102ab8009656000057970000559500009454000062
:102ac8009c5c00005d9d00005f9f00009e5e000012
:102ad8005a9a00009b5b0000995900005898000022
:102ae80088480000498900004b8b00008a4a000092
:102af8004e8e00008f4f00008d4d00004c8c000062
:102b08004484000085450000874700004686000091
:102b180082420000438300004181000080400000a1
:102b2800596f00006e670000436900000000000054
:020000040000fa
:102b38000200fa00e0bb200080c0eb0001487800ea
:102b4800c0ba2000e05d880080bc200080c0eb0097
:102b58000148780020ba2000305e88000060fe003e
:102b6800c0b8200001c1b30001487800d0b82000e7
:102b780021c0b30001487800e0b820008040eb0095
:102b880001487800f0b82000a1c0b30001487800df
:102b98000060fe00c0b520008040eb0001487800ce
:102ba800c0af20008040eb0001487800c0b2200090
:102bb8008040eb00014878000060fe000040800083
:102bc800805c880050428000905c88001040800043
:102bd800a05c8800418020009140780060b9200006
:102be80001487800518020009140780070b9200099
:102bf800014878003040800041408000d05c880067
:102c0800e15c88005240800063408000f25c8800ec
:102c1800035d880010cab3004ce8b70001bc20006f
:102c280060bb200027070700004f78000060fe0007
:102c38000200370040cab3004ce8b7001e407800d5
:102c48000004e000fbff3a000060fe0020cab30069
:102c58004ce8b7000080fa00000006000400fa0003
:102c6800000f7800110798000060fe001e00780031
:102c7800300090000000e80010407800ee4f50004f
:102c88003e0032000060fe00c0b82000104078000e
:102c98000081fb008001eb00f00320000100200010
:102ca80002027800030178008001780001007800b2
:102cb80003026200000061008000eb00c000dd003c
:102cc800000020000001be006120b8000001710072
:102cd80081817100431add00cd12de008502720089
:102ce8004312dd0030402000010020000000720087
:102cf800818072001e0190000089be001e009000b5
:102d0800300090009e007800b1009000914078005b
:102d18000174a100014878001e0090003000900066
:102d28000000e80041c9b300014878001e00900087
:102d3800300090000080e80081c0b30001487800ae
:102d48001e009000300090006300400021c0b300d6
:102d5800014878001e00900041c0b300414098002f
:102d68000060fe001e0078008040eb0001489800db
:102d78001e009000200b0700840037001e0078001a
:102d8800300090000080e80010407800e14f5000cb
:102d98003e0032000060fe00c0b8200010407800fd
:102da8000081fb008001eb00f003200001002000ff
:102db80002027800030178008001780001007800a1
:102dc80003026200000061008000eb00c000dd002b
:102dd800000020000001be006120b8000001710061
:102de80081817100431add00cd12de008502720078
:102df8004312dd0030402000010020000000720076
:102e0800818072001e0190000089be001e009000a3
:102e1800300090009e007800b1009000914078004a
:102e28000174a100014878001e0090003000900055
:102e38000000e80041c9b300014878001e00900076
:102e4800300090000080e80081c2b300014878009b
:102e58001e009000300090006300400080c0eb002e
:102e6800014878001e00900041c0b300414098001e
:102e78000060fe001e0078008040eb0001489800ca
:102e88001e009000dc0a070040003700c0b8200090
:102e9800104078000081fb008001eb00f003200067
:102ea8000100200002027800030178008001780008
:102eb8000100780003026200000061008000eb005e
:102ec800c000dd00000020000001be006120b80045
:102ed8000001710081817100431add00cd12de000e
:102ee800850272004312dd003040200001002000fe
:102ef80000007200818072001e0190000089be00ef
:102f08001e009000300090009e007800b1009000f4
:102f1800914078000174a100014878001e009000db
:102f2800300090000000e800e1c8b30001487800d4
:102f38001e009000300090000080e8007140800082
:102f480081407800014878001e0090003000900011
:102f58006300400071408000c808de0081407800ae
:102f6800014878001e00900041c0b300414098001d
:102f78000060fe001e0078008040eb0001489800c9
:102f88000060fe001e0090009b0a07000080fa0007
:102f9800000006000400fa00000f780011079800ee
:102fa8001e007800300090000000e8001040780013
:102fb8000080fb00f00f500003013200f00f5000ba
:102fc80003003c00ee0f5000050032008a01370074
:102fd800b004b100e10f500087013e0081013700c5
:102fe8000060fe001e007800300090006400400081
:102ff800104078000080fb00e20f50003d003200d6
:10300800e50f500074003200e10f5000b1003a00a3
:10301800c0b82000104078000081fb008001eb0060
:10302800f00320000100200002027800030178006c
:10303800800178000100780003026200000061004e
:103048008000eb00c000dd00000020000001be0091
:103058006120b8000001710081817100431add0010
:10306800cd12de00850272004312dd0030402000e0
:103078000100200000007200818072001e01900093
:103088000089be001e009000300090009e0078006d
:10309800b1009000914078000174a10001487800c7
:1030a8001e009000300090000000e800e1c8b30066
:1030b800014878001e009000300090000080e80071
:1030c800c1b8200091407800014878001e009000a7
:1030d80031c0b300414098000060fe001e00780037
:1030e8008040eb00014898001e009000420a07004b
:1030f8007e013700c0b82000104078000081fb0036
:103108008001eb00f003200001002000020278009b
:103118000301780080017800010078000302620052
:10312800000061008000eb00c000dd00000020000e
:103138000001be006120b8000001710081817100aa
:10314800431add00cd12de00850272004312dd0055
:1031580030402000010020000000720081807200d1
:103168001e0190000089be001e00900030009000f3
:103178009e007800b1009000914078000174a10091
:10318800014878001e009000300090000000e80020
:10319800e1c8b300014878001e009000300090009c
:1031a8000080e800d1b820009140780001487800fc
:1031b8001e00900031c0b300414098000060fe003e
:1031c8001e0078008040eb00014898001e00900027
:1031d800090a070045013700c0b8200010407800f0
:1031e8000081fb008001eb00f003200001002000bb
:1031f800020278000301780080017800010078005d
:1032080003026200000061008000eb00c000dd00e6
:10321800000020000001be006120b800000171001c
:1032280081817100431add00cd12de008502720033
:103238004312dd0030402000010020000000720031
:10324800818072001e0190000089be001e0090005f
:10325800300090009e007800b10090009140780006
:103268000174a100014878001e0090003000900011
:103278000000e800e1c8b300014878001e00900093
:10328800300090000080e800e1b82000914078000c
:10329800014878001e009000300090006300400054
:1032a800f1b8200091407800014878001e00900095
:1032b80041c0b300414098000060fe001e00780045
:1032c8008040eb00014898001e009000ca090700e2
:1032d80006013700c0b82000104078000081fb00cc
:1032e8008001eb00f00320000100200002027800ba
:1032f8000301780080017800010078000302620071
:10330800000061008000eb00c000dd00000020002c
:103318000001be006120b8000001710081817100c8
:10332800431add00cd12de00850272004312dd0073
:1033380030402000010020000000720081807200ef
:103348001e0190000089be001e0090003000900011
:103358009e007800b1009000914078000174a100af
:10336800014878001e009000300090000000e8003e
:1033780041c9b300014878001e0090003000900059
:103388000080e80081c2b300014878001e00900068
:10339800300090006300400080c0eb0001487800d6
:1033a8001e00900041c0b300414098000060fe003c
:1033b8001e0078008040eb00014898001e00900035
:1033c8008d090700c90037001e0078003000900002
:1033d80063004000104078000080fb00e50f5000bb
:1033e80043003e00110020008008dd00600220003c
:1033f800008060000000e0003d003200c0b82000fe
:10340800104078000081fb008001eb00f0032000f1
:103418000100200002027800030178008001780092
:103428000100780003026200000061008000eb00e8
:10343800c000dd00000020000001be006120b800cf
:103448000001710081817100431add00cd12de0098
:10345800850272004312dd00304020000100200088
:1034680000007200818072001e0190000089be0079
:103478001e009000300090009e007800b10090007f
:10348800914078000174a100014878001e00900066
:10349800300090000000e80041c9b30001487800fe
:1034a8001e009000300090000080e800e1c0b300ea
:1034b800014878001e009000300090006300400032
:1034c80080c0eb00014878001e00900041c0b300a6
:1034d800414098000060fe001e0078008040eb002c
:1034e800014898001e009000430907007f0037003c
:1034f800c0b82000104078000081fb008001eb007c
:10350800f003200001002000020278000301780087
:103518008001780001007800030262000000610069
:103528008000eb00c000dd00000020000001be00ac
:103538006120b8000001710081817100431add002b
:10354800cd12de00850272004312dd0030402000fb
:103558000100200000007200818072001e019000ae
:103568000089be001e009000300090009e00780088
:10357800b1009000914078000174a10001487800e2
:103588001e009000300090000000e80041c9b30020
:10359800014878001e009000300090000080e8008c
:1035a80081c2b300014878001e00900030009000ee
:1035b8006300400080c0eb00014878001e009000c6
:1035c80041c0b300414098000060fe001e00780032
:1035d8008040eb00014898001e0090000609070093
:1035e800420037000060fe009e0090001e00780038
:1035f8001f0607003d003700c0b8200010407800c3
:103608000081fb008001eb00f00320000100200096
:103618000202780003017800800178000100780038
:1036280003026200000061008000eb00c000dd00c2
:10363800000020000001be006120b80000017100f8
:1036480081817100431add00cd12de00850272000f
:103658004312dd003040200001002000000072000d
:10366800818072001e0190000089be001e0090003b
:10367800300090009e007800b100900091407800e2
:103688000174a100014878001e00900030009000ed
:103698000000e80041c9b300014878001e0090000e
:1036a800300090000080e80081c0b3000148780035
:1036b8001e009000300090006300400080c0eb00c6
:1036c800014878001e00900041c0b30041409800b6
:1036d8000060fe001e0078008040eb000148980062
:1036e8001e009000c4080700000000000080fa00d7
:1036f800000006000400fa00000f78001107980087
:10370800c0b82000104078000081fb008001eb0069
:10371800f003200001002000020278000301780075
:103728008001780001007800030262000000610057
:103738008000eb00c000dd00000020000001be009a
:103748006120b8000001710081817100431add0019
:10375800cd12de00850272004312dd0030402000e9
:103768000100200000007200818072001e0190009c
:103778000089be000060fe001e009000300090002e
:103788009e007800b1009000914078000174a1007b
:10379800014878001e009000300090000000e8000a
:1037a80041c9b300014878001e0090003000900025
:1037b8000080e80081c0b300014878001e00900036
:1037c800300090006300400011c0b3000148780049
:1037d8001e00900041c0b300414098000060fe0008
:1037e8001e0078008040eb00014898001e00900001
:1037f800810807000080fa00000006000400fa00b3
:10380800000f780011079800c0b820001040780019
:103818000081fb008001eb00f00320000100200084
:103828000202780003017800800178000100780026
:1038380003026200000061008000eb00c000dd00b0
:10384800000020000001be006120b80000017100e6
:1038580081817100431add00cd12de0085027200fd
:103868004312dd00304020000100200000007200fb
:10387800818072001e0190000089be001e00900029
:10388800300090009e007800b100900091407800d0
:103898000174a100014878000060fe001e00780055
:1038a800300090000000e800104078000080fb0025
:1038b800ee0f50001c003200f00f50004f003a008d
:1038c8000060fe001e009000300090000000e8003c
:1038d80001c9b300014878001e0090003000900034
:1038e8000080e8009e007800b1009000e58040006c
:1038f80091407800014878001e0090003000900048
:10390800630040009e007800b1009000e68040000f
:1039180091407800014878001e00900041c0b30033
:1039280041409800490037001e0090003000900088
:103938000000e800e1c8b300014878000060fe001c
:103948001e007800300090006400400010407800ad
:103958000080fb00e70f500003003200e80f500022
:1039680010003200100037000060fe001e009000ba
:10397800300090000080e80081c0b3000148780062
:103988001e00900030009000630040008040eb0073
:10399800014878001e00900041c0b30041409800e3
:1039a80015003700140037000060fe001e0090006c
:1039b800300090000000e80041c9b30001487800d9
:1039c8001e009000300090000080e80081c0b30025
:1039d800014878001e00900030009000630040000d
:1039e80011c0b300014878001e00900041c0b30028
:1039f8004140980000000000140037000060fe00fd
:103a08001e009000300090000000e80041c9b3009b
:103a1800014878001e009000300090000080e80007
:103a280081c0b300014878001e009000300090006b
:103a38006300400011c0b300014878001e009000e8
:103a480041c0b30041409800000000001e0078000b
:103a58008040eb00014898000060fe001e009000c6
:103a6800e50707000080fa00000006000400fa00dd
:103a7800000f780011079800c0b8200010407800a7
:103a88000081fb008001eb00f00320000100200012
:103a980002027800030178008001780001007800b4
:103aa80003026200000061008000eb00c000dd003e
:103ab800000020000001be006120b8000001710074
:103ac80081817100431add00cd12de00850272008b
:103ad8004312dd0030402000010020000000720089
:103ae800818072001e0190000089be001e009000b7
:103af800300090009e007800b1009000914078005e
:103b08000174a100014878000060fe001e007800e2
:103b1800300090000000e800104078000080fb00b2
:103b2800ee0f50003b003200f00f50007c003a00ce
:103b38000060fe001e009000300090000000e800c9
:103b480001c9b300014878001e00780030009000d9
:103b580064004000104078000080fb00e10f500036
:103b680083003a001e007800300090006500400095
:103b780010407800e44f500011003e000060fe0045
:103b88001e007800300090006500400090407800ea
:103b9800c0af2000014878001e009000300090005f
:103ba8000080e800c1af200091407800014878000b
:103bb8001e00900031c0b300414098001300370048
:103bc8000060fe001e009000300090000000e80039
:103bd80041c9b300014878001e00900030009000f1
:103be8000080e80091c0b300014878001e009000f2
:103bf800300090006300400080c0eb00014878006e
:103c08001e00900041c0b300414098000000000031
:103c1800580037000060fe001e0090003000900041
:103c28000000e800e1c8b300014878001e007800f1
:103c38003000900064004000104078000080fb00d5
:103c4800e70f500003003200e80f50001000320068
:103c58001e0037000060fe001e009000300090003b
:103c68000080e80081c0b300014878001e00900081
:103c780030009000630040008040eb00014878006d
:103c88001e00900041c0b300414098002300370057
:103c98000060fe001e009000300090000080e800e8
:103ca80081c0b300014878001e00900030009000e9
:103cb800630040008040eb00014878001e0090003f
:103cc80041c0b30041409800140037000060fe0076
:103cd8001e009000300090000000e80041c9b300c9
:103ce800014878001e009000300090000080e80035
:103cf80081c0b300014878001e0090003000900099
:103d08006300400011c0b300014878001e00900015
:103d180041c0b30041409800000000001500370082
:103d28000060fe001e009000300090000000e800d7
:103d380041c9b300014878001e009000300090008f
:103d48000080e80081c0b300014878001e009000a0
:103d5800300090006300400011c0b30001487800b3
:103d68001e00900041c0b300414098000100370098
:103d7800000000000060fe001e0078008040eb009c
:103d8800014898001e0090001b0707000080fa00f9
:103d9800000006000400fa00000f780011079800e0
:103da800c0b82000104078000081fb008001eb00c3
:103db800f0032000010020000202780003017800cf
:103dc80080017800010078000302620000006100b1
:103dd8008000eb00c000dd00000020000001be00f4
:103de8006120b8000001710081817100431add0073
:103df800cd12de00850272004312dd003040200043
:103e08000100200000007200818072001e019000f5
:103e18000089be000060fe001e0090003000900087
:103e28009e007800b1009000914078000174a100d4
:103e3800014878001e009000300090000000e80063
:103e480041c9b300014878001e009000300090007e
:103e58000080e80081c0b300014878001e0090008f
:103e6800300090006300400011c0b30001487800a2
:103e78001e00900041c0b300414098000060fe0061
:103e88001e0078008040eb00014898001e0090005a
:103e9800d90607000080fa00000006000600fa00b4
:103ea8001007980021079800c0b82000104078003b
:103eb8000081fb008001eb00f003200001002000de
:103ec8000202780003017800800178000100780080
:103ed80003026200000061008000eb00c000dd000a
:103ee800000020000001be006120b8000001710040
:103ef80081817100431add00cd12de008502720057
:103f08004312dd0030402000010020000000720054
:103f1800818072002e0190000089be002e00900062
:103f2800300090009e009000b10090009140780011
:103f38000174a100014878000060fe001e00900096
:103f4800300090000000e80010407800ee4f50006c
:103f5800f6003a002e009000300090000000e800c3
:103f6800e1c8b300014878001e00900030009000be
:103f780064004000104f78001e0090008040eb0065
:103f8800014898000060fe001e80fb00e40f50000e
:103f98004c003200e40f500007003c00e20f5000d4
:103fa80020003200e20f500032003c00e10f5000c8
:103fb80008003200c6003700e60f500069003200e2
:103fc800e60f500052003500e70f50008f00320016
:103fd800bf0037000060fe002e0090003000900007
:103fe8000080e800815c800081407800014878000a
:103ff8002e0090003000900063004000815c80003b
:10400800c808de0081407800014878002e00900042
:1040180041c0b300414098002e009000760607008a
:10402800d80037000060fe002e009000300090009d
:104038000080e800915c80008140780001487800a9
:104048002e0090003000900063004000915c8000da
:10405800c808de0081407800014878002e009000f2
:1040680041c0b300414098002e009000620607004e
:10407800c40037000060fe002e0090003000900061
:104088000080e800a15c8000814078000148780049
:104098002e0090003000900063004000a15c80007a
:1040a800c808de0081407800014878002e009000a2
:1040b80041c0b300414098002e0090004e06070012
:1040c800b00037000060fe002e0090003000900025
:1040d8000080e80061b9200091407800014878002c
:1040e8002e009000300090006300400071b920005d
:1040f80091407800014878002e00900041c0b3003c
:10410800414098002e0090003b0607009d003700b4
:104118000060fe002e009000300090000080e80053
:10412800c15c800081407800014878002e00900032
:104138003000900063004000c15c8000c808de00c9
:1041480081407800014878002e00900041c0b300fb
:10415800414098000060fe002e00900026060700ef
:10416800880037000060fe002e00900030009000ac
:104178000081e800d05c8000e15c800000407800ad
:10418800004978002e009000300090006301400044
:10419800d05c8000e15c8000c809dd004800de00da
:1041a80000807100c808de000040780000497800ef
:1041b8002e0090003000900064014000d05c800028
:1041c800e15c80004008de0000407800004978008b
:1041d8002e0090003000900065014000d05c800007
:1041e800e15c80004808de00004078000049780063
:1041f8002e00900061c0b300414098000060fe00ae
:104208002e009000fc0507005e0037000060fe00ed
:104218002e009000300090000080e800f15c8000e3
:1042280081407800014878002e009000300090000e
:1042380063004000015d80009140780001487800eb
:104248002e0090003000900064004000015d800066
:104258008100e80091407800014878002e00900025
:104268003000900065004000015d80008180e8001a
:1042780091407800014878002e00900030009000ae
:1042880066004000015d8000e380400091407800b6
:10429800014878002e009000300090006700400030
:1042a800015d8000e480400091407800014878007a
:1042b8002e00900081c0b300414098000060fe00cd
:1042c8002e009000cc050700000000002d003700ec
:1042d8000060fe002e009000300090000000e80012
:1042e80041c9b300014878002e00900030009000ca
:1042f8000080e800e1c0b300014878002e0090007b
:10430800300090006300400080c0eb000148780056
:104318002e00900041c0b300414098000060fe00ac
:104328002e009000b4050700160037000060fe005c
:104338002e009000300090000000e80041c9b30052
:10434800014878002e009000300090000080e800be
:1043580081c0b300014878002e0090003000900022
:104368006300400080c0eb00014878002e009000f8
:1043780041c0b300414098000060fe002e0090004c
:104388009d0507000080fa00000006000400fa00fe
:10439800000f7800110798000060fe00c0b82000e8
:1043a800104078000081fb008001eb00f003200042
:1043b80001002000020278000301780080017800e3
:1043c8000100780003026200000061008000eb0039
:1043d800c000dd00000020000001be006120b80020
:1043e8000001710081817100431add00cd12de00e9
:1043f800850272004312dd003040200001002000d9
:1044080000007200818072001e0190000089be00c9
:104418001e009000300090009e007800b1009000cf
:10442800914078000174a100014878001e009000b6
:10443800300090000000e80041c9b300014878004e
:104448001e009000300090000080e80081c0b3009a
:10445800014878001e009000300090006300400082
:1044680011c0b300014878001e00900041c0b3009d
:10447800414098000060fe001e0078008040eb007c
:10448800014898001e0090005b0507000080fa00b4
:10449800000006000000fa000060fe00c0b5200021
:1044a80031c0b30001487800d0b520008040eb004f
:1044b80001487800e0b5200031c8b3000148780011
:1044c800f00f2000005b8800f00f2000105b8800d0
:1044d80040b6200021c2b30001487800f00f200048
:1044e800305b88000060fe00f00f2000405b880011
:1044f800409c2000505b8800c0b6200011c0b3006b
:10450800014878000000eb00705b8800f00f200085
:10451800e05b88000000eb00505c88000060fe0053
:104528000080fa00000006000000fa000060fe00ab
:10453800c0af200031c0b30001487800d0af2000e0
:1045480011c0b30001487800e0af200021c8b300d3
:1045580001487800f00f200000588800f00f200074
:104568001058880040b0200011c0b30001487800fe
:10457800f00f200030588800f00f200040588800c5
:104588000000eb0050588800c0b020008040eb00cd
:1045980001487800f00f200070588800f00f2000c4
:1045a800e05888000000eb00505988000060fe00c9
:1045b8000080fa00000006000000fa000060fe001b
:1045c800c0b2200031c0b30001487800d0b220004a
:1045d80001c1b30001487800e0b2200021c8b3004f
:1045e80001487800f00f200080598800f00f200063
:1045f8009059880040b3200011c0b30001487800ea
:10460800f00f2000b0598800f00f2000c059880032
:104618000000eb00d0598800c0b320008040eb00b8
:1046280001487800f00f2000f0598800f00f2000b2
:10463800605a88000000eb00d05a88000060fe0035
:104648000080fa00000006000600fa001007980033
:10465800210798001e0090001000be004d09dd00e3
:104668004300de0000007100c388de0000407800cf
:10467800f1c3b300014f60001e0090001000be009f
:104688000040780067406000104798000060fe0016
:10469800c0b82000104078009e4f50002b003a0010
:1046a8000060fe001e4090000080fb00e50f5000f7
:1046b80018003200e50f500003003c00e40f5000e2
:1046c800190032001d003700e60f50000c003200c0
:1046d800e70f500019003a000060fe00c0b8200043
:1046e800104078009e4f500017003a000060fe000e
:1046f80001c8b3001e009000160007001300370021
:104708000060fe00ae0090001e009000d801070077
:104718000e0037000060fe00ae0090001e00900002
:1047280053040700090037000060fe00ae00900047
:104738001e009000e6030700040037000060fe003a
:104748000000000001003700000000000080fa00af
:10475800000006000400fa00000f780021479800c6
:104768000060fe00c0b82000104078000081fb0007
:104778008001eb00f0032000010020000202780015
:1047880003017800800178000100780003026200cc
:10479800000061008000eb00c000dd000000200088
:1047a8000001be006120b800000171008181710024
:1047b800431add00cd12de00850272004312dd00cf
:1047c800704020000100200000007200818072000b
:1047d8001e0178000089be001e007800300090009d
:1047e800ae409000014878001e007800300090002c
:1047f8000000e800815c8000814078000148780072
:104808001e007800300090000080e800815c800085
:10481800c808de0081407800014878001e00780052
:104828003000900063014000d05c8000e15c8000b3
:1048380000407800004978001e00780030009000a1
:1048480064014000d05c8000e15c8000c809dd00a4
:104858004800de0000807100c808de0000407800d3
:10486800004978001e007800300090006501400083
:10487800d05c8000e15c80004008de0000407800e9
:10488800004978001e007800300090006601400062
:10489800d05c8000e15c80004808de0000407800c1
:1048a800004978001e00780071c0b30041409800ac
:1048b8000060fe001e0078004f0407000080fa0028
:1048c800000006000800fa00200798003107980049
:1048d8000000eb00000f78000060fe002e00900042
:1048e8008040eb00014898008040eb003e009000bb
:1048f80098ff070051040700240037000060fe00fd
:104908002e009000004890000004e0001f003200d4
:104918000060fe002e0090001000be004d09dd0072
:104928004300de0000007100c388de00004078000c
:10493800f043b200204798002e0090001000be00ff
:104948000040780067406000304798000060fe0033
:104958003e409000e74f50000b003a00c0b82000de
:10496800904078002e40900080cf500007003a0019
:104978000060fe002e0090008040eb000148980087
:1049880000c0eb000d0037000000000037040700ee
:104998000004e000d9ff3a001e0fe8001e0078006e
:1049a800e10f5000ccff34000060fe002e009000a4
:1049b8008040eb00014898000040eb000080fa00be
:1049c800000006000600fa0010079800210798006a
:1049d8000040eb00004f78000040eb0010479800c3
:1049e8000060fe00c05c800061006000004078004c
:1049f8000004e0000e0032001e009000300090001d
:104a08006500400090407800f0b820001040780021
:104a180080cf5000060032000060fe00c0c0b30026
:104a2800004f780010c0b300104798002c003700e2
:104a38001e009000300090000080e80010407800d0
:104a4800e34f500006003a001e009000300090002e
:104a58006300400010407800e14f5000060032002b
:104a68000060fe0090c0b300004f780000c0eb006b
:104a7800104798001a0037001e0090003000900080
:104a880064004000104078000004e00006003a008e
:104a98000060fe0090c0b300004f780020c0b30053
:104aa800104798000e0037001e009000300090005c
:104ab80064004000104078008080fb0080fe2f00da
:104ac800008060000000e000050032000060fe0089
:104ad80020c0b300004f780020c0b30010479800f2
:104ae8001e4078000004e0003e0032000060fe0036
:104af800c0b82000104078000081fb008001eb0066
:104b0800f003200001002000020278000301780071
:104b18008001780001007800030262000000610053
:104b28008000eb00c000dd00000020000001be0096
:104b38006120b8000001710081817100431add0015
:104b4800cd12de00850272004312dd0030402000e5
:104b58000100200000007200818072002e01900088
:104b68000089be002e009000300090009e0090004a
:104b7800b1009000914078000174a10001487800cc
:104b88002e009000300090000000e80041c9b300fa
:104b9800014878002e009000300090000080e80066
:104ba8001e4878002e0090003000900063004000fe
:104bb8009e409000014878002e00900041c0b3004c
:104bc800414098000060fe001e0090008040eb000d
:104bd800014898002e009000870307000040eb0072
:104be8000100370000c0eb000080fa00000006005a
:104bf8000800fa0020079800310798000040eb00f1
:104c0800004f78000040eb00104798002e009000fd
:104c180030009000640040009040780021479800e0
:104c28000060fe002e4090000004e00035003a00cd
:104c38000060fe00c0b82000104078000081fb0032
:104c48008001eb00f0032000010020000202780040
:104c580003017800800178000100780003026200f7
:104c6800000061008000eb00c000dd0000002000b3
:104c78000001be006120b80000017100818171004f
:104c8800431add00cd12de00850272004312dd00fa
:104c98003040200001002000000072008180720076
:104ca8003e0190000089be003e0090003000900058
:104cb800ae009000b1009000914078000174a1000e
:104cc800014878003e009000300090000000e800a5
:104cd800c1ccb300014878003e00900021c0b30069
:104ce800414098000060fe002e0090008040eb00dc
:104cf800014898003e0090003f0307000040eb0089
:104d0800590037002e4090008080fb0080fe2f0065
:104d1800008060000000e000060032000060fe0035
:104d280020c0b300004f780020c0b300104798009f
:104d38000b003700e0b82000904078002e4090002b
:104d480000c060000004e00005003a000060fe00ba
:104d5800b0c0b300004f780020c0b30010479800df
:104d68001e4078000004e0003e0032000060fe00b3
:104d7800c0b82000104078000081fb008001eb00e3
:104d8800f0032000010020000202780003017800ef
:104d980080017800010078000302620000006100d1
:104da8008000eb00c000dd00000020000001be0014
:104db8006120b8000001710081817100431add0093
:104dc800cd12de00850272004312dd003040200063
:104dd8000100200000007200818072003e019000f6
:104de8000089be003e00900030009000ae009000a8
:104df800b1009000914078000174a100014878004a
:104e08003e009000300090000000e80041c9b30067
:104e1800014878003e009000300090000080e800d3
:104e28001e4878003e00900030009000630040006b
:104e38009e409000014878003e00900041c0b300b9
:104e4800414098002e0090008040eb0001489800f7
:104e58000060fe003e009000e70207000040eb0003
:104e68000100370000c0eb000080fa0000000600d7
:104e78000600fa0010079800210798001e0090000d
:104e8800300090000000e80090407800b0c4b30003
:104e980080cf500059013a000060fe00ae0090003b
:104ea8001e009000c7fe07000004e00002003a0060
:104eb8000060fe00040237001e00900030009000e1
:104ec8006500400090407800f0b820000148780064
:104ed8001e0090003000900064004000104f7800e1
:104ee800e0b82000104078009e407000e0b8200034
:104ef800014878000060fe001e80fb006200600030
:104f08000000e0005b0032000060fe0086fd070044
:104f1800c0b82000104078008080fb00003c2000d2
:104f28000100700000588800c0b8200010407800c8
:104f38000081fb008001eb00f0032000010020004d
:104f480002027800030178008001780001007800ef
:104f580003026200000061008000eb00c000dd0079
:104f6800000020000001be006120b80000017100af
:104f7800818171004318dd00cd10de0081007000d2
:104f88004310dd00800078005040200001007000d0
:104f980010588800c0b82000104078000081fb003d
:104fa8008001eb00f00320000100200002027800dd
:104fb8000301780080017800010078000302620094
:104fc800000061008000eb00c000dd000000200050
:104fd8000001be006120b8000001710081817100ec
:104fe800431add00cd12de00850272004312dd0097
:104ff8003040200001002000000072008180720013
:105008002e0190000089be002e0090003000900014
:105018009e009000b1009000914078000174a100ba
:10502800014878002e009000300090000000e80051
:10503800b1ccb300014878002e00900030009000f9
:105048000080e8008040eb00014878002e009000c6
:1050580031c0b300414098001e0090008040eb0032
:10506800014898000060fe002e00900062020700d0
:10507800950137001e80fb00610060000040780049
:105088000004e000700032000060fe0001fd07002f
:10509800c0b82000104078000081fb008001eb00c0
:1050a800f0032000010020000202780003017800cc
:1050b80080017800010078000302620000006100ae
:1050c8008000eb00c000dd00000020000001be00f1
:1050d8006120b80000017100818171004318dd0072
:1050e800cd10de00810070004310dd0080007800e4
:1050f8003040200001007000005b8800c0b820002c
:10510800104078000081fb008001eb00f0032000d4
:105118000100200002027800030178008001780075
:105128000100780003026200000061008000eb00cb
:10513800c000dd00000020000001be006120b800b2
:1051480000017100818171004318dd00cd10de007f
:10515800810070004310dd0080007800404020008e
:1051680001007000105b88000060fe00c0b82000dd
:10517800104078000081fb008001eb00f003200064
:105188000100200002027800030178008001780005
:105198000100780003026200000061008000eb005b
:1051a800c000dd00000020000001be006120b80042
:1051b8000001710081817100431add00cd12de000b
:1051c800850272004312dd003040200001002000fb
:1051d80000007200818072002e0190000089be00dc
:1051e8002e009000300090009e009000b1009000ca
:1051f800914078000174a100014878002e009000c9
:10520800300090000000e800b1ccb30001487800fd
:105218002e009000300090000080e8008040eb00f5
:10522800014878002e00900031c0b300414098003a
:105238001e0090008040eb00014898000060fe00ce
:105248002e009000ec0107001e80fb00700060003b
:105258000000e0005e0032000060fe00d6fc07009f
:10526800c0b82000104078008080fb00f0032000c8
:1052780080806000003420000100700080598800a0
:10528800c0b82000104078000081fb008001eb00ce
:10529800f0032000010020000202780003017800da
:1052a80080017800010078000302620000006100bc
:1052b8008000eb00c000dd00000020000001be00ff
:1052c8006120b80000017100818171004318dd0080
:1052d800cd10de00810070004310dd0080007800f2
:1052e8005040200001007000905988000060fe00c6
:1052f800c0b82000104078000081fb008001eb005e
:10530800f003200001002000020278000301780069
:10531800800178000100780003026200000061004b
:105328008000eb00c000dd00000020000001be008e
:105338006120b8000001710081817100431add000d
:10534800cd12de00850272004312dd0030402000dd
:105358000100200000007200818072002e01900080
:105368000089be002e009000300090009e00900042
:10537800b1009000914078000174a10001487800c4
:105388002e009000300090000000e800b1ccb3007f
:10539800014878002e009000300090000080e8005e
:1053a8008040eb00014878002e00900031c0b30027
:1053b800414098001e0090008040eb000148980092
:1053c8000060fe002e0090008b010700be00370031
:1053d8001e80fb00640060000000e0000300320053
:1053e8000060fe000060fe00b7003700c05c80006f
:1053f8000000a000c05c8800b30037001e009000c9
:10540800300090000000e80090407800c0c4b3006d
:1054180080cf50006e003a00ae0090001e00900051
:10542800f3fd07000004e00002003a000060fe00ff
:10543800a50037001e009000300090006400400076
:105448009040780011479800e0b82000904078001c
:105458001e40900000c0ea0080c07000e0b8200044
:10546800014878001e4090000080fb006200600048
:105478000000e000080032000060fe000000eb00c1
:10548800005888000000eb0010588800c0af2000ca
:105498008040eb00014878001e4090000080fb002f
:1054a800700060000000e000080032000060fe00ac
:1054b8000000eb00805988000000eb00905988003c
:1054c800c0b220008040eb00014878001e409000e8
:1054d8000080fb0061006000004078000004e000ec
:1054e800080032000060fe000000eb00005b88004e
:1054f8000000eb00105b8800c0b520008040eb0086
:1055080001487800c0b82000104078000081fb00f6
:105518008001eb00f0032000010020000202780067
:10552800030178008001780001007800030262001e
:10553800000061008000eb00c000dd0000002000da
:105548000001be006120b800000171008181710076
:10555800431add00cd12de00850272004312dd0021
:10556800304020000100200000007200818072009d
:105578002e0190000089be002e009000300090009f
:105588009e009000b1009000914078000174a10045
:10559800014878002e009000300090000000e800dc
:1055a800c1ccb300014878002e00900021c0b300a0
:1055b800414098001e0090008040eb000148980090
:1055c8000060fe002e0090000b0107003e0037002f
:1055d8000060fe00c0b82000104078000081fb0089
:1055e8008001eb00f0032000010020000202780097
:1055f800030178008001780001007800030262004e
:10560800000061008000eb00c000dd000000200009
:105618000001be006120b8000001710081817100a5
:10562800431add00cd12de00850272004312dd0050
:1056380030402000010020000000720081807200cc
:105648002e0190000089be002e00900030009000ce
:105658009e009000b1009000914078000174a10074
:10566800014878002e009000300090000000e8000b
:1056780041c9b300014878002e0090003000900026
:105688000080e80081c0b300014878002e00900037
:10569800300090006300400021c0b300014878004a
:1056a8002e00900041c0b300414098001e009000b9
:1056b8008040eb00014898000060fe002e0090003a
:1056c800cd000700000000000080fa00000006007e
:1056d8000600fa0010079800210798001e009000a5
:1056e800300090000080e800104f78001e00900005
:1056f8003000900063004000904078001147980007
:105708000060fe00e0b82000104078000080fb0038
:10571800610060000000e0004c0032001e80fb00c9
:10572800e20f50001b003200e20f500003003c0063
:10573800e10f5000060032004b003700e30f500025
:1057480019003200e50f50002800320046003700eb
