:020000040000fa
:080000000001040000000000f3
:020000040000fa
:04000800f4010000ff
:020000040000fa
:04000c00d40100001b
:020000040000fa
:04001000d801000013
:020000040000fa
:04001400dc0100000b
:020000040000fa
:04001800e001000003
:020000040000fa
:04001c00f4010000eb
:020000040000fa
:04002000f4010000e7
:020000040000fa
:04002400f4010000e3
:020000040000fa
:04002800f4010000df
:020000040000fa
:04002c00f4010000db
:020000040000fa
:04003000f4010000d7
:020000040000fa
:04003400f4010000d3
:020000040000fa
:04003800f4010000cf
:020000040000fa
:04003c00f4010000cb
:020000040000fa
:040040000e4300006b
:020000040000fa
:040044005a09000055
:020000040000fa
:04004800f4010000bf
:020000040000fa
:04004c00a2450000c9
:020000040000fa
:04005000a8450000bf
:020000040000fa
:04005400f4010000b3
:020000040000fa
:04005800f4010000af
:020000040000fa
:04005c00f4010000ab
:020000040000fa
:04006000f4010000a7
:020000040000fa
:04006400f4010000a3
:020000040000fa
:04006800f40100009f
:020000040000fa
:04006c00f40100009b
:020000040000fa
:04007000f401000097
:020000040000fa
:04007400f401000093
:020000040000fa
:04007800f40100008f
:020000040000fa
:04007c00f40100008b
:020000040000fa
:04008000f401000087
:020000040000fa
:040084005e1a000000
:020000040000fa
:04008800f40100007f
:020000040000fa
:04008c00f40100007b
:020000040000fa
:04009000f401000077
:020000040000fa
:04009400f401000073
:020000040000fa
:04009800f40100006f
:020000040000fa
:04009c00f40100006b
:020000040000fa
:0400a000f401000067
:020000040000fa
:0400a400f401000063
:020000040000fa
:0400a800f40100005f
:020000040000fa
:0400ac00f40100005b
:020000040000fa
:0400b000f401000057
:020000040000fa
:0400b400f401000053
:020000040000fa
:0400b800e81a000042
:020000040000fa
:0400bc00f40100004b
:020000040000fa
:0400c0006c3600009a
:020000040000fa
:0400c400f401000043
:020000040000fa
:0400c800f40100003f
:020000040000fa
:0400cc00f40100003b
:020000040000fa
:0400d000f401000037
:020000040000fa
:0400d400f401000033
:020000040000fa
:0400d800f40100002f
:020000040000fa
:04010800f4010000fe
:020000040000fa
:04010c00e40100000a
:020000040000fa
:04011000e801000002
:020000040000fa
:04011400ec010000fa
:020000040000fa
:04011800f0010000f2
:020000040000fa
:04011c00f4010000ea
:020000040000fa
:04012000f4010000e6
:020000040000fa
:04012400f4010000e2
:020000040000fa
:04012800f4010000de
:020000040000fa
:04012c00f4010000da
:020000040000fa
:04013000f4010000d6
:020000040000fa
:04013400f4010000d2
:020000040000fa
:04013800f4010000ce
:020000040000fa
:04013c00f4010000ca
:020000040000fa
:04014000f4010000c6
:020000040000fa
:04014400f4010000c2
:020000040000fa
:04014800f4010000be
:020000040000fa
:04014c00f4010000ba
:020000040000fa
:04015000f4010000b6
:020000040000fa
:04015400f4010000b2
:020000040000fa
:04015800f4010000ae
:020000040000fa
:04015c00f4010000aa
:020000040000fa
:04016000f4010000a6
:020000040000fa
:04016400f4010000a2
:020000040000fa
:04016800f40100009e
:020000040000fa
:04016c00f40100009a
:020000040000fa
:04017000f401000096
:020000040000fa
:04017400f401000092
:020000040000fa
:04017800f40100008e
:020000040000fa
:04017c00f40100008a
:020000040000fa
:04018000f401000086
:020000040000fa
:04018400f401000082
:020000040000fa
:04018800f40100007e
:020000040000fa
:04018c00f40100007a
:020000040000fa
:04019000f401000076
:020000040000fa
:04019400f401000072
:020000040000fa
:04019800f40100006e
:020000040000fa
:04019c00f40100006a
:020000040000fa
:0401a000f401000066
:020000040000fa
:0401a400f401000062
:020000040000fa
:0401a800f40100005e
:020000040000fa
:0401ac00f40100005a
:020000040000fa
:0401b000f401000056
:020000040000fa
:0401b400f401000052
:020000040000fa
:0401b800f40100004e
:020000040000fa
:0401bc00f40100004a
:020000040000fa
:0401c000f401000046
:020000040000fa
:0401c400f401000042
:020000040000fa
:0401c800f40100003e
:020000040000fa
:0401cc00f40100003a
:020000040000fa
:0401d000f401000036
:020000040000fa
:0401d400f401000032
:020000040000fa
:0401d800f40100002e
:020000040000fa
:10020000afdc20000e7f22000e01880000000000fd
:10021000000020000000e000020032000001200089
:10022000200288000c000700a03f240001002000ed
:1002300011000700000020000000e0000200320072
:10024000000002000000000018460200000000004c
:100250000040da000000fe004440a900a023200076
:100260000000e0000300320000002000a001880030
:100270004440a8000000060091018800800078003a
:100280000000eb0015003700e280400032a0b4000f
:100290009101ba00e280400032a0b4009102ba009d
:1002a000e280400032a0b4000002eb00472bde00e9
:1002b000f507b200602ce10004003a000059eb00a1
:1002c0008301e900fdff3e00040037006128e100e2
:1002d000010032000082eb000b00070011c3ba00de
:1002e0001101ba000604e00003003a000200e00039
:1002f000e5ff3a0000000600f607b200960188000c
:1003000082007800f5ff37003159ba008301e90017
:100310000c0032002159ba008301e90008003200c4
:100320000400e00003003a00e280400032a0b40084
:10033000f5ff370011d9ba008301e900faff3a004e
:100340008100e800e180400032a0b4000000060017
:10035000301c040000000000fe1b04000000000030
:10036000aa1b040000000000861b0400000000001f
:100370006a1b0400000000004e1b04000000000087
:10038000ce1b040000000000fe0804000000000076
:100390004608040000000000a2080400000000005d
:1003a000ea070400000000008020a900ffff3700da
:1003b0008060a900ffff37008040a900ffff3700e1
:1003c0008080a900ffff37008020a900ffff3700d1
:1003d0008060a900ffff37008040a900ffff3700c1
:1003e0008080a900ffff37000040da000000fe0017
:1003f0003200f800910188000008bb00410424008d
:100400006210e10004003200000220000010e10050
:100410000a003a0051042400013b88000500fc005a
:1004200051052000313b8800a10a2000313b8800a3
:1004300061e7a80000000000000000003200f900a1
:10044000000006003200f80060042400003b880031
:10045000f2ff37003200f8009101880041002400cb
:10046000013b88000208bb00ecff37003200f800b7
:100470009101880051002400013b88000301200005
:100480003218bb008301e900fdff3a00e3ff3700ab
:100490003200f8009101880080027800620040007c
:1004a000e08048003549ba003204e0000410a7009b
:1004b000100032008301e9000e0032002549ba0025
:1004c0003204e0000410a7000a0032008301e900b2
:1004d000080032000408a300eeff320015c9ba007c
:1004e0003204e0000410a700020032008301e9009a
:1004f000e8ff3a003200f9000000060003f0a20015
:10050000889fbe008a9fbe008c1f7800f7000700fe
:10051000fe0033006450e1004f0032006420e1002f
:100520005200320003826c0007003b000905d00036
:100530000306d000820f54000c065d000200390053
:100540000200320089017800030678008582550098
:1005500004003d000003fd008103fd008502ea0068
:100560008b854200840f720002003b006000100087
:10057000e08018006011b8000005eb007a28e10067
:100580000a00390006007800c75ddd00f707b200f9
:10059000878075002d003700828171000a01780084
:1005a000610560008180d1000080d3008502e900f0
:1005b000f9ff3b00060440008784480002003b002e
:1005c00060041400e0841c000988a30007003200c6
:1005d0008a81710082817100610164008904d10007
:1005e0000884d3008b05e800170037000978a300c2
:1005f00013003a000b00e000130034008b05e90003
:100600000804440089844c000a4474000978a3005b
:100610000d003a000b00e000070034008b05e900f4
:100620000804440089844c0001003a000b002000bb
:100630000978a300f7ff32000001eb000200370049
:10064000828171000a0178006d0007000cf0a7009c
:1006500001f0a000b60037006420e10002003a007b
:10066000838f6c00b60033000801be000200be009c
:10067000af003700889fbe008a9fbe008c1f7800a5
:100680009a000700a100330003866c006450e1006b
:100690002e0032006420e100330032006150e1009e
:1006a0002f0032006120e1003100320085855500c5
:1006b000eb07b00009002000080420000500370007
:1006c0000804440089844c000a00310006034300fa
:1006d00087834b000001530081815b00f8ff3300ea
:1006e0000203be000800a0000804440089844c00f6
:1006f000f6ff3900c639dd008301730001003200c6
:10070000130020008904d1000884d3000998a300b5
:10071000050032000800a7000300a0008904d100f2
:100720000884d3008b05e8008904d1000884d30035
:100730000001eb000281d2003100070001f0a100ae
:100740000cf0a70001f0a000790037006420e10060
:100750007b0032000801be000200be00f7ff370038
:100760006120e100760032006000b800f3ff37003e
:100770000000200001f82700f0ff370014002000df
:10078000a6003700f4ff2f00a40037000001be00d0
:10079000410007000470a70003f0a10003f8a300c4
:1007a00013003a006509b10010003200090035005d
:1007b0006928e10002003500010028000000050062
:1007c00000004000818048008502e900fcff3a00fb
:1007d00000000600f88f4200050035008100d100be
:1007e0000080d3008502e800fcff3a00000006000c
:1007f0008000eb00000005006011b800a200370087
:1008000081002000618055000b003d000b0020009e
:1008100061fe2f000100e1001d00340082817100a3
:10082000610164008904d1000884d3000000e8005d
:10083000faff3a00710020006100640003007000bc
:10084000020060000900320061044400e0844c00b2
:100850000988a500050032008b05e8006808e10062
:1008600002003a008904d1000884d300f20f20006e
:100870000258e10005003d00c75ddd00f907b20048
:100880008980750008007800000006000bf827003a
:100890008b00780000000500c70ade00f107b200f7
:1008a000f50fb20008003200e1cf42000200320032
:1008b0000170a00024000500810f700001003200cb
:1008c0000408050044000500810f700002003a0092
:1008d000140005008502e9000000400081c04800c6
:1008e000fcff3b000170a000240005000004be00d6
:1008f000e9ff07000003be000405be000200be00c1
:10090000e5ff0700844f7500000006000200be00ee
:100910006450e100050036006420e100020036006a
:100920000968a30001003a000800be000160a000b1
:100930004f0678004f05be004f04be0000000600c1
:10094000f0ff2f00f1ff2700f9ff3700889fbe005e
:100950008a9fbe008c1f7800e4ff0700ebff330086
:1009600003866c006450e100240032006420e10042
:10097000270032006150e100220032006120e100d6
:10098000210032008b854200eb07b1000134b80032
:10099000003ab8000804420089844a00013ab800cd
:1009a0000030b8008880400009014a00040033008c
:1009b0000000400081804800020149008b05e900e9
:1009c000c909dd008301700001003200130020001e
:1009d000c814de004814dd004709de001200b20032
:1009e000c808de000884700085ff070001f0a10040
:1009f0000cf0a70001f0a000cdff37006120e1005e
:100a0000cfff32000801be000200be00f7ff370032
:100a10006150e100fcff3a00c9ff3700889fbe002b
:100a20008a9fbe00841f7800b0ff07004f00780047
:100a300011003300f0ff2f00838f6c0006003b0095
:100a4000040565000a00a7000800370009f0a600a9
:100a50001000200008003700820f5400838f5c00d4
:100a6000030039001000200001003e0000002000bb
:100a700009f0a7000000ea004f05be004f04be00c9
:100a80000000e00000000600889fbe008a9fbe00b4
:100a9000008270000402710004827100260032009e
:100aa0000004be000200be006011b8006b09200007
:100ab000950220000182cf000a0039000541b100f3
:100ac0000082cf00070039000541b1000982cf0044
:100ad000040039000541b1000882cf00010039004f
:100ae0000541b10005425200120032000a003b00ed
:100af00082817100610164008100d1000080d30017
:100b00008984d3000884d3008b05e8000442e80000
:100b1000f7ff3a00070037000804440089844c00be
:100b200000004800818048008b05e9000442e9008c
:100b3000f9ff3a0032ff07004f05be004f04be0028
:100b4000000006008001780002003700b1597800eb
:100b50000201e9000200e000fcff3a00000006008c
:020000040000fa
:100b600000c100008140000001c000008041000081
:100b700001c000008041000000c100008140000071
:100b800001c000008041000000c100008140000061
:100b900000c100008140000001c000008041000051
:100ba00001c000008041000000c100008140000041
:100bb00000c100008140000001c000008041000031
:100bc00000c100008140000001c000008041000021
:100bd00001c000008041000000c100008140000011
:100be00001c000008041000000c100008140000001
:100bf00000c100008140000001c0000080410000f1
:100c000000c100008140000001c0000080410000e0
:100c100001c000008041000000c1000081400000d0
:100c200000c100008140000001c0000080410000c0
:100c300001c000008041000000c1000081400000b0
:100c400001c000008041000000c1000081400000a0
:100c500000c100008140000001c000008041000090
:100c600001c000008041000000c100008140000080
:100c700000c100008140000001c000008041000070
:100c800000c100008140000001c000008041000060
:100c900001c000008041000000c100008140000050
:100ca00000c100008140000001c000008041000040
:100cb00001c000008041000000c100008140000030
:100cc00001c000008041000000c100008140000020
:100cd00000c100008140000001c000008041000010
:100ce00000c100008140000001c000008041000000
:100cf00001c000008041000000c1000081400000f0
:100d000001c000008041000000c1000081400000df
:100d100000c100008140000001c0000080410000cf
:100d200001c000008041000000c1000081400000bf
:100d300000c100008140000001c0000080410000af
:100d400000c100008140000001c00000804100009f
:100d500001c000008041000000c10000814000008f
:100d600000c00000c1010000c303000002c2000077
:100d7000c606000007c7000005c50000c404000047
:100d8000cc0c00000dcd00000fcf0000ce0e0000f7
:100d90000aca0000cb0b0000c909000008c8000007
:100da000d818000019d900001bdb0000da1a000077
:100db0001ede0000df1f0000dd1d00001cdc000047
:100dc00014d40000d5150000d717000016d6000077
:100dd000d212000013d3000011d10000d010000087
:100de000f030000031f1000033f30000f232000077
:100df00036f60000f7370000f535000034f4000047
:100e00003cfc0000fd3d0000ff3f00003efe0000f6
:100e1000fa3a00003bfb000039f90000f838000006
:100e200028e80000e9290000eb2b00002aea000076
:100e3000ee2e00002fef00002ded0000ec2c000046
:100e4000e424000025e5000027e70000e626000076
:100e500022e20000e3230000e121000020e0000086
:100e6000a060000061a1000063a30000a262000076
:100e700066a60000a7670000a565000064a4000046
:100e80006cac0000ad6d0000af6f00006eae0000f6
:100e9000aa6a00006bab000069a90000a868000006
:100ea00078b80000b9790000bb7b00007aba000076
:100eb000be7e00007fbf00007dbd0000bc7c000046
:100ec000b474000075b5000077b70000b676000076
:100ed00072b20000b3730000b171000070b0000086
:100ee0005090000091510000935300005292000076
:100ef0009656000057970000559500009454000046
:100f00009c5c00005d9d00005f9f00009e5e0000f5
:100f10005a9a00009b5b0000995900005898000005
:100f200088480000498900004b8b00008a4a000075
:100f30004e8e00008f4f00008d4d00004c8c000045
:100f40004484000085450000874700004686000075
:100f50008242000043830000418100008040000085
:100f6000000100000004000000100000ffef00007e
:100f7000fff70000fffb0000000800000020000059
:100f800000800000fffd00007fff0000bfff0000a9
:100f9000010000000200000008000000fbff00004c
:100fa000fdff0000feff0000040000001000000034
:100fb00040000000dfff0000efff0000f7ff00002f
:100fc000596f00006e6700004369000000000000d8
:040fd0000400000019
:020000040000fa
:100fd400881f7800000478009800900050a52a002b
:100fe400808f50000d003a0070c7b300984f100076
:100ff4000a003a00e2c2a900cb22a800cb82a800d2
:10100400cbe2a900caa2a800e2c2a900cb22a80090
:10101400cb82a800cbe2a900caa2a8004801900094
:101024008001eb0068009000f80090001d1d07008f
:101034000004e00012003200e2c2a900cb22a800a2
:10104400cb82a900cbe2a800caa2a900e2c2a900ef
:10105400cb22a800cb82a900cbe2a800caa2a90097
:101064000000eb0010049800004c78000060fe00c3
:1010740050a52a002004980000c0eb0010449800fa
:101084004f04780000000600881f780000047800f0
:101094009800900050a52a00808f50000d003a005f
:1010a40070c7b300984f10000a003a00e862a90024
:1010b400cb42a800cba2a800e282a900e902a800c2
:1010c400e862a900cb42a800cba2a800e282a90052
:1010d400e902a800480190008001eb00680090003c
:1010e400f8009000ef1c07000004e000120032003a
:1010f400e862a900cb42a800cba2a900e282a80022
:10110400e902a900e862a900cb42a800cba2a90089
:10111400e282a800e902a9000000eb001004980094
:10112400004c78000060fe0050a52a0020049800be
:1011340000c0eb00104498004f0478000000060043
:10114400881f78000004780098009000a0aa2a0064
:10115400808f50000d003a0070c7b300984f100004
:101164000a003a00cb82a900cbe2a800e2c2a800a0
:10117400cb22a900caa2a800cb82a900cbe2a80076
:10118400e2c2a800cb22a900caa2a800380190009c
:101194008001eb0068009000f8009000c11c07007b
:1011a4000004e00012003200e2c2a900cb22a80031
:1011b400cb82a900cbe2a800caa2a900e2c2a9007e
:1011c400cb22a800cb82a900cbe2a800caa2a90026
:1011d4000000eb0010049800004c78000060fe0052
:1011e400a0aa2a002004980000c0eb001044980034
:1011f4004f04780000000600881f7800000478007f
:1012040098009000a0aa2a00808f50000d003a0098
:1012140070c7b300984f10000a003a00cba2a9008f
:10122400e282a800e862a800cb42a900e902a80073
:10123400cba2a900e282a800e862a800cb42a900e0
:10124400e902a800380190008001eb0068009000da
:10125400f8009000931c07000004e0001200320024
:10126400e862a900cb42a800cba2a900e282a800b0
:10127400e902a900e862a900cb42a800cba2a90018
:10128400e282a800e902a9000000eb001004980023
:10129400004c78000060fe00a0aa2a0020049800f8
:1012a40000c0eb00104498004f04780000000600d2
:1012b4003600f800809fbe00829fbe00849fbe005f
:1012c400869fbe0084e0a9000060fe0020ce2000be
:1012d4001080fb006600b9000080e800e1cc20002b
:1012e400614078000040e9008080fb0042c1b30007
:1012f4000440bc0083d52000e341790082c8b300d8
:1013040082cf510025003a007409b9000281e80037
:1013140083d52000630179000200e0001f003a0039
:10132400740ab900840078000181410074c7b300d5
:1013340004497800a4aa2a00140198006468800073
:10134400756880006401980075019800f080400081
:1013540042c1b3000440bc0003004100e3807800b4
:101364000100010021ce20001140e80080487800ef
:101374008100e900914f50000700310062c0b300c2
:101384000440bc0064004100f38050006100780018
:10139400d51b070001003700db1b07004f03be000d
:1013a4004f02be004f01be004f00be003600f900e0
:1013b4000040060050a52a00904288000000060064
:1013c4005228ef00000006000040eb005208e20043
:1013d40001003a0000c0eb0000000600faff07001d
:1013e4000004e0000a003a0080d520001004e00068
:1013f40013003a00d06a80000000e00010003a00b8
:10140400e06a80000000e000040032000c003700b5
:1014140040cb20000008eb004f003700c0d620006e
:101424001004e00006003a00706b80000000e00049
:1014340003003a00806b80000000e00002003200ec
:101444005028ef004400370090c0a9005824ef0052
:101454009823ef00408e20009080fb00e0d5200010
:1014640064884000508e20009080fb0020d720002c
:101474006488400020ce20000048eb000000e90012
:1014840010407800e14f50001500360061cd200077
:1014940000c0e90062c0b3000440bc0066834000a1
:1014a4000203430085d5200084c8b3008001eb000b
:1014b4001140e90042c1b3000440bc000281420073
:1014c400044978000280e8000308780011009000c5
:1014d40050019800e6804000868f5000f4ff3a00e7
:1014e40000cd20001040e90081d5200042c1b300a6
:1014f4000440bc000280400073c7b3000348780076
:10150400a3aa2a001300980064688000756880000c
:10151400640098007500980070014100e1007900b2
:101524000100010021ce20001140e800804878002d
:101534008100e900914f50000600310062c0b30001
:101544000440bc0064004100f38050006100780056
:101554005c1b07000060fe0000000600889fbe00c0
:101564008a9fbe008c9fbe008e1f780096ff0700e6
:101574000004e0000300320040cb20000008eb0030
:101584003d0037000060fe0070cf200090407800de
:101594000104e0000e00320080d520001004e000b9
:1015a40006003a00d06a80000000e00003003a0020
:1015b400e26a80000200e000020032005028ef00de
:1015c4002d0037000040e800814f5000fdff390036
:1015d40090c0a9005824ef009823ef00408e20000b
:1015e4009080fb00e0d5200064884000508e2000ed
:1015f4009080fb0020d720006488400058ce200053
:101604006c054400fa0550007ec7b300ccd020001e
:101614001804e00013003200184090000040e90074
:1016240042c1b3000440bc00028045000e4878006b
:10163400a1aa2a0011009800ec064000bc1e780004
:10164400ac1678000060fe0070014100eb007900e8
:1016540001000100bc1e7800ac1678000040eb00cd
:10166400004c7800660444008a0f5400e8ff3a00f6
:1016740070cf20000048eb004f0778004f06be00f3
:101684004f05be004f04be0000000600889fbe0048
:101694008a9fbe008c9fbe008e1f78004aff070001
:1016a4000004e0000300320040cb20000008eb00ff
:1016b4003d0037000060fe0070cf200090407800ad
:1016c4000104e0000e00320080d520001004e00088
:1016d40006003a00d06a80000000e00003003a00ef
:1016e400e26a80000200e000020032005028ef00ad
:1016f4002d0037000040e800814f5000fdff390005
:1017040090c0a9005824ef009823ef00708e2000a9
:101714009080fb0000d6200064884000808e20006a
:101724009080fb0040d720006488400058ce200001
:101734006c054400fc0550007ec7b300ccd02000eb
:101744001804e00013003200184090000040e90043
:1017540042c1b3000440bc00028045000e4878003a
:1017640051a52a0011009800ec064000bc1e780028
:10177400ac1678000060fe0072014100eb007900b5
:1017840001000100bc1e7800ac1678000040eb009c
:10179400004c7800660444008a0f5400e8ff3a00c5
:1017a40070cf20000048eb004f0778004f06be00c2
:1017b4004f05be004f04be0000000600889fbe0017
:1017c4008a9fbe000044780081047800fefe070072
:1017d4000004e0000300320040cb20000008eb00ce
:1017e400320037008880fb000840780042c1b30013
:1017f4000440bc0080d52000604079000004e00073
:101804000c003a007409b9000280e80082d5200077
:10181400620078000000e00006003a007409b90094
:101824006400410082d52000620078000000e000de
:10183400020032005028ef001c00370090c0a900bd
:101844005824ef009823ef000060fe0083d52000a9
:101854007408b900800078000180410072c7b300a9
:1018640002487800a2aa2a0012009800ec05400061
:10187400cad02000ba1d7800aa157800660040007e
:10188400648844000060fe00f08040000840780056
:1018940042c1b3000440bc0003004100e38078006f
:1018a40001000100ba1d7800aa1578004f05be009a
:1018b4004f04be0000000600889fbe008a9fbe0041
:1018c4000044780081047800bffe07000004e000b3
:1018d4000300320040cb20000008eb003200370048
:1018e4008880fb000840780042c1b3000440bc007b
:1018f40080d52000604079000004e0000c003a002c
:101904007409b9000280e80082d5200062007800e2
:101914000000e00006003a007409b90064004100c8
:1019240082d52000620078000000e000020032004e
:101934005028ef001c00370090c0a9005824ef0085
:101944009823ef000060fe0083d520007408b900de
:10195400800078000180410072c7b300024878001b
:1019640052a52a0012009800ec054000cad02000bd
:10197400ba1d7800aa157800680040006488440005
:101984000060fe00f28040000840780042c1b300cd
:101994000440bc0003004100e38078000100010022
:1019a400ba1d7800aa1578004f05be004f04be008a
:1019b40000000600881f78000060fe00d06a8000e6
:1019c400a1aa2a00810f50000d003a0071c7b3008c
:1019d40082d5200092cf100009003a000060fe007a
:1019e40090c0a9005824ef009823ef00020078006b
:1019f400416b80000100010018c8b30010003700db
:101a04000044eb0051a52a00810f50000c003a005d
:101a140070c7b30081d52000914f100008003a0030
:101a24000060fe0090c0a9005824ef009823ef0046
:101a340001007800516b80000100010028c8b30048
:101a4400706b8000a1aa2a00810f50000e003a009a
:101a540071c7b300c2d6200092cf10000a003a002a
:101a64000060fe0090c0a9005824ef009823ef0006
:101a740002007800e16b80000100010040c8b3005f
:101a8400004474001000370051a52a00810f500053
:101a94000d003a0070c7b300c1d62000914f10006a
:101aa40009003a000060fe0090c0a9005824ef002d
:101ab4009823ef0001007800f16b80000100010021
:101ac40080c8b3000044740080d520001040780022
:101ad40081c8b300814f500003003200c2d62000f9
:101ae40092cf100001003a000864a00071c7b3004f
:101af400814f50000400320001407800c1d620001c
:101b0400914f100001003a000874a00008407800ca
:101b14004f047800000006008040eb0080d52000d0
:101b2400014878000000e800014878000000eb005c
:101b3400d06a8800e06a880025032000f56a8800de
:101b4400e4012000046b8800106b88006011b80069
:101b5400226b8800336b8800e68f2000466b880078
:101b640066842000566b88000060fe00c6d6200004
:101b7400004b78000603e800014b7800706b880086
:101b8400806b8800956b8800a46b8800b06b88001c
:101b9400c26b8800d36b8800208a2000e06b880029
:101ba400a07e2000f06b88000060fe000060fe0054
:101bb400000006000060fe0000d5200030418800cf
:101bc40080c0b30028e8b7005228ef00e462a900ff
:101bd400c7a2a900de82a900c742a900e862a90041
:101be400cb42a800cba2a900e282a800e902a90086
:101bf4000060fe00dec2a900c782a900c7e2a900f6
:101c0400c722a900e2c2a900cb22a800cb82a90066
:101c1400cbe2a800caa2a9000060fe00dea2a900cf
:101c2400c762a900c7c2a900c702a900e2a2a9000d
:101c3400cb02a800cb62a900cbc2a800ca82a9002b
:101c44000060fe005028ef000060fe00b2ff0700b5
:101c540060688000716880008068880091688800ee
:101c6400c0688800d168880000698800116988000c
:101c740040698800516988008069880091698800fa
:101c8400401f2000010020006069880071698800fd
:101c94008000eb00a16588000040eb0062cb2000cf
:101ca400014978008200e800804878008100e8005b
:101cb400804878008100e800804878008100e800ce
:101cc400804878008100e800804878000060fe00c9
:101cd400a1cc200080487800e38040008048780050
:101ce4008100e900804878008100e900804878009c
:101cf400e3805000804878008100e8008048780044
:101d0400affd070000000600881f7800000478007b
:101d140098009000a0aa2a00808f50000d003a007d
:101d240070c7b300984f10000a003a00cb62a900b4
:101d3400cbc2a800e2a2a800cb02a900ca82a800d4
:101d4400cb62a900cbc2a800e2a2a800cb02a900e2
:101d5400ca82a800380190008001eb00680090005e
:101d6400f8009000cf1907000004e00012003200d0
:101d7400e2a2a900cb02a800cb62a900cbc2a800b2
:101d8400ca82a900e2a2a900cb02a800cb62a900e2
:101d9400cbc2a800ca82a9000000eb00100498007e
:101da400004c78000060fe00a0aa2a0020049800dd
:101db40000c0eb00104498004f04780000000600b7
:101dc400881f7800000478009800900050a52a002d
:101dd400808f50000d003a0070c7b300984f100078
:101de4000a003a00e2a2a900cb02a800cb62a80034
:101df400cbc2a900ca82a800e2a2a900cb02a80013
:101e0400cb62a800cbc2a900ca82a80048019000f6
:101e14008001eb0068009000f8009000a119070011
:101e24000004e00012003200e2a2a900cb02a800e4
:101e3400cb62a900cbc2a800ca82a900e2a2a90071
:101e4400cb02a800cb62a900cbc2a800ca82a90019
:101e54000000eb0010049800004c78000060fe00c5
:101e640050a52a002004980000c0eb0010449800fc
:101e74004f04780000000600e06a8000a1aa2a004e
:101e8400810f500006003a000060fe00c28c200062
:101e940020002f00f1072000261a07000800370051
:101ea40051a52a00810f500005003a000060fe0091
:101eb400e28c200040002f00f10720001d1a0700cb
:101ec400806b8000a1aa2a00810f500006003a000e
:101ed4000060fe00028d200060002f00f10720004a
:101ee400141a07000800370051a52a00810f50007a
:101ef40005003a000060fe00228d200080002f00c3
:101f0400f10720000b1a070000000600889fbe009e
:101f14008a1f7800d022800042e8b700d0228000d7
:101f24004800de0043e8b70010cfb300d16a800058
:101f34000100e000ed003a00716b80000100e00058
:101f4400ea003a000060fe0090d5200080c0eb005b
:101f540090cf1000030032007400400090cf1000b6
:101f64001a003a0090c0a800f00b2000c02288009c
:101f74009823ef000060fe0002322000c240880077
:101f84001a28ef00f0140700646880007568800068
:101f9400e4408800f54088000000eb00d06a880027
:101fa4008040eb0082d52000004978000201e8005f
:101fb40001497800706b8800730141000149780081
:101fc4000201e80001497800a065880000d32000e0
:101fd400561907000004e0000600320097140700b9
:101fe4000060fe006068800071688000806988007d
:101ff4009169880000d220004c1907000004e00019
:10200400060032000060fe00fc0c070064688000db
:10201400756880000469880015698800020a070051
:102024000004e000030032005028ef0000c0eb0081
:10203400ae00370060cb20001004e0001600320030
:10204400a06580000000e0001300320000d42000ee
:10205400361907000004e0000f00320090c0a80009
:10206400f00b2000c02288009823ef00d4fc070066
:1020740078cb200061c0b300184078001f0207002d
:102084000060fe00004ceb000000eb00a06588003f
:102094008800e90080487800aad8200049cb2000b5
:1020a40000d82000501a0700004478000804e0001b
:1020b400040032001a41780021d820000180e90090
:1020c400b30f07001900e000030032000060fe00b7
:1020d40000c0eb00850037000804e000f0ff3a0080
:1020e40090c0a800f00b2000c02288009823ef00c5
:1020f40085180700e2408000f3408000c0d0200033
:1021040030021100a0821900c0408000d14080003c
:10211400800f5200818f5a001a003900a003070073
:10212400d0cc20001004e00005003200800c200018
:10213400010020006069880071698800050037008b
:10214400401f200001002000606988007169880038
:1021540049ff0700a0cc200000c8eb000000eb0002
:10216400e06a8800806b88000080eb008080eb00d0
:10217400c0408800d1408800e0408800f1408800d9
:102184008ffc07000060fe0080d12000e7180700e4
:102194000004e00003003a00a0cc20001004e0009a
:1021a400110032000060fe00610a0700c0be20007a
:1021b40035c0b30090cf120004003a00a06580003f
:1021c4000000e00001003a0040020700a0cc20001b
:1021d4000048eb007afc07006068800071688000aa
:1021e400c0688800d168880080d42000cf18070018
:1021f4000004e00003003200c0be20000048eb00f1
:102204000000fe000060fe0080d22000c718070016
:102214000004e00020003200518420009140780046
:10222400f0ff2d00f714070045e8ee00b0cb2000c6
:102234001004e00002003a0057a4ab001200320080
:102244004448ec0044e8b70071ccb300814f50001f
:102254000d0036006000b800a610070090c0a8006a
:10226400f00b2000c02288009823ef00401f2000bc
:10227400010020006069880071698800b0cb2000eb
:102284000048eb004468ef006468800075688000d3
:1022940044698800556988000060fe0000d1200070
:1022a400a21807000004e0000700320073170700bb
:1022b400c0438800d1438800606880007168800052
:1022c40080688800916888000040eb0081cb200082
:1022d40000c1eb00914f110004003a004d080700c3
:1022e40080cb20000048eb000040eb004f05780055
:1022f4004f04be0000000600aefd07000004e0002d
:10230400fdff3a00e862a900cb42a800cba2a900d5
:10231400e282a800e902a900e2c2a900cb22a80037
:10232400cb82a900cbe2a800caa2a900e2a2a9001c
:10233400cb02a800cb62a900cbc2a800ca82a90024
:10234400f2fe0700ecff37000040eb0011ce200046
:10235400804878008100e900804878008180e800a6
:1023640080487800f3805000804878008100e800bd
:10237400804878008000eb0091668800e2cc200061
:102384000149780067014100004978000201e80032
:1023940000497800c16688000281e900004978009c
:1023a40067014100004978000201e8000049780013
:1023b400f16688000281e9000049780072cf2000ac
:1023c400004978000201e900004978000281e80030
:1023d4000049780073015100004978000201e800c7
:1023e40000497800416788000281e90000497800cb
:1023f40067014100004978000201e80000497800c3
:10240400716788000281e900004978006701410092
:10241400004978000201e80000497800a1678800bb
:102424008280e9008048780040d02000006888005d
:1024340000000600881f78002a28ef0090c0a90039
:102444005824ef009823ef006011b8000520200005
:1024540006242400f7002000060037000060fe0078
:1024640061014100e0814900860f5100878f5900c6
:102474003e003200a816800008826200f7ff320096
:10248400524180008042eb0005437800870220001f
:102494000004eb0001003700080178000504a200e5
:1024a4000582fb000a0037000201e800e10f410049
:1024b40007003a005241880090c0a800f00b2000a9
:1024c400c02288009823ef00e2c0b3002800370040
:1024d400a3168000c919de00e1816100848f5100d8
:1024e400f1ff320043fc2f0082814100878f5100ad
:1024f4000200360052418800040037000643e80019
:10250400e44f5300e4ff3a002a28ef00d522ab0041
:102514001a003200e44f530018003a0090c0a8009b
:10252400f20b2000c22288009823ef00c0419000e3
:102534000041eb00e1cf51000d00360012c0b300a2
:102544000060fe008281fb0031029000b002900026
:1025540065f279000241e800c041900082cf510049
:10256400f7ff3e000041eb0001003700e2c0b3007a
:10257400024078004f0478000000060090c0a800d4
:10258400f00b2000c02288009823ef00e2c0b300c3
:10259400f7ff3700e6874700889fbe008a9fbe008a
:1025a4008e1f78000004be006e80570000000900f2
:1025b4000018eb000058eb000800be009dff070068
:1025c40080407800e0c0b3000104e000b3003a00aa
:1025d400f0c0b300f1ccb300c28d200092cf100044
:1025e400ae00320050c0b30051cab3000201e9008a
:1025f40092cf1000a9003200c84090000108a30047
:10260400030032000060fe0020c0b300a3003700c6
:1026140020c0b300e1cf5000a00036003800900085
:102624009045780010459000a0c0b300c2468000d9
:1026340011102000810f510098003a00a18d200054
:1026440012c0b300914f110094003a0030c0b3009f
:102654001d1307008040780090c0b3000104e0001f
:102664008e003a00484290000482fb000482e90094
:1026740022002000110009000202d8000042e800f4
:1026840030c0b300e24f520084003e000404e00076
:10269400250032008a82fb0080406500a1f79f007c
:1026a4007e0032006e8757008040eb000600370042
:1026b40082a9de00e3c16100036f78000281e800b3
:1026c4000304e000740032008140e800814f5200ae
:1026d400f7ff3e00e24f520006003a0030c0b3005c
:1026e400bff09700aff1970081cf510070003a001e
:1026f4006a003700e34f52000b003a002ff19700b5
:10270400bff1970030c0b300834f51006300320023
:10271400cff0970081cf510060003200814f51000b
:1027240063003a005d00370010ce200004487800b2
:102734000000e9000a4878000080e8000048eb0047
:102744007300500000c8eb000000e800aff09700f1
:10275400014878000080e8000008eb00e14f5200d7
:10276400110036005f00370007487800de4178002a
:1027740013409800b8019000e3c27800c82add0035
:102784008181410073fb97000683fb00e301400055
:10279400850973000241e800660040008180e8007a
:1027a400824f5200f0ff3e0004407800e3cc20004a
:1027b4008040eb0062c0b3000440bc0002814100d1
:1027c400114198000040e800e34f5000f9ff3a003f
:1027d40070cb20000b487800a06580000000e0006a
:1027e40028003a000060fe00704280008000eb0088
:1027f400206a8800316a88006068800071688000ff
:10280400006a8800116a88000060fe0050552500a7
:10281400a065880060cb200000c8eb00e5fa070043
:102824006213070090c0a9005824ef009823ef001a
:10283400e0fa07000060fe0000e22400010020002e
:102844003f1907000060fe0000e2240001002000a0
:102854003b19070009007800f80b07000040eb0063
:1028640051cab300028e200092cf10000b003a0030
:10287400aa16070050130700581307000040eb0086
:10288400060037005b13070040cb20000008eb0074
:1028940080c0b3000100370030c0b3004f07780098
:1028a4004f05be004f04be006f00b10000000600db
:1028b40010ce2000044878000000e9000a4878009f
:1028c4000080e8000048eb007300500000c8eb00f3
:1028d4000000e800aff09700014878000080e800ad
:1028e4000008eb0050cd20006e8757003100200017
:1028f40012c0b30080c3eb009bff37001200fa0044
:1029040072815700030009000019eb00728157001f
:10291400e2bf9f0000c1eb00e2ff9f000060fe00e9
:1029240062bd20001281fb00023cb300cf91de00a7
:10293400b2bf9f00c3bf9f0042c1b300e2ef9f003c
:102944006fb99700104198006fb897002140980024
:10295400a1cab3006fb897003140980040c0b300db
:10296400a0ff9f000060fe006a805700b30b0700c1
:102974000080fa0000000600889fbe008a9fbe0007
:10298400800478008105780002457800f8c0b3001f
:10299400f0ccb300c18d2000914f100047003200ed
:1029a40058c0b30050cab3008100e900914f100031
:1029b4004200320039009000104090008040e9004d
:1029c40038c0b300e2cf50003c003e003e12070086
:1029d400004478000804e00038003a00e24f550053
:1029e4000400320051a52a00e44f55002e003a009d
:1029f40001003700a1aa2a00a0658000810f5000c1
:102a040004003a0060cb200080c0eb0090cf10009f
:102a1400060032000060fe0071c0b3000a40780076
:102a2400b6ff070040cb20000008eb00c94190002e
:102a3400e1cf51000e00360039019000d0ca2000c9
:102a440052427800904f520019003a0080007800fa
:102a540010c0b3000300370052427800d14f520037
:102a640015003a000040e800834f5000faff390097
:102a740050fa070060cb20000048eb000060fe0025
:102a84000b0078006d0b0700e24f550002003a007e
:102a9400b2fa070009003700e44f550007003a0076
:102aa400fafa07000500370018c0b3000300370026
:102ab400c8c0b30001003700c8c0b30008407800a4
:102ac4004f05be004f04be00000006001200fa00cd
:102ad40072805700030009000018eb007281570050
:102ae400e2bf9f0000c0eb00e0ff9f000060fe001b
:102af40060bd20001080fb00f003b2000034b3007e
:102b0400cf80de00b0bf9f00c1bf9f00a0c9b3004b
:102b1400e0ef9f00b0cc20001004e00004003a0075
:102b24000000e8001004e00006003a00200037002e
:102b340080cc20000048eb00640040001004e0005a
:102b44000200320090cc20000048eb0081cc200031
:102b5400668050009141780010c371006700400006
:102b6400630150009041780012c27100630151006a
:102b74009282fb00c22add00640141009281fb00c5
:102b8400c219dd000281e9009283fb00c23bdd0033
:102b94000749780085487300034872000040eb0041
:102ba400e3804000804878008100e8008048780095
:102bb40081cc20006fb897009140780011409800b4
:102bc40040cc20008000e8009140780090c0700064
:102bd4006fb897002140980091cc20006fb89700ff
:102be4009140780031409800d08d20001004e0001e
:102bf40005003a000060fe0011c0b3006fb89700f2
:102c040041409800040037000060fe008040eb0063
:102c14006fb8970041409800b18d20006fb89700bd
:102c2400914078005140980060c0b300a0ff9f001d
:102c34006a805700010b07000060fe000040eb00b3
:102c440041cc2000804878008100e800804878006a
:102c54000080fa00000006008000780041419000e6
:102c640020c0b300e34f510024003a00310090002b
:102c7400904090000141e90030c0b300e24f5100a0
:102c84001e003e008180fb000108a30004003a00fe
:102c940050ce20000048eb000040eb000700370056
:102ca40050ce200000c8eb0010c0b30062ce20005c
:102cb400004978000281e8000009eb000118a30034
:102cc40009003200b1ce200080c8eb0022c0b3005e
:102cd4008100e800824878008180e8008008eb00e9
:102ce4000040e80002003700b1ce20008048eb002d
:102cf40071cf2000804878000040eb0000000600ff
:102d0400808d2000104178000000e8009040780099
:102d140050ce20001004e0000d0032000000e80056
:102d240010407800e14f500006003200e24f50009e
:102d34001e003a00a0c0b300e1cf500004003200ee
:102d44001d003700a0c0b300e14f51001a003a0043
:102d5400b0ce20001004e0000e0032000000e800b5
:102d640010407800e14f500003003200e24f500061
:102d740010003a0004003700a0c0b300e14f510036
:102d8400040032000c003700a0c0b300e1cf5000b3
:102d940009003a0030c0b30071cf20001104e000f4
:102da400050032000040eb000300370030c0b300e0
:102db4000100370030c0b30000000600808d200001
:102dc400104178000000e8009040780050ce2000c8
:102dd4001004e0000d0032000000e800104078000c
:102de400e14f500006003200e24f50001e003a004e
:102df400a0c0b300e2cf5000040032001d00370031
:102e0400a0c0b300e24f51001a003a00b0ce200037
:102e14001004e0000e0032000000e80010407800ca
:102e2400e14f500003003200e24f500010003a001e
:102e340004003700a0c0b300e24f51000400320088
:102e44000c003700a0c0b300e2cf500009003a00e4
:102e540030c0b30071cf20001104e000050032003f
:102e64000040eb000300370030c0b300010037001e
:102e740030c0b30000000600889fbe008a9fbe00d9
:102e84008c1f780080047800010578008245780062
:102e9400f8c0b300f0ccb300c18d2000914f1000f6
:102ea4003a00320058c0b30050cab3008100e900b0
:102eb400914f100035003200a06580000000e00052
:102ec4000400320040cb20000008eb0088c0b300af
:102ed4002e003700090078005fff070000447800e7
:102ee4000804e00029003a003900900010409000e6
:102ef400f5100700004478000804e00023003a00bd
:102f0400e1cf550004003a007dff0700004478003b
:102f1400acaa2a000600370018c0b300e3cf55005e
:102f24001a003a00a5ff0700004478005ca52a00b7
:102f34000804e00015003a000060fe0049419000da
:102f44000281fb00b9009000c0ca2000fcf6070013
:102f540060cb200000c8eb000a007800370a0700a5
:102f6400ac65880070cb20000b487800704280006c
:102f74008000eb00206a8800316a88006068800065
:102f840071688000006a8800116a8800084078002f
:102f94004f0678004f05be004f04be000000060037
:102fa400889fbe00e06a8000a1aa2a00810f500019
:102fb4000d0032008044eb00094478005105b10053
:102fc400810f500010003a008944780009447800c9
:102fd40020cc200011c0b30090cf10000a003200b2
:102fe40081447800080037008044eb0009447800ed
:102ff40020cc200021c0b30090cf1000020032008a
:103004008944780018c0b300806b8000a1aa2a000c
:10301400810f500006003a0030cc200021c0b300dc
:1030240090cf10000a0032000844e800080037007e
:1030340051a52a00810f500005003a0030cc200031
:1030440011c0b30090cf1000010032008944e800a1
:1030540020d0200000c8eb0068005000f7090700ea
:103064000804e00008003200b1c0b30070cb2000b7
:103074001040780021fe070021cbb300d0cc200003
:10308400014878000c0037000904e0000800320011
:10309400b1c0b30070cb20001040780017fe0700c9
:1030a40031cbb300d0cc20000148780002003700b7
:1030b400d0cc20000048eb004f04be000000060006
:1030c4001200fa00889fbe008a9fbe00f08057005d
:1030d400030009008018eb00f0805700e1b79f005f
:1030e40061bd20001181fb00023cb300cf91de00e2
:1030f400b2b79f00c3b79f0080c0eb00e1ef9f0011
:103104003000900010449000a044900020c9b30007
:1031140080f79f00894f540027003e008ac0b30007
:103124008045eb000060fe00808220000a487800a1
:10313400618220000840780012020700ef4f40002f
:1031440002003200ed4f400005003a000060fe002e
:1031540021c0b3006fb0970010407800e7fd07006e
:103164006fb097001840980028c8ec00a0ef9f00ab
:103174000b0032000b4078008080fb006fb1970099
:103184000101410033418000e3c1780023419800ec
:103194000040e800afe8970080cf5000f6ff3e0003
:1031a4000060fe007a805700a40907000844e80084
:1031b40088cf5400dbff31004f05be004f04be0032
:1031c4000080fa0000000600889fbe00000478001a
:1031d4003800900090447800f3cf5400b4003e00cf
:1031e400484090000004e000b100320076f8070087
:1031f4000004e00005003a003800900001c1b3006b
:1032040010407800bdfd0700a9003700e5cf540049
:1032140020003e00f0ccb300c18d2000914f10007f
:1032240005003a0038009000f1c0b3001040780067
:10323400b2fd07009e00370050cab300b18d2000d4
:10324400914f100005003200c840900010c0b30038
:1032540080cf500006003e000e003700380090007a
:1032640051c0b30010407800a4fd0700900037005f
:103274000060fe008080fb00b801900002688000be
:1032840063f178000040e800c840900080cf50000f
:10329400f7ff3e0060bd20001080fb00003cb3003f
:1032a400cf80de00d0678800e16788000068800076
:1032b400894078000174a00001487800e0cf200024
:1032c400c840900001487800e4cf54003000320038
:1032d40006003e00e2cf5400150032001e003e00fe
:1032e400e1cf54006d003a0007003700f1cf5400dd
:1032f4003a003200f2cf540065003200e5cf5400aa
:1033040066003a002c00370012c0b300a1cf2000a1
:1033140008007800d8fe07000004e00064003200d2
:103324008040780010c0b30074fd070060003700cf
:1033340022c0b300a1cf2000080078008efd070052
:103344000004e0005a0032008040780020c0b3003e
:103354006afd070056003700d0c0b300f28d20008c
:103364001204e00006003a0032c0b300a1cf2000ee
:1033740008007800c0fe07000004e0004c003200a2
:103384008040780030c0b3005cfd0700480037007f
:1033940042c0b300a1cf20000800780076fd0700ea
:1033a4000004e000420032008040780040c0b300d6
:1033b40052fd07003e003700a1cf2000080078002e
:1033c40074fc07000004e0003900320080407800fb
:1033d40050c0b30049fd0700350037000060fe000f
:1033e400b80090000068800091409000114098005f
:1033f400380090008080e80031418800104090003f
:103404006182200030010700e14f400006003a00cd
:103414000060fe003800900011c0b3001040780036
:1034240036fd0700220037000004e00006003200e9
:103434000060fe003800900021c0b3001040780006
:103444002efd07001a00370031418000006880001b
:10345400914078002140980031418000006880004c
:103464009140900031409800818220009140780082
:10347400e0cf200001c8e8000060fe0064005000b6
:10348400ee08070080cb200000c8eb0008003700de
:10349400080078000aff0700050037000060fe00fe
:1034a4003800900011c0b3001040780013fd0700ed
:1034b4004f04be00000006003600f800809fbe00e6
:1034c400829fbe00849fbe00869fbe000060fe00f7
:1034d4002a28ef0086e0a900a16580005055250048
:1034e400808f50000600320090c0a800f00b20002e
:1034f400c02288009823ef003e1007002d003700fb
:1035040060cb20001004e00006003a0090c0a80040
:10351400f00b2000c02288009823ef00351007002c
:1035240024003700504180008041eb0003427800c2
:103534008002eb0001003700050078000304a200bc
:103544000381fb00050037000000e800e10f4000a4
:1035540002003a005041880016003700a11680008e
:10356400c908de00e1806000828f5000f6ff32005f
:10357400fe005000f48f50000200360050418800d5
:103584000c0037000442e800e44f5200eaff3a001e
:103594002a28ef00d522ab0006003200e44f520087
:1035a40004003a001310070060cb20000048eb0031
:1035b4008af707004f03be004f02be004f01be0052
:1035c4004f00be003600f900004006003600f80047
:1035d400809fbe00829fbe00849fbe00869fbe0067
:1035e4000200fa008880a900a165800050552500da
:1035f400808f50000400320011c1b30040c3b300f7
:10360400befc07001d0037006a13070001402000bc
:1036140002022000040037000060fe003304800032
:103624000300610015003a00a316800003806000c7
:10363400f9ff3a00661307005b13070068004000b7
:103644001147800074815000820f50000b00390034
:10365400f4804000810f500008003e0040c3b300d6
:10366400e0ff9f0050cab300f0ff9f0022c0b300e8
:103674008f80e900d04620008a0c07000080fa0001
:103684004f03be004f02be004f01be004f00be00fc
:103694003600f90000400600204190000204e000da
:1036a4000700320010017800910090001149780061
:1036b4000060fe0011c0b3002140980003003700f1
:1036c4008040eb00214098000060fe0000000600ee
:1036d400204190000204e0000700320091009000b5
:1036e40010017800924878000060fe0011c0b30019
:1036f40021409800030037008040eb0021409800ef
:103704000060fe000000060020419000e14f5100df
:103714000b003600910090009100780010017800b1
:10372400014978000060fe0010017800c808de003e
:103734001141980021c0b3002140980003003700d4
:103744000060fe008040eb0021409800000006006d
:1037540020419000e14f51000b00360022c0b3001d
:103764002240980010007800104190000281fb0074
:103774000060fe004811dd00910090001080fb0005
:1037840080087100030037000060fe008040eb00f9
:1037940021409800000006000400fa002041900037
:1037a400e14f51000f003600910090001101be005e
:1037b400e2bf9f00f3bf9f00658157008000eb00cc
:1037c400900178005242780084f178000060fe0095
:1037d4008100e800e48f5000f9ff3a00214098008e
:1037e400030037000060fe008040eb002140980099
:1037f4000080fa0000000600881f780000047800aa
:1038040028409000e14f50000f0036001100900056
:1038140002002000832c24001000be004af407009c
:10382400d9f3070098007800804878000060fe0013
:10383400980078004800de009040980020c0b30053
:1038440020449800030037000060fe000040eb00b5
:10385400204498004f04780000000600889fbe00b2
:103864000004780028409000e14f50001100360019
:103874001800780090419000c819dd001081fb0009
:10388400030071000060fe00910490008000eb00d2
:10389400d8f30700a2702d0033c223002af40700d6
:1038a400808cbe000060fe0020c0b300204498005d
:1038b400030037000060fe000040eb002044980045
:1038c4004f04be0000000600889fbe008a1f7800d7
:1038d40081047800639020008000eb000060fe000b
:1038e40001047800934f10001e003a000140780054
:1038f400a2c0b3000440bc00609020000005410059
:103904006a41b900e6004100608178008a007800cd
:103914000900780002000100a940900010cfb30014
:103924000104e000140032000060fe006a40b900a7
:10393400680440006090200060017c008a007800e8
:1039440009007800020001000060fe00a940900018
:103954000040eb000104e00007003a0020cfb30070
:10396400050037008100e800ea814100fc8f500027
:10397400daff3a0000c0eb004f0578004f04be00a8
:1039840000000600881f78000104780001c4b30019
:10399400814f50001d003e00639020008000eb002a
:1039a4000060fe0001027800934f100011003a00fd
:1039b4000060fe006a22b9006802420063902000a1
:1039c40001407800a2c0b3000440bc008300410061
:1039d400e3017a000800780003000100a840900089
:1039e4000040eb000104e00024003a0010cfb300d3
:1039f400220037008100e800ea814100fc8f50007a
:103a0400e7ff3a0020cfb3001c003700e3a12000f9
:103a14008000eb000060fe0001027800934f10006c
:103a240011003a000060fe006a22b90068024200f8
:103a3400e3a1200001407800a2c0b3000440bc0010
:103a440083004100e3017a000800780003000100cc
:103a5400a84090000040eb000104e00007003a0099
:103a640030cfb300050037008100e800ea8141004f
:103a7400f58f5000e7ff3a0040cfb3004f047800c1
:103a84000000060011c0b3006090200001487800d7
:103a9400c08720004048880022c2b300a0902000c4
:103aa4000248780001c3210061488800e0bf21007a
:103ab400704888000060fe0024c0b3000391200019
:103ac40084497800038820009348880043912000ab
:103ad40082497800b1488800c048880034c0b300e7
:103ae400e68141008449780083892000e348880006
:103af400e391200082497800014988001049880038
:103b040044c0b300e681410084497800038a200060
:103b14003349880083922000824978005149880003
:103b24006049880054c0b300e681410084497800ac
:103b34004388200083498800239320008249780029
:103b4400a1498800b04988000060fe0064c0b30049
:103b5400e68141008449780083882000d3498800a5
:103b6400c393200082497800f1498800004a880004
:103b740074c0b300e681410084497800838a200040
:103b8400234a88006394200082497800414a8800cf
:103b9400504a88000060fe0084c0b300e681410002
:103ba40084497800038b2000734a88000395200021
:103bb40082497800914a8800a04a880094c0b300e2
:103bc400e681410084497800c3882000c34a880004
:103bd400a395200082497800e14a8800f04a8800d1
:103be4000060fe00a4c0b300e6814100844978006f
:103bf40003892000134b88004396200082497800f3
:103c0400314b8800404b8800b4c0b300e6814100ca
:103c140084497800838b2000634b8800e39620005e
:103c240082497800814b8800904b88000060fe0038
:103c3400c4c0b300e681410084497800038c2000ad
:103c4400b34b88008397200082497800d14b8800c9
:103c5400e04b8800d4c0b300e68141008449780079
:103c6400438c2000034c880023982000824978006c
:103c7400214c8800304c88000060fe00e4c0b30092
:103c8400e681410084497800838c2000534c8800ed
:103c9400c398200082497800714c8800804c8800c9
:103ca400f4c0b300e681410084497800a38e20006b
:103cb400a34c88006399200082497800c14c880095
:103cc400d04c88000060fe0003c1b300c4992000fa
:103cd400034a7800e48e2000f44c8800049a200003
:103ce400024a7800114d8800204d880015c1b300a8
:103cf40066024200054a7800248f2000444d880063
:103d0400a49a2000024a7800614d8800704d880012
:103d14000060fe0021c1b300660042000148780043
:103d2400e0842000904d8800efc242006a00420007
:103d340005487800a4ba2100b44d880062b8210077
:103d4400c24d880031c1b3006600400001487800cc
:103d5400c0842000e04d8800e09b200005487800e6
:103d6400044e8800124e88000060fe0041c1b3007a
:103d74006600400001487800408e2000304e8800e4
:103d8400809c200003487800a1b62100514e880091
:103d9400e0b42100604e880057c1b300e69c2000c7
:103da400074b7800768e2000864e8800269d2000e2
:103db400034b7800a14e8800b04e88000060fe00de
:103dc40067c1b30066034300074b7800568e20009a
:103dd400d64e8800c69d2000034b7800f14e880023
:103de400004f880077c1b30066034300074b780097
:103df400868e2000264f8800669e2000034b7800a4
:103e0400414f8800504f88000060fe0087c1b30016
:103e140066034300074b7800668e2000764f8800c7
:103e2400069f2000034b7800914f8800a04f880024
:103e340097c1b30066034300074b7800968e2000b9
:103e4400c64f8800a69f2000034b7800e14f8800ee
:103e5400f04f88000060fe00a7c1b3006603430072
:103e6400074b7800e68d20001650880046a02000fd
:103e7400034b78003150880040508800b7c1b3002c
:103e840066034300074b7800068e200066508800c6
:103e9400e6a02000034b78008150880090508800f1
:103ea400c1c1b3006600430001487800208e2000a1
:103eb400b05088006a00430005487800d450880058
:103ec400e2508800000006000060fe0011c4b30048
:103ed400e0a1200001487800c0852000005188003e
:103ee400ffc0500020a22000014878000000eb0031
:103ef40020518800e2bf21003251880024c4b3005d
:103f040083a220008449780003862000535188004e
:103f1400c3a2200081497800705188008251880032
:103f24000060fe000442e800e68141008449780014
:103f340043862000a351880063a3200081497800b0
:103f4400c0518800d25188000442e800e681410053
:103f54008449780083862000f351880003a420005c
:103f64008149780010528800225288000442e800f7
:103f7400e681410084497800838720004352880009
:103f8400a3a420008149780060528800e3bc21008a
:103f9400735288000060fe000442e80003a520007c
:103fa40084497800c38c20009352880004c2b30073
:103fb40043a5200084497800b052880063b82100ea
:103fc400c352880076c4b300a5a52000864a7800b1
:103fd400e58c2000e5528800e5a52000844a78009d
:103fe40000538800135388000060fe000643e80075
:103ff400e6824200864a7800058d20003553880009
:1040040085a62000844a78005053880063538800b2
:104014000643e800e6824200864a7800258d2000a7
:104024008553880025a72000844a7800a05388007f
:10403400b35388000060fe000643e800e6824200b5
:10404400864a7800458d2000d5538800c5a72000f6
:10405400844a7800f0538800035488000643e8003b
:10406400e6824200864a7800658d20002554880047
:1040740065a82000844a780040548800535488007e
:104084000060fe00c4c4b300e681420084497800a5
:10409400838d20007354880004c1b300ea81420078
:1040a4008449780090548800e3b42100a354880024
:1040b40006c3e800f0824200864a7800958d20000d
:1040c400c5548800a5a92000844a7800e0548800db
:1040d400f35488000060fe000643e800e6824200d4
:1040e400864a7800a58d20001555880045aa200031
:1040f400844a780030558800435588000643e80018
:10410400e6824200864a7800b58d20006555880015
:10411400e5aa2000844a78008055880093558800d9
:104124000060fe000643e800e6824200864a78000a
:10413400c58d2000b555880085ab2000844a7800e1
:10414400d0558800e35588000643e800e682420023
:10415400864a7800d58d20000556880025ac2000bd
:10416400844a780020568800335688000060fe0098
:104174000643e800e6824200864a7800e58d200086
:1041840055568800c5ac2000844a780070568800d3
:104194008356880034c5b300e68142008449780020
:1041a400c3862000a3568800ea8142008149780032
:1041b400c0568800d25688000442e800e6814100d7
:1041c4008449780003872000f3568800f481420074
:1041d4008149780010578800225788000442e8007b
:1041e400e6814100844978004387200043578800d2
:1041f400fe81420081497800605788007257880028
:10420400000006000400fa0020419000e14f510034
:104214000d00360090017800658157000f02e90017
:1042240033697800840f5100fdff3a00910090003b
:104234006fb99700ffb997008288be0041c0b300f0
:1042440021409800030037000060fe008040eb002e
:10425400214098000080fa00000006000200fa00e5
:10426400889fbe008a9fbe00010478008000eb0096
:10427400b1bf9f000060fe000085fb004255dd00d9
:1042840002102f00f30720004fd0de000205450086
:1042940083054800284090000004e0001600320026
:1042a4008044eb000060fe000980fb008000eb000e
:1042b4000000450081804d006a81570016110700f7
:1042c4000980fb00980078006ff1970082707800f5
:1042d400a84090000108a30003003a001800400021
:1042e400fff097001140980089c4e800284090002e
:1042f400894f5000ebff3e004f05be004f04be0047
:104304000080fa00000006000400fa00889fbe0046
:104314008a9fbe00010478008000eb00a1bf9f00cb
:10432400b1bf9f000060fe000085fb004255dd0028
:1043340002102f00f30720004fd0de0002054500d5
:1043440083054800284090000004e000200032006b
:104354008044eb000060fe00284090000008a300a9
:1043640008003a000980fb0080004000180040006b
:10437400104090000080fb00800178006c815700a1
:1043840003b178000980fb0000014000ec80570075
:104394000281400098007800e14078008180fb00b1
:1043a400120078004800dd00008970000980fb00dd
:1043b4008000eb000000450081804d00a110070043
:1043c40089c4e80028409000894f5000e1ff3e0076
:1043d4004f05be004f04be000080fa000000060036
:1043e40090c0a9005824ef009823ef000060fe005d
:1043f40000017800c0ff2f00f10720009110070092
:1044040090c0a800f00b2000c02288009823ef0081
:10441400000006000200fa00889fbe008a9fbe00ca
:104424008c9fbe000000eb0090bf9f0068902000ae
:104434000005eb0019c0b300080678008046eb00c5
:104444000060fe009845780089cf550023003a00ab
:10445400c84090008180fb00c408de0081417800e0
:1044640002842000034978000060fe006a51b9000c
:104474008200460048019000e08320000200010011
:104484004048e20015003200e18320000b40780030
:104494009dff0700e18320000b4078006fff0700b9
:1044a4000060fe004048e2000c0032000d4078003d
:1044b4000060fe008080fb00f2418000e2c07800d2
:1044c4008180fb001fb997000101410092bf9f004a
:1044d4000040e8004048e300f5ff3e008944e8005e
:1044e4000a05e8006a044400fdcf5400d4ff3a00f2
:1044f4006e805700baff07004f06be004f05be008e
:104504004f04be000080fa000000060090c0a9001d
:104514005824ef009823ef000060fe0000017800ab
:10452400c0ff2f00f10720007b10070090c0a800f7
:10453400f00b2000c02288009823ef000000060042
:10454400e4874700889fbe008a9fbe008c9fbe0000
:104554008e1f78000000eb0080bf9f006890200051
:104564006055b80019c0b300880678000047eb0016
:104574000060fe0018407800894f50001a003a008d
:10458400c84090008180fb00c408de0081417800af
:104594000284200003497800e18320002fff0700f4
:1045a4000060fe006a58b90080804600380190001f
:1045b400e0832000020001004048e2000a003200cb
:1045c4000e4078000060fe008080fb00f241800015
:1045d400e2c078008180fb00010545000040e8004e
:1045e4004048e300f7ff3e008944e8008b05e800fb
:1045f4006a044400fdcf5400ddff3a000060fe0071
:1046040070805700c1ff07000fb897008a0f500051
:1046140003003a000060fe000040eb000200370097
:104624000060fe0000c0eb004f0778004f06be009c
:104634004f05be004f04be004f00b100000006004d
:10464400881f780040852000f041880080c0b300b6
:1046540040e8b7000060fe00c28c200020002f005c
:10466400f107200049100700e28c200040002f00d1
:10467400f107200045100700028d200060002f0084
:10468400f107200041100700228d200080002f0038
:10469400f10720003d1007000004eb00a846880045
:1046a400b84688006000b800404388005143880041
:1046b400720e0700c0438800d14388000060fe00ea
:1046c4000040eb00818d2000884878008100e800dc
:1046d400804878008100e800804878000060fe008f
:1046e4008100e800804878008100e8008048780074
:1046f4008100e800804878008180e80080487800e4
:104704008100e80080487800803821001047880044
:10471400dcfc0700ecfd07000060fe0088ff0700da
:104724000004e0003e0032004006200001002000aa
:10473400606988007169880000002000010c240071
:104744002046880031468800d0cc2c00c1022400c9
:1047540040468800514688000060fe0000002000aa
:1047640001372400e0438800f14388000000200062
:1047740011372400204488003144880000002000c0
:104784002137240060448800714488000000200020
:10479400413324000044880011448800a09921007a
:1047a4005133240040448800514488000000200014
:1047b4006133240080448800914488000000200074
:1047c40001f823005047880061478800704788003b
:1047d4008147880090478800a147880020c3b30020
:1047e400418e2000804878008100e80080487800ed
:1047f4008100e80080487800e0c1b3008100e8004f
:10480400804878008100e800804878008100e80052
:104814008048780080bb2000604288007042880095
:104824004f047800000006000060fe008042800013
:1048340061a22a00810f50008a00320007003e0066
:104844008180e900810f5000560032008100e800a9
:10485400810f5000b3003a006600370051a52a00ca
:10486400810f5000270032005105b000810f500025
:10487400040032003108b100810f5000a9003a0051
:104884008c0037000060fe00f0c3b300c18d20002f
:10489400914f100018003a0030c0b3008a0a070094
:1048a4000004e00014003a00c2f207000060fe00b9
:1048b400408e20009080fb000040eb00bff3070017
:1048c400508e20009080fb0010c0b300bbf30700a3
:1048d40020c0b30071cb2000804878000060fe0047
:1048e40041cc2000804878008100e80080487800ae
:1048f40000c0eb008d0037005028ef0000c0eb0033
:104904008a0037000060fe00f08d200080c0eb00bc
:1049140090cf100003003a005028ef000040eb0055
:1049240082003700f0c3b300c18d2000914f100006
:1049340019003a0030c0b300630a07000004e00025
:1049440015003a009bf207000060fe00708e200004
:104954009080fb000040eb00d7f30700808e20001e
:104964009080fb0010c0b300d3f3070041c0b30034
:1049740070cb2000014878000060fe0010c0b30036
:1049840041cc2000804878008100e800804878000d
:1049940000c0eb00650037005028ef0000c0eb00ba
:1049a400620037000060fe0010c0b300460a070032
:1049b4000004e0000c003a007ef20700408e200064
:1049c4009080fb000040eb007cf3070020c0b300a4
:1049d40041cc20008048780071cb200080487800ca
:1049e40000c0eb00510037005028ef0000c0eb007e
:1049f4004e0037000060fe00f08d200080c0eb0008
:104a040090cf100003003a005028ef000040eb0064
:104a14004600370010c0b3002b0a07000004e00072
:104a24000d003a0063f20700708e20009080fb00b6
:104a34000040eb00a0f3070011c0b30040cc2000fd
:104a44000148780041c0b30070cb200001487800d1
:104a540000c0eb00350037005028ef0000c0eb0029
:104a6400320037000060fe0020c0b300160a0700c1
:104a74000004e0000c003a004ef20700508e2000c3
:104a84009080fb0010c0b3004cf3070020c0b300bb
:104a940051cc20008048780071cb200080487800f9
:104aa40000c0eb00210037005028ef0000c0eb00ed
:104ab4001e0037000060fe00f08d200080c0eb0077
:104ac40090cf100003003a005028ef000040eb00a4
:104ad4001600370020c0b300fb0907000004e00003
:104ae4000d003a0033f20700808e20009080fb0016
:104af40010c0b30070f3070011c0b30050cc200005
:104b04000148780041c0b30070cb20000148780010
:104b140000c0eb00050037005028ef0000c0eb0098
:104b2400020037000060fe000040eb0000000600b9
:104b34000200fa00c1090700808d200010407800af
:104b4400e0ff9f00908d200010407800f0ff9f0050
:104b5400a18d2000804878000060fe006ff8970067
:104b6400e24f500005003200e34f5000370032009e
:104b7400e14f500044003a001a0037000041eb00b6
:104b8400f1ff2e0000102000ba0a070000c1eb005c
:104b9400f1df2f0000802000b60a070000c1eb00ff
:104ba400f1fd2f0040002000b20a070021c0b3002d
:104bb400d08d20000148780020cbb300d1cc200058
:104bc400914f100030003a00401f200001002000e7
:104bd4006069880071698800d0cc20000048eb002f
:104be4002900370000c1eb00f1ff2e000010200067
:104bf400a00a07000041eb00f1df2f000080200035
:104c04009c0a070000c1eb00f1fd2f0040002000ca
:104c1400980a070011c0b300d08d20000148780025
:104c240030cbb300d1cc2000914f100016003a00d5
:104c3400401f20000100200060698800716988001d
:104c4400d0cc20000048eb000f00370000c1eb007f
:104c5400f1ff2e0000102000860a070000c1eb00bf
:104c6400f1df2f0000802000820a07000041eb00e2
:104c7400f1fd2f00400020007e0a070031c0b30080
:104c8400d08d20000148780060cc200010407800ce
:104c9400e24f500011003200e34f50001c0032007c
:104ca400e14f50001e003a0000c1eb00b1ff2f009d
:104cb400100020006f0a0700d08d200031c0b3001f
:104cc40090cf10001600320000c1eb00f1fd2f0060
:104cd40040002000670a0700110037000041eb0084
:104ce400b1ff2f0010002000620a0700d08d2000c1
:104cf40031c0b30090cf10000900320000c1eb00b6
:104d0400f1fd2f00400020005a0a0700040037007c
:104d14000041eb00f1fd2f0040002000550a070080
:104d24000060fe007ff89700e24f50002f00320031
:104d3400e34f500003003200e14f500044003a00ba
:104d44001000370000c1eb00f17f2f00004020006d
:104d5400480a070000c1eb00f1f72f000000220011
:104d6400440a07000041eb00f1fe2f00000120007f
:104d7400400a070031c0b300d08d200001487800fc
:104d84003300370000c1eb00f17f2f00004020000a
:104d9400380a07000041eb00f1f72f000000220061
:104da400340a070000c1eb00f1fe2f0000012000cf
:104db400300a070011c0b300d08d200001487800ec
:104dc40030cbb300d1cc2000914f100020003a002a
:104dd400401f20000100200060698800716988007c
:104de400d0cc20000048eb00190037000041eb0054
:104df400f17f2f00004020001e0a070000c1eb00d5
:104e0400f1f72f00000022001a0a070000c1eb008e
:104e1400f1fe2f0000012000160a070021c0b30094
:104e2400d08d20000148780020cbb300d1cc2000e5
:104e3400914f100006003a00401f2000010020009e
:104e44006069880071698800d0cc20000048eb00bc
:104e540070cc200010407800e24f50000a0032006d
:104e6400e34f500003003200e14f50001f003a00ae
:104e7400120037000041eb00f1fe2f00000120007a
:104e8400fc090700190037000041eb00d1ff2f0097
:104e940020002000f7090700d08d200031c0b300a6
:104ea40090cf10001100320000c1eb00f1fe2f0082
:104eb40000012000ef0907000c00370000c1eb00df
:104ec400d1ff2f0020002000ea090700d08d200028
:104ed40031c0b30090cf10000400320000c1eb00d9
:104ee400f1fe2f0000012000e20907000060fe002f
:104ef400c046800011102000810f50000e003a00bf
:104f0400a08d200011c0b30090cf10001b003a0008
:104f14000041eb00f1ff270000202000d509070025
:104f240000c1eb00f1ff2b0000082000d1090700ad
:104f34000060fe001900370021202000810f50007e
:104f44000e003a00a08d200021c0b30090cf1000c5
:104f54000a003a000041eb00f1ff2b00000820009a
:104f6400c409070000c1eb00f1ff27000020200066
:104f7400c00907000060fe000800370000c1eb0014
:104f8400f1ff270000202000ba09070000c1eb0050
:104f9400f1ff2b0000082000b60907000080fa008a
:104fa40000000600c0da200011c1b30090cf100049
:104fb4000400360011cab300b08d20000148780007
:104fc4000300370051cab300b08d200001487800b7
:104fd400c0da20000048eb000000e80011c1b30073
:104fe40090cf100004003600f1ccb300c08d200037
:104ff4000148780003003700f1c3b300c08d2000de
:1050040001487800d0da20000048eb000000e800f6
:1050140011c1b30090cf100003003600f08d2000c2
:1050240000c8eb0002003700f08d20000048eb00c0
:10503400e0da20000048eb000000e80011c1b300f2
:1050440090cf1000070036000000e80090cf100059
:105054000c003e0021c0b300808d20000148780080
:105064000b00370000db200011c1b30090cf10000b
:105074000400360011c0b300808d20000148780080
:105084000300370031c0b300808d20000148780050
:105094000040eb00f1da2000804878008100e8004d
:1050a400804878000100e80011c1b30090cf1000df
:1050b400070036000000e80090cf10000c003e000e
:1050c40021c0b300908d2000014878000b00370008
:1050d40020db200011c1b30090cf10000400360083
:1050e40011c0b300908d2000014878000300370000
:1050f40031c0b300908d2000014878000040eb00df
:1051040011db2000804878008100e80080487800a6
:10511400918d20000100e80011487800000006008d
:10512400a9f00700804078000040eb000104e00093
:105134009400320030db200011c1b30090cf100086
:105144001f0036000000e80090cf10000b0036006e
:105154000040eb0031db2000804878008100e8004b
:105164008048780030c0b300818d200080487800ea
:105174008100e80080487800260037000040eb00fa
:1051840031db2000804878008100e8008048780006
:10519400c146800010102000808f500006003a00a5
:1051a400a08d200012c0b300904f110002003a00fd
:1051b400a0aa2a008042880050c8bf0071003700ae
:1051c40040db200011c1b30090cf10001100360065
:1051d4000040eb0031db2000804878008100e800cb
:1051e40080487800c146800020202000808f500035
:1051f40006003a00a08d200022c0b300904f110099
:1052040002003a0050a52a008042880050c8bf001e
:105214005c00370050db200011c1b30090cf1000b8
:10522400190036000000e80090cf10000900360095
:105234000040eb0051db2000804878008100e8004a
:105244008048780031c0b300808d20000148780088
:105254001e0037000040eb0051db2000804878003e
:105264008100e80080487800808d200012c0b300df
:10527400904f110002003a0040a22a0080428800a8
:1052840050c8bf003f00370060db200011c1b300ed
:1052940090cf10000d0036000040eb0051db2000e1
:1052a400804878008100e80080487800808d2000e4
:1052b40022c0b300904f110002003a0050a22a000d
:1052c4008042880050c8bf002e00370070db2000e9
:1052d40011c1b30090cf10001a0036000000e8009e
:1052e40090cf10000a0036000040eb0071db200074
:1052f400804878008100e8008048780031c0b3001d
:10530400908d2000014878000040eb001d0037001c
:105314000040eb0071db2000804878008100e80049
:1053240080487800908d200012c0b300904f110087
:1053340002003a0060a22a008042880050c8bf00e0
:10534400100037000040eb0081db200012c1b300e5
:10535400914f11000b0036008100e900804878006d
:105364008100e80080487800908d200021c0b300bf
:1053740090cf100002003a0070a22a0080428800f8
:1053840050c8bf0000000600808d20001040780047
:10539400a1da2000914f10000900320021cc200036
:1053a40080487800a1da20008048780000c0eb0033
:1053b400a1cc2000804878008100e8008048780073
:1053c400908d200010407800b1da2000914f100039
:1053d4000900320031cc200080487800b1da200086
:1053e4008048780000c0eb00a1cc20008048780001
:1053f4008100e80080487800000006003d080700ae
:1054040060418800714188003068ec006041800090
:10541400714180000148a30002003200c0da20007c
:105424001048e80060418000714180000168a300d9
:1054340002003200d0da20001048e8006041800009
:10544400714180000128a30002003200e0da20004c
:105454001048e80060418000714180000178a30099
:1054640002003200f0da20001048e80060418000b9
:10547400714180000158a3000200320000db2000cb
:105484001048e80060418000714180000138a300a9
:105494000200320010db20001048e8006041800068
:1054a400714180000118a3000200320020db2000bb
:1054b4001048e800644180007541800005017800cf
:1054c4000240a1008001eb00c010dd0000002000bc
:1054d4006121b80002007000838070006041880080
:1054e400714188000060fe006041800071418000cd
:1054f40042002000230620000002610001816100b7
:105504008001eb00c010dd00000020006121b80024
:1055140002007000838070004200200023022000fb
:10552400820f5000838f580002003a0030db2000c5
:105534001048e800604180007141800012002000a2
:10554400c30c200000026100018161008001eb00b6
:10555400c010dd00000020006121b80002007000ce
:10556400838070001200200083082000820f500006
:10557400838f580002003a0040db20001048e80006
:105584006241800073418000000020001106200069
:10559400038160008001eb00c011dd0002002000e7
:1055a400800f5100818f590002003a0050db200027
:1055b4001048e8006041800071418000020024002e
:1055c400430c200000026100018161008001eb00b6
:1055d400c010dd00000020006121b800020070004e
:1055e4008380700002002400030c2000820f50000e
:1055f400838f580002003a0060db20001048e80066
:1056040062418000734180000000210021042000d9
:1056140002036000038260008002eb00c021dd0011
:10562400020020006132b80004017100858171001c
:10563400800f5100818f590002003a0070db200076
:105644001048e80060418000714180000240200061
:10565400c304200000026100018161008001eb00ad
:10566400c010dd00000020006121b80002007000bd
:10567400838070000240200083042000820f5000c9
:10568400838f580002003a0080db20001048e800b5
:1056940030c8bf00fd4f5000060036003068ef00f0
:1056a40040fe07009efe07000004e00001003a00ef
:1056b40035ff070000000600881f7800000478000a
:1056c400c0c4200032c0b300904f11000200320069
:1056d4000060fe000500370008007800baf60700f5
:1056e4000060fe000040eb00004c98004f0478007e
:1056f400000006000060fe0031c0b300c0c12000fd
:10570400014878000000e8000048eb0031c8b3000d
:105714000000e80001487800f00f200000618800d4
:105724001061880022c2b30041c220008248780080
:10573400306188000060fe0040618800419c2000c8
:105744005161880012c0b300c1c2200082487800b1
