:020000040000fa
:080000000001040000000000f3
:020000040000fa
:0400080014020000de
:020000040000fa
:04000c00f4010000fb
:020000040000fa
:04001000f8010000f3
:020000040000fa
:04001400fc010000eb
:020000040000fa
:0400180000020000e2
:020000040000fa
:04001c0014020000ca
:020000040000fa
:0400200014020000c6
:020000040000fa
:0400240014020000c2
:020000040000fa
:0400280014020000be
:020000040000fa
:04002c0014020000ba
:020000040000fa
:0400300014020000b6
:020000040000fa
:0400340014020000b2
:020000040000fa
:0400380014020000ae
:020000040000fa
:04003c0014020000aa
:020000040000fa
:040040000c4200006e
:020000040000fa
:04004400f8080000b8
:020000040000fa
:04004800140200009e
:020000040000fa
:04004c00a0440000cc
:020000040000fa
:04005000a6440000c2
:020000040000fa
:040054001402000092
:020000040000fa
:04005800140200008e
:020000040000fa
:04005c00140200008a
:020000040000fa
:040060001402000086
:020000040000fa
:040064001402000082
:020000040000fa
:04006800140200007e
:020000040000fa
:04006c00140200007a
:020000040000fa
:040070001402000076
:020000040000fa
:040074001402000072
:020000040000fa
:04007800140200006e
:020000040000fa
:04007c00140200006a
:020000040000fa
:040080001402000066
:020000040000fa
:04008400ea19000075
:020000040000fa
:04008800140200005e
:020000040000fa
:04008c00140200005a
:020000040000fa
:040090001402000056
:020000040000fa
:040094001402000052
:020000040000fa
:04009800140200004e
:020000040000fa
:04009c00140200004a
:020000040000fa
:0400a0001402000046
:020000040000fa
:0400a4001402000042
:020000040000fa
:0400a800140200003e
:020000040000fa
:0400ac00140200003a
:020000040000fa
:0400b0001402000036
:020000040000fa
:0400b4001402000032
:020000040000fa
:0400b800140200002e
:020000040000fa
:0400bc00140200002a
:020000040000fa
:0400c000ae2f00005f
:020000040000fa
:0400c4001402000022
:020000040000fa
:0400c800140200001e
:020000040000fa
:0400cc00140200001a
:020000040000fa
:0400d0001402000016
:020000040000fa
:0400d4001402000012
:020000040000fa
:0400d800140200000e
:020000040000fa
:0401080014020000dd
:020000040000fa
:04010c0004020000e9
:020000040000fa
:0401100008020000e1
:020000040000fa
:040114000c020000d9
:020000040000fa
:0401180010020000d1
:020000040000fa
:04011c0014020000c9
:020000040000fa
:0401200014020000c5
:020000040000fa
:0401240014020000c1
:020000040000fa
:0401280014020000bd
:020000040000fa
:04012c0014020000b9
:020000040000fa
:0401300014020000b5
:020000040000fa
:0401340014020000b1
:020000040000fa
:0401380014020000ad
:020000040000fa
:04013c0014020000a9
:020000040000fa
:0401400014020000a5
:020000040000fa
:0401440014020000a1
:020000040000fa
:04014800140200009d
:020000040000fa
:04014c001402000099
:020000040000fa
:040150001402000095
:020000040000fa
:040154001402000091
:020000040000fa
:04015800140200008d
:020000040000fa
:04015c001402000089
:020000040000fa
:040160001402000085
:020000040000fa
:040164001402000081
:020000040000fa
:04016800140200007d
:020000040000fa
:04016c001402000079
:020000040000fa
:040170001402000075
:020000040000fa
:040174001402000071
:020000040000fa
:04017800140200006d
:020000040000fa
:04017c001402000069
:020000040000fa
:040180001402000065
:020000040000fa
:040184001402000061
:020000040000fa
:04018800140200005d
:020000040000fa
:04018c001402000059
:020000040000fa
:040190001402000055
:020000040000fa
:040194001402000051
:020000040000fa
:04019800140200004d
:020000040000fa
:04019c001402000049
:020000040000fa
:0401a0001402000045
:020000040000fa
:0401a4001402000041
:020000040000fa
:0401a800140200003d
:020000040000fa
:0401ac001402000039
:020000040000fa
:0401b0001402000035
:020000040000fa
:0401b4001402000031
:020000040000fa
:0401b800140200002d
:020000040000fa
:0401bc001402000029
:020000040000fa
:0401c0001402000025
:020000040000fa
:0401c4001402000021
:020000040000fa
:0401c800140200001d
:020000040000fa
:0401cc001402000019
:020000040000fa
:0401d0001402000015
:020000040000fa
:0401d4001402000011
:020000040000fa
:0401d800140200000d
:020000040000fa
:10020000efdb20000e7f22000e01880000000000be
:10021000000020000000e000020032000001200089
:100220002002880014000700810007000000e000a1
:1002300003003a00802f2400010020000200370054
:100240000000200001002000810f7000010032003a
:1002500014000700000020000000e000020032004f
:100260000000020000000000104502000000000035
:100270000040da000000fe004440a900a023200056
:100280000000e0000300320000002000a001880010
:100290004440a800000006008a1f78008b1f7800e9
:1002a0000000060091018800800478000000eb0047
:1002b0001a003700e284440032a0b4009905ba0065
:1002c000e284440032a0b4009906ba00e2844400fb
:1002d00032a0b4000006eb00476fde00fd07b2005d
:1002e000636ce10003003a00ebff07000000eb0045
:1002f0000a003700606ce10004003a00005deb008a
:100300008b05e900fdff3e00040037006168e10055
:10031000010032000086eb000b00070019c7ba008d
:100320001905ba000e04e00003003a000a00e000dc
:10033000e0ff3a0000000600fe07b2009e018800c0
:100340008a047800f5ff3700395dba008b05e900b3
:100350000c003200295dba008b05e900080032006c
:100360000c00e00003003a00e284440032a0b40034
:10037000f5ff370019ddba008b05e900faff3a00f6
:100380008904e800e184440032a0b40000000600c3
:10039000541b040000000000221b040000000000a9
:1003a000ce1a040000000000aa1a04000000000099
:1003b0008e1a040000000000721a04000000000001
:1003c000f21a0400000000009c0804000000000075
:1003d000e4070400000000004008040000000000e2
:1003e00088070400000000008020a900ffff3700fc
:1003f0008060a900ffff37008040a900ffff3700a1
:100400008080a900ffff37008020a900ffff370090
:100410008060a900ffff37008040a900ffff370080
:100420008080a900ffff37000040da000000fe00d6
:10043000000005003200f800910188000008bb00b0
:10044000410424006210e100040032000002200098
:100450000010e1000a003a0051042400013b88002a
:100460000500fc0051052000313b8800a10a200056
:10047000313b880061e7a800000000000000000098
:100480003200f900000006003200f8006004240089
:10049000003b8800f2ff37003200f800910188002d
:1004a00041002400013b88000208bb00ecff37003c
:1004b0003200f8009101880051002400013b8800bf
:1004c000030120003218bb008301e900fdff3a0060
:1004d000e3ff37003200f8009101880080027800c5
:1004e00062004000e08048003549ba003204e00074
:1004f0000410a700100032008301e9000e00320052
:100500002549ba003204e0000410a7000a003200b6
:100510008301e900080032000408a300eeff320066
:1005200015c9ba003204e0000410a700020032002e
:100530008301e900e8ff3a003200f90000000600fc
:1005400003f0a200889fbe008a9fbe008c1f780027
:10055000b5000700bc0033006450e1004f003200da
:100560006420e1005200320003826c0007003b006f
:100570000905d0000306d000820f54000c065d0070
:100580000200390002003200890178000306780079
:100590008582550004003d000003fd008103fd003d
:1005a0008502ea008b854200840f720002003b0046
:1005b00060001000e08018006011b8000005eb003a
:1005c0007a28e1000a00390006007800c75ddd00e6
:1005d000f707b200878075002d0037008281710017
:1005e0000a017800610560008180d1000080d3009d
:1005f0008502e900f9ff3b000604400087844800bb
:1006000002003b0060041400e0841c000988a30081
:10061000070032008a8171008281710061016400eb
:100620008904d1000884d3008b05e8001700370047
:100630000978a30013003a000b00e0001300340017
:100640008b05e9000804440089844c000a447400c6
:100650000978a3000d003a000b00e0000700340009
:100660008b05e9000804440089844c0001003a002d
:100670000b0020000978a300f7ff32000001eb0017
:1006800002003700828171000a0178002b00070008
:100690000cf0a70001f0a000740037006420e10016
:1006a00002003a00838f6c00740033000801be0022
:1006b0000200be006d00370014002000a6003700c5
:1006c000f4ff2f00a40037000001be004100070026
:1006d0000470a70003f0a10003f8a30013003a0080
:1006e0006509b10010003200090035006928e100f9
:1006f0000200350001002800000005000000400055
:10070000818048008502e900fcff3a0000000600f5
:10071000f88f4200050035008100d1000080d30031
:100720008502e800fcff3a00000006008000eb00b4
:10073000000005006011b800a20037008100200011
:10074000618055000b003d000b00200061fe2f0072
:100750000100e1001d00340082817100610164002c
:100760008904d1000884d3000000e800faff3a00b1
:10077000710020006100640003007000020060004e
:100780000900320061044400e0844c000988a5009f
:10079000050032008b05e8006808e10002003a001d
:1007a0008904d1000884d300f20f20000258e10030
:1007b00005003d00c75ddd00f907b20089807500c6
:1007c00008007800000006000bf827008b00780076
:1007d00000000500c70ade00f107b200f50fb20005
:1007e00008003200e1cf4200020032000170a00098
:1007f00024000500810f700001003200040805008c
:1008000044000500810f700002003a00140005004a
:100810008502e9000000400081c04800fcff3b0069
:100820000170a000240005000004be00e9ff0700dd
:100830000003be000405be000200be00e5ff070085
:10084000844f7500000006000200be006450e10005
:10085000050036006420e100020036000968a300ac
:1008600001003a000800be000160a0004f067800b9
:100870004f05be004f04be0000000600f0ff2f0031
:10088000f1ff2700f9ff3700889fbe008a9fbe0056
:100890008c1f7800e4ff0700ebff330003866c0039
:1008a0006450e100240032006420e100270032009f
:1008b0006150e100220032006120e100210032009d
:1008c0008b854200eb07b1000134b800003ab80054
:1008d0000804420089844a00013ab8000030b80098
:1008e0008880400009014a000400330000004000f5
:1008f00081804800020149008b05e900c909dd003b
:10090000830170000100320013002000c814de00d3
:100910004814dd004709de001200b200c808de00fe
:100920000884700085ff070001f0a1000cf0a7000b
:1009300001f0a000cdff37006120e100cfff3200c1
:100940000801be000200be00f7ff37006150e10061
:10095000fcff3a00c9ff3700889fbe008a9fbe0097
:10096000841f7800b0ff07004f00780011003300ab
:10097000f0ff2f00838f6c0006003b00040565002c
:100980000a00a7000800370009f0a60010002000a8
:1009900008003700820f5400838f5c000300390089
:1009a0001000200001003e000000200009f0a70018
:1009b0000000ea004f05be004f04be000000e0004a
:1009c00000000600889fbe008a9fbe000082700063
:1009d0000402710004827100260032000004be008f
:1009e0000200be006011b8006b09200095022000d3
:1009f0000182cf000a0039000541b1000082cf001a
:100a0000070039000541b1000982cf000400390018
:100a10000541b1000882cf00010039000541b10055
:100a200005425200120032000a003b008281710030
:100a3000610164008100d1000080d3008984d3006b
:100a40000884d3008b05e8000442e800f7ff3a0071
:100a5000070037000804440089844c000000480067
:100a6000818048008b05e9000442e900f9ff3a0063
:100a700032ff07004f05be004f04be000000060015
:100a80008001780002003700b15978000201e900c6
:0c0a90000200e000fcff3a00000006003d
:020000040000fa
:100a9c0000c100008140000001c000008041000046
:100aac0001c000008041000000c100008140000036
:100abc0001c000008041000000c100008140000026
:100acc0000c100008140000001c000008041000016
:100adc0001c000008041000000c100008140000006
:100aec0000c100008140000001c0000080410000f6
:100afc0000c100008140000001c0000080410000e6
:100b0c0001c000008041000000c1000081400000d5
:100b1c0001c000008041000000c1000081400000c5
:100b2c0000c100008140000001c0000080410000b5
:100b3c0000c100008140000001c0000080410000a5
:100b4c0001c000008041000000c100008140000095
:100b5c0000c100008140000001c000008041000085
:100b6c0001c000008041000000c100008140000075
:100b7c0001c000008041000000c100008140000065
:100b8c0000c100008140000001c000008041000055
:100b9c0001c000008041000000c100008140000045
:100bac0000c100008140000001c000008041000035
:100bbc0000c100008140000001c000008041000025
:100bcc0001c000008041000000c100008140000015
:100bdc0000c100008140000001c000008041000005
:100bec0001c000008041000000c1000081400000f5
:100bfc0001c000008041000000c1000081400000e5
:100c0c0000c100008140000001c0000080410000d4
:100c1c0000c100008140000001c0000080410000c4
:100c2c0001c000008041000000c1000081400000b4
:100c3c0001c000008041000000c1000081400000a4
:100c4c0000c100008140000001c000008041000094
:100c5c0001c000008041000000c100008140000084
:100c6c0000c100008140000001c000008041000074
:100c7c0000c100008140000001c000008041000064
:100c8c0001c000008041000000c100008140000054
:100c9c0000c00000c1010000c303000002c200003c
:100cac00c606000007c7000005c50000c40400000c
:100cbc00cc0c00000dcd00000fcf0000ce0e0000bc
:100ccc000aca0000cb0b0000c909000008c80000cc
:100cdc00d818000019d900001bdb0000da1a00003c
:100cec001ede0000df1f0000dd1d00001cdc00000c
:100cfc0014d40000d5150000d717000016d600003c
:100d0c00d212000013d3000011d10000d01000004b
:100d1c00f030000031f1000033f30000f23200003b
:100d2c0036f60000f7370000f535000034f400000b
:100d3c003cfc0000fd3d0000ff3f00003efe0000bb
:100d4c00fa3a00003bfb000039f90000f8380000cb
:100d5c0028e80000e9290000eb2b00002aea00003b
:100d6c00ee2e00002fef00002ded0000ec2c00000b
:100d7c00e424000025e5000027e70000e62600003b
:100d8c0022e20000e3230000e121000020e000004b
:100d9c00a060000061a1000063a30000a26200003b
:100dac0066a60000a7670000a565000064a400000b
:100dbc006cac0000ad6d0000af6f00006eae0000bb
:100dcc00aa6a00006bab000069a90000a8680000cb
:100ddc0078b80000b9790000bb7b00007aba00003b
:100dec00be7e00007fbf00007dbd0000bc7c00000b
:100dfc00b474000075b5000077b70000b67600003b
:100e0c0072b20000b3730000b171000070b000004a
:100e1c00509000009151000093530000529200003a
:100e2c00965600005797000055950000945400000a
:100e3c009c5c00005d9d00005f9f00009e5e0000ba
:100e4c005a9a00009b5b00009959000058980000ca
:100e5c0088480000498900004b8b00008a4a00003a
:100e6c004e8e00008f4f00008d4d00004c8c00000a
:100e7c00448400008545000087470000468600003a
:100e8c00824200004383000041810000804000004a
:100e9c00000100000004000000100000ffef000043
:100eac00fff70000fffb000000080000002000001e
:100ebc0000800000fffd00007fff0000bfff00006e
:100ecc00010000000200000008000000fbff000011
:100edc00fdff0000feff00000400000010000000f9
:100eec0040000000dfff0000efff0000f7ff0000f4
:100efc00596f00006e67000043690000000000009d
:040f0c0004000000dd
:020000040000fa
:100f1000881f7800000478009800900050a52a00ef
:100f2000808f50000d003a0070c7b300984f10003a
:100f30000a003a00e2c2a900cb22a800cb82a80096
:100f4000cbe2a900caa2a800e2c2a900cb22a80055
:100f5000cb82a800cbe2a900caa2a8004801900059
:100f60008001eb0068009000f8009000cd1c0700a5
:100f70000004e00012003200e2c2a900cb22a80067
:100f8000cb82a900cbe2a800caa2a900e2c2a900b4
:100f9000cb22a800cb82a900cbe2a800caa2a9005c
:100fa0000000eb0010049800004c78000060fe0088
:100fb00050a52a002004980000c0eb0010449800bf
:100fc0004f04780000000600881f780000047800b5
:100fd0009800900050a52a00808f50000d003a0024
:100fe00070c7b300984f10000a003a00e862a900e9
:100ff000cb42a800cba2a800e282a900e902a80087
:10100000e862a900cb42a800cba2a800e282a90016
:10101000e902a800480190008001eb006800900000
:10102000f80090009f1c07000004e000120032004e
:10103000e862a900cb42a800cba2a900e282a800e6
:10104000e902a900e862a900cb42a800cba2a9004e
:10105000e282a800e902a9000000eb001004980059
:10106000004c78000060fe0050a52a002004980083
:1010700000c0eb00104498004f0478000000060008
:10108000881f78000004780098009000a0aa2a0029
:10109000808f50000d003a0070c7b300984f1000c9
:1010a0000a003a00cb82a900cbe2a800e2c2a80065
:1010b000cb22a900caa2a800cb82a900cbe2a8003b
:1010c000e2c2a800cb22a900caa2a8003801900061
:1010d0008001eb0068009000f8009000711c070090
:1010e0000004e00012003200e2c2a900cb22a800f6
:1010f000cb82a900cbe2a800caa2a900e2c2a90043
:10110000cb22a800cb82a900cbe2a800caa2a900ea
:101110000000eb0010049800004c78000060fe0016
:10112000a0aa2a002004980000c0eb0010449800f8
:101130004f04780000000600881f78000004780043
:1011400098009000a0aa2a00808f50000d003a005d
:1011500070c7b300984f10000a003a00cba2a90054
:10116000e282a800e862a800cb42a900e902a80038
:10117000cba2a900e282a800e862a800cb42a900a5
:10118000e902a800380190008001eb00680090009f
:10119000f8009000431c07000004e0001200320039
:1011a000e862a900cb42a800cba2a900e282a80075
:1011b000e902a900e862a900cb42a800cba2a900dd
:1011c000e282a800e902a9000000eb0010049800e8
:1011d000004c78000060fe00a0aa2a0020049800bd
:1011e00000c0eb00104498004f0478000000060097
:1011f0003600f800809fbe00829fbe00849fbe0024
:10120000869fbe0084e0a9000060fe0060cd200043
:101210001080fb006600b9000080e80021cc2000af
:10122000614078000040e9008080fb0042c1b300cb
:101230000440bc00c3d42000e341790082c8b3005d
:1012400082cf510025003a007409b9000281e800fc
:10125000c3d42000630179000200e0001f003a00bf
:10126000740ab900840078000181410074c7b3009a
:1012700004497800a4aa2a00140198000468800098
:10128000156880006401980075019800f0804000a6
:1012900042c1b3000440bc0003004100e380780079
:1012a0000100010061cd20001140e8008048780075
:1012b0008100e900914f50000700310062c0b30087
:1012c0000440bc0064004100f380500061007800dd
:1012d000811b070001003700871b07004f03be007a
:1012e0004f02be004f01be004f00be003600f900a5
:1012f0000040060050a52a00a04288000000060019
:101300005428ef0000000600a04280000000e0002a
:101310000400320051a52a00810f50000300320062
:101320000300370000c0eb00010037000040eb0075
:1013300000000600f4ff07000004e0000a003a0085
:10134000c0d420001004e00013003a00706a80004e
:101350000000e00010003a00806a80000000e00019
:10136000040032000c00370080ca20000008eb00a7
:101370004f00370000d620001004e00006003a00bd
:10138000106b80000000e00003003a00206b80003a
:101390000000e000020032005228ef004400370055
:1013a00090c0a9005824ef009823ef00208e200061
:1013b0009080fb0020d5200064884000308e200003
:1013c0009080fb0060d620006488400060cd200043
:1013d0000048eb000000e90010407800e14f5000a9
:1013e00015003600a1cc200000c0e90062c0b300a7
:1013f0000440bc006683400002034300c5d42000c3
:1014000084c8b3008001eb001140e90042c1b30081
:101410000440bc0002814200044978000280e800d8
:10142000030878001100900050019800e680400009
:10143000868f5000f4ff3a0040cc20001040e900b5
:10144000c1d4200042c1b3000440bc00028040006f
:1014500073c7b30003487800a3aa2a0013009800ba
:10146000046880001568800064009800750098008a
:1014700070014100e10079000100010061cd200010
:101480001140e800804878008100e900914f500049
:101490000600310062c0b3000440bc00640041009b
:1014a000f380500061007800021b07000060fe001e
:1014b00000000600889fbe008a9fbe008c9fbe0071
:1014c0008e1f780090ff07000004e0000300320048
:1014d00080ca20000008eb003d0037000060fe00dd
:1014e000b0ce2000904078000104e0000e003200f1
:1014f000c0d420001004e00006003a00706a8000aa
:101500000000e00003003a00826a80000200e00070
:10151000020032005228ef002d0037000040e800a2
:10152000814f5000fdff390090c0a9005824ef0002
:101530009823ef00208e20009080fb0020d5200013
:1015400064884000308e20009080fb0060d6200030
:101550006488400098cd20006c054400fa055000d6
:101560007ec7b3000cd020001804e0001300320046
:10157000184090000040e90042c1b3000440bc00a4
:10158000028045000e487800a1aa2a0011009800a8
:10159000ec064000bc1e7800ac1678000060fe002f
:1015a00070014100eb00790001000100bc1e7800d1
:1015b000ac1678000040eb00004c78006604440054
:1015c0008a0f5400e8ff3a00b0ce20000048eb003c
:1015d0004f0778004f06be004f05be004f04be0007
:1015e00000000600889fbe008a9fbe008c9fbe0040
:1015f0008e1f780044ff07000004e0000300320063
:1016000080ca20000008eb003d0037000060fe00ab
:10161000b0ce2000904078000104e0000e003200bf
:10162000c0d420001004e00006003a00706a800078
:101630000000e00003003a00826a80000200e0003f
:10164000020032005228ef002d0037000040e80071
:10165000814f5000fdff390090c0a9005824ef00d1
:101660009823ef00508e20009080fb0040d5200092
:1016700064884000608e20009080fb0080d62000af
:101680006488400098cd20006c054400fc055000a3
:101690007ec7b3000cd020001804e0001300320015
:1016a000184090000040e90042c1b3000440bc0073
:1016b000028045000e48780051a52a0011009800cc
:1016c000ec064000bc1e7800ac1678000060fe00fe
:1016d00072014100eb00790001000100bc1e78009e
:1016e000ac1678000040eb00004c78006604440023
:1016f0008a0f5400e8ff3a00b0ce20000048eb000b
:101700004f0778004f06be004f05be004f04be00d5
:1017100000000600889fbe008a9fbe00004478003b
:1017200081047800f8fe07000004e00003003200a6
:1017300080ca20000008eb00320037008880fb00e0
:101740000840780042c1b3000440bc00c0d420006f
:10175000604079000004e0000c003a007409b90010
:101760000280e800c2d42000620078000000e0009f
:1017700006003a007409b90064004100c2d4200098
:10178000620078000000e000020032005228ef0002
:101790001c00370090c0a9005824ef009823ef00e8
:1017a0000060fe00c3d420007408b90080007800f7
:1017b0000180410072c7b30002487800a2aa2a0043
:1017c00012009800ec0540000ad02000ba1d7800f5
:1017d000aa15780066004000648844000060fe009e
:1017e000f08040000840780042c1b3000440bc00d3
:1017f00003004100e380780001000100ba1d780079
:10180000aa1578004f05be004f04be000000060078
:10181000889fbe008a9fbe00004478008104780043
:10182000b9fe07000004e0000300320080ca200077
:101830000008eb00320037008880fb000840780089
:1018400042c1b3000440bc00c0d420006040790015
:101850000004e0000c003a007409b9000280e800be
:10186000c2d42000620078000000e00006003a00c8
:101870007409b90064004100c2d4200062007800fd
:101880000000e000020032005228ef001c00370088
:1018900090c0a9005824ef009823ef000060fe00dc
:1018a000c3d420007408b900800078000180410092
:1018b00072c7b3000248780052a52a0012009800af
:1018c000ec0540000ad02000ba1d7800aa15780067
:1018d00068004000648844000060fe00f280400020
:1018e0000840780042c1b3000440bc00030041003e
:1018f000e380780001000100ba1d7800aa15780085
:101900004f05be004f04be0000000600881f78008f
:101910000060fe00706a8000a1aa2a00810f5000ba
:101920000d003a0071c7b300c2d4200092cf10005e
:1019300009003a000060fe0090c0a9005824ef00a2
:101940009823ef0002007800e16a800001000100a6
:1019500018c8b300100037000044eb0051a52a005e
:10196000810f50000c003a0070c7b300c1d42000b2
:10197000914f100008003a000060fe0090c0a900de
:101980005824ef009823ef0001007800f16a8000ee
:101990000100010028c8b300106b8000a1aa2a0032
:1019a000810f50000e003a0071c7b30002d620002c
:1019b00092cf10000a003a000060fe0090c0a9001b
:1019c0005824ef009823ef0002007800816b80001c
:1019d0000100010040c8b30000447400100037004b
:1019e00051a52a00810f50000d003a0070c7b300c6
:1019f00001d62000914f100009003a000060fe005f
:101a000090c0a9005824ef009823ef00010078004f
:101a1000916b80000100010080c8b3000044740095
:101a2000c0d420001040780081c8b300814f50001e
:101a30000300320002d6200092cf100001003a00cd
:101a40000864a00071c7b300814f50000400320049
:101a50000140780001d62000914f100001003a00ab
:101a60000874a000084078004f04780000000600c9
:101a70008040eb00c0d42000014878000000e8005e
:101a8000014878000000eb00706a8800806a8800d6
:101a900025032000956a8800e4012000a46a8800dc
:101aa000b06a88006011b800c26a8800d36a8800f2
:101ab000c6892000e66a8800467e2000f66a880013
:101ac0000060fe0006d62000004b78000603e80008
:101ad000014b7800106b8800206b8800356b880004
:101ae000446b8800506b8800626b8800736b8800c1
:101af00000842000806b880080782000906b880034
:101b00000060fe000060fe00000006000060fe00b5
:101b100040d420003041880080c0b30028e8b700de
:101b20005428ef00e462a900c7a2a900de82a90040
:101b3000c742a900e862a900cb42a800cba2a90035
:101b4000e282a800e902a9000060fe00dec2a9004e
:101b5000c782a900c7e2a900c722a900e2c2a90062
:101b6000cb22a800cb82a900cbe2a800caa2a90080
:101b70000060fe00dea2a900c762a900c7c2a900da
:101b8000c702a900e2a2a900cb02a800cb62a9006b
:101b9000cbc2a800ca82a9000060fe005228ef0054
:101ba0000060fe00b2ff070000688000116880003e
:101bb0002068880031688800606888007168880043
:101bc000a0688800b1688800e0688800f168880033
:101bd0002069880031698800401f20000100200032
:101be00000698800116988008000eb004165880069
:101bf0000040eb00a2ca2000014978008200e80002
:101c0000804878008100e800804878008100e80082
:101c1000804878008100e800804878008100e80072
:101c2000804878000060fe00e1cb2000804878000a
:101c3000e3804000804878008100e9008048780017
:101c40008100e90080487800e380500080487800f7
:101c50008100e80080487800a9fd07000000060028
:101c6000881f78000004780098009000a0aa2a003d
:101c7000808f50000d003a0070c7b300984f1000dd
:101c80000a003a00cb62a900cbc2a800e2a2a800d9
:101c9000cb02a900ca82a800cb62a900cbc2a800cf
:101ca000e2a2a800cb02a900ca82a80038019000d5
:101cb0008001eb0068009000f8009000791907009f
:101cc0000004e00012003200e2a2a900cb02a8004a
:101cd000cb62a900cbc2a800ca82a900e2a2a900d7
:101ce000cb02a800cb62a900cbc2a800ca82a9007f
:101cf0000000eb0010049800004c78000060fe002b
:101d0000a0aa2a002004980000c0eb00104498000c
:101d10004f04780000000600881f78000004780057
:101d20009800900050a52a00808f50000d003a00c6
:101d300070c7b300984f10000a003a00e2a2a90051
:101d4000cb02a800cb62a800cbc2a900ca82a8001f
:101d5000e2a2a900cb02a800cb62a800cbc2a900d6
:101d6000ca82a800480190008001eb006800900042
:101d7000f80090004b1907000004e0001200320048
:101d8000e2a2a900cb02a800cb62a900cbc2a800a6
:101d9000ca82a900e2a2a900cb02a800cb62a900d6
:101da000cbc2a800ca82a9000000eb001004980072
:101db000004c78000060fe0050a52a002004980026
:101dc00000c0eb00104498004f04780000000600ab
:101dd000806a8000a1aa2a00810f500006003a0004
:101de0000060fe00e28c200020002f00f1072000a0
:101df000d01907000800370051a52a00810f5000b4
:101e000005003a000060fe00028d200040002f0017
:101e1000f1072000c7190700206b8000a1aa2a0043
:101e2000810f500006003a000060fe00228d200065
:101e300060002f00f1072000be19070008003700de
:101e400051a52a00810f500005003a000060fe00f5
:101e5000428d200080002f00f1072000b5190700f7
:101e600000000600889fbe008a1f7800d0228000f4
:101e700044e8b700d02280004800de0045e8b70003
:101e800010cfb300716a80000100e000ec003a005e
:101e9000116b80000100e000e9003a000060fe00e4
:101ea000d0d4200080c0eb0090cf1000030032009f
:101eb0007400400090cf10001a003a0090c0a800b3
:101ec000f00b2000c02288009823ef000060fe0085
:101ed00002322000c24088001a28ef00b314070025
:101ee0000468800015688000e4408800f5408800a0
:101ef0000000eb00706a88008040eb00c2d4200034
:101f0000004978000201e80001497800106b880060
:101f100073014100014978000201e800014978009d
:101f20004065880040d22000001907000004e0004e
:101f3000060032005a1407000060fe0000688000ae
:101f400011688000206988003169880040d1200034
:101f5000f61807000004e000060032000060fe00f2
:101f6000bc0c07000468800015688000a468880025
:101f7000b5688800b40907000004e00003003200df
:101f80005228ef0000c0eb00ad003700a0ca2000cf
:101f90001004e00016003200406580000000e00000
:101fa0001300320040d32000e01807000004e000d6
:101fb0000f00320090c0a800f00b2000c022880063
:101fc0009823ef00cefc0700b8ca200061c0b30020
:101fd00018407800100207000060fe00004ceb0083
:101fe0000000eb00406588008800e9008048780028
:101ff000ead7200089ca200040d72000fa1907003c
:10200000004478000804e000040032001a4178001f
:1020100061d720000180e9006b1207001900e00081
:1020200086003a000804e000f3ff3a0090c0a800e0
:10203000f00b2000c02288009823ef002e18070024
:10204000e2408000f340800000d020003002110008
:10205000a0821900c0408000d1408000800f520053
:10206000818f5a001a0039009403070010cc200019
:102070001004e00005003200800c20000100200068
:10208000006988001169880005003700401f2000a2
:102090000100200000698800116988004cff0700da
:1020a000e0cb200000c8eb000000eb00806a880055
:1020b000206b88000080eb008080eb00c04088002f
:1020c000d1408800e0408800f14088008cfc070087
:1020d0000060fe00c0d02000941807000004e0005b
:1020e00003003a00e0cb20001004e00011003200b1
:1020f0000060fe00170a070000be200035c0b300d4
:1021000090cf120004003a00406580000000e0001b
:1021100001003a0034020700e0cb20000048eb0049
:1021200077fc070000688000116880006068880004
:1021300071688800c0d320007c1807000004e0000c
:102140000300320000be20000048eb000000fe004b
:102150000060fe00c0d12000741807000004e000f9
:10216000200032007184200091407800f0ff2d00a3
:10217000a814070047e8ee00f0ca20001004e000b1
:1021800002003a0057a4ab00120032004648ec00af
:1021900046e8b70071ccb300814f50000d00360007
:1021a0006000b8006f0d070090c0a800f00b200081
:1021b000c02288009823ef00401f2000010020006b
:1021c0000069880011698800f0ca20000048eb000f
:1021d0004668ef000468800015688000e4688800a5
:1021e000f56888000060fe0040d020004f1807000e
:1021f0000004e0000700320021170700d0438800e8
:10220000e143880000688000116880002068880031
:10221000316888000040eb00c1ca200000c1eb001b
:10222000914f110006003a0004080700c0ca2000c0
:102230000048eb000040eb000100370000c0eb005d
:102240004f0578004f04be0000000600affd0700f8
:102250000004e000fdff3a00e862a900cb42a800bc
:10226000cba2a900e282a800e902a900e2c2a9006b
:10227000cb22a800cb82a900cbe2a800caa2a90069
:10228000e2a2a900cb02a800cb62a900cbc2a800a1
:10229000ca82a900f3fe0700ecff37000040eb0004
:1022a00051cd2000804878008100e9008048780006
:1022b0008180e80080487800f380500080487800f2
:1022c0008100e800804878008000eb0031668800db
:1022d00022cc2000014978006701410000497800c4
:1022e0000201e80000497800616688000281e90087
:1022f0000049780067014100004978000201e800c8
:1023000000497800916688000281e9000049780060
:10231000b2ce2000004978000201e90000497800af
:102320000281e800004978007301510000497800fb
:102330000201e80000497800e16688000281e900b6
:102340000049780067014100004978000201e80077
:1023500000497800116788000281e900004978008f
:1023600067014100004978000201e8000049780057
:10237000416788008280e9008048780080cf200093
:10238000a067880000000600881f78002a28ef0058
:1023900090c0a9005824ef009823ef006011b80006
:1023a0000520200006242400f70020000600370046
:1023b0000060fe0061014100e0814900860f51008c
:1023c000878f59003f003200a81680000882620003
:1023d000f7ff3200524180008042eb000543780055
:1023e000870220000004eb0001003700080178009c
:1023f0000504a2000582fb000a0037000201e80084
:10240000e10f410007003a005241880090c0a80047
:10241000f00b2000c02288009823ef00e0c0b3003a
:1024200029003700a3168000c919de00e181610090
:10243000848f5100f1ff320043fc2f008281410064
:10244000878f510002003600524188000400370097
:102450000643e800e44f5300e4ff3a002a28ef0067
:10246000d522ab001a003200e44f530018003a00a6
:1024700090c0a800f20b2000c22288009823ef0031
:1024800040419000e14f51000a00360012c0b300f5
:102490000060fe008281fb0031029000b0029000db
:1024a00065f279000241e800c041900082cf5100fe
:1024b000f7ff3e00010078006e0f07000040eb00c0
:1024c00001003700e0c0b3004f04780000000600b0
:1024d00090c0a800f00b2000c02288009823ef00d5
:1024e000e0c0b300f8ff3700e6874700889fbe00d2
:1024f0008a9fbe008e1f78000004be006e805700c9
:10250000000009000018eb000058eb000800be00b6
:102510009dff070080407800e0c0b3000104e000a8
:10252000a5003a00f0c0b300f1ccb300e28d20006a
:1025300092cf1000a000320050c0b30051cab300c7
:102540000201e90092cf10009b003200c8409000c9
:102550000108a300030032000060fe0020c0b300a9
:102560009500370020c0b300e1cf50009200360044
:10257000380090009045780010459000a0c0b3004e
:10258000a18d200012c0b300914f11008a003a00c3
:102590008100e800914f110087003a008100e800b7
:1025a000914f110084003a0030c0b300df120700e1
:1025b0008040780090c0b3000104e0007e003a0043
:1025c000484090000080fb000080e90022002000cd
:1025d000110009000200d8000042e80030c0b3003a
:1025e000e24f520074003e000404e0002500320077
:1025f0008a82fb0080406500a1f79f006e003200d8
:102600006e8757008040eb000600370082a9de008d
:10261000e3c16100036f78000281e8000304e00079
:10262000640032008140e800814f5200f7ff3e0015
:10263000e24f520006003a0030c0b300bff09700ee
:10264000aff1970081cf510060003a005a00370087
:10265000e34f52000b003a002ff19700bff19700b3
:1026600030c0b300834f510053003200cff09700c9
:1026700081cf510050003200814f510053003a0089
:102680004d00370050cd2000044878000000e900dc
:102690000a4878000080e8000048eb007300500012
:1026a00000c8eb000000e800aff097000148780098
:1026b0000080e8000008eb00e14f520011003600f6
:1026c0004f00370007487800de417800134098003b
:1026d000b8019000e3c27800c82add008181410082
:1026e00073fb97000683fb00e3014000850973003c
:1026f0000241e800660040008180e800824f5200fd
:10270000f0ff3e000440780023cc20008040eb0026
:1027100062c0b3000440bc00028141001141980036
:102720000040e800e34f5000f9ff3a00b0ca200033
:102730000b487800406580000000e00018003a0077
:102740000060fe0009007800ca0e07008042800089
:102750008000eb00c0698800d169880000688000b3
:1027600011688000a0698800b16988000060fe00df
:102770005055250040658800a0ca200000c8eb0025
:10278000dcfa07001d13070090c0a9005824ef00d1
:102790009823ef00d7fa07000040eb00060037004f
:1027a0001913070080ca20000008eb0080c0b300a6
:1027b0000100370030c0b3004f0778004f05be005e
:1027c0004f04be006f00b1000000060050cd200095
:1027d000044878000000e9000a4878000080e8001a
:1027e0000048eb007300500000c8eb000000e80058
:1027f000aff09700014878000080e8000008eb0087
:1028000090cc20006e8757003100200012c0b3002a
:1028100080c3eb00abff37001200fa007281570053
:10282000030009000019eb0072815700e2bf9f000e
:1028300000c1eb00e2ff9f000060fe00a2bc200090
:102840001281fb00023cb300cf91de00b2bf9f00bb
:10285000c3bf9f0042c1b300e2ef9f006fb9970072
:10286000104198006fb8970021409800a1cab300aa
:102870006fb897003140980040c0b300a0ff9f00a0
:102880000060fe006a8057007a0e07000080fa00a0
:1028900000000600889fbe008a9fbe00800478006a
:1028a0008105780002457800f8c0b300f0ccb30091
:1028b000e18d2000914f10004700320058c0b30056
:1028c00050cab3008100e900914f1000420032006d
:1028d00039009000104090008040e90038c0b300fb
:1028e000e2cf50003c003e00101207000044780088
:1028f0000804e00038003a00e24f550004003200be
:1029000051a52a00e44f55002e003a00010037007f
:10291000a1aa2a0040658000810f500004003a00ff
:10292000a0ca200080c0eb0090cf1000060032004b
:102930000060fe0071c0b3000a407800b6ff0700d7
:1029400080ca20000008eb00c9419000e1cf51008f
:102950000e0036003901900010ca20005242780063
:10296000904f520019003a008000780010c0b30068
:102970000300370052427800d14f520015003a0050
:102980000040e800834f5000faff390059fa070071
:10299000a0ca20000048eb000060fe000b00780099
:1029a000340e0700e24f550002003a00c1fa07005a
:1029b00009003700e44f550007003a0009fb070003
:1029c0000500370018c0b30003003700c8c0b300cb
:1029d00001003700c8c0b300084078004f05be00b2
:1029e0004f04be00000006001200fa00728057007b
:1029f000030009000018eb0072815700e2bf9f003e
:102a000000c0eb00e0ff9f000060fe00a0bc2000c3
:102a10001080fb00f003b2000034b300cf80de0072
:102a2000b0bf9f00c1bf9f00a0c9b300e0ef9f00ef
:102a3000f0cb20001004e00004003a000000e800a1
:102a40001004e00006003a0020003700c0cb200050
:102a50000048eb00640040001004e0000200320077
:102a6000d0cb20000048eb00c1cb20006680500096
:102a70009141780010c3710067004000630150006d
:102a80009041780012c27100630151009282fb00f4
:102a9000c22add00640141009281fb00c219dd0001
:102aa0000281e9009283fb00c23bdd000749780008
:102ab00085487300034872000040eb00e38040004b
:102ac000804878008100e80080487800c1cb200071
:102ad0006fb89700914078001140980080cb20009b
:102ae0008000e8009140780090c070006fb89700b7
:102af00021409800d1cb20006fb89700914078001a
:102b000031409800f08d20001004e00005003a00ec
:102b10000060fe0011c0b3006fb8970041409800fc
:102b2000040037000060fe008040eb006fb89700a3
:102b300041409800d18d20006fb8970091407800f7
:102b40005140980060c0b300a0ff9f006a8057000a
:102b5000c80d07000060fe000040eb0081cb2000a4
:102b6000804878008100e800804878000080fa0002
:102b700000000600800078004141900020c0b300b2
:102b8000e34f510024003a00310090009040900043
:102b90000141e90030c0b300e24f51001e003e0089
:102ba0008180fb000108a30004003a0090cd2000c2
:102bb0000048eb000040eb000700370090cd2000fc
:102bc00000c8eb0010c0b300a2cd2000004978007f
:102bd0000281e8000009eb000118a300090032009f
:102be000f1cd200080c8eb0022c0b3008100e800d6
:102bf000824878008180e8008008eb000040e8000f
:102c000002003700f1cd20008048eb00b1ce20005b
:102c1000804878000040eb0000000600a08d2000f6
:102c2000104178000000e8009040780090cd20002e
:102c30001004e0000d0032000000e80010407800b1
:102c4000e14f500006003200e24f50001e003a00f3
:102c5000a0c0b300e1cf5000040032001d003700d7
:102c6000a0c0b300e14f51001a003a00f0cd20009f
:102c70001004e0000e0032000000e8001040780070
:102c8000e14f500003003200e24f500010003a00c4
:102c900004003700a0c0b300e14f5100040032002f
:102ca0000c003700a0c0b300e1cf500009003a008b
:102cb00030c0b300b1ce20001104e00005003200a6
:102cc0000040eb000300370030c0b30001003700c4
:102cd00030c0b30000000600a08d20001041780035
:102ce0000000e8009040780090cd20001004e00043
:102cf0000d0032000000e80010407800e14f500065
:102d000006003200e24f50001e003a00a0c0b3009f
:102d1000e2cf5000040032001d003700a0c0b30015
:102d2000e24f51001a003a00f0cd20001004e000fc
:102d30000e0032000000e80010407800e14f500023
:102d400003003200e24f500010003a000400370048
:102d5000a0c0b300e24f5100040032000c00370065
:102d6000a0c0b300e2cf500009003a0030c0b30069
:102d7000b1ce20001104e000050032000040eb005d
:102d80000300370030c0b3000100370030c0b3008b
:102d900000000600889fbe008a9fbe008c1f78003e
:102da000800478000105780082457800f8c0b300ff
:102db000f0ccb300e18d2000914f10003a003200ba
:102dc00058c0b30050cab3008100e900914f100011
:102dd00035003200406580000000e0000400320051
:102de00080ca20000008eb0088c0b3002e00370026
:102df000090078005fff0700004478000804e00045
:102e000029003a003900900010409000c7100700d8
:102e1000004478000804e00023003a00e1cf5500a8
:102e200004003a007dff070000447800acaa2a00a5
:102e30000600370018c0b300e3cf55001a003a006f
:102e4000a5ff0700004478005ca52a000804e00004
:102e500015003a000060fe00494190000281fb002d
:102e6000b900900000ca200005f70700a0ca2000a2
:102e700000c8eb000a007800fe0c07004c658800d3
:102e8000b0ca20000b487800804280008000eb0030
:102e9000c0698800d16988000068800011688000de
:102ea000a0698800b1698800084078004f06780062
:102eb0004f05be004f04be0000000600889fbe0004
:102ec000806a8000a1aa2a00810f50000d00320004
:102ed0008044eb00094478005105b100810f500097
:102ee00010003a00894478000944780060cb200043
:102ef00011c0b30090cf10000a0032008144780066
:102f0000080037008044eb000944780060cb2000c3
:102f100021c0b30090cf1000020032008944780035
:102f200018c0b300206b8000a1aa2a00810f5000b6
:102f300006003a0070cb200021c0b30090cf1000f3
:102f40000a0032000844e8000800370051a52a00b2
:102f5000810f500005003a0070cb200011c0b30073
:102f600090cf1000010032008944e80060cf2000bb
:102f700000c8eb0068005000be0c07000804e00029
:102f800008003200b1c0b300b0ca20001040780081
:102f900021fe070021cbb30010cc200001487800af
:102fa0000c0037000904e00008003200b1c0b30093
:102fb000b0ca20001040780017fe070031cbb300e4
:102fc00010cc2000014878000200370010cc20000f
:102fd0000048eb004f04be00000006001200fa009b
:102fe000889fbe008a9fbe00f08057000300090042
:102ff0008018eb00f0805700e1b79f00a1bc2000d3
:103000001181fb00023cb300cf91de00b2b79f00fc
:10301000c3b79f0080c0eb00e1ef9f00300090003d
:1030200010449000a044900020c9b30080f79f0096
:10303000894f540027003e008ac0b3008045eb0052
:103040000060fe00808220000a4878006182200033
:1030500008407800de010700ef4f40000200320018
:10306000ed4f400005003a000060fe0021c0b300b3
:103070006fb0970010407800e7fd07006fb0970031
:103080001840980028c8ec00a0ef9f000b00320009
:103090000b4078008080fb006fb197000101410078
:1030a00033418000e3c17800234198000040e800ec
:1030b000afe8970080cf5000f6ff3e000060fe00b2
:1030c0007a8057006b0c07000844e80088cf540052
:1030d000dbff31004f05be004f04be000080fa0048
:1030e00000000600889fbe000004780038009000b1
:1030f00090447800f3cf5400b4003e004840900064
:103100000004e000b10032007ff807000004e00096
:1031100005003a003800900001c1b300104078006b
:10312000bdfd0700a9003700e5cf540020003e0098
:10313000f0ccb300e18d2000914f100005003a0063
:1031400038009000f1c0b30010407800b2fd0700d5
:103150009e00370050cab300d18d2000914f10005f
:1031600005003200c840900010c0b30080cf50006e
:1031700006003e000e0037003800900051c0b3003a
:1031800010407800a4fd0700900037000060fe00aa
:103190008080fb00b8019000a267800063f1780096
:1031a0000040e800c840900080cf5000f7ff3e008c
:1031b000a0bc20001080fb00003cb300cf80de00ec
:1031c0007067880081678800a06780008940780068
:1031d0000174a0000148780020cf2000c840900072
:1031e00001487800e4cf54003000320006003e0071
:1031f000e2cf5400150032001e003e00e1cf540023
:103200006d003a0007003700f1cf54003a00320059
:10321000f2cf540065003200e5cf540066003a005a
:103220002c00370012c0b300e1ce20000800780067
:10323000d8fe07000004e0006400320080407800ff
:1032400010c0b30074fd07006000370022c0b30057
:10325000e1ce2000080078008efd07000004e000a9
:103260005a0032008040780020c0b3006afd070099
:1032700056003700d0c0b300128e20001204e000c8
:1032800006003a0032c0b300e1ce2000080078000a
:10329000c0fe07000004e0004c00320080407800cf
:1032a00030c0b3005cfd07004800370042c0b300e7
:1032b000e1ce20000800780076fd07000004e00061
:1032c000420032008040780040c0b30052fd070049
:1032d0003e003700e1ce20000800780082fc0700a5
:1032e0000004e000390032008040780050c0b30094
:1032f00049fd0700350037000060fe00b80090006f
:10330000a067800091409000114098003800900024
:103310008080e800314188001040900061822000e8
:10332000fc000700e14f400006003a000060fe008c
:103330003800900011c0b3001040780036fd07003f
:10334000220037000004e000060032000060fe00aa
:103350003800900021c0b300104078002efd070017
:103360001a00370031418000a0678000914078004a
:103370002140980031418000a0678000914090007a
:1033800031409800818220009140780020cf2000b9
:1033900001c8e8000060fe0064005000b50b0700a3
:1033a000c0ca200000c8eb00080037000800780001
:1033b0000aff0700050037000060fe00380090009b
:1033c00011c0b3001040780013fd07004f04be0089
:1033d000000006003600f800809fbe00829fbe00fd
:1033e000849fbe00869fbe002a28ef0086e0a900c9
:1033f0004165800050552500808f50000600320046
:1034000090c0a800f00b2000c02288009823ef0095
:10341000fd0f07002d003700a0ca20001004e000b7
:1034200006003a0090c0a800f00b2000c0228800df
:103430009823ef00f40f070024003700504180006c
:103440008041eb00034278008002eb00010037006e
:10345000050078000304a2000381fb00050037008b
:103460000000e800e10f400002003a0050418800ef
:1034700016003700a1168000c908de00e180600058
:10348000828f5000f6ff3200fe005000f48f500093
:1034900002003600504188000c0037000442e8006a
:1034a000e44f5200eaff3a002a28ef00d522ab0091
:1034b00006003200e44f520004003a00d20f070029
:1034c000a0ca20000048eb009af707004f03be0097
:1034d0004f02be004f01be004f00be003600f90093
:1034e00000400600204190000204e0000700320086
:1034f0001001780091009000114978000060fe00f2
:1035000011c0b30021409800030037008040eb0059
:10351000214098000060fe0000000600204190005d
:103520000204e000070032009100900010017800d2
:10353000924878000060fe0011c0b300214098005e
:10354000030037008040eb00214098000060fe003f
:103550000000060020419000e14f51000b003600b2
:1035600091009000910078001001780001497800e6
:103570000060fe0010017800c808de0011419800cc
:1035800021c0b30021409800030037000060fe0016
:103590008040eb0021409800000006002041900090
:1035a000e14f51000b00360022c0b30022409800ca
:1035b00010007800104190000281fb000060fe00c6
:1035c0004811dd00910090001080fb008008710020
:1035d000030037000060fe008040eb0021409800af
:1035e000000006000400fa0020419000e14f510065
:1035f0000f003600910090001101be00e2bf9f0055
:10360000f3bf9f00658157008000eb0090017800b8
:103610005242780084f178000060fe008100e800ea
:10362000e48f5000f9ff3a00214098000300370072
:103630000060fe008040eb00214098000080fa000e
:1036400000000600881f78000004780028409000e1
:10365000e14f50000f0036001100900002002000e2
:10366000832c24001000be0087f4070016f4070026
:1036700098007800804878000060fe00980078008c
:103680004800de009040980020c0b300204498001d
:10369000030037000060fe000040eb00204498006b
:1036a0004f04780000000600889fbe0000047800e8
:1036b00028409000e14f50001100360018007800bb
:1036c00090419000c819dd001081fb0003007100db
:1036d0000060fe00910490008000eb0015f40700ec
:1036e000a2702d0033c2230067f40700808cbe0057
:1036f0000060fe0020c0b3002044980003003700a3
:103700000060fe000040eb00204498004f04be0023
:1037100000000600889fbe008a1f780081047800a0
:10372000439020008000eb000060fe000104780060
:10373000934f10001e003a0001407800a2c0b30071
:103740000440bc0040902000000541006a41b900df
:10375000e6004100608178008a0078000900780066
:1037600002000100a940900010cfb3000104e00066
:10377000140032000060fe006a40b9006804400096
:103780004090200060017c008a00780009007800e9
:10379000020001000060fe00a94090000040eb0024
:1037a0000104e00007003a0020cfb3000500370015
:1037b0008100e800ea814100fb8f5000daff3a0007
:1037c00000c0eb004f0578004f04be00000006006b
:1037d000881f78000104780001c4b300814f5000b5
:1037e0001d003e00439020008000eb000060fe00c2
:1037f00001027800934f100011003a000060fe00b3
:103800006a22b9006802420043902000014078001b
:10381000a2c0b3000440bc0083004100e3017a0071
:103820000800780003000100a84090000040eb0071
:103830000104e00024003a0010cfb300220037005a
:103840008100e800ea814100fb8f5000e7ff3a0069
:1038500020cfb3001c00370023a120008000eb0024
:103860000060fe0001027800934f100011003a0042
:103870000060fe006a22b9006802420023a1200015
:1038800001407800a2c0b3000440bc0083004100a6
:10389000e3017a000800780003000100a8409000ce
:1038a0000040eb000104e00007003a0030cfb30015
:1038b000050037008100e800ea814100f58f5000e3
:1038c000e7ff3a0040cfb3004f0478000000060045
:1038d00011c0b3004090200001487800e08720002c
:1038e0003048880022c2b30080902000024878004f
:1038f00041b521005148880020b22100604888006d
:103900000060fe0024c0b300e390200084497800ea
:103910002388200083488800239120008249780072
:10392000a1488800b048880034c0b300e681410057
:1039300084497800a3892000d3488800c3912000df
:1039400082497800f14888000049880044c0b300eb
:10395000e681410084497800238a200023498800b9
:1039600063922000824978004149880050498800cc
:1039700054c0b300e6814100844978006388200088
:103980007349880003932000824978009149880098
:10399000a04988000060fe0064c0b300e6814100d9
:1039a00084497800a3882000c3498800a39320009d
:1039b00082497800e1498800f049880074c0b3006a
:1039c000e681410084497800a38a2000134a8800d8
:1039d0004394200082497800314a8800404a880098
:1039e0000060fe0084c0b300e68141008449780095
:1039f000238b2000634a8800e394200082497800ea
:103a0000814a8800904a880094c0b300e681410052
:103a100084497800e3882000b34a88008395200019
:103a200082497800d14a8800e04a88000060fe00a0
:103a3000a4c0b300e68141008449780023892000b6
:103a4000034b88002396200082497800214b880090
:103a5000304b8800b4c0b300e6814100844978004f
:103a6000a38b2000534b8800c39620008249780026
:103a7000714b8800804b88000060fe00c4c0b3001a
:103a8000e681410084497800238c2000a34b880004
:103a90006397200082497800c14b8800d04b880092
:103aa000d4c0b300e681410084497800638c2000d3
:103ab000f34b88000398200082497800114c88005d
:103ac000204c88000060fe00e4c0b300e6814100a5
:103ad00084497800a38c2000434c8800a3982000e0
:103ae00082497800614c8800704c8800f4c0b300b3
:103af000e681410084497800838e2000934c880041
:103b00004399200082497800b14c8800c04c88005d
:103b10000060fe0003c1b300a4992000034a7800ae
:103b2000c48e2000e44c8800e4992000024a78000a
:103b3000014d8800104d880015c1b3006602420097
:103b4000054a7800048f2000344d8800849a2000b4
:103b5000024a7800514d8800604d88000060fe00e8
:103b600021c1b300660042000148780000852000b2
:103b7000804d880002c1e9006a00420002487800d6
:103b8000e1ac2100a14d8800a0aa2100b04d880021
:103b900035c1b30070024200054a7800e484200079
:103ba000d44d8800c49b2000024a7800f14d880063
:103bb000004e88000060fe0041c1b3006600420074
:103bc00001487800208e2000204e88006a004200c4
:103bd00003487800e1a82100414e880020a7210079
:103be000504e880054c1b300c29c200004497800a4
:103bf000528e2000724e8800029d200003497800fa
:103c0000914e8800a04e88000060fe0064c1b300a1
:103c10006601410004497800328e2000c24e8800bf
:103c2000a29d200003497800e14e8800f04e8800f4
:103c300074c1b3006601410004497800628e20001f
:103c4000124f8800429e200003497800314f8800bf
:103c5000404f88000060fe0084c1b300660141004f
:103c600004497800428e2000624f8800e29e2000c6
:103c700003497800814f8800904f880094c1b300b9
:103c80006601410004497800728e2000b24f88001e
:103c9000829f200003497800d14f8800e04f8800c0
:103ca0000060fe00a4c1b300660141000449780031
:103cb000028e20000250880022a0200003497800d4
:103cc0002150880030508800b4c1b3006601410023
:103cd00004497800c282200052508800c2a020000f
:103ce0000349780071508800805088000000060069
:103cf0000060fe0011c4b30020a12000014878003c
:103d0000e0852000a0508800ffc0500060a1200086
:103d1000014878000000eb00c050880022b221006a
:103d2000d250880024c4b300c3a120008449780085
:103d300023862000f350880003a2200081497800e8
:103d400010518800225188000060fe000442e80003
:103d5000e681410084497800638620004351880051
:103d6000a3a2200081497800605188007251880028
:103d70000442e800e681410084497800a3862000df
:103d80009351880043a3200081497800b0518800f6
:103d9000c25188000442e800e6814100844978006d
:103da000a3872000e3518800e3a320008149780025
:103db0000052880023af2100135288000060fe00eb
:103dc0000442e80043a4200084497800e38c2000ea
:103dd0003352880004c2b30083a4200084497800d1
:103de00050528800a3aa21006352880076c4b30011
:103df000e5a42000864a7800058d200085528800c1
:103e000025a52000844a7800a0528800b35288007b
:103e10000060fe000643e800e6824200864a780021
:103e2000258d2000d5528800c5a52000844a780041
:103e3000f0528800035388000643e800e6824200ff
:103e4000864a7800458d20002553880065a620000d
:103e5000844a780040538800535388000060fe0075
:103e60000643e800e6824200864a7800658d20001d
:103e70007553880005a72000844a78009053880075
:103e8000a35388000643e800e6824200864a780091
:103e9000858d2000c5538800a5a72000844a78009e
:103ea000e0538800f35388000060fe00c4c4b300f0
:103eb000e681420084497800a38d200013548800d5
:103ec00004c1b300ea81420084497800305488007c
:103ed00023a721004354880006c3e800f082420073
:103ee000864a7800b58d200065548800e5a820003a
:103ef000844a780080548800935488000060fe0053
:103f00000643e800e6824200864a7800c58d20001c
:103f1000b554880085a92000844a7800d0548800d0
:103f2000e35488000643e800e6824200864a7800af
:103f3000d58d20000555880025aa2000844a7800e8
:103f400020558800335588000060fe000643e800d5
:103f5000e6824200864a7800e58d200055558800ab
:103f6000c5aa2000844a78007055880083558800cf
:103f70000643e800e6824200864a7800f58d20007c
:103f8000a555880065ab2000844a7800c05588009c
:103f9000d35588000060fe000643e800e682420038
:103fa000864a7800058e2000f555880005ac200073
:103fb000844a7800105688002356880034c5b30020
:103fc000e681420084497800e38620004356880059
:103fd000ea81420081497800605688007256880064
:103fe0000442e800e68141008449780023872000ec
:103ff00093568800f481420081497800b0568800c9
:10400000c25688000442e800e681410084497800f5
:1040100063872000e3568800fe81420081497800d2
:104020000057880012578800000006000400fa00bc
:1040300020419000e14f51000d00360090017800c2
:10404000658157000f02e90033697800840f510041
:10405000fdff3a00910090006fb99700ffb99700fb
:104060008288be0041c0b3002140980003003700a1
:104070000060fe008040eb00214098000080fa00c4
:10408000000006000200fa00889fbe008a9fbe0062
:10409000010478008000eb00b1bf9f000060fe00cb
:1040a0000085fb004255dd0002102f00f3072000c1
:1040b0004fd0de00020545008305480028409000ef
:1040c0000004e000160032008044eb000060fe00b7
:1040d0000980fb008000eb000000450081804d005e
:1040e0006a8157000c1107000980fb0098007800d6
:1040f0006ff1970082707800a84090000108a3003b
:1041000003003a0018004000fff0970011409800ab
:1041100089c4e80028409000894f5000ebff3e0022
:104120004f05be004f04be000080fa0000000600ec
:104130000400fa00889fbe008a9fbe000104780038
:104140008000eb00a1bf9f00b1bf9f000060fe0098
:104150000085fb004255dd0002102f00f307200010
:104160004fd0de000205450083054800284090003e
:104170000004e000200032008044eb000060fe00fc
:10418000284090000008a30008003a000980fb00c6
:104190008000400018004000104090000080fb00ac
:1041a000800178006c81570003b178000980fb0022
:1041b00000014000ec805700028140009800780028
:1041c000e14078008180fb00120078004800dd00ab
:1041d000008970000980fb008000eb0000004500b2
:1041e00081804d009710070089c4e80028409000a6
:1041f000894f5000e1ff3e004f05be004f04be0056
:104200000080fa000000060090c0a9005824ef00ca
:104210009823ef000060fe0000017800c0ff2f002f
:10422000f10720008710070090c0a800f00b2000c5
:10423000c02288009823ef00000006000200fa0068
:10424000889fbe008a9fbe008c9fbe000000eb00ce
:1042500090bf9f00489020000005eb0019c0b300fc
:10426000080678008046eb000060fe009845780064
:1042700089cf550023003a00c84090008180fb00a0
:10428000c408de00814178000283200003497800e1
:104290000060fe006a51b9008200460048019000ab
:1042a000e0822000020001003048e20015003200e8
:1042b000e18220000b4078009dff0700e182200092
:1042c0000b4078006fff07000060fe003048e200fe
:1042d0000c0032000d4078000060fe008080fb0082
:1042e00072418000e2c078008180fb001fb9970016
:1042f0000101410092bf9f000040e8003048e30008
:10430000f5ff3e008944e8000a05e8006a0444001d
:10431000fccf5400d4ff3a006e805700baff07006c
:104320004f06be004f05be004f04be000080fa00dd
:104330000000060090c0a9005824ef009823ef0069
:104340000060fe0000017800c0ff2f00f107200090
:104350007110070090c0a800f00b2000c022880058
:104360009823ef0000000600e4874700889fbe0006
:104370008a9fbe008c9fbe008e1f78000000eb005d
:1043800080bf9f00489020006055b80019c0b3005e
:10439000880678000047eb000060fe0018407800b7
:1043a000894f50001a003a00c84090008180fb00fd
:1043b000c408de00814178000283200003497800b0
:1043c000e18220002fff07000060fe006a58b9005c
:1043d0008080460038019000e08220000200010049
:1043e0003048e2000a0032000e4078000060fe0013
:1043f0008080fb0072418000e2c078008180fb0079
:10440000010545000040e8003048e300f7ff3e00aa
:104410008944e8008b05e8006a044400fccf54009e
:10442000ddff3a000060fe0070805700c1ff07000a
:104430000fb897008a0f500003003a000060fe009a
:104440000040eb00020037000060fe0000c0eb00ff
:104450004f0778004f06be004f05be004f04be0058
:104460004f00b10000000600881f78006085200022
:104470007041880080c0b30030e8b7000060fe00e3
:10448000e28c200020002f00f10720003f100700e1
:10449000028d200040002f00f10720003b10070094
:1044a000228d200060002f00f10720003710070048
:1044b000428d200080002f00f107200033100700fc
:1044c0000004eb00b8468800c84688006000b800c9
:1044d0005043880061438800690e0700d04388007c
:1044e000e14388000060fe000040eb00a18d200049
:1044f000884878008100e800804878008100e80062
:10450000804878000060fe008100e8008048780064
:104510008100e800804878008100e8008048780049
:104520008180e80080487800e9fc0700f0fd070082
:104530000060fe008cff07000004e0004000320035
:1045400040062000010020000069880011698800f1
:1045500000002000010c24003046880041468800fd
:10456000d0cc2c00c102240050468800614688004f
:104570000060fe000000200001372400f0438800a6
:1045800001448800000020001137240030448800d6
:104590004144880000002000213724007044880036
:1045a000814488000000200041332400104488002a
:1045b00021448800a09921005133240050448800f0
:1045c000614488000000200061332400904488008a
:1045d000a14488000000200001f823004047880023
:1045e00051478800604788007147880080478800ed
:1045f0009147880020c3b300218e200080487800b6
:104600008100e800804878008100e8008048780058
:10461000e0c1b3008100e800804878008100e80034
:10462000804878008100e8008048780080bb200046
:104630007042880080428800a0c0b3002ce8b70018
:104640004f047800000006000060fe0090428000e9
:1046500061a22a00810f50008a00320007003e004c
:104660008180e900810f5000560032008100e8008f
:10467000810f5000b3003a006600370051a52a00b0
:10468000810f5000270032005105b000810f50000b
:10469000040032003108b100810f5000a9003a0037
:1046a0008c0037000060fe00f0c3b300e18d2000f5
:1046b000914f100018003a0030c0b3009b0a070069
:1046c0000004e00014003a000af307000060fe0056
:1046d000208e20009080fb000040eb000df40700ce
:1046e000308e20009080fb0010c0b30009f407005a
:1046f00020c0b300b1ca2000804878000060fe00ee
:1047000081cb2000804878008100e8008048780054
:1047100000c0eb008e0037005228ef0000c0eb0015
:104720008b0037000060fe00108e200080c0eb0080
:1047300090cf100003003a005228ef000040eb0039
:1047400083003700f0c3b300e18d2000914f1000cb
:1047500019003a0030c0b300740a07000004e000fa
:1047600015003a00e3f207000060fe00508e2000c2
:104770009080fb000040eb0025f40700608e2000d5
:104780009080fb0010c0b30021f4070041c0b300cb
:10479000b0ca2000014878000060fe0010c0b300dd
:1047a00081cb2000804878008100e80080487800b4
:1047b00000c0eb00660037005228ef0000c0eb009d
:1047c000630037000060fe0010c0b300570a070006
:1047d0000004e0000c003a00c6f20700208e200022
:1047e0009080fb000040eb00caf3070020c0b3003c
:1047f00081cb200080487800b1ca20008048780032
:1048000000c0eb00520037005228ef0000c0eb0060
:104810004f0037000060fe00108e200080c0eb00cb
:1048200090cf100003003a005228ef000040eb0048
:104830004700370010c0b3003c0a07000004e00046
:104840000d003a00abf20700508e20009080fb0074
:104850000040eb00eef3070011c0b30080cb200056
:104860000148780041c0b300b0ca20000148780078
:1048700000c0eb00360037005228ef0000c0eb000c
:10488000330037000060fe0020c0b300270a070095
:104890000004e0000c003a0096f20700308e200081
:1048a0009080fb0010c0b3009af3070020c0b30053
:1048b00091cb200080487800b1ca20008048780061
:1048c00000c0eb00220037005228ef0000c0eb00d0
:1048d0001f0037000060fe00108e200080c0eb003b
:1048e00090cf100003003a005228ef000040eb0088
:1048f0001700370020c0b3000c0a07000004e000d6
:104900000d003a007bf20700608e20009080fb00d3
:1049100010c0b300bef3070011c0b30090cb20005d
:104920000148780041c0b300b0ca200001487800b7
:1049300000c0eb00060037005228ef0000c0eb007b
:10494000030037006ef207000060fe000040eb003d
:10495000000006000200fa00d1090700a08d200027
:1049600010407800e0ff9f00b08d200010407800dc
:10497000f0ff9f00c18d2000804878000060fe009d
:104980006ff89700e24f500005003200e34f5000ef
:1049900039003200e14f500046003a001b0037005a
:1049a0000041eb00f1ff2e0000102000b30a0700c9
:1049b00000c1eb00f1df2f0000802000af0a0700ec
:1049c00000c1eb00f1fd2f0040002000ab0a070002
:1049d00021c0b300f08d20000148780020cbb30047
:1049e00011cc2000914f100032003a00401f2000ef
:1049f00001002000006988001169880010cc2000a7
:104a00000048eb003ef207002a00370000c1eb002f
:104a1000f1ff2e0000102000980a07000041eb0073
:104a2000f1df2f0000802000940a070000c1eb0096
:104a3000f1fd2f0040002000900a070011c0b300d4
:104a4000f08d20000148780030cbb30011cc20005d
:104a5000914f100017003a00401f20000100200075
:104a6000006988001169880010cc20000048eb0024
:104a700023f207000f00370000c1eb00f1ff2e000a
:104a8000001020007d0a070000c1eb00f1df2f00bd
:104a900000802000790a07000041eb00f1fd2f00a3
:104aa00040002000750a070031c0b300f08d2000df
:104ab00001487800a0cb200010407800e24f500061
:104ac00011003200e34f50001c003200e14f500053
:104ad0001e003a0000c1eb00b1ff2f0010002000c3
:104ae000660a0700f08d200031c0b30090cf10009f
:104af0001600320000c1eb00f1fd2f004000200045
:104b00005e0a0700110037000041eb00b1ff2f00e3
:104b100010002000590a0700f08d200031c0b300ba
:104b200090cf10000900320000c1eb00f1fd2f0012
:104b300040002000510a0700040037000041eb004c
:104b4000f1fd2f00400020004c0a07000060fe002d
:104b50007ff89700e24f500030003200e34f5000e2
:104b600003003200e14f500046003a0010003700c9
:104b700000c1eb00f17f2f00004020003f0a07003a
:104b800000c1eb00f1f72f00000022003b0a0700f4
:104b90000041eb00f1fe2f0000012000370a070062
:104ba00031c0b300f08d2000014878003500370097
:104bb00000c1eb00f17f2f00004020002f0a07000a
:104bc0000041eb00f1f72f00000022002b0a070044
:104bd00000c1eb00f1fe2f0000012000270a0700b2
:104be00011c0b300f08d20000148780030cbb30035
:104bf00011cc2000914f100022003a00401f2000ed
:104c000001002000006988001169880010cc200094
:104c10000048eb00baf107001a0037000041eb0032
:104c2000f17f2f0000402000140a070000c1eb00b4
:104c3000f1f72f0000002200100a070000c1eb006e
:104c4000f1fe2f00000120000c0a070021c0b30074
:104c5000f08d20000148780020cbb30011cc20005b
:104c6000914f100007003a00401f20000100200073
:104c7000006988001169880010cc20000048eb0012
:104c80009ff10700b0cb200010407800e24f5000a9
:104c90000a003200e34f500003003200e14f5000a1
:104ca0001f003a00120037000041eb00f1fe2f0018
:104cb00000012000f1090700190037000041eb0056
:104cc000d1ff2f0020002000ec090700f08d20000c
:104cd00031c0b30090cf10001100320000c1eb00d2
:104ce000f1fe2f0000012000e40907000c0037004e
:104cf00000c1eb00d1ff2f0020002000df090700da
:104d0000f08d200031c0b30090cf100004003200bd
:104d100000c1eb00f1fe2f0000012000d7090700c1
:104d20000060fe00b08d200010407800e14f500080
:104d300011003a00a08d200011c0b30090cf1000e8
:104d400020003a000080e80090cf10001d003a00db
:104d50000041eb00f1ff270000202000c7090700f9
:104d600000c1eb00f1ff2b0000082000c309070081
:104d70000060fe001b003700e24f500011003a00b7
:104d8000a08d200021c0b30090cf10000d003a008c
:104d90000080e80090cf10000a003a000041eb00cc
:104da000f1ff2b0000082000b409070000c1eb0050
:104db000f1ff270000202000b00907000060fe007e
:104dc0000800370000c1eb00f1ff270000202000a1
:104dd000aa09070000c1eb00f1ff2b00000820002a
:104de000a60907000080fa000000060000da200093
:104df00011c1b30090cf10000400360011cab300f7
:104e0000d08d2000014878000300370051cab3005c
:104e1000d08d20000148780000da20000048eb0027
:104e20000000e80011c1b30090cf1000040036006c
:104e3000f1ccb300e08d200001487800030037007a
:104e4000f1c3b300e08d20000148780010da2000a3
:104e50000048eb000000e80011c1b30090cf100043
:104e600003003600108e200000c8eb00020037005f
:104e7000108e20000048eb0020da20000048eb00f4
:104e80000000e80011c1b30090cf10000700360009
:104e90000000e80090cf10000c003e0021c0b300dd
:104ea000a08d2000014878000b00370040da200078
:104eb00011c1b30090cf10000400360011c0b30040
:104ec000a08d2000014878000300370031c0b300f6
:104ed000a08d2000014878000040eb0031da20006e
:104ee000804878008100e800804878000100e800f0
:104ef00011c1b30090cf1000070036000000e80099
:104f000090cf10000c003e0021c0b300b08d2000f7
:104f1000014878000b00370060da200011c1b300af
:104f200090cf10000400360011c0b300b08d2000f7
:104f3000014878000300370031c0b300b08d200075
:104f4000014878000040eb0051da200080487800ea
:104f50008100e80080487800b18d20000100e80061
:104f60001148780000000600e7f007008040780054
:104f70000040eb000104e0009800320070da2000ed
:104f800011c1b30090cf1000210036000000e800ee
:104f900090cf10000b0036000040eb0071da2000cb
:104fa000804878008100e8008048780030c0b30075
:104fb000a18d2000804878008100e80080487800ba
:104fc0002a0037000040eb0071da200080487800aa
:104fd0008100e80080487800a08d200012c0b30056
:104fe000904f110008003a000000e800904f1100b7
:104ff00005003a000000e800904f110002003a005e
:10500000a0aa2a009042880052c8bf00730037004f
:1050100080da200011c1b30090cf100013003600d9
:105020000040eb0071da2000804878008100e80041
:1050300080487800a08d200022c0b300904f11005e
:1050400008003a000000e800904f110005003a0007
:105050000000e800904f110002003a0050a52a001d
:105060009042880052c8bf005c00370090da2000f0
:1050700011c1b30090cf1000190036000000e80005
:1050800090cf1000090036000040eb0091da2000bc
:10509000804878008100e8008048780031c0b30083
:1050a000a08d2000014878001e0037000040eb0072
:1050b00091da2000804878008100e800804878007c
:1050c000a08d200012c0b300904f110002003a00e2
:1050d00040a22a009042880052c8bf003f0037001b
:1050e000a0da200011c1b30090cf10000d003600ef
:1050f0000040eb0091da2000804878008100e80051
:1051000080487800a08d200022c0b300904f11008d
:1051100002003a0050a22a009042880052c8bf0004
:105120002e003700b0da200011c1b30090cf10007c
:105130001a0036000000e80090cf10000a00360088
:105140000040eb00b1da2000804878008100e800e0
:105150008048780031c0b300b08d2000014878004d
:105160000040eb001d0037000040eb00b1da2000ea
:10517000804878008100e80080487800b08d2000e9
:1051800012c0b300904f110002003a0060a22a0042
:105190009042880052c8bf00100037000040eb006a
:1051a000c1da200012c1b300914f11000b0036008c
:1051b0008100e900804878008100e800804878009c
:1051c000b08d200021c0b30090cf100002003a0043
:1051d00070a22a009042880052c8bf00000006005a
:1051e000a08d200010407800e1d92000914f1000e0
:1051f0000900320061cb200080487800e1d920000e
:105200008048780000c0eb00e1cb200080487800a7
:105210008100e80080487800b08d200010407800c0
:10522000f1d92000914f10000900320071cb20000d
:1052300080487800f1d920008048780000c0eb0059
:10524000e1cb2000804878008100e80080487800a9
:10525000000006003e08070090418800a141880038
:105260003668ec0090418000a14180000148a30015
:105270000200320000da20001048e800904180006f
:10528000a14180000168a3000200320010da200072
:105290001048e80090418000a14180000128a3004f
:1052a0000200320020da20001048e800904180001f
:1052b000a14180000178a3000200320030da200012
:1052c0001048e80090418000a14180000158a300ef
:1052d0000200320040da20001048e80090418000cf
:1052e000a14180000138a3000200320050da200002
:1052f0001048e80090418000a14180000118a300ff
:105300000200320060da20001048e800944180007a
:10531000a5418000050178000240a1008001eb005a
:10532000c010dd00000020006121b8000200700004
:105330008380700090418800a14188000060fe00d9
:1053400090418000a14180004200200023062000ff
:1053500000026100018161008001eb00c010dd00ee
:10536000000020006121b8000200700083807000fe
:105370004200200023022000820f5000838f58003b
:1053800002003a0070da20001048e80090418000e6
:10539000a141800012002000c30c20000002610027
:1053a000018161008001eb00c010dd0000002000e1
:1053b0006121b8000200700083807000120020009c
:1053c00083082000820f5000838f580002003a00ab
:1053d00080da20001048e80092418000a34180005c
:1053e0000000200011062000038160008001eb0016
:1053f000c011dd0002002000800f5100818f590094
:1054000002003a0090da20001048e8009041800045
:10541000a141800002002400430c20000002610032
:10542000018161008001eb00c010dd000000200060
:105430006121b80002007000838070000200240027
:10544000030c2000820f5000838f580002003a00a6
:10545000a0da20001048e80092418000a3418000bb
:10546000000021002104200002036000038260008c
:105470008002eb00c021dd00020020006132b80094
:105480000401710085817100800f5100818f5900e6
:1054900002003a00b0da20001048e8009041800095
:1054a000a141800002402000c304200000026100ee
:1054b000018161008001eb00c010dd0000002000d0
:1054c0006121b8000200700083807000024020005b
:1054d00083042000820f5000838f580002003a009e
:1054e000c0da20001048e80036c8bf00fd4f500069
:1054f000060036003668ef003cfe07009afe070003
:105500000004e00001003a0035ff0700000006003b
:105510005164a800f0f32f005224b60000fc2f00c5
:105520005204b6000020a000902288000060fe0017
:1055300070fc2f005404b6000030a000a0228800a8
:1055400054e4a80054c4a90080ff2f005404b600fe
:105550000000a000a02288000060fe00f08f2f0055
:105560005404b6000090a000a022880000000600ad
:105570004e24ef004e04a9000060fe00f003a900d5
:10558000100190004511de004211dd0030002e00b8
:10559000841f80008401600083017100831f8800e4
:1055a000c003a90091009000c508de00c208dd001c
:1055b000c003b60000807000001e880000000600d6
:1055c0003e24ef0082ff2f00f321800003016100e1
:1055d0000210a000f22188000060fe00f803a8007d
:1055e00090019000c519de00c219dd0032002e00c6
:1055f000c51f80000502610004827100c41f88007d
:1056000090017800c919de00100290007f0262004c
:105610004722dd0004827100d41f880090017800c9
:10562000c319de00ca19dd00f03f2000e51f80002d
:105630000502600004827100e41f88000060fe0023
:10564000d003a80091019000c519de00c219dd0049
:10565000841e80000401610002817100821e8800a6
:10566000110178004911de0091019000ff81610075
:10567000c719dd0083017100931e88009100780036
:10568000c308de00ca08dd00d403b6000080700045
:10569000a01e880000000600889fbe008a1f7800b8
:1056a00080047800010478000060fe005624ef00ba
:1056b00088c0a900f00f2000c022880090c0a80078
:1056c0000060fe00fa8f2f0081228000010065003b
:1056d00000a0a000802288008dff070088007800cd
:1056e00009007800a2ff0700880078000900780010
:1056f000b3ff07000060fe00802280000005650007
:105700000a90a0008a2288000004eb00090e200005
:105710000a042000090037000060fe00800220001b
:1057200001002000030d07000060fe00903e2000f5
:10573000800f5400070032000804e8008122800036
:10574000018064008a0f5000f3ff3a00a00a200095
