:020000040000fa
:080000000001040000000000f3
:020000040000fa
:10000800f2010000d2010000d6010000da01000070
:10001800de010000f2010000f2010000f201000020
:10002800f2010000f2010000f2010000f2010000fc
:10003800f2010000f2010000564f00006e160000a9
:10004800f201000096500000b6500000f2010000d6
:10005800f2010000f2010000f2010000f2010000cc
:10006800f2010000f2010000f2010000f2010000bc
:10007800f2010000f0160000f201000096280000ce
:10008800f2010000f2010000f2010000f20100009c
:10009800f2010000f2010000f2010000f20100008c
:1000a800f2010000f2010000f2010000f20100007c
:1000b800f2010000f2010000043d0000f20100001e
:1000c800f2010000f2010000f2010000f20100005c
:1000d800f2010000f2010000f2010000f20100004c
:1000e800f2010000f2010000f2010000f20100003c
:0800f800f2010000f20100001a
:020000040000fa
:10010800f2010000e2010000e6010000ea0100003f
:10011800ee010000f2010000f2010000f20100000f
:10012800f2010000f2010000f2010000f2010000fb
:10013800f2010000f2010000564f00006e160000a8
:10014800f201000096500000b6500000f2010000d5
:10015800f2010000f2010000f2010000f2010000cb
:10016800f2010000f2010000f2010000f2010000bb
:10017800f2010000f0160000f201000096280000cd
:10018800f2010000f2010000f2010000f20100009b
:10019800f2010000f2010000f2010000f20100008b
:1001a800f2010000f2010000f2010000f20100007b
:1001b800f2010000f2010000043d0000f20100001d
:1001c800f2010000f2010000f2010000f20100005b
:1001d800f2010000f2010000f2010000f20100004b
:1001e800f2010000f2010000f2010000f20100003b
:0801f800f2010000f201000019
:020000040000fa
:10020000cfee20000e7f22000e01880000000000cb
:10021000000020000000e000020032000001200089
:10022000200288000c000700c0f624000100200016
:1002300011000700000020000000e0000200320072
:100240000000020000000000b051020000000000a9
:100250000040da000000fe004440a9008020200099
:100260000000e0000300320000002000a001880030
:100270004440a8000000060091018800800078003a
:100280000000eb0015003700e280400032a0b4000f
:100290009101ba00e280400032a0b4009102ba009d
:1002a000e280400032a0b4000002eb00472bde00e9
:1002b000f507b200602ce10004003a000059eb00a1
:1002c0008301e900fdff3e00040037006128e100e2
:1002d000010032000082eb00040007001101ba00a7
:1002e0000200e000e8ff3a00000006003159ba00c1
:1002f0008301e9000c0032002159ba008301e900b2
:10030000080032000400e00003003a00e2804000f0
:1003100032a0b400f5ff370011d9ba008301e9001b
:10032000faff3a008100e800e180400032a0b4000a
:10033000000006000e2a040000000000dc29040072
:100340000000000088290400000000006429040067
:100350000000000048290400000000002c290400cf
:1003600000000000ac290400000000001616040084
:10037000000000000e15040000000000be1504007f
:1003800000000000b6140400000000006615040020
:10039000000000005e140400000000002c140400a3
:1003a000000000008020a900ffff37008060a90046
:1003b000ffff37008040a900ffff37008080a900c1
:1003c000ffff37008020a900ffff37008060a900f1
:1003d000ffff37008040a900ffff37008080a900a1
:1003e000ffff37000040da000000fe003200f80096
:1003f000910188000008bb00410424006210e10064
:1004000004003200000220000010e1000a003a005f
:1004100051042400013b88000500fc005105200028
:10042000313b8800a10a2000313b880061e7a80029
:1004300000000000000000003200f900000006008b
:100440003200f80060042400003b8800f2ff37000f
:100450003200f8009101880041002400013b88002f
:100460000208bb00ecff37003200f8009101880061
:1004700051002400013b8800030120003218bb001a
:100480008301e900fdff3a00e3ff37003200f80086
:10049000910188008002780062004000e0804800fe
:1004a0003549ba003204e0000410a7001000320001
:1004b0008301e9000e0032002549ba003204e00051
:1004c0000410a7000a0032008301e900080032008e
:1004d0000408a300eeff320015c9ba003204e000a0
:1004e0000410a700020032008301e900e8ff3a008f
:1004f0003200f9000000060003f0a200889fbe0051
:100500008a9fbe008c1f7800b5000700bc00330036
:100510006450e1004f0032006420e10052003200dc
:1005200003826c0007003b000905d0000306d000e1
:10053000820f54000c065d000200390002003200f8
:1005400089017800030678008582550004003d008b
:100550000003fd008103fd008502ea008b85420057
:10056000840f720002003b0060001000e080180061
:100570006011b8000005eb007a28e1000a0039009c
:1005800006007800c75ddd00f707b20087807500c0
:100590002d003700828171000a017800610560003a
:1005a0008180d1000080d3008502e900f9ff3b0083
:1005b000060440008784480002003b0060041400e9
:1005c000e0841c000988a300070032008a817100c2
:1005d00082817100610164008904d1000884d30024
:1005e0008b05e800170037000978a30013003a00d4
:1005f0000b00e000130034008b05e9000804440000
:1006000089844c000a4474000978a3000d003a0064
:100610000b00e000070034008b05e90008044400eb
:1006200089844c0001003a000b0020000978a300e7
:10063000f7ff32000001eb000200370082817100f9
:100640000a0178002b0007000cf0a70001f0a000c1
:10065000740037006420e10002003a00838f6c00d0
:10066000740033000801be000200be006d003700b8
:1006700014002000a6003700f4ff2f00a40037006c
:100680000001be00410007000470a70003f0a100b4
:1006900003f8a30013003a006509b100100032000e
:1006a000090035006928e10002003500010028003a
:1006b0000000050000004000818048008502e9003c
:1006c000fcff3a0000000600f88f420005003500ec
:1006d0008100d1000080d3008502e800fcff3a00d1
:1006e000000006008000eb00000005006011b8006b
:1006f000a200370081002000618055000b003d0002
:100700000b00200061fe2f000100e1001d003400fd
:1007100082817100610164008904d1000884d300e2
:100720000000e800faff3a00710020006100640058
:100730000300700002006000090032006104440000
:10074000e0844c000988a500050032008b05e80014
:100750006808e10002003a008904d1000884d3004f
:10076000f20f20000258e10005003d00c75ddd00ea
:10077000f907b200898075000800780000000600c3
:100780000bf827008b00780000000500c70ade0088
:10079000f107b200f50fb20008003200e1cf4200cd
:1007a000020032000170a00024000500810f7000db
:1007b000010032000408050044000500810f7000ac
:1007c00002003a00140005008502e9000000400024
:1007d00081c04800fcff3b000170a0002400050020
:1007e0000004be00e9ff07000003be000405be00d0
:1007f0000200be00e5ff0700844f75000000060000
:100800000200be006450e100050036006420e100f3
:10081000020036000968a30001003a000800be008b
:100820000160a0004f0678004f05be004f04be00d7
:1008300000000600f0ff2f00f1ff2700f9ff37004e
:10084000889fbe008a9fbe008c1f7800e4ff0700cf
:10085000ebff330003866c006450e100240032009b
:100860006420e100270032006150e10022003200e4
:100870006120e100210032008b854200eb07b100ce
:100880000134b800003ab8000804420089844a00e4
:10089000013ab8000030b8008880400009014a00e1
:1008a000040033000000400081804800020149003c
:1008b0008b05e900c909dd008301700001003200e9
:1008c00013002000c814de004814dd004709de00d4
:1008d0001200b200c808de000884700085ff07001f
:1008e00001f0a1000cf0a70001f0a000cdff37003f
:1008f0006120e100cfff32000801be000200be000f
:10090000f7ff37006150e100fcff3a00c9ff3700f4
:10091000889fbe008a9fbe00841f7800b0ff07003a
:100920004f00780011003300f0ff2f00838f6c0020
:1009300006003b00040565000a00a7000800370018
:1009400009f0a6001000200008003700820f5400b4
:10095000838f5c00030039001000200001003e007e
:100960000000200009f0a7000000ea004f05be00cb
:100970004f04be000000e00000000600889fbe009b
:100980008a9fbe0000827000040271000482710020
:10099000260032000004be000200be006011b80054
:1009a0006b092000950220000182cf000a00390067
:1009b0000541b1000082cf00070039000541b100b8
:1009c0000982cf00040039000541b1000882cf0040
:1009d000010039000541b100054252001200320009
:1009e0000a003b0082817100610164008100d10036
:1009f0000080d3008984d3000884d3008b05e800ed
:100a00000442e800f7ff3a000700370008044400fa
:100a100089844c0000004800818048008b05e90073
:100a20000442e900f9ff3a0032ff07004f05be001b
:100a30004f04be000000060080017800020037006d
:100a4000b15978000201e9000200e000fcff3a0021
:040a5000000006009c
:020000040000fa
:100a540000c100008140000001c00000804100008e
:100a640001c000008041000000c10000814000007e
:100a740001c000008041000000c10000814000006e
:100a840000c100008140000001c00000804100005e
:100a940001c000008041000000c10000814000004e
:100aa40000c100008140000001c00000804100003e
:100ab40000c100008140000001c00000804100002e
:100ac40001c000008041000000c10000814000001e
:100ad40001c000008041000000c10000814000000e
:100ae40000c100008140000001c0000080410000fe
:100af40000c100008140000001c0000080410000ee
:100b040001c000008041000000c1000081400000dd
:100b140000c100008140000001c0000080410000cd
:100b240001c000008041000000c1000081400000bd
:100b340001c000008041000000c1000081400000ad
:100b440000c100008140000001c00000804100009d
:100b540001c000008041000000c10000814000008d
:100b640000c100008140000001c00000804100007d
:100b740000c100008140000001c00000804100006d
:100b840001c000008041000000c10000814000005d
:100b940000c100008140000001c00000804100004d
:100ba40001c000008041000000c10000814000003d
:100bb40001c000008041000000c10000814000002d
:100bc40000c100008140000001c00000804100001d
:100bd40000c100008140000001c00000804100000d
:100be40001c000008041000000c1000081400000fd
:100bf40001c000008041000000c1000081400000ed
:100c040000c100008140000001c0000080410000dc
:100c140001c000008041000000c1000081400000cc
:100c240000c100008140000001c0000080410000bc
:100c340000c100008140000001c0000080410000ac
:100c440001c000008041000000c10000814000009c
:100c540000c00000c1010000c303000002c2000084
:100c6400c606000007c7000005c50000c404000054
:100c7400cc0c00000dcd00000fcf0000ce0e000004
:100c84000aca0000cb0b0000c909000008c8000014
:100c9400d818000019d900001bdb0000da1a000084
:100ca4001ede0000df1f0000dd1d00001cdc000054
:100cb40014d40000d5150000d717000016d6000084
:100cc400d212000013d3000011d10000d010000094
:100cd400f030000031f1000033f30000f232000084
:100ce40036f60000f7370000f535000034f4000054
:100cf4003cfc0000fd3d0000ff3f00003efe000004
:100d0400fa3a00003bfb000039f90000f838000013
:100d140028e80000e9290000eb2b00002aea000083
:100d2400ee2e00002fef00002ded0000ec2c000053
:100d3400e424000025e5000027e70000e626000083
:100d440022e20000e3230000e121000020e0000093
:100d5400a060000061a1000063a30000a262000083
:100d640066a60000a7670000a565000064a4000053
:100d74006cac0000ad6d0000af6f00006eae000003
:100d8400aa6a00006bab000069a90000a868000013
:100d940078b80000b9790000bb7b00007aba000083
:100da400be7e00007fbf00007dbd0000bc7c000053
:100db400b474000075b5000077b70000b676000083
:100dc40072b20000b3730000b171000070b0000093
:100dd4005090000091510000935300005292000083
:100de4009656000057970000559500009454000053
:100df4009c5c00005d9d00005f9f00009e5e000003
:100e04005a9a00009b5b0000995900005898000012
:100e140088480000498900004b8b00008a4a000082
:100e24004e8e00008f4f00008d4d00004c8c000052
:100e34004484000085450000874700004686000082
:100e44008242000043830000418100008040000092
:100e5400596f00006e670000436900000000000045
:020000040000fa
:100e64000060fe00b043800051a22a00810f5000b0
:100e74007500320008003e008180e900810f5000b7
:100e84002f0032005a003e008100e900810f50001b
:100e9400df003a000b00370071a22a00810f5000d6
:100ea400970032007f0039008100e800810f500074
:100eb400a90032008100e800810f5000d4003a00fc
:100ec400bc0037000060fe00f0c3b3002190200096
:100ed400914f100017003a001b1c07000000e000af
:100ee400140032007808e20003003a007628ef008c
:100ef40000c0eb00c800370051c0b30070e120000f
:100f0400014878000060fe0011c0b30050e22000e8
:100f14000148780041c0b3000000e80001487800af
:100f240001c1b3000000e8000148780000c0eb00f4
:100f3400b90037007628ef0000c0eb00b600370098
:100f44000060fe007808e20003003a007628ef0013
:100f540000c0eb00b0003700f0c3b30021902000c4
:100f6400914f10001f003a00f71b07000000e0003b
:100f74001c0032000060fe00909020009080fb0076
:100f84000040eb00b1080700a09020009080fb0017
:100f940010c0b300ad080700b09020009080fb00a3
:100fa40020c0b300a908070041c0b30070e12000cd
:100fb400014878000060fe0021c0b30050e2200028
:100fc4000148780081c0b3000000e80001487800bf
:100fd400f8c040000000e8000148780000c0eb00c1
:100fe4008d0037007628ef0000c0eb008a00370040
:100ff4000060fe00324580004345800010448000bc
:10100400214480009bfd07000000e0000b00350038
:10101400609020009080fb000040eb005608070021
:1010240020c0b30051e220008048780071e1200024
:101034008048780000c0eb00770037007628ef0086
:1010440000c0eb00740037000060fe0032458000f1
:1010540043458000104480002144800085fd070042
:101064000000e0000c003500909020009080fb0010
:101074000040eb007508070011c0b30050e22000e7
:101084000148780041c0b30070e1200001487800b5
:1010940000c0eb00600037007628ef0000c0eb00d2
:1010a4005d0037000060fe007245800083458000cb
:1010b40030448000414480006efd07000000e000e1
:1010c4000c003500709020009080fb0010c0b3002d
:1010d4002908070081c0b30060e2200001487800bd
:1010e40021c0b30070e120000148780000c0eb008b
:1010f400490037007628ef0000c0eb0046003700b7
:101104000060fe007245800083458000304480000a
:101114004144800057fd07000000e0000b0035004b
:10112400a09020009080fb0010c0b3004708070087
:1011340040c0b30061e220008048780071e12000e3
:101144008048780000c0eb00330037007628ef00b9
:1011540000c0eb00300037000060fe00b2458000a4
:10116400c3458000504480006144800041fd070075
:101174000000e0000c003500809020009080fb000f
:1011840020c0b300fc07070001c2b30070e22000d6
:101194000148780021c0b30070e1200001487800c4
:1011a40000c0eb001c0037007628ef0000c0eb0005
:1011b400190037000060fe00b2458000c34580007e
:1011c40050448000614480002afd07000000e000d4
:1011d4000c003500b09020009080fb0020c0b300cc
:1011e4001a08070001c1b30070e22000014878002a
:1011f40041c0b30070e120000148780000c0eb005a
:10120400050037007628ef0000c0eb00020037002d
:101214000060fe000040eb00000006000060fe00dd
:1012240010ccb300c1e22000914f10000400320042
:10123400e08f200001c1b30090cf100015003a00e8
:101244000041eb00f1fd2f00008020007b1d070012
:10125400e08f200001c1b30090cf100008003a00d5
:1012640000c1eb00f1ff2e0000022000731d0700f7
:1012740000c1eb00f1df2f00400020006f1d0700cc
:101284000060fe0001c1b3003090200001487800e6
:10129400090037003090200001c1b30090cf100046
:1012a40001003a000048eb0000c1eb00f1fd2f0003
:1012b40000802000611d070020ccb300d1e2200093
:1012c400914f100004003200f08f200011c1b300d0
:1012d40090cf100015003a000041eb00f1fe2f0002
:1012e40000002100551d0700f08f200011c1b3003c
:1012f40090cf100008003a0000c1eb00f17f2f00ee
:10130400000120004d1d070000c1eb00f1f72f0084
:1013140080002000491d07000060fe0011c1b300d9
:1013240030902000014878000900370030902000f8
:1013340011c1b30090cf100001003a000048eb0047
:1013440000c1eb00f1fe2f00000021003b1d07004f
:1013540030ccb300e1e22000914f100004003200d1
:101364000090200021c1b30090cf100015003a0076
:101374000041eb0071ff2f00004020002f1d0700eb
:101384000090200021c1b30090cf100008003a0063
:1013940000c1eb00f1bf2f0000042000271d07004f
:1013a40000c1eb00f1fb2f0020002000231d0700eb
:1013b4000060fe0021c1b300309020000148780095
:1013c400e90037003090200021c1b30090cf100015
:1013d40001003a000048eb0000c1eb0071ff2f0050
:1013e40000402000151d07003090200010407800b8
:1013f40070405000e24f5000db0036003090200077
:101404000048eb000060fe006500500010407800ca
:1014140051c3b300814f500014003a000041eb0067
:10142400f1df2f0040002000041d070000c1eb0085
:10143400f1ff2e0000022000001d07000060fe00e6
:1014440050cbb300f1e22000914f10001d003a0090
:10145400401f20000100200030748800417488007f
:10146400f0e220000048eb001600370041c3b3004f
:10147400814f500013003a000041eb00f1ff2e00b1
:1014840000022000ed1c070000c1eb00f1df2f007b
:1014940040002000e91c07000060fe0040cbb300c0
:1014a400f1e22000914f100006003a00401f200096
:1014b400010020003074880041748800f0e22000ac
:1014c4000048eb000060fe00f08f20001040780020
:1014d40071c3b300814f500014003a000041eb0087
:1014e400f1f72f0080002000d41c070000c1eb009e
:1014f400f17f2f0000012000d01c07000060fe00d7
:1015040070cbb300f1e22000914f10001d003a00af
:10151400401f2000010020003074880041748800be
:10152400f0e220000048eb001600370061c3b3006e
:10153400814f500013003a000041eb00f17f2f006f
:1015440000012000bd1c070000c1eb00f1f72f00d3
:1015540080002000b91c07000060fe0060cbb300cf
:10156400f1e22000914f100006003a00401f2000d5
:10157400010020003074880041748800f0e22000eb
:101584000048eb000060fe0000902000104078004e
:1015940091c3b300814f500014003a000041eb00a6
:1015a400f1fb2f0020002000a41c070000c1eb0069
:1015b400f1bf2f0000042000a01c07000060fe0003
:1015c40090cbb300f1e22000914f10001d003a00cf
:1015d400401f2000010020003074880041748800fe
:1015e400f0e220000048eb001600370081c3b3008e
:1015f400814f500013003a000041eb00f1bf2f006f
:10160400000420008d1c070000c1eb00f1fb2f003b
:1016140020002000891c07000060fe0080cbb3007e
:10162400f1e22000914f100006003a00401f200014
:10163400010020003074880041748800f0e220002a
:101644000048eb000060fe00f08f2000104078009e
:1016540071c3b300814f50001c003a0050c3b30063
:10166400e18f2000914f100037003a0064404000a1
:101674008180e800914f100033003a000041eb00f4
:10168400f1ff2700000820006c1c070000c1eb00dc
:10169400f1ff2b0000202000681c07000060fe0002
:1016a40020cbb300f1e22000914f10002e003a004d
:1016b400401f20000100200030748800417488001d
:1016c400f0e220000048eb002700370061c3b300bc
:1016d400814f50001c003a0040c3b300e18f20004a
:1016e400914f100018003a00644040008180e800e7
:1016f400914f100014003a000041eb00f1ff2b0061
:10170400002020004d1c070000c1eb00f1ff270062
:1017140000082000491c07000060fe0030cbb30025
:10172400f1e22000914f10000f003a00401f20000a
:10173400010020003074880041748800f0e2200029
:101744000048eb000800370000c1eb00f1ff270060
:1017540000082000391c070000c1eb00f1ff2b003a
:1017640000202000351c070000000600881f7800b8
:10177400cf1b070030438800414388007808e2000b
:1017840029023a000060fe00324380004343800097
:101794009088200041002000800f5100818f590063
:1017a4001f003a0000eb20001004e0001c003a0087
:1017b4000060fe00a1e920001140e80080487800a4
:1017c400fd4f5000260036000060fe0011c0b3003b
:1017d40000eb200001487800a0e920000048eb005d
:1017e40050c3b300e18f2000914f10000800320075
:1017f40000c0e8008100e800914f100004003200ae
:1018040000c0e8008100e800914f100014003a0085
:1018140020a22a00b0438800720507001000370098
:101824003243800043438000908820004100200020
:10183400800f5100818f5900090032000060fe00c2
:10184400a0e92000104078000004e000020032000b
:10185400a1e920008048e90000eb20000048eb00eb
:1018640032438000434380003022200001012000e5
:10187400800f5100818f590023003a0030438000cb
:10188400414380000048a3001f003a0010eb2000f1
:101894001004e0001c003a00b0e920001048e80001
:1018a4000060fe00d1c1b30090cf100028003600c4
:1018b4000060fe0011c0b30010eb20000148780066
:1018c400b0e920000048eb0040c3b300e18f2000e2
:1018d400914f10000800320000c0e8008100e800c9
:1018e400914f10000400320000c0e8008100e800bd
:1018f400914f100016003a0030a22a00b04388002d
:10190400380507001200370032438000434380004b
:101914003022200001012000800f5100818f5900e6
:1019240004003a0030438000414380000048a30093
:1019340007003200b0e920001004e0000200320089
:101944000060fe001048e90010eb20000048eb00a6
:1019540030438000414380009004b2008000eb00db
:1019640082042000820f5000e08f58001e003a00cd
:1019740032458000434580001044800021448000ab
:101984003cfb07000000e0001700350020eb2000be
:101994001004e00014003a000060fe00c1e92000d9
:1019a4001140e80080487800fd4f500029003600bf
:1019b4000060fe0011c0b30020eb20000148780055
:1019c400c0e920000048eb0050c3b300e18f2000c1
:1019d400914f10001f003a0040a22a00b043880033
:1019e400000507001b00370030438000414380009e
:1019f4009004b2008000eb0082042000820f5000ab
:101a0400e08f58000b003a0018c0b3003245800044
:101a140043458000104480002144800015fb0700ea
:101a24000000e00001003d000044eb000804e00079
:101a340008003a000060fe00c0e920001004e00045
:101a4400020032000060fe001048e90020eb200094
:101a54000048eb0030438000414380003010b20066
:101a64008000eb0022102000820f5000e08f58000d
:101a740022003a0030438000414380000048a30024
:101a84001e003a0032458000434580001044800027
:101a940021448000f7fa07000000e0001700350039
:101aa40030eb20001004e00014003a00d0e92000dc
:101ab4001048e8000060fe00d1c1b30090cf1000d0
:101ac4002d0036000060fe0011c0b30030eb200092
:101ad40001487800d0e920000048eb0040c3b3007f
:101ae400e18f2000914f100023003a0050a22a00f9
:101af400b0438800bb0407001f0037003043800058
:101b0400414380003010b2008000eb00221020001e
:101b1400820f5000e08f58000f003a0030438000dd
:101b2400414380000048a3000b003a0018c0b300f2
:101b340032458000434580001044800021448000e9
:101b4400ccfa07000000e00001003d000044eb0077
:101b54000804e00008003a000060fe00d0e920001c
:101b64001004e000020032000060fe001048e900aa
:101b740030eb20000048eb003043800041438000fc
:101b840012482000000061008000eb0002482000a1
:101b9400820f5000e08f58001e003a00724580000a
:101ba400834580003044800041448000b1fa07003e
:101bb4000000e0001700350040eb20001004e000b6
:101bc40014003a000060fe00e1e920001140e80042
:101bd40080487800fd4f50002a0036000060fe0067
:101be40011c0b30040eb200001487800e0e9200078
:101bf4000048eb0070c3b300f18f2000914f100038
:101c040020003a0060a22a00b0438800750407004f
:101c14001c003700304380004143800012482000fc
:101c2400000061008000eb0002482000820f500099
:101c3400e08f58000b003a0018c0b30072458000d2
:101c440083458000304480004144800089fa0700c5
:101c54000000e00001003d000044eb000804e00047
:101c640008003a000060fe00e0e920001004e000f3
:101c7400020032000060fe001048e90040eb200042
:101c84000048eb00304380004143800012022100f1
:101c9400000061008000eb0002022100820f50006e
:101ca400e08f580021003a00304380004143800017
:101cb4000048a3001d003a0072458000834580005f
:101cc40030448000414480006afa07000000e000cc
:101cd4001600350050eb20001004e00013003a0019
:101ce400f0e920001048e8000060fe00d1c1b30014
:101cf40090cf10002e00360011c0b30050eb20002e
:101d040001487800f0e920000048eb0060c3b3000c
:101d1400f18f2000914f100025003a0070a22a0094
:101d2400b04388002f0407002100370030438000af
:101d34004143800012022100000061008000eb009a
:101d440002022100820f5000e08f58000f003a0079
:101d540030438000414380000048a3000b003a0058
:101d640018c0b30072458000834580003044800071
:101d7400414480003ffa07000000e00001003d00fc
:101d84000044eb000804e00009003a000060fe0093
:101d9400f0e92000104078000004e0000200320066
:101da400f1e920008048e90050eb20000048eb00f6
:101db4003043800041438000128024000000610011
:101dc4008000eb0002802400820f5000e08f580056
:101dd4001e003a00b2458000c34580005044800094
:101de4006144800023fa07000000e000170035007a
:101df40060eb20001004e00014003a000060fe00d4
:101e040001ea20001140e80080487800fd4f5000ae
:101e14002a0036000060fe0011c0b30060eb200011
:101e24000148780000ea20000048eb0090c3b300aa
:101e340001902000914f100020003a0080a22a0057
:101e4400b0438800e70307001c00370030438000dc
:101e54004143800012802400000061008000eb00f8
:101e640002802400820f5000e08f58000b003a00db
:101e740018c0b300b2458000c345800050448000c0
:101e840061448000fbf907000000e00001003d0010
:101e94000044eb000804e00008003a000060fe0083
:101ea40000ea20001004e000020032000060fe009e
:101eb4001048e90060eb20000048eb00304380004c
:101ec4004143800012202000130020000002610022
:101ed400018161008001eb00c010dd0000002000e2
:101ee4006121b8000200700083807000022020008d
:101ef40013002000820f5000838f580021003a0005
:101f040030438000414380000048a3001d003a0094
:101f1400b2458000c3458000504480006144800085
:101f2400d4f907000000e0001600350070eb200033
:101f34001004e00013003a0010ea20001048e80002
:101f44000060fe00d1c1b30090cf1000360036000f
:101f540011c0b30070eb20000148780010ea2000a3
:101f64000048eb0080c3b30001902000914f1000a3
:101f74002d003a0090a22a00b0438800990307007c
:101f840029003700304380004143800012202000a4
:101f94001300200000026100018161008001eb0058
:101fa400c010dd00000020006121b80002007000b4
:101fb400838070000220200013002000820f500054
:101fc400838f58000f003a00304380004143800063
:101fd4000048a3000b003a0018c0b300b2458000cb
:101fe400c34580005044800061448000a1f907008b
:101ff4000000e00001003d000044eb000804e000a4
:1020040009003a000060fe0010ea20001040780049
:102014000004e0000200320011ea20008048e900d8
:1020240070eb20000048eb00304380004143800007
:102034000018a3001700320080eb20001004e00019
:1020440014003a000060fe0021ea20001140e8007c
:1020540080487800fd4f50001b00360011c0b300cb
:1020640080eb20000148780020ea20000048eb00c3
:1020740041c3b300e08f20000148780021c0b300c1
:1020840020e22000014878006900400000c8eb000d
:102094000d00370030438000414380000018a30046
:1020a40009003a000060fe0020ea20001040780099
:1020b4000004e0000200320021ea20008048e90028
:1020c40080eb20000048eb00304380004143800057
:1020d4000038a3001600320090eb20001004e0004a
:1020e40013003a000060fe0031ea20001140e800cd
:1020f40080487800fd4f50001a00360010c0b3002d
:1021040091eb20008048780031ea20008048eb0001
:1021140052c3b300e18f20008248780021e22000fe
:10212400804878006980400000c8eb000d0037004b
:1021340030438000414380000038a30009003a0086
:102144000060fe0030ea2000104078000004e00047
:102154000200320031ea20008048e90090eb2000c0
:102164000048eb0030438000414380000058a30046
:1021740017003200a0eb20001004e00014003a0025
:102184000060fe0041ea20001140e8008048780029
:10219400fd4f50001b00360011c0b300a0eb20001f
:1021a4000148780040ea20000048eb0061c3b30016
:1021b400f08f20000148780081c0b30030e2200095
:1021c400014878006800400000c8eb000d003700ab
:1021d40030438000414380000058a30009003a00c6
:1021e4000060fe0040ea2000104078000004e00097
:1021f4000200320041ea20008048e900a0eb200000
:102204000048eb0030438000414380000078a30085
:1022140017003200b0eb20001004e00014003a0074
:102224000060fe0051ea20001140e8008048780078
:10223400fd4f50001b00360011c0b300b0eb20006e
:102244000148780050ea20000048eb0071c3b30055
:10225400f08f20000148780041c0b30030e2200034
:10226400014878006800400000c8eb000d0037000a
:1022740030438000414380000078a30009003a0005
:102284000060fe0050ea2000104078000004e000e6
:102294000200320051ea20008048e900b0eb20003f
:1022a4000048eb0030438000414380000098a300c5
:1022b40017003200c0eb20001004e00014003a00c4
:1022c4000060fe0061ea20001140e80080487800c8
:1022d400fd4f50001b00360011c0b300c0eb2000be
:1022e4000148780060ea20000048eb0081c3b30095
:1022f4000090200001487800f8c0500040e220001f
:10230400014878006700400000c8eb000d0037006a
:1023140030438000414380000098a30009003a0044
:102324000060fe0060ea2000104078000004e00035
:102334000200320061ea20008048e900c0eb20007e
:102344000048eb00304380004143800000b8a30004
:1023540017003200d0eb20001004e00014003a0013
:102364000060fe0071ea20001140e8008048780017
:10237400fd4f50001b00360011c0b300d0eb20000d
:102384000148780070ea20000048eb0091c3b300d4
:10239400009020000148780001c1b30040e2200011
:1023a400014878006700400000c8eb000d003700ca
:1023b400304380004143800000b8a30009003a0084
:1023c4000060fe0070ea2000104078000004e00085
:1023d4000200320071ea20008048e900d0eb2000be
:1023e4000048eb003243800043438000a0002000fb
:1023f40001002000020160008001eb00800f510009
:10240400818f590004003200304380004143800032
:102414006a00600017003a00e0eb20001004e000be
:1024240014003a000060fe0081ea20001140e80038
:1024340080487800fd4f50002400360011c0b300de
:10244400e0eb20000148780080ea20000048eb001f
:1024540001c1b300e08f20000148780031c0b3000f
:1024640020e22000014878006900400000c8eb0029
:10247400160037003243800043438000a000200050
:1024840001002000020160008001eb00800f510078
:10249400818f59000d003200304380004143800099
:1024a4006a006000090032000060fe0080ea20003b
:1024b400104078000004e0000200320081ea2000ad
:1024c4008048e900e0eb20000048eb003243800044
:1024d40043438000000a2000010020000201600044
:1024e4008001eb00800f5100818f590004003200fd
:1024f4003043800041438000000ab20017003a00d4
:10250400f0eb20001004e00014003a000060fe002c
:1025140091ea20001140e80080487800fd4f500007
:102524002400360011c0b300f0eb2000014878000d
:1025340090ea20000048eb0011c1b300f08f2000a6
:1025440001487800c1c0b30030e22000014878009f
:102554006800400000c8eb001600370032438000da
:1025640043438000000a20000100200002016000b3
:102574008001eb00800f5100818f59000d00320063
:102584003043800041438000000ab2000900320059
:102594000060fe0090ea2000104078000004e00093
:1025a4000200320091ea20008048e900f0eb2000ac
:1025b4000048eb00324380004343800000a0200029
:1025c40001002000020160008001eb00800f510037
:1025d400818f590005003200304380004143800060
:1025e40002a020000000610017003a0000ec200067
:1025f4001004e00014003a000060fe00a1ea20008c
:102604001140e80080487800fd4f50002500360056
:1026140011c0b30000ec200001487800a0ea2000bb
:102624000048eb0021c1b30000902000014878006d
:10263400fec0400040e220000148780067004000ee
:1026440000c8eb001700370032438000434380008a
:1026540000a0200001002000020160008001eb00c6
:10266400800f5100818f59000e00320030438000ea
:102674004143800002a020000000610009003200f4
:102684000060fe00a0ea2000104078000004e00092
:1026940002003200a1ea20008048e90000ec20009a
:1026a4000048eb0030438000414380000028a30031
:1026b4001700320010ec20001004e00014003a006f
:1026c4000060fe00b1ea20001140e8008048780074
:1026d400fd4f50000800360011c0b30010ec20007c
:1026e40001487800b0ea20000048eb0011cab300aa
:1026f40010902000014878000040eb0021ec2000fd
:1027040080487800c1ea2000804878001a00370029
:1027140030438000414380000028a30016003a00a3
:1027240020ec20001004e00013003a000060fe00da
:10273400c1ea20001140e80080487800fd4f5000b5
:102744000800360011c0b30020ec200001487800d6
:10275400c0ea20000048eb0051cab30010902000ea
:10276400014878000040eb0011ec2000804878001c
:10277400b1ea200080487800304380004143800063
:102784000008a3001700320030ec20001004e00021
:1027940014003a000060fe00d1ea20001140e80075
:1027a40080487800fd4f50000800360011c0b30087
:1027b40030ec200001487800d0ea20000048eb000b
:1027c400f1c3b30020902000014878000040eb00e2
:1027d40041ec200080487800e1ea2000804878003d
:1027e4001a00370030438000414380000008a300f2
:1027f40016003a0040ec20001004e00013003a00f8
:102804000060fe00e1ea20001140e8008048780002
:10281400fd4f50000800360011c0b30040ec20000a
:1028240001487800e0ea20000048eb00f1ccb30056
:1028340020902000014878000040eb0031ec20009b
:1028440080487800d1ea2000804878004f0478005e
:102854000000060090407800e1cf500009003200eb
:1028640003003900e2cf500010003a000a0037009c
:102874006190200091407800e3c04000114098002e
:102884000c0037007190200091407800e3c04000b4
:102894001140980007003700819020009140780093
:1028a400e3c04000114098000200370051c3b30058
:1028b4001140980000000600881f7800000478008a
:1028c4009800900050a52a00808f50000d003a0017
:1028d40070c7b300984f10000a003a00e2a2a900a2
:1028e400cb02a800cb62a800cbc2a900ca82a80070
:1028f400e2a2a900cb02a800cb62a800cbc2a90027
:10290400ca82a800480190008001eb006800900092
:10291400f8009000071d07000004e00010003200da
:10292400e2a2a900cb02a800cb62a900cbc2a800f6
:10293400ca82a900e2a2a900cb02a800cb62a90026
:10294400cbc2a800ca82a9000000eb0010049800c2
:10295400004c78000060fe0050a52a002004980076
:102964004f04780000000600881f780000047800f7
:102974009800900050a52a00808f50000d003a0066
:1029840070c7b300984f10000a003a00e2c2a900d1
:10299400cb22a800cb82a800cbe2a900caa2a8003f
:1029a400e2c2a900cb22a800cb82a800cbe2a900f6
:1029b400caa2a800480190008001eb0068009000c2
:1029c400f8009000db1c07000004e0001000320057
:1029d400e2c2a900cb22a800cb82a900cbe2a800c6
:1029e400caa2a900e2c2a900cb22a800cb82a900f6
:1029f400cbe2a800caa2a9000000eb0010049800d2
:102a0400004c78000060fe0050a52a0020049800c5
:102a14004f04780000000600881f78000004780046
:102a24009800900050a52a00808f50000d003a00b5
:102a340070c7b300984f10000a003a00e862a9007a
:102a4400cb42a800cba2a800e282a900e902a80018
:102a5400e862a900cb42a800cba2a800e282a900a8
:102a6400e902a800480190008001eb006800900092
:102a7400f8009000af1c07000004e00010003200d2
:102a8400e862a900cb42a800cba2a900e282a80078
:102a9400e902a900e862a900cb42a800cba2a900e0
:102aa400e282a800e902a9000000eb0010049800eb
:102ab400004c78000060fe0050a52a002004980015
:102ac4004f04780000000600881f78000004780096
:102ad40098009000a0aa2a00808f50000d003a00b0
:102ae40070c7b300984f10000a003a00cb62a900e7
:102af400cbc2a800e2a2a800cb02a900ca82a80007
:102b0400cb62a900cbc2a800e2a2a800cb02a90014
:102b1400ca82a800380190008001eb006800900090
:102b2400f8009000831c07000004e000100032004d
:102b3400e2a2a900cb02a800cb62a900cbc2a800e4
:102b4400ca82a900e2a2a900cb02a800cb62a90014
:102b5400cbc2a800ca82a9000000eb0010049800b0
:102b6400004c78000060fe00a0aa2a00200498000f
:102b74004f04780000000600881f780000047800e5
:102b840098009000a0aa2a00808f50000d003a00ff
:102b940070c7b300984f10000a003a00cb82a90016
:102ba400cbe2a800e2c2a800cb22a900caa2a800d6
:102bb400cb82a900cbe2a800e2c2a800cb22a900e4
:102bc400caa2a800380190008001eb0068009000c0
:102bd400f8009000571c07000004e00010003200c9
:102be400e2c2a900cb22a800cb82a900cbe2a800b4
:102bf400caa2a900e2c2a900cb22a800cb82a900e4
:102c0400cbe2a800caa2a9000000eb0010049800bf
:102c1400004c78000060fe00a0aa2a00200498005e
:102c24004f04780000000600881f78000004780034
:102c340098009000a0aa2a00808f50000d003a004e
:102c440070c7b300984f10000a003a00cba2a90045
:102c5400e282a800e862a800cb42a900e902a80029
:102c6400cba2a900e282a800e862a800cb42a90096
:102c7400e902a800380190008001eb006800900090
:102c8400f80090002b1c07000004e0001000320044
:102c9400e862a900cb42a800cba2a900e282a80066
:102ca400e902a900e862a900cb42a800cba2a900ce
:102cb400e282a800e902a9000000eb0010049800d9
:102cc400004c78000060fe00a0aa2a0020049800ae
:102cd4004f047800000006003600f800809fbe0014
:102ce400829fbe00849fbe00869fbe0084e0a90030
:102cf4000060fe00e0e420001080fb006600b900e4
:102d04000080e800a1e32000614078000040e90071
:102d14008080fb0042c1b3000440bc0043d92000c2
:102d2400e341790082c8b30082cf510025003a0004
:102d34007409b9000281e80043d9200063017900d5
:102d44000200e0001f003a00740ab9008400780011
:102d54000181410074c7b30004497800a4aa2a0081
:102d64001401980034738000457380006401980056
:102d740075019800f080400042c1b3000440bc00db
:102d840003004100e380780001000100e1e4200039
:102d94001140e800804878008100e900914f50001c
:102da4000700310062c0b3000440bc00640041006d
:102db400f380500061007800771b070001003700a2
:102dc4007a1b07004f03be004f02be004f01be0036
:102dd4004f00be003600f9000040060086a0a9009e
:102de4000040060050a52a00c043880000000600e9
:102df4007828ef000000060040d920001004e0000d
:102e040018003a00b06c80000000e00015003a00a1
:102e1400c06c80000000e00012003a0080da20005c
:102e24001004e0000f003a00506d80000000e00044
:102e34000c003a00606d80000000e00009003a00d8
:102e4400c0db20001004e00006003a00f06d8000b2
:102e54000000e00003003a00006e80000000e00083
:102e6400020032007628ef004000370090c0a9002d
:102e74005824ef009823ef00e0e420000048eb0022
:102e84000000e90010407800e14f500017003600c0
:102e940021e4200000c0e90062c0b3000440bc008b
:102ea400e68340008283430046d9200085c8b300ee
:102eb4000002eb00230320001140e90042c1b300eb
:102ec4000440bc0002014300054978000280e80088
:102ed4000408780033019800110090005001980014
:102ee400e6804000878f5000f3ff3a00c0e32000e3
:102ef4001040e90041d9200042c1b3000440bc00a5
:102f04000280400073c7b30003487800a3aa2a00d4
:102f140013009800230320003300980034738000ca
:102f240045738000640098007500980070014100aa
:102f3400e100790001000100e1e420001140e80013
:102f4400804878008100e900914f5000060031006c
:102f540062c0b3000440bc0064004100f380500030
:102f640061007800031b07000060fe0000000600fb
:102f7400889fbe008a9fbe008c9fbe008e1f780073
:102f84007808e200360032000060fe0030e62000df
:102f9400904078000104e0000e00320040d9200087
:102fa4001004e00006003a00b06c80000000e0006d
:102fb40003003a00c26c80000200e000020032000c
:102fc4007628ef00260037000040e800814f5000cb
:102fd400fdff390090c0a9005824ef009823ef00aa
:102fe40018e52000720544004bd920007ec7b300c9
:102ff4006ce620001804e000140032001840900031
:103004000040e90042c1b3000440bc000280450016
:103014000e487800a1aa2a0011009800ec0640008e
:10302400bc1e7800ac167800210320003100980003
:103034000060fe0070014100eb0079000100010016
:10304400bc1e7800ac167800004ceb00660444000b
:103054008a0f5400e7ff3a0030e620000048eb00f6
:103064004f0778004f06be004f05be004f04be0058
:1030740000000600889fbe008a9fbe008c9fbe0091
:103084008e1f78007808e200360032000060fe00ef
:1030940030e62000904078000104e0000e00320089
:1030a40040d920001004e00006003a00b06c800013
:1030b4000000e00003003a00c26c80000200e0005f
:1030c400020032007628ef00260037000040e800b6
:1030d400814f5000fdff390090c0a9005824ef0033
:1030e4009823ef0018e52000720544004bd9200016
:1030f4007ec7b3006ce620001804e0001400320020
:10310400184090000040e90042c1b3000440bc00f4
:10311400028045000e48780051a52a00110098004d
:10312400ec064000bc1e7800ac167800e1012000db
:10313400310098000060fe0072014100eb0079004c
:1031440001000100bc1e7800ac167800004ceb00b6
:10315400660444008a0f5400e7ff3a0030e620007a
:103164000048eb004f0778004f06be004f05be0035
:103174004f04be0000000600889fbe007808e200ed
:10318400300032008081fb0042c1b3000440bc0027
:1031940044d92000644179000204e0000c003a00a4
:1031a400741ab9000481e80044d92000640179004c
:1031b4000200e00006003a00741ab90064014200fb
:1031c40044d92000640179000200e00002003200ca
:1031d4007628ef001b00370090c0a9005824ef00a8
:1031e4009823ef000060fe0044d920007419b90050
:1031f400820178000301420075c7b30005497800d5
:10320400a5aa2a0015019800ec04410068e62000f4
:10321400b81c7800a8147800660141006389400056
:103224000060fe00f081410042c1b3000440bc00d4
:1032340004004100e480790001000100b81c78001a
:10324400a81478004f04be0000000600889fbe004a
:103254007808e200300032008081fb0042c1b300f4
:103264000440bc0044d92000644179000204e00019
:103274000c003a00741ab9000481e80044d9200013
:10328400640179000200e00006003a00741ab900f3
:103294006401420044d92000640179000200e00086
:1032a400020032007628ef001b00370090c0a9000e
:1032b4005824ef009823ef000060fe0044d920005a
:1032c4007419b900820178000301420075c7b30084
:1032d4000549780055a52a0015019800ec04410021
:1032e40068e62000b81c7800a81478006801410042
:1032f4000189e8000060fe00f281410042c1b30090
:103304000440bc0004004100e48079000100010095
:10331400b81c7800a81478004f04be000000060012
:10332400881f78000060fe00b06c8000a1aa2a000b
:10333400810f50000d003a0071c7b30042d920003c
:1033440092cf100009003a000060fe0090c0a9006e
:103354005824ef009823ef0002007800216d8000cc
:103364000100010018c8b300100037000044eb004e
:1033740051a52a00810f50000c003a0070c7b30019
:1033840041d92000914f100008003a000060fe006f
:1033940090c0a9005824ef009823ef0001007800a2
:1033a400316d80000100010028c8b300506d800019
:1033b400a1aa2a00810f50000e003a0071c7b30081
:1033c40082da200092cf10000a003a000060fe006a
:1033d40090c0a9005824ef009823ef000200780061
:1033e400c16d80000100010040c8b30000447400b6
:1033f4001000370051a52a00810f50000d003a003b
:1034040070c7b30081da2000914f100009003a0020
:103414000060fe0090c0a9005824ef009823ef003c
:1034240001007800d16d80000100010080c8b30064
:1034340000447400f06d8000a1aa2a00810f50009e
:103444000d003a0070c7b300c1db2000914f10009b
:1034540018003a000060fe0090c0a9005824ef0054
:103464009823ef0001007800616e800001000100e4
:103474000844a0000f00370051a52a00810f500016
:103484000c003a0070c7b300c1db2000914f10005c
:1034940008003a000060fe0001007800716e8000b0
:1034a4000100010090c0a9005824ef009823ef0008
:1034b4000854a000084078004f047800000006007b
:1034c4008042eb0040d92000054878000000eb0062
:1034d400b06c8800c06c880024032000d46c880081
:1034e400e1012000e16c8800f06c88006011b800f4
:1034f400026d8800136d880066612100266d8800c6
:10350400e6502100366d88000060fe0086da200057
:10351400004b7800506d8800606d8800746d8800e1
:10352400816d8800906d8800a26d8800b36d88005d
:10353400e65b2100c66d8800664b2100d66d8800cd
:103544000060fe00c6db2000054b7800f06d8800ab
:10355400006e8800146e8800216e8800306e88002a
:10356400426e8800536e880060562100606e8800a9
:10357400e0452100706e88000060fe000000060037
:103584000800fa00889fbe006c8057000300090001
:103594000018eb000060fe00ec8057000142880038
:1035a40080c0b30042e8b7007828ef00e462a900c5
:1035b400c7a2a900de82a900c742a900e862a90047
:1035c400cb42a800cba2a900e282a800e902a9008c
:1035d4000060fe00dec2a900c782a900c7e2a900fc
:1035e400c722a900e2c2a900cb22a800cb82a9006d
:1035f400cbe2a800caa2a9000060fe00dea2a900d6
:10360400c762a900c7c2a900c702a900e2a2a90013
:10361400cb02a800cb62a900cbc2a800ca82a90031
:103624000060fe007628ef0040de20000044eb003e
:1036340008487800c9422100496f880085fc0700ca
:10364400a0de200011c0b30001487800796f880023
:1036540080fc070000df200021c0b300014878008f
:10366400a96f88007bfc07000060fe0094ff070040
:103674003073800041738000507388006173880048
:1036840090738800a1738800d0738800e173880068
:103694001074880021748800507488006174880054
:1036a400401f20000100200030748800417488000d
:1036b4000000eb0090708800a070880061e1200099
:1036c400804878000100e800084878000000e8001d
:1036d400084878000000e800084878000000e80086
:1036e400084878000000e80008487800c0fd07009a
:1036f40080e22000084878000000e80008487800cc
:103704000000e80008487800650050000848780088
:103714000000e800084878000000e8000848780045
:103724000060fe0000c0eb00b1e220008048780099
:10373400e9805000884878008100e80088487800d3
:103744008100e80088487800eb80400088487800d1
:10375400ec805700b171880081e320008048780034
:10376400e0be20001080fb00003cb300cf80de00f0
:1037740080718800917188000028ef004f04be001a
:103784000080fa0000000600889fbe000004780054
:1037940048409000e44f500002003200e64f5000d1
:1037a4002e003a00b8009000514078006341600058
:1037b40040de2000024878009180fb00ec8060002d
:1037c400c208de000248e900e6044000814ce9003a
:1037d4000060fe00b8009000314190004811dd0007
:1037e400a14090008180fb00828070008100d100a4
:1037f400616f88000060fe00416f800001000100dd
:1038040009007800716f80000100010066804400a7
:10381400b8009000914090000103b200c488de001b
:103824000148e9000060fe00b8009000514190009a
:103834004811dd00c14090008180fb00828070004f
:103844008100d100916f88000060fe00a16f8000ac
:103854000100010000c0eb00020037000060fe0020
:103864000040eb004f04be0000000600c06c800066
:10387400a1aa2a00810f500006003a000060fe0051
:10388400228f200020002f00f10720009d17070041
:103894000800370051a52a00810f500005003a00a6
:1038a4000060fe00428f200040002f00f10720003e
:1038b40094170700606d8000a1aa2a00810f5000b0
:1038c40006003a000060fe00628f200060002f00b6
:1038d400f10720008b1707000800370051a52a00c4
:1038e400810f500005003a000060fe00828f200026
:1038f40080002f00f107200082170700006e80006f
:10390400a1aa2a00810f500006003a000060fe00c0
:10391400a28f2000a0002f00f107200079170700d4
:103924000800370051a52a00810f500005003a0015
:103934000060fe00c28f2000c0002f00f1072000ad
:10394400701707000000eb00c06c8800606d8800f1
:10395400006e88000060fe0000000600889fbe0024
:10396400b06c80000000e00007003200506d800061
:103974000000e00004003a0010cfb300f16d8000b5
:103984000100e000d600320090c0a800f00b200037
:10399400c02288009823ef00841807000060fe000e
:1039a400c06c80000000e00006003a00606d8000fa
:1039b4000000e00003003a00006e80000000e00018
:1039c4001d00320090c0a800f00b2000c022880027
:1039d4009823ef000060fe0000322000304288008f
:1039e4004828ef00a1ff070000408000851207006f
:1039f4003473800045738000544288006542880017
:103a04000000eb00b06c8800506d8800f06d8800f9
:103a14008040eb0042d92000004978007401410045
:103a2400014978007401410001497800c06c8800a4
:103a3400606d8800006e88005242800063428000fe
:103a440060e6200030021100a0821900304280009c
:103a540041428000800f5200818f5a000c003900cf
:103a640000408000a10407000080eb008080eb0090
:103a740030428800414288005042880061428800f8
:103a84000028ef0040e120000008eb00d8fc07000c
:103a94000060fe00a0e82000c81807000004e00051
:103aa40006003200491107000060fe0030738000f8
:103ab400417380005074880061748800a0e720007e
:103ac400be1807000004e0000600320027f70700d4
:103ad4000060fe003473800045738000d473880056
:103ae400e5738800def407000004e00005003200fe
:103af4007608f8000008f9007628ef0000c0eb0013
:103b040077003700c8df2000ea044400080078008a
:103b1400c21907000004e0000500320019417800d2
:103b2400e1df2000080078005f0c0700f7ff370092
:103b340020e72000a11807000004e00004003a0078
:103b4400b0e2200080c2eb0090cf120010003a00d7
:103b54000060fe00b1f5070040c0200031c0b30092
:103b640090cf100004003a00907080000000e00044
:103b740001003a00cf010700b0e220000048eb004a
:103b8400347380004573800094738800a5738800a3
:103b94000060fe0020e82000881807000004e00010
:103ba400170032003181200091407800f0ff2d0091
:103bb4000413070013e8ee00b0e1200080c2eb001c
:103bc40090cf12000a003a001248ec0012e8b70045
:103bd400e94f5000060036006000b8008b0d070066
:103be400401f2000010020003074880041748800c8
:103bf4003073800041738000107488002174880041
:103c04000060fe00a0e620006c1807000004e0003d
:103c14000700320045170700f0448800014588007a
:103c24003473800045738000547388006573880082
:103c340060e1200080c2eb0090cf12001a003a002d
:103c4400907080000000e0001700320070e1200056
:103c540010407800e44f500013003e000004e000e0
:103c640011003200cd1307000004e0000c003a00fc
:103c74008004eb009970880060e120000948780016
:103c84000004e80061c0b300184078008500070014
:103c9400004ceb00a970880055fc070002003700b7
:103ca40060e1200000c8eb0080e1200080c0eb0050
:103cb40090cf100003003a004e08070080e1200076
:103cc4000048eb000040eb0091e1200000c1eb0054
:103cd400914f110002003a00c80407000040eb00b5
:103ce4004f04be0000000600889fbe008a9fbe00ed
:103cf4008c9fbe002ae120005b552500e4044500aa
:103d0400fc5f20008906e80085fd07000004e00050
:103d1400fdff3a00e862a900cb42a800cba2a900ab
:103d2400e282a800e902a900e2c2a900cb22a8000d
:103d3400cb82a900cbe2a800caa2a900e2a2a900f2
:103d4400cb02a800cb62a900cbc2a800ca82a900fa
:103d540002ff07000004e000ebff3a001300370005
:103d64008e1307000004e0000f003a0090c0a80082
:103d7400f00b2000c02288009823ef008d1207006a
:103d84000004eb00080d7800884c780061c0b30093
:103d94001d40780043000700804eeb00a8708800a7
:103da40013fc07000100370080cceb009a8f15004c
:103db400d5ff3a00990f1600e9ff3200d2ff370011
:103dc4000040eb00d1e42000804878008100e90045
:103dd400804878008180e80080487800f3805000b3
:103de400804878008100e800804878008000eb007b
:103df400f1718800a2e320000149780067014100c5
:103e0400004978000201e800004978002172880026
:103e14000281e90000497800670141000049780007
:103e24000201e80000497800517288000281e9002b
:103e34000049780032e62000004978000201e900d8
:103e4400004978000281e8000049780073015100bc
:103e5400004978000201e80000497800a172880056
:103e64000281e900004978006701410000497800b7
:103e74000201e80000497800d17288000281e9005b
:103e84000049780067014100004978000201e80018
:103e940000497800017388008280e9008048780036
:103ea400000006001200fa007281570003000900a6
:103eb4000019eb0072815700e2bf9f0000c1eb00c4
:103ec400e2ff9f000060fe00e2be20001281fb00c2
:103ed400023cb300cf91de00b2bf9f00c3bf9f007e
:103ee40042c1b300e2ef9f006fb997001041980000
:103ef4006fb8970021409800a1cab3006fb897002b
:103f04003140980040c0b300a0ff9f000060fe0055
:103f14006a8057004b0907000080fa000000060081
:103f2400e6874700889fbe008a9fbe008e1f7800e8
:103f34000004be006e805700000009000018eb006a
:103f44000058eb00c84090000108a30003003200b1
:103f54000060fe0020c0b3009e00370020c0b30004
:103f6400e1cf50009b003600380090009045780067
:103f740010459000a0c0b30051c3b300e28f2000ed
:103f840092cf100093003a0081c0e8000201e800db
:103f940092cf10008f003a0081c0e8000201e800cf
:103fa40092cf10008b003a00e70f07000000e000fa
:103fb40006003a000060fe0091c0b3000b40780098
:103fc400b8ff070090c0b300820037004842900059
:103fd4000482fb000482e900220020001100090091
:103fe4000202d8000042e80030c0b300804f520003
:103ff40078003e000404e000250032008a82fb00c1
:1040040080406500a1f79f00720032006e87570060
:104014008040eb000600370082a9de00e3c16100a6
:10402400036f78000281e8000304e00068003200b6
:104034008140e800814f5200f7ff3e00e24f5200fa
:1040440006003a0030c0b300bff097002ff197008c
:10405400814f510064003a005e003700e34f520084
:104064000b003a002ff19700bff1970030c0b30066
:10407400834f510057003200cff0970081cf510099
:1040840054003200814f510057003a00510037006c
:10409400d0e42000044878000000e9000a487800d1
:1040a4000080e8000048eb007300500000c8eb00fb
:1040b4000000e800aff19700034878000080e800b2
:1040c4000008eb00e14f52001100360053003700a6
:1040d40007487800de41780013409800b80190004a
:1040e400e3c27800c82add008181410073fb970098
:1040f4000683fb00e3014000850973000241e800e8
:10410400660040008180e800824f5200f0ff3e00cc
:10411400e24f52000a003e0004407800a3e320006e
:104124008040eb0062c0b3000440bc000281410047
:10413400114198000040e800e34f5000f9ff3a00b5
:1041440070e120000b487800494090000004e00032
:104154000a0032000040eb008080fb00b9019000af
:10416400b271800063f178000060fe000040e80056
:10417400c940900080cf5000f7ff3e00907080004f
:104184000000e0000d003a000060fe000900780025
:10419400ac08070080438000761207000060fe0030
:1041a400505525009070880060e1200000c8eb00a5
:1041b4007c1107000040eb00060037007d1107006a
:1041c40020e120000008eb0080c0b30001003700ac
:1041d40030c0b3004f0778004f05be004f04be0047
:1041e4006f00b10000000600d0e42000044878000d
:1041f4000000e9000a4878000080e8000048eb006d
:104204007300500000c8eb000000e800aff0970016
:10421400014878000080e8000008eb0010e420006a
:104224006e8757003100200012c0b30080c3eb003a
:10423400a7ff37001200fa00f280570003000900bc
:104244008018eb00f2805700e1bf9f0080c0eb00b4
:10425400e1ff9f000060fe00e1be20001181fb0031
:10426400023cb300cf91de00b2bf9f00c3bf9f00ea
:1042740051c1b300e1ef9f004801de00efb89700a1
:1042840092409800efb89700a0409800a1c5b300f1
:104294006fb897003140980040c0b300a0ff9f0062
:1042a4000060fe006a805700660807000080fa007c
:1042b400000006001200fa00728057000300090093
:1042c4000018eb0072805700e0bf9f0000c0eb00b5
:1042d400e0ff9f000060fe00e0be20001080fb00b5
:1042e400f003b2000034b300cf80de00b0bf9f0003
:1042f400c1bf9f00a0c9b300e0ef9f0020e22000ef
:104304008000e8009140780090c070000080e800d0
:1043140090c070006fb897001140980050e22000e0
:104324008000e8009140780090c070000080e800b0
:1043340090c070006fb897002140980080e2200080
:104344008000e8009140780090c070000080e80090
:1043540090c070006fb897003140980030902000f2
:104364001004e00005003a000060fe0011c0b30034
:104374006fb8970041409800040037000060fe00c9
:104384008040eb006fb897004140980011902000e6
:104394006fb89700914078005140980060c0b30016
:1043a400a0ff9f006a805700260807000060fe00f7
:1043b4000040eb0051e22000804878008100e800d2
:1043c400804878008100e800804878000080fa0086
:1043d40000000600881f78008000780041419000aa
:1043e40020c0b300e34f510022003a003100900096
:1043f40010419000a04290008240e90030c0b30018
:10440400e6cf50001b003e0011e520000000eb0049
:104414008041eb000282fb000344780080c3eb0080
:104424000003eb0000a1de000208a3000700320035
:10443400874878000041e80092409800638140007a
:10444400060978008341e8000100370088487800b5
:104454000000e800e6804000e30f5000f1ff3a005e
:1044640030e62000034878000080e8000548780022
:104474000040eb004f04780000000600889fbe0057
:104484008a9fbe008c1f78001ac0b300324580009a
:1044940043458000104480002144800073f00700ed
:1044a4000000e000010035000045eb00e08f200033
:1044b4001046780019c0b30072458000834580001f
:1044c400304480004144800068f007000000e000b0
:1044d400010035008044eb00f08f20009045780007
:1044e40018c0b300b2458000c3458000504480002a
:1044f400614480005df007000000e0000100350029
:104504000044eb00009020001043780010e52000e8
:104514007201400075c3b30094c3b30053c3b30026
:104524001004e0001500320090409000e2cf5000eb
:1045340009003200e3cf50000c003200e1cf5000fc
:1045440017003a000a04e00017003a00834f5600af
:104554000a003200160037000904e00016003a0091
:1045640085cf550005003200150037000804e0002f
:1045740015003a00844f530015003a0066004000cd
:10458400820f5000e6ff3a0030c0b30031e620004d
:104594001104e0000f0032000040eb000d00370072
:1045a40030c0b3000b00370090c0b30009003700df
:1045b400a0c0b3000700370090c0b3000500370067
:1045c400a0c0b3000300370090c0b300010037005f
:1045d400a0c0b3004f0678004f05be004f04be00d4
:1045e40000000600889fbe008a9fbe008c1f7800d2
:1045f4001ac0b30032458000434580001044800057
:104604002144800019f007000000e000010035009b
:104614000045eb00e08f20001046780019c0b3007d
:10462400724580008345800030448000414480000e
:104634000ef007000000e000010035008044eb00ac
:10464400f08f20009045780018c0b300b245800078
:10465400c3458000504480006144800003f007009b
:104664000000e000010035000044eb000090200051
:104674001043780010e520007201400065c3b300c8
:1046840084c3b30043c3b3001004e0001500320038
:1046940090409000e2cf500009003200e3cf500078
:1046a4000c003200e1cf500017003a000a04e00089
:1046b40017003a00834f56000a00320016003700f4
:1046c4000904e00016003a0085cf550005003200c9
:1046d400150037000804e00015003a00844f530029
:1046e40015003a0066004000820f5000e6ff3a00d1
:1046f40030c0b30031e620001104e0000f003200a6
:104704000040eb000d00370030c0b3000b00370051
:1047140090c0b30009003700a0c0b3000700370001
:1047240090c0b30005003700a0c0b30003003700f9
:1047340090c0b30001003700a0c0b3004f0678005a
:104744004f05be004f04be0000000600889fbe0057
:10475400800478000104780039009000104178004a
:10476400f34f51005f013e00e1be20001182fb00c7
:10477400003c200004027000cfa2de00048cbe00c6
:104784009180fb0001007000cf80de008071880002
:1047940091718800024078000074a000b800900075
:1047a40080487800b1718000804878000060fe0085
:1047b400ef4f51000a003e0050c5b3001190200095
:1047c400914f100006003a000060fe00390090008e
:1047d40051c0b30010407800b2fd0700410137001a
:1047e400e54f510011003e0049409000e14f500058
:1047f4000d00360011c0b3000060fe000180fb0014
:10480400b801900039029000e471780038029000f9
:10481400b3718000e47178008140e8004940900061
:10482400814f5000f4ff3e004044980040e32000d4
:10483400c940900001487800e44f5100ab003200b9
:1048440006003e00e24f51003a00320078003e007c
:10485400e14f51001e013a0007003700f14f5100ab
:10486400e6003200f24f51000f013200e54f5100d3
:1048740017013a00dd00370050cab3001190200040
:10488400914f100004003a0051c0b30010c0b300af
:1048940084fd070013013700907080000000e000e1
:1048a4000600320020e120000008eb0081c0b300c4
:1048b40010c0b3007bfd07000a013700090078002f
:1048c400c4fe07000004e0000400320080407800c9
:1048d40010c0b30073fd070002013700e7fe0700b4
:1048e4000004e000040032008040780010c0b300ef
:1048f4006cfd0700fb0037000060fe00494190009a
:104904000281fb00b9009000a0e0200049f00700fc
:1049140060e1200000c8eb0008007800c906070029
:10492400a0aa2a009070880090438000911007008c
:10493400ec00370050cab30011902000914f1000d2
:1049440004003a0051c0b30020c0b30055fd070075
:10495400e400370091708000a0aa2a00808f5000e4
:1049640004003a0060e1200000c1eb00904f110008
:10497400070032000060fe0071c0b30020c0b30025
:1049840048fd07000000eb0090708800a0708800cc
:10499400c9419000e1cf5100120036003901900066
:1049a400b0e0200052427800904f520008003200dc
:1049b4000300370052427800d14f52000600320003
:1049c400c1c0b30020c0b30036fd0700c5003700e6
:1049d400b1e0200010c0b3000040e800834f500055
:1049e400f4ff3900a5fe07000004e00003003200d4
:1049f4008040780020c0b3002afd070021c0b30026
:104a040070e1200001487800f6f8070060e120001a
:104a14000048eb00640050000008eb000060fe005a
:104a2400080078008706070051f90700ad00370039
:104a340050cab30011902000914f100004003a00b6
:104a440051c0b30030c0b30016fd0700a500370005
:104a5400907080000000e0000600320020e1200099
:104a64000008eb0081c0b30030c0b3000dfd0700a7
:104a74009c0037000900780056fe07000004e0009f
:104a8400040032008040780030c0b30005fd070008
:104a940094003700d3fe07000004e0000400320055
:104aa4008040780030c0b300fefc07008d00370062
:104ab4000060fe00494190000281fb00b9009000b3
:104ac400a0e02000dbef070060e1200000c8eb005d
:104ad400080078005b06070050a52a009070880043
:104ae40090438000231007007e00370050cab300b3
:104af40011902000914f100004003a0051c0b300ff
:104b040040c0b300e7fc07007600370091708000d6
:104b140050a52a00808f500004003a0060e1200074
:104b240080c0eb0090cf1000070032000060fe0050
:104b340071c0b30040c0b300dafc07000000eb0012
:104b440090708800a0708800c9419000e1cf5100a6
:104b54001200360039019000b0e020005242780083
:104b6400904f520008003200030037005242780090
:104b7400d14f520006003200c1c0b30040c0b300a0
:104b8400c8fc070057003700b1e0200010c0b30094
:104b94000040e800834f5000f4ff390091fe070005
:104ba4000004e000040032008040780040c0b300fc
:104bb400bcfc07004b00370041c0b30070e120008b
:104bc4000148780087f8070060e120000048eb0006
:104bd400640050000008eb000060fe00080078004c
:104be4001806070023f907003e0037008800780004
:104bf40009007800cafc07003a0037000060fe0094
:104c040038009000b9009000914090001140980045
:104c1400390090008080e800014288001040900034
:104c24000184200017020700e14f400006003a000b
:104c34000060fe003900900011c0b30010407800fd
:104c440098fc0700270037000004e000060032004b
:104c54000060fe003900900021c0b30010407800cd
:104c640090fc07001f0037003800900001428000cc
:104c74009140780021409800380090000142800063
:104c8400914090003140980042c8ec0040449800a4
:104c94000060fe0008007800ea05070080e12000bb
:104ca40000c8eb000f00370039009000104190005d
:104cb4004184200082487800a04090005484200061
:104cc400014a780090e1200000c8eb00050037009d
:104cd4000060fe003900900011c0b300104078005d
:104ce40070fc07004f04be0000000600881f780017
:104cf400000478000800e0000a003a00a870800070
:104d04000800e000ad00320080e3200000c8eb00a2
:104d140050552500800f54002000320000e320008d
:104d2400c805070050a22a00800f54005800320022
:104d34000f003e0063005000800f54001700320043
:104d440004003e0050552500800f54009b003a009b
:104d54001200370030a22a00800f540026003200cf
:104d64000000e800800f540094003a003900370036
:104d740070a22a00800f54006300320053003900ef
:104d84000000e800800f54006e0032000000e800cc
:104d9400800f540089003a007900370040c3b30003
:104da400e18f2000914f100008003a0000c0e80095
:104db4008100e800914f100004003a0000c0e800b0
:104dc4008100e800914f100008003200b1c0b30028
:104dd40070e120001040780032fc070021cbb300c2
:104de400f0e220000148780077003700f0e220006c
:104df4000048eb007900370050c3b300e18f200076
:104e0400914f100008003a0000c0e8008100e8005b
:104e1400914f100004003a0000c0e8008100e8004f
:104e2400914f100008003200b1c0b30070e12000bf
:104e3400104078001bfc070031cbb300f0e22000e7
:104e44000148780060003700f0e220000048eb00e1
:104e54006200370040c3b300e18f2000914f10007f
:104e640008003200b1c0b30070e1200010407800a7
:104e74000cfc070041cbb300f0e2200001487800ad
:104e840051003700f0e220000048eb0053003700e7
:104e940050c3b300e18f2000914f1000080032008e
:104ea400b1c0b30070e1200010407800fdfb0700a2
:104eb40051cbb300f0e220000148780042003700f3
:104ec400f0e220000048eb004400370060c3b30068
:104ed400f18f2000914f100008003200b1c0b300e0
:104ee40070e1200010407800eefb070061cbb300b6
:104ef400f0e220000148780033003700f0e220009f
:104f04000048eb003500370070c3b300f18f200078
:104f1400914f100008003200b1c0b30070e12000ce
:104f240010407800dffb070071cbb300f0e22000f3
:104f34000148780024003700f0e220000048eb002c
:104f44002600370080c3b30001902000914f100069
:104f540008003200b1c0b30070e1200010407800b6
:104f6400d0fb070081cbb300f0e2200001487800b9
:104f740015003700f0e220000048eb00170037006e
:104f840090c3b30001902000914f1000080032003c
:104f9400b1c0b30070e1200010407800c1fb0700ed
:104fa40091cbb300f0e220000148780006003700fe
:104fb400f0e220000048eb0008003700f0e2200097
:104fc4001004e0000500320040062000010020002b
:104fd400307488004174880004003700401f2000aa
:104fe400010020003074880041748800b0e2200081
:104ff40000c8eb004f047800000006001200fa001d
:10500400889fbe008a1f78006e8057000300090045
:105014000018eb006e805700f0b79f00807180008d
:1050240091718000c0b79f00d1b79f0000c0eb0012
:1050340080f79f0090e1200080c0eb0090cf10002b
:1050440030003a0020c9b300a0f79f004884200034
:105054001844780045c8bf00884f50002900390023
:1050640089c0b3000045eb000060fe0021842000ed
:105074008948780001842000084078003001070046
:10508400ef4f400002003200ed4f400005003a00af
:105094000060fe0021c0b3007fb09700104078008c
:1050a40080fb07007fb097001840980042c8ec00ce
:1050b400c0ef9f000b0032000a4078008080fb00a4
:1050c4007fb197000101410003428000e3c17800f1
:1050d400234198000040e800cfe8970080cf5000bb
:1050e400f6ff3e000060fe0078805700d5040700fc
:1050f4000844e800518420009140780088cf500093
:10510400d9ff31000040eb0091e120008048780095
:105114008100e800804878004f0578004f04be0005
:105124000080fa00000006003600f800809fbe00f0
:10513400829fbe00849fbe00869fbe003e28ef0073
:1051440086e0a90090c0a9005824ef009823ef003e
:105154009170800050552500808f50000600320069
:1051640090c0a800f00b2000c02288009823ef0014
:10517400900d07003100370060e120001004e000ca
:1051840006003a0090c0a800f00b2000c02288005e
:105194009823ef00870d070028003700f0418000b6
:1051a4008041eb00034278008002eb0001003700ed
:1051b400050078000304a2000381fb00050037000a
:1051c4000000e800e10f400002003a00f0418800ce
:1051d4001a003700a1168000c908de00e1806000d3
:1051e400828f5000f6ff3200fe005000f48f500012
:1051f40002003600f0418800100037000442e80045
:10520400e44f5200eaff3a003e28ef00d522ab00fb
:105214000a003200e44f520008003a000000eb009c
:105224009070880061e1200080487800f2f6070061
:1052340050552500a07088005e0d07004f03be0086
:105244004f02be004f01be004f00be003600f90001
:1052540000400600204190000204e00007003200f4
:105264001001780091009000114978000060fe0060
:1052740011c0b30021409800030037008040eb00c8
:10528400214098000060fe000000060020419000cc
:105294000204e00007003200910090001001780041
:1052a400924878000060fe0011c0b30021409800cd
:1052b400030037008040eb00214098000060fe00ae
:1052c4000000060020419000e14f51000b00360021
:1052d4009100900091007800100178000149780055
:1052e4000060fe0010017800c808de00114198003b
:1052f40021c0b30021409800030037000060fe0085
:105304008040eb00214098000000060020419000fe
:10531400e14f51000b00360022c0b3002240980038
:1053240010007800104190000281fb000060fe0034
:105334004811dd00910090001080fb00800871008e
:10534400030037000060fe008040eb00214098001d
:10535400000006000400fa0020419000e14f5100d3
:105364000f003600910090001101be00e2bf9f00c3
:10537400f3bf9f00658157008000eb009001780027
:105384005242780084f178000060fe008100e80059
:10539400e48f5000f9ff3a002140980003003700e1
:1053a4000060fe008040eb00214098000080fa007d
:1053b40000000600881f7800000478002840900050
:1053c400e14f50000f003600110090000200200051
:1053d400832c24001000be0018ed0700a7ec070082
:1053e40098007800804878000060fe0098007800fb
:1053f4004800de009040980020c0b300204498008c
:10540400030037000060fe000040eb0020449800d9
:105414004f04780000000600889fbe000004780056
:1054240028409000e14f5000110036001800780029
:1054340090419000c819dd001081fb000300710049
:105444000060fe00910490008000eb00a6ec0700d1
:10545400a2702d0033c22300f8ec0700808cbe003c
:105464000060fe0020c0b300204498000300370011
:105474000060fe000040eb00204498004f04be0092
:1054840000000600889fbe008a1f7800810478000f
:10549400839220008000eb000060fe00010478008d
:1054a400934f10001e003a0001407800a2c0b300e0
:1054b4000440bc0080922000000541006a41b9000c
:1054c400e6004100608178008a00780009007800d5
:1054d40002000100a940900010cfb3000104e000d5
:1054e400140032000060fe006a40b9006804400005
:1054f4008092200060017c008a0078000900780016
:10550400020001000060fe00a94090000040eb0092
:105514000104e00007003a0020cfb3000500370083
:105524008100e800ea814100fb8f5000daff3a0075
:1055340000c0eb004f0578004f04be0000000600d9
:10554400881f78000104780001c4b300814f500023
:105554001d003e00839220008000eb000060fe00ee
:1055640001027800934f100011003a000060fe0021
:105574006a22b90068024200839220000140780048
:10558400a2c0b3000440bc0083004100e3017a00e0
:105594000800780003000100a84090000040eb00e0
:1055a4000104e00024003a0010cfb30022003700c9
:1055b4008100e800ea814100fb8f5000e7ff3a00d8
:1055c40020cfb3001c00370063a320008000eb0051
:1055d4000060fe0001027800934f100011003a00b1
:1055e4000060fe006a22b9006802420063a3200042
:1055f40001407800a2c0b3000440bc008300410015
:10560400e3017a000800780003000100a84090003c
:105614000040eb000104e00007003a0030cfb30083
:10562400050037008100e800ea814100f58f500051
:10563400e7ff3a0040cfb3004f04780000000600b3
:1056440011c0b3008092200001487800208a200015
:105654005049880022c2b300c0922000024878005a
:10566400e1a0220071498800c09d22008049880081
:105674000060fe0024c0b300239320008449780016
:10568400638a2000a349880063932000824978003c
:10569400c1498800d049880034c0b300e681410084
:1056a40084497800e38b2000f349880003942000a8
:1056b40082497800114a8800204a880044c0b30017
:1056c400e681410084497800638c2000434a8800c5
:1056d400a394200082497800614a8800704a8800b7
:1056e40054c0b300e681410084497800a38a2000b5
:1056f400934a88004395200082497800b14a880083
:10570400c04a88000060fe0064c0b300e681410026
:1057140084497800e38a2000e34a8800e395200066
:1057240082497800014b8800104b880074c0b30094
:10573400e681410084497800e38c2000334b8800e3
:105744008396200082497800514b8800604b880082
:105754000060fe0084c0b300e68141008449780003
:10576400638d2000834b88002397200082497800b2
:10577400a14b8800b04b880094c0b300e68141007f
:1057840084497800238b2000d34b8800c3972000e2
:1057940082497800f14b8800004c88000060fe00cc
:1057a400a4c0b300e681410084497800638b2000e3
:1057b400234c88006398200082497800414c88007b
:1057c400504c8800b4c0b300e6814100844978009d
:1057d400e38d2000734c88000399200082497800ef
:1057e400914c8800a04c88000060fe00c4c0b30047
:1057f400e681410084497800638e2000c34c880010
:10580400a399200082497800e14c8800f04c88007c
:10581400d4c0b300e681410084497800a38e2000ff
:10582400134d8800439a200082497800314d880046
:10583400404d88000060fe00e4c0b300e6814100f2
:1058440084497800e38e2000634d8800e39a2000a9
:1058540082497800814d8800904d8800f4c0b300df
:10586400e681410084497800c3902000b34d88004c
:10587400839b200082497800d14d8800e04d880048
:105884000060fe0003c1b300e49b2000034a7800db
:1058940004912000044e8800249c2000024a7800d1
:1058a400214e8800304e880015c1b30066024200c4
:1058b400054a780044912000544e8800c49c20007e
:1058c400024a7800714e8800804e88000060fe0015
:1058d40021c1b300660042000148780020872000ff
:1058e400a04e880002c1e9006a0042000248780024
:1058f40081982200c14e880040962200d04e880034
:1059040035c1b30070024200054a780004872000c4
:10591400f44e8800049e2000024a7800114f88004b
:10592400204f88000060fe0041c1b30066004200c1
:105934000148780060902000404f88006a004200cf
:105944000348780081942200614f8800c0922200ad
:10595400704f880054c1b300029f200004497800ae
:1059640092902000924f8800429f200003497800c3
:10597400b14f8800c04f88000060fe0064c1b300ce
:10598400660141000449780072902000e24f8800cb
:10599400e29f2000034978000150880010508800dd
:1059a40074c1b3006601410004497800a29020004c
:1059b4003250880082a020000349780051508800aa
:1059c400605088000060fe0084c1b300660141009d
:1059d40004497800829020008250880022a120008f
:1059e40003497800a1508800b050880094c1b300e6
:1059f4006601410004497800b2902000d25088002a
:105a0400c2a1200003497800f150880000518800a9
:105a14000060fe00a4c1b30066014100044978009f
:105a2400429020002251880062a22000034978009d
:105a34004151880050518800b4c1b300660141004f
:105a440004497800e28420007251880002a32000f7
:105a54000349780091518800a05188000000060095
:105a64000060fe0011c4b30060a320000148780068
:105a740020882000c0518800ffc05000a0a320004f
:105a8400014878000000eb00e0518800c29d22002c
:105a9400f251880024c4b30003a420008449780090
:105aa400638820001352880043a4200081497800b1
:105ab40030528800425288000060fe000442e80030
